{
  "_format": "hh-sol-artifact-1",
  "contractName": "EnvironmentalPolicyLogic",
  "sourceName": "contracts/lib/EnvironmentalPolicyLogic.sol",
  "abi": [
    {
      "inputs": [
        {
          "internalType": "string",
          "name": "contextLevel",
          "type": "string"
        },
        {
          "internalType": "enum EnvironmentalPolicyLogic.RiskLevel",
          "name": "thresholdLevel",
          "type": "EnvironmentalPolicyLogic.RiskLevel"
        }
      ],
      "name": "evaluate",
      "outputs": [
        {
          "internalType": "bool",
          "name": "granted",
          "type": "bool"
        }
      ],
      "stateMutability": "pure",
      "type": "function"
    }
  ],
  "bytecode": "0x6080806040523461001a5761039f9081610020823930815050f35b600080fdfe6080600436101561000f57600080fd5b600090813560e01c637e2157cb1461002657600080fd5b60407ffffffffffffffffffffffffffffffffffffffffffffffffffffffffffffffffc3601126101725767ffffffffffffffff9060043582811161016e573660238201121561016e5780600401359083821161016a57366024838301011161016a57602435936003851015610166577fffffffffffffffffffffffffffffffffffffffffffffffffffffffffffffffe0603f81601f86011601168401908482109082111761013957826100ef9493602488946020946040528287520183860137830101526101c5565b600381101561010c576020925060ff806040519316911611158152f35b6024837f4e487b710000000000000000000000000000000000000000000000000000000081526021600452fd5b6024867f4e487b710000000000000000000000000000000000000000000000000000000081526041600452fd5b8580fd5b8480fd5b8380fd5b5080fd5b604051906040820182811067ffffffffffffffff82111761019657604052565b7f4e487b7100000000000000000000000000000000000000000000000000000000600052604160045260246000fd5b602081519101207f6c6f77000000000000000000000000000000000000000000000000000000000060206101f7610176565b6003815201527f72e202ecc31e532b534c49c160181cef44f90bcfaccd37037424ff9ac79456d0810361022a5750600090565b7f6d656469756d00000000000000000000000000000000000000000000000000006020610255610176565b6006815201527f3ab0b67412918f8f1210e41bc8a2ff98ed67dd7036f38cf7d1bc582ed1fd38dd81036102885750600190565b7f82247b42a0ceadb9deb0ac0d0d798bd40d89bcd6cdc79e8db3c1db6f70af8ac8907f686967680000000000000000000000000000000000000000000000000000000060206102d5610176565b600481520152146103645760846040517f08c379a000000000000000000000000000000000000000000000000000000000815260206004820152602c60248201527f456e7669726f6e6d656e74616c506f6c6963794c6f6769633a20696e76616c6960448201527f64207269736b206c6576656c00000000000000000000000000000000000000006064820152fd5b60029056fea2646970667358221220183f259892f7c019dddb739703947cbf673f4eb30ad3c9641c8ab8c9811cec6764736f6c63430008180033",
  "linkReferences": {},
  "deployedLinkReferences": {}
}