{
  "_format": "hh-sol-artifact-1",
  "contractName": "EnvironmentalPolicyLogic",
  "sourceName": "contracts/lib/EnvironmentalPolicyLogic.sol",
  "abi": [
    {
      "inputs": [
        {
          "internalType": "string",
          "name": "contextLevel",
          "type": "string"
        },
        {
          "internalType": "enum EnvironmentalPolicyLogic.RiskLevel",
          "name": "thresholdLevel",
          "type": "EnvironmentalPolicyLogic.RiskLevel"
        }
      ],
      "name": "evaluate",
      "outputs": [
        {
          "internalType": "bool",
          "name": "granted",
          "type": "bool"
        }
      ],
      "stateMutability": "pure",
      "type": "function"
    }
  ],
  "bytecode": "0x610460610052600b82828239805160001a6073146045577f4e487b7100000000000000000000000000000000000000000000000000000000600052600060045260246000fd5b30600052607381538281f3fe73000000000000000000000000000000000000000030146080604052600436106100355760003560e01c80637e2157cb1461003a575b600080fd5b610054600480360381019061004f91906102c2565b61006a565b604051610061919061033d565b60405180910390f35b6000806100ba85858080601f016020809104026020016040519081016040528093929190818152602001838380828437600081840152601f19601f820116905080830192505050505050506100fa565b60028111156100cc576100cb610358565b5b905060008360028111156100e3576100e2610358565b5b90508060ff168260ff161115925050509392505050565b600080828051906020012090506040518060400160405280600381526020017f6c6f770000000000000000000000000000000000000000000000000000000000815250805190602001208103610154576000915050610229565b6040518060400160405280600681526020017f6d656469756d00000000000000000000000000000000000000000000000000008152508051906020012081036101a1576001915050610229565b6040518060400160405280600481526020017f68696768000000000000000000000000000000000000000000000000000000008152508051906020012081036101ee576002915050610229565b6040517f08c379a00000000000000000000000000000000000000000000000000000000081526004016102209061040a565b60405180910390fd5b919050565b600080fd5b600080fd5b600080fd5b600080fd5b600080fd5b60008083601f84011261025d5761025c610238565b5b8235905067ffffffffffffffff81111561027a5761027961023d565b5b60208301915083600182028301111561029657610295610242565b5b9250929050565b600381106102aa57600080fd5b50565b6000813590506102bc8161029d565b92915050565b6000806000604084860312156102db576102da61022e565b5b600084013567ffffffffffffffff8111156102f9576102f8610233565b5b61030586828701610247565b93509350506020610318868287016102ad565b9150509250925092565b60008115159050919050565b61033781610322565b82525050565b6000602082019050610352600083018461032e565b92915050565b7f4e487b7100000000000000000000000000000000000000000000000000000000600052602160045260246000fd5b600082825260208201905092915050565b7f456e7669726f6e6d656e74616c506f6c6963794c6f6769633a20696e76616c6960008201527f64207269736b206c6576656c0000000000000000000000000000000000000000602082015250565b60006103f4602c83610387565b91506103ff82610398565b604082019050919050565b60006020820190508181036000830152610423816103e7565b905091905056fea2646970667358221220e04c5cf35283b48557ccced042ba03887aeb1c5dd91a074e7552b3ae999067c364736f6c634300081c0033",
  "linkReferences": {},
  "deployedLinkReferences": {}
}