{
  "_format": "hh-sol-artifact-1",
  "contractName": "TemporalPolicyLogic",
  "sourceName": "contracts/lib/TemporalPolicyLogic.sol",
  "abi": [
    {
      "inputs": [
        {
          "components": [
            {
              "internalType": "uint256",
              "name": "validAfter",
              "type": "uint256"
            },
            {
              "internalType": "uint256",
              "name": "validBefore",
              "type": "uint256"
            },
            {
              "internalType": "uint32",
              "name": "dailyStart",
              "type": "uint32"
            },
            {
              "internalType": "uint32",
              "name": "dailyEnd",
              "type": "uint32"
            }
          ],
          "internalType": "struct TemporalPolicyLogic.TemporalParams",
          "name": "params",
          "type": "tuple"
        }
      ],
      "name": "evaluate",
      "outputs": [
        {
          "internalType": "bool",
          "name": "granted",
          "type": "bool"
        }
      ],
      "stateMutability": "view",
      "type": "function"
    }
  ],
  "bytecode": "0x6080806040523461001a576101069081610020823930815050f35b600080fdfe6080806040526004361015601257600080fd5b60003560e01c6328f0ed1814602657600080fd5b60807ffffffffffffffffffffffffffffffffffffffffffffffffffffffffffffffffc360112605e5760209060586063565b15158152f35b600080fd5b6004354210801560c6575b60b85760643563ffffffff90818116809103605e57604435918216809203605e57818111609d575b5050600190565b62015180420691821091821560bd575b505060b85738806096565b600090565b119050388060ad565b506024354211606e56fea264697066735822122047c047cc7d3b75f09577d7e4cb64840f811efe420ba74fce5cd22e6a6d27d62064736f6c63430008180033",
  "linkReferences": {},
  "deployedLinkReferences": {}
}