{
  "_format": "hh-sol-artifact-1",
  "contractName": "TemporalPolicyLogic",
  "sourceName": "contracts/lib/TemporalPolicyLogic.sol",
  "abi": [
    {
      "inputs": [
        {
          "components": [
            {
              "internalType": "uint256",
              "name": "validAfter",
              "type": "uint256"
            },
            {
              "internalType": "uint256",
              "name": "validBefore",
              "type": "uint256"
            },
            {
              "internalType": "uint32",
              "name": "dailyStart",
              "type": "uint32"
            },
            {
              "internalType": "uint32",
              "name": "dailyEnd",
              "type": "uint32"
            }
          ],
          "internalType": "struct TemporalPolicyLogic.TemporalParams",
          "name": "params",
          "type": "tuple"
        }
      ],
      "name": "evaluate",
      "outputs": [
        {
          "internalType": "bool",
          "name": "granted",
          "type": "bool"
        }
      ],
      "stateMutability": "view",
      "type": "function"
    }
  ],
  "bytecode": "0x6102ce610052600b82828239805160001a6073146045577f4e487b7100000000000000000000000000000000000000000000000000000000600052600060045260246000fd5b30600052607381538281f3fe73000000000000000000000000000000000000000030146080604052600436106100355760003560e01c806328f0ed181461003a575b600080fd5b610054600480360381019061004f9190610162565b61006a565b60405161006191906101aa565b60405180910390f35b60008042905082600001358110806100855750826020013581115b15610094576000915050610134565b8260400160208101906100a79190610201565b63ffffffff168360600160208101906100c09190610201565b63ffffffff16111561012e57600062015180826100dd9190610267565b90508360400160208101906100f29190610201565b63ffffffff1681108061011c57508360600160208101906101139190610201565b63ffffffff1681115b1561012c57600092505050610134565b505b60019150505b919050565b600080fd5b600080fd5b6000608082840312156101595761015861013e565b5b81905092915050565b60006080828403121561017857610177610139565b5b600061018684828501610143565b91505092915050565b60008115159050919050565b6101a48161018f565b82525050565b60006020820190506101bf600083018461019b565b92915050565b600063ffffffff82169050919050565b6101de816101c5565b81146101e957600080fd5b50565b6000813590506101fb816101d5565b92915050565b60006020828403121561021757610216610139565b5b6000610225848285016101ec565b91505092915050565b6000819050919050565b7f4e487b7100000000000000000000000000000000000000000000000000000000600052601260045260246000fd5b60006102728261022e565b915061027d8361022e565b92508261028d5761028c610238565b5b82820690509291505056fea2646970667358221220fbeaf46d204381000f5f454c0d0ae7e1deee2f5e7167f4876acc2ec7b1c1fef664736f6c634300081c0033",
  "linkReferences": {},
  "deployedLinkReferences": {}
}