{"contracts/main/DataAnchoringContract.sol":{"DataAnchoringContract":{"abi":[{"inputs":[],"stateMutability":"nonpayable","type":"constructor"},{"inputs":[{"internalType":"uint256[4]","name":"input","type":"uint256[4]"}],"name":"BNAddFailed","type":"error"},{"inputs":[{"internalType":"bytes","name":"dst","type":"bytes"}],"name":"InvalidDSTLength","type":"error"},{"inputs":[{"internalType":"uint256","name":"x","type":"uint256"}],"name":"InvalidFieldElement","type":"error"},{"inputs":[{"internalType":"uint256","name":"noSqrt","type":"uint256"}],"name":"MapToPointFailed","type":"error"},{"inputs":[{"internalType":"uint256","name":"base","type":"uint256"},{"internalType":"uint256","name":"exponent","type":"uint256"},{"internalType":"uint256","name":"modulus","type":"uint256"}],"name":"ModExpFailed","type":"error"},{"anonymous":false,"inputs":[{"indexed":true,"internalType":"bytes32","name":"dataHash","type":"bytes32"},{"indexed":false,"internalType":"string","name":"cid","type":"string"},{"indexed":false,"internalType":"uint256","name":"expiry","type":"uint256"},{"indexed":false,"internalType":"string","name":"status","type":"string"}],"name":"DataAnchored","type":"event"},{"anonymous":false,"inputs":[{"indexed":true,"internalType":"bytes32","name":"dataHash","type":"bytes32"},{"indexed":false,"internalType":"string","name":"newStatus","type":"string"}],"name":"DataUpdated","type":"event"},{"inputs":[{"internalType":"bytes32","name":"dataHash","type":"bytes32"},{"internalType":"string","name":"cid","type":"string"},{"internalType":"uint256","name":"expiry","type":"uint256"},{"internalType":"string","name":"status","type":"string"}],"name":"anchor","outputs":[],"stateMutability":"nonpayable","type":"function"},{"inputs":[{"internalType":"uint256","name":"","type":"uint256"},{"internalType":"uint256","name":"","type":"uint256"}],"name":"blsPubKeys","outputs":[{"internalType":"uint256","name":"","type":"uint256"}],"stateMutability":"view","type":"function"},{"inputs":[{"internalType":"bytes32","name":"dataHash","type":"bytes32"}],"name":"get","outputs":[{"internalType":"bytes32","name":"dataHash_","type":"bytes32"},{"internalType":"string","name":"cid_","type":"string"},{"internalType":"uint256","name":"expiry_","type":"uint256"},{"internalType":"string","name":"status_","type":"string"}],"stateMutability":"view","type":"function"},{"inputs":[{"internalType":"uint256[2]","name":"aggSig","type":"uint256[2]"},{"internalType":"bytes32","name":"dataHash","type":"bytes32"},{"internalType":"string","name":"milestone","type":"string"},{"internalType":"string[]","name":"dids","type":"string[]"}],"name":"update","outputs":[],"stateMutability":"nonpayable","type":"function"}],"evm":{"bytecode":{"linkReferences":{},"object":"608060405234801561001057600080fd5b5060006040518060800160405280600160ff168152602001600060ff168152602001600260ff168152602001600060ff16815250908060018154018082558091505060019003906000526020600020906004020160009091909190915090600461007b929190610157565b5060006040518060800160405280600360ff168152602001600060ff168152602001600460ff168152602001600060ff1681525090806001815401808255809150506001900390600052602060002090600402016000909190919091509060046100e6929190610157565b5060006040518060800160405280600560ff168152602001600060ff168152602001600660ff168152602001600060ff168152509080600181540180825580915050600190039060005260206000209060040201600090919091909150906004610151929190610157565b506101b9565b826004810192821561018b579160200282015b8281111561018a578251829060ff1690559160200191906001019061016a565b5b509050610198919061019c565b5090565b5b808211156101b557600081600090555060010161019d565b5090565b613908806101c86000396000f3fe608060405234801561001057600080fd5b506004361061004c5760003560e01c80633850ed51146100515780634de5fa0c1461006d5780638eaa6ac01461009d578063e3dfeffc146100d0575b600080fd5b61006b6004803603810190610066919061290b565b6100ec565b005b610087600480360381019061008291906129b2565b61029c565b6040516100949190612a01565b60405180910390f35b6100b760048036038101906100b29190612a1c565b6102d4565b6040516100c79493929190612ae8565b60405180910390f35b6100ea60048036038101906100e59190612bb3565b610476565b005b6000801b8603610131576040517f08c379a000000000000000000000000000000000000000000000000000000000815260040161012890612ca6565b60405180910390fd5b60008585905011610177576040517f08c379a000000000000000000000000000000000000000000000000000000000815260040161016e90612d12565b60405180910390fd5b4283116101b9576040517f08c379a00000000000000000000000000000000000000000000000000000000081526004016101b090612d7e565b60405180910390fd5b60006001600088815260200190815260200160002090506000801b816000015414610219576040517f08c379a000000000000000000000000000000000000000000000000000000000815260040161021090612dea565b60405180910390fd5b8681600001819055508585826001019182610235929190613050565b508381600201819055508282826003019182610252929190613050565b50867fe18a55b985f840385ab64291d5164d82da1b055135197b9e06882a73317b8073878787878760405161028b95949392919061315c565b60405180910390a250505050505050565b600082815481106102ac57600080fd5b906000526020600020906004020181600481106102c857600080fd5b01600091509150505481565b600060606000606060006001600087815260200190815260200160002090506000801b81600001540361033c576040517f08c379a0000000000000000000000000000000000000000000000000000000008152600401610333906131f1565b60405180910390fd5b80600001548160010182600201548360030182805461035a90612e73565b80601f016020809104026020016040519081016040528092919081815260200182805461038690612e73565b80156103d35780601f106103a8576101008083540402835291602001916103d3565b820191906000526020600020905b8154815290600101906020018083116103b657829003601f168201915b505050505092508080546103e690612e73565b80601f016020809104026020016040519081016040528092919081815260200182805461041290612e73565b801561045f5780601f106104345761010080835404028352916020019161045f565b820191906000526020600020905b81548152906001019060200180831161044257829003601f168201915b505050505090509450945094509450509193509193565b60006001600087815260200190815260200160002090506000801b8160000154036104d6576040517f08c379a00000000000000000000000000000000000000000000000000000000081526004016104cd906131f1565b60405180910390fd5b6000866040518060400160405280600181526020017f7c000000000000000000000000000000000000000000000000000000000000008152508787604051602001610524949392919061329e565b604051602081830303815290604052905060006105766040518060400160405280600381526020017f44414300000000000000000000000000000000000000000000000000000000008152508361070c565b90506105806127ca565b60005b600080549050811015610606576105f782600083815481106105a8576105a76132d5565b5b90600052602060002090600402016004806020026040519081016040528092919082600480156105ed576020028201915b8154815260200190600101908083116105d9575b50505050506108ae565b91508080600101915050610583565b50600061064b8b6002806020026040519081016040528092919082600260200280828437600081840152601f19601f8201169050808301925050505050508385610979565b5090508061068e576040517f08c379a000000000000000000000000000000000000000000000000000000000815260040161068590613350565b60405180910390fd5b600089896040516020016106a39291906133ec565b6040516020818303038152906040529050808660030190816106c59190613410565b508a7f12f9d9ce5e1577cde337d32720563ae30a0fc8c24bfe12db04a281eead2b6cc5826040516106f691906134e2565b60405180910390a2505050505050505050505050565b6107146127ec565b60006107208484610b54565b905060006107458260006002811061073b5761073a6132d5565b5b6020020151610ce5565b9050600061076a836001600281106107605761075f6132d5565b5b6020020151610ce5565b90506107746127ca565b82600060028110610788576107876132d5565b5b6020020151816000600481106107a1576107a06132d5565b5b602002018181525050826001600281106107be576107bd6132d5565b5b6020020151816001600481106107d7576107d66132d5565b5b602002018181525050816000600281106107f4576107f36132d5565b5b60200201518160026004811061080d5761080c6132d5565b5b6020020181815250508160016002811061082a576108296132d5565b5b602002015181600360048110610843576108426132d5565b5b602002018181525050600060408460808460066107d05a03fa9050806108a057816040517f128e3f0800000000000000000000000000000000000000000000000000000000815260040161089791906135af565b60405180910390fd5b839550505050505092915050565b6108b66127ca565b60006040518451815260208501516020820152604085015160408201526060850151606082015283516080820152602084015160a0820152604084015160c0820152606084015160e082015260808161010083600c5afa9150805183526020810151602084015260408101516040840152606081015160608401525080610972576040517f08c379a000000000000000000000000000000000000000000000000000000000815260040161096990613616565b60405180910390fd5b5092915050565b60008060006040518061018001604052808760006002811061099e5761099d6132d5565b5b60200201518152602001876001600281106109bc576109bb6132d5565b5b602002015181526020017f198e9393920d483a7260bfb731fb5d25f1aa493335a9e71297e485b7aef312c281526020017f1800deef121f1e76426a00665e5c4479674322d4f75edadd46debd5cd992f6ed81526020017f275dc4a288d1afb3cbb1ac09187524c7db36395df7be3b99e673b13a075a65ec81526020017f1d9befcd05a5323e6da4d435f3b617cdb3af83285c2df711ef39c01571827f9d815260200185600060028110610a7257610a716132d5565b5b6020020151815260200185600160028110610a9057610a8f6132d5565b5b6020020151815260200186600160048110610aae57610aad6132d5565b5b6020020151815260200186600060048110610acc57610acb6132d5565b5b6020020151815260200186600360048110610aea57610ae96132d5565b5b6020020151815260200186600260048110610b0857610b076132d5565b5b60200201518152509050610b1a61280e565b6020816101808460086107d05a03fa9250600081600060018110610b4157610b406132d5565b5b6020020151141593505050935093915050565b610b5c6127ec565b6000610b6884846113e0565b90506000806000806018850177ffffffffffffffffffffffffffffffffffffffffffffffff815116935060308601905077ffffffffffffffffffffffffffffffffffffffffffffffff81511694507f30644e72e131a029b85045b68181585d97816a916871ca8d3c208c16d87cfd47857f30644e72e131a029b85045b68181585d97816a916871ca8d3c208c16d87cfd477801000000000000000000000000000000000000000000000000870908925060488601905077ffffffffffffffffffffffffffffffffffffffffffffffff815116935060608601905077ffffffffffffffffffffffffffffffffffffffffffffffff81511694507f30644e72e131a029b85045b68181585d97816a916871ca8d3c208c16d87cfd47857f30644e72e131a029b85045b68181585d97816a916871ca8d3c208c16d87cfd4778010000000000000000000000000000000000000000000000008709089150506040518060400160405280838152602001828152509550505050505092915050565b610ced6127ec565b7f30644e72e131a029b85045b68181585d97816a916871ca8d3c208c16d87cfd478210610d5157816040517fd53e9415000000000000000000000000000000000000000000000000000000008152600401610d489190612a01565b60405180910390fd5b60007f30644e72e131a029b85045b68181585d97816a916871ca8d3c208c16d87cfd4780610d8257610d81613636565b5b60047f30644e72e131a029b85045b68181585d97816a916871ca8d3c208c16d87cfd4780610db357610db2613636565b5b85860909905060007f30644e72e131a029b85045b68181585d97816a916871ca8d3c208c16d87cfd4780610dea57610de9613636565b5b8260010890507f30644e72e131a029b85045b68181585d97816a916871ca8d3c208c16d87cfd4780610e1f57610e1e613636565b5b827f30644e72e131a029b85045b68181585d97816a916871ca8d3c208c16d87cfd47610e4b9190613694565b60010891506000610e8c7f30644e72e131a029b85045b68181585d97816a916871ca8d3c208c16d87cfd4780610e8457610e83613636565b5b8385096115e2565b905060007f30644e72e131a029b85045b68181585d97816a916871ca8d3c208c16d87cfd4780610ebf57610ebe613636565b5b78016789af3a83522eb353c98fc6b36d713d5d8d1cc5dffffffa7f30644e72e131a029b85045b68181585d97816a916871ca8d3c208c16d87cfd4780610f0857610f07613636565b5b847f30644e72e131a029b85045b68181585d97816a916871ca8d3c208c16d87cfd4780610f3857610f37613636565b5b888b090909905060007f30644e72e131a029b85045b68181585d97816a916871ca8d3c208c16d87cfd4780610f7057610f6f613636565b5b827f30644e72e131a029b85045b68181585d97816a916871ca8d3c208c16d87cfd47610f9c9190613694565b7f183227397098d014dc2822db40c0ac2ecbc0b548b438e5469e10460b6c3e7ea308905060007f30644e72e131a029b85045b68181585d97816a916871ca8d3c208c16d87cfd4780610ff157610ff0613636565b5b837f183227397098d014dc2822db40c0ac2ecbc0b548b438e5469e10460b6c3e7ea308905060007f30644e72e131a029b85045b68181585d97816a916871ca8d3c208c16d87cfd478061104757611046613636565b5b868709905060007f30644e72e131a029b85045b68181585d97816a916871ca8d3c208c16d87cfd478061107d5761107c613636565b5b868309905060007f30644e72e131a029b85045b68181585d97816a916871ca8d3c208c16d87cfd47806110b3576110b2613636565b5b7f30644e72e131a029b85045b68181585d97816a916871ca8d3c208c16d87cfd47806110e2576110e1613636565b5b7f30644e72e131a029b85045b68181585d97816a916871ca8d3c208c16d87cfd478061111157611110613636565b5b8485097f10216f7ba065e00de81ac1e7808072c9dd2b2385cd7b438469602eb24829a9bd096001089050600080600161115161114c896115f4565b611692565b60000b036111f357868c60006002811061116e5761116d6132d5565b5b602002018181525050611180876115f4565b905061118b8161175a565b8d60016002811061119f5761119e6132d5565b5b60200201819450828152505050816111ee57806040517f396ec7710000000000000000000000000000000000000000000000000000000081526004016111e59190612a01565b60405180910390fd5b61133f565b6001611206611201886115f4565b611692565b60000b036112a857858c600060028110611223576112226132d5565b5b602002018181525050611235866115f4565b90506112408161175a565b8d600160028110611254576112536132d5565b5b60200201819450828152505050816112a357806040517f396ec77100000000000000000000000000000000000000000000000000000000815260040161129a9190612a01565b60405180910390fd5b61133e565b828c6000600281106112bd576112bc6132d5565b5b6020020181815250506112cf836115f4565b90506112da8161175a565b8d6001600281106112ee576112ed6132d5565b5b602002018194508281525050508161133d57806040517f396ec7710000000000000000000000000000000000000000000000000000000081526004016113349190612a01565b60405180910390fd5b5b5b6113608c600160028110611356576113556132d5565b5b60200201516117a3565b6113698e6117a3565b146113d0578b600160028110611382576113816132d5565b5b60200201517f30644e72e131a029b85045b68181585d97816a916871ca8d3c208c16d87cfd476113b29190613694565b8c6001600281106113c6576113c56132d5565b5b6020020181815250505b5050505050505050505050919050565b606060008351905060ff81111561142e57836040517f26e4f9ba0000000000000000000000000000000000000000000000000000000081526004016114259190613712565b60405180910390fd5b6000608867ffffffffffffffff81111561144b5761144a612e15565b5b6040519080825280601f01601f19166020018201604052801561147d5781602001600182028036833780820191505090505b509050600081856000606060008a886040516020016114a29796959493929190613777565b6040516020818303038152906040529050600081805190602001209050600081600189876040516020016114d994939291906137ec565b60405160208183030381529060405290506000818051906020012090506000606067ffffffffffffffff81111561151357611512612e15565b5b6040519080825280601f01601f1916602001820160405280156115455781602001600182028036833780820191505090505b5090506000600390506000600190505b818110156115bd5783861881600161156d9190613836565b8d8b60405160200161158294939291906137ec565b604051602081830303815290604052945082602001600182036020028101905084815250848051906020012093508080600101915050611555565b5081602001600182036020028101905083815250819850505050505050505092915050565b60006115ed826117b9565b9050919050565b60007f30644e72e131a029b85045b68181585d97816a916871ca8d3c208c16d87cfd478061162557611624613636565b5b60037f30644e72e131a029b85045b68181585d97816a916871ca8d3c208c16d87cfd478061165657611655613636565b5b847f30644e72e131a029b85045b68181585d97816a916871ca8d3c208c16d87cfd478061168657611685613636565b5b86870909089050919050565b60008061169e83611f13565b905060017f30644e72e131a029b85045b68181585d97816a916871ca8d3c208c16d87cfd476116cd9190613694565b81036116fc577fffffffffffffffffffffffffffffffffffffffffffffffffffffffffffffffff915050611755565b6000811415801561170e575060018114155b1561175057826040517f396ec7710000000000000000000000000000000000000000000000000000000081526004016117479190612a01565b60405180910390fd5b809150505b919050565b60008061176683612082565b9150827f30644e72e131a029b85045b68181585d97816a916871ca8d3c208c16d87cfd478061179857611797613636565b5b838409149050915091565b60006002826117b2919061386a565b9050919050565b60007f30644e72e131a029b85045b68181585d97816a916871ca8d3c208c16d87cfd478083840991508083830981838209828283098385830984848309858484098684850997508684840987858409945087898a09985087898a09985087898a09985087898a09985087898a09985087878a09985087898a09985087898a09985087898a099850878a8a09985087898a09985087898a09985087898a09985087898a099850878a8a09985087898a09985087898a09985087898a09985087898a09985087898a09985087848a09985087898a09985087898a09985087898a09985087898a09985087898a09985087848a09985087898a09985087898a09985087898a099850878a8a09985087898a09985087898a09985087898a09985087898a09985087848a09985087898a09985087898a09985087898a09985087898a09985087898a099850878a8a09985087898a09985087898a09985087898a09985087898a09985087878a09985087898a09985087898a09985087898a09985087898a09985087898a09985087898a09985087898a09985087818a09985087898a09985087898a09985087898a09985087898a09985087898a09985087898a09985087898a09985087898a09985087898a09985087898a09985087868a09985087898a09985087898a09985087898a09985087898a09985087878a09985087898a09985087898a09985087898a09985087898a09985087848a09985087898a09985087898a09985087898a09985087898a09985087898a09985087898a09985087898a09985087868a09985087898a09985087898a09985087898a09985087898a09985087898a09985087898a099850878a8a09985087898a09985087898a09985087898a09985087898a09985087898a09985087898a09985087898a09985087828a09985087898a09985087898a09985087898a09985087898a09985087898a09985087818a09985087898a09985087898a09985087898a09985087868a09985087898a09985087898a09985087898a09985087898a09985087898a09985087898a09985087898a09985087898a09985087878a09985087898a09985087898a09985087898a09985087898a09985087898a09985087898a09985087898a09985087898a09985087898a09985087868a09985087898a09985087898a09985087898a09985087878a09985087898a09985087898a09985087898a09985087898a09985087898a09985087898a09985087898a09985087898a09985087828a09985087898a09985087898a09985087898a09985087898a09985087828a09985087898a09985087898a09985087898a09985087898a09985087898a09985087868a09985087898a09985087898a09985087898a09985087848a09985087898a09985087898a09985087898a09985087898a09985087898a09985087898a09985087898a09985087898a09985087898a09985087898a09985087828a09985087898a09985087898a09985087898a09985087898a09985087868a09985087898a09985087898a09985087898a09985087898a09985087898a09985087838a09985087898a09985087898a09985087898a09985087898a09985087898a09985087898a09985087898a09985087828a09985087898a09985087898a099850878a8a09985087898a09985087898a09985087898a09985087898a09985087898a09985087898a09985087898a09985087848a09985087898a09985087898a09985087898a09985087898a09985087898a09985087898a09985087848a09985087898a09985087898a09985087898a09985087898a09985087898a09985087868a09985087898a09985087898a099850878a8a09985087898a09985087898a09985087898a09985087898a09985087898a09985087898a09985087898a09985087818a09985087898a09985087898a09985087898a09985087898a09985087898a09985087898a09985087858a09985087898a09985087898a09985087898a09985087898a09985087898a099850878a8a09985087898a09985087898a09985087898a09985087898a09985087898a09985087898a099850878a8a09985087898a09985087898a09985087898a09985087898a09985087898a09985087878a09985087898a09985087898a09985087898a09985087898a09985087898a09985087898a09985087898a09985087898a09985087898a09985087828a09985087898a09985087898a09985087898a09985087878a09985087898a09985087898a09985087898a09985087878a09985087898a09985087898a09985087898a09985087898a09985087898a09985087898a09985087898a09985087898a09985087858a09985087898a09985087898a09985087898a09985087898a09985087838a09985087898a09985087898a09985087898a09985087898a09985087858a09985087898a09985087898a09985087898a09985087868a09985087898a09985087898a099850878a8a09985087898a09985087898a09985087898a09985087898a09985087898a09985087898a09985087868a0998505050505050505050919050565b60008060c067ffffffffffffffff811115611f3157611f30612e15565b5b6040519080825280601f01601f191660200182016040528015611f635781602001600182028036833780820191505090505b5090506000602082016020815260208101905060208152602081019050602081526020810190508481526020810190507f183227397098d014dc2822db40c0ac2ecbc0b548b438e5469e10460b6c3e7ea381526020810190507f30644e72e131a029b85045b68181585d97816a916871ca8d3c208c16d87cfd4781526020600060c06020860160055afa91506000519350508061207b57837f183227397098d014dc2822db40c0ac2ecbc0b548b438e5469e10460b6c3e7ea37f30644e72e131a029b85045b68181585d97816a916871ca8d3c208c16d87cfd476040517fc6daf7ab0000000000000000000000000000000000000000000000000000000081526004016120729392919061389b565b60405180910390fd5b5050919050565b60007f30644e72e131a029b85045b68181585d97816a916871ca8d3c208c16d87cfd478083840991508083830981838209828283098385830984848309858484098684850997508684840987858409945087898a09985087898a09985087898a09985087898a09985087898a09985087878a09985087898a09985087898a09985087898a099850878a8a09985087898a09985087898a09985087898a09985087898a099850878a8a09985087898a09985087898a09985087898a09985087898a09985087898a09985087848a09985087898a09985087898a09985087898a09985087898a09985087898a09985087848a09985087898a09985087898a09985087898a099850878a8a09985087898a09985087898a09985087898a09985087898a09985087848a09985087898a09985087898a09985087898a09985087898a09985087898a099850878a8a09985087898a09985087898a09985087898a09985087898a09985087878a09985087898a09985087898a09985087898a09985087898a09985087898a09985087898a09985087898a09985087818a09985087898a09985087898a09985087898a09985087898a09985087898a09985087898a09985087898a09985087898a09985087898a09985087898a09985087868a09985087898a09985087898a09985087898a09985087898a09985087878a09985087898a09985087898a09985087898a09985087898a09985087848a09985087898a09985087898a09985087898a09985087898a09985087898a09985087898a09985087898a09985087868a09985087898a09985087898a09985087898a09985087898a09985087898a09985087898a099850878a8a09985087898a09985087898a09985087898a09985087898a09985087898a09985087898a09985087898a09985087828a09985087898a09985087898a09985087898a09985087898a09985087898a09985087818a09985087898a09985087898a09985087898a09985087868a09985087898a09985087898a09985087898a09985087898a09985087898a09985087898a09985087898a09985087898a09985087878a09985087898a09985087898a09985087898a09985087898a09985087898a09985087898a09985087898a09985087898a09985087898a09985087868a09985087898a09985087898a09985087898a09985087878a09985087898a09985087898a09985087898a09985087898a09985087898a09985087898a09985087898a09985087898a09985087828a09985087898a09985087898a09985087898a09985087898a09985087828a09985087898a09985087898a09985087898a09985087898a09985087898a09985087868a09985087898a09985087898a09985087898a09985087848a09985087898a09985087898a09985087898a09985087898a09985087898a09985087898a09985087898a09985087898a09985087898a09985087898a09985087828a09985087898a09985087898a09985087898a09985087898a09985087868a09985087898a09985087898a09985087898a09985087898a09985087898a09985087838a09985087898a09985087898a09985087898a09985087898a09985087898a09985087898a09985087898a09985087828a09985087898a09985087898a099850878a8a09985087898a09985087898a09985087898a09985087898a09985087898a09985087898a09985087898a09985087848a09985087898a09985087898a09985087898a09985087898a09985087898a09985087898a09985087848a09985087898a09985087898a09985087898a09985087898a09985087898a09985087868a09985087898a09985087898a099850878a8a09985087898a09985087898a09985087898a09985087898a09985087898a09985087898a09985087898a09985087818a09985087898a09985087898a09985087898a09985087898a09985087898a09985087898a09985087858a09985087898a09985087898a09985087898a09985087898a09985087898a099850878a8a09985087898a09985087898a09985087898a09985087898a09985087898a09985087898a099850878a8a09985087898a09985087898a09985087898a09985087898a09985087898a09985087878a09985087898a09985087898a09985087898a09985087898a09985087898a09985087898a09985087898a09985087898a09985087898a09985087828a09985087898a09985087898a09985087898a09985087878a09985087898a09985087898a09985087898a09985087878a09985087898a09985087898a09985087898a09985087898a09985087898a09985087898a09985087898a09985087898a09985087858a09985087898a09985087898a09985087898a09985087898a09985087838a09985087898a09985087898a09985087898a09985087898a09985087858a09985087898a09985087898a09985087898a09985087868a09985087898a09985087898a09985087898a09985087898a09985087898a09985087838a09985087898a0998505050505050505050919050565b6040518060800160405280600490602082028036833780820191505090505090565b6040518060400160405280600290602082028036833780820191505090505090565b6040518060200160405280600190602082028036833780820191505090505090565b600080fd5b600080fd5b6000819050919050565b61284d8161283a565b811461285857600080fd5b50565b60008135905061286a81612844565b92915050565b600080fd5b600080fd5b600080fd5b60008083601f84011261289557612894612870565b5b8235905067ffffffffffffffff8111156128b2576128b1612875565b5b6020830191508360018202830111156128ce576128cd61287a565b5b9250929050565b6000819050919050565b6128e8816128d5565b81146128f357600080fd5b50565b600081359050612905816128df565b92915050565b6000806000806000806080878903121561292857612927612830565b5b600061293689828a0161285b565b965050602087013567ffffffffffffffff81111561295757612956612835565b5b61296389828a0161287f565b9550955050604061297689828a016128f6565b935050606087013567ffffffffffffffff81111561299757612996612835565b5b6129a389828a0161287f565b92509250509295509295509295565b600080604083850312156129c9576129c8612830565b5b60006129d7858286016128f6565b92505060206129e8858286016128f6565b9150509250929050565b6129fb816128d5565b82525050565b6000602082019050612a1660008301846129f2565b92915050565b600060208284031215612a3257612a31612830565b5b6000612a408482850161285b565b91505092915050565b612a528161283a565b82525050565b600081519050919050565b600082825260208201905092915050565b60005b83811015612a92578082015181840152602081019050612a77565b60008484015250505050565b6000601f19601f8301169050919050565b6000612aba82612a58565b612ac48185612a63565b9350612ad4818560208601612a74565b612add81612a9e565b840191505092915050565b6000608082019050612afd6000830187612a49565b8181036020830152612b0f8186612aaf565b9050612b1e60408301856129f2565b8181036060830152612b308184612aaf565b905095945050505050565b600081905082602060020282011115612b5757612b5661287a565b5b92915050565b60008083601f840112612b7357612b72612870565b5b8235905067ffffffffffffffff811115612b9057612b8f612875565b5b602083019150836020820283011115612bac57612bab61287a565b5b9250929050565b60008060008060008060a08789031215612bd057612bcf612830565b5b6000612bde89828a01612b3b565b9650506040612bef89828a0161285b565b955050606087013567ffffffffffffffff811115612c1057612c0f612835565b5b612c1c89828a0161287f565b9450945050608087013567ffffffffffffffff811115612c3f57612c3e612835565b5b612c4b89828a01612b5d565b92509250509295509295509295565b7f4441433a207a65726f2064617461486173680000000000000000000000000000600082015250565b6000612c90601283612a63565b9150612c9b82612c5a565b602082019050919050565b60006020820190508181036000830152612cbf81612c83565b9050919050565b7f4441433a20656d70747920434944000000000000000000000000000000000000600082015250565b6000612cfc600e83612a63565b9150612d0782612cc6565b602082019050919050565b60006020820190508181036000830152612d2b81612cef565b9050919050565b7f4441433a20657870697279206d75737420626520667574757265000000000000600082015250565b6000612d68601a83612a63565b9150612d7382612d32565b602082019050919050565b60006020820190508181036000830152612d9781612d5b565b9050919050565b7f4441433a20616c726561647920616e63686f7265640000000000000000000000600082015250565b6000612dd4601583612a63565b9150612ddf82612d9e565b602082019050919050565b60006020820190508181036000830152612e0381612dc7565b9050919050565b600082905092915050565b7f4e487b7100000000000000000000000000000000000000000000000000000000600052604160045260246000fd5b7f4e487b7100000000000000000000000000000000000000000000000000000000600052602260045260246000fd5b60006002820490506001821680612e8b57607f821691505b602082108103612e9e57612e9d612e44565b5b50919050565b60008190508160005260206000209050919050565b60006020601f8301049050919050565b600082821b905092915050565b600060088302612f067fffffffffffffffffffffffffffffffffffffffffffffffffffffffffffffffff82612ec9565b612f108683612ec9565b95508019841693508086168417925050509392505050565b6000819050919050565b6000612f4d612f48612f43846128d5565b612f28565b6128d5565b9050919050565b6000819050919050565b612f6783612f32565b612f7b612f7382612f54565b848454612ed6565b825550505050565b600090565b612f90612f83565b612f9b818484612f5e565b505050565b5b81811015612fbf57612fb4600082612f88565b600181019050612fa1565b5050565b601f82111561300457612fd581612ea4565b612fde84612eb9565b81016020851015612fed578190505b613001612ff985612eb9565b830182612fa0565b50505b505050565b600082821c905092915050565b600061302760001984600802613009565b1980831691505092915050565b60006130408383613016565b9150826002028217905092915050565b61305a8383612e0a565b67ffffffffffffffff81111561307357613072612e15565b5b61307d8254612e73565b613088828285612fc3565b6000601f8311600181146130b757600084156130a5578287013590505b6130af8582613034565b865550613117565b601f1984166130c586612ea4565b60005b828110156130ed578489013582556001820191506020850194506020810190506130c8565b8683101561310a5784890135613106601f891682613016565b8355505b6001600288020188555050505b50505050505050565b82818337600083830152505050565b600061313b8385612a63565b9350613148838584613120565b61315183612a9e565b840190509392505050565b6000606082019050818103600083015261317781878961312f565b905061318660208301866129f2565b818103604083015261319981848661312f565b90509695505050505050565b7f4441433a206e6f7420616e63686f726564000000000000000000000000000000600082015250565b60006131db601183612a63565b91506131e6826131a5565b602082019050919050565b6000602082019050818103600083015261320a816131ce565b9050919050565b6000819050919050565b61322c6132278261283a565b613211565b82525050565b600081519050919050565b600081905092915050565b600061325382613232565b61325d818561323d565b935061326d818560208601612a74565b80840191505092915050565b6000613285838561323d565b9350613292838584613120565b82840190509392505050565b60006132aa828761321b565b6020820191506132ba8286613248565b91506132c7828486613279565b915081905095945050505050565b7f4e487b7100000000000000000000000000000000000000000000000000000000600052603260045260246000fd5b7f4441433a20424c5320766572696679206661696c656400000000000000000000600082015250565b600061333a601683612a63565b915061334582613304565b602082019050919050565b600060208201905081810360008301526133698161332d565b9050919050565b600081905092915050565b60006133878385613370565b9350613394838584613120565b82840190509392505050565b7f5f76657269666965640000000000000000000000000000000000000000000000600082015250565b60006133d6600983613370565b91506133e1826133a0565b600982019050919050565b60006133f982848661337b565b9150613404826133c9565b91508190509392505050565b61341982612a58565b67ffffffffffffffff81111561343257613431612e15565b5b61343c8254612e73565b613447828285612fc3565b600060209050601f83116001811461347a5760008415613468578287015190505b6134728582613034565b8655506134da565b601f19841661348886612ea4565b60005b828110156134b05784890151825560018201915060208501945060208101905061348b565b868310156134cd57848901516134c9601f891682613016565b8355505b6001600288020188555050505b505050505050565b600060208201905081810360008301526134fc8184612aaf565b905092915050565b600060049050919050565b600081905092915050565b6000819050919050565b61352d816128d5565b82525050565b600061353f8383613524565b60208301905092915050565b6000602082019050919050565b61356181613504565b61356b818461350f565b92506135768261351a565b8060005b838110156135a757815161358e8782613533565b96506135998361354b565b92505060018101905061357a565b505050505050565b60006080820190506135c46000830184613558565b92915050565b7f424c533a20473220616464206661696c65640000000000000000000000000000600082015250565b6000613600601283612a63565b915061360b826135ca565b602082019050919050565b6000602082019050818103600083015261362f816135f3565b9050919050565b7f4e487b7100000000000000000000000000000000000000000000000000000000600052601260045260246000fd5b7f4e487b7100000000000000000000000000000000000000000000000000000000600052601160045260246000fd5b600061369f826128d5565b91506136aa836128d5565b92508282039050818111156136c2576136c1613665565b5b92915050565b600082825260208201905092915050565b60006136e482613232565b6136ee81856136c8565b93506136fe818560208601612a74565b61370781612a9e565b840191505092915050565b6000602082019050818103600083015261372c81846136d9565b905092915050565b600060ff82169050919050565b60008160f81b9050919050565b600061375982613741565b9050919050565b61377161376c82613734565b61374e565b82525050565b6000613783828a613248565b915061378f8289613248565b915061379b8288613760565b6001820191506137ab8287613760565b6001820191506137bb8286613760565b6001820191506137cb8285613248565b91506137d78284613760565b60018201915081905098975050505050505050565b60006137f8828761321b565b6020820191506138088286613760565b6001820191506138188285613248565b91506138248284613760565b60018201915081905095945050505050565b6000613841826128d5565b915061384c836128d5565b925082820190508082111561386457613863613665565b5b92915050565b6000613875826128d5565b9150613880836128d5565b9250826138905761388f613636565b5b828206905092915050565b60006060820190506138b060008301866129f2565b6138bd60208301856129f2565b6138ca60408301846129f2565b94935050505056fea2646970667358221220f57be2e5445e0582798ef7c47cde0b659cd2c1e8800311bc45d19dcba663a7d664736f6c634300081c0033","opcodes":"PUSH1 0x80 PUSH1 0x40 MSTORE CALLVALUE DUP1 ISZERO PUSH2 0x10 JUMPI PUSH1 0x0 DUP1 REVERT JUMPDEST POP PUSH1 0x0 PUSH1 0x40 MLOAD DUP1 PUSH1 0x80 ADD PUSH1 0x40 MSTORE DUP1 PUSH1 0x1 PUSH1 0xFF AND DUP2 MSTORE PUSH1 0x20 ADD PUSH1 0x0 PUSH1 0xFF AND DUP2 MSTORE PUSH1 0x20 ADD PUSH1 0x2 PUSH1 0xFF AND DUP2 MSTORE PUSH1 0x20 ADD PUSH1 0x0 PUSH1 0xFF AND DUP2 MSTORE POP SWAP1 DUP1 PUSH1 0x1 DUP2 SLOAD ADD DUP1 DUP3 SSTORE DUP1 SWAP2 POP POP PUSH1 0x1 SWAP1 SUB SWAP1 PUSH1 0x0 MSTORE PUSH1 0x20 PUSH1 0x0 KECCAK256 SWAP1 PUSH1 0x4 MUL ADD PUSH1 0x0 SWAP1 SWAP2 SWAP1 SWAP2 SWAP1 SWAP2 POP SWAP1 PUSH1 0x4 PUSH2 0x7B SWAP3 SWAP2 SWAP1 PUSH2 0x157 JUMP JUMPDEST POP PUSH1 0x0 PUSH1 0x40 MLOAD DUP1 PUSH1 0x80 ADD PUSH1 0x40 MSTORE DUP1 PUSH1 0x3 PUSH1 0xFF AND DUP2 MSTORE PUSH1 0x20 ADD PUSH1 0x0 PUSH1 0xFF AND DUP2 MSTORE PUSH1 0x20 ADD PUSH1 0x4 PUSH1 0xFF AND DUP2 MSTORE PUSH1 0x20 ADD PUSH1 0x0 PUSH1 0xFF AND DUP2 MSTORE POP SWAP1 DUP1 PUSH1 0x1 DUP2 SLOAD ADD DUP1 DUP3 SSTORE DUP1 SWAP2 POP POP PUSH1 0x1 SWAP1 SUB SWAP1 PUSH1 0x0 MSTORE PUSH1 0x20 PUSH1 0x0 KECCAK256 SWAP1 PUSH1 0x4 MUL ADD PUSH1 0x0 SWAP1 SWAP2 SWAP1 SWAP2 SWAP1 SWAP2 POP SWAP1 PUSH1 0x4 PUSH2 0xE6 SWAP3 SWAP2 SWAP1 PUSH2 0x157 JUMP JUMPDEST POP PUSH1 0x0 PUSH1 0x40 MLOAD DUP1 PUSH1 0x80 ADD PUSH1 0x40 MSTORE DUP1 PUSH1 0x5 PUSH1 0xFF AND DUP2 MSTORE PUSH1 0x20 ADD PUSH1 0x0 PUSH1 0xFF AND DUP2 MSTORE PUSH1 0x20 ADD PUSH1 0x6 PUSH1 0xFF AND DUP2 MSTORE PUSH1 0x20 ADD PUSH1 0x0 PUSH1 0xFF AND DUP2 MSTORE POP SWAP1 DUP1 PUSH1 0x1 DUP2 SLOAD ADD DUP1 DUP3 SSTORE DUP1 SWAP2 POP POP PUSH1 0x1 SWAP1 SUB SWAP1 PUSH1 0x0 MSTORE PUSH1 0x20 PUSH1 0x0 KECCAK256 SWAP1 PUSH1 0x4 MUL ADD PUSH1 0x0 SWAP1 SWAP2 SWAP1 SWAP2 SWAP1 SWAP2 POP SWAP1 PUSH1 0x4 PUSH2 0x151 SWAP3 SWAP2 SWAP1 PUSH2 0x157 JUMP JUMPDEST POP PUSH2 0x1B9 JUMP JUMPDEST DUP3 PUSH1 0x4 DUP2 ADD SWAP3 DUP3 ISZERO PUSH2 0x18B JUMPI SWAP2 PUSH1 0x20 MUL DUP3 ADD JUMPDEST DUP3 DUP2 GT ISZERO PUSH2 0x18A JUMPI DUP3 MLOAD DUP3 SWAP1 PUSH1 0xFF AND SWAP1 SSTORE SWAP2 PUSH1 0x20 ADD SWAP2 SWAP1 PUSH1 0x1 ADD SWAP1 PUSH2 0x16A JUMP JUMPDEST JUMPDEST POP SWAP1 POP PUSH2 0x198 SWAP2 SWAP1 PUSH2 0x19C JUMP JUMPDEST POP SWAP1 JUMP JUMPDEST JUMPDEST DUP1 DUP3 GT ISZERO PUSH2 0x1B5 JUMPI PUSH1 0x0 DUP2 PUSH1 0x0 SWAP1 SSTORE POP PUSH1 0x1 ADD PUSH2 0x19D JUMP JUMPDEST POP SWAP1 JUMP JUMPDEST PUSH2 0x3908 DUP1 PUSH2 0x1C8 PUSH1 0x0 CODECOPY PUSH1 0x0 RETURN INVALID PUSH1 0x80 PUSH1 0x40 MSTORE CALLVALUE DUP1 ISZERO PUSH2 0x10 JUMPI PUSH1 0x0 DUP1 REVERT JUMPDEST POP PUSH1 0x4 CALLDATASIZE LT PUSH2 0x4C JUMPI PUSH1 0x0 CALLDATALOAD PUSH1 0xE0 SHR DUP1 PUSH4 0x3850ED51 EQ PUSH2 0x51 JUMPI DUP1 PUSH4 0x4DE5FA0C EQ PUSH2 0x6D JUMPI DUP1 PUSH4 0x8EAA6AC0 EQ PUSH2 0x9D JUMPI DUP1 PUSH4 0xE3DFEFFC EQ PUSH2 0xD0 JUMPI JUMPDEST PUSH1 0x0 DUP1 REVERT JUMPDEST PUSH2 0x6B PUSH1 0x4 DUP1 CALLDATASIZE SUB DUP2 ADD SWAP1 PUSH2 0x66 SWAP2 SWAP1 PUSH2 0x290B JUMP JUMPDEST PUSH2 0xEC JUMP JUMPDEST STOP JUMPDEST PUSH2 0x87 PUSH1 0x4 DUP1 CALLDATASIZE SUB DUP2 ADD SWAP1 PUSH2 0x82 SWAP2 SWAP1 PUSH2 0x29B2 JUMP JUMPDEST PUSH2 0x29C JUMP JUMPDEST PUSH1 0x40 MLOAD PUSH2 0x94 SWAP2 SWAP1 PUSH2 0x2A01 JUMP JUMPDEST PUSH1 0x40 MLOAD DUP1 SWAP2 SUB SWAP1 RETURN JUMPDEST PUSH2 0xB7 PUSH1 0x4 DUP1 CALLDATASIZE SUB DUP2 ADD SWAP1 PUSH2 0xB2 SWAP2 SWAP1 PUSH2 0x2A1C JUMP JUMPDEST PUSH2 0x2D4 JUMP JUMPDEST PUSH1 0x40 MLOAD PUSH2 0xC7 SWAP5 SWAP4 SWAP3 SWAP2 SWAP1 PUSH2 0x2AE8 JUMP JUMPDEST PUSH1 0x40 MLOAD DUP1 SWAP2 SUB SWAP1 RETURN JUMPDEST PUSH2 0xEA PUSH1 0x4 DUP1 CALLDATASIZE SUB DUP2 ADD SWAP1 PUSH2 0xE5 SWAP2 SWAP1 PUSH2 0x2BB3 JUMP JUMPDEST PUSH2 0x476 JUMP JUMPDEST STOP JUMPDEST PUSH1 0x0 DUP1 SHL DUP7 SUB PUSH2 0x131 JUMPI PUSH1 0x40 MLOAD PUSH32 0x8C379A000000000000000000000000000000000000000000000000000000000 DUP2 MSTORE PUSH1 0x4 ADD PUSH2 0x128 SWAP1 PUSH2 0x2CA6 JUMP JUMPDEST PUSH1 0x40 MLOAD DUP1 SWAP2 SUB SWAP1 REVERT JUMPDEST PUSH1 0x0 DUP6 DUP6 SWAP1 POP GT PUSH2 0x177 JUMPI PUSH1 0x40 MLOAD PUSH32 0x8C379A000000000000000000000000000000000000000000000000000000000 DUP2 MSTORE PUSH1 0x4 ADD PUSH2 0x16E SWAP1 PUSH2 0x2D12 JUMP JUMPDEST PUSH1 0x40 MLOAD DUP1 SWAP2 SUB SWAP1 REVERT JUMPDEST TIMESTAMP DUP4 GT PUSH2 0x1B9 JUMPI PUSH1 0x40 MLOAD PUSH32 0x8C379A000000000000000000000000000000000000000000000000000000000 DUP2 MSTORE PUSH1 0x4 ADD PUSH2 0x1B0 SWAP1 PUSH2 0x2D7E JUMP JUMPDEST PUSH1 0x40 MLOAD DUP1 SWAP2 SUB SWAP1 REVERT JUMPDEST PUSH1 0x0 PUSH1 0x1 PUSH1 0x0 DUP9 DUP2 MSTORE PUSH1 0x20 ADD SWAP1 DUP2 MSTORE PUSH1 0x20 ADD PUSH1 0x0 KECCAK256 SWAP1 POP PUSH1 0x0 DUP1 SHL DUP2 PUSH1 0x0 ADD SLOAD EQ PUSH2 0x219 JUMPI PUSH1 0x40 MLOAD PUSH32 0x8C379A000000000000000000000000000000000000000000000000000000000 DUP2 MSTORE PUSH1 0x4 ADD PUSH2 0x210 SWAP1 PUSH2 0x2DEA JUMP JUMPDEST PUSH1 0x40 MLOAD DUP1 SWAP2 SUB SWAP1 REVERT JUMPDEST DUP7 DUP2 PUSH1 0x0 ADD DUP2 SWAP1 SSTORE POP DUP6 DUP6 DUP3 PUSH1 0x1 ADD SWAP2 DUP3 PUSH2 0x235 SWAP3 SWAP2 SWAP1 PUSH2 0x3050 JUMP JUMPDEST POP DUP4 DUP2 PUSH1 0x2 ADD DUP2 SWAP1 SSTORE POP DUP3 DUP3 DUP3 PUSH1 0x3 ADD SWAP2 DUP3 PUSH2 0x252 SWAP3 SWAP2 SWAP1 PUSH2 0x3050 JUMP JUMPDEST POP DUP7 PUSH32 0xE18A55B985F840385AB64291D5164D82DA1B055135197B9E06882A73317B8073 DUP8 DUP8 DUP8 DUP8 DUP8 PUSH1 0x40 MLOAD PUSH2 0x28B SWAP6 SWAP5 SWAP4 SWAP3 SWAP2 SWAP1 PUSH2 0x315C JUMP JUMPDEST PUSH1 0x40 MLOAD DUP1 SWAP2 SUB SWAP1 LOG2 POP POP POP POP POP POP POP JUMP JUMPDEST PUSH1 0x0 DUP3 DUP2 SLOAD DUP2 LT PUSH2 0x2AC JUMPI PUSH1 0x0 DUP1 REVERT JUMPDEST SWAP1 PUSH1 0x0 MSTORE PUSH1 0x20 PUSH1 0x0 KECCAK256 SWAP1 PUSH1 0x4 MUL ADD DUP2 PUSH1 0x4 DUP2 LT PUSH2 0x2C8 JUMPI PUSH1 0x0 DUP1 REVERT JUMPDEST ADD PUSH1 0x0 SWAP2 POP SWAP2 POP POP SLOAD DUP2 JUMP JUMPDEST PUSH1 0x0 PUSH1 0x60 PUSH1 0x0 PUSH1 0x60 PUSH1 0x0 PUSH1 0x1 PUSH1 0x0 DUP8 DUP2 MSTORE PUSH1 0x20 ADD SWAP1 DUP2 MSTORE PUSH1 0x20 ADD PUSH1 0x0 KECCAK256 SWAP1 POP PUSH1 0x0 DUP1 SHL DUP2 PUSH1 0x0 ADD SLOAD SUB PUSH2 0x33C JUMPI PUSH1 0x40 MLOAD PUSH32 0x8C379A000000000000000000000000000000000000000000000000000000000 DUP2 MSTORE PUSH1 0x4 ADD PUSH2 0x333 SWAP1 PUSH2 0x31F1 JUMP JUMPDEST PUSH1 0x40 MLOAD DUP1 SWAP2 SUB SWAP1 REVERT JUMPDEST DUP1 PUSH1 0x0 ADD SLOAD DUP2 PUSH1 0x1 ADD DUP3 PUSH1 0x2 ADD SLOAD DUP4 PUSH1 0x3 ADD DUP3 DUP1 SLOAD PUSH2 0x35A SWAP1 PUSH2 0x2E73 JUMP JUMPDEST DUP1 PUSH1 0x1F ADD PUSH1 0x20 DUP1 SWAP2 DIV MUL PUSH1 0x20 ADD PUSH1 0x40 MLOAD SWAP1 DUP2 ADD PUSH1 0x40 MSTORE DUP1 SWAP3 SWAP2 SWAP1 DUP2 DUP2 MSTORE PUSH1 0x20 ADD DUP3 DUP1 SLOAD PUSH2 0x386 SWAP1 PUSH2 0x2E73 JUMP JUMPDEST DUP1 ISZERO PUSH2 0x3D3 JUMPI DUP1 PUSH1 0x1F LT PUSH2 0x3A8 JUMPI PUSH2 0x100 DUP1 DUP4 SLOAD DIV MUL DUP4 MSTORE SWAP2 PUSH1 0x20 ADD SWAP2 PUSH2 0x3D3 JUMP JUMPDEST DUP3 ADD SWAP2 SWAP1 PUSH1 0x0 MSTORE PUSH1 0x20 PUSH1 0x0 KECCAK256 SWAP1 JUMPDEST DUP2 SLOAD DUP2 MSTORE SWAP1 PUSH1 0x1 ADD SWAP1 PUSH1 0x20 ADD DUP1 DUP4 GT PUSH2 0x3B6 JUMPI DUP3 SWAP1 SUB PUSH1 0x1F AND DUP3 ADD SWAP2 JUMPDEST POP POP POP POP POP SWAP3 POP DUP1 DUP1 SLOAD PUSH2 0x3E6 SWAP1 PUSH2 0x2E73 JUMP JUMPDEST DUP1 PUSH1 0x1F ADD PUSH1 0x20 DUP1 SWAP2 DIV MUL PUSH1 0x20 ADD PUSH1 0x40 MLOAD SWAP1 DUP2 ADD PUSH1 0x40 MSTORE DUP1 SWAP3 SWAP2 SWAP1 DUP2 DUP2 MSTORE PUSH1 0x20 ADD DUP3 DUP1 SLOAD PUSH2 0x412 SWAP1 PUSH2 0x2E73 JUMP JUMPDEST DUP1 ISZERO PUSH2 0x45F JUMPI DUP1 PUSH1 0x1F LT PUSH2 0x434 JUMPI PUSH2 0x100 DUP1 DUP4 SLOAD DIV MUL DUP4 MSTORE SWAP2 PUSH1 0x20 ADD SWAP2 PUSH2 0x45F JUMP JUMPDEST DUP3 ADD SWAP2 SWAP1 PUSH1 0x0 MSTORE PUSH1 0x20 PUSH1 0x0 KECCAK256 SWAP1 JUMPDEST DUP2 SLOAD DUP2 MSTORE SWAP1 PUSH1 0x1 ADD SWAP1 PUSH1 0x20 ADD DUP1 DUP4 GT PUSH2 0x442 JUMPI DUP3 SWAP1 SUB PUSH1 0x1F AND DUP3 ADD SWAP2 JUMPDEST POP POP POP POP POP SWAP1 POP SWAP5 POP SWAP5 POP SWAP5 POP SWAP5 POP POP SWAP2 SWAP4 POP SWAP2 SWAP4 JUMP JUMPDEST PUSH1 0x0 PUSH1 0x1 PUSH1 0x0 DUP8 DUP2 MSTORE PUSH1 0x20 ADD SWAP1 DUP2 MSTORE PUSH1 0x20 ADD PUSH1 0x0 KECCAK256 SWAP1 POP PUSH1 0x0 DUP1 SHL DUP2 PUSH1 0x0 ADD SLOAD SUB PUSH2 0x4D6 JUMPI PUSH1 0x40 MLOAD PUSH32 0x8C379A000000000000000000000000000000000000000000000000000000000 DUP2 MSTORE PUSH1 0x4 ADD PUSH2 0x4CD SWAP1 PUSH2 0x31F1 JUMP JUMPDEST PUSH1 0x40 MLOAD DUP1 SWAP2 SUB SWAP1 REVERT JUMPDEST PUSH1 0x0 DUP7 PUSH1 0x40 MLOAD DUP1 PUSH1 0x40 ADD PUSH1 0x40 MSTORE DUP1 PUSH1 0x1 DUP2 MSTORE PUSH1 0x20 ADD PUSH32 0x7C00000000000000000000000000000000000000000000000000000000000000 DUP2 MSTORE POP DUP8 DUP8 PUSH1 0x40 MLOAD PUSH1 0x20 ADD PUSH2 0x524 SWAP5 SWAP4 SWAP3 SWAP2 SWAP1 PUSH2 0x329E JUMP JUMPDEST PUSH1 0x40 MLOAD PUSH1 0x20 DUP2 DUP4 SUB SUB DUP2 MSTORE SWAP1 PUSH1 0x40 MSTORE SWAP1 POP PUSH1 0x0 PUSH2 0x576 PUSH1 0x40 MLOAD DUP1 PUSH1 0x40 ADD PUSH1 0x40 MSTORE DUP1 PUSH1 0x3 DUP2 MSTORE PUSH1 0x20 ADD PUSH32 0x4441430000000000000000000000000000000000000000000000000000000000 DUP2 MSTORE POP DUP4 PUSH2 0x70C JUMP JUMPDEST SWAP1 POP PUSH2 0x580 PUSH2 0x27CA JUMP JUMPDEST PUSH1 0x0 JUMPDEST PUSH1 0x0 DUP1 SLOAD SWAP1 POP DUP2 LT ISZERO PUSH2 0x606 JUMPI PUSH2 0x5F7 DUP3 PUSH1 0x0 DUP4 DUP2 SLOAD DUP2 LT PUSH2 0x5A8 JUMPI PUSH2 0x5A7 PUSH2 0x32D5 JUMP JUMPDEST JUMPDEST SWAP1 PUSH1 0x0 MSTORE PUSH1 0x20 PUSH1 0x0 KECCAK256 SWAP1 PUSH1 0x4 MUL ADD PUSH1 0x4 DUP1 PUSH1 0x20 MUL PUSH1 0x40 MLOAD SWAP1 DUP2 ADD PUSH1 0x40 MSTORE DUP1 SWAP3 SWAP2 SWAP1 DUP3 PUSH1 0x4 DUP1 ISZERO PUSH2 0x5ED JUMPI PUSH1 0x20 MUL DUP3 ADD SWAP2 JUMPDEST DUP2 SLOAD DUP2 MSTORE PUSH1 0x20 ADD SWAP1 PUSH1 0x1 ADD SWAP1 DUP1 DUP4 GT PUSH2 0x5D9 JUMPI JUMPDEST POP POP POP POP POP PUSH2 0x8AE JUMP JUMPDEST SWAP2 POP DUP1 DUP1 PUSH1 0x1 ADD SWAP2 POP POP PUSH2 0x583 JUMP JUMPDEST POP PUSH1 0x0 PUSH2 0x64B DUP12 PUSH1 0x2 DUP1 PUSH1 0x20 MUL PUSH1 0x40 MLOAD SWAP1 DUP2 ADD PUSH1 0x40 MSTORE DUP1 SWAP3 SWAP2 SWAP1 DUP3 PUSH1 0x2 PUSH1 0x20 MUL DUP1 DUP3 DUP5 CALLDATACOPY PUSH1 0x0 DUP2 DUP5 ADD MSTORE PUSH1 0x1F NOT PUSH1 0x1F DUP3 ADD AND SWAP1 POP DUP1 DUP4 ADD SWAP3 POP POP POP POP POP POP DUP4 DUP6 PUSH2 0x979 JUMP JUMPDEST POP SWAP1 POP DUP1 PUSH2 0x68E JUMPI PUSH1 0x40 MLOAD PUSH32 0x8C379A000000000000000000000000000000000000000000000000000000000 DUP2 MSTORE PUSH1 0x4 ADD PUSH2 0x685 SWAP1 PUSH2 0x3350 JUMP JUMPDEST PUSH1 0x40 MLOAD DUP1 SWAP2 SUB SWAP1 REVERT JUMPDEST PUSH1 0x0 DUP10 DUP10 PUSH1 0x40 MLOAD PUSH1 0x20 ADD PUSH2 0x6A3 SWAP3 SWAP2 SWAP1 PUSH2 0x33EC JUMP JUMPDEST PUSH1 0x40 MLOAD PUSH1 0x20 DUP2 DUP4 SUB SUB DUP2 MSTORE SWAP1 PUSH1 0x40 MSTORE SWAP1 POP DUP1 DUP7 PUSH1 0x3 ADD SWAP1 DUP2 PUSH2 0x6C5 SWAP2 SWAP1 PUSH2 0x3410 JUMP JUMPDEST POP DUP11 PUSH32 0x12F9D9CE5E1577CDE337D32720563AE30A0FC8C24BFE12DB04A281EEAD2B6CC5 DUP3 PUSH1 0x40 MLOAD PUSH2 0x6F6 SWAP2 SWAP1 PUSH2 0x34E2 JUMP JUMPDEST PUSH1 0x40 MLOAD DUP1 SWAP2 SUB SWAP1 LOG2 POP POP POP POP POP POP POP POP POP POP POP POP JUMP JUMPDEST PUSH2 0x714 PUSH2 0x27EC JUMP JUMPDEST PUSH1 0x0 PUSH2 0x720 DUP5 DUP5 PUSH2 0xB54 JUMP JUMPDEST SWAP1 POP PUSH1 0x0 PUSH2 0x745 DUP3 PUSH1 0x0 PUSH1 0x2 DUP2 LT PUSH2 0x73B JUMPI PUSH2 0x73A PUSH2 0x32D5 JUMP JUMPDEST JUMPDEST PUSH1 0x20 MUL ADD MLOAD PUSH2 0xCE5 JUMP JUMPDEST SWAP1 POP PUSH1 0x0 PUSH2 0x76A DUP4 PUSH1 0x1 PUSH1 0x2 DUP2 LT PUSH2 0x760 JUMPI PUSH2 0x75F PUSH2 0x32D5 JUMP JUMPDEST JUMPDEST PUSH1 0x20 MUL ADD MLOAD PUSH2 0xCE5 JUMP JUMPDEST SWAP1 POP PUSH2 0x774 PUSH2 0x27CA JUMP JUMPDEST DUP3 PUSH1 0x0 PUSH1 0x2 DUP2 LT PUSH2 0x788 JUMPI PUSH2 0x787 PUSH2 0x32D5 JUMP JUMPDEST JUMPDEST PUSH1 0x20 MUL ADD MLOAD DUP2 PUSH1 0x0 PUSH1 0x4 DUP2 LT PUSH2 0x7A1 JUMPI PUSH2 0x7A0 PUSH2 0x32D5 JUMP JUMPDEST JUMPDEST PUSH1 0x20 MUL ADD DUP2 DUP2 MSTORE POP POP DUP3 PUSH1 0x1 PUSH1 0x2 DUP2 LT PUSH2 0x7BE JUMPI PUSH2 0x7BD PUSH2 0x32D5 JUMP JUMPDEST JUMPDEST PUSH1 0x20 MUL ADD MLOAD DUP2 PUSH1 0x1 PUSH1 0x4 DUP2 LT PUSH2 0x7D7 JUMPI PUSH2 0x7D6 PUSH2 0x32D5 JUMP JUMPDEST JUMPDEST PUSH1 0x20 MUL ADD DUP2 DUP2 MSTORE POP POP DUP2 PUSH1 0x0 PUSH1 0x2 DUP2 LT PUSH2 0x7F4 JUMPI PUSH2 0x7F3 PUSH2 0x32D5 JUMP JUMPDEST JUMPDEST PUSH1 0x20 MUL ADD MLOAD DUP2 PUSH1 0x2 PUSH1 0x4 DUP2 LT PUSH2 0x80D JUMPI PUSH2 0x80C PUSH2 0x32D5 JUMP JUMPDEST JUMPDEST PUSH1 0x20 MUL ADD DUP2 DUP2 MSTORE POP POP DUP2 PUSH1 0x1 PUSH1 0x2 DUP2 LT PUSH2 0x82A JUMPI PUSH2 0x829 PUSH2 0x32D5 JUMP JUMPDEST JUMPDEST PUSH1 0x20 MUL ADD MLOAD DUP2 PUSH1 0x3 PUSH1 0x4 DUP2 LT PUSH2 0x843 JUMPI PUSH2 0x842 PUSH2 0x32D5 JUMP JUMPDEST JUMPDEST PUSH1 0x20 MUL ADD DUP2 DUP2 MSTORE POP POP PUSH1 0x0 PUSH1 0x40 DUP5 PUSH1 0x80 DUP5 PUSH1 0x6 PUSH2 0x7D0 GAS SUB STATICCALL SWAP1 POP DUP1 PUSH2 0x8A0 JUMPI DUP2 PUSH1 0x40 MLOAD PUSH32 0x128E3F0800000000000000000000000000000000000000000000000000000000 DUP2 MSTORE PUSH1 0x4 ADD PUSH2 0x897 SWAP2 SWAP1 PUSH2 0x35AF JUMP JUMPDEST PUSH1 0x40 MLOAD DUP1 SWAP2 SUB SWAP1 REVERT JUMPDEST DUP4 SWAP6 POP POP POP POP POP POP SWAP3 SWAP2 POP POP JUMP JUMPDEST PUSH2 0x8B6 PUSH2 0x27CA JUMP JUMPDEST PUSH1 0x0 PUSH1 0x40 MLOAD DUP5 MLOAD DUP2 MSTORE PUSH1 0x20 DUP6 ADD MLOAD PUSH1 0x20 DUP3 ADD MSTORE PUSH1 0x40 DUP6 ADD MLOAD PUSH1 0x40 DUP3 ADD MSTORE PUSH1 0x60 DUP6 ADD MLOAD PUSH1 0x60 DUP3 ADD MSTORE DUP4 MLOAD PUSH1 0x80 DUP3 ADD MSTORE PUSH1 0x20 DUP5 ADD MLOAD PUSH1 0xA0 DUP3 ADD MSTORE PUSH1 0x40 DUP5 ADD MLOAD PUSH1 0xC0 DUP3 ADD MSTORE PUSH1 0x60 DUP5 ADD MLOAD PUSH1 0xE0 DUP3 ADD MSTORE PUSH1 0x80 DUP2 PUSH2 0x100 DUP4 PUSH1 0xC GAS STATICCALL SWAP2 POP DUP1 MLOAD DUP4 MSTORE PUSH1 0x20 DUP2 ADD MLOAD PUSH1 0x20 DUP5 ADD MSTORE PUSH1 0x40 DUP2 ADD MLOAD PUSH1 0x40 DUP5 ADD MSTORE PUSH1 0x60 DUP2 ADD MLOAD PUSH1 0x60 DUP5 ADD MSTORE POP DUP1 PUSH2 0x972 JUMPI PUSH1 0x40 MLOAD PUSH32 0x8C379A000000000000000000000000000000000000000000000000000000000 DUP2 MSTORE PUSH1 0x4 ADD PUSH2 0x969 SWAP1 PUSH2 0x3616 JUMP JUMPDEST PUSH1 0x40 MLOAD DUP1 SWAP2 SUB SWAP1 REVERT JUMPDEST POP SWAP3 SWAP2 POP POP JUMP JUMPDEST PUSH1 0x0 DUP1 PUSH1 0x0 PUSH1 0x40 MLOAD DUP1 PUSH2 0x180 ADD PUSH1 0x40 MSTORE DUP1 DUP8 PUSH1 0x0 PUSH1 0x2 DUP2 LT PUSH2 0x99E JUMPI PUSH2 0x99D PUSH2 0x32D5 JUMP JUMPDEST JUMPDEST PUSH1 0x20 MUL ADD MLOAD DUP2 MSTORE PUSH1 0x20 ADD DUP8 PUSH1 0x1 PUSH1 0x2 DUP2 LT PUSH2 0x9BC JUMPI PUSH2 0x9BB PUSH2 0x32D5 JUMP JUMPDEST JUMPDEST PUSH1 0x20 MUL ADD MLOAD DUP2 MSTORE PUSH1 0x20 ADD PUSH32 0x198E9393920D483A7260BFB731FB5D25F1AA493335A9E71297E485B7AEF312C2 DUP2 MSTORE PUSH1 0x20 ADD PUSH32 0x1800DEEF121F1E76426A00665E5C4479674322D4F75EDADD46DEBD5CD992F6ED DUP2 MSTORE PUSH1 0x20 ADD PUSH32 0x275DC4A288D1AFB3CBB1AC09187524C7DB36395DF7BE3B99E673B13A075A65EC DUP2 MSTORE PUSH1 0x20 ADD PUSH32 0x1D9BEFCD05A5323E6DA4D435F3B617CDB3AF83285C2DF711EF39C01571827F9D DUP2 MSTORE PUSH1 0x20 ADD DUP6 PUSH1 0x0 PUSH1 0x2 DUP2 LT PUSH2 0xA72 JUMPI PUSH2 0xA71 PUSH2 0x32D5 JUMP JUMPDEST JUMPDEST PUSH1 0x20 MUL ADD MLOAD DUP2 MSTORE PUSH1 0x20 ADD DUP6 PUSH1 0x1 PUSH1 0x2 DUP2 LT PUSH2 0xA90 JUMPI PUSH2 0xA8F PUSH2 0x32D5 JUMP JUMPDEST JUMPDEST PUSH1 0x20 MUL ADD MLOAD DUP2 MSTORE PUSH1 0x20 ADD DUP7 PUSH1 0x1 PUSH1 0x4 DUP2 LT PUSH2 0xAAE JUMPI PUSH2 0xAAD PUSH2 0x32D5 JUMP JUMPDEST JUMPDEST PUSH1 0x20 MUL ADD MLOAD DUP2 MSTORE PUSH1 0x20 ADD DUP7 PUSH1 0x0 PUSH1 0x4 DUP2 LT PUSH2 0xACC JUMPI PUSH2 0xACB PUSH2 0x32D5 JUMP JUMPDEST JUMPDEST PUSH1 0x20 MUL ADD MLOAD DUP2 MSTORE PUSH1 0x20 ADD DUP7 PUSH1 0x3 PUSH1 0x4 DUP2 LT PUSH2 0xAEA JUMPI PUSH2 0xAE9 PUSH2 0x32D5 JUMP JUMPDEST JUMPDEST PUSH1 0x20 MUL ADD MLOAD DUP2 MSTORE PUSH1 0x20 ADD DUP7 PUSH1 0x2 PUSH1 0x4 DUP2 LT PUSH2 0xB08 JUMPI PUSH2 0xB07 PUSH2 0x32D5 JUMP JUMPDEST JUMPDEST PUSH1 0x20 MUL ADD MLOAD DUP2 MSTORE POP SWAP1 POP PUSH2 0xB1A PUSH2 0x280E JUMP JUMPDEST PUSH1 0x20 DUP2 PUSH2 0x180 DUP5 PUSH1 0x8 PUSH2 0x7D0 GAS SUB STATICCALL SWAP3 POP PUSH1 0x0 DUP2 PUSH1 0x0 PUSH1 0x1 DUP2 LT PUSH2 0xB41 JUMPI PUSH2 0xB40 PUSH2 0x32D5 JUMP JUMPDEST JUMPDEST PUSH1 0x20 MUL ADD MLOAD EQ ISZERO SWAP4 POP POP POP SWAP4 POP SWAP4 SWAP2 POP POP JUMP JUMPDEST PUSH2 0xB5C PUSH2 0x27EC JUMP JUMPDEST PUSH1 0x0 PUSH2 0xB68 DUP5 DUP5 PUSH2 0x13E0 JUMP JUMPDEST SWAP1 POP PUSH1 0x0 DUP1 PUSH1 0x0 DUP1 PUSH1 0x18 DUP6 ADD PUSH24 0xFFFFFFFFFFFFFFFFFFFFFFFFFFFFFFFFFFFFFFFFFFFFFFFF DUP2 MLOAD AND SWAP4 POP PUSH1 0x30 DUP7 ADD SWAP1 POP PUSH24 0xFFFFFFFFFFFFFFFFFFFFFFFFFFFFFFFFFFFFFFFFFFFFFFFF DUP2 MLOAD AND SWAP5 POP PUSH32 0x30644E72E131A029B85045B68181585D97816A916871CA8D3C208C16D87CFD47 DUP6 PUSH32 0x30644E72E131A029B85045B68181585D97816A916871CA8D3C208C16D87CFD47 PUSH25 0x1000000000000000000000000000000000000000000000000 DUP8 MULMOD ADDMOD SWAP3 POP PUSH1 0x48 DUP7 ADD SWAP1 POP PUSH24 0xFFFFFFFFFFFFFFFFFFFFFFFFFFFFFFFFFFFFFFFFFFFFFFFF DUP2 MLOAD AND SWAP4 POP PUSH1 0x60 DUP7 ADD SWAP1 POP PUSH24 0xFFFFFFFFFFFFFFFFFFFFFFFFFFFFFFFFFFFFFFFFFFFFFFFF DUP2 MLOAD AND SWAP5 POP PUSH32 0x30644E72E131A029B85045B68181585D97816A916871CA8D3C208C16D87CFD47 DUP6 PUSH32 0x30644E72E131A029B85045B68181585D97816A916871CA8D3C208C16D87CFD47 PUSH25 0x1000000000000000000000000000000000000000000000000 DUP8 MULMOD ADDMOD SWAP2 POP POP PUSH1 0x40 MLOAD DUP1 PUSH1 0x40 ADD PUSH1 0x40 MSTORE DUP1 DUP4 DUP2 MSTORE PUSH1 0x20 ADD DUP3 DUP2 MSTORE POP SWAP6 POP POP POP POP POP POP SWAP3 SWAP2 POP POP JUMP JUMPDEST PUSH2 0xCED PUSH2 0x27EC JUMP JUMPDEST PUSH32 0x30644E72E131A029B85045B68181585D97816A916871CA8D3C208C16D87CFD47 DUP3 LT PUSH2 0xD51 JUMPI DUP2 PUSH1 0x40 MLOAD PUSH32 0xD53E941500000000000000000000000000000000000000000000000000000000 DUP2 MSTORE PUSH1 0x4 ADD PUSH2 0xD48 SWAP2 SWAP1 PUSH2 0x2A01 JUMP JUMPDEST PUSH1 0x40 MLOAD DUP1 SWAP2 SUB SWAP1 REVERT JUMPDEST PUSH1 0x0 PUSH32 0x30644E72E131A029B85045B68181585D97816A916871CA8D3C208C16D87CFD47 DUP1 PUSH2 0xD82 JUMPI PUSH2 0xD81 PUSH2 0x3636 JUMP JUMPDEST JUMPDEST PUSH1 0x4 PUSH32 0x30644E72E131A029B85045B68181585D97816A916871CA8D3C208C16D87CFD47 DUP1 PUSH2 0xDB3 JUMPI PUSH2 0xDB2 PUSH2 0x3636 JUMP JUMPDEST JUMPDEST DUP6 DUP7 MULMOD MULMOD SWAP1 POP PUSH1 0x0 PUSH32 0x30644E72E131A029B85045B68181585D97816A916871CA8D3C208C16D87CFD47 DUP1 PUSH2 0xDEA JUMPI PUSH2 0xDE9 PUSH2 0x3636 JUMP JUMPDEST JUMPDEST DUP3 PUSH1 0x1 ADDMOD SWAP1 POP PUSH32 0x30644E72E131A029B85045B68181585D97816A916871CA8D3C208C16D87CFD47 DUP1 PUSH2 0xE1F JUMPI PUSH2 0xE1E PUSH2 0x3636 JUMP JUMPDEST JUMPDEST DUP3 PUSH32 0x30644E72E131A029B85045B68181585D97816A916871CA8D3C208C16D87CFD47 PUSH2 0xE4B SWAP2 SWAP1 PUSH2 0x3694 JUMP JUMPDEST PUSH1 0x1 ADDMOD SWAP2 POP PUSH1 0x0 PUSH2 0xE8C PUSH32 0x30644E72E131A029B85045B68181585D97816A916871CA8D3C208C16D87CFD47 DUP1 PUSH2 0xE84 JUMPI PUSH2 0xE83 PUSH2 0x3636 JUMP JUMPDEST JUMPDEST DUP4 DUP6 MULMOD PUSH2 0x15E2 JUMP JUMPDEST SWAP1 POP PUSH1 0x0 PUSH32 0x30644E72E131A029B85045B68181585D97816A916871CA8D3C208C16D87CFD47 DUP1 PUSH2 0xEBF JUMPI PUSH2 0xEBE PUSH2 0x3636 JUMP JUMPDEST JUMPDEST PUSH25 0x16789AF3A83522EB353C98FC6B36D713D5D8D1CC5DFFFFFFA PUSH32 0x30644E72E131A029B85045B68181585D97816A916871CA8D3C208C16D87CFD47 DUP1 PUSH2 0xF08 JUMPI PUSH2 0xF07 PUSH2 0x3636 JUMP JUMPDEST JUMPDEST DUP5 PUSH32 0x30644E72E131A029B85045B68181585D97816A916871CA8D3C208C16D87CFD47 DUP1 PUSH2 0xF38 JUMPI PUSH2 0xF37 PUSH2 0x3636 JUMP JUMPDEST JUMPDEST DUP9 DUP12 MULMOD MULMOD MULMOD SWAP1 POP PUSH1 0x0 PUSH32 0x30644E72E131A029B85045B68181585D97816A916871CA8D3C208C16D87CFD47 DUP1 PUSH2 0xF70 JUMPI PUSH2 0xF6F PUSH2 0x3636 JUMP JUMPDEST JUMPDEST DUP3 PUSH32 0x30644E72E131A029B85045B68181585D97816A916871CA8D3C208C16D87CFD47 PUSH2 0xF9C SWAP2 SWAP1 PUSH2 0x3694 JUMP JUMPDEST PUSH32 0x183227397098D014DC2822DB40C0AC2ECBC0B548B438E5469E10460B6C3E7EA3 ADDMOD SWAP1 POP PUSH1 0x0 PUSH32 0x30644E72E131A029B85045B68181585D97816A916871CA8D3C208C16D87CFD47 DUP1 PUSH2 0xFF1 JUMPI PUSH2 0xFF0 PUSH2 0x3636 JUMP JUMPDEST JUMPDEST DUP4 PUSH32 0x183227397098D014DC2822DB40C0AC2ECBC0B548B438E5469E10460B6C3E7EA3 ADDMOD SWAP1 POP PUSH1 0x0 PUSH32 0x30644E72E131A029B85045B68181585D97816A916871CA8D3C208C16D87CFD47 DUP1 PUSH2 0x1047 JUMPI PUSH2 0x1046 PUSH2 0x3636 JUMP JUMPDEST JUMPDEST DUP7 DUP8 MULMOD SWAP1 POP PUSH1 0x0 PUSH32 0x30644E72E131A029B85045B68181585D97816A916871CA8D3C208C16D87CFD47 DUP1 PUSH2 0x107D JUMPI PUSH2 0x107C PUSH2 0x3636 JUMP JUMPDEST JUMPDEST DUP7 DUP4 MULMOD SWAP1 POP PUSH1 0x0 PUSH32 0x30644E72E131A029B85045B68181585D97816A916871CA8D3C208C16D87CFD47 DUP1 PUSH2 0x10B3 JUMPI PUSH2 0x10B2 PUSH2 0x3636 JUMP JUMPDEST JUMPDEST PUSH32 0x30644E72E131A029B85045B68181585D97816A916871CA8D3C208C16D87CFD47 DUP1 PUSH2 0x10E2 JUMPI PUSH2 0x10E1 PUSH2 0x3636 JUMP JUMPDEST JUMPDEST PUSH32 0x30644E72E131A029B85045B68181585D97816A916871CA8D3C208C16D87CFD47 DUP1 PUSH2 0x1111 JUMPI PUSH2 0x1110 PUSH2 0x3636 JUMP JUMPDEST JUMPDEST DUP5 DUP6 MULMOD PUSH32 0x10216F7BA065E00DE81AC1E7808072C9DD2B2385CD7B438469602EB24829A9BD MULMOD PUSH1 0x1 ADDMOD SWAP1 POP PUSH1 0x0 DUP1 PUSH1 0x1 PUSH2 0x1151 PUSH2 0x114C DUP10 PUSH2 0x15F4 JUMP JUMPDEST PUSH2 0x1692 JUMP JUMPDEST PUSH1 0x0 SIGNEXTEND SUB PUSH2 0x11F3 JUMPI DUP7 DUP13 PUSH1 0x0 PUSH1 0x2 DUP2 LT PUSH2 0x116E JUMPI PUSH2 0x116D PUSH2 0x32D5 JUMP JUMPDEST JUMPDEST PUSH1 0x20 MUL ADD DUP2 DUP2 MSTORE POP POP PUSH2 0x1180 DUP8 PUSH2 0x15F4 JUMP JUMPDEST SWAP1 POP PUSH2 0x118B DUP2 PUSH2 0x175A JUMP JUMPDEST DUP14 PUSH1 0x1 PUSH1 0x2 DUP2 LT PUSH2 0x119F JUMPI PUSH2 0x119E PUSH2 0x32D5 JUMP JUMPDEST JUMPDEST PUSH1 0x20 MUL ADD DUP2 SWAP5 POP DUP3 DUP2 MSTORE POP POP POP DUP2 PUSH2 0x11EE JUMPI DUP1 PUSH1 0x40 MLOAD PUSH32 0x396EC77100000000000000000000000000000000000000000000000000000000 DUP2 MSTORE PUSH1 0x4 ADD PUSH2 0x11E5 SWAP2 SWAP1 PUSH2 0x2A01 JUMP JUMPDEST PUSH1 0x40 MLOAD DUP1 SWAP2 SUB SWAP1 REVERT JUMPDEST PUSH2 0x133F JUMP JUMPDEST PUSH1 0x1 PUSH2 0x1206 PUSH2 0x1201 DUP9 PUSH2 0x15F4 JUMP JUMPDEST PUSH2 0x1692 JUMP JUMPDEST PUSH1 0x0 SIGNEXTEND SUB PUSH2 0x12A8 JUMPI DUP6 DUP13 PUSH1 0x0 PUSH1 0x2 DUP2 LT PUSH2 0x1223 JUMPI PUSH2 0x1222 PUSH2 0x32D5 JUMP JUMPDEST JUMPDEST PUSH1 0x20 MUL ADD DUP2 DUP2 MSTORE POP POP PUSH2 0x1235 DUP7 PUSH2 0x15F4 JUMP JUMPDEST SWAP1 POP PUSH2 0x1240 DUP2 PUSH2 0x175A JUMP JUMPDEST DUP14 PUSH1 0x1 PUSH1 0x2 DUP2 LT PUSH2 0x1254 JUMPI PUSH2 0x1253 PUSH2 0x32D5 JUMP JUMPDEST JUMPDEST PUSH1 0x20 MUL ADD DUP2 SWAP5 POP DUP3 DUP2 MSTORE POP POP POP DUP2 PUSH2 0x12A3 JUMPI DUP1 PUSH1 0x40 MLOAD PUSH32 0x396EC77100000000000000000000000000000000000000000000000000000000 DUP2 MSTORE PUSH1 0x4 ADD PUSH2 0x129A SWAP2 SWAP1 PUSH2 0x2A01 JUMP JUMPDEST PUSH1 0x40 MLOAD DUP1 SWAP2 SUB SWAP1 REVERT JUMPDEST PUSH2 0x133E JUMP JUMPDEST DUP3 DUP13 PUSH1 0x0 PUSH1 0x2 DUP2 LT PUSH2 0x12BD JUMPI PUSH2 0x12BC PUSH2 0x32D5 JUMP JUMPDEST JUMPDEST PUSH1 0x20 MUL ADD DUP2 DUP2 MSTORE POP POP PUSH2 0x12CF DUP4 PUSH2 0x15F4 JUMP JUMPDEST SWAP1 POP PUSH2 0x12DA DUP2 PUSH2 0x175A JUMP JUMPDEST DUP14 PUSH1 0x1 PUSH1 0x2 DUP2 LT PUSH2 0x12EE JUMPI PUSH2 0x12ED PUSH2 0x32D5 JUMP JUMPDEST JUMPDEST PUSH1 0x20 MUL ADD DUP2 SWAP5 POP DUP3 DUP2 MSTORE POP POP POP DUP2 PUSH2 0x133D JUMPI DUP1 PUSH1 0x40 MLOAD PUSH32 0x396EC77100000000000000000000000000000000000000000000000000000000 DUP2 MSTORE PUSH1 0x4 ADD PUSH2 0x1334 SWAP2 SWAP1 PUSH2 0x2A01 JUMP JUMPDEST PUSH1 0x40 MLOAD DUP1 SWAP2 SUB SWAP1 REVERT JUMPDEST JUMPDEST JUMPDEST PUSH2 0x1360 DUP13 PUSH1 0x1 PUSH1 0x2 DUP2 LT PUSH2 0x1356 JUMPI PUSH2 0x1355 PUSH2 0x32D5 JUMP JUMPDEST JUMPDEST PUSH1 0x20 MUL ADD MLOAD PUSH2 0x17A3 JUMP JUMPDEST PUSH2 0x1369 DUP15 PUSH2 0x17A3 JUMP JUMPDEST EQ PUSH2 0x13D0 JUMPI DUP12 PUSH1 0x1 PUSH1 0x2 DUP2 LT PUSH2 0x1382 JUMPI PUSH2 0x1381 PUSH2 0x32D5 JUMP JUMPDEST JUMPDEST PUSH1 0x20 MUL ADD MLOAD PUSH32 0x30644E72E131A029B85045B68181585D97816A916871CA8D3C208C16D87CFD47 PUSH2 0x13B2 SWAP2 SWAP1 PUSH2 0x3694 JUMP JUMPDEST DUP13 PUSH1 0x1 PUSH1 0x2 DUP2 LT PUSH2 0x13C6 JUMPI PUSH2 0x13C5 PUSH2 0x32D5 JUMP JUMPDEST JUMPDEST PUSH1 0x20 MUL ADD DUP2 DUP2 MSTORE POP POP JUMPDEST POP POP POP POP POP POP POP POP POP POP POP SWAP2 SWAP1 POP JUMP JUMPDEST PUSH1 0x60 PUSH1 0x0 DUP4 MLOAD SWAP1 POP PUSH1 0xFF DUP2 GT ISZERO PUSH2 0x142E JUMPI DUP4 PUSH1 0x40 MLOAD PUSH32 0x26E4F9BA00000000000000000000000000000000000000000000000000000000 DUP2 MSTORE PUSH1 0x4 ADD PUSH2 0x1425 SWAP2 SWAP1 PUSH2 0x3712 JUMP JUMPDEST PUSH1 0x40 MLOAD DUP1 SWAP2 SUB SWAP1 REVERT JUMPDEST PUSH1 0x0 PUSH1 0x88 PUSH8 0xFFFFFFFFFFFFFFFF DUP2 GT ISZERO PUSH2 0x144B JUMPI PUSH2 0x144A PUSH2 0x2E15 JUMP JUMPDEST JUMPDEST PUSH1 0x40 MLOAD SWAP1 DUP1 DUP3 MSTORE DUP1 PUSH1 0x1F ADD PUSH1 0x1F NOT AND PUSH1 0x20 ADD DUP3 ADD PUSH1 0x40 MSTORE DUP1 ISZERO PUSH2 0x147D JUMPI DUP2 PUSH1 0x20 ADD PUSH1 0x1 DUP3 MUL DUP1 CALLDATASIZE DUP4 CALLDATACOPY DUP1 DUP3 ADD SWAP2 POP POP SWAP1 POP JUMPDEST POP SWAP1 POP PUSH1 0x0 DUP2 DUP6 PUSH1 0x0 PUSH1 0x60 PUSH1 0x0 DUP11 DUP9 PUSH1 0x40 MLOAD PUSH1 0x20 ADD PUSH2 0x14A2 SWAP8 SWAP7 SWAP6 SWAP5 SWAP4 SWAP3 SWAP2 SWAP1 PUSH2 0x3777 JUMP JUMPDEST PUSH1 0x40 MLOAD PUSH1 0x20 DUP2 DUP4 SUB SUB DUP2 MSTORE SWAP1 PUSH1 0x40 MSTORE SWAP1 POP PUSH1 0x0 DUP2 DUP1 MLOAD SWAP1 PUSH1 0x20 ADD KECCAK256 SWAP1 POP PUSH1 0x0 DUP2 PUSH1 0x1 DUP10 DUP8 PUSH1 0x40 MLOAD PUSH1 0x20 ADD PUSH2 0x14D9 SWAP5 SWAP4 SWAP3 SWAP2 SWAP1 PUSH2 0x37EC JUMP JUMPDEST PUSH1 0x40 MLOAD PUSH1 0x20 DUP2 DUP4 SUB SUB DUP2 MSTORE SWAP1 PUSH1 0x40 MSTORE SWAP1 POP PUSH1 0x0 DUP2 DUP1 MLOAD SWAP1 PUSH1 0x20 ADD KECCAK256 SWAP1 POP PUSH1 0x0 PUSH1 0x60 PUSH8 0xFFFFFFFFFFFFFFFF DUP2 GT ISZERO PUSH2 0x1513 JUMPI PUSH2 0x1512 PUSH2 0x2E15 JUMP JUMPDEST JUMPDEST PUSH1 0x40 MLOAD SWAP1 DUP1 DUP3 MSTORE DUP1 PUSH1 0x1F ADD PUSH1 0x1F NOT AND PUSH1 0x20 ADD DUP3 ADD PUSH1 0x40 MSTORE DUP1 ISZERO PUSH2 0x1545 JUMPI DUP2 PUSH1 0x20 ADD PUSH1 0x1 DUP3 MUL DUP1 CALLDATASIZE DUP4 CALLDATACOPY DUP1 DUP3 ADD SWAP2 POP POP SWAP1 POP JUMPDEST POP SWAP1 POP PUSH1 0x0 PUSH1 0x3 SWAP1 POP PUSH1 0x0 PUSH1 0x1 SWAP1 POP JUMPDEST DUP2 DUP2 LT ISZERO PUSH2 0x15BD JUMPI DUP4 DUP7 XOR DUP2 PUSH1 0x1 PUSH2 0x156D SWAP2 SWAP1 PUSH2 0x3836 JUMP JUMPDEST DUP14 DUP12 PUSH1 0x40 MLOAD PUSH1 0x20 ADD PUSH2 0x1582 SWAP5 SWAP4 SWAP3 SWAP2 SWAP1 PUSH2 0x37EC JUMP JUMPDEST PUSH1 0x40 MLOAD PUSH1 0x20 DUP2 DUP4 SUB SUB DUP2 MSTORE SWAP1 PUSH1 0x40 MSTORE SWAP5 POP DUP3 PUSH1 0x20 ADD PUSH1 0x1 DUP3 SUB PUSH1 0x20 MUL DUP2 ADD SWAP1 POP DUP5 DUP2 MSTORE POP DUP5 DUP1 MLOAD SWAP1 PUSH1 0x20 ADD KECCAK256 SWAP4 POP DUP1 DUP1 PUSH1 0x1 ADD SWAP2 POP POP PUSH2 0x1555 JUMP JUMPDEST POP DUP2 PUSH1 0x20 ADD PUSH1 0x1 DUP3 SUB PUSH1 0x20 MUL DUP2 ADD SWAP1 POP DUP4 DUP2 MSTORE POP DUP2 SWAP9 POP POP POP POP POP POP POP POP POP SWAP3 SWAP2 POP POP JUMP JUMPDEST PUSH1 0x0 PUSH2 0x15ED DUP3 PUSH2 0x17B9 JUMP JUMPDEST SWAP1 POP SWAP2 SWAP1 POP JUMP JUMPDEST PUSH1 0x0 PUSH32 0x30644E72E131A029B85045B68181585D97816A916871CA8D3C208C16D87CFD47 DUP1 PUSH2 0x1625 JUMPI PUSH2 0x1624 PUSH2 0x3636 JUMP JUMPDEST JUMPDEST PUSH1 0x3 PUSH32 0x30644E72E131A029B85045B68181585D97816A916871CA8D3C208C16D87CFD47 DUP1 PUSH2 0x1656 JUMPI PUSH2 0x1655 PUSH2 0x3636 JUMP JUMPDEST JUMPDEST DUP5 PUSH32 0x30644E72E131A029B85045B68181585D97816A916871CA8D3C208C16D87CFD47 DUP1 PUSH2 0x1686 JUMPI PUSH2 0x1685 PUSH2 0x3636 JUMP JUMPDEST JUMPDEST DUP7 DUP8 MULMOD MULMOD ADDMOD SWAP1 POP SWAP2 SWAP1 POP JUMP JUMPDEST PUSH1 0x0 DUP1 PUSH2 0x169E DUP4 PUSH2 0x1F13 JUMP JUMPDEST SWAP1 POP PUSH1 0x1 PUSH32 0x30644E72E131A029B85045B68181585D97816A916871CA8D3C208C16D87CFD47 PUSH2 0x16CD SWAP2 SWAP1 PUSH2 0x3694 JUMP JUMPDEST DUP2 SUB PUSH2 0x16FC JUMPI PUSH32 0xFFFFFFFFFFFFFFFFFFFFFFFFFFFFFFFFFFFFFFFFFFFFFFFFFFFFFFFFFFFFFFFF SWAP2 POP POP PUSH2 0x1755 JUMP JUMPDEST PUSH1 0x0 DUP2 EQ ISZERO DUP1 ISZERO PUSH2 0x170E JUMPI POP PUSH1 0x1 DUP2 EQ ISZERO JUMPDEST ISZERO PUSH2 0x1750 JUMPI DUP3 PUSH1 0x40 MLOAD PUSH32 0x396EC77100000000000000000000000000000000000000000000000000000000 DUP2 MSTORE PUSH1 0x4 ADD PUSH2 0x1747 SWAP2 SWAP1 PUSH2 0x2A01 JUMP JUMPDEST PUSH1 0x40 MLOAD DUP1 SWAP2 SUB SWAP1 REVERT JUMPDEST DUP1 SWAP2 POP POP JUMPDEST SWAP2 SWAP1 POP JUMP JUMPDEST PUSH1 0x0 DUP1 PUSH2 0x1766 DUP4 PUSH2 0x2082 JUMP JUMPDEST SWAP2 POP DUP3 PUSH32 0x30644E72E131A029B85045B68181585D97816A916871CA8D3C208C16D87CFD47 DUP1 PUSH2 0x1798 JUMPI PUSH2 0x1797 PUSH2 0x3636 JUMP JUMPDEST JUMPDEST DUP4 DUP5 MULMOD EQ SWAP1 POP SWAP2 POP SWAP2 JUMP JUMPDEST PUSH1 0x0 PUSH1 0x2 DUP3 PUSH2 0x17B2 SWAP2 SWAP1 PUSH2 0x386A JUMP JUMPDEST SWAP1 POP SWAP2 SWAP1 POP JUMP JUMPDEST PUSH1 0x0 PUSH32 0x30644E72E131A029B85045B68181585D97816A916871CA8D3C208C16D87CFD47 DUP1 DUP4 DUP5 MULMOD SWAP2 POP DUP1 DUP4 DUP4 MULMOD DUP2 DUP4 DUP3 MULMOD DUP3 DUP3 DUP4 MULMOD DUP4 DUP6 DUP4 MULMOD DUP5 DUP5 DUP4 MULMOD DUP6 DUP5 DUP5 MULMOD DUP7 DUP5 DUP6 MULMOD SWAP8 POP DUP7 DUP5 DUP5 MULMOD DUP8 DUP6 DUP5 MULMOD SWAP5 POP DUP8 DUP10 DUP11 MULMOD SWAP9 POP DUP8 DUP10 DUP11 MULMOD SWAP9 POP DUP8 DUP10 DUP11 MULMOD SWAP9 POP DUP8 DUP10 DUP11 MULMOD SWAP9 POP DUP8 DUP10 DUP11 MULMOD SWAP9 POP DUP8 DUP8 DUP11 MULMOD SWAP9 POP DUP8 DUP10 DUP11 MULMOD SWAP9 POP DUP8 DUP10 DUP11 MULMOD SWAP9 POP DUP8 DUP10 DUP11 MULMOD SWAP9 POP DUP8 DUP11 DUP11 MULMOD SWAP9 POP DUP8 DUP10 DUP11 MULMOD SWAP9 POP DUP8 DUP10 DUP11 MULMOD SWAP9 POP DUP8 DUP10 DUP11 MULMOD SWAP9 POP DUP8 DUP10 DUP11 MULMOD SWAP9 POP DUP8 DUP11 DUP11 MULMOD SWAP9 POP DUP8 DUP10 DUP11 MULMOD SWAP9 POP DUP8 DUP10 DUP11 MULMOD SWAP9 POP DUP8 DUP10 DUP11 MULMOD SWAP9 POP DUP8 DUP10 DUP11 MULMOD SWAP9 POP DUP8 DUP10 DUP11 MULMOD SWAP9 POP DUP8 DUP5 DUP11 MULMOD SWAP9 POP DUP8 DUP10 DUP11 MULMOD SWAP9 POP DUP8 DUP10 DUP11 MULMOD SWAP9 POP DUP8 DUP10 DUP11 MULMOD SWAP9 POP DUP8 DUP10 DUP11 MULMOD SWAP9 POP DUP8 DUP10 DUP11 MULMOD SWAP9 POP DUP8 DUP5 DUP11 MULMOD SWAP9 POP DUP8 DUP10 DUP11 MULMOD SWAP9 POP DUP8 DUP10 DUP11 MULMOD SWAP9 POP DUP8 DUP10 DUP11 MULMOD SWAP9 POP DUP8 DUP11 DUP11 MULMOD SWAP9 POP DUP8 DUP10 DUP11 MULMOD SWAP9 POP DUP8 DUP10 DUP11 MULMOD SWAP9 POP DUP8 DUP10 DUP11 MULMOD SWAP9 POP DUP8 DUP10 DUP11 MULMOD SWAP9 POP DUP8 DUP5 DUP11 MULMOD SWAP9 POP DUP8 DUP10 DUP11 MULMOD SWAP9 POP DUP8 DUP10 DUP11 MULMOD SWAP9 POP DUP8 DUP10 DUP11 MULMOD SWAP9 POP DUP8 DUP10 DUP11 MULMOD SWAP9 POP DUP8 DUP10 DUP11 MULMOD SWAP9 POP DUP8 DUP11 DUP11 MULMOD SWAP9 POP DUP8 DUP10 DUP11 MULMOD SWAP9 POP DUP8 DUP10 DUP11 MULMOD SWAP9 POP DUP8 DUP10 DUP11 MULMOD SWAP9 POP DUP8 DUP10 DUP11 MULMOD SWAP9 POP DUP8 DUP8 DUP11 MULMOD SWAP9 POP DUP8 DUP10 DUP11 MULMOD SWAP9 POP DUP8 DUP10 DUP11 MULMOD SWAP9 POP DUP8 DUP10 DUP11 MULMOD SWAP9 POP DUP8 DUP10 DUP11 MULMOD SWAP9 POP DUP8 DUP10 DUP11 MULMOD SWAP9 POP DUP8 DUP10 DUP11 MULMOD SWAP9 POP DUP8 DUP10 DUP11 MULMOD SWAP9 POP DUP8 DUP2 DUP11 MULMOD SWAP9 POP DUP8 DUP10 DUP11 MULMOD SWAP9 POP DUP8 DUP10 DUP11 MULMOD SWAP9 POP DUP8 DUP10 DUP11 MULMOD SWAP9 POP DUP8 DUP10 DUP11 MULMOD SWAP9 POP DUP8 DUP10 DUP11 MULMOD SWAP9 POP DUP8 DUP10 DUP11 MULMOD SWAP9 POP DUP8 DUP10 DUP11 MULMOD SWAP9 POP DUP8 DUP10 DUP11 MULMOD SWAP9 POP DUP8 DUP10 DUP11 MULMOD SWAP9 POP DUP8 DUP10 DUP11 MULMOD SWAP9 POP DUP8 DUP7 DUP11 MULMOD SWAP9 POP DUP8 DUP10 DUP11 MULMOD SWAP9 POP DUP8 DUP10 DUP11 MULMOD SWAP9 POP DUP8 DUP10 DUP11 MULMOD SWAP9 POP DUP8 DUP10 DUP11 MULMOD SWAP9 POP DUP8 DUP8 DUP11 MULMOD SWAP9 POP DUP8 DUP10 DUP11 MULMOD SWAP9 POP DUP8 DUP10 DUP11 MULMOD SWAP9 POP DUP8 DUP10 DUP11 MULMOD SWAP9 POP DUP8 DUP10 DUP11 MULMOD SWAP9 POP DUP8 DUP5 DUP11 MULMOD SWAP9 POP DUP8 DUP10 DUP11 MULMOD SWAP9 POP DUP8 DUP10 DUP11 MULMOD SWAP9 POP DUP8 DUP10 DUP11 MULMOD SWAP9 POP DUP8 DUP10 DUP11 MULMOD SWAP9 POP DUP8 DUP10 DUP11 MULMOD SWAP9 POP DUP8 DUP10 DUP11 MULMOD SWAP9 POP DUP8 DUP10 DUP11 MULMOD SWAP9 POP DUP8 DUP7 DUP11 MULMOD SWAP9 POP DUP8 DUP10 DUP11 MULMOD SWAP9 POP DUP8 DUP10 DUP11 MULMOD SWAP9 POP DUP8 DUP10 DUP11 MULMOD SWAP9 POP DUP8 DUP10 DUP11 MULMOD SWAP9 POP DUP8 DUP10 DUP11 MULMOD SWAP9 POP DUP8 DUP10 DUP11 MULMOD SWAP9 POP DUP8 DUP11 DUP11 MULMOD SWAP9 POP DUP8 DUP10 DUP11 MULMOD SWAP9 POP DUP8 DUP10 DUP11 MULMOD SWAP9 POP DUP8 DUP10 DUP11 MULMOD SWAP9 POP DUP8 DUP10 DUP11 MULMOD SWAP9 POP DUP8 DUP10 DUP11 MULMOD SWAP9 POP DUP8 DUP10 DUP11 MULMOD SWAP9 POP DUP8 DUP10 DUP11 MULMOD SWAP9 POP DUP8 DUP3 DUP11 MULMOD SWAP9 POP DUP8 DUP10 DUP11 MULMOD SWAP9 POP DUP8 DUP10 DUP11 MULMOD SWAP9 POP DUP8 DUP10 DUP11 MULMOD SWAP9 POP DUP8 DUP10 DUP11 MULMOD SWAP9 POP DUP8 DUP10 DUP11 MULMOD SWAP9 POP DUP8 DUP2 DUP11 MULMOD SWAP9 POP DUP8 DUP10 DUP11 MULMOD SWAP9 POP DUP8 DUP10 DUP11 MULMOD SWAP9 POP DUP8 DUP10 DUP11 MULMOD SWAP9 POP DUP8 DUP7 DUP11 MULMOD SWAP9 POP DUP8 DUP10 DUP11 MULMOD SWAP9 POP DUP8 DUP10 DUP11 MULMOD SWAP9 POP DUP8 DUP10 DUP11 MULMOD SWAP9 POP DUP8 DUP10 DUP11 MULMOD SWAP9 POP DUP8 DUP10 DUP11 MULMOD SWAP9 POP DUP8 DUP10 DUP11 MULMOD SWAP9 POP DUP8 DUP10 DUP11 MULMOD SWAP9 POP DUP8 DUP10 DUP11 MULMOD SWAP9 POP DUP8 DUP8 DUP11 MULMOD SWAP9 POP DUP8 DUP10 DUP11 MULMOD SWAP9 POP DUP8 DUP10 DUP11 MULMOD SWAP9 POP DUP8 DUP10 DUP11 MULMOD SWAP9 POP DUP8 DUP10 DUP11 MULMOD SWAP9 POP DUP8 DUP10 DUP11 MULMOD SWAP9 POP DUP8 DUP10 DUP11 MULMOD SWAP9 POP DUP8 DUP10 DUP11 MULMOD SWAP9 POP DUP8 DUP10 DUP11 MULMOD SWAP9 POP DUP8 DUP10 DUP11 MULMOD SWAP9 POP DUP8 DUP7 DUP11 MULMOD SWAP9 POP DUP8 DUP10 DUP11 MULMOD SWAP9 POP DUP8 DUP10 DUP11 MULMOD SWAP9 POP DUP8 DUP10 DUP11 MULMOD SWAP9 POP DUP8 DUP8 DUP11 MULMOD SWAP9 POP DUP8 DUP10 DUP11 MULMOD SWAP9 POP DUP8 DUP10 DUP11 MULMOD SWAP9 POP DUP8 DUP10 DUP11 MULMOD SWAP9 POP DUP8 DUP10 DUP11 MULMOD SWAP9 POP DUP8 DUP10 DUP11 MULMOD SWAP9 POP DUP8 DUP10 DUP11 MULMOD SWAP9 POP DUP8 DUP10 DUP11 MULMOD SWAP9 POP DUP8 DUP10 DUP11 MULMOD SWAP9 POP DUP8 DUP3 DUP11 MULMOD SWAP9 POP DUP8 DUP10 DUP11 MULMOD SWAP9 POP DUP8 DUP10 DUP11 MULMOD SWAP9 POP DUP8 DUP10 DUP11 MULMOD SWAP9 POP DUP8 DUP10 DUP11 MULMOD SWAP9 POP DUP8 DUP3 DUP11 MULMOD SWAP9 POP DUP8 DUP10 DUP11 MULMOD SWAP9 POP DUP8 DUP10 DUP11 MULMOD SWAP9 POP DUP8 DUP10 DUP11 MULMOD SWAP9 POP DUP8 DUP10 DUP11 MULMOD SWAP9 POP DUP8 DUP10 DUP11 MULMOD SWAP9 POP DUP8 DUP7 DUP11 MULMOD SWAP9 POP DUP8 DUP10 DUP11 MULMOD SWAP9 POP DUP8 DUP10 DUP11 MULMOD SWAP9 POP DUP8 DUP10 DUP11 MULMOD SWAP9 POP DUP8 DUP5 DUP11 MULMOD SWAP9 POP DUP8 DUP10 DUP11 MULMOD SWAP9 POP DUP8 DUP10 DUP11 MULMOD SWAP9 POP DUP8 DUP10 DUP11 MULMOD SWAP9 POP DUP8 DUP10 DUP11 MULMOD SWAP9 POP DUP8 DUP10 DUP11 MULMOD SWAP9 POP DUP8 DUP10 DUP11 MULMOD SWAP9 POP DUP8 DUP10 DUP11 MULMOD SWAP9 POP DUP8 DUP10 DUP11 MULMOD SWAP9 POP DUP8 DUP10 DUP11 MULMOD SWAP9 POP DUP8 DUP10 DUP11 MULMOD SWAP9 POP DUP8 DUP3 DUP11 MULMOD SWAP9 POP DUP8 DUP10 DUP11 MULMOD SWAP9 POP DUP8 DUP10 DUP11 MULMOD SWAP9 POP DUP8 DUP10 DUP11 MULMOD SWAP9 POP DUP8 DUP10 DUP11 MULMOD SWAP9 POP DUP8 DUP7 DUP11 MULMOD SWAP9 POP DUP8 DUP10 DUP11 MULMOD SWAP9 POP DUP8 DUP10 DUP11 MULMOD SWAP9 POP DUP8 DUP10 DUP11 MULMOD SWAP9 POP DUP8 DUP10 DUP11 MULMOD SWAP9 POP DUP8 DUP10 DUP11 MULMOD SWAP9 POP DUP8 DUP4 DUP11 MULMOD SWAP9 POP DUP8 DUP10 DUP11 MULMOD SWAP9 POP DUP8 DUP10 DUP11 MULMOD SWAP9 POP DUP8 DUP10 DUP11 MULMOD SWAP9 POP DUP8 DUP10 DUP11 MULMOD SWAP9 POP DUP8 DUP10 DUP11 MULMOD SWAP9 POP DUP8 DUP10 DUP11 MULMOD SWAP9 POP DUP8 DUP10 DUP11 MULMOD SWAP9 POP DUP8 DUP3 DUP11 MULMOD SWAP9 POP DUP8 DUP10 DUP11 MULMOD SWAP9 POP DUP8 DUP10 DUP11 MULMOD SWAP9 POP DUP8 DUP11 DUP11 MULMOD SWAP9 POP DUP8 DUP10 DUP11 MULMOD SWAP9 POP DUP8 DUP10 DUP11 MULMOD SWAP9 POP DUP8 DUP10 DUP11 MULMOD SWAP9 POP DUP8 DUP10 DUP11 MULMOD SWAP9 POP DUP8 DUP10 DUP11 MULMOD SWAP9 POP DUP8 DUP10 DUP11 MULMOD SWAP9 POP DUP8 DUP10 DUP11 MULMOD SWAP9 POP DUP8 DUP5 DUP11 MULMOD SWAP9 POP DUP8 DUP10 DUP11 MULMOD SWAP9 POP DUP8 DUP10 DUP11 MULMOD SWAP9 POP DUP8 DUP10 DUP11 MULMOD SWAP9 POP DUP8 DUP10 DUP11 MULMOD SWAP9 POP DUP8 DUP10 DUP11 MULMOD SWAP9 POP DUP8 DUP10 DUP11 MULMOD SWAP9 POP DUP8 DUP5 DUP11 MULMOD SWAP9 POP DUP8 DUP10 DUP11 MULMOD SWAP9 POP DUP8 DUP10 DUP11 MULMOD SWAP9 POP DUP8 DUP10 DUP11 MULMOD SWAP9 POP DUP8 DUP10 DUP11 MULMOD SWAP9 POP DUP8 DUP10 DUP11 MULMOD SWAP9 POP DUP8 DUP7 DUP11 MULMOD SWAP9 POP DUP8 DUP10 DUP11 MULMOD SWAP9 POP DUP8 DUP10 DUP11 MULMOD SWAP9 POP DUP8 DUP11 DUP11 MULMOD SWAP9 POP DUP8 DUP10 DUP11 MULMOD SWAP9 POP DUP8 DUP10 DUP11 MULMOD SWAP9 POP DUP8 DUP10 DUP11 MULMOD SWAP9 POP DUP8 DUP10 DUP11 MULMOD SWAP9 POP DUP8 DUP10 DUP11 MULMOD SWAP9 POP DUP8 DUP10 DUP11 MULMOD SWAP9 POP DUP8 DUP10 DUP11 MULMOD SWAP9 POP DUP8 DUP2 DUP11 MULMOD SWAP9 POP DUP8 DUP10 DUP11 MULMOD SWAP9 POP DUP8 DUP10 DUP11 MULMOD SWAP9 POP DUP8 DUP10 DUP11 MULMOD SWAP9 POP DUP8 DUP10 DUP11 MULMOD SWAP9 POP DUP8 DUP10 DUP11 MULMOD SWAP9 POP DUP8 DUP10 DUP11 MULMOD SWAP9 POP DUP8 DUP6 DUP11 MULMOD SWAP9 POP DUP8 DUP10 DUP11 MULMOD SWAP9 POP DUP8 DUP10 DUP11 MULMOD SWAP9 POP DUP8 DUP10 DUP11 MULMOD SWAP9 POP DUP8 DUP10 DUP11 MULMOD SWAP9 POP DUP8 DUP10 DUP11 MULMOD SWAP9 POP DUP8 DUP11 DUP11 MULMOD SWAP9 POP DUP8 DUP10 DUP11 MULMOD SWAP9 POP DUP8 DUP10 DUP11 MULMOD SWAP9 POP DUP8 DUP10 DUP11 MULMOD SWAP9 POP DUP8 DUP10 DUP11 MULMOD SWAP9 POP DUP8 DUP10 DUP11 MULMOD SWAP9 POP DUP8 DUP10 DUP11 MULMOD SWAP9 POP DUP8 DUP11 DUP11 MULMOD SWAP9 POP DUP8 DUP10 DUP11 MULMOD SWAP9 POP DUP8 DUP10 DUP11 MULMOD SWAP9 POP DUP8 DUP10 DUP11 MULMOD SWAP9 POP DUP8 DUP10 DUP11 MULMOD SWAP9 POP DUP8 DUP10 DUP11 MULMOD SWAP9 POP DUP8 DUP8 DUP11 MULMOD SWAP9 POP DUP8 DUP10 DUP11 MULMOD SWAP9 POP DUP8 DUP10 DUP11 MULMOD SWAP9 POP DUP8 DUP10 DUP11 MULMOD SWAP9 POP DUP8 DUP10 DUP11 MULMOD SWAP9 POP DUP8 DUP10 DUP11 MULMOD SWAP9 POP DUP8 DUP10 DUP11 MULMOD SWAP9 POP DUP8 DUP10 DUP11 MULMOD SWAP9 POP DUP8 DUP10 DUP11 MULMOD SWAP9 POP DUP8 DUP10 DUP11 MULMOD SWAP9 POP DUP8 DUP3 DUP11 MULMOD SWAP9 POP DUP8 DUP10 DUP11 MULMOD SWAP9 POP DUP8 DUP10 DUP11 MULMOD SWAP9 POP DUP8 DUP10 DUP11 MULMOD SWAP9 POP DUP8 DUP8 DUP11 MULMOD SWAP9 POP DUP8 DUP10 DUP11 MULMOD SWAP9 POP DUP8 DUP10 DUP11 MULMOD SWAP9 POP DUP8 DUP10 DUP11 MULMOD SWAP9 POP DUP8 DUP8 DUP11 MULMOD SWAP9 POP DUP8 DUP10 DUP11 MULMOD SWAP9 POP DUP8 DUP10 DUP11 MULMOD SWAP9 POP DUP8 DUP10 DUP11 MULMOD SWAP9 POP DUP8 DUP10 DUP11 MULMOD SWAP9 POP DUP8 DUP10 DUP11 MULMOD SWAP9 POP DUP8 DUP10 DUP11 MULMOD SWAP9 POP DUP8 DUP10 DUP11 MULMOD SWAP9 POP DUP8 DUP10 DUP11 MULMOD SWAP9 POP DUP8 DUP6 DUP11 MULMOD SWAP9 POP DUP8 DUP10 DUP11 MULMOD SWAP9 POP DUP8 DUP10 DUP11 MULMOD SWAP9 POP DUP8 DUP10 DUP11 MULMOD SWAP9 POP DUP8 DUP10 DUP11 MULMOD SWAP9 POP DUP8 DUP4 DUP11 MULMOD SWAP9 POP DUP8 DUP10 DUP11 MULMOD SWAP9 POP DUP8 DUP10 DUP11 MULMOD SWAP9 POP DUP8 DUP10 DUP11 MULMOD SWAP9 POP DUP8 DUP10 DUP11 MULMOD SWAP9 POP DUP8 DUP6 DUP11 MULMOD SWAP9 POP DUP8 DUP10 DUP11 MULMOD SWAP9 POP DUP8 DUP10 DUP11 MULMOD SWAP9 POP DUP8 DUP10 DUP11 MULMOD SWAP9 POP DUP8 DUP7 DUP11 MULMOD SWAP9 POP DUP8 DUP10 DUP11 MULMOD SWAP9 POP DUP8 DUP10 DUP11 MULMOD SWAP9 POP DUP8 DUP11 DUP11 MULMOD SWAP9 POP DUP8 DUP10 DUP11 MULMOD SWAP9 POP DUP8 DUP10 DUP11 MULMOD SWAP9 POP DUP8 DUP10 DUP11 MULMOD SWAP9 POP DUP8 DUP10 DUP11 MULMOD SWAP9 POP DUP8 DUP10 DUP11 MULMOD SWAP9 POP DUP8 DUP10 DUP11 MULMOD SWAP9 POP DUP8 DUP7 DUP11 MULMOD SWAP9 POP POP POP POP POP POP POP POP POP SWAP2 SWAP1 POP JUMP JUMPDEST PUSH1 0x0 DUP1 PUSH1 0xC0 PUSH8 0xFFFFFFFFFFFFFFFF DUP2 GT ISZERO PUSH2 0x1F31 JUMPI PUSH2 0x1F30 PUSH2 0x2E15 JUMP JUMPDEST JUMPDEST PUSH1 0x40 MLOAD SWAP1 DUP1 DUP3 MSTORE DUP1 PUSH1 0x1F ADD PUSH1 0x1F NOT AND PUSH1 0x20 ADD DUP3 ADD PUSH1 0x40 MSTORE DUP1 ISZERO PUSH2 0x1F63 JUMPI DUP2 PUSH1 0x20 ADD PUSH1 0x1 DUP3 MUL DUP1 CALLDATASIZE DUP4 CALLDATACOPY DUP1 DUP3 ADD SWAP2 POP POP SWAP1 POP JUMPDEST POP SWAP1 POP PUSH1 0x0 PUSH1 0x20 DUP3 ADD PUSH1 0x20 DUP2 MSTORE PUSH1 0x20 DUP2 ADD SWAP1 POP PUSH1 0x20 DUP2 MSTORE PUSH1 0x20 DUP2 ADD SWAP1 POP PUSH1 0x20 DUP2 MSTORE PUSH1 0x20 DUP2 ADD SWAP1 POP DUP5 DUP2 MSTORE PUSH1 0x20 DUP2 ADD SWAP1 POP PUSH32 0x183227397098D014DC2822DB40C0AC2ECBC0B548B438E5469E10460B6C3E7EA3 DUP2 MSTORE PUSH1 0x20 DUP2 ADD SWAP1 POP PUSH32 0x30644E72E131A029B85045B68181585D97816A916871CA8D3C208C16D87CFD47 DUP2 MSTORE PUSH1 0x20 PUSH1 0x0 PUSH1 0xC0 PUSH1 0x20 DUP7 ADD PUSH1 0x5 GAS STATICCALL SWAP2 POP PUSH1 0x0 MLOAD SWAP4 POP POP DUP1 PUSH2 0x207B JUMPI DUP4 PUSH32 0x183227397098D014DC2822DB40C0AC2ECBC0B548B438E5469E10460B6C3E7EA3 PUSH32 0x30644E72E131A029B85045B68181585D97816A916871CA8D3C208C16D87CFD47 PUSH1 0x40 MLOAD PUSH32 0xC6DAF7AB00000000000000000000000000000000000000000000000000000000 DUP2 MSTORE PUSH1 0x4 ADD PUSH2 0x2072 SWAP4 SWAP3 SWAP2 SWAP1 PUSH2 0x389B JUMP JUMPDEST PUSH1 0x40 MLOAD DUP1 SWAP2 SUB SWAP1 REVERT JUMPDEST POP POP SWAP2 SWAP1 POP JUMP JUMPDEST PUSH1 0x0 PUSH32 0x30644E72E131A029B85045B68181585D97816A916871CA8D3C208C16D87CFD47 DUP1 DUP4 DUP5 MULMOD SWAP2 POP DUP1 DUP4 DUP4 MULMOD DUP2 DUP4 DUP3 MULMOD DUP3 DUP3 DUP4 MULMOD DUP4 DUP6 DUP4 MULMOD DUP5 DUP5 DUP4 MULMOD DUP6 DUP5 DUP5 MULMOD DUP7 DUP5 DUP6 MULMOD SWAP8 POP DUP7 DUP5 DUP5 MULMOD DUP8 DUP6 DUP5 MULMOD SWAP5 POP DUP8 DUP10 DUP11 MULMOD SWAP9 POP DUP8 DUP10 DUP11 MULMOD SWAP9 POP DUP8 DUP10 DUP11 MULMOD SWAP9 POP DUP8 DUP10 DUP11 MULMOD SWAP9 POP DUP8 DUP10 DUP11 MULMOD SWAP9 POP DUP8 DUP8 DUP11 MULMOD SWAP9 POP DUP8 DUP10 DUP11 MULMOD SWAP9 POP DUP8 DUP10 DUP11 MULMOD SWAP9 POP DUP8 DUP10 DUP11 MULMOD SWAP9 POP DUP8 DUP11 DUP11 MULMOD SWAP9 POP DUP8 DUP10 DUP11 MULMOD SWAP9 POP DUP8 DUP10 DUP11 MULMOD SWAP9 POP DUP8 DUP10 DUP11 MULMOD SWAP9 POP DUP8 DUP10 DUP11 MULMOD SWAP9 POP DUP8 DUP11 DUP11 MULMOD SWAP9 POP DUP8 DUP10 DUP11 MULMOD SWAP9 POP DUP8 DUP10 DUP11 MULMOD SWAP9 POP DUP8 DUP10 DUP11 MULMOD SWAP9 POP DUP8 DUP10 DUP11 MULMOD SWAP9 POP DUP8 DUP10 DUP11 MULMOD SWAP9 POP DUP8 DUP5 DUP11 MULMOD SWAP9 POP DUP8 DUP10 DUP11 MULMOD SWAP9 POP DUP8 DUP10 DUP11 MULMOD SWAP9 POP DUP8 DUP10 DUP11 MULMOD SWAP9 POP DUP8 DUP10 DUP11 MULMOD SWAP9 POP DUP8 DUP10 DUP11 MULMOD SWAP9 POP DUP8 DUP5 DUP11 MULMOD SWAP9 POP DUP8 DUP10 DUP11 MULMOD SWAP9 POP DUP8 DUP10 DUP11 MULMOD SWAP9 POP DUP8 DUP10 DUP11 MULMOD SWAP9 POP DUP8 DUP11 DUP11 MULMOD SWAP9 POP DUP8 DUP10 DUP11 MULMOD SWAP9 POP DUP8 DUP10 DUP11 MULMOD SWAP9 POP DUP8 DUP10 DUP11 MULMOD SWAP9 POP DUP8 DUP10 DUP11 MULMOD SWAP9 POP DUP8 DUP5 DUP11 MULMOD SWAP9 POP DUP8 DUP10 DUP11 MULMOD SWAP9 POP DUP8 DUP10 DUP11 MULMOD SWAP9 POP DUP8 DUP10 DUP11 MULMOD SWAP9 POP DUP8 DUP10 DUP11 MULMOD SWAP9 POP DUP8 DUP10 DUP11 MULMOD SWAP9 POP DUP8 DUP11 DUP11 MULMOD SWAP9 POP DUP8 DUP10 DUP11 MULMOD SWAP9 POP DUP8 DUP10 DUP11 MULMOD SWAP9 POP DUP8 DUP10 DUP11 MULMOD SWAP9 POP DUP8 DUP10 DUP11 MULMOD SWAP9 POP DUP8 DUP8 DUP11 MULMOD SWAP9 POP DUP8 DUP10 DUP11 MULMOD SWAP9 POP DUP8 DUP10 DUP11 MULMOD SWAP9 POP DUP8 DUP10 DUP11 MULMOD SWAP9 POP DUP8 DUP10 DUP11 MULMOD SWAP9 POP DUP8 DUP10 DUP11 MULMOD SWAP9 POP DUP8 DUP10 DUP11 MULMOD SWAP9 POP DUP8 DUP10 DUP11 MULMOD SWAP9 POP DUP8 DUP2 DUP11 MULMOD SWAP9 POP DUP8 DUP10 DUP11 MULMOD SWAP9 POP DUP8 DUP10 DUP11 MULMOD SWAP9 POP DUP8 DUP10 DUP11 MULMOD SWAP9 POP DUP8 DUP10 DUP11 MULMOD SWAP9 POP DUP8 DUP10 DUP11 MULMOD SWAP9 POP DUP8 DUP10 DUP11 MULMOD SWAP9 POP DUP8 DUP10 DUP11 MULMOD SWAP9 POP DUP8 DUP10 DUP11 MULMOD SWAP9 POP DUP8 DUP10 DUP11 MULMOD SWAP9 POP DUP8 DUP10 DUP11 MULMOD SWAP9 POP DUP8 DUP7 DUP11 MULMOD SWAP9 POP DUP8 DUP10 DUP11 MULMOD SWAP9 POP DUP8 DUP10 DUP11 MULMOD SWAP9 POP DUP8 DUP10 DUP11 MULMOD SWAP9 POP DUP8 DUP10 DUP11 MULMOD SWAP9 POP DUP8 DUP8 DUP11 MULMOD SWAP9 POP DUP8 DUP10 DUP11 MULMOD SWAP9 POP DUP8 DUP10 DUP11 MULMOD SWAP9 POP DUP8 DUP10 DUP11 MULMOD SWAP9 POP DUP8 DUP10 DUP11 MULMOD SWAP9 POP DUP8 DUP5 DUP11 MULMOD SWAP9 POP DUP8 DUP10 DUP11 MULMOD SWAP9 POP DUP8 DUP10 DUP11 MULMOD SWAP9 POP DUP8 DUP10 DUP11 MULMOD SWAP9 POP DUP8 DUP10 DUP11 MULMOD SWAP9 POP DUP8 DUP10 DUP11 MULMOD SWAP9 POP DUP8 DUP10 DUP11 MULMOD SWAP9 POP DUP8 DUP10 DUP11 MULMOD SWAP9 POP DUP8 DUP7 DUP11 MULMOD SWAP9 POP DUP8 DUP10 DUP11 MULMOD SWAP9 POP DUP8 DUP10 DUP11 MULMOD SWAP9 POP DUP8 DUP10 DUP11 MULMOD SWAP9 POP DUP8 DUP10 DUP11 MULMOD SWAP9 POP DUP8 DUP10 DUP11 MULMOD SWAP9 POP DUP8 DUP10 DUP11 MULMOD SWAP9 POP DUP8 DUP11 DUP11 MULMOD SWAP9 POP DUP8 DUP10 DUP11 MULMOD SWAP9 POP DUP8 DUP10 DUP11 MULMOD SWAP9 POP DUP8 DUP10 DUP11 MULMOD SWAP9 POP DUP8 DUP10 DUP11 MULMOD SWAP9 POP DUP8 DUP10 DUP11 MULMOD SWAP9 POP DUP8 DUP10 DUP11 MULMOD SWAP9 POP DUP8 DUP10 DUP11 MULMOD SWAP9 POP DUP8 DUP3 DUP11 MULMOD SWAP9 POP DUP8 DUP10 DUP11 MULMOD SWAP9 POP DUP8 DUP10 DUP11 MULMOD SWAP9 POP DUP8 DUP10 DUP11 MULMOD SWAP9 POP DUP8 DUP10 DUP11 MULMOD SWAP9 POP DUP8 DUP10 DUP11 MULMOD SWAP9 POP DUP8 DUP2 DUP11 MULMOD SWAP9 POP DUP8 DUP10 DUP11 MULMOD SWAP9 POP DUP8 DUP10 DUP11 MULMOD SWAP9 POP DUP8 DUP10 DUP11 MULMOD SWAP9 POP DUP8 DUP7 DUP11 MULMOD SWAP9 POP DUP8 DUP10 DUP11 MULMOD SWAP9 POP DUP8 DUP10 DUP11 MULMOD SWAP9 POP DUP8 DUP10 DUP11 MULMOD SWAP9 POP DUP8 DUP10 DUP11 MULMOD SWAP9 POP DUP8 DUP10 DUP11 MULMOD SWAP9 POP DUP8 DUP10 DUP11 MULMOD SWAP9 POP DUP8 DUP10 DUP11 MULMOD SWAP9 POP DUP8 DUP10 DUP11 MULMOD SWAP9 POP DUP8 DUP8 DUP11 MULMOD SWAP9 POP DUP8 DUP10 DUP11 MULMOD SWAP9 POP DUP8 DUP10 DUP11 MULMOD SWAP9 POP DUP8 DUP10 DUP11 MULMOD SWAP9 POP DUP8 DUP10 DUP11 MULMOD SWAP9 POP DUP8 DUP10 DUP11 MULMOD SWAP9 POP DUP8 DUP10 DUP11 MULMOD SWAP9 POP DUP8 DUP10 DUP11 MULMOD SWAP9 POP DUP8 DUP10 DUP11 MULMOD SWAP9 POP DUP8 DUP10 DUP11 MULMOD SWAP9 POP DUP8 DUP7 DUP11 MULMOD SWAP9 POP DUP8 DUP10 DUP11 MULMOD SWAP9 POP DUP8 DUP10 DUP11 MULMOD SWAP9 POP DUP8 DUP10 DUP11 MULMOD SWAP9 POP DUP8 DUP8 DUP11 MULMOD SWAP9 POP DUP8 DUP10 DUP11 MULMOD SWAP9 POP DUP8 DUP10 DUP11 MULMOD SWAP9 POP DUP8 DUP10 DUP11 MULMOD SWAP9 POP DUP8 DUP10 DUP11 MULMOD SWAP9 POP DUP8 DUP10 DUP11 MULMOD SWAP9 POP DUP8 DUP10 DUP11 MULMOD SWAP9 POP DUP8 DUP10 DUP11 MULMOD SWAP9 POP DUP8 DUP10 DUP11 MULMOD SWAP9 POP DUP8 DUP3 DUP11 MULMOD SWAP9 POP DUP8 DUP10 DUP11 MULMOD SWAP9 POP DUP8 DUP10 DUP11 MULMOD SWAP9 POP DUP8 DUP10 DUP11 MULMOD SWAP9 POP DUP8 DUP10 DUP11 MULMOD SWAP9 POP DUP8 DUP3 DUP11 MULMOD SWAP9 POP DUP8 DUP10 DUP11 MULMOD SWAP9 POP DUP8 DUP10 DUP11 MULMOD SWAP9 POP DUP8 DUP10 DUP11 MULMOD SWAP9 POP DUP8 DUP10 DUP11 MULMOD SWAP9 POP DUP8 DUP10 DUP11 MULMOD SWAP9 POP DUP8 DUP7 DUP11 MULMOD SWAP9 POP DUP8 DUP10 DUP11 MULMOD SWAP9 POP DUP8 DUP10 DUP11 MULMOD SWAP9 POP DUP8 DUP10 DUP11 MULMOD SWAP9 POP DUP8 DUP5 DUP11 MULMOD SWAP9 POP DUP8 DUP10 DUP11 MULMOD SWAP9 POP DUP8 DUP10 DUP11 MULMOD SWAP9 POP DUP8 DUP10 DUP11 MULMOD SWAP9 POP DUP8 DUP10 DUP11 MULMOD SWAP9 POP DUP8 DUP10 DUP11 MULMOD SWAP9 POP DUP8 DUP10 DUP11 MULMOD SWAP9 POP DUP8 DUP10 DUP11 MULMOD SWAP9 POP DUP8 DUP10 DUP11 MULMOD SWAP9 POP DUP8 DUP10 DUP11 MULMOD SWAP9 POP DUP8 DUP10 DUP11 MULMOD SWAP9 POP DUP8 DUP3 DUP11 MULMOD SWAP9 POP DUP8 DUP10 DUP11 MULMOD SWAP9 POP DUP8 DUP10 DUP11 MULMOD SWAP9 POP DUP8 DUP10 DUP11 MULMOD SWAP9 POP DUP8 DUP10 DUP11 MULMOD SWAP9 POP DUP8 DUP7 DUP11 MULMOD SWAP9 POP DUP8 DUP10 DUP11 MULMOD SWAP9 POP DUP8 DUP10 DUP11 MULMOD SWAP9 POP DUP8 DUP10 DUP11 MULMOD SWAP9 POP DUP8 DUP10 DUP11 MULMOD SWAP9 POP DUP8 DUP10 DUP11 MULMOD SWAP9 POP DUP8 DUP4 DUP11 MULMOD SWAP9 POP DUP8 DUP10 DUP11 MULMOD SWAP9 POP DUP8 DUP10 DUP11 MULMOD SWAP9 POP DUP8 DUP10 DUP11 MULMOD SWAP9 POP DUP8 DUP10 DUP11 MULMOD SWAP9 POP DUP8 DUP10 DUP11 MULMOD SWAP9 POP DUP8 DUP10 DUP11 MULMOD SWAP9 POP DUP8 DUP10 DUP11 MULMOD SWAP9 POP DUP8 DUP3 DUP11 MULMOD SWAP9 POP DUP8 DUP10 DUP11 MULMOD SWAP9 POP DUP8 DUP10 DUP11 MULMOD SWAP9 POP DUP8 DUP11 DUP11 MULMOD SWAP9 POP DUP8 DUP10 DUP11 MULMOD SWAP9 POP DUP8 DUP10 DUP11 MULMOD SWAP9 POP DUP8 DUP10 DUP11 MULMOD SWAP9 POP DUP8 DUP10 DUP11 MULMOD SWAP9 POP DUP8 DUP10 DUP11 MULMOD SWAP9 POP DUP8 DUP10 DUP11 MULMOD SWAP9 POP DUP8 DUP10 DUP11 MULMOD SWAP9 POP DUP8 DUP5 DUP11 MULMOD SWAP9 POP DUP8 DUP10 DUP11 MULMOD SWAP9 POP DUP8 DUP10 DUP11 MULMOD SWAP9 POP DUP8 DUP10 DUP11 MULMOD SWAP9 POP DUP8 DUP10 DUP11 MULMOD SWAP9 POP DUP8 DUP10 DUP11 MULMOD SWAP9 POP DUP8 DUP10 DUP11 MULMOD SWAP9 POP DUP8 DUP5 DUP11 MULMOD SWAP9 POP DUP8 DUP10 DUP11 MULMOD SWAP9 POP DUP8 DUP10 DUP11 MULMOD SWAP9 POP DUP8 DUP10 DUP11 MULMOD SWAP9 POP DUP8 DUP10 DUP11 MULMOD SWAP9 POP DUP8 DUP10 DUP11 MULMOD SWAP9 POP DUP8 DUP7 DUP11 MULMOD SWAP9 POP DUP8 DUP10 DUP11 MULMOD SWAP9 POP DUP8 DUP10 DUP11 MULMOD SWAP9 POP DUP8 DUP11 DUP11 MULMOD SWAP9 POP DUP8 DUP10 DUP11 MULMOD SWAP9 POP DUP8 DUP10 DUP11 MULMOD SWAP9 POP DUP8 DUP10 DUP11 MULMOD SWAP9 POP DUP8 DUP10 DUP11 MULMOD SWAP9 POP DUP8 DUP10 DUP11 MULMOD SWAP9 POP DUP8 DUP10 DUP11 MULMOD SWAP9 POP DUP8 DUP10 DUP11 MULMOD SWAP9 POP DUP8 DUP2 DUP11 MULMOD SWAP9 POP DUP8 DUP10 DUP11 MULMOD SWAP9 POP DUP8 DUP10 DUP11 MULMOD SWAP9 POP DUP8 DUP10 DUP11 MULMOD SWAP9 POP DUP8 DUP10 DUP11 MULMOD SWAP9 POP DUP8 DUP10 DUP11 MULMOD SWAP9 POP DUP8 DUP10 DUP11 MULMOD SWAP9 POP DUP8 DUP6 DUP11 MULMOD SWAP9 POP DUP8 DUP10 DUP11 MULMOD SWAP9 POP DUP8 DUP10 DUP11 MULMOD SWAP9 POP DUP8 DUP10 DUP11 MULMOD SWAP9 POP DUP8 DUP10 DUP11 MULMOD SWAP9 POP DUP8 DUP10 DUP11 MULMOD SWAP9 POP DUP8 DUP11 DUP11 MULMOD SWAP9 POP DUP8 DUP10 DUP11 MULMOD SWAP9 POP DUP8 DUP10 DUP11 MULMOD SWAP9 POP DUP8 DUP10 DUP11 MULMOD SWAP9 POP DUP8 DUP10 DUP11 MULMOD SWAP9 POP DUP8 DUP10 DUP11 MULMOD SWAP9 POP DUP8 DUP10 DUP11 MULMOD SWAP9 POP DUP8 DUP11 DUP11 MULMOD SWAP9 POP DUP8 DUP10 DUP11 MULMOD SWAP9 POP DUP8 DUP10 DUP11 MULMOD SWAP9 POP DUP8 DUP10 DUP11 MULMOD SWAP9 POP DUP8 DUP10 DUP11 MULMOD SWAP9 POP DUP8 DUP10 DUP11 MULMOD SWAP9 POP DUP8 DUP8 DUP11 MULMOD SWAP9 POP DUP8 DUP10 DUP11 MULMOD SWAP9 POP DUP8 DUP10 DUP11 MULMOD SWAP9 POP DUP8 DUP10 DUP11 MULMOD SWAP9 POP DUP8 DUP10 DUP11 MULMOD SWAP9 POP DUP8 DUP10 DUP11 MULMOD SWAP9 POP DUP8 DUP10 DUP11 MULMOD SWAP9 POP DUP8 DUP10 DUP11 MULMOD SWAP9 POP DUP8 DUP10 DUP11 MULMOD SWAP9 POP DUP8 DUP10 DUP11 MULMOD SWAP9 POP DUP8 DUP3 DUP11 MULMOD SWAP9 POP DUP8 DUP10 DUP11 MULMOD SWAP9 POP DUP8 DUP10 DUP11 MULMOD SWAP9 POP DUP8 DUP10 DUP11 MULMOD SWAP9 POP DUP8 DUP8 DUP11 MULMOD SWAP9 POP DUP8 DUP10 DUP11 MULMOD SWAP9 POP DUP8 DUP10 DUP11 MULMOD SWAP9 POP DUP8 DUP10 DUP11 MULMOD SWAP9 POP DUP8 DUP8 DUP11 MULMOD SWAP9 POP DUP8 DUP10 DUP11 MULMOD SWAP9 POP DUP8 DUP10 DUP11 MULMOD SWAP9 POP DUP8 DUP10 DUP11 MULMOD SWAP9 POP DUP8 DUP10 DUP11 MULMOD SWAP9 POP DUP8 DUP10 DUP11 MULMOD SWAP9 POP DUP8 DUP10 DUP11 MULMOD SWAP9 POP DUP8 DUP10 DUP11 MULMOD SWAP9 POP DUP8 DUP10 DUP11 MULMOD SWAP9 POP DUP8 DUP6 DUP11 MULMOD SWAP9 POP DUP8 DUP10 DUP11 MULMOD SWAP9 POP DUP8 DUP10 DUP11 MULMOD SWAP9 POP DUP8 DUP10 DUP11 MULMOD SWAP9 POP DUP8 DUP10 DUP11 MULMOD SWAP9 POP DUP8 DUP4 DUP11 MULMOD SWAP9 POP DUP8 DUP10 DUP11 MULMOD SWAP9 POP DUP8 DUP10 DUP11 MULMOD SWAP9 POP DUP8 DUP10 DUP11 MULMOD SWAP9 POP DUP8 DUP10 DUP11 MULMOD SWAP9 POP DUP8 DUP6 DUP11 MULMOD SWAP9 POP DUP8 DUP10 DUP11 MULMOD SWAP9 POP DUP8 DUP10 DUP11 MULMOD SWAP9 POP DUP8 DUP10 DUP11 MULMOD SWAP9 POP DUP8 DUP7 DUP11 MULMOD SWAP9 POP DUP8 DUP10 DUP11 MULMOD SWAP9 POP DUP8 DUP10 DUP11 MULMOD SWAP9 POP DUP8 DUP10 DUP11 MULMOD SWAP9 POP DUP8 DUP10 DUP11 MULMOD SWAP9 POP DUP8 DUP10 DUP11 MULMOD SWAP9 POP DUP8 DUP4 DUP11 MULMOD SWAP9 POP DUP8 DUP10 DUP11 MULMOD SWAP9 POP POP POP POP POP POP POP POP POP SWAP2 SWAP1 POP JUMP JUMPDEST PUSH1 0x40 MLOAD DUP1 PUSH1 0x80 ADD PUSH1 0x40 MSTORE DUP1 PUSH1 0x4 SWAP1 PUSH1 0x20 DUP3 MUL DUP1 CALLDATASIZE DUP4 CALLDATACOPY DUP1 DUP3 ADD SWAP2 POP POP SWAP1 POP POP SWAP1 JUMP JUMPDEST PUSH1 0x40 MLOAD DUP1 PUSH1 0x40 ADD PUSH1 0x40 MSTORE DUP1 PUSH1 0x2 SWAP1 PUSH1 0x20 DUP3 MUL DUP1 CALLDATASIZE DUP4 CALLDATACOPY DUP1 DUP3 ADD SWAP2 POP POP SWAP1 POP POP SWAP1 JUMP JUMPDEST PUSH1 0x40 MLOAD DUP1 PUSH1 0x20 ADD PUSH1 0x40 MSTORE DUP1 PUSH1 0x1 SWAP1 PUSH1 0x20 DUP3 MUL DUP1 CALLDATASIZE DUP4 CALLDATACOPY DUP1 DUP3 ADD SWAP2 POP POP SWAP1 POP POP SWAP1 JUMP JUMPDEST PUSH1 0x0 DUP1 REVERT JUMPDEST PUSH1 0x0 DUP1 REVERT JUMPDEST PUSH1 0x0 DUP2 SWAP1 POP SWAP2 SWAP1 POP JUMP JUMPDEST PUSH2 0x284D DUP2 PUSH2 0x283A JUMP JUMPDEST DUP2 EQ PUSH2 0x2858 JUMPI PUSH1 0x0 DUP1 REVERT JUMPDEST POP JUMP JUMPDEST PUSH1 0x0 DUP2 CALLDATALOAD SWAP1 POP PUSH2 0x286A DUP2 PUSH2 0x2844 JUMP JUMPDEST SWAP3 SWAP2 POP POP JUMP JUMPDEST PUSH1 0x0 DUP1 REVERT JUMPDEST PUSH1 0x0 DUP1 REVERT JUMPDEST PUSH1 0x0 DUP1 REVERT JUMPDEST PUSH1 0x0 DUP1 DUP4 PUSH1 0x1F DUP5 ADD SLT PUSH2 0x2895 JUMPI PUSH2 0x2894 PUSH2 0x2870 JUMP JUMPDEST JUMPDEST DUP3 CALLDATALOAD SWAP1 POP PUSH8 0xFFFFFFFFFFFFFFFF DUP2 GT ISZERO PUSH2 0x28B2 JUMPI PUSH2 0x28B1 PUSH2 0x2875 JUMP JUMPDEST JUMPDEST PUSH1 0x20 DUP4 ADD SWAP2 POP DUP4 PUSH1 0x1 DUP3 MUL DUP4 ADD GT ISZERO PUSH2 0x28CE JUMPI PUSH2 0x28CD PUSH2 0x287A JUMP JUMPDEST JUMPDEST SWAP3 POP SWAP3 SWAP1 POP JUMP JUMPDEST PUSH1 0x0 DUP2 SWAP1 POP SWAP2 SWAP1 POP JUMP JUMPDEST PUSH2 0x28E8 DUP2 PUSH2 0x28D5 JUMP JUMPDEST DUP2 EQ PUSH2 0x28F3 JUMPI PUSH1 0x0 DUP1 REVERT JUMPDEST POP JUMP JUMPDEST PUSH1 0x0 DUP2 CALLDATALOAD SWAP1 POP PUSH2 0x2905 DUP2 PUSH2 0x28DF JUMP JUMPDEST SWAP3 SWAP2 POP POP JUMP JUMPDEST PUSH1 0x0 DUP1 PUSH1 0x0 DUP1 PUSH1 0x0 DUP1 PUSH1 0x80 DUP8 DUP10 SUB SLT ISZERO PUSH2 0x2928 JUMPI PUSH2 0x2927 PUSH2 0x2830 JUMP JUMPDEST JUMPDEST PUSH1 0x0 PUSH2 0x2936 DUP10 DUP3 DUP11 ADD PUSH2 0x285B JUMP JUMPDEST SWAP7 POP POP PUSH1 0x20 DUP8 ADD CALLDATALOAD PUSH8 0xFFFFFFFFFFFFFFFF DUP2 GT ISZERO PUSH2 0x2957 JUMPI PUSH2 0x2956 PUSH2 0x2835 JUMP JUMPDEST JUMPDEST PUSH2 0x2963 DUP10 DUP3 DUP11 ADD PUSH2 0x287F JUMP JUMPDEST SWAP6 POP SWAP6 POP POP PUSH1 0x40 PUSH2 0x2976 DUP10 DUP3 DUP11 ADD PUSH2 0x28F6 JUMP JUMPDEST SWAP4 POP POP PUSH1 0x60 DUP8 ADD CALLDATALOAD PUSH8 0xFFFFFFFFFFFFFFFF DUP2 GT ISZERO PUSH2 0x2997 JUMPI PUSH2 0x2996 PUSH2 0x2835 JUMP JUMPDEST JUMPDEST PUSH2 0x29A3 DUP10 DUP3 DUP11 ADD PUSH2 0x287F JUMP JUMPDEST SWAP3 POP SWAP3 POP POP SWAP3 SWAP6 POP SWAP3 SWAP6 POP SWAP3 SWAP6 JUMP JUMPDEST PUSH1 0x0 DUP1 PUSH1 0x40 DUP4 DUP6 SUB SLT ISZERO PUSH2 0x29C9 JUMPI PUSH2 0x29C8 PUSH2 0x2830 JUMP JUMPDEST JUMPDEST PUSH1 0x0 PUSH2 0x29D7 DUP6 DUP3 DUP7 ADD PUSH2 0x28F6 JUMP JUMPDEST SWAP3 POP POP PUSH1 0x20 PUSH2 0x29E8 DUP6 DUP3 DUP7 ADD PUSH2 0x28F6 JUMP JUMPDEST SWAP2 POP POP SWAP3 POP SWAP3 SWAP1 POP JUMP JUMPDEST PUSH2 0x29FB DUP2 PUSH2 0x28D5 JUMP JUMPDEST DUP3 MSTORE POP POP JUMP JUMPDEST PUSH1 0x0 PUSH1 0x20 DUP3 ADD SWAP1 POP PUSH2 0x2A16 PUSH1 0x0 DUP4 ADD DUP5 PUSH2 0x29F2 JUMP JUMPDEST SWAP3 SWAP2 POP POP JUMP JUMPDEST PUSH1 0x0 PUSH1 0x20 DUP3 DUP5 SUB SLT ISZERO PUSH2 0x2A32 JUMPI PUSH2 0x2A31 PUSH2 0x2830 JUMP JUMPDEST JUMPDEST PUSH1 0x0 PUSH2 0x2A40 DUP5 DUP3 DUP6 ADD PUSH2 0x285B JUMP JUMPDEST SWAP2 POP POP SWAP3 SWAP2 POP POP JUMP JUMPDEST PUSH2 0x2A52 DUP2 PUSH2 0x283A JUMP JUMPDEST DUP3 MSTORE POP POP JUMP JUMPDEST PUSH1 0x0 DUP2 MLOAD SWAP1 POP SWAP2 SWAP1 POP JUMP JUMPDEST PUSH1 0x0 DUP3 DUP3 MSTORE PUSH1 0x20 DUP3 ADD SWAP1 POP SWAP3 SWAP2 POP POP JUMP JUMPDEST PUSH1 0x0 JUMPDEST DUP4 DUP2 LT ISZERO PUSH2 0x2A92 JUMPI DUP1 DUP3 ADD MLOAD DUP2 DUP5 ADD MSTORE PUSH1 0x20 DUP2 ADD SWAP1 POP PUSH2 0x2A77 JUMP JUMPDEST PUSH1 0x0 DUP5 DUP5 ADD MSTORE POP POP POP POP JUMP JUMPDEST PUSH1 0x0 PUSH1 0x1F NOT PUSH1 0x1F DUP4 ADD AND SWAP1 POP SWAP2 SWAP1 POP JUMP JUMPDEST PUSH1 0x0 PUSH2 0x2ABA DUP3 PUSH2 0x2A58 JUMP JUMPDEST PUSH2 0x2AC4 DUP2 DUP6 PUSH2 0x2A63 JUMP JUMPDEST SWAP4 POP PUSH2 0x2AD4 DUP2 DUP6 PUSH1 0x20 DUP7 ADD PUSH2 0x2A74 JUMP JUMPDEST PUSH2 0x2ADD DUP2 PUSH2 0x2A9E JUMP JUMPDEST DUP5 ADD SWAP2 POP POP SWAP3 SWAP2 POP POP JUMP JUMPDEST PUSH1 0x0 PUSH1 0x80 DUP3 ADD SWAP1 POP PUSH2 0x2AFD PUSH1 0x0 DUP4 ADD DUP8 PUSH2 0x2A49 JUMP JUMPDEST DUP2 DUP2 SUB PUSH1 0x20 DUP4 ADD MSTORE PUSH2 0x2B0F DUP2 DUP7 PUSH2 0x2AAF JUMP JUMPDEST SWAP1 POP PUSH2 0x2B1E PUSH1 0x40 DUP4 ADD DUP6 PUSH2 0x29F2 JUMP JUMPDEST DUP2 DUP2 SUB PUSH1 0x60 DUP4 ADD MSTORE PUSH2 0x2B30 DUP2 DUP5 PUSH2 0x2AAF JUMP JUMPDEST SWAP1 POP SWAP6 SWAP5 POP POP POP POP POP JUMP JUMPDEST PUSH1 0x0 DUP2 SWAP1 POP DUP3 PUSH1 0x20 PUSH1 0x2 MUL DUP3 ADD GT ISZERO PUSH2 0x2B57 JUMPI PUSH2 0x2B56 PUSH2 0x287A JUMP JUMPDEST JUMPDEST SWAP3 SWAP2 POP POP JUMP JUMPDEST PUSH1 0x0 DUP1 DUP4 PUSH1 0x1F DUP5 ADD SLT PUSH2 0x2B73 JUMPI PUSH2 0x2B72 PUSH2 0x2870 JUMP JUMPDEST JUMPDEST DUP3 CALLDATALOAD SWAP1 POP PUSH8 0xFFFFFFFFFFFFFFFF DUP2 GT ISZERO PUSH2 0x2B90 JUMPI PUSH2 0x2B8F PUSH2 0x2875 JUMP JUMPDEST JUMPDEST PUSH1 0x20 DUP4 ADD SWAP2 POP DUP4 PUSH1 0x20 DUP3 MUL DUP4 ADD GT ISZERO PUSH2 0x2BAC JUMPI PUSH2 0x2BAB PUSH2 0x287A JUMP JUMPDEST JUMPDEST SWAP3 POP SWAP3 SWAP1 POP JUMP JUMPDEST PUSH1 0x0 DUP1 PUSH1 0x0 DUP1 PUSH1 0x0 DUP1 PUSH1 0xA0 DUP8 DUP10 SUB SLT ISZERO PUSH2 0x2BD0 JUMPI PUSH2 0x2BCF PUSH2 0x2830 JUMP JUMPDEST JUMPDEST PUSH1 0x0 PUSH2 0x2BDE DUP10 DUP3 DUP11 ADD PUSH2 0x2B3B JUMP JUMPDEST SWAP7 POP POP PUSH1 0x40 PUSH2 0x2BEF DUP10 DUP3 DUP11 ADD PUSH2 0x285B JUMP JUMPDEST SWAP6 POP POP PUSH1 0x60 DUP8 ADD CALLDATALOAD PUSH8 0xFFFFFFFFFFFFFFFF DUP2 GT ISZERO PUSH2 0x2C10 JUMPI PUSH2 0x2C0F PUSH2 0x2835 JUMP JUMPDEST JUMPDEST PUSH2 0x2C1C DUP10 DUP3 DUP11 ADD PUSH2 0x287F JUMP JUMPDEST SWAP5 POP SWAP5 POP POP PUSH1 0x80 DUP8 ADD CALLDATALOAD PUSH8 0xFFFFFFFFFFFFFFFF DUP2 GT ISZERO PUSH2 0x2C3F JUMPI PUSH2 0x2C3E PUSH2 0x2835 JUMP JUMPDEST JUMPDEST PUSH2 0x2C4B DUP10 DUP3 DUP11 ADD PUSH2 0x2B5D JUMP JUMPDEST SWAP3 POP SWAP3 POP POP SWAP3 SWAP6 POP SWAP3 SWAP6 POP SWAP3 SWAP6 JUMP JUMPDEST PUSH32 0x4441433A207A65726F2064617461486173680000000000000000000000000000 PUSH1 0x0 DUP3 ADD MSTORE POP JUMP JUMPDEST PUSH1 0x0 PUSH2 0x2C90 PUSH1 0x12 DUP4 PUSH2 0x2A63 JUMP JUMPDEST SWAP2 POP PUSH2 0x2C9B DUP3 PUSH2 0x2C5A JUMP JUMPDEST PUSH1 0x20 DUP3 ADD SWAP1 POP SWAP2 SWAP1 POP JUMP JUMPDEST PUSH1 0x0 PUSH1 0x20 DUP3 ADD SWAP1 POP DUP2 DUP2 SUB PUSH1 0x0 DUP4 ADD MSTORE PUSH2 0x2CBF DUP2 PUSH2 0x2C83 JUMP JUMPDEST SWAP1 POP SWAP2 SWAP1 POP JUMP JUMPDEST PUSH32 0x4441433A20656D70747920434944000000000000000000000000000000000000 PUSH1 0x0 DUP3 ADD MSTORE POP JUMP JUMPDEST PUSH1 0x0 PUSH2 0x2CFC PUSH1 0xE DUP4 PUSH2 0x2A63 JUMP JUMPDEST SWAP2 POP PUSH2 0x2D07 DUP3 PUSH2 0x2CC6 JUMP JUMPDEST PUSH1 0x20 DUP3 ADD SWAP1 POP SWAP2 SWAP1 POP JUMP JUMPDEST PUSH1 0x0 PUSH1 0x20 DUP3 ADD SWAP1 POP DUP2 DUP2 SUB PUSH1 0x0 DUP4 ADD MSTORE PUSH2 0x2D2B DUP2 PUSH2 0x2CEF JUMP JUMPDEST SWAP1 POP SWAP2 SWAP1 POP JUMP JUMPDEST PUSH32 0x4441433A20657870697279206D75737420626520667574757265000000000000 PUSH1 0x0 DUP3 ADD MSTORE POP JUMP JUMPDEST PUSH1 0x0 PUSH2 0x2D68 PUSH1 0x1A DUP4 PUSH2 0x2A63 JUMP JUMPDEST SWAP2 POP PUSH2 0x2D73 DUP3 PUSH2 0x2D32 JUMP JUMPDEST PUSH1 0x20 DUP3 ADD SWAP1 POP SWAP2 SWAP1 POP JUMP JUMPDEST PUSH1 0x0 PUSH1 0x20 DUP3 ADD SWAP1 POP DUP2 DUP2 SUB PUSH1 0x0 DUP4 ADD MSTORE PUSH2 0x2D97 DUP2 PUSH2 0x2D5B JUMP JUMPDEST SWAP1 POP SWAP2 SWAP1 POP JUMP JUMPDEST PUSH32 0x4441433A20616C726561647920616E63686F7265640000000000000000000000 PUSH1 0x0 DUP3 ADD MSTORE POP JUMP JUMPDEST PUSH1 0x0 PUSH2 0x2DD4 PUSH1 0x15 DUP4 PUSH2 0x2A63 JUMP JUMPDEST SWAP2 POP PUSH2 0x2DDF DUP3 PUSH2 0x2D9E JUMP JUMPDEST PUSH1 0x20 DUP3 ADD SWAP1 POP SWAP2 SWAP1 POP JUMP JUMPDEST PUSH1 0x0 PUSH1 0x20 DUP3 ADD SWAP1 POP DUP2 DUP2 SUB PUSH1 0x0 DUP4 ADD MSTORE PUSH2 0x2E03 DUP2 PUSH2 0x2DC7 JUMP JUMPDEST SWAP1 POP SWAP2 SWAP1 POP JUMP JUMPDEST PUSH1 0x0 DUP3 SWAP1 POP SWAP3 SWAP2 POP POP JUMP JUMPDEST PUSH32 0x4E487B7100000000000000000000000000000000000000000000000000000000 PUSH1 0x0 MSTORE PUSH1 0x41 PUSH1 0x4 MSTORE PUSH1 0x24 PUSH1 0x0 REVERT JUMPDEST PUSH32 0x4E487B7100000000000000000000000000000000000000000000000000000000 PUSH1 0x0 MSTORE PUSH1 0x22 PUSH1 0x4 MSTORE PUSH1 0x24 PUSH1 0x0 REVERT JUMPDEST PUSH1 0x0 PUSH1 0x2 DUP3 DIV SWAP1 POP PUSH1 0x1 DUP3 AND DUP1 PUSH2 0x2E8B JUMPI PUSH1 0x7F DUP3 AND SWAP2 POP JUMPDEST PUSH1 0x20 DUP3 LT DUP2 SUB PUSH2 0x2E9E JUMPI PUSH2 0x2E9D PUSH2 0x2E44 JUMP JUMPDEST JUMPDEST POP SWAP2 SWAP1 POP JUMP JUMPDEST PUSH1 0x0 DUP2 SWAP1 POP DUP2 PUSH1 0x0 MSTORE PUSH1 0x20 PUSH1 0x0 KECCAK256 SWAP1 POP SWAP2 SWAP1 POP JUMP JUMPDEST PUSH1 0x0 PUSH1 0x20 PUSH1 0x1F DUP4 ADD DIV SWAP1 POP SWAP2 SWAP1 POP JUMP JUMPDEST PUSH1 0x0 DUP3 DUP3 SHL SWAP1 POP SWAP3 SWAP2 POP POP JUMP JUMPDEST PUSH1 0x0 PUSH1 0x8 DUP4 MUL PUSH2 0x2F06 PUSH32 0xFFFFFFFFFFFFFFFFFFFFFFFFFFFFFFFFFFFFFFFFFFFFFFFFFFFFFFFFFFFFFFFF DUP3 PUSH2 0x2EC9 JUMP JUMPDEST PUSH2 0x2F10 DUP7 DUP4 PUSH2 0x2EC9 JUMP JUMPDEST SWAP6 POP DUP1 NOT DUP5 AND SWAP4 POP DUP1 DUP7 AND DUP5 OR SWAP3 POP POP POP SWAP4 SWAP3 POP POP POP JUMP JUMPDEST PUSH1 0x0 DUP2 SWAP1 POP SWAP2 SWAP1 POP JUMP JUMPDEST PUSH1 0x0 PUSH2 0x2F4D PUSH2 0x2F48 PUSH2 0x2F43 DUP5 PUSH2 0x28D5 JUMP JUMPDEST PUSH2 0x2F28 JUMP JUMPDEST PUSH2 0x28D5 JUMP JUMPDEST SWAP1 POP SWAP2 SWAP1 POP JUMP JUMPDEST PUSH1 0x0 DUP2 SWAP1 POP SWAP2 SWAP1 POP JUMP JUMPDEST PUSH2 0x2F67 DUP4 PUSH2 0x2F32 JUMP JUMPDEST PUSH2 0x2F7B PUSH2 0x2F73 DUP3 PUSH2 0x2F54 JUMP JUMPDEST DUP5 DUP5 SLOAD PUSH2 0x2ED6 JUMP JUMPDEST DUP3 SSTORE POP POP POP POP JUMP JUMPDEST PUSH1 0x0 SWAP1 JUMP JUMPDEST PUSH2 0x2F90 PUSH2 0x2F83 JUMP JUMPDEST PUSH2 0x2F9B DUP2 DUP5 DUP5 PUSH2 0x2F5E JUMP JUMPDEST POP POP POP JUMP JUMPDEST JUMPDEST DUP2 DUP2 LT ISZERO PUSH2 0x2FBF JUMPI PUSH2 0x2FB4 PUSH1 0x0 DUP3 PUSH2 0x2F88 JUMP JUMPDEST PUSH1 0x1 DUP2 ADD SWAP1 POP PUSH2 0x2FA1 JUMP JUMPDEST POP POP JUMP JUMPDEST PUSH1 0x1F DUP3 GT ISZERO PUSH2 0x3004 JUMPI PUSH2 0x2FD5 DUP2 PUSH2 0x2EA4 JUMP JUMPDEST PUSH2 0x2FDE DUP5 PUSH2 0x2EB9 JUMP JUMPDEST DUP2 ADD PUSH1 0x20 DUP6 LT ISZERO PUSH2 0x2FED JUMPI DUP2 SWAP1 POP JUMPDEST PUSH2 0x3001 PUSH2 0x2FF9 DUP6 PUSH2 0x2EB9 JUMP JUMPDEST DUP4 ADD DUP3 PUSH2 0x2FA0 JUMP JUMPDEST POP POP JUMPDEST POP POP POP JUMP JUMPDEST PUSH1 0x0 DUP3 DUP3 SHR SWAP1 POP SWAP3 SWAP2 POP POP JUMP JUMPDEST PUSH1 0x0 PUSH2 0x3027 PUSH1 0x0 NOT DUP5 PUSH1 0x8 MUL PUSH2 0x3009 JUMP JUMPDEST NOT DUP1 DUP4 AND SWAP2 POP POP SWAP3 SWAP2 POP POP JUMP JUMPDEST PUSH1 0x0 PUSH2 0x3040 DUP4 DUP4 PUSH2 0x3016 JUMP JUMPDEST SWAP2 POP DUP3 PUSH1 0x2 MUL DUP3 OR SWAP1 POP SWAP3 SWAP2 POP POP JUMP JUMPDEST PUSH2 0x305A DUP4 DUP4 PUSH2 0x2E0A JUMP JUMPDEST PUSH8 0xFFFFFFFFFFFFFFFF DUP2 GT ISZERO PUSH2 0x3073 JUMPI PUSH2 0x3072 PUSH2 0x2E15 JUMP JUMPDEST JUMPDEST PUSH2 0x307D DUP3 SLOAD PUSH2 0x2E73 JUMP JUMPDEST PUSH2 0x3088 DUP3 DUP3 DUP6 PUSH2 0x2FC3 JUMP JUMPDEST PUSH1 0x0 PUSH1 0x1F DUP4 GT PUSH1 0x1 DUP2 EQ PUSH2 0x30B7 JUMPI PUSH1 0x0 DUP5 ISZERO PUSH2 0x30A5 JUMPI DUP3 DUP8 ADD CALLDATALOAD SWAP1 POP JUMPDEST PUSH2 0x30AF DUP6 DUP3 PUSH2 0x3034 JUMP JUMPDEST DUP7 SSTORE POP PUSH2 0x3117 JUMP JUMPDEST PUSH1 0x1F NOT DUP5 AND PUSH2 0x30C5 DUP7 PUSH2 0x2EA4 JUMP JUMPDEST PUSH1 0x0 JUMPDEST DUP3 DUP2 LT ISZERO PUSH2 0x30ED JUMPI DUP5 DUP10 ADD CALLDATALOAD DUP3 SSTORE PUSH1 0x1 DUP3 ADD SWAP2 POP PUSH1 0x20 DUP6 ADD SWAP5 POP PUSH1 0x20 DUP2 ADD SWAP1 POP PUSH2 0x30C8 JUMP JUMPDEST DUP7 DUP4 LT ISZERO PUSH2 0x310A JUMPI DUP5 DUP10 ADD CALLDATALOAD PUSH2 0x3106 PUSH1 0x1F DUP10 AND DUP3 PUSH2 0x3016 JUMP JUMPDEST DUP4 SSTORE POP JUMPDEST PUSH1 0x1 PUSH1 0x2 DUP9 MUL ADD DUP9 SSTORE POP POP POP JUMPDEST POP POP POP POP POP POP POP JUMP JUMPDEST DUP3 DUP2 DUP4 CALLDATACOPY PUSH1 0x0 DUP4 DUP4 ADD MSTORE POP POP POP JUMP JUMPDEST PUSH1 0x0 PUSH2 0x313B DUP4 DUP6 PUSH2 0x2A63 JUMP JUMPDEST SWAP4 POP PUSH2 0x3148 DUP4 DUP6 DUP5 PUSH2 0x3120 JUMP JUMPDEST PUSH2 0x3151 DUP4 PUSH2 0x2A9E JUMP JUMPDEST DUP5 ADD SWAP1 POP SWAP4 SWAP3 POP POP POP JUMP JUMPDEST PUSH1 0x0 PUSH1 0x60 DUP3 ADD SWAP1 POP DUP2 DUP2 SUB PUSH1 0x0 DUP4 ADD MSTORE PUSH2 0x3177 DUP2 DUP8 DUP10 PUSH2 0x312F JUMP JUMPDEST SWAP1 POP PUSH2 0x3186 PUSH1 0x20 DUP4 ADD DUP7 PUSH2 0x29F2 JUMP JUMPDEST DUP2 DUP2 SUB PUSH1 0x40 DUP4 ADD MSTORE PUSH2 0x3199 DUP2 DUP5 DUP7 PUSH2 0x312F JUMP JUMPDEST SWAP1 POP SWAP7 SWAP6 POP POP POP POP POP POP JUMP JUMPDEST PUSH32 0x4441433A206E6F7420616E63686F726564000000000000000000000000000000 PUSH1 0x0 DUP3 ADD MSTORE POP JUMP JUMPDEST PUSH1 0x0 PUSH2 0x31DB PUSH1 0x11 DUP4 PUSH2 0x2A63 JUMP JUMPDEST SWAP2 POP PUSH2 0x31E6 DUP3 PUSH2 0x31A5 JUMP JUMPDEST PUSH1 0x20 DUP3 ADD SWAP1 POP SWAP2 SWAP1 POP JUMP JUMPDEST PUSH1 0x0 PUSH1 0x20 DUP3 ADD SWAP1 POP DUP2 DUP2 SUB PUSH1 0x0 DUP4 ADD MSTORE PUSH2 0x320A DUP2 PUSH2 0x31CE JUMP JUMPDEST SWAP1 POP SWAP2 SWAP1 POP JUMP JUMPDEST PUSH1 0x0 DUP2 SWAP1 POP SWAP2 SWAP1 POP JUMP JUMPDEST PUSH2 0x322C PUSH2 0x3227 DUP3 PUSH2 0x283A JUMP JUMPDEST PUSH2 0x3211 JUMP JUMPDEST DUP3 MSTORE POP POP JUMP JUMPDEST PUSH1 0x0 DUP2 MLOAD SWAP1 POP SWAP2 SWAP1 POP JUMP JUMPDEST PUSH1 0x0 DUP2 SWAP1 POP SWAP3 SWAP2 POP POP JUMP JUMPDEST PUSH1 0x0 PUSH2 0x3253 DUP3 PUSH2 0x3232 JUMP JUMPDEST PUSH2 0x325D DUP2 DUP6 PUSH2 0x323D JUMP JUMPDEST SWAP4 POP PUSH2 0x326D DUP2 DUP6 PUSH1 0x20 DUP7 ADD PUSH2 0x2A74 JUMP JUMPDEST DUP1 DUP5 ADD SWAP2 POP POP SWAP3 SWAP2 POP POP JUMP JUMPDEST PUSH1 0x0 PUSH2 0x3285 DUP4 DUP6 PUSH2 0x323D JUMP JUMPDEST SWAP4 POP PUSH2 0x3292 DUP4 DUP6 DUP5 PUSH2 0x3120 JUMP JUMPDEST DUP3 DUP5 ADD SWAP1 POP SWAP4 SWAP3 POP POP POP JUMP JUMPDEST PUSH1 0x0 PUSH2 0x32AA DUP3 DUP8 PUSH2 0x321B JUMP JUMPDEST PUSH1 0x20 DUP3 ADD SWAP2 POP PUSH2 0x32BA DUP3 DUP7 PUSH2 0x3248 JUMP JUMPDEST SWAP2 POP PUSH2 0x32C7 DUP3 DUP5 DUP7 PUSH2 0x3279 JUMP JUMPDEST SWAP2 POP DUP2 SWAP1 POP SWAP6 SWAP5 POP POP POP POP POP JUMP JUMPDEST PUSH32 0x4E487B7100000000000000000000000000000000000000000000000000000000 PUSH1 0x0 MSTORE PUSH1 0x32 PUSH1 0x4 MSTORE PUSH1 0x24 PUSH1 0x0 REVERT JUMPDEST PUSH32 0x4441433A20424C5320766572696679206661696C656400000000000000000000 PUSH1 0x0 DUP3 ADD MSTORE POP JUMP JUMPDEST PUSH1 0x0 PUSH2 0x333A PUSH1 0x16 DUP4 PUSH2 0x2A63 JUMP JUMPDEST SWAP2 POP PUSH2 0x3345 DUP3 PUSH2 0x3304 JUMP JUMPDEST PUSH1 0x20 DUP3 ADD SWAP1 POP SWAP2 SWAP1 POP JUMP JUMPDEST PUSH1 0x0 PUSH1 0x20 DUP3 ADD SWAP1 POP DUP2 DUP2 SUB PUSH1 0x0 DUP4 ADD MSTORE PUSH2 0x3369 DUP2 PUSH2 0x332D JUMP JUMPDEST SWAP1 POP SWAP2 SWAP1 POP JUMP JUMPDEST PUSH1 0x0 DUP2 SWAP1 POP SWAP3 SWAP2 POP POP JUMP JUMPDEST PUSH1 0x0 PUSH2 0x3387 DUP4 DUP6 PUSH2 0x3370 JUMP JUMPDEST SWAP4 POP PUSH2 0x3394 DUP4 DUP6 DUP5 PUSH2 0x3120 JUMP JUMPDEST DUP3 DUP5 ADD SWAP1 POP SWAP4 SWAP3 POP POP POP JUMP JUMPDEST PUSH32 0x5F76657269666965640000000000000000000000000000000000000000000000 PUSH1 0x0 DUP3 ADD MSTORE POP JUMP JUMPDEST PUSH1 0x0 PUSH2 0x33D6 PUSH1 0x9 DUP4 PUSH2 0x3370 JUMP JUMPDEST SWAP2 POP PUSH2 0x33E1 DUP3 PUSH2 0x33A0 JUMP JUMPDEST PUSH1 0x9 DUP3 ADD SWAP1 POP SWAP2 SWAP1 POP JUMP JUMPDEST PUSH1 0x0 PUSH2 0x33F9 DUP3 DUP5 DUP7 PUSH2 0x337B JUMP JUMPDEST SWAP2 POP PUSH2 0x3404 DUP3 PUSH2 0x33C9 JUMP JUMPDEST SWAP2 POP DUP2 SWAP1 POP SWAP4 SWAP3 POP POP POP JUMP JUMPDEST PUSH2 0x3419 DUP3 PUSH2 0x2A58 JUMP JUMPDEST PUSH8 0xFFFFFFFFFFFFFFFF DUP2 GT ISZERO PUSH2 0x3432 JUMPI PUSH2 0x3431 PUSH2 0x2E15 JUMP JUMPDEST JUMPDEST PUSH2 0x343C DUP3 SLOAD PUSH2 0x2E73 JUMP JUMPDEST PUSH2 0x3447 DUP3 DUP3 DUP6 PUSH2 0x2FC3 JUMP JUMPDEST PUSH1 0x0 PUSH1 0x20 SWAP1 POP PUSH1 0x1F DUP4 GT PUSH1 0x1 DUP2 EQ PUSH2 0x347A JUMPI PUSH1 0x0 DUP5 ISZERO PUSH2 0x3468 JUMPI DUP3 DUP8 ADD MLOAD SWAP1 POP JUMPDEST PUSH2 0x3472 DUP6 DUP3 PUSH2 0x3034 JUMP JUMPDEST DUP7 SSTORE POP PUSH2 0x34DA JUMP JUMPDEST PUSH1 0x1F NOT DUP5 AND PUSH2 0x3488 DUP7 PUSH2 0x2EA4 JUMP JUMPDEST PUSH1 0x0 JUMPDEST DUP3 DUP2 LT ISZERO PUSH2 0x34B0 JUMPI DUP5 DUP10 ADD MLOAD DUP3 SSTORE PUSH1 0x1 DUP3 ADD SWAP2 POP PUSH1 0x20 DUP6 ADD SWAP5 POP PUSH1 0x20 DUP2 ADD SWAP1 POP PUSH2 0x348B JUMP JUMPDEST DUP7 DUP4 LT ISZERO PUSH2 0x34CD JUMPI DUP5 DUP10 ADD MLOAD PUSH2 0x34C9 PUSH1 0x1F DUP10 AND DUP3 PUSH2 0x3016 JUMP JUMPDEST DUP4 SSTORE POP JUMPDEST PUSH1 0x1 PUSH1 0x2 DUP9 MUL ADD DUP9 SSTORE POP POP POP JUMPDEST POP POP POP POP POP POP JUMP JUMPDEST PUSH1 0x0 PUSH1 0x20 DUP3 ADD SWAP1 POP DUP2 DUP2 SUB PUSH1 0x0 DUP4 ADD MSTORE PUSH2 0x34FC DUP2 DUP5 PUSH2 0x2AAF JUMP JUMPDEST SWAP1 POP SWAP3 SWAP2 POP POP JUMP JUMPDEST PUSH1 0x0 PUSH1 0x4 SWAP1 POP SWAP2 SWAP1 POP JUMP JUMPDEST PUSH1 0x0 DUP2 SWAP1 POP SWAP3 SWAP2 POP POP JUMP JUMPDEST PUSH1 0x0 DUP2 SWAP1 POP SWAP2 SWAP1 POP JUMP JUMPDEST PUSH2 0x352D DUP2 PUSH2 0x28D5 JUMP JUMPDEST DUP3 MSTORE POP POP JUMP JUMPDEST PUSH1 0x0 PUSH2 0x353F DUP4 DUP4 PUSH2 0x3524 JUMP JUMPDEST PUSH1 0x20 DUP4 ADD SWAP1 POP SWAP3 SWAP2 POP POP JUMP JUMPDEST PUSH1 0x0 PUSH1 0x20 DUP3 ADD SWAP1 POP SWAP2 SWAP1 POP JUMP JUMPDEST PUSH2 0x3561 DUP2 PUSH2 0x3504 JUMP JUMPDEST PUSH2 0x356B DUP2 DUP5 PUSH2 0x350F JUMP JUMPDEST SWAP3 POP PUSH2 0x3576 DUP3 PUSH2 0x351A JUMP JUMPDEST DUP1 PUSH1 0x0 JUMPDEST DUP4 DUP2 LT ISZERO PUSH2 0x35A7 JUMPI DUP2 MLOAD PUSH2 0x358E DUP8 DUP3 PUSH2 0x3533 JUMP JUMPDEST SWAP7 POP PUSH2 0x3599 DUP4 PUSH2 0x354B JUMP JUMPDEST SWAP3 POP POP PUSH1 0x1 DUP2 ADD SWAP1 POP PUSH2 0x357A JUMP JUMPDEST POP POP POP POP POP POP JUMP JUMPDEST PUSH1 0x0 PUSH1 0x80 DUP3 ADD SWAP1 POP PUSH2 0x35C4 PUSH1 0x0 DUP4 ADD DUP5 PUSH2 0x3558 JUMP JUMPDEST SWAP3 SWAP2 POP POP JUMP JUMPDEST PUSH32 0x424C533A20473220616464206661696C65640000000000000000000000000000 PUSH1 0x0 DUP3 ADD MSTORE POP JUMP JUMPDEST PUSH1 0x0 PUSH2 0x3600 PUSH1 0x12 DUP4 PUSH2 0x2A63 JUMP JUMPDEST SWAP2 POP PUSH2 0x360B DUP3 PUSH2 0x35CA JUMP JUMPDEST PUSH1 0x20 DUP3 ADD SWAP1 POP SWAP2 SWAP1 POP JUMP JUMPDEST PUSH1 0x0 PUSH1 0x20 DUP3 ADD SWAP1 POP DUP2 DUP2 SUB PUSH1 0x0 DUP4 ADD MSTORE PUSH2 0x362F DUP2 PUSH2 0x35F3 JUMP JUMPDEST SWAP1 POP SWAP2 SWAP1 POP JUMP JUMPDEST PUSH32 0x4E487B7100000000000000000000000000000000000000000000000000000000 PUSH1 0x0 MSTORE PUSH1 0x12 PUSH1 0x4 MSTORE PUSH1 0x24 PUSH1 0x0 REVERT JUMPDEST PUSH32 0x4E487B7100000000000000000000000000000000000000000000000000000000 PUSH1 0x0 MSTORE PUSH1 0x11 PUSH1 0x4 MSTORE PUSH1 0x24 PUSH1 0x0 REVERT JUMPDEST PUSH1 0x0 PUSH2 0x369F DUP3 PUSH2 0x28D5 JUMP JUMPDEST SWAP2 POP PUSH2 0x36AA DUP4 PUSH2 0x28D5 JUMP JUMPDEST SWAP3 POP DUP3 DUP3 SUB SWAP1 POP DUP2 DUP2 GT ISZERO PUSH2 0x36C2 JUMPI PUSH2 0x36C1 PUSH2 0x3665 JUMP JUMPDEST JUMPDEST SWAP3 SWAP2 POP POP JUMP JUMPDEST PUSH1 0x0 DUP3 DUP3 MSTORE PUSH1 0x20 DUP3 ADD SWAP1 POP SWAP3 SWAP2 POP POP JUMP JUMPDEST PUSH1 0x0 PUSH2 0x36E4 DUP3 PUSH2 0x3232 JUMP JUMPDEST PUSH2 0x36EE DUP2 DUP6 PUSH2 0x36C8 JUMP JUMPDEST SWAP4 POP PUSH2 0x36FE DUP2 DUP6 PUSH1 0x20 DUP7 ADD PUSH2 0x2A74 JUMP JUMPDEST PUSH2 0x3707 DUP2 PUSH2 0x2A9E JUMP JUMPDEST DUP5 ADD SWAP2 POP POP SWAP3 SWAP2 POP POP JUMP JUMPDEST PUSH1 0x0 PUSH1 0x20 DUP3 ADD SWAP1 POP DUP2 DUP2 SUB PUSH1 0x0 DUP4 ADD MSTORE PUSH2 0x372C DUP2 DUP5 PUSH2 0x36D9 JUMP JUMPDEST SWAP1 POP SWAP3 SWAP2 POP POP JUMP JUMPDEST PUSH1 0x0 PUSH1 0xFF DUP3 AND SWAP1 POP SWAP2 SWAP1 POP JUMP JUMPDEST PUSH1 0x0 DUP2 PUSH1 0xF8 SHL SWAP1 POP SWAP2 SWAP1 POP JUMP JUMPDEST PUSH1 0x0 PUSH2 0x3759 DUP3 PUSH2 0x3741 JUMP JUMPDEST SWAP1 POP SWAP2 SWAP1 POP JUMP JUMPDEST PUSH2 0x3771 PUSH2 0x376C DUP3 PUSH2 0x3734 JUMP JUMPDEST PUSH2 0x374E JUMP JUMPDEST DUP3 MSTORE POP POP JUMP JUMPDEST PUSH1 0x0 PUSH2 0x3783 DUP3 DUP11 PUSH2 0x3248 JUMP JUMPDEST SWAP2 POP PUSH2 0x378F DUP3 DUP10 PUSH2 0x3248 JUMP JUMPDEST SWAP2 POP PUSH2 0x379B DUP3 DUP9 PUSH2 0x3760 JUMP JUMPDEST PUSH1 0x1 DUP3 ADD SWAP2 POP PUSH2 0x37AB DUP3 DUP8 PUSH2 0x3760 JUMP JUMPDEST PUSH1 0x1 DUP3 ADD SWAP2 POP PUSH2 0x37BB DUP3 DUP7 PUSH2 0x3760 JUMP JUMPDEST PUSH1 0x1 DUP3 ADD SWAP2 POP PUSH2 0x37CB DUP3 DUP6 PUSH2 0x3248 JUMP JUMPDEST SWAP2 POP PUSH2 0x37D7 DUP3 DUP5 PUSH2 0x3760 JUMP JUMPDEST PUSH1 0x1 DUP3 ADD SWAP2 POP DUP2 SWAP1 POP SWAP9 SWAP8 POP POP POP POP POP POP POP POP JUMP JUMPDEST PUSH1 0x0 PUSH2 0x37F8 DUP3 DUP8 PUSH2 0x321B JUMP JUMPDEST PUSH1 0x20 DUP3 ADD SWAP2 POP PUSH2 0x3808 DUP3 DUP7 PUSH2 0x3760 JUMP JUMPDEST PUSH1 0x1 DUP3 ADD SWAP2 POP PUSH2 0x3818 DUP3 DUP6 PUSH2 0x3248 JUMP JUMPDEST SWAP2 POP PUSH2 0x3824 DUP3 DUP5 PUSH2 0x3760 JUMP JUMPDEST PUSH1 0x1 DUP3 ADD SWAP2 POP DUP2 SWAP1 POP SWAP6 SWAP5 POP POP POP POP POP JUMP JUMPDEST PUSH1 0x0 PUSH2 0x3841 DUP3 PUSH2 0x28D5 JUMP JUMPDEST SWAP2 POP PUSH2 0x384C DUP4 PUSH2 0x28D5 JUMP JUMPDEST SWAP3 POP DUP3 DUP3 ADD SWAP1 POP DUP1 DUP3 GT ISZERO PUSH2 0x3864 JUMPI PUSH2 0x3863 PUSH2 0x3665 JUMP JUMPDEST JUMPDEST SWAP3 SWAP2 POP POP JUMP JUMPDEST PUSH1 0x0 PUSH2 0x3875 DUP3 PUSH2 0x28D5 JUMP JUMPDEST SWAP2 POP PUSH2 0x3880 DUP4 PUSH2 0x28D5 JUMP JUMPDEST SWAP3 POP DUP3 PUSH2 0x3890 JUMPI PUSH2 0x388F PUSH2 0x3636 JUMP JUMPDEST JUMPDEST DUP3 DUP3 MOD SWAP1 POP SWAP3 SWAP2 POP POP JUMP JUMPDEST PUSH1 0x0 PUSH1 0x60 DUP3 ADD SWAP1 POP PUSH2 0x38B0 PUSH1 0x0 DUP4 ADD DUP7 PUSH2 0x29F2 JUMP JUMPDEST PUSH2 0x38BD PUSH1 0x20 DUP4 ADD DUP6 PUSH2 0x29F2 JUMP JUMPDEST PUSH2 0x38CA PUSH1 0x40 DUP4 ADD DUP5 PUSH2 0x29F2 JUMP JUMPDEST SWAP5 SWAP4 POP POP POP POP JUMP INVALID LOG2 PUSH5 0x6970667358 0x22 SLT KECCAK256 CREATE2 PUSH28 0xE2E5445E0582798EF7C47CDE0B659CD2C1E8800311BC45D19DCBA663 0xA7 0xD6 PUSH5 0x736F6C6343 STOP ADDMOD SHR STOP CALLER "},"methodIdentifiers":{"anchor(bytes32,string,uint256,string)":"3850ed51","blsPubKeys(uint256,uint256)":"4de5fa0c","get(bytes32)":"8eaa6ac0","update(uint256[2],bytes32,string,string[])":"e3dfeffc"}}}}}