{"contracts/lib/TemporalPolicyLogic.sol":{"TemporalPolicyLogic":{"abi":[{"inputs":[{"components":[{"internalType":"uint256","name":"validAfter","type":"uint256"},{"internalType":"uint256","name":"validBefore","type":"uint256"},{"internalType":"uint32","name":"dailyStart","type":"uint32"},{"internalType":"uint32","name":"dailyEnd","type":"uint32"}],"internalType":"struct TemporalPolicyLogic.TemporalParams","name":"params","type":"tuple"}],"name":"evaluate","outputs":[{"internalType":"bool","name":"granted","type":"bool"}],"stateMutability":"view","type":"function"}],"evm":{"bytecode":{"linkReferences":{},"object":"6102ce610052600b82828239805160001a6073146045577f4e487b7100000000000000000000000000000000000000000000000000000000600052600060045260246000fd5b30600052607381538281f3fe73000000000000000000000000000000000000000030146080604052600436106100355760003560e01c806328f0ed181461003a575b600080fd5b610054600480360381019061004f9190610162565b61006a565b60405161006191906101aa565b60405180910390f35b60008042905082600001358110806100855750826020013581115b15610094576000915050610134565b8260400160208101906100a79190610201565b63ffffffff168360600160208101906100c09190610201565b63ffffffff16111561012e57600062015180826100dd9190610267565b90508360400160208101906100f29190610201565b63ffffffff1681108061011c57508360600160208101906101139190610201565b63ffffffff1681115b1561012c57600092505050610134565b505b60019150505b919050565b600080fd5b600080fd5b6000608082840312156101595761015861013e565b5b81905092915050565b60006080828403121561017857610177610139565b5b600061018684828501610143565b91505092915050565b60008115159050919050565b6101a48161018f565b82525050565b60006020820190506101bf600083018461019b565b92915050565b600063ffffffff82169050919050565b6101de816101c5565b81146101e957600080fd5b50565b6000813590506101fb816101d5565b92915050565b60006020828403121561021757610216610139565b5b6000610225848285016101ec565b91505092915050565b6000819050919050565b7f4e487b7100000000000000000000000000000000000000000000000000000000600052601260045260246000fd5b60006102728261022e565b915061027d8361022e565b92508261028d5761028c610238565b5b82820690509291505056fea2646970667358221220fbeaf46d204381000f5f454c0d0ae7e1deee2f5e7167f4876acc2ec7b1c1fef664736f6c634300081c0033","opcodes":"PUSH2 0x2CE PUSH2 0x52 PUSH1 0xB DUP3 DUP3 DUP3 CODECOPY DUP1 MLOAD PUSH1 0x0 BYTE PUSH1 0x73 EQ PUSH1 0x45 JUMPI PUSH32 0x4E487B7100000000000000000000000000000000000000000000000000000000 PUSH1 0x0 MSTORE PUSH1 0x0 PUSH1 0x4 MSTORE PUSH1 0x24 PUSH1 0x0 REVERT JUMPDEST ADDRESS PUSH1 0x0 MSTORE PUSH1 0x73 DUP2 MSTORE8 DUP3 DUP2 RETURN INVALID PUSH20 0x0 ADDRESS EQ PUSH1 0x80 PUSH1 0x40 MSTORE PUSH1 0x4 CALLDATASIZE LT PUSH2 0x35 JUMPI PUSH1 0x0 CALLDATALOAD PUSH1 0xE0 SHR DUP1 PUSH4 0x28F0ED18 EQ PUSH2 0x3A JUMPI JUMPDEST PUSH1 0x0 DUP1 REVERT JUMPDEST PUSH2 0x54 PUSH1 0x4 DUP1 CALLDATASIZE SUB DUP2 ADD SWAP1 PUSH2 0x4F SWAP2 SWAP1 PUSH2 0x162 JUMP JUMPDEST PUSH2 0x6A JUMP JUMPDEST PUSH1 0x40 MLOAD PUSH2 0x61 SWAP2 SWAP1 PUSH2 0x1AA JUMP JUMPDEST PUSH1 0x40 MLOAD DUP1 SWAP2 SUB SWAP1 RETURN JUMPDEST PUSH1 0x0 DUP1 TIMESTAMP SWAP1 POP DUP3 PUSH1 0x0 ADD CALLDATALOAD DUP2 LT DUP1 PUSH2 0x85 JUMPI POP DUP3 PUSH1 0x20 ADD CALLDATALOAD DUP2 GT JUMPDEST ISZERO PUSH2 0x94 JUMPI PUSH1 0x0 SWAP2 POP POP PUSH2 0x134 JUMP JUMPDEST DUP3 PUSH1 0x40 ADD PUSH1 0x20 DUP2 ADD SWAP1 PUSH2 0xA7 SWAP2 SWAP1 PUSH2 0x201 JUMP JUMPDEST PUSH4 0xFFFFFFFF AND DUP4 PUSH1 0x60 ADD PUSH1 0x20 DUP2 ADD SWAP1 PUSH2 0xC0 SWAP2 SWAP1 PUSH2 0x201 JUMP JUMPDEST PUSH4 0xFFFFFFFF AND GT ISZERO PUSH2 0x12E JUMPI PUSH1 0x0 PUSH3 0x15180 DUP3 PUSH2 0xDD SWAP2 SWAP1 PUSH2 0x267 JUMP JUMPDEST SWAP1 POP DUP4 PUSH1 0x40 ADD PUSH1 0x20 DUP2 ADD SWAP1 PUSH2 0xF2 SWAP2 SWAP1 PUSH2 0x201 JUMP JUMPDEST PUSH4 0xFFFFFFFF AND DUP2 LT DUP1 PUSH2 0x11C JUMPI POP DUP4 PUSH1 0x60 ADD PUSH1 0x20 DUP2 ADD SWAP1 PUSH2 0x113 SWAP2 SWAP1 PUSH2 0x201 JUMP JUMPDEST PUSH4 0xFFFFFFFF AND DUP2 GT JUMPDEST ISZERO PUSH2 0x12C JUMPI PUSH1 0x0 SWAP3 POP POP POP PUSH2 0x134 JUMP JUMPDEST POP JUMPDEST PUSH1 0x1 SWAP2 POP POP JUMPDEST SWAP2 SWAP1 POP JUMP JUMPDEST PUSH1 0x0 DUP1 REVERT JUMPDEST PUSH1 0x0 DUP1 REVERT JUMPDEST PUSH1 0x0 PUSH1 0x80 DUP3 DUP5 SUB SLT ISZERO PUSH2 0x159 JUMPI PUSH2 0x158 PUSH2 0x13E JUMP JUMPDEST JUMPDEST DUP2 SWAP1 POP SWAP3 SWAP2 POP POP JUMP JUMPDEST PUSH1 0x0 PUSH1 0x80 DUP3 DUP5 SUB SLT ISZERO PUSH2 0x178 JUMPI PUSH2 0x177 PUSH2 0x139 JUMP JUMPDEST JUMPDEST PUSH1 0x0 PUSH2 0x186 DUP5 DUP3 DUP6 ADD PUSH2 0x143 JUMP JUMPDEST SWAP2 POP POP SWAP3 SWAP2 POP POP JUMP JUMPDEST PUSH1 0x0 DUP2 ISZERO ISZERO SWAP1 POP SWAP2 SWAP1 POP JUMP JUMPDEST PUSH2 0x1A4 DUP2 PUSH2 0x18F JUMP JUMPDEST DUP3 MSTORE POP POP JUMP JUMPDEST PUSH1 0x0 PUSH1 0x20 DUP3 ADD SWAP1 POP PUSH2 0x1BF PUSH1 0x0 DUP4 ADD DUP5 PUSH2 0x19B JUMP JUMPDEST SWAP3 SWAP2 POP POP JUMP JUMPDEST PUSH1 0x0 PUSH4 0xFFFFFFFF DUP3 AND SWAP1 POP SWAP2 SWAP1 POP JUMP JUMPDEST PUSH2 0x1DE DUP2 PUSH2 0x1C5 JUMP JUMPDEST DUP2 EQ PUSH2 0x1E9 JUMPI PUSH1 0x0 DUP1 REVERT JUMPDEST POP JUMP JUMPDEST PUSH1 0x0 DUP2 CALLDATALOAD SWAP1 POP PUSH2 0x1FB DUP2 PUSH2 0x1D5 JUMP JUMPDEST SWAP3 SWAP2 POP POP JUMP JUMPDEST PUSH1 0x0 PUSH1 0x20 DUP3 DUP5 SUB SLT ISZERO PUSH2 0x217 JUMPI PUSH2 0x216 PUSH2 0x139 JUMP JUMPDEST JUMPDEST PUSH1 0x0 PUSH2 0x225 DUP5 DUP3 DUP6 ADD PUSH2 0x1EC JUMP JUMPDEST SWAP2 POP POP SWAP3 SWAP2 POP POP JUMP JUMPDEST PUSH1 0x0 DUP2 SWAP1 POP SWAP2 SWAP1 POP JUMP JUMPDEST PUSH32 0x4E487B7100000000000000000000000000000000000000000000000000000000 PUSH1 0x0 MSTORE PUSH1 0x12 PUSH1 0x4 MSTORE PUSH1 0x24 PUSH1 0x0 REVERT JUMPDEST PUSH1 0x0 PUSH2 0x272 DUP3 PUSH2 0x22E JUMP JUMPDEST SWAP2 POP PUSH2 0x27D DUP4 PUSH2 0x22E JUMP JUMPDEST SWAP3 POP DUP3 PUSH2 0x28D JUMPI PUSH2 0x28C PUSH2 0x238 JUMP JUMPDEST JUMPDEST DUP3 DUP3 MOD SWAP1 POP SWAP3 SWAP2 POP POP JUMP INVALID LOG2 PUSH5 0x6970667358 0x22 SLT KECCAK256 0xFB 0xEA DELEGATECALL PUSH14 0x204381000F5F454C0D0AE7E1DEEE 0x2F MCOPY PUSH18 0x67F4876ACC2EC7B1C1FEF664736F6C634300 ADDMOD SHR STOP CALLER "},"methodIdentifiers":{"evaluate(TemporalPolicyLogic.TemporalParams)":"28f0ed18"}}}}}