{"contracts/main/AgentGovernanceContract.sol":{"AgentGovernanceContract":{"abi":[{"inputs":[{"internalType":"uint256[4][5]","name":"initialPubKeys","type":"uint256[4][5]"}],"stateMutability":"nonpayable","type":"constructor"},{"inputs":[{"internalType":"uint256[4]","name":"input","type":"uint256[4]"}],"name":"BNAddFailed","type":"error"},{"inputs":[{"internalType":"bytes","name":"dst","type":"bytes"}],"name":"InvalidDSTLength","type":"error"},{"inputs":[{"internalType":"uint256","name":"x","type":"uint256"}],"name":"InvalidFieldElement","type":"error"},{"inputs":[{"internalType":"uint256","name":"noSqrt","type":"uint256"}],"name":"MapToPointFailed","type":"error"},{"inputs":[{"internalType":"uint256","name":"base","type":"uint256"},{"internalType":"uint256","name":"exponent","type":"uint256"},{"internalType":"uint256","name":"modulus","type":"uint256"}],"name":"ModExpFailed","type":"error"},{"anonymous":false,"inputs":[{"indexed":true,"internalType":"string","name":"DID","type":"string"},{"indexed":true,"internalType":"bytes32","name":"documentHash","type":"bytes32"}],"name":"DIDCreated","type":"event"},{"anonymous":false,"inputs":[{"indexed":true,"internalType":"string","name":"DID","type":"string"},{"indexed":true,"internalType":"bytes32","name":"newDocumentHash","type":"bytes32"}],"name":"DIDDocumentUpdated","type":"event"},{"anonymous":false,"inputs":[{"indexed":true,"internalType":"string","name":"DID","type":"string"}],"name":"DIDRevoked","type":"event"},{"inputs":[],"name":"DID_PREFIX","outputs":[{"internalType":"string","name":"","type":"string"}],"stateMutability":"view","type":"function"},{"inputs":[],"name":"DST_REVOKE","outputs":[{"internalType":"bytes32","name":"","type":"bytes32"}],"stateMutability":"view","type":"function"},{"inputs":[],"name":"DST_UPDATE","outputs":[{"internalType":"bytes32","name":"","type":"bytes32"}],"stateMutability":"view","type":"function"},{"inputs":[],"name":"EXPECTED_DID_LENGTH","outputs":[{"internalType":"uint256","name":"","type":"uint256"}],"stateMutability":"view","type":"function"},{"inputs":[],"name":"PREFIX_LENGTH","outputs":[{"internalType":"uint256","name":"","type":"uint256"}],"stateMutability":"view","type":"function"},{"inputs":[{"internalType":"string","name":"","type":"string"}],"name":"_didEntries","outputs":[{"internalType":"string","name":"DID","type":"string"},{"internalType":"uint256","name":"version","type":"uint256"},{"internalType":"bytes32","name":"currentDocumentHash","type":"bytes32"},{"internalType":"uint256","name":"timestamp","type":"uint256"},{"internalType":"enum AgentGovernanceContract.DIDLifecycleState","name":"currentState","type":"uint8"},{"internalType":"string","name":"cid","type":"string"},{"internalType":"uint8","name":"requiredSigsForUpdate","type":"uint8"}],"stateMutability":"view","type":"function"},{"inputs":[{"internalType":"string","name":"","type":"string"}],"name":"_isDIDRegistered","outputs":[{"internalType":"bool","name":"","type":"bool"}],"stateMutability":"view","type":"function"},{"inputs":[{"internalType":"string","name":"","type":"string"}],"name":"nonces","outputs":[{"internalType":"uint256","name":"","type":"uint256"}],"stateMutability":"view","type":"function"},{"inputs":[{"internalType":"string","name":"DID","type":"string"},{"internalType":"bytes32","name":"documentHash","type":"bytes32"},{"internalType":"string","name":"cid","type":"string"},{"internalType":"uint8","name":"_requiredSigsForCapUpdate","type":"uint8"}],"name":"register","outputs":[{"internalType":"bool","name":"success","type":"bool"}],"stateMutability":"nonpayable","type":"function"},{"inputs":[{"internalType":"string","name":"DID","type":"string"}],"name":"resolve","outputs":[{"internalType":"bytes32","name":"documentHash","type":"bytes32"},{"internalType":"string","name":"cid","type":"string"}],"stateMutability":"view","type":"function"},{"inputs":[{"internalType":"string","name":"DID","type":"string"},{"internalType":"uint256[2]","name":"aggSig","type":"uint256[2]"},{"internalType":"uint8","name":"pksMask","type":"uint8"}],"name":"revoke","outputs":[{"internalType":"bool","name":"success","type":"bool"}],"stateMutability":"nonpayable","type":"function"},{"inputs":[{"internalType":"string","name":"DID","type":"string"},{"internalType":"bytes32","name":"newDocumentHash","type":"bytes32"},{"internalType":"uint256[2]","name":"aggSig","type":"uint256[2]"},{"internalType":"uint8","name":"pksMask","type":"uint8"}],"name":"update","outputs":[{"internalType":"bool","name":"success","type":"bool"}],"stateMutability":"nonpayable","type":"function"}],"evm":{"bytecode":{"linkReferences":{},"object":"6080346200013857601f62003a4738819003828101601f1916840193916001600160401b039190828611848710176200015257819060409687528439820190610280918284820312620001385780601f85011215620001385785519460a08601868110848211176200015257875285938501948286116200013857935b858510620000db5787600080895b60058210620000a25783516138de9081620001698239f35b805160005b60048110620000c657505060046020600192019301910190916200008a565b600190602083519301928187015501620000a7565b828286011215620001385787516080808201828110878211176200013d578a5281908701858111620001385787915b81831062000127575050508160209160809352019401936200007c565b82518152602092830192016200010a565b600080fd5b60246000634e487b7160e01b81526041600452fd5b634e487b7160e01b600052604160045260246000fdfe6080604052600436101561001257600080fd5b60003560e01c806308d2a651146100d75780632418833f146100d2578063356b9454146100cd578063461a4478146100c857806346f3c1ed146100c357806347f30bd5146100be5780634c0d9781146100b957806388b57e95146100b45780639d9dcabc146100af578063b24fce88146100aa578063c76cd403146100a55763e714023d146100a057600080fd5b610d2b565b610cf1565b610c80565b610b23565b61099e565b610950565b6108f1565b61073c565b61061c565b6105c3565b610589565b6104ea565b7f4e487b7100000000000000000000000000000000000000000000000000000000600052604160045260246000fd5b60e0810190811067ffffffffffffffff82111761012757604052565b6100dc565b6040810190811067ffffffffffffffff82111761012757604052565b6080810190811067ffffffffffffffff82111761012757604052565b60c0810190811067ffffffffffffffff82111761012757604052565b90601f7fffffffffffffffffffffffffffffffffffffffffffffffffffffffffffffffe0910116810190811067ffffffffffffffff82111761012757604052565b604051906101ce8261010b565b565b604051906101ce8261012c565b60405190610180820182811067ffffffffffffffff82111761012757604052565b81601f820112156102735780359067ffffffffffffffff8211610127576040519261025160207fffffffffffffffffffffffffffffffffffffffffffffffffffffffffffffffe0601f8601160185610180565b8284526020838301011161027357816000926020809301838601378301015290565b600080fd5b60207ffffffffffffffffffffffffffffffffffffffffffffffffffffffffffffffffc820112610273576004359067ffffffffffffffff8211610273576102c1916004016101fe565b90565b60005b8381106102d75750506000910152565b81810151838201526020016102c7565b60206103009181604051938285809451938492016102c4565b8101601481520301902090565b60206103269181604051938285809451938492016102c4565b8101601581520301902090565b602061034c9181604051938285809451938492016102c4565b8101601681520301902090565b90600182811c921680156103a2575b602083101461037357565b7f4e487b7100000000000000000000000000000000000000000000000000000000600052602260045260246000fd5b91607f1691610368565b906040519182600082546103bf81610359565b9081845260209460019160018116908160001461042d57506001146103ee575b5050506101ce92500383610180565b600090815285812095935091905b8183106104155750506101ce93508201013880806103df565b855488840185015294850194879450918301916103fc565b9150506101ce9593507fffffffffffffffffffffffffffffffffffffffffffffffffffffffffffffff0091501682840152151560051b8201013880806103df565b907fffffffffffffffffffffffffffffffffffffffffffffffffffffffffffffffe0601f6020936104aa815180928187528780880191016102c4565b0116010190565b600211156104bb57565b7f4e487b7100000000000000000000000000000000000000000000000000000000600052602160045260246000fd5b34610273576105006104fb36610278565b6102e7565b610509816103ac565b90600181015460028201549060038301549060ff6004850154169160ff6006610534600588016103ac565b960154169361054e6040519760e0895260e089019061046e565b9260208801526040870152606086015260028210156104bb57849361057f92608086015284820360a086015261046e565b9060c08301520390f35b346102735760007ffffffffffffffffffffffffffffffffffffffffffffffffffffffffffffffffc360112610273576020604051600d8152f35b346102735760007ffffffffffffffffffffffffffffffffffffffffffffffffffffffffffffffffc3601126102735760206040517f283b208957fe4fa6f6029daabcfeddad5c9b5d110a38b1816631f64e563f85848152f35b346102735761062a36610278565b61063f60ff6106388361030d565b5416610d84565b60ff600461064c836102e7565b0154169060028210156104bb576104fb6106669215610de9565b6106776005600283015492016103ac565b90610694604051928392835260406020840152604083019061046e565b0390f35b806043121561027357604051906106ae8261012c565b81606491606411610273576024905b8282106106ca5750505090565b81358152602091820191016106bd565b806063121561027357604051906106f08261012c565b81608491608411610273576044905b82821061070c5750505090565b81358152602091820191016106ff565b6064359060ff8216820361027357565b6084359060ff8216820361027357565b346102735760807ffffffffffffffffffffffffffffffffffffffffffffffffffffffffffffffffc3601126102735760043567ffffffffffffffff81116102735761078b9036906004016101fe565b61079436610698565b9061079d61071c565b6107ab60ff6106388461030d565b60ff60046107b8846102e7565b0154169260028410156104bb576107d26108bf9415610de9565b6108766108706107e1856102e7565b9361086b600186019461084a61083b875461082e60608c60405193816108118693518092602080870191016102c4565b820190600060208301526040820152036040810184520182610180565b610836610e71565b6115b0565b93610844610eaa565b5061187b565b61086461085e60068b969496015460ff1690565b60ff1690565b1115610f0b565b61195c565b50610f70565b6108a86004830160017fffffffffffffffffffffffffffffffffffffffffffffffffffffffffffffff00825416179055565b6108b28154611032565b905560034291015561105f565b604051907f8d5d0f9333534da02ef5f341fe3f88a64f03b3d4ca4aef5bfdb6e3d5cdece101600080a260018152602090f35b3461027357602060ff61090b61090636610278565b61030d565b54166040519015158152f35b604051906109248261012c565b600d82527f6469643a626c6f636b6132613a000000000000000000000000000000000000006020830152565b346102735760007ffffffffffffffffffffffffffffffffffffffffffffffffffffffffffffffffc3601126102735761069461098a610917565b60405191829160208352602083019061046e565b346102735760807ffffffffffffffffffffffffffffffffffffffffffffffffffffffffffffffffc3601126102735767ffffffffffffffff600435818111610273576109ee9036906004016101fe565b906024359160443591821161027357610aa2610a11610af09336906004016101fe565b610a94610a1c61071c565b610a2d610a2886611a8f565b61107f565b610a4f610a4a610a46610a3f8861030d565b5460ff1690565b1590565b6110e4565b610a5d60ff82161515611149565b610a656101c1565b92858452600160208501528760408501524260608501526000608085015260a084015260c083019060ff169052565b610a9d836102e7565b611359565b610ad9610aae8261030d565b60017fffffffffffffffffffffffffffffffffffffffffffffffffffffffffffffff00825416179055565b610aeb610ae582610333565b60019055565b61105f565b90604051917f64b17621560acdf371cc9090466395c4edacecc3acc35947973db19d2fb2cf14600080a360018152602090f35b346102735760a07ffffffffffffffffffffffffffffffffffffffffffffffffffffffffffffffffc3601126102735760043567ffffffffffffffff811161027357610b729036906004016101fe565b60243590610b7f366106da565b90610b8861072c565b91610b9760ff6106388461030d565b60ff6004610ba4846102e7565b0154169260028410156104bb57610bbe610c4d9415610de9565b6108b2610bca846102e7565b92610c42610870600186019461086b865494610c2e61083b8d610c268d610bfa8b60405194859360208501610e4e565b037fffffffffffffffffffffffffffffffffffffffffffffffffffffffffffffffe08101835282610180565b61083661151a565b61086461085e60068d969496015460ff1690565b866002850155611032565b90604051917ffbccb49fcba0db7422ed2970ae7e545a0133b0d0343c5cd282b5a877ef95c487600080a360018152602090f35b34610273576020610c98610c9336610278565b610333565b54604051908152f35b7f4e487b7100000000000000000000000000000000000000000000000000000000600052601160045260246000fd5b9060018201809211610cde57565b610ca1565b6001019081600111610cde57565b346102735760007ffffffffffffffffffffffffffffffffffffffffffffffffffffffffffffffffc36011261027357602060405160178152f35b346102735760007ffffffffffffffffffffffffffffffffffffffffffffffffffffffffffffffffc3601126102735760206040517f6688844a85e8870f0474f90aa6d22975f9e2e6d3485e6abb706be219ab7cd70b8152f35b15610d8b57565b60646040517f08c379a000000000000000000000000000000000000000000000000000000000815260206004820152601760248201527f4147433a20444944206e6f7420726567697374657265640000000000000000006044820152fd5b15610df057565b60646040517f08c379a000000000000000000000000000000000000000000000000000000000815260206004820152601360248201527f4147433a20444944206e6f7420616374697665000000000000000000000000006044820152fd5b602090610e6460409593828151948592016102c4565b0191825260208201520190565b60405190610e7e8261012c565b600a82527f4147432d7265766f6b65000000000000000000000000000000000000000000006020830152565b60405190610eb782610148565b6080368337565b60405190610ecb8261012c565b6040368337565b604051906020820182811067ffffffffffffffff821117610127576040526020368337565b60405190610f0482610164565b60c0368337565b15610f1257565b60646040517f08c379a000000000000000000000000000000000000000000000000000000000815260206004820152601760248201527f4147433a206e6f7420656e6f756768207369676e6572730000000000000000006044820152fd5b15610f7757565b60846040517f08c379a000000000000000000000000000000000000000000000000000000000815260206004820152602c60248201527f4147433a20616767726567617465207369676e6174757265207665726966696360448201527f6174696f6e206661696c656400000000000000000000000000000000000000006064820152fd5b9060028110156104bb5760ff7fffffffffffffffffffffffffffffffffffffffffffffffffffffffffffffff008354169116179055565b7fffffffffffffffffffffffffffffffffffffffffffffffffffffffffffffffff8114610cde5760010190565b611077906020604051928284809451938492016102c4565b810103902090565b1561108657565b60646040517f08c379a000000000000000000000000000000000000000000000000000000000815260206004820152601760248201527f4147433a20496e76616c69642044494420666f726d61740000000000000000006044820152fd5b156110eb57565b60646040517f08c379a000000000000000000000000000000000000000000000000000000000815260206004820152601b60248201527f4147433a2044494420616c7265616479207265676973746572656400000000006044820152fd5b1561115057565b60846040517f08c379a000000000000000000000000000000000000000000000000000000000815260206004820152602960248201527f4147433a20726571756972656453696773466f72436170557064617465206d7560448201527f7374206265203e203000000000000000000000000000000000000000000000006064820152fd5b90601f81116111e257505050565b6000916000526020600020906020601f850160051c83019410611220575b601f0160051c01915b82811061121557505050565b818155600101611209565b9092508290611200565b919091825167ffffffffffffffff8111610127576112528161124c8454610359565b846111d4565b602080601f83116001146112b2575081906112a39394956000926112a7575b50507fffffffffffffffffffffffffffffffffffffffffffffffffffffffffffffffff8260011b9260031b1c19161790565b9055565b015190503880611271565b907fffffffffffffffffffffffffffffffffffffffffffffffffffffffffffffffe08316956112e685600052602060002090565b926000905b8882106113415750508360019596971061130a575b505050811b019055565b01517fffffffffffffffffffffffffffffffffffffffffffffffffffffffffffffffff60f88460031b161c19169055388080611300565b806001859682949686015181550195019301906112eb565b919091825192835167ffffffffffffffff8111610127576113848161137e8554610359565b856111d4565b602080601f831160011461146257506006926113df836114339460c0946101ce999a6000926112a75750507fffffffffffffffffffffffffffffffffffffffffffffffffffffffffffffffff8260011b9260031b1c19161790565b85555b60208101516001860155604081015160028601556060810151600386015561141a6080820151611411816104b1565b60048701610ffb565b61142b60a08201516005870161122a565b015160ff1690565b91019060ff167fffffffffffffffffffffffffffffffffffffffffffffffffffffffffffffff00825416179055565b907fffffffffffffffffffffffffffffffffffffffffffffffffffffffffffffffe083169661149686600052602060002090565b926000905b8982106115025750508360c09360069693600193611433976101ce9b9c106114cb575b505050811b0185556113e2565b01517fffffffffffffffffffffffffffffffffffffffffffffffffffffffffffffffff60f88460031b161c191690553880806114be565b8060018596829496860151815501950193019061149b565b604051906115278261012c565b600a82527f4147432d757064617465000000000000000000000000000000000000000000006020830152565b7f4e487b7100000000000000000000000000000000000000000000000000000000600052603260045260246000fd5b6080810192916000915b6004831061159957505050565b60019082518152602080910192019201919061158c565b906115b9610ebe565b5060408080516115c88161012c565b36903782519260ff841161181f5760ff6115e061204e565b941693825190816115f98785602098898501958661209d565b039161162b7fffffffffffffffffffffffffffffffffffffffffffffffffffffffffffffffe093848101835282610180565b51902091835185810190611651816116458a86898761213d565b03858101835282610180565b5190209561165d612069565b936001926001945b600386106117aa5750505050505061170c8185606061171394015277ffffffffffffffffffffffffffffffffffffffffffffffff80601883015116907f30644e72e131a029b85045b68181585d97816a916871ca8d3c208c16d87cfd4780928260488382603089015116817801000000000000000000000000000000000000000000000000809609089601511692896116fc6101d0565b878152019a169209088652611cd3565b9351611cd3565b9161171c610eaa565b9284518452818501518285015280518385015201516060830152611768818460808560067ffffffffffffffffffffffffffffffffffffffffffffffffffffffffffffff8305a01fa1590565b61177157505090565b6117a69250519182917f128e3f0800000000000000000000000000000000000000000000000000000000835260048301611582565b0390fd5b909192938383879b8b7fffffffffffffffffffffffffffffffffffffffffffffffffffffffffffffffff8a6118088e6117fc8d8a9f61085e6117eb91610ce3565b9251988993898986019c188c6121af565b03898101875286610180565b0160051b8b01015251902099019493929190611665565b6117a691519182917f26e4f9ba0000000000000000000000000000000000000000000000000000000083526004830161203d565b60ff1660ff8114610cde5760010190565b60058110156118765760021b90600090565b611553565b611883610eaa565b6000805b60ff8082166005811015611952576001901b8516166118af575b6118aa90611853565b611887565b9061194a6118aa9184516020860180519061193b60408901938885519460608c019586516118dc84611864565b5054916119026118f86118ee87611864565b5060010190600090565b90549060031b1c90565b936119356118f861192b6119256118f861191b8b611864565b5060020190600090565b98611864565b5060030190600090565b96611f07565b90929591945252528552610cd0565b9190506118a1565b5050509291509190565b6040602092836101809695816119706101dd565b95805187520151828601527f198e9393920d483a7260bfb731fb5d25f1aa493335a9e71297e485b7aef312c2848601527f1800deef121f1e76426a00665e5c4479674322d4f75edadd46debd5cd992f6ed60608601527f275dc4a288d1afb3cbb1ac09187524c7db36395df7be3b99e673b13a075a65ec60808601527f1d9befcd05a5323e6da4d435f3b617cdb3af83285c2df711ef39c01571827f9d60a0860152805160c0860152015160e084015283810151610100840152805161012084015260608101516101408401520151610160820152611a4d610ed2565b93849160087ffffffffffffffffffffffffffffffffffffffffffffffffffffffffffffff8305a01fa915115159190565b908151811015611876570160200190565b611a97610917565b6017825103611bb25760005b600d8110611c50575050600d5b8151811015611c4957611b14611aef611ac98385611a7e565b517fff000000000000000000000000000000000000000000000000000000000000001690565b7fff000000000000000000000000000000000000000000000000000000000000001690565b7f30000000000000000000000000000000000000000000000000000000000000008110159081611c1e575b7f610000000000000000000000000000000000000000000000000000000000000081101580611bf4575b7f41000000000000000000000000000000000000000000000000000000000000008210159182611bc9575b508215611bc1575b508115611bb9575b5015611bb257600101611ab0565b5050600090565b905038611ba4565b915038611b9c565b7f46000000000000000000000000000000000000000000000000000000000000001015915038611b94565b507f6600000000000000000000000000000000000000000000000000000000000000811115611b69565b7f39000000000000000000000000000000000000000000000000000000000000008111159150611b3f565b5050600190565b611c5d611ac98285611a7e565b7fff00000000000000000000000000000000000000000000000000000000000000611c8e611aef611ac98587611a7e565b911603611c9d57600101611aa3565b505050600090565b907f30644e72e131a029b85045b68181585d97816a916871ca8d3c208c16d87cfd47918203918211610cde57565b90611cdc610ebe565b917f30644e72e131a029b85045b68181585d97816a916871ca8d3c208c16d87cfd4780821015611e9f5780600481848009099060019181611d208183860892611ca5565b840890828080808078016789af3a83522eb353c98fc6b36d713d5d8d1cc5dffffffa818b81611d51818b8d09612df3565b9a8b92090909958180611d6389611ca5565b98817f183227397098d014dc2822db40c0ac2ecbc0b548b438e5469e10460b6c3e7ea39a8b0899089680090980097f10216f7ba065e00de81ac1e7808072c9dd2b2385cd7b438469602eb24829a9bd0985089083600381858181800909089385611dcc866121f6565b60000b03611e45575050508552611de281612324565b90602087015215611e1257505b6020840191825191808316911603611e05575050565b611e0e90611ca5565b9052565b6040517f396ec7710000000000000000000000000000000000000000000000000000000081526004810191909152602490fd5b919350915080600381848181800909089284611e60856121f6565b60000b03611e865750508552611e7581612324565b90602087015215611e125750611def565b81935060039250808852818180090908611e7581612324565b6040517fd53e941500000000000000000000000000000000000000000000000000000000815260048101839052602490fd5b15611ed857565b7f4e487b7100000000000000000000000000000000000000000000000000000000600052600160045260246000fd5b979497969596801580612035575b8061202d575b80612025575b15611f7b5750505050801580611f73575b80611f6b575b80611f63575b15611f4a575b93929190565b611f5e611f5984868885612a86565b611ed1565b611f44565b508215611f3e565b508315611f38565b508415611f32565b84989598979697158061201d575b80612015575b8061200d575b611ff55791611fed97959391611fca979593611fb6611f5985858585612a86565b611fc5611f5989898989612a86565b612b32565b8051906020810151604082015160608301519160a0608085015194015194612d1b565b929391929091565b935096935094509250611f44611f5984868885612a86565b508715611f95565b508615611f8f565b508515611f89565b508315611f21565b508215611f1b565b508115611f15565b9060206102c192818152019061046e565b6040519061205b82610164565b6088825260a0366020840137565b6040519061207682610148565b6060808352366020840137565b604051906120908261010b565b60c0808352366020840137565b7fff00000000000000000000000000000000000000000000000000000000000000926120e8602080936120da6004999896828151948592016102c4565b0191828151948592016102c4565b01600081527f600000000000000000000000000000000000000000000000000000000000000060018201526000600282015261212e8251809360206003850191016102c4565b019160f81b1660038201520190565b91602293927fff000000000000000000000000000000000000000000000000000000000000009281527f010000000000000000000000000000000000000000000000000000000000000060208201526121a08251809360206021850191016102c4565b019160f81b1660218201520190565b602294939181527fff00000000000000000000000000000000000000000000000000000000000000809360f81b1660208201526121a08251809360206021850191016102c4565b6121fe612083565b9060c060206000828286018381528360408801528360608801528560808801527f183227397098d014dc2822db40c0ac2ecbc0b548b438e5469e10460b6c3e7ea3968760a08201527f30644e72e131a029b85045b68181585d97816a916871ca8d3c208c16d87cfd47958691015260055afa9260005193156122e85750507f30644e72e131a029b85045b68181585d97816a916871ca8d3c208c16d87cfd4682146122c257811515806122b7575b611e12575060000b90565b5060018214156122ac565b50507fffffffffffffffffffffffffffffffffffffffffffffffffffffffffffffffff90565b60649350604051927fc6daf7ab000000000000000000000000000000000000000000000000000000008452600484015260248301526044820152fd5b907f30644e72e131a029b85045b68181585d97816a916871ca8d3c208c16d87cfd478080808080808080808b8180808080808080808080808080808f8180828180808080808080808080809e8180808080858180808080808087819e8280808080808681808080808080809e818080808481808080808080808089819f828080808080808080808080808d819e8280808080808080888180808080809e8180808080808080808981808080809e81808080808080808080808b8180809e81808080808080808080808b8180809e818080808080808080808a818080809e8180808080808087818080808080809e8180808080808681808080808080809e8180808080808681808080808080809e8180808080808681808080808080809e8180808080808080808080808c81809e81808080808080808080808b8180809e8180808080808087818080808080809e81808080808080809781808080808581808080808080808080808b8181800909818c81818009090981808c8181800909818d818180090909098180808c8181800909818d818180090909818c818082818180090991818180090909090980098009800981808781818009099180090980098009800909800980098009800909800980098009800981808c8180828009918180828009918181800909090991800909800980098009800981808088800981808a8009818b8181800909090991800909800980098009098009800980098180808a800981808c8009818d8181800909090991800909800980098009800980090980098009800981808c8181800909918009098009800980098009800980099281808083818180090981848181800909099181808280099181808280099181818009090909099180090980098009800980098009800980098009800981808d818082800991818180090909918009098009800980098180898181800909918009098009800980099281808280099181808280099181818009090909918009098009800980098009800980098180808b8009818c8181800909099180090980098009800980098009800909800980098009800980098009818080808c8009818d818180090909818c81808281818009099181818009090909918009098009800980098009928180808381818009098184818180090909918180828009918180828009918181800909090909918009098009800981808d818082800991818180090909918009098009800980098009800980098009928181800909918009098009800980098009800980098009800992818082800991818180090909918009098009800981808d818180090991800909800980098009800980098009800992818080838009818481818009090991818082818180090991818180090909099180090980098009800981808d81808083800981848181800909099181808281818009099181818009090909918009098009800980098009818080898009818a8181800909099180090980098009928180828009918180828009918181800909090991800909800980098009800980098009800980098009818080808b8009818c81818009090981808c8181800909818d81818009090909918009098009800980099281808280099181818009090991800909800980098009800981808d81808281818009099181808281818009099181818009090909918009098009800980098009800980098180808088800981898181800909098180898181800909818a81818009090909918009098009800909800980098009800980098009928180828009918180828009918181800909090991800909800980098009800980098180808c8009818d8180828009918181800909090991800909800980098009800981808087800981888181800909099180090980098009098009800980098009800980099281808083818180090981848181800909099181808280099181808280099181818009090909099180090980098009800980098009818080808b8181800909818c81818009090981808c8181800909818d818082818180090991818180090909090991800909800980098009800980090980098009800980098009800909800980098009800992818180090991800909800980098009800980098009800980098180808c818082800991818180090909818d8180828181800909918181800909090991800909800980098180888181800909918009098009800992818180090991800909800980098009800980098009800981808d8180808381818009098184818180090909918180828181800909918180828181800909918181800909090909918009098009800980098180808a818180090981808c8181800909818d818180090909099180090980098009800992818080838181800909818481818009090991818082818180090991818082818180090991818180090909090991800909800980098180808c8009818d8181800909099180090980098009800980098180808781818009098180898181800909818a81818009090909918009098009917f30644e72e131a029b85045b68181585d97816a916871ca8d3c208c16d87cfd478380091490565b612ace612ab97f054fb1321278f57b36922d1d65a0ed99e1cca4ac0e95daea09b8a53ab3dbc46295612ad6958181613574565b939092612ac882828181613574565b90613574565b9290916135ba565b91907f30644e72e131a029b85045b68181585d97816a916871ca8d3c208c16d87cfd4791829108159182612b0957505090565b7f2fcd3ac2a640a154eb23960892a85a68f031ca0c8344b23a577dcf1052b9e775919250081590565b949796979591929395612b4e612b46610ef7565b998a9461352c565b979096612b74612b5e888861352c565b949093606088019586526040880194855261352c565b979096612b81868461352c565b608060a08a9993990199828b5201978089528a149081612d11575b50612c9757505050505050505060408601928351946060880195865191612bc2936135ba565b608088019283519460a08a0195865191612bdb936135ba565b612be781838181613574565b838388959395518a51612bfb918589613574565b93612c07939197613574565b989097612c148a8a61352c565b909252528b8789612c27888a8181613574565b612c309161352c565b612c3a93916135ba565b612c448488613877565b91612c4e936135ba565b818196612c5b9396613574565b9091602001528c52612c6c936135ba565b91612c7693613574565b9190928451865191612c8793613574565b91612c91936135ba565b90925252565b9397509397509397869b9a9b9991959951149081612d06575b50612ce7575050505050505050600060a0820152600060808201526000606082015260016040820152600060208201526001815290565b612cf0936135fc565b9092969397919498525252526020830152815290565b905086511438612cb0565b90508a1438612b9c565b95939195949092947f30644e72e131a029b85045b68181585d97816a916871ca8d3c208c16d87cfd479260405160208152602080820152602060408201528480838009818680090860608201527f30644e72e131a029b85045b68181585d97816a916871ca8d3c208c16d87cfd4560808201528460a082015260208160c08160057ffffffffffffffffffffffffffffffffffffffffffffffffffffffffffffff8305a01fa9051901561027357848181930993098303928311610cde578282612def95612de793613574565b959096613574565b9091565b807f30644e72e131a029b85045b68181585d97816a916871ca8d3c208c16d87cfd47808080808080808881808080809e8180808080808080808981808080809e8180808080808080888180808080809e8180808080808080888180808080809e8181818080808080808781808080809e8180808080808087818080808080809e8180828180808080808080808080809e8180828180808080808080808981809e818080808080808080808080808d819e8280808080808080808080808080809e8082808080808080808080808080809e80828080808080808080808080808d819f828080808080808080808a818080809e8180808080808080808981808080809e8180808080808080808981808080809e8180808080808080808981808080809e8180808080808080808080808080809e80828080808080808080808080808d819f8280808080808080808981808080809e818080808080808080809981808080808581808080808080808080808b8181800909818c81818009090981808c8181800909818d818180090909098180808c8181800909818d818180090909818c818082818180090991818180090909090980098009800981808781818009099180090980098009800909800980098009800909800980098009800981808c8180828009918180828009918181800909090991800909800980098009800981808088800981808a8009818b8181800909090991800909800980098009098009800980098180808a800981808c8009818d8181800909090991800909800980098009800980090980098009800981808c8181800909918009098009800980098009800980099281808083818180090981848181800909099181808280099181808280099181818009090909099180090980098009800980098009800980098009800981808d818082800991818180090909918009098009800980098180898181800909918009098009800980099281808280099181808280099181818009090909918009098009800980098009800980098180808b8009818c8181800909099180090980098009800980098009800909800980098009800980098009818080808c8009818d818180090909818c81808281818009099181818009090909918009098009800980098009928180808381818009098184818180090909918180828009918180828009918181800909090909918009098009800981808d818082800991818180090909918009098009800980098009800980098009928181800909918009098009800980098009800980098009800992818082800991818180090909918009098009800981808d818180090991800909800980098009800980098009800992818080838009818481818009090991818082818180090991818180090909099180090980098009800981808d81808083800981848181800909099181808281818009099181818009090909918009098009800980098009818080898009818a8181800909099180090980098009928180828009918180828009918181800909090991800909800980098009800980098009800980098009818080808b8009818c81818009090981808c8181800909818d81818009090909918009098009800980099281808280099181818009090991800909800980098009800981808d81808281818009099181808281818009099181818009090909918009098009800980098009800980098180808088800981898181800909098180898181800909818a81818009090909918009098009800909800980098009800980098009928180828009918180828009918181800909090991800909800980098009800980098180808c8009818d8180828009918181800909090991800909800980098009800981808087800981888181800909099180090980098009098009800980098009800980099281808083818180090981848181800909099181808280099181808280099181818009090909099180090980098009800980098009818080808b8181800909818c81818009090981808c8181800909818d81808281818009099181818009090909099180090980098009800980098009098009800980098009800980090980098009800980099281818009099180090980098009800980098009800980098009818080808a8009818b81818009090981808b8181800909818c818180090909099180090980098009928181800909918009098009800981808d81818009099180090980098009800980098009800980099281808083818180090981848181800909099181808281818009099181808281818009099181818009090909099180090980098009800981808d8180828181800909918180828181800909918181800909090991800909800980098009818080808b8181800909818c81818009090981808c8181800909818d81808281818009099181818009090909099180090980098009818080878009818881818009090991800909800980090980098009800980098009928180828009918181800909099180090990565b9190917f30644e72e131a029b85045b68181585d97816a916871ca8d3c208c16d87cfd479081600085098203828111610cde5760008360018180948183880908970992090890565b909392917f30644e72e131a029b85045b68181585d97816a916871ca8d3c208c16d87cfd4792838187098403848111610cde578285809492818094880908970992090890565b939290937f30644e72e131a029b85045b68181585d97816a916871ca8d3c208c16d87cfd4792830391838311610cde57830391838311610cde57839108930890565b92938291857f30644e72e131a029b85045b68181585d97816a916871ca8d3c208c16d87cfd476003830982877f30644e72e131a029b85045b68181585d97816a916871ca8d3c208c16d87cfd47600382099261365793613574565b9096613663838761352c565b613673819b839984988496613574565b61367d9391613574565b93909761368c848b8181613574565b7f30644e72e131a029b85045b68181585d97816a916871ca8d3c208c16d87cfd4760088809907f30644e72e131a029b85045b68181585d97816a916871ca8d3c208c16d87cfd4760088d09906136e1936135ba565b99819b8b9792966136f4878b8181613574565b99819f7f30644e72e131a029b85045b68181585d97816a916871ca8d3c208c16d87cfd4760048d979498099260047f30644e72e131a029b85045b68181585d97816a916871ca8d3c208c16d87cfd4791099261374f936135ba565b6137599391613574565b9390947f30644e72e131a029b85045b68181585d97816a916871ca8d3c208c16d87cfd4760088209917f30644e72e131a029b85045b68181585d97816a916871ca8d3c208c16d87cfd4760088209926137b193613574565b6137bb9391613574565b916137c5936135ba565b96909760027f30644e72e131a029b85045b68181585d97816a916871ca8d3c208c16d87cfd4791099260027f30644e72e131a029b85045b68181585d97816a916871ca8d3c208c16d87cfd4791099261381d93613574565b96909761382993613574565b60087f30644e72e131a029b85045b68181585d97816a916871ca8d3c208c16d87cfd4791099060087f30644e72e131a029b85045b68181585d97816a916871ca8d3c208c16d87cfd47910991565b600280919392937f30644e72e131a029b85045b68181585d97816a916871ca8d3c208c16d87cfd479283910993099056fea2646970667358221220233eb302558bf4adf6c178ac8fb971f973f9621a994914527dafad4c12283aa064736f6c63430008180033","opcodes":"PUSH1 0x80 CALLVALUE PUSH3 0x138 JUMPI PUSH1 0x1F PUSH3 0x3A47 CODESIZE DUP2 SWAP1 SUB DUP3 DUP2 ADD PUSH1 0x1F NOT AND DUP5 ADD SWAP4 SWAP2 PUSH1 0x1 PUSH1 0x1 PUSH1 0x40 SHL SUB SWAP2 SWAP1 DUP3 DUP7 GT DUP5 DUP8 LT OR PUSH3 0x152 JUMPI DUP2 SWAP1 PUSH1 0x40 SWAP7 DUP8 MSTORE DUP5 CODECOPY DUP3 ADD SWAP1 PUSH2 0x280 SWAP2 DUP3 DUP5 DUP3 SUB SLT PUSH3 0x138 JUMPI DUP1 PUSH1 0x1F DUP6 ADD SLT ISZERO PUSH3 0x138 JUMPI DUP6 MLOAD SWAP5 PUSH1 0xA0 DUP7 ADD DUP7 DUP2 LT DUP5 DUP3 GT OR PUSH3 0x152 JUMPI DUP8 MSTORE DUP6 SWAP4 DUP6 ADD SWAP5 DUP3 DUP7 GT PUSH3 0x138 JUMPI SWAP4 JUMPDEST DUP6 DUP6 LT PUSH3 0xDB JUMPI DUP8 PUSH1 0x0 DUP1 DUP10 JUMPDEST PUSH1 0x5 DUP3 LT PUSH3 0xA2 JUMPI DUP4 MLOAD PUSH2 0x38DE SWAP1 DUP2 PUSH3 0x169 DUP3 CODECOPY RETURN JUMPDEST DUP1 MLOAD PUSH1 0x0 JUMPDEST PUSH1 0x4 DUP2 LT PUSH3 0xC6 JUMPI POP POP PUSH1 0x4 PUSH1 0x20 PUSH1 0x1 SWAP3 ADD SWAP4 ADD SWAP2 ADD SWAP1 SWAP2 PUSH3 0x8A JUMP JUMPDEST PUSH1 0x1 SWAP1 PUSH1 0x20 DUP4 MLOAD SWAP4 ADD SWAP3 DUP2 DUP8 ADD SSTORE ADD PUSH3 0xA7 JUMP JUMPDEST DUP3 DUP3 DUP7 ADD SLT ISZERO PUSH3 0x138 JUMPI DUP8 MLOAD PUSH1 0x80 DUP1 DUP3 ADD DUP3 DUP2 LT DUP8 DUP3 GT OR PUSH3 0x13D JUMPI DUP11 MSTORE DUP2 SWAP1 DUP8 ADD DUP6 DUP2 GT PUSH3 0x138 JUMPI DUP8 SWAP2 JUMPDEST DUP2 DUP4 LT PUSH3 0x127 JUMPI POP POP POP DUP2 PUSH1 0x20 SWAP2 PUSH1 0x80 SWAP4 MSTORE ADD SWAP5 ADD SWAP4 PUSH3 0x7C JUMP JUMPDEST DUP3 MLOAD DUP2 MSTORE PUSH1 0x20 SWAP3 DUP4 ADD SWAP3 ADD PUSH3 0x10A JUMP JUMPDEST PUSH1 0x0 DUP1 REVERT JUMPDEST PUSH1 0x24 PUSH1 0x0 PUSH4 0x4E487B71 PUSH1 0xE0 SHL DUP2 MSTORE PUSH1 0x41 PUSH1 0x4 MSTORE REVERT JUMPDEST PUSH4 0x4E487B71 PUSH1 0xE0 SHL PUSH1 0x0 MSTORE PUSH1 0x41 PUSH1 0x4 MSTORE PUSH1 0x24 PUSH1 0x0 REVERT INVALID PUSH1 0x80 PUSH1 0x40 MSTORE PUSH1 0x4 CALLDATASIZE LT ISZERO PUSH2 0x12 JUMPI PUSH1 0x0 DUP1 REVERT JUMPDEST PUSH1 0x0 CALLDATALOAD PUSH1 0xE0 SHR DUP1 PUSH4 0x8D2A651 EQ PUSH2 0xD7 JUMPI DUP1 PUSH4 0x2418833F EQ PUSH2 0xD2 JUMPI DUP1 PUSH4 0x356B9454 EQ PUSH2 0xCD JUMPI DUP1 PUSH4 0x461A4478 EQ PUSH2 0xC8 JUMPI DUP1 PUSH4 0x46F3C1ED EQ PUSH2 0xC3 JUMPI DUP1 PUSH4 0x47F30BD5 EQ PUSH2 0xBE JUMPI DUP1 PUSH4 0x4C0D9781 EQ PUSH2 0xB9 JUMPI DUP1 PUSH4 0x88B57E95 EQ PUSH2 0xB4 JUMPI DUP1 PUSH4 0x9D9DCABC EQ PUSH2 0xAF JUMPI DUP1 PUSH4 0xB24FCE88 EQ PUSH2 0xAA JUMPI DUP1 PUSH4 0xC76CD403 EQ PUSH2 0xA5 JUMPI PUSH4 0xE714023D EQ PUSH2 0xA0 JUMPI PUSH1 0x0 DUP1 REVERT JUMPDEST PUSH2 0xD2B JUMP JUMPDEST PUSH2 0xCF1 JUMP JUMPDEST PUSH2 0xC80 JUMP JUMPDEST PUSH2 0xB23 JUMP JUMPDEST PUSH2 0x99E JUMP JUMPDEST PUSH2 0x950 JUMP JUMPDEST PUSH2 0x8F1 JUMP JUMPDEST PUSH2 0x73C JUMP JUMPDEST PUSH2 0x61C JUMP JUMPDEST PUSH2 0x5C3 JUMP JUMPDEST PUSH2 0x589 JUMP JUMPDEST PUSH2 0x4EA JUMP JUMPDEST PUSH32 0x4E487B7100000000000000000000000000000000000000000000000000000000 PUSH1 0x0 MSTORE PUSH1 0x41 PUSH1 0x4 MSTORE PUSH1 0x24 PUSH1 0x0 REVERT JUMPDEST PUSH1 0xE0 DUP2 ADD SWAP1 DUP2 LT PUSH8 0xFFFFFFFFFFFFFFFF DUP3 GT OR PUSH2 0x127 JUMPI PUSH1 0x40 MSTORE JUMP JUMPDEST PUSH2 0xDC JUMP JUMPDEST PUSH1 0x40 DUP2 ADD SWAP1 DUP2 LT PUSH8 0xFFFFFFFFFFFFFFFF DUP3 GT OR PUSH2 0x127 JUMPI PUSH1 0x40 MSTORE JUMP JUMPDEST PUSH1 0x80 DUP2 ADD SWAP1 DUP2 LT PUSH8 0xFFFFFFFFFFFFFFFF DUP3 GT OR PUSH2 0x127 JUMPI PUSH1 0x40 MSTORE JUMP JUMPDEST PUSH1 0xC0 DUP2 ADD SWAP1 DUP2 LT PUSH8 0xFFFFFFFFFFFFFFFF DUP3 GT OR PUSH2 0x127 JUMPI PUSH1 0x40 MSTORE JUMP JUMPDEST SWAP1 PUSH1 0x1F PUSH32 0xFFFFFFFFFFFFFFFFFFFFFFFFFFFFFFFFFFFFFFFFFFFFFFFFFFFFFFFFFFFFFFE0 SWAP2 ADD AND DUP2 ADD SWAP1 DUP2 LT PUSH8 0xFFFFFFFFFFFFFFFF DUP3 GT OR PUSH2 0x127 JUMPI PUSH1 0x40 MSTORE JUMP JUMPDEST PUSH1 0x40 MLOAD SWAP1 PUSH2 0x1CE DUP3 PUSH2 0x10B JUMP JUMPDEST JUMP JUMPDEST PUSH1 0x40 MLOAD SWAP1 PUSH2 0x1CE DUP3 PUSH2 0x12C JUMP JUMPDEST PUSH1 0x40 MLOAD SWAP1 PUSH2 0x180 DUP3 ADD DUP3 DUP2 LT PUSH8 0xFFFFFFFFFFFFFFFF DUP3 GT OR PUSH2 0x127 JUMPI PUSH1 0x40 MSTORE JUMP JUMPDEST DUP2 PUSH1 0x1F DUP3 ADD SLT ISZERO PUSH2 0x273 JUMPI DUP1 CALLDATALOAD SWAP1 PUSH8 0xFFFFFFFFFFFFFFFF DUP3 GT PUSH2 0x127 JUMPI PUSH1 0x40 MLOAD SWAP3 PUSH2 0x251 PUSH1 0x20 PUSH32 0xFFFFFFFFFFFFFFFFFFFFFFFFFFFFFFFFFFFFFFFFFFFFFFFFFFFFFFFFFFFFFFE0 PUSH1 0x1F DUP7 ADD AND ADD DUP6 PUSH2 0x180 JUMP JUMPDEST DUP3 DUP5 MSTORE PUSH1 0x20 DUP4 DUP4 ADD ADD GT PUSH2 0x273 JUMPI DUP2 PUSH1 0x0 SWAP3 PUSH1 0x20 DUP1 SWAP4 ADD DUP4 DUP7 ADD CALLDATACOPY DUP4 ADD ADD MSTORE SWAP1 JUMP JUMPDEST PUSH1 0x0 DUP1 REVERT JUMPDEST PUSH1 0x20 PUSH32 0xFFFFFFFFFFFFFFFFFFFFFFFFFFFFFFFFFFFFFFFFFFFFFFFFFFFFFFFFFFFFFFFC DUP3 ADD SLT PUSH2 0x273 JUMPI PUSH1 0x4 CALLDATALOAD SWAP1 PUSH8 0xFFFFFFFFFFFFFFFF DUP3 GT PUSH2 0x273 JUMPI PUSH2 0x2C1 SWAP2 PUSH1 0x4 ADD PUSH2 0x1FE JUMP JUMPDEST SWAP1 JUMP JUMPDEST PUSH1 0x0 JUMPDEST DUP4 DUP2 LT PUSH2 0x2D7 JUMPI POP POP PUSH1 0x0 SWAP2 ADD MSTORE JUMP JUMPDEST DUP2 DUP2 ADD MLOAD DUP4 DUP3 ADD MSTORE PUSH1 0x20 ADD PUSH2 0x2C7 JUMP JUMPDEST PUSH1 0x20 PUSH2 0x300 SWAP2 DUP2 PUSH1 0x40 MLOAD SWAP4 DUP3 DUP6 DUP1 SWAP5 MLOAD SWAP4 DUP5 SWAP3 ADD PUSH2 0x2C4 JUMP JUMPDEST DUP2 ADD PUSH1 0x14 DUP2 MSTORE SUB ADD SWAP1 KECCAK256 SWAP1 JUMP JUMPDEST PUSH1 0x20 PUSH2 0x326 SWAP2 DUP2 PUSH1 0x40 MLOAD SWAP4 DUP3 DUP6 DUP1 SWAP5 MLOAD SWAP4 DUP5 SWAP3 ADD PUSH2 0x2C4 JUMP JUMPDEST DUP2 ADD PUSH1 0x15 DUP2 MSTORE SUB ADD SWAP1 KECCAK256 SWAP1 JUMP JUMPDEST PUSH1 0x20 PUSH2 0x34C SWAP2 DUP2 PUSH1 0x40 MLOAD SWAP4 DUP3 DUP6 DUP1 SWAP5 MLOAD SWAP4 DUP5 SWAP3 ADD PUSH2 0x2C4 JUMP JUMPDEST DUP2 ADD PUSH1 0x16 DUP2 MSTORE SUB ADD SWAP1 KECCAK256 SWAP1 JUMP JUMPDEST SWAP1 PUSH1 0x1 DUP3 DUP2 SHR SWAP3 AND DUP1 ISZERO PUSH2 0x3A2 JUMPI JUMPDEST PUSH1 0x20 DUP4 LT EQ PUSH2 0x373 JUMPI JUMP JUMPDEST PUSH32 0x4E487B7100000000000000000000000000000000000000000000000000000000 PUSH1 0x0 MSTORE PUSH1 0x22 PUSH1 0x4 MSTORE PUSH1 0x24 PUSH1 0x0 REVERT JUMPDEST SWAP2 PUSH1 0x7F AND SWAP2 PUSH2 0x368 JUMP JUMPDEST SWAP1 PUSH1 0x40 MLOAD SWAP2 DUP3 PUSH1 0x0 DUP3 SLOAD PUSH2 0x3BF DUP2 PUSH2 0x359 JUMP JUMPDEST SWAP1 DUP2 DUP5 MSTORE PUSH1 0x20 SWAP5 PUSH1 0x1 SWAP2 PUSH1 0x1 DUP2 AND SWAP1 DUP2 PUSH1 0x0 EQ PUSH2 0x42D JUMPI POP PUSH1 0x1 EQ PUSH2 0x3EE JUMPI JUMPDEST POP POP POP PUSH2 0x1CE SWAP3 POP SUB DUP4 PUSH2 0x180 JUMP JUMPDEST PUSH1 0x0 SWAP1 DUP2 MSTORE DUP6 DUP2 KECCAK256 SWAP6 SWAP4 POP SWAP2 SWAP1 JUMPDEST DUP2 DUP4 LT PUSH2 0x415 JUMPI POP POP PUSH2 0x1CE SWAP4 POP DUP3 ADD ADD CODESIZE DUP1 DUP1 PUSH2 0x3DF JUMP JUMPDEST DUP6 SLOAD DUP9 DUP5 ADD DUP6 ADD MSTORE SWAP5 DUP6 ADD SWAP5 DUP8 SWAP5 POP SWAP2 DUP4 ADD SWAP2 PUSH2 0x3FC JUMP JUMPDEST SWAP2 POP POP PUSH2 0x1CE SWAP6 SWAP4 POP PUSH32 0xFFFFFFFFFFFFFFFFFFFFFFFFFFFFFFFFFFFFFFFFFFFFFFFFFFFFFFFFFFFFFF00 SWAP2 POP AND DUP3 DUP5 ADD MSTORE ISZERO ISZERO PUSH1 0x5 SHL DUP3 ADD ADD CODESIZE DUP1 DUP1 PUSH2 0x3DF JUMP JUMPDEST SWAP1 PUSH32 0xFFFFFFFFFFFFFFFFFFFFFFFFFFFFFFFFFFFFFFFFFFFFFFFFFFFFFFFFFFFFFFE0 PUSH1 0x1F PUSH1 0x20 SWAP4 PUSH2 0x4AA DUP2 MLOAD DUP1 SWAP3 DUP2 DUP8 MSTORE DUP8 DUP1 DUP9 ADD SWAP2 ADD PUSH2 0x2C4 JUMP JUMPDEST ADD AND ADD ADD SWAP1 JUMP JUMPDEST PUSH1 0x2 GT ISZERO PUSH2 0x4BB JUMPI JUMP JUMPDEST PUSH32 0x4E487B7100000000000000000000000000000000000000000000000000000000 PUSH1 0x0 MSTORE PUSH1 0x21 PUSH1 0x4 MSTORE PUSH1 0x24 PUSH1 0x0 REVERT JUMPDEST CALLVALUE PUSH2 0x273 JUMPI PUSH2 0x500 PUSH2 0x4FB CALLDATASIZE PUSH2 0x278 JUMP JUMPDEST PUSH2 0x2E7 JUMP JUMPDEST PUSH2 0x509 DUP2 PUSH2 0x3AC JUMP JUMPDEST SWAP1 PUSH1 0x1 DUP2 ADD SLOAD PUSH1 0x2 DUP3 ADD SLOAD SWAP1 PUSH1 0x3 DUP4 ADD SLOAD SWAP1 PUSH1 0xFF PUSH1 0x4 DUP6 ADD SLOAD AND SWAP2 PUSH1 0xFF PUSH1 0x6 PUSH2 0x534 PUSH1 0x5 DUP9 ADD PUSH2 0x3AC JUMP JUMPDEST SWAP7 ADD SLOAD AND SWAP4 PUSH2 0x54E PUSH1 0x40 MLOAD SWAP8 PUSH1 0xE0 DUP10 MSTORE PUSH1 0xE0 DUP10 ADD SWAP1 PUSH2 0x46E JUMP JUMPDEST SWAP3 PUSH1 0x20 DUP9 ADD MSTORE PUSH1 0x40 DUP8 ADD MSTORE PUSH1 0x60 DUP7 ADD MSTORE PUSH1 0x2 DUP3 LT ISZERO PUSH2 0x4BB JUMPI DUP5 SWAP4 PUSH2 0x57F SWAP3 PUSH1 0x80 DUP7 ADD MSTORE DUP5 DUP3 SUB PUSH1 0xA0 DUP7 ADD MSTORE PUSH2 0x46E JUMP JUMPDEST SWAP1 PUSH1 0xC0 DUP4 ADD MSTORE SUB SWAP1 RETURN JUMPDEST CALLVALUE PUSH2 0x273 JUMPI PUSH1 0x0 PUSH32 0xFFFFFFFFFFFFFFFFFFFFFFFFFFFFFFFFFFFFFFFFFFFFFFFFFFFFFFFFFFFFFFFC CALLDATASIZE ADD SLT PUSH2 0x273 JUMPI PUSH1 0x20 PUSH1 0x40 MLOAD PUSH1 0xD DUP2 MSTORE RETURN JUMPDEST CALLVALUE PUSH2 0x273 JUMPI PUSH1 0x0 PUSH32 0xFFFFFFFFFFFFFFFFFFFFFFFFFFFFFFFFFFFFFFFFFFFFFFFFFFFFFFFFFFFFFFFC CALLDATASIZE ADD SLT PUSH2 0x273 JUMPI PUSH1 0x20 PUSH1 0x40 MLOAD PUSH32 0x283B208957FE4FA6F6029DAABCFEDDAD5C9B5D110A38B1816631F64E563F8584 DUP2 MSTORE RETURN JUMPDEST CALLVALUE PUSH2 0x273 JUMPI PUSH2 0x62A CALLDATASIZE PUSH2 0x278 JUMP JUMPDEST PUSH2 0x63F PUSH1 0xFF PUSH2 0x638 DUP4 PUSH2 0x30D JUMP JUMPDEST SLOAD AND PUSH2 0xD84 JUMP JUMPDEST PUSH1 0xFF PUSH1 0x4 PUSH2 0x64C DUP4 PUSH2 0x2E7 JUMP JUMPDEST ADD SLOAD AND SWAP1 PUSH1 0x2 DUP3 LT ISZERO PUSH2 0x4BB JUMPI PUSH2 0x4FB PUSH2 0x666 SWAP3 ISZERO PUSH2 0xDE9 JUMP JUMPDEST PUSH2 0x677 PUSH1 0x5 PUSH1 0x2 DUP4 ADD SLOAD SWAP3 ADD PUSH2 0x3AC JUMP JUMPDEST SWAP1 PUSH2 0x694 PUSH1 0x40 MLOAD SWAP3 DUP4 SWAP3 DUP4 MSTORE PUSH1 0x40 PUSH1 0x20 DUP5 ADD MSTORE PUSH1 0x40 DUP4 ADD SWAP1 PUSH2 0x46E JUMP JUMPDEST SUB SWAP1 RETURN JUMPDEST DUP1 PUSH1 0x43 SLT ISZERO PUSH2 0x273 JUMPI PUSH1 0x40 MLOAD SWAP1 PUSH2 0x6AE DUP3 PUSH2 0x12C JUMP JUMPDEST DUP2 PUSH1 0x64 SWAP2 PUSH1 0x64 GT PUSH2 0x273 JUMPI PUSH1 0x24 SWAP1 JUMPDEST DUP3 DUP3 LT PUSH2 0x6CA JUMPI POP POP POP SWAP1 JUMP JUMPDEST DUP2 CALLDATALOAD DUP2 MSTORE PUSH1 0x20 SWAP2 DUP3 ADD SWAP2 ADD PUSH2 0x6BD JUMP JUMPDEST DUP1 PUSH1 0x63 SLT ISZERO PUSH2 0x273 JUMPI PUSH1 0x40 MLOAD SWAP1 PUSH2 0x6F0 DUP3 PUSH2 0x12C JUMP JUMPDEST DUP2 PUSH1 0x84 SWAP2 PUSH1 0x84 GT PUSH2 0x273 JUMPI PUSH1 0x44 SWAP1 JUMPDEST DUP3 DUP3 LT PUSH2 0x70C JUMPI POP POP POP SWAP1 JUMP JUMPDEST DUP2 CALLDATALOAD DUP2 MSTORE PUSH1 0x20 SWAP2 DUP3 ADD SWAP2 ADD PUSH2 0x6FF JUMP JUMPDEST PUSH1 0x64 CALLDATALOAD SWAP1 PUSH1 0xFF DUP3 AND DUP3 SUB PUSH2 0x273 JUMPI JUMP JUMPDEST PUSH1 0x84 CALLDATALOAD SWAP1 PUSH1 0xFF DUP3 AND DUP3 SUB PUSH2 0x273 JUMPI JUMP JUMPDEST CALLVALUE PUSH2 0x273 JUMPI PUSH1 0x80 PUSH32 0xFFFFFFFFFFFFFFFFFFFFFFFFFFFFFFFFFFFFFFFFFFFFFFFFFFFFFFFFFFFFFFFC CALLDATASIZE ADD SLT PUSH2 0x273 JUMPI PUSH1 0x4 CALLDATALOAD PUSH8 0xFFFFFFFFFFFFFFFF DUP2 GT PUSH2 0x273 JUMPI PUSH2 0x78B SWAP1 CALLDATASIZE SWAP1 PUSH1 0x4 ADD PUSH2 0x1FE JUMP JUMPDEST PUSH2 0x794 CALLDATASIZE PUSH2 0x698 JUMP JUMPDEST SWAP1 PUSH2 0x79D PUSH2 0x71C JUMP JUMPDEST PUSH2 0x7AB PUSH1 0xFF PUSH2 0x638 DUP5 PUSH2 0x30D JUMP JUMPDEST PUSH1 0xFF PUSH1 0x4 PUSH2 0x7B8 DUP5 PUSH2 0x2E7 JUMP JUMPDEST ADD SLOAD AND SWAP3 PUSH1 0x2 DUP5 LT ISZERO PUSH2 0x4BB JUMPI PUSH2 0x7D2 PUSH2 0x8BF SWAP5 ISZERO PUSH2 0xDE9 JUMP JUMPDEST PUSH2 0x876 PUSH2 0x870 PUSH2 0x7E1 DUP6 PUSH2 0x2E7 JUMP JUMPDEST SWAP4 PUSH2 0x86B PUSH1 0x1 DUP7 ADD SWAP5 PUSH2 0x84A PUSH2 0x83B DUP8 SLOAD PUSH2 0x82E PUSH1 0x60 DUP13 PUSH1 0x40 MLOAD SWAP4 DUP2 PUSH2 0x811 DUP7 SWAP4 MLOAD DUP1 SWAP3 PUSH1 0x20 DUP1 DUP8 ADD SWAP2 ADD PUSH2 0x2C4 JUMP JUMPDEST DUP3 ADD SWAP1 PUSH1 0x0 PUSH1 0x20 DUP4 ADD MSTORE PUSH1 0x40 DUP3 ADD MSTORE SUB PUSH1 0x40 DUP2 ADD DUP5 MSTORE ADD DUP3 PUSH2 0x180 JUMP JUMPDEST PUSH2 0x836 PUSH2 0xE71 JUMP JUMPDEST PUSH2 0x15B0 JUMP JUMPDEST SWAP4 PUSH2 0x844 PUSH2 0xEAA JUMP JUMPDEST POP PUSH2 0x187B JUMP JUMPDEST PUSH2 0x864 PUSH2 0x85E PUSH1 0x6 DUP12 SWAP7 SWAP5 SWAP7 ADD SLOAD PUSH1 0xFF AND SWAP1 JUMP JUMPDEST PUSH1 0xFF AND SWAP1 JUMP JUMPDEST GT ISZERO PUSH2 0xF0B JUMP JUMPDEST PUSH2 0x195C JUMP JUMPDEST POP PUSH2 0xF70 JUMP JUMPDEST PUSH2 0x8A8 PUSH1 0x4 DUP4 ADD PUSH1 0x1 PUSH32 0xFFFFFFFFFFFFFFFFFFFFFFFFFFFFFFFFFFFFFFFFFFFFFFFFFFFFFFFFFFFFFF00 DUP3 SLOAD AND OR SWAP1 SSTORE JUMP JUMPDEST PUSH2 0x8B2 DUP2 SLOAD PUSH2 0x1032 JUMP JUMPDEST SWAP1 SSTORE PUSH1 0x3 TIMESTAMP SWAP2 ADD SSTORE PUSH2 0x105F JUMP JUMPDEST PUSH1 0x40 MLOAD SWAP1 PUSH32 0x8D5D0F9333534DA02EF5F341FE3F88A64F03B3D4CA4AEF5BFDB6E3D5CDECE101 PUSH1 0x0 DUP1 LOG2 PUSH1 0x1 DUP2 MSTORE PUSH1 0x20 SWAP1 RETURN JUMPDEST CALLVALUE PUSH2 0x273 JUMPI PUSH1 0x20 PUSH1 0xFF PUSH2 0x90B PUSH2 0x906 CALLDATASIZE PUSH2 0x278 JUMP JUMPDEST PUSH2 0x30D JUMP JUMPDEST SLOAD AND PUSH1 0x40 MLOAD SWAP1 ISZERO ISZERO DUP2 MSTORE RETURN JUMPDEST PUSH1 0x40 MLOAD SWAP1 PUSH2 0x924 DUP3 PUSH2 0x12C JUMP JUMPDEST PUSH1 0xD DUP3 MSTORE PUSH32 0x6469643A626C6F636B6132613A00000000000000000000000000000000000000 PUSH1 0x20 DUP4 ADD MSTORE JUMP JUMPDEST CALLVALUE PUSH2 0x273 JUMPI PUSH1 0x0 PUSH32 0xFFFFFFFFFFFFFFFFFFFFFFFFFFFFFFFFFFFFFFFFFFFFFFFFFFFFFFFFFFFFFFFC CALLDATASIZE ADD SLT PUSH2 0x273 JUMPI PUSH2 0x694 PUSH2 0x98A PUSH2 0x917 JUMP JUMPDEST PUSH1 0x40 MLOAD SWAP2 DUP3 SWAP2 PUSH1 0x20 DUP4 MSTORE PUSH1 0x20 DUP4 ADD SWAP1 PUSH2 0x46E JUMP JUMPDEST CALLVALUE PUSH2 0x273 JUMPI PUSH1 0x80 PUSH32 0xFFFFFFFFFFFFFFFFFFFFFFFFFFFFFFFFFFFFFFFFFFFFFFFFFFFFFFFFFFFFFFFC CALLDATASIZE ADD SLT PUSH2 0x273 JUMPI PUSH8 0xFFFFFFFFFFFFFFFF PUSH1 0x4 CALLDATALOAD DUP2 DUP2 GT PUSH2 0x273 JUMPI PUSH2 0x9EE SWAP1 CALLDATASIZE SWAP1 PUSH1 0x4 ADD PUSH2 0x1FE JUMP JUMPDEST SWAP1 PUSH1 0x24 CALLDATALOAD SWAP2 PUSH1 0x44 CALLDATALOAD SWAP2 DUP3 GT PUSH2 0x273 JUMPI PUSH2 0xAA2 PUSH2 0xA11 PUSH2 0xAF0 SWAP4 CALLDATASIZE SWAP1 PUSH1 0x4 ADD PUSH2 0x1FE JUMP JUMPDEST PUSH2 0xA94 PUSH2 0xA1C PUSH2 0x71C JUMP JUMPDEST PUSH2 0xA2D PUSH2 0xA28 DUP7 PUSH2 0x1A8F JUMP JUMPDEST PUSH2 0x107F JUMP JUMPDEST PUSH2 0xA4F PUSH2 0xA4A PUSH2 0xA46 PUSH2 0xA3F DUP9 PUSH2 0x30D JUMP JUMPDEST SLOAD PUSH1 0xFF AND SWAP1 JUMP JUMPDEST ISZERO SWAP1 JUMP JUMPDEST PUSH2 0x10E4 JUMP JUMPDEST PUSH2 0xA5D PUSH1 0xFF DUP3 AND ISZERO ISZERO PUSH2 0x1149 JUMP JUMPDEST PUSH2 0xA65 PUSH2 0x1C1 JUMP JUMPDEST SWAP3 DUP6 DUP5 MSTORE PUSH1 0x1 PUSH1 0x20 DUP6 ADD MSTORE DUP8 PUSH1 0x40 DUP6 ADD MSTORE TIMESTAMP PUSH1 0x60 DUP6 ADD MSTORE PUSH1 0x0 PUSH1 0x80 DUP6 ADD MSTORE PUSH1 0xA0 DUP5 ADD MSTORE PUSH1 0xC0 DUP4 ADD SWAP1 PUSH1 0xFF AND SWAP1 MSTORE JUMP JUMPDEST PUSH2 0xA9D DUP4 PUSH2 0x2E7 JUMP JUMPDEST PUSH2 0x1359 JUMP JUMPDEST PUSH2 0xAD9 PUSH2 0xAAE DUP3 PUSH2 0x30D JUMP JUMPDEST PUSH1 0x1 PUSH32 0xFFFFFFFFFFFFFFFFFFFFFFFFFFFFFFFFFFFFFFFFFFFFFFFFFFFFFFFFFFFFFF00 DUP3 SLOAD AND OR SWAP1 SSTORE JUMP JUMPDEST PUSH2 0xAEB PUSH2 0xAE5 DUP3 PUSH2 0x333 JUMP JUMPDEST PUSH1 0x1 SWAP1 SSTORE JUMP JUMPDEST PUSH2 0x105F JUMP JUMPDEST SWAP1 PUSH1 0x40 MLOAD SWAP2 PUSH32 0x64B17621560ACDF371CC9090466395C4EDACECC3ACC35947973DB19D2FB2CF14 PUSH1 0x0 DUP1 LOG3 PUSH1 0x1 DUP2 MSTORE PUSH1 0x20 SWAP1 RETURN JUMPDEST CALLVALUE PUSH2 0x273 JUMPI PUSH1 0xA0 PUSH32 0xFFFFFFFFFFFFFFFFFFFFFFFFFFFFFFFFFFFFFFFFFFFFFFFFFFFFFFFFFFFFFFFC CALLDATASIZE ADD SLT PUSH2 0x273 JUMPI PUSH1 0x4 CALLDATALOAD PUSH8 0xFFFFFFFFFFFFFFFF DUP2 GT PUSH2 0x273 JUMPI PUSH2 0xB72 SWAP1 CALLDATASIZE SWAP1 PUSH1 0x4 ADD PUSH2 0x1FE JUMP JUMPDEST PUSH1 0x24 CALLDATALOAD SWAP1 PUSH2 0xB7F CALLDATASIZE PUSH2 0x6DA JUMP JUMPDEST SWAP1 PUSH2 0xB88 PUSH2 0x72C JUMP JUMPDEST SWAP2 PUSH2 0xB97 PUSH1 0xFF PUSH2 0x638 DUP5 PUSH2 0x30D JUMP JUMPDEST PUSH1 0xFF PUSH1 0x4 PUSH2 0xBA4 DUP5 PUSH2 0x2E7 JUMP JUMPDEST ADD SLOAD AND SWAP3 PUSH1 0x2 DUP5 LT ISZERO PUSH2 0x4BB JUMPI PUSH2 0xBBE PUSH2 0xC4D SWAP5 ISZERO PUSH2 0xDE9 JUMP JUMPDEST PUSH2 0x8B2 PUSH2 0xBCA DUP5 PUSH2 0x2E7 JUMP JUMPDEST SWAP3 PUSH2 0xC42 PUSH2 0x870 PUSH1 0x1 DUP7 ADD SWAP5 PUSH2 0x86B DUP7 SLOAD SWAP5 PUSH2 0xC2E PUSH2 0x83B DUP14 PUSH2 0xC26 DUP14 PUSH2 0xBFA DUP12 PUSH1 0x40 MLOAD SWAP5 DUP6 SWAP4 PUSH1 0x20 DUP6 ADD PUSH2 0xE4E JUMP JUMPDEST SUB PUSH32 0xFFFFFFFFFFFFFFFFFFFFFFFFFFFFFFFFFFFFFFFFFFFFFFFFFFFFFFFFFFFFFFE0 DUP2 ADD DUP4 MSTORE DUP3 PUSH2 0x180 JUMP JUMPDEST PUSH2 0x836 PUSH2 0x151A JUMP JUMPDEST PUSH2 0x864 PUSH2 0x85E PUSH1 0x6 DUP14 SWAP7 SWAP5 SWAP7 ADD SLOAD PUSH1 0xFF AND SWAP1 JUMP JUMPDEST DUP7 PUSH1 0x2 DUP6 ADD SSTORE PUSH2 0x1032 JUMP JUMPDEST SWAP1 PUSH1 0x40 MLOAD SWAP2 PUSH32 0xFBCCB49FCBA0DB7422ED2970AE7E545A0133B0D0343C5CD282B5A877EF95C487 PUSH1 0x0 DUP1 LOG3 PUSH1 0x1 DUP2 MSTORE PUSH1 0x20 SWAP1 RETURN JUMPDEST CALLVALUE PUSH2 0x273 JUMPI PUSH1 0x20 PUSH2 0xC98 PUSH2 0xC93 CALLDATASIZE PUSH2 0x278 JUMP JUMPDEST PUSH2 0x333 JUMP JUMPDEST SLOAD PUSH1 0x40 MLOAD SWAP1 DUP2 MSTORE RETURN JUMPDEST PUSH32 0x4E487B7100000000000000000000000000000000000000000000000000000000 PUSH1 0x0 MSTORE PUSH1 0x11 PUSH1 0x4 MSTORE PUSH1 0x24 PUSH1 0x0 REVERT JUMPDEST SWAP1 PUSH1 0x1 DUP3 ADD DUP1 SWAP3 GT PUSH2 0xCDE JUMPI JUMP JUMPDEST PUSH2 0xCA1 JUMP JUMPDEST PUSH1 0x1 ADD SWAP1 DUP2 PUSH1 0x1 GT PUSH2 0xCDE JUMPI JUMP JUMPDEST CALLVALUE PUSH2 0x273 JUMPI PUSH1 0x0 PUSH32 0xFFFFFFFFFFFFFFFFFFFFFFFFFFFFFFFFFFFFFFFFFFFFFFFFFFFFFFFFFFFFFFFC CALLDATASIZE ADD SLT PUSH2 0x273 JUMPI PUSH1 0x20 PUSH1 0x40 MLOAD PUSH1 0x17 DUP2 MSTORE RETURN JUMPDEST CALLVALUE PUSH2 0x273 JUMPI PUSH1 0x0 PUSH32 0xFFFFFFFFFFFFFFFFFFFFFFFFFFFFFFFFFFFFFFFFFFFFFFFFFFFFFFFFFFFFFFFC CALLDATASIZE ADD SLT PUSH2 0x273 JUMPI PUSH1 0x20 PUSH1 0x40 MLOAD PUSH32 0x6688844A85E8870F0474F90AA6D22975F9E2E6D3485E6ABB706BE219AB7CD70B DUP2 MSTORE RETURN JUMPDEST ISZERO PUSH2 0xD8B JUMPI JUMP JUMPDEST PUSH1 0x64 PUSH1 0x40 MLOAD PUSH32 0x8C379A000000000000000000000000000000000000000000000000000000000 DUP2 MSTORE PUSH1 0x20 PUSH1 0x4 DUP3 ADD MSTORE PUSH1 0x17 PUSH1 0x24 DUP3 ADD MSTORE PUSH32 0x4147433A20444944206E6F742072656769737465726564000000000000000000 PUSH1 0x44 DUP3 ADD MSTORE REVERT JUMPDEST ISZERO PUSH2 0xDF0 JUMPI JUMP JUMPDEST PUSH1 0x64 PUSH1 0x40 MLOAD PUSH32 0x8C379A000000000000000000000000000000000000000000000000000000000 DUP2 MSTORE PUSH1 0x20 PUSH1 0x4 DUP3 ADD MSTORE PUSH1 0x13 PUSH1 0x24 DUP3 ADD MSTORE PUSH32 0x4147433A20444944206E6F742061637469766500000000000000000000000000 PUSH1 0x44 DUP3 ADD MSTORE REVERT JUMPDEST PUSH1 0x20 SWAP1 PUSH2 0xE64 PUSH1 0x40 SWAP6 SWAP4 DUP3 DUP2 MLOAD SWAP5 DUP6 SWAP3 ADD PUSH2 0x2C4 JUMP JUMPDEST ADD SWAP2 DUP3 MSTORE PUSH1 0x20 DUP3 ADD MSTORE ADD SWAP1 JUMP JUMPDEST PUSH1 0x40 MLOAD SWAP1 PUSH2 0xE7E DUP3 PUSH2 0x12C JUMP JUMPDEST PUSH1 0xA DUP3 MSTORE PUSH32 0x4147432D7265766F6B6500000000000000000000000000000000000000000000 PUSH1 0x20 DUP4 ADD MSTORE JUMP JUMPDEST PUSH1 0x40 MLOAD SWAP1 PUSH2 0xEB7 DUP3 PUSH2 0x148 JUMP JUMPDEST PUSH1 0x80 CALLDATASIZE DUP4 CALLDATACOPY JUMP JUMPDEST PUSH1 0x40 MLOAD SWAP1 PUSH2 0xECB DUP3 PUSH2 0x12C JUMP JUMPDEST PUSH1 0x40 CALLDATASIZE DUP4 CALLDATACOPY JUMP JUMPDEST PUSH1 0x40 MLOAD SWAP1 PUSH1 0x20 DUP3 ADD DUP3 DUP2 LT PUSH8 0xFFFFFFFFFFFFFFFF DUP3 GT OR PUSH2 0x127 JUMPI PUSH1 0x40 MSTORE PUSH1 0x20 CALLDATASIZE DUP4 CALLDATACOPY JUMP JUMPDEST PUSH1 0x40 MLOAD SWAP1 PUSH2 0xF04 DUP3 PUSH2 0x164 JUMP JUMPDEST PUSH1 0xC0 CALLDATASIZE DUP4 CALLDATACOPY JUMP JUMPDEST ISZERO PUSH2 0xF12 JUMPI JUMP JUMPDEST PUSH1 0x64 PUSH1 0x40 MLOAD PUSH32 0x8C379A000000000000000000000000000000000000000000000000000000000 DUP2 MSTORE PUSH1 0x20 PUSH1 0x4 DUP3 ADD MSTORE PUSH1 0x17 PUSH1 0x24 DUP3 ADD MSTORE PUSH32 0x4147433A206E6F7420656E6F756768207369676E657273000000000000000000 PUSH1 0x44 DUP3 ADD MSTORE REVERT JUMPDEST ISZERO PUSH2 0xF77 JUMPI JUMP JUMPDEST PUSH1 0x84 PUSH1 0x40 MLOAD PUSH32 0x8C379A000000000000000000000000000000000000000000000000000000000 DUP2 MSTORE PUSH1 0x20 PUSH1 0x4 DUP3 ADD MSTORE PUSH1 0x2C PUSH1 0x24 DUP3 ADD MSTORE PUSH32 0x4147433A20616767726567617465207369676E61747572652076657269666963 PUSH1 0x44 DUP3 ADD MSTORE PUSH32 0x6174696F6E206661696C65640000000000000000000000000000000000000000 PUSH1 0x64 DUP3 ADD MSTORE REVERT JUMPDEST SWAP1 PUSH1 0x2 DUP2 LT ISZERO PUSH2 0x4BB JUMPI PUSH1 0xFF PUSH32 0xFFFFFFFFFFFFFFFFFFFFFFFFFFFFFFFFFFFFFFFFFFFFFFFFFFFFFFFFFFFFFF00 DUP4 SLOAD AND SWAP2 AND OR SWAP1 SSTORE JUMP JUMPDEST PUSH32 0xFFFFFFFFFFFFFFFFFFFFFFFFFFFFFFFFFFFFFFFFFFFFFFFFFFFFFFFFFFFFFFFF DUP2 EQ PUSH2 0xCDE JUMPI PUSH1 0x1 ADD SWAP1 JUMP JUMPDEST PUSH2 0x1077 SWAP1 PUSH1 0x20 PUSH1 0x40 MLOAD SWAP3 DUP3 DUP5 DUP1 SWAP5 MLOAD SWAP4 DUP5 SWAP3 ADD PUSH2 0x2C4 JUMP JUMPDEST DUP2 ADD SUB SWAP1 KECCAK256 SWAP1 JUMP JUMPDEST ISZERO PUSH2 0x1086 JUMPI JUMP JUMPDEST PUSH1 0x64 PUSH1 0x40 MLOAD PUSH32 0x8C379A000000000000000000000000000000000000000000000000000000000 DUP2 MSTORE PUSH1 0x20 PUSH1 0x4 DUP3 ADD MSTORE PUSH1 0x17 PUSH1 0x24 DUP3 ADD MSTORE PUSH32 0x4147433A20496E76616C69642044494420666F726D6174000000000000000000 PUSH1 0x44 DUP3 ADD MSTORE REVERT JUMPDEST ISZERO PUSH2 0x10EB JUMPI JUMP JUMPDEST PUSH1 0x64 PUSH1 0x40 MLOAD PUSH32 0x8C379A000000000000000000000000000000000000000000000000000000000 DUP2 MSTORE PUSH1 0x20 PUSH1 0x4 DUP3 ADD MSTORE PUSH1 0x1B PUSH1 0x24 DUP3 ADD MSTORE PUSH32 0x4147433A2044494420616C726561647920726567697374657265640000000000 PUSH1 0x44 DUP3 ADD MSTORE REVERT JUMPDEST ISZERO PUSH2 0x1150 JUMPI JUMP JUMPDEST PUSH1 0x84 PUSH1 0x40 MLOAD PUSH32 0x8C379A000000000000000000000000000000000000000000000000000000000 DUP2 MSTORE PUSH1 0x20 PUSH1 0x4 DUP3 ADD MSTORE PUSH1 0x29 PUSH1 0x24 DUP3 ADD MSTORE PUSH32 0x4147433A20726571756972656453696773466F72436170557064617465206D75 PUSH1 0x44 DUP3 ADD MSTORE PUSH32 0x7374206265203E20300000000000000000000000000000000000000000000000 PUSH1 0x64 DUP3 ADD MSTORE REVERT JUMPDEST SWAP1 PUSH1 0x1F DUP2 GT PUSH2 0x11E2 JUMPI POP POP POP JUMP JUMPDEST PUSH1 0x0 SWAP2 PUSH1 0x0 MSTORE PUSH1 0x20 PUSH1 0x0 KECCAK256 SWAP1 PUSH1 0x20 PUSH1 0x1F DUP6 ADD PUSH1 0x5 SHR DUP4 ADD SWAP5 LT PUSH2 0x1220 JUMPI JUMPDEST PUSH1 0x1F ADD PUSH1 0x5 SHR ADD SWAP2 JUMPDEST DUP3 DUP2 LT PUSH2 0x1215 JUMPI POP POP POP JUMP JUMPDEST DUP2 DUP2 SSTORE PUSH1 0x1 ADD PUSH2 0x1209 JUMP JUMPDEST SWAP1 SWAP3 POP DUP3 SWAP1 PUSH2 0x1200 JUMP JUMPDEST SWAP2 SWAP1 SWAP2 DUP3 MLOAD PUSH8 0xFFFFFFFFFFFFFFFF DUP2 GT PUSH2 0x127 JUMPI PUSH2 0x1252 DUP2 PUSH2 0x124C DUP5 SLOAD PUSH2 0x359 JUMP JUMPDEST DUP5 PUSH2 0x11D4 JUMP JUMPDEST PUSH1 0x20 DUP1 PUSH1 0x1F DUP4 GT PUSH1 0x1 EQ PUSH2 0x12B2 JUMPI POP DUP2 SWAP1 PUSH2 0x12A3 SWAP4 SWAP5 SWAP6 PUSH1 0x0 SWAP3 PUSH2 0x12A7 JUMPI JUMPDEST POP POP PUSH32 0xFFFFFFFFFFFFFFFFFFFFFFFFFFFFFFFFFFFFFFFFFFFFFFFFFFFFFFFFFFFFFFFF DUP3 PUSH1 0x1 SHL SWAP3 PUSH1 0x3 SHL SHR NOT AND OR SWAP1 JUMP JUMPDEST SWAP1 SSTORE JUMP JUMPDEST ADD MLOAD SWAP1 POP CODESIZE DUP1 PUSH2 0x1271 JUMP JUMPDEST SWAP1 PUSH32 0xFFFFFFFFFFFFFFFFFFFFFFFFFFFFFFFFFFFFFFFFFFFFFFFFFFFFFFFFFFFFFFE0 DUP4 AND SWAP6 PUSH2 0x12E6 DUP6 PUSH1 0x0 MSTORE PUSH1 0x20 PUSH1 0x0 KECCAK256 SWAP1 JUMP JUMPDEST SWAP3 PUSH1 0x0 SWAP1 JUMPDEST DUP9 DUP3 LT PUSH2 0x1341 JUMPI POP POP DUP4 PUSH1 0x1 SWAP6 SWAP7 SWAP8 LT PUSH2 0x130A JUMPI JUMPDEST POP POP POP DUP2 SHL ADD SWAP1 SSTORE JUMP JUMPDEST ADD MLOAD PUSH32 0xFFFFFFFFFFFFFFFFFFFFFFFFFFFFFFFFFFFFFFFFFFFFFFFFFFFFFFFFFFFFFFFF PUSH1 0xF8 DUP5 PUSH1 0x3 SHL AND SHR NOT AND SWAP1 SSTORE CODESIZE DUP1 DUP1 PUSH2 0x1300 JUMP JUMPDEST DUP1 PUSH1 0x1 DUP6 SWAP7 DUP3 SWAP5 SWAP7 DUP7 ADD MLOAD DUP2 SSTORE ADD SWAP6 ADD SWAP4 ADD SWAP1 PUSH2 0x12EB JUMP JUMPDEST SWAP2 SWAP1 SWAP2 DUP3 MLOAD SWAP3 DUP4 MLOAD PUSH8 0xFFFFFFFFFFFFFFFF DUP2 GT PUSH2 0x127 JUMPI PUSH2 0x1384 DUP2 PUSH2 0x137E DUP6 SLOAD PUSH2 0x359 JUMP JUMPDEST DUP6 PUSH2 0x11D4 JUMP JUMPDEST PUSH1 0x20 DUP1 PUSH1 0x1F DUP4 GT PUSH1 0x1 EQ PUSH2 0x1462 JUMPI POP PUSH1 0x6 SWAP3 PUSH2 0x13DF DUP4 PUSH2 0x1433 SWAP5 PUSH1 0xC0 SWAP5 PUSH2 0x1CE SWAP10 SWAP11 PUSH1 0x0 SWAP3 PUSH2 0x12A7 JUMPI POP POP PUSH32 0xFFFFFFFFFFFFFFFFFFFFFFFFFFFFFFFFFFFFFFFFFFFFFFFFFFFFFFFFFFFFFFFF DUP3 PUSH1 0x1 SHL SWAP3 PUSH1 0x3 SHL SHR NOT AND OR SWAP1 JUMP JUMPDEST DUP6 SSTORE JUMPDEST PUSH1 0x20 DUP2 ADD MLOAD PUSH1 0x1 DUP7 ADD SSTORE PUSH1 0x40 DUP2 ADD MLOAD PUSH1 0x2 DUP7 ADD SSTORE PUSH1 0x60 DUP2 ADD MLOAD PUSH1 0x3 DUP7 ADD SSTORE PUSH2 0x141A PUSH1 0x80 DUP3 ADD MLOAD PUSH2 0x1411 DUP2 PUSH2 0x4B1 JUMP JUMPDEST PUSH1 0x4 DUP8 ADD PUSH2 0xFFB JUMP JUMPDEST PUSH2 0x142B PUSH1 0xA0 DUP3 ADD MLOAD PUSH1 0x5 DUP8 ADD PUSH2 0x122A JUMP JUMPDEST ADD MLOAD PUSH1 0xFF AND SWAP1 JUMP JUMPDEST SWAP2 ADD SWAP1 PUSH1 0xFF AND PUSH32 0xFFFFFFFFFFFFFFFFFFFFFFFFFFFFFFFFFFFFFFFFFFFFFFFFFFFFFFFFFFFFFF00 DUP3 SLOAD AND OR SWAP1 SSTORE JUMP JUMPDEST SWAP1 PUSH32 0xFFFFFFFFFFFFFFFFFFFFFFFFFFFFFFFFFFFFFFFFFFFFFFFFFFFFFFFFFFFFFFE0 DUP4 AND SWAP7 PUSH2 0x1496 DUP7 PUSH1 0x0 MSTORE PUSH1 0x20 PUSH1 0x0 KECCAK256 SWAP1 JUMP JUMPDEST SWAP3 PUSH1 0x0 SWAP1 JUMPDEST DUP10 DUP3 LT PUSH2 0x1502 JUMPI POP POP DUP4 PUSH1 0xC0 SWAP4 PUSH1 0x6 SWAP7 SWAP4 PUSH1 0x1 SWAP4 PUSH2 0x1433 SWAP8 PUSH2 0x1CE SWAP12 SWAP13 LT PUSH2 0x14CB JUMPI JUMPDEST POP POP POP DUP2 SHL ADD DUP6 SSTORE PUSH2 0x13E2 JUMP JUMPDEST ADD MLOAD PUSH32 0xFFFFFFFFFFFFFFFFFFFFFFFFFFFFFFFFFFFFFFFFFFFFFFFFFFFFFFFFFFFFFFFF PUSH1 0xF8 DUP5 PUSH1 0x3 SHL AND SHR NOT AND SWAP1 SSTORE CODESIZE DUP1 DUP1 PUSH2 0x14BE JUMP JUMPDEST DUP1 PUSH1 0x1 DUP6 SWAP7 DUP3 SWAP5 SWAP7 DUP7 ADD MLOAD DUP2 SSTORE ADD SWAP6 ADD SWAP4 ADD SWAP1 PUSH2 0x149B JUMP JUMPDEST PUSH1 0x40 MLOAD SWAP1 PUSH2 0x1527 DUP3 PUSH2 0x12C JUMP JUMPDEST PUSH1 0xA DUP3 MSTORE PUSH32 0x4147432D75706461746500000000000000000000000000000000000000000000 PUSH1 0x20 DUP4 ADD MSTORE JUMP JUMPDEST PUSH32 0x4E487B7100000000000000000000000000000000000000000000000000000000 PUSH1 0x0 MSTORE PUSH1 0x32 PUSH1 0x4 MSTORE PUSH1 0x24 PUSH1 0x0 REVERT JUMPDEST PUSH1 0x80 DUP2 ADD SWAP3 SWAP2 PUSH1 0x0 SWAP2 JUMPDEST PUSH1 0x4 DUP4 LT PUSH2 0x1599 JUMPI POP POP POP JUMP JUMPDEST PUSH1 0x1 SWAP1 DUP3 MLOAD DUP2 MSTORE PUSH1 0x20 DUP1 SWAP2 ADD SWAP3 ADD SWAP3 ADD SWAP2 SWAP1 PUSH2 0x158C JUMP JUMPDEST SWAP1 PUSH2 0x15B9 PUSH2 0xEBE JUMP JUMPDEST POP PUSH1 0x40 DUP1 DUP1 MLOAD PUSH2 0x15C8 DUP2 PUSH2 0x12C JUMP JUMPDEST CALLDATASIZE SWAP1 CALLDATACOPY DUP3 MLOAD SWAP3 PUSH1 0xFF DUP5 GT PUSH2 0x181F JUMPI PUSH1 0xFF PUSH2 0x15E0 PUSH2 0x204E JUMP JUMPDEST SWAP5 AND SWAP4 DUP3 MLOAD SWAP1 DUP2 PUSH2 0x15F9 DUP8 DUP6 PUSH1 0x20 SWAP9 DUP10 DUP6 ADD SWAP6 DUP7 PUSH2 0x209D JUMP JUMPDEST SUB SWAP2 PUSH2 0x162B PUSH32 0xFFFFFFFFFFFFFFFFFFFFFFFFFFFFFFFFFFFFFFFFFFFFFFFFFFFFFFFFFFFFFFE0 SWAP4 DUP5 DUP2 ADD DUP4 MSTORE DUP3 PUSH2 0x180 JUMP JUMPDEST MLOAD SWAP1 KECCAK256 SWAP2 DUP4 MLOAD DUP6 DUP2 ADD SWAP1 PUSH2 0x1651 DUP2 PUSH2 0x1645 DUP11 DUP7 DUP10 DUP8 PUSH2 0x213D JUMP JUMPDEST SUB DUP6 DUP2 ADD DUP4 MSTORE DUP3 PUSH2 0x180 JUMP JUMPDEST MLOAD SWAP1 KECCAK256 SWAP6 PUSH2 0x165D PUSH2 0x2069 JUMP JUMPDEST SWAP4 PUSH1 0x1 SWAP3 PUSH1 0x1 SWAP5 JUMPDEST PUSH1 0x3 DUP7 LT PUSH2 0x17AA JUMPI POP POP POP POP POP POP PUSH2 0x170C DUP2 DUP6 PUSH1 0x60 PUSH2 0x1713 SWAP5 ADD MSTORE PUSH24 0xFFFFFFFFFFFFFFFFFFFFFFFFFFFFFFFFFFFFFFFFFFFFFFFF DUP1 PUSH1 0x18 DUP4 ADD MLOAD AND SWAP1 PUSH32 0x30644E72E131A029B85045B68181585D97816A916871CA8D3C208C16D87CFD47 DUP1 SWAP3 DUP3 PUSH1 0x48 DUP4 DUP3 PUSH1 0x30 DUP10 ADD MLOAD AND DUP2 PUSH25 0x1000000000000000000000000000000000000000000000000 DUP1 SWAP7 MULMOD ADDMOD SWAP7 ADD MLOAD AND SWAP3 DUP10 PUSH2 0x16FC PUSH2 0x1D0 JUMP JUMPDEST DUP8 DUP2 MSTORE ADD SWAP11 AND SWAP3 MULMOD ADDMOD DUP7 MSTORE PUSH2 0x1CD3 JUMP JUMPDEST SWAP4 MLOAD PUSH2 0x1CD3 JUMP JUMPDEST SWAP2 PUSH2 0x171C PUSH2 0xEAA JUMP JUMPDEST SWAP3 DUP5 MLOAD DUP5 MSTORE DUP2 DUP6 ADD MLOAD DUP3 DUP6 ADD MSTORE DUP1 MLOAD DUP4 DUP6 ADD MSTORE ADD MLOAD PUSH1 0x60 DUP4 ADD MSTORE PUSH2 0x1768 DUP2 DUP5 PUSH1 0x80 DUP6 PUSH1 0x6 PUSH32 0xFFFFFFFFFFFFFFFFFFFFFFFFFFFFFFFFFFFFFFFFFFFFFFFFFFFFFFFFFFFFF830 GAS ADD STATICCALL ISZERO SWAP1 JUMP JUMPDEST PUSH2 0x1771 JUMPI POP POP SWAP1 JUMP JUMPDEST PUSH2 0x17A6 SWAP3 POP MLOAD SWAP2 DUP3 SWAP2 PUSH32 0x128E3F0800000000000000000000000000000000000000000000000000000000 DUP4 MSTORE PUSH1 0x4 DUP4 ADD PUSH2 0x1582 JUMP JUMPDEST SUB SWAP1 REVERT JUMPDEST SWAP1 SWAP2 SWAP3 SWAP4 DUP4 DUP4 DUP8 SWAP12 DUP12 PUSH32 0xFFFFFFFFFFFFFFFFFFFFFFFFFFFFFFFFFFFFFFFFFFFFFFFFFFFFFFFFFFFFFFFF DUP11 PUSH2 0x1808 DUP15 PUSH2 0x17FC DUP14 DUP11 SWAP16 PUSH2 0x85E PUSH2 0x17EB SWAP2 PUSH2 0xCE3 JUMP JUMPDEST SWAP3 MLOAD SWAP9 DUP10 SWAP4 DUP10 DUP10 DUP7 ADD SWAP13 XOR DUP13 PUSH2 0x21AF JUMP JUMPDEST SUB DUP10 DUP2 ADD DUP8 MSTORE DUP7 PUSH2 0x180 JUMP JUMPDEST ADD PUSH1 0x5 SHL DUP12 ADD ADD MSTORE MLOAD SWAP1 KECCAK256 SWAP10 ADD SWAP5 SWAP4 SWAP3 SWAP2 SWAP1 PUSH2 0x1665 JUMP JUMPDEST PUSH2 0x17A6 SWAP2 MLOAD SWAP2 DUP3 SWAP2 PUSH32 0x26E4F9BA00000000000000000000000000000000000000000000000000000000 DUP4 MSTORE PUSH1 0x4 DUP4 ADD PUSH2 0x203D JUMP JUMPDEST PUSH1 0xFF AND PUSH1 0xFF DUP2 EQ PUSH2 0xCDE JUMPI PUSH1 0x1 ADD SWAP1 JUMP JUMPDEST PUSH1 0x5 DUP2 LT ISZERO PUSH2 0x1876 JUMPI PUSH1 0x2 SHL SWAP1 PUSH1 0x0 SWAP1 JUMP JUMPDEST PUSH2 0x1553 JUMP JUMPDEST PUSH2 0x1883 PUSH2 0xEAA JUMP JUMPDEST PUSH1 0x0 DUP1 JUMPDEST PUSH1 0xFF DUP1 DUP3 AND PUSH1 0x5 DUP2 LT ISZERO PUSH2 0x1952 JUMPI PUSH1 0x1 SWAP1 SHL DUP6 AND AND PUSH2 0x18AF JUMPI JUMPDEST PUSH2 0x18AA SWAP1 PUSH2 0x1853 JUMP JUMPDEST PUSH2 0x1887 JUMP JUMPDEST SWAP1 PUSH2 0x194A PUSH2 0x18AA SWAP2 DUP5 MLOAD PUSH1 0x20 DUP7 ADD DUP1 MLOAD SWAP1 PUSH2 0x193B PUSH1 0x40 DUP10 ADD SWAP4 DUP9 DUP6 MLOAD SWAP5 PUSH1 0x60 DUP13 ADD SWAP6 DUP7 MLOAD PUSH2 0x18DC DUP5 PUSH2 0x1864 JUMP JUMPDEST POP SLOAD SWAP2 PUSH2 0x1902 PUSH2 0x18F8 PUSH2 0x18EE DUP8 PUSH2 0x1864 JUMP JUMPDEST POP PUSH1 0x1 ADD SWAP1 PUSH1 0x0 SWAP1 JUMP JUMPDEST SWAP1 SLOAD SWAP1 PUSH1 0x3 SHL SHR SWAP1 JUMP JUMPDEST SWAP4 PUSH2 0x1935 PUSH2 0x18F8 PUSH2 0x192B PUSH2 0x1925 PUSH2 0x18F8 PUSH2 0x191B DUP12 PUSH2 0x1864 JUMP JUMPDEST POP PUSH1 0x2 ADD SWAP1 PUSH1 0x0 SWAP1 JUMP JUMPDEST SWAP9 PUSH2 0x1864 JUMP JUMPDEST POP PUSH1 0x3 ADD SWAP1 PUSH1 0x0 SWAP1 JUMP JUMPDEST SWAP7 PUSH2 0x1F07 JUMP JUMPDEST SWAP1 SWAP3 SWAP6 SWAP2 SWAP5 MSTORE MSTORE MSTORE DUP6 MSTORE PUSH2 0xCD0 JUMP JUMPDEST SWAP2 SWAP1 POP PUSH2 0x18A1 JUMP JUMPDEST POP POP POP SWAP3 SWAP2 POP SWAP2 SWAP1 JUMP JUMPDEST PUSH1 0x40 PUSH1 0x20 SWAP3 DUP4 PUSH2 0x180 SWAP7 SWAP6 DUP2 PUSH2 0x1970 PUSH2 0x1DD JUMP JUMPDEST SWAP6 DUP1 MLOAD DUP8 MSTORE ADD MLOAD DUP3 DUP7 ADD MSTORE PUSH32 0x198E9393920D483A7260BFB731FB5D25F1AA493335A9E71297E485B7AEF312C2 DUP5 DUP7 ADD MSTORE PUSH32 0x1800DEEF121F1E76426A00665E5C4479674322D4F75EDADD46DEBD5CD992F6ED PUSH1 0x60 DUP7 ADD MSTORE PUSH32 0x275DC4A288D1AFB3CBB1AC09187524C7DB36395DF7BE3B99E673B13A075A65EC PUSH1 0x80 DUP7 ADD MSTORE PUSH32 0x1D9BEFCD05A5323E6DA4D435F3B617CDB3AF83285C2DF711EF39C01571827F9D PUSH1 0xA0 DUP7 ADD MSTORE DUP1 MLOAD PUSH1 0xC0 DUP7 ADD MSTORE ADD MLOAD PUSH1 0xE0 DUP5 ADD MSTORE DUP4 DUP2 ADD MLOAD PUSH2 0x100 DUP5 ADD MSTORE DUP1 MLOAD PUSH2 0x120 DUP5 ADD MSTORE PUSH1 0x60 DUP2 ADD MLOAD PUSH2 0x140 DUP5 ADD MSTORE ADD MLOAD PUSH2 0x160 DUP3 ADD MSTORE PUSH2 0x1A4D PUSH2 0xED2 JUMP JUMPDEST SWAP4 DUP5 SWAP2 PUSH1 0x8 PUSH32 0xFFFFFFFFFFFFFFFFFFFFFFFFFFFFFFFFFFFFFFFFFFFFFFFFFFFFFFFFFFFFF830 GAS ADD STATICCALL SWAP2 MLOAD ISZERO ISZERO SWAP2 SWAP1 JUMP JUMPDEST SWAP1 DUP2 MLOAD DUP2 LT ISZERO PUSH2 0x1876 JUMPI ADD PUSH1 0x20 ADD SWAP1 JUMP JUMPDEST PUSH2 0x1A97 PUSH2 0x917 JUMP JUMPDEST PUSH1 0x17 DUP3 MLOAD SUB PUSH2 0x1BB2 JUMPI PUSH1 0x0 JUMPDEST PUSH1 0xD DUP2 LT PUSH2 0x1C50 JUMPI POP POP PUSH1 0xD JUMPDEST DUP2 MLOAD DUP2 LT ISZERO PUSH2 0x1C49 JUMPI PUSH2 0x1B14 PUSH2 0x1AEF PUSH2 0x1AC9 DUP4 DUP6 PUSH2 0x1A7E JUMP JUMPDEST MLOAD PUSH32 0xFF00000000000000000000000000000000000000000000000000000000000000 AND SWAP1 JUMP JUMPDEST PUSH32 0xFF00000000000000000000000000000000000000000000000000000000000000 AND SWAP1 JUMP JUMPDEST PUSH32 0x3000000000000000000000000000000000000000000000000000000000000000 DUP2 LT ISZERO SWAP1 DUP2 PUSH2 0x1C1E JUMPI JUMPDEST PUSH32 0x6100000000000000000000000000000000000000000000000000000000000000 DUP2 LT ISZERO DUP1 PUSH2 0x1BF4 JUMPI JUMPDEST PUSH32 0x4100000000000000000000000000000000000000000000000000000000000000 DUP3 LT ISZERO SWAP2 DUP3 PUSH2 0x1BC9 JUMPI JUMPDEST POP DUP3 ISZERO PUSH2 0x1BC1 JUMPI JUMPDEST POP DUP2 ISZERO PUSH2 0x1BB9 JUMPI JUMPDEST POP ISZERO PUSH2 0x1BB2 JUMPI PUSH1 0x1 ADD PUSH2 0x1AB0 JUMP JUMPDEST POP POP PUSH1 0x0 SWAP1 JUMP JUMPDEST SWAP1 POP CODESIZE PUSH2 0x1BA4 JUMP JUMPDEST SWAP2 POP CODESIZE PUSH2 0x1B9C JUMP JUMPDEST PUSH32 0x4600000000000000000000000000000000000000000000000000000000000000 LT ISZERO SWAP2 POP CODESIZE PUSH2 0x1B94 JUMP JUMPDEST POP PUSH32 0x6600000000000000000000000000000000000000000000000000000000000000 DUP2 GT ISZERO PUSH2 0x1B69 JUMP JUMPDEST PUSH32 0x3900000000000000000000000000000000000000000000000000000000000000 DUP2 GT ISZERO SWAP2 POP PUSH2 0x1B3F JUMP JUMPDEST POP POP PUSH1 0x1 SWAP1 JUMP JUMPDEST PUSH2 0x1C5D PUSH2 0x1AC9 DUP3 DUP6 PUSH2 0x1A7E JUMP JUMPDEST PUSH32 0xFF00000000000000000000000000000000000000000000000000000000000000 PUSH2 0x1C8E PUSH2 0x1AEF PUSH2 0x1AC9 DUP6 DUP8 PUSH2 0x1A7E JUMP JUMPDEST SWAP2 AND SUB PUSH2 0x1C9D JUMPI PUSH1 0x1 ADD PUSH2 0x1AA3 JUMP JUMPDEST POP POP POP PUSH1 0x0 SWAP1 JUMP JUMPDEST SWAP1 PUSH32 0x30644E72E131A029B85045B68181585D97816A916871CA8D3C208C16D87CFD47 SWAP2 DUP3 SUB SWAP2 DUP3 GT PUSH2 0xCDE JUMPI JUMP JUMPDEST SWAP1 PUSH2 0x1CDC PUSH2 0xEBE JUMP JUMPDEST SWAP2 PUSH32 0x30644E72E131A029B85045B68181585D97816A916871CA8D3C208C16D87CFD47 DUP1 DUP3 LT ISZERO PUSH2 0x1E9F JUMPI DUP1 PUSH1 0x4 DUP2 DUP5 DUP1 MULMOD MULMOD SWAP1 PUSH1 0x1 SWAP2 DUP2 PUSH2 0x1D20 DUP2 DUP4 DUP7 ADDMOD SWAP3 PUSH2 0x1CA5 JUMP JUMPDEST DUP5 ADDMOD SWAP1 DUP3 DUP1 DUP1 DUP1 DUP1 PUSH25 0x16789AF3A83522EB353C98FC6B36D713D5D8D1CC5DFFFFFFA DUP2 DUP12 DUP2 PUSH2 0x1D51 DUP2 DUP12 DUP14 MULMOD PUSH2 0x2DF3 JUMP JUMPDEST SWAP11 DUP12 SWAP3 MULMOD MULMOD MULMOD SWAP6 DUP2 DUP1 PUSH2 0x1D63 DUP10 PUSH2 0x1CA5 JUMP JUMPDEST SWAP9 DUP2 PUSH32 0x183227397098D014DC2822DB40C0AC2ECBC0B548B438E5469E10460B6C3E7EA3 SWAP11 DUP12 ADDMOD SWAP10 ADDMOD SWAP7 DUP1 MULMOD MULMOD DUP1 MULMOD PUSH32 0x10216F7BA065E00DE81AC1E7808072C9DD2B2385CD7B438469602EB24829A9BD MULMOD DUP6 ADDMOD SWAP1 DUP4 PUSH1 0x3 DUP2 DUP6 DUP2 DUP2 DUP1 MULMOD MULMOD ADDMOD SWAP4 DUP6 PUSH2 0x1DCC DUP7 PUSH2 0x21F6 JUMP JUMPDEST PUSH1 0x0 SIGNEXTEND SUB PUSH2 0x1E45 JUMPI POP POP POP DUP6 MSTORE PUSH2 0x1DE2 DUP2 PUSH2 0x2324 JUMP JUMPDEST SWAP1 PUSH1 0x20 DUP8 ADD MSTORE ISZERO PUSH2 0x1E12 JUMPI POP JUMPDEST PUSH1 0x20 DUP5 ADD SWAP2 DUP3 MLOAD SWAP2 DUP1 DUP4 AND SWAP2 AND SUB PUSH2 0x1E05 JUMPI POP POP JUMP JUMPDEST PUSH2 0x1E0E SWAP1 PUSH2 0x1CA5 JUMP JUMPDEST SWAP1 MSTORE JUMP JUMPDEST PUSH1 0x40 MLOAD PUSH32 0x396EC77100000000000000000000000000000000000000000000000000000000 DUP2 MSTORE PUSH1 0x4 DUP2 ADD SWAP2 SWAP1 SWAP2 MSTORE PUSH1 0x24 SWAP1 REVERT JUMPDEST SWAP2 SWAP4 POP SWAP2 POP DUP1 PUSH1 0x3 DUP2 DUP5 DUP2 DUP2 DUP1 MULMOD MULMOD ADDMOD SWAP3 DUP5 PUSH2 0x1E60 DUP6 PUSH2 0x21F6 JUMP JUMPDEST PUSH1 0x0 SIGNEXTEND SUB PUSH2 0x1E86 JUMPI POP POP DUP6 MSTORE PUSH2 0x1E75 DUP2 PUSH2 0x2324 JUMP JUMPDEST SWAP1 PUSH1 0x20 DUP8 ADD MSTORE ISZERO PUSH2 0x1E12 JUMPI POP PUSH2 0x1DEF JUMP JUMPDEST DUP2 SWAP4 POP PUSH1 0x3 SWAP3 POP DUP1 DUP9 MSTORE DUP2 DUP2 DUP1 MULMOD MULMOD ADDMOD PUSH2 0x1E75 DUP2 PUSH2 0x2324 JUMP JUMPDEST PUSH1 0x40 MLOAD PUSH32 0xD53E941500000000000000000000000000000000000000000000000000000000 DUP2 MSTORE PUSH1 0x4 DUP2 ADD DUP4 SWAP1 MSTORE PUSH1 0x24 SWAP1 REVERT JUMPDEST ISZERO PUSH2 0x1ED8 JUMPI JUMP JUMPDEST PUSH32 0x4E487B7100000000000000000000000000000000000000000000000000000000 PUSH1 0x0 MSTORE PUSH1 0x1 PUSH1 0x4 MSTORE PUSH1 0x24 PUSH1 0x0 REVERT JUMPDEST SWAP8 SWAP5 SWAP8 SWAP7 SWAP6 SWAP7 DUP1 ISZERO DUP1 PUSH2 0x2035 JUMPI JUMPDEST DUP1 PUSH2 0x202D JUMPI JUMPDEST DUP1 PUSH2 0x2025 JUMPI JUMPDEST ISZERO PUSH2 0x1F7B JUMPI POP POP POP POP DUP1 ISZERO DUP1 PUSH2 0x1F73 JUMPI JUMPDEST DUP1 PUSH2 0x1F6B JUMPI JUMPDEST DUP1 PUSH2 0x1F63 JUMPI JUMPDEST ISZERO PUSH2 0x1F4A JUMPI JUMPDEST SWAP4 SWAP3 SWAP2 SWAP1 JUMP JUMPDEST PUSH2 0x1F5E PUSH2 0x1F59 DUP5 DUP7 DUP9 DUP6 PUSH2 0x2A86 JUMP JUMPDEST PUSH2 0x1ED1 JUMP JUMPDEST PUSH2 0x1F44 JUMP JUMPDEST POP DUP3 ISZERO PUSH2 0x1F3E JUMP JUMPDEST POP DUP4 ISZERO PUSH2 0x1F38 JUMP JUMPDEST POP DUP5 ISZERO PUSH2 0x1F32 JUMP JUMPDEST DUP5 SWAP9 SWAP6 SWAP9 SWAP8 SWAP7 SWAP8 ISZERO DUP1 PUSH2 0x201D JUMPI JUMPDEST DUP1 PUSH2 0x2015 JUMPI JUMPDEST DUP1 PUSH2 0x200D JUMPI JUMPDEST PUSH2 0x1FF5 JUMPI SWAP2 PUSH2 0x1FED SWAP8 SWAP6 SWAP4 SWAP2 PUSH2 0x1FCA SWAP8 SWAP6 SWAP4 PUSH2 0x1FB6 PUSH2 0x1F59 DUP6 DUP6 DUP6 DUP6 PUSH2 0x2A86 JUMP JUMPDEST PUSH2 0x1FC5 PUSH2 0x1F59 DUP10 DUP10 DUP10 DUP10 PUSH2 0x2A86 JUMP JUMPDEST PUSH2 0x2B32 JUMP JUMPDEST DUP1 MLOAD SWAP1 PUSH1 0x20 DUP2 ADD MLOAD PUSH1 0x40 DUP3 ADD MLOAD PUSH1 0x60 DUP4 ADD MLOAD SWAP2 PUSH1 0xA0 PUSH1 0x80 DUP6 ADD MLOAD SWAP5 ADD MLOAD SWAP5 PUSH2 0x2D1B JUMP JUMPDEST SWAP3 SWAP4 SWAP2 SWAP3 SWAP1 SWAP2 JUMP JUMPDEST SWAP4 POP SWAP7 SWAP4 POP SWAP5 POP SWAP3 POP PUSH2 0x1F44 PUSH2 0x1F59 DUP5 DUP7 DUP9 DUP6 PUSH2 0x2A86 JUMP JUMPDEST POP DUP8 ISZERO PUSH2 0x1F95 JUMP JUMPDEST POP DUP7 ISZERO PUSH2 0x1F8F JUMP JUMPDEST POP DUP6 ISZERO PUSH2 0x1F89 JUMP JUMPDEST POP DUP4 ISZERO PUSH2 0x1F21 JUMP JUMPDEST POP DUP3 ISZERO PUSH2 0x1F1B JUMP JUMPDEST POP DUP2 ISZERO PUSH2 0x1F15 JUMP JUMPDEST SWAP1 PUSH1 0x20 PUSH2 0x2C1 SWAP3 DUP2 DUP2 MSTORE ADD SWAP1 PUSH2 0x46E JUMP JUMPDEST PUSH1 0x40 MLOAD SWAP1 PUSH2 0x205B DUP3 PUSH2 0x164 JUMP JUMPDEST PUSH1 0x88 DUP3 MSTORE PUSH1 0xA0 CALLDATASIZE PUSH1 0x20 DUP5 ADD CALLDATACOPY JUMP JUMPDEST PUSH1 0x40 MLOAD SWAP1 PUSH2 0x2076 DUP3 PUSH2 0x148 JUMP JUMPDEST PUSH1 0x60 DUP1 DUP4 MSTORE CALLDATASIZE PUSH1 0x20 DUP5 ADD CALLDATACOPY JUMP JUMPDEST PUSH1 0x40 MLOAD SWAP1 PUSH2 0x2090 DUP3 PUSH2 0x10B JUMP JUMPDEST PUSH1 0xC0 DUP1 DUP4 MSTORE CALLDATASIZE PUSH1 0x20 DUP5 ADD CALLDATACOPY JUMP JUMPDEST PUSH32 0xFF00000000000000000000000000000000000000000000000000000000000000 SWAP3 PUSH2 0x20E8 PUSH1 0x20 DUP1 SWAP4 PUSH2 0x20DA PUSH1 0x4 SWAP10 SWAP9 SWAP7 DUP3 DUP2 MLOAD SWAP5 DUP6 SWAP3 ADD PUSH2 0x2C4 JUMP JUMPDEST ADD SWAP2 DUP3 DUP2 MLOAD SWAP5 DUP6 SWAP3 ADD PUSH2 0x2C4 JUMP JUMPDEST ADD PUSH1 0x0 DUP2 MSTORE PUSH32 0x6000000000000000000000000000000000000000000000000000000000000000 PUSH1 0x1 DUP3 ADD MSTORE PUSH1 0x0 PUSH1 0x2 DUP3 ADD MSTORE PUSH2 0x212E DUP3 MLOAD DUP1 SWAP4 PUSH1 0x20 PUSH1 0x3 DUP6 ADD SWAP2 ADD PUSH2 0x2C4 JUMP JUMPDEST ADD SWAP2 PUSH1 0xF8 SHL AND PUSH1 0x3 DUP3 ADD MSTORE ADD SWAP1 JUMP JUMPDEST SWAP2 PUSH1 0x22 SWAP4 SWAP3 PUSH32 0xFF00000000000000000000000000000000000000000000000000000000000000 SWAP3 DUP2 MSTORE PUSH32 0x100000000000000000000000000000000000000000000000000000000000000 PUSH1 0x20 DUP3 ADD MSTORE PUSH2 0x21A0 DUP3 MLOAD DUP1 SWAP4 PUSH1 0x20 PUSH1 0x21 DUP6 ADD SWAP2 ADD PUSH2 0x2C4 JUMP JUMPDEST ADD SWAP2 PUSH1 0xF8 SHL AND PUSH1 0x21 DUP3 ADD MSTORE ADD SWAP1 JUMP JUMPDEST PUSH1 0x22 SWAP5 SWAP4 SWAP2 DUP2 MSTORE PUSH32 0xFF00000000000000000000000000000000000000000000000000000000000000 DUP1 SWAP4 PUSH1 0xF8 SHL AND PUSH1 0x20 DUP3 ADD MSTORE PUSH2 0x21A0 DUP3 MLOAD DUP1 SWAP4 PUSH1 0x20 PUSH1 0x21 DUP6 ADD SWAP2 ADD PUSH2 0x2C4 JUMP JUMPDEST PUSH2 0x21FE PUSH2 0x2083 JUMP JUMPDEST SWAP1 PUSH1 0xC0 PUSH1 0x20 PUSH1 0x0 DUP3 DUP3 DUP7 ADD DUP4 DUP2 MSTORE DUP4 PUSH1 0x40 DUP9 ADD MSTORE DUP4 PUSH1 0x60 DUP9 ADD MSTORE DUP6 PUSH1 0x80 DUP9 ADD MSTORE PUSH32 0x183227397098D014DC2822DB40C0AC2ECBC0B548B438E5469E10460B6C3E7EA3 SWAP7 DUP8 PUSH1 0xA0 DUP3 ADD MSTORE PUSH32 0x30644E72E131A029B85045B68181585D97816A916871CA8D3C208C16D87CFD47 SWAP6 DUP7 SWAP2 ADD MSTORE PUSH1 0x5 GAS STATICCALL SWAP3 PUSH1 0x0 MLOAD SWAP4 ISZERO PUSH2 0x22E8 JUMPI POP POP PUSH32 0x30644E72E131A029B85045B68181585D97816A916871CA8D3C208C16D87CFD46 DUP3 EQ PUSH2 0x22C2 JUMPI DUP2 ISZERO ISZERO DUP1 PUSH2 0x22B7 JUMPI JUMPDEST PUSH2 0x1E12 JUMPI POP PUSH1 0x0 SIGNEXTEND SWAP1 JUMP JUMPDEST POP PUSH1 0x1 DUP3 EQ ISZERO PUSH2 0x22AC JUMP JUMPDEST POP POP PUSH32 0xFFFFFFFFFFFFFFFFFFFFFFFFFFFFFFFFFFFFFFFFFFFFFFFFFFFFFFFFFFFFFFFF SWAP1 JUMP JUMPDEST PUSH1 0x64 SWAP4 POP PUSH1 0x40 MLOAD SWAP3 PUSH32 0xC6DAF7AB00000000000000000000000000000000000000000000000000000000 DUP5 MSTORE PUSH1 0x4 DUP5 ADD MSTORE PUSH1 0x24 DUP4 ADD MSTORE PUSH1 0x44 DUP3 ADD MSTORE REVERT JUMPDEST SWAP1 PUSH32 0x30644E72E131A029B85045B68181585D97816A916871CA8D3C208C16D87CFD47 DUP1 DUP1 DUP1 DUP1 DUP1 DUP1 DUP1 DUP1 DUP1 DUP12 DUP2 DUP1 DUP1 DUP1 DUP1 DUP1 DUP1 DUP1 DUP1 DUP1 DUP1 DUP1 DUP1 DUP1 DUP1 DUP16 DUP2 DUP1 DUP3 DUP2 DUP1 DUP1 DUP1 DUP1 DUP1 DUP1 DUP1 DUP1 DUP1 DUP1 DUP1 SWAP15 DUP2 DUP1 DUP1 DUP1 DUP1 DUP6 DUP2 DUP1 DUP1 DUP1 DUP1 DUP1 DUP1 DUP8 DUP2 SWAP15 DUP3 DUP1 DUP1 DUP1 DUP1 DUP1 DUP7 DUP2 DUP1 DUP1 DUP1 DUP1 DUP1 DUP1 DUP1 SWAP15 DUP2 DUP1 DUP1 DUP1 DUP5 DUP2 DUP1 DUP1 DUP1 DUP1 DUP1 DUP1 DUP1 DUP1 DUP10 DUP2 SWAP16 DUP3 DUP1 DUP1 DUP1 DUP1 DUP1 DUP1 DUP1 DUP1 DUP1 DUP1 DUP1 DUP1 DUP14 DUP2 SWAP15 DUP3 DUP1 DUP1 DUP1 DUP1 DUP1 DUP1 DUP1 DUP9 DUP2 DUP1 DUP1 DUP1 DUP1 DUP1 SWAP15 DUP2 DUP1 DUP1 DUP1 DUP1 DUP1 DUP1 DUP1 DUP1 DUP10 DUP2 DUP1 DUP1 DUP1 DUP1 SWAP15 DUP2 DUP1 DUP1 DUP1 DUP1 DUP1 DUP1 DUP1 DUP1 DUP1 DUP1 DUP12 DUP2 DUP1 DUP1 SWAP15 DUP2 DUP1 DUP1 DUP1 DUP1 DUP1 DUP1 DUP1 DUP1 DUP1 DUP1 DUP12 DUP2 DUP1 DUP1 SWAP15 DUP2 DUP1 DUP1 DUP1 DUP1 DUP1 DUP1 DUP1 DUP1 DUP1 DUP11 DUP2 DUP1 DUP1 DUP1 SWAP15 DUP2 DUP1 DUP1 DUP1 DUP1 DUP1 DUP1 DUP8 DUP2 DUP1 DUP1 DUP1 DUP1 DUP1 DUP1 SWAP15 DUP2 DUP1 DUP1 DUP1 DUP1 DUP1 DUP7 DUP2 DUP1 DUP1 DUP1 DUP1 DUP1 DUP1 DUP1 SWAP15 DUP2 DUP1 DUP1 DUP1 DUP1 DUP1 DUP7 DUP2 DUP1 DUP1 DUP1 DUP1 DUP1 DUP1 DUP1 SWAP15 DUP2 DUP1 DUP1 DUP1 DUP1 DUP1 DUP7 DUP2 DUP1 DUP1 DUP1 DUP1 DUP1 DUP1 DUP1 SWAP15 DUP2 DUP1 DUP1 DUP1 DUP1 DUP1 DUP1 DUP1 DUP1 DUP1 DUP1 DUP1 DUP13 DUP2 DUP1 SWAP15 DUP2 DUP1 DUP1 DUP1 DUP1 DUP1 DUP1 DUP1 DUP1 DUP1 DUP1 DUP12 DUP2 DUP1 DUP1 SWAP15 DUP2 DUP1 DUP1 DUP1 DUP1 DUP1 DUP1 DUP8 DUP2 DUP1 DUP1 DUP1 DUP1 DUP1 DUP1 SWAP15 DUP2 DUP1 DUP1 DUP1 DUP1 DUP1 DUP1 DUP1 SWAP8 DUP2 DUP1 DUP1 DUP1 DUP1 DUP6 DUP2 DUP1 DUP1 DUP1 DUP1 DUP1 DUP1 DUP1 DUP1 DUP1 DUP1 DUP12 DUP2 DUP2 DUP1 MULMOD MULMOD DUP2 DUP13 DUP2 DUP2 DUP1 MULMOD MULMOD MULMOD DUP2 DUP1 DUP13 DUP2 DUP2 DUP1 MULMOD MULMOD DUP2 DUP14 DUP2 DUP2 DUP1 MULMOD MULMOD MULMOD MULMOD DUP2 DUP1 DUP1 DUP13 DUP2 DUP2 DUP1 MULMOD MULMOD DUP2 DUP14 DUP2 DUP2 DUP1 MULMOD MULMOD MULMOD DUP2 DUP13 DUP2 DUP1 DUP3 DUP2 DUP2 DUP1 MULMOD MULMOD SWAP2 DUP2 DUP2 DUP1 MULMOD MULMOD MULMOD MULMOD MULMOD DUP1 MULMOD DUP1 MULMOD DUP1 MULMOD DUP2 DUP1 DUP8 DUP2 DUP2 DUP1 MULMOD MULMOD SWAP2 DUP1 MULMOD MULMOD DUP1 MULMOD DUP1 MULMOD DUP1 MULMOD MULMOD DUP1 MULMOD DUP1 MULMOD DUP1 MULMOD DUP1 MULMOD MULMOD DUP1 MULMOD DUP1 MULMOD DUP1 MULMOD DUP1 MULMOD DUP2 DUP1 DUP13 DUP2 DUP1 DUP3 DUP1 MULMOD SWAP2 DUP2 DUP1 DUP3 DUP1 MULMOD SWAP2 DUP2 DUP2 DUP1 MULMOD MULMOD MULMOD MULMOD SWAP2 DUP1 MULMOD MULMOD DUP1 MULMOD DUP1 MULMOD DUP1 MULMOD DUP1 MULMOD DUP2 DUP1 DUP1 DUP9 DUP1 MULMOD DUP2 DUP1 DUP11 DUP1 MULMOD DUP2 DUP12 DUP2 DUP2 DUP1 MULMOD MULMOD MULMOD MULMOD SWAP2 DUP1 MULMOD MULMOD DUP1 MULMOD DUP1 MULMOD DUP1 MULMOD MULMOD DUP1 MULMOD DUP1 MULMOD DUP1 MULMOD DUP2 DUP1 DUP1 DUP11 DUP1 MULMOD DUP2 DUP1 DUP13 DUP1 MULMOD DUP2 DUP14 DUP2 DUP2 DUP1 MULMOD MULMOD MULMOD MULMOD SWAP2 DUP1 MULMOD MULMOD DUP1 MULMOD DUP1 MULMOD DUP1 MULMOD DUP1 MULMOD DUP1 MULMOD MULMOD DUP1 MULMOD DUP1 MULMOD DUP1 MULMOD DUP2 DUP1 DUP13 DUP2 DUP2 DUP1 MULMOD MULMOD SWAP2 DUP1 MULMOD MULMOD DUP1 MULMOD DUP1 MULMOD DUP1 MULMOD DUP1 MULMOD DUP1 MULMOD DUP1 MULMOD SWAP3 DUP2 DUP1 DUP1 DUP4 DUP2 DUP2 DUP1 MULMOD MULMOD DUP2 DUP5 DUP2 DUP2 DUP1 MULMOD MULMOD MULMOD SWAP2 DUP2 DUP1 DUP3 DUP1 MULMOD SWAP2 DUP2 DUP1 DUP3 DUP1 MULMOD SWAP2 DUP2 DUP2 DUP1 MULMOD MULMOD MULMOD MULMOD MULMOD SWAP2 DUP1 MULMOD MULMOD DUP1 MULMOD DUP1 MULMOD DUP1 MULMOD DUP1 MULMOD DUP1 MULMOD DUP1 MULMOD DUP1 MULMOD DUP1 MULMOD DUP1 MULMOD DUP2 DUP1 DUP14 DUP2 DUP1 DUP3 DUP1 MULMOD SWAP2 DUP2 DUP2 DUP1 MULMOD MULMOD MULMOD SWAP2 DUP1 MULMOD MULMOD DUP1 MULMOD DUP1 MULMOD DUP1 MULMOD DUP2 DUP1 DUP10 DUP2 DUP2 DUP1 MULMOD MULMOD SWAP2 DUP1 MULMOD MULMOD DUP1 MULMOD DUP1 MULMOD DUP1 MULMOD SWAP3 DUP2 DUP1 DUP3 DUP1 MULMOD SWAP2 DUP2 DUP1 DUP3 DUP1 MULMOD SWAP2 DUP2 DUP2 DUP1 MULMOD MULMOD MULMOD MULMOD SWAP2 DUP1 MULMOD MULMOD DUP1 MULMOD DUP1 MULMOD DUP1 MULMOD DUP1 MULMOD DUP1 MULMOD DUP1 MULMOD DUP2 DUP1 DUP1 DUP12 DUP1 MULMOD DUP2 DUP13 DUP2 DUP2 DUP1 MULMOD MULMOD MULMOD SWAP2 DUP1 MULMOD MULMOD DUP1 MULMOD DUP1 MULMOD DUP1 MULMOD DUP1 MULMOD DUP1 MULMOD DUP1 MULMOD MULMOD DUP1 MULMOD DUP1 MULMOD DUP1 MULMOD DUP1 MULMOD DUP1 MULMOD DUP1 MULMOD DUP2 DUP1 DUP1 DUP1 DUP13 DUP1 MULMOD DUP2 DUP14 DUP2 DUP2 DUP1 MULMOD MULMOD MULMOD DUP2 DUP13 DUP2 DUP1 DUP3 DUP2 DUP2 DUP1 MULMOD MULMOD SWAP2 DUP2 DUP2 DUP1 MULMOD MULMOD MULMOD MULMOD SWAP2 DUP1 MULMOD MULMOD DUP1 MULMOD DUP1 MULMOD DUP1 MULMOD DUP1 MULMOD SWAP3 DUP2 DUP1 DUP1 DUP4 DUP2 DUP2 DUP1 MULMOD MULMOD DUP2 DUP5 DUP2 DUP2 DUP1 MULMOD MULMOD MULMOD SWAP2 DUP2 DUP1 DUP3 DUP1 MULMOD SWAP2 DUP2 DUP1 DUP3 DUP1 MULMOD SWAP2 DUP2 DUP2 DUP1 MULMOD MULMOD MULMOD MULMOD MULMOD SWAP2 DUP1 MULMOD MULMOD DUP1 MULMOD DUP1 MULMOD DUP2 DUP1 DUP14 DUP2 DUP1 DUP3 DUP1 MULMOD SWAP2 DUP2 DUP2 DUP1 MULMOD MULMOD MULMOD SWAP2 DUP1 MULMOD MULMOD DUP1 MULMOD DUP1 MULMOD DUP1 MULMOD DUP1 MULMOD DUP1 MULMOD DUP1 MULMOD DUP1 MULMOD SWAP3 DUP2 DUP2 DUP1 MULMOD MULMOD SWAP2 DUP1 MULMOD MULMOD DUP1 MULMOD DUP1 MULMOD DUP1 MULMOD DUP1 MULMOD DUP1 MULMOD DUP1 MULMOD DUP1 MULMOD DUP1 MULMOD SWAP3 DUP2 DUP1 DUP3 DUP1 MULMOD SWAP2 DUP2 DUP2 DUP1 MULMOD MULMOD MULMOD SWAP2 DUP1 MULMOD MULMOD DUP1 MULMOD DUP1 MULMOD DUP2 DUP1 DUP14 DUP2 DUP2 DUP1 MULMOD MULMOD SWAP2 DUP1 MULMOD MULMOD DUP1 MULMOD DUP1 MULMOD DUP1 MULMOD DUP1 MULMOD DUP1 MULMOD DUP1 MULMOD DUP1 MULMOD SWAP3 DUP2 DUP1 DUP1 DUP4 DUP1 MULMOD DUP2 DUP5 DUP2 DUP2 DUP1 MULMOD MULMOD MULMOD SWAP2 DUP2 DUP1 DUP3 DUP2 DUP2 DUP1 MULMOD MULMOD SWAP2 DUP2 DUP2 DUP1 MULMOD MULMOD MULMOD MULMOD SWAP2 DUP1 MULMOD MULMOD DUP1 MULMOD DUP1 MULMOD DUP1 MULMOD DUP2 DUP1 DUP14 DUP2 DUP1 DUP1 DUP4 DUP1 MULMOD DUP2 DUP5 DUP2 DUP2 DUP1 MULMOD MULMOD MULMOD SWAP2 DUP2 DUP1 DUP3 DUP2 DUP2 DUP1 MULMOD MULMOD SWAP2 DUP2 DUP2 DUP1 MULMOD MULMOD MULMOD MULMOD SWAP2 DUP1 MULMOD MULMOD DUP1 MULMOD DUP1 MULMOD DUP1 MULMOD DUP1 MULMOD DUP2 DUP1 DUP1 DUP10 DUP1 MULMOD DUP2 DUP11 DUP2 DUP2 DUP1 MULMOD MULMOD MULMOD SWAP2 DUP1 MULMOD MULMOD DUP1 MULMOD DUP1 MULMOD SWAP3 DUP2 DUP1 DUP3 DUP1 MULMOD SWAP2 DUP2 DUP1 DUP3 DUP1 MULMOD SWAP2 DUP2 DUP2 DUP1 MULMOD MULMOD MULMOD MULMOD SWAP2 DUP1 MULMOD MULMOD DUP1 MULMOD DUP1 MULMOD DUP1 MULMOD DUP1 MULMOD DUP1 MULMOD DUP1 MULMOD DUP1 MULMOD DUP1 MULMOD DUP1 MULMOD DUP2 DUP1 DUP1 DUP1 DUP12 DUP1 MULMOD DUP2 DUP13 DUP2 DUP2 DUP1 MULMOD MULMOD MULMOD DUP2 DUP1 DUP13 DUP2 DUP2 DUP1 MULMOD MULMOD DUP2 DUP14 DUP2 DUP2 DUP1 MULMOD MULMOD MULMOD MULMOD SWAP2 DUP1 MULMOD MULMOD DUP1 MULMOD DUP1 MULMOD DUP1 MULMOD SWAP3 DUP2 DUP1 DUP3 DUP1 MULMOD SWAP2 DUP2 DUP2 DUP1 MULMOD MULMOD MULMOD SWAP2 DUP1 MULMOD MULMOD DUP1 MULMOD DUP1 MULMOD DUP1 MULMOD DUP1 MULMOD DUP2 DUP1 DUP14 DUP2 DUP1 DUP3 DUP2 DUP2 DUP1 MULMOD MULMOD SWAP2 DUP2 DUP1 DUP3 DUP2 DUP2 DUP1 MULMOD MULMOD SWAP2 DUP2 DUP2 DUP1 MULMOD MULMOD MULMOD MULMOD SWAP2 DUP1 MULMOD MULMOD DUP1 MULMOD DUP1 MULMOD DUP1 MULMOD DUP1 MULMOD DUP1 MULMOD DUP1 MULMOD DUP2 DUP1 DUP1 DUP1 DUP9 DUP1 MULMOD DUP2 DUP10 DUP2 DUP2 DUP1 MULMOD MULMOD MULMOD DUP2 DUP1 DUP10 DUP2 DUP2 DUP1 MULMOD MULMOD DUP2 DUP11 DUP2 DUP2 DUP1 MULMOD MULMOD MULMOD MULMOD SWAP2 DUP1 MULMOD MULMOD DUP1 MULMOD DUP1 MULMOD MULMOD DUP1 MULMOD DUP1 MULMOD DUP1 MULMOD DUP1 MULMOD DUP1 MULMOD DUP1 MULMOD SWAP3 DUP2 DUP1 DUP3 DUP1 MULMOD SWAP2 DUP2 DUP1 DUP3 DUP1 MULMOD SWAP2 DUP2 DUP2 DUP1 MULMOD MULMOD MULMOD MULMOD SWAP2 DUP1 MULMOD MULMOD DUP1 MULMOD DUP1 MULMOD DUP1 MULMOD DUP1 MULMOD DUP1 MULMOD DUP2 DUP1 DUP1 DUP13 DUP1 MULMOD DUP2 DUP14 DUP2 DUP1 DUP3 DUP1 MULMOD SWAP2 DUP2 DUP2 DUP1 MULMOD MULMOD MULMOD MULMOD SWAP2 DUP1 MULMOD MULMOD DUP1 MULMOD DUP1 MULMOD DUP1 MULMOD DUP1 MULMOD DUP2 DUP1 DUP1 DUP8 DUP1 MULMOD DUP2 DUP9 DUP2 DUP2 DUP1 MULMOD MULMOD MULMOD SWAP2 DUP1 MULMOD MULMOD DUP1 MULMOD DUP1 MULMOD MULMOD DUP1 MULMOD DUP1 MULMOD DUP1 MULMOD DUP1 MULMOD DUP1 MULMOD DUP1 MULMOD SWAP3 DUP2 DUP1 DUP1 DUP4 DUP2 DUP2 DUP1 MULMOD MULMOD DUP2 DUP5 DUP2 DUP2 DUP1 MULMOD MULMOD MULMOD SWAP2 DUP2 DUP1 DUP3 DUP1 MULMOD SWAP2 DUP2 DUP1 DUP3 DUP1 MULMOD SWAP2 DUP2 DUP2 DUP1 MULMOD MULMOD MULMOD MULMOD MULMOD SWAP2 DUP1 MULMOD MULMOD DUP1 MULMOD DUP1 MULMOD DUP1 MULMOD DUP1 MULMOD DUP1 MULMOD DUP2 DUP1 DUP1 DUP1 DUP12 DUP2 DUP2 DUP1 MULMOD MULMOD DUP2 DUP13 DUP2 DUP2 DUP1 MULMOD MULMOD MULMOD DUP2 DUP1 DUP13 DUP2 DUP2 DUP1 MULMOD MULMOD DUP2 DUP14 DUP2 DUP1 DUP3 DUP2 DUP2 DUP1 MULMOD MULMOD SWAP2 DUP2 DUP2 DUP1 MULMOD MULMOD MULMOD MULMOD MULMOD SWAP2 DUP1 MULMOD MULMOD DUP1 MULMOD DUP1 MULMOD DUP1 MULMOD DUP1 MULMOD DUP1 MULMOD MULMOD DUP1 MULMOD DUP1 MULMOD DUP1 MULMOD DUP1 MULMOD DUP1 MULMOD DUP1 MULMOD MULMOD DUP1 MULMOD DUP1 MULMOD DUP1 MULMOD DUP1 MULMOD SWAP3 DUP2 DUP2 DUP1 MULMOD MULMOD SWAP2 DUP1 MULMOD MULMOD DUP1 MULMOD DUP1 MULMOD DUP1 MULMOD DUP1 MULMOD DUP1 MULMOD DUP1 MULMOD DUP1 MULMOD DUP1 MULMOD DUP2 DUP1 DUP1 DUP13 DUP2 DUP1 DUP3 DUP1 MULMOD SWAP2 DUP2 DUP2 DUP1 MULMOD MULMOD MULMOD DUP2 DUP14 DUP2 DUP1 DUP3 DUP2 DUP2 DUP1 MULMOD MULMOD SWAP2 DUP2 DUP2 DUP1 MULMOD MULMOD MULMOD MULMOD SWAP2 DUP1 MULMOD MULMOD DUP1 MULMOD DUP1 MULMOD DUP2 DUP1 DUP9 DUP2 DUP2 DUP1 MULMOD MULMOD SWAP2 DUP1 MULMOD MULMOD DUP1 MULMOD DUP1 MULMOD SWAP3 DUP2 DUP2 DUP1 MULMOD MULMOD SWAP2 DUP1 MULMOD MULMOD DUP1 MULMOD DUP1 MULMOD DUP1 MULMOD DUP1 MULMOD DUP1 MULMOD DUP1 MULMOD DUP1 MULMOD DUP2 DUP1 DUP14 DUP2 DUP1 DUP1 DUP4 DUP2 DUP2 DUP1 MULMOD MULMOD DUP2 DUP5 DUP2 DUP2 DUP1 MULMOD MULMOD MULMOD SWAP2 DUP2 DUP1 DUP3 DUP2 DUP2 DUP1 MULMOD MULMOD SWAP2 DUP2 DUP1 DUP3 DUP2 DUP2 DUP1 MULMOD MULMOD SWAP2 DUP2 DUP2 DUP1 MULMOD MULMOD MULMOD MULMOD MULMOD SWAP2 DUP1 MULMOD MULMOD DUP1 MULMOD DUP1 MULMOD DUP1 MULMOD DUP2 DUP1 DUP1 DUP11 DUP2 DUP2 DUP1 MULMOD MULMOD DUP2 DUP1 DUP13 DUP2 DUP2 DUP1 MULMOD MULMOD DUP2 DUP14 DUP2 DUP2 DUP1 MULMOD MULMOD MULMOD MULMOD SWAP2 DUP1 MULMOD MULMOD DUP1 MULMOD DUP1 MULMOD DUP1 MULMOD SWAP3 DUP2 DUP1 DUP1 DUP4 DUP2 DUP2 DUP1 MULMOD MULMOD DUP2 DUP5 DUP2 DUP2 DUP1 MULMOD MULMOD MULMOD SWAP2 DUP2 DUP1 DUP3 DUP2 DUP2 DUP1 MULMOD MULMOD SWAP2 DUP2 DUP1 DUP3 DUP2 DUP2 DUP1 MULMOD MULMOD SWAP2 DUP2 DUP2 DUP1 MULMOD MULMOD MULMOD MULMOD MULMOD SWAP2 DUP1 MULMOD MULMOD DUP1 MULMOD DUP1 MULMOD DUP2 DUP1 DUP1 DUP13 DUP1 MULMOD DUP2 DUP14 DUP2 DUP2 DUP1 MULMOD MULMOD MULMOD SWAP2 DUP1 MULMOD MULMOD DUP1 MULMOD DUP1 MULMOD DUP1 MULMOD DUP1 MULMOD DUP2 DUP1 DUP1 DUP8 DUP2 DUP2 DUP1 MULMOD MULMOD DUP2 DUP1 DUP10 DUP2 DUP2 DUP1 MULMOD MULMOD DUP2 DUP11 DUP2 DUP2 DUP1 MULMOD MULMOD MULMOD MULMOD SWAP2 DUP1 MULMOD MULMOD DUP1 MULMOD SWAP2 PUSH32 0x30644E72E131A029B85045B68181585D97816A916871CA8D3C208C16D87CFD47 DUP4 DUP1 MULMOD EQ SWAP1 JUMP JUMPDEST PUSH2 0x2ACE PUSH2 0x2AB9 PUSH32 0x54FB1321278F57B36922D1D65A0ED99E1CCA4AC0E95DAEA09B8A53AB3DBC462 SWAP6 PUSH2 0x2AD6 SWAP6 DUP2 DUP2 PUSH2 0x3574 JUMP JUMPDEST SWAP4 SWAP1 SWAP3 PUSH2 0x2AC8 DUP3 DUP3 DUP2 DUP2 PUSH2 0x3574 JUMP JUMPDEST SWAP1 PUSH2 0x3574 JUMP JUMPDEST SWAP3 SWAP1 SWAP2 PUSH2 0x35BA JUMP JUMPDEST SWAP2 SWAP1 PUSH32 0x30644E72E131A029B85045B68181585D97816A916871CA8D3C208C16D87CFD47 SWAP2 DUP3 SWAP2 ADDMOD ISZERO SWAP2 DUP3 PUSH2 0x2B09 JUMPI POP POP SWAP1 JUMP JUMPDEST PUSH32 0x2FCD3AC2A640A154EB23960892A85A68F031CA0C8344B23A577DCF1052B9E775 SWAP2 SWAP3 POP ADDMOD ISZERO SWAP1 JUMP JUMPDEST SWAP5 SWAP8 SWAP7 SWAP8 SWAP6 SWAP2 SWAP3 SWAP4 SWAP6 PUSH2 0x2B4E PUSH2 0x2B46 PUSH2 0xEF7 JUMP JUMPDEST SWAP10 DUP11 SWAP5 PUSH2 0x352C JUMP JUMPDEST SWAP8 SWAP1 SWAP7 PUSH2 0x2B74 PUSH2 0x2B5E DUP9 DUP9 PUSH2 0x352C JUMP JUMPDEST SWAP5 SWAP1 SWAP4 PUSH1 0x60 DUP9 ADD SWAP6 DUP7 MSTORE PUSH1 0x40 DUP9 ADD SWAP5 DUP6 MSTORE PUSH2 0x352C JUMP JUMPDEST SWAP8 SWAP1 SWAP7 PUSH2 0x2B81 DUP7 DUP5 PUSH2 0x352C JUMP JUMPDEST PUSH1 0x80 PUSH1 0xA0 DUP11 SWAP10 SWAP4 SWAP10 ADD SWAP10 DUP3 DUP12 MSTORE ADD SWAP8 DUP1 DUP10 MSTORE DUP11 EQ SWAP1 DUP2 PUSH2 0x2D11 JUMPI JUMPDEST POP PUSH2 0x2C97 JUMPI POP POP POP POP POP POP POP POP PUSH1 0x40 DUP7 ADD SWAP3 DUP4 MLOAD SWAP5 PUSH1 0x60 DUP9 ADD SWAP6 DUP7 MLOAD SWAP2 PUSH2 0x2BC2 SWAP4 PUSH2 0x35BA JUMP JUMPDEST PUSH1 0x80 DUP9 ADD SWAP3 DUP4 MLOAD SWAP5 PUSH1 0xA0 DUP11 ADD SWAP6 DUP7 MLOAD SWAP2 PUSH2 0x2BDB SWAP4 PUSH2 0x35BA JUMP JUMPDEST PUSH2 0x2BE7 DUP2 DUP4 DUP2 DUP2 PUSH2 0x3574 JUMP JUMPDEST DUP4 DUP4 DUP9 SWAP6 SWAP4 SWAP6 MLOAD DUP11 MLOAD PUSH2 0x2BFB SWAP2 DUP6 DUP10 PUSH2 0x3574 JUMP JUMPDEST SWAP4 PUSH2 0x2C07 SWAP4 SWAP2 SWAP8 PUSH2 0x3574 JUMP JUMPDEST SWAP9 SWAP1 SWAP8 PUSH2 0x2C14 DUP11 DUP11 PUSH2 0x352C JUMP JUMPDEST SWAP1 SWAP3 MSTORE MSTORE DUP12 DUP8 DUP10 PUSH2 0x2C27 DUP9 DUP11 DUP2 DUP2 PUSH2 0x3574 JUMP JUMPDEST PUSH2 0x2C30 SWAP2 PUSH2 0x352C JUMP JUMPDEST PUSH2 0x2C3A SWAP4 SWAP2 PUSH2 0x35BA JUMP JUMPDEST PUSH2 0x2C44 DUP5 DUP9 PUSH2 0x3877 JUMP JUMPDEST SWAP2 PUSH2 0x2C4E SWAP4 PUSH2 0x35BA JUMP JUMPDEST DUP2 DUP2 SWAP7 PUSH2 0x2C5B SWAP4 SWAP7 PUSH2 0x3574 JUMP JUMPDEST SWAP1 SWAP2 PUSH1 0x20 ADD MSTORE DUP13 MSTORE PUSH2 0x2C6C SWAP4 PUSH2 0x35BA JUMP JUMPDEST SWAP2 PUSH2 0x2C76 SWAP4 PUSH2 0x3574 JUMP JUMPDEST SWAP2 SWAP1 SWAP3 DUP5 MLOAD DUP7 MLOAD SWAP2 PUSH2 0x2C87 SWAP4 PUSH2 0x3574 JUMP JUMPDEST SWAP2 PUSH2 0x2C91 SWAP4 PUSH2 0x35BA JUMP JUMPDEST SWAP1 SWAP3 MSTORE MSTORE JUMP JUMPDEST SWAP4 SWAP8 POP SWAP4 SWAP8 POP SWAP4 SWAP8 DUP7 SWAP12 SWAP11 SWAP12 SWAP10 SWAP2 SWAP6 SWAP10 MLOAD EQ SWAP1 DUP2 PUSH2 0x2D06 JUMPI JUMPDEST POP PUSH2 0x2CE7 JUMPI POP POP POP POP POP POP POP POP PUSH1 0x0 PUSH1 0xA0 DUP3 ADD MSTORE PUSH1 0x0 PUSH1 0x80 DUP3 ADD MSTORE PUSH1 0x0 PUSH1 0x60 DUP3 ADD MSTORE PUSH1 0x1 PUSH1 0x40 DUP3 ADD MSTORE PUSH1 0x0 PUSH1 0x20 DUP3 ADD MSTORE PUSH1 0x1 DUP2 MSTORE SWAP1 JUMP JUMPDEST PUSH2 0x2CF0 SWAP4 PUSH2 0x35FC JUMP JUMPDEST SWAP1 SWAP3 SWAP7 SWAP4 SWAP8 SWAP2 SWAP5 SWAP9 MSTORE MSTORE MSTORE MSTORE PUSH1 0x20 DUP4 ADD MSTORE DUP2 MSTORE SWAP1 JUMP JUMPDEST SWAP1 POP DUP7 MLOAD EQ CODESIZE PUSH2 0x2CB0 JUMP JUMPDEST SWAP1 POP DUP11 EQ CODESIZE PUSH2 0x2B9C JUMP JUMPDEST SWAP6 SWAP4 SWAP2 SWAP6 SWAP5 SWAP1 SWAP3 SWAP5 PUSH32 0x30644E72E131A029B85045B68181585D97816A916871CA8D3C208C16D87CFD47 SWAP3 PUSH1 0x40 MLOAD PUSH1 0x20 DUP2 MSTORE PUSH1 0x20 DUP1 DUP3 ADD MSTORE PUSH1 0x20 PUSH1 0x40 DUP3 ADD MSTORE DUP5 DUP1 DUP4 DUP1 MULMOD DUP2 DUP7 DUP1 MULMOD ADDMOD PUSH1 0x60 DUP3 ADD MSTORE PUSH32 0x30644E72E131A029B85045B68181585D97816A916871CA8D3C208C16D87CFD45 PUSH1 0x80 DUP3 ADD MSTORE DUP5 PUSH1 0xA0 DUP3 ADD MSTORE PUSH1 0x20 DUP2 PUSH1 0xC0 DUP2 PUSH1 0x5 PUSH32 0xFFFFFFFFFFFFFFFFFFFFFFFFFFFFFFFFFFFFFFFFFFFFFFFFFFFFFFFFFFFFF830 GAS ADD STATICCALL SWAP1 MLOAD SWAP1 ISZERO PUSH2 0x273 JUMPI DUP5 DUP2 DUP2 SWAP4 MULMOD SWAP4 MULMOD DUP4 SUB SWAP3 DUP4 GT PUSH2 0xCDE JUMPI DUP3 DUP3 PUSH2 0x2DEF SWAP6 PUSH2 0x2DE7 SWAP4 PUSH2 0x3574 JUMP JUMPDEST SWAP6 SWAP1 SWAP7 PUSH2 0x3574 JUMP JUMPDEST SWAP1 SWAP2 JUMP JUMPDEST DUP1 PUSH32 0x30644E72E131A029B85045B68181585D97816A916871CA8D3C208C16D87CFD47 DUP1 DUP1 DUP1 DUP1 DUP1 DUP1 DUP1 DUP9 DUP2 DUP1 DUP1 DUP1 DUP1 SWAP15 DUP2 DUP1 DUP1 DUP1 DUP1 DUP1 DUP1 DUP1 DUP1 DUP10 DUP2 DUP1 DUP1 DUP1 DUP1 SWAP15 DUP2 DUP1 DUP1 DUP1 DUP1 DUP1 DUP1 DUP1 DUP9 DUP2 DUP1 DUP1 DUP1 DUP1 DUP1 SWAP15 DUP2 DUP1 DUP1 DUP1 DUP1 DUP1 DUP1 DUP1 DUP9 DUP2 DUP1 DUP1 DUP1 DUP1 DUP1 SWAP15 DUP2 DUP2 DUP2 DUP1 DUP1 DUP1 DUP1 DUP1 DUP1 DUP8 DUP2 DUP1 DUP1 DUP1 DUP1 SWAP15 DUP2 DUP1 DUP1 DUP1 DUP1 DUP1 DUP1 DUP8 DUP2 DUP1 DUP1 DUP1 DUP1 DUP1 DUP1 SWAP15 DUP2 DUP1 DUP3 DUP2 DUP1 DUP1 DUP1 DUP1 DUP1 DUP1 DUP1 DUP1 DUP1 DUP1 DUP1 SWAP15 DUP2 DUP1 DUP3 DUP2 DUP1 DUP1 DUP1 DUP1 DUP1 DUP1 DUP1 DUP1 DUP10 DUP2 DUP1 SWAP15 DUP2 DUP1 DUP1 DUP1 DUP1 DUP1 DUP1 DUP1 DUP1 DUP1 DUP1 DUP1 DUP1 DUP14 DUP2 SWAP15 DUP3 DUP1 DUP1 DUP1 DUP1 DUP1 DUP1 DUP1 DUP1 DUP1 DUP1 DUP1 DUP1 DUP1 DUP1 SWAP15 DUP1 DUP3 DUP1 DUP1 DUP1 DUP1 DUP1 DUP1 DUP1 DUP1 DUP1 DUP1 DUP1 DUP1 DUP1 SWAP15 DUP1 DUP3 DUP1 DUP1 DUP1 DUP1 DUP1 DUP1 DUP1 DUP1 DUP1 DUP1 DUP1 DUP1 DUP14 DUP2 SWAP16 DUP3 DUP1 DUP1 DUP1 DUP1 DUP1 DUP1 DUP1 DUP1 DUP1 DUP11 DUP2 DUP1 DUP1 DUP1 SWAP15 DUP2 DUP1 DUP1 DUP1 DUP1 DUP1 DUP1 DUP1 DUP1 DUP10 DUP2 DUP1 DUP1 DUP1 DUP1 SWAP15 DUP2 DUP1 DUP1 DUP1 DUP1 DUP1 DUP1 DUP1 DUP1 DUP10 DUP2 DUP1 DUP1 DUP1 DUP1 SWAP15 DUP2 DUP1 DUP1 DUP1 DUP1 DUP1 DUP1 DUP1 DUP1 DUP10 DUP2 DUP1 DUP1 DUP1 DUP1 SWAP15 DUP2 DUP1 DUP1 DUP1 DUP1 DUP1 DUP1 DUP1 DUP1 DUP1 DUP1 DUP1 DUP1 DUP1 DUP1 SWAP15 DUP1 DUP3 DUP1 DUP1 DUP1 DUP1 DUP1 DUP1 DUP1 DUP1 DUP1 DUP1 DUP1 DUP1 DUP14 DUP2 SWAP16 DUP3 DUP1 DUP1 DUP1 DUP1 DUP1 DUP1 DUP1 DUP1 DUP10 DUP2 DUP1 DUP1 DUP1 DUP1 SWAP15 DUP2 DUP1 DUP1 DUP1 DUP1 DUP1 DUP1 DUP1 DUP1 DUP1 SWAP10 DUP2 DUP1 DUP1 DUP1 DUP1 DUP6 DUP2 DUP1 DUP1 DUP1 DUP1 DUP1 DUP1 DUP1 DUP1 DUP1 DUP1 DUP12 DUP2 DUP2 DUP1 MULMOD MULMOD DUP2 DUP13 DUP2 DUP2 DUP1 MULMOD MULMOD MULMOD DUP2 DUP1 DUP13 DUP2 DUP2 DUP1 MULMOD MULMOD DUP2 DUP14 DUP2 DUP2 DUP1 MULMOD MULMOD MULMOD MULMOD DUP2 DUP1 DUP1 DUP13 DUP2 DUP2 DUP1 MULMOD MULMOD DUP2 DUP14 DUP2 DUP2 DUP1 MULMOD MULMOD MULMOD DUP2 DUP13 DUP2 DUP1 DUP3 DUP2 DUP2 DUP1 MULMOD MULMOD SWAP2 DUP2 DUP2 DUP1 MULMOD MULMOD MULMOD MULMOD MULMOD DUP1 MULMOD DUP1 MULMOD DUP1 MULMOD DUP2 DUP1 DUP8 DUP2 DUP2 DUP1 MULMOD MULMOD SWAP2 DUP1 MULMOD MULMOD DUP1 MULMOD DUP1 MULMOD DUP1 MULMOD MULMOD DUP1 MULMOD DUP1 MULMOD DUP1 MULMOD DUP1 MULMOD MULMOD DUP1 MULMOD DUP1 MULMOD DUP1 MULMOD DUP1 MULMOD DUP2 DUP1 DUP13 DUP2 DUP1 DUP3 DUP1 MULMOD SWAP2 DUP2 DUP1 DUP3 DUP1 MULMOD SWAP2 DUP2 DUP2 DUP1 MULMOD MULMOD MULMOD MULMOD SWAP2 DUP1 MULMOD MULMOD DUP1 MULMOD DUP1 MULMOD DUP1 MULMOD DUP1 MULMOD DUP2 DUP1 DUP1 DUP9 DUP1 MULMOD DUP2 DUP1 DUP11 DUP1 MULMOD DUP2 DUP12 DUP2 DUP2 DUP1 MULMOD MULMOD MULMOD MULMOD SWAP2 DUP1 MULMOD MULMOD DUP1 MULMOD DUP1 MULMOD DUP1 MULMOD MULMOD DUP1 MULMOD DUP1 MULMOD DUP1 MULMOD DUP2 DUP1 DUP1 DUP11 DUP1 MULMOD DUP2 DUP1 DUP13 DUP1 MULMOD DUP2 DUP14 DUP2 DUP2 DUP1 MULMOD MULMOD MULMOD MULMOD SWAP2 DUP1 MULMOD MULMOD DUP1 MULMOD DUP1 MULMOD DUP1 MULMOD DUP1 MULMOD DUP1 MULMOD MULMOD DUP1 MULMOD DUP1 MULMOD DUP1 MULMOD DUP2 DUP1 DUP13 DUP2 DUP2 DUP1 MULMOD MULMOD SWAP2 DUP1 MULMOD MULMOD DUP1 MULMOD DUP1 MULMOD DUP1 MULMOD DUP1 MULMOD DUP1 MULMOD DUP1 MULMOD SWAP3 DUP2 DUP1 DUP1 DUP4 DUP2 DUP2 DUP1 MULMOD MULMOD DUP2 DUP5 DUP2 DUP2 DUP1 MULMOD MULMOD MULMOD SWAP2 DUP2 DUP1 DUP3 DUP1 MULMOD SWAP2 DUP2 DUP1 DUP3 DUP1 MULMOD SWAP2 DUP2 DUP2 DUP1 MULMOD MULMOD MULMOD MULMOD MULMOD SWAP2 DUP1 MULMOD MULMOD DUP1 MULMOD DUP1 MULMOD DUP1 MULMOD DUP1 MULMOD DUP1 MULMOD DUP1 MULMOD DUP1 MULMOD DUP1 MULMOD DUP1 MULMOD DUP2 DUP1 DUP14 DUP2 DUP1 DUP3 DUP1 MULMOD SWAP2 DUP2 DUP2 DUP1 MULMOD MULMOD MULMOD SWAP2 DUP1 MULMOD MULMOD DUP1 MULMOD DUP1 MULMOD DUP1 MULMOD DUP2 DUP1 DUP10 DUP2 DUP2 DUP1 MULMOD MULMOD SWAP2 DUP1 MULMOD MULMOD DUP1 MULMOD DUP1 MULMOD DUP1 MULMOD SWAP3 DUP2 DUP1 DUP3 DUP1 MULMOD SWAP2 DUP2 DUP1 DUP3 DUP1 MULMOD SWAP2 DUP2 DUP2 DUP1 MULMOD MULMOD MULMOD MULMOD SWAP2 DUP1 MULMOD MULMOD DUP1 MULMOD DUP1 MULMOD DUP1 MULMOD DUP1 MULMOD DUP1 MULMOD DUP1 MULMOD DUP2 DUP1 DUP1 DUP12 DUP1 MULMOD DUP2 DUP13 DUP2 DUP2 DUP1 MULMOD MULMOD MULMOD SWAP2 DUP1 MULMOD MULMOD DUP1 MULMOD DUP1 MULMOD DUP1 MULMOD DUP1 MULMOD DUP1 MULMOD DUP1 MULMOD MULMOD DUP1 MULMOD DUP1 MULMOD DUP1 MULMOD DUP1 MULMOD DUP1 MULMOD DUP1 MULMOD DUP2 DUP1 DUP1 DUP1 DUP13 DUP1 MULMOD DUP2 DUP14 DUP2 DUP2 DUP1 MULMOD MULMOD MULMOD DUP2 DUP13 DUP2 DUP1 DUP3 DUP2 DUP2 DUP1 MULMOD MULMOD SWAP2 DUP2 DUP2 DUP1 MULMOD MULMOD MULMOD MULMOD SWAP2 DUP1 MULMOD MULMOD DUP1 MULMOD DUP1 MULMOD DUP1 MULMOD DUP1 MULMOD SWAP3 DUP2 DUP1 DUP1 DUP4 DUP2 DUP2 DUP1 MULMOD MULMOD DUP2 DUP5 DUP2 DUP2 DUP1 MULMOD MULMOD MULMOD SWAP2 DUP2 DUP1 DUP3 DUP1 MULMOD SWAP2 DUP2 DUP1 DUP3 DUP1 MULMOD SWAP2 DUP2 DUP2 DUP1 MULMOD MULMOD MULMOD MULMOD MULMOD SWAP2 DUP1 MULMOD MULMOD DUP1 MULMOD DUP1 MULMOD DUP2 DUP1 DUP14 DUP2 DUP1 DUP3 DUP1 MULMOD SWAP2 DUP2 DUP2 DUP1 MULMOD MULMOD MULMOD SWAP2 DUP1 MULMOD MULMOD DUP1 MULMOD DUP1 MULMOD DUP1 MULMOD DUP1 MULMOD DUP1 MULMOD DUP1 MULMOD DUP1 MULMOD SWAP3 DUP2 DUP2 DUP1 MULMOD MULMOD SWAP2 DUP1 MULMOD MULMOD DUP1 MULMOD DUP1 MULMOD DUP1 MULMOD DUP1 MULMOD DUP1 MULMOD DUP1 MULMOD DUP1 MULMOD DUP1 MULMOD SWAP3 DUP2 DUP1 DUP3 DUP1 MULMOD SWAP2 DUP2 DUP2 DUP1 MULMOD MULMOD MULMOD SWAP2 DUP1 MULMOD MULMOD DUP1 MULMOD DUP1 MULMOD DUP2 DUP1 DUP14 DUP2 DUP2 DUP1 MULMOD MULMOD SWAP2 DUP1 MULMOD MULMOD DUP1 MULMOD DUP1 MULMOD DUP1 MULMOD DUP1 MULMOD DUP1 MULMOD DUP1 MULMOD DUP1 MULMOD SWAP3 DUP2 DUP1 DUP1 DUP4 DUP1 MULMOD DUP2 DUP5 DUP2 DUP2 DUP1 MULMOD MULMOD MULMOD SWAP2 DUP2 DUP1 DUP3 DUP2 DUP2 DUP1 MULMOD MULMOD SWAP2 DUP2 DUP2 DUP1 MULMOD MULMOD MULMOD MULMOD SWAP2 DUP1 MULMOD MULMOD DUP1 MULMOD DUP1 MULMOD DUP1 MULMOD DUP2 DUP1 DUP14 DUP2 DUP1 DUP1 DUP4 DUP1 MULMOD DUP2 DUP5 DUP2 DUP2 DUP1 MULMOD MULMOD MULMOD SWAP2 DUP2 DUP1 DUP3 DUP2 DUP2 DUP1 MULMOD MULMOD SWAP2 DUP2 DUP2 DUP1 MULMOD MULMOD MULMOD MULMOD SWAP2 DUP1 MULMOD MULMOD DUP1 MULMOD DUP1 MULMOD DUP1 MULMOD DUP1 MULMOD DUP2 DUP1 DUP1 DUP10 DUP1 MULMOD DUP2 DUP11 DUP2 DUP2 DUP1 MULMOD MULMOD MULMOD SWAP2 DUP1 MULMOD MULMOD DUP1 MULMOD DUP1 MULMOD SWAP3 DUP2 DUP1 DUP3 DUP1 MULMOD SWAP2 DUP2 DUP1 DUP3 DUP1 MULMOD SWAP2 DUP2 DUP2 DUP1 MULMOD MULMOD MULMOD MULMOD SWAP2 DUP1 MULMOD MULMOD DUP1 MULMOD DUP1 MULMOD DUP1 MULMOD DUP1 MULMOD DUP1 MULMOD DUP1 MULMOD DUP1 MULMOD DUP1 MULMOD DUP1 MULMOD DUP2 DUP1 DUP1 DUP1 DUP12 DUP1 MULMOD DUP2 DUP13 DUP2 DUP2 DUP1 MULMOD MULMOD MULMOD DUP2 DUP1 DUP13 DUP2 DUP2 DUP1 MULMOD MULMOD DUP2 DUP14 DUP2 DUP2 DUP1 MULMOD MULMOD MULMOD MULMOD SWAP2 DUP1 MULMOD MULMOD DUP1 MULMOD DUP1 MULMOD DUP1 MULMOD SWAP3 DUP2 DUP1 DUP3 DUP1 MULMOD SWAP2 DUP2 DUP2 DUP1 MULMOD MULMOD MULMOD SWAP2 DUP1 MULMOD MULMOD DUP1 MULMOD DUP1 MULMOD DUP1 MULMOD DUP1 MULMOD DUP2 DUP1 DUP14 DUP2 DUP1 DUP3 DUP2 DUP2 DUP1 MULMOD MULMOD SWAP2 DUP2 DUP1 DUP3 DUP2 DUP2 DUP1 MULMOD MULMOD SWAP2 DUP2 DUP2 DUP1 MULMOD MULMOD MULMOD MULMOD SWAP2 DUP1 MULMOD MULMOD DUP1 MULMOD DUP1 MULMOD DUP1 MULMOD DUP1 MULMOD DUP1 MULMOD DUP1 MULMOD DUP2 DUP1 DUP1 DUP1 DUP9 DUP1 MULMOD DUP2 DUP10 DUP2 DUP2 DUP1 MULMOD MULMOD MULMOD DUP2 DUP1 DUP10 DUP2 DUP2 DUP1 MULMOD MULMOD DUP2 DUP11 DUP2 DUP2 DUP1 MULMOD MULMOD MULMOD MULMOD SWAP2 DUP1 MULMOD MULMOD DUP1 MULMOD DUP1 MULMOD MULMOD DUP1 MULMOD DUP1 MULMOD DUP1 MULMOD DUP1 MULMOD DUP1 MULMOD DUP1 MULMOD SWAP3 DUP2 DUP1 DUP3 DUP1 MULMOD SWAP2 DUP2 DUP1 DUP3 DUP1 MULMOD SWAP2 DUP2 DUP2 DUP1 MULMOD MULMOD MULMOD MULMOD SWAP2 DUP1 MULMOD MULMOD DUP1 MULMOD DUP1 MULMOD DUP1 MULMOD DUP1 MULMOD DUP1 MULMOD DUP2 DUP1 DUP1 DUP13 DUP1 MULMOD DUP2 DUP14 DUP2 DUP1 DUP3 DUP1 MULMOD SWAP2 DUP2 DUP2 DUP1 MULMOD MULMOD MULMOD MULMOD SWAP2 DUP1 MULMOD MULMOD DUP1 MULMOD DUP1 MULMOD DUP1 MULMOD DUP1 MULMOD DUP2 DUP1 DUP1 DUP8 DUP1 MULMOD DUP2 DUP9 DUP2 DUP2 DUP1 MULMOD MULMOD MULMOD SWAP2 DUP1 MULMOD MULMOD DUP1 MULMOD DUP1 MULMOD MULMOD DUP1 MULMOD DUP1 MULMOD DUP1 MULMOD DUP1 MULMOD DUP1 MULMOD DUP1 MULMOD SWAP3 DUP2 DUP1 DUP1 DUP4 DUP2 DUP2 DUP1 MULMOD MULMOD DUP2 DUP5 DUP2 DUP2 DUP1 MULMOD MULMOD MULMOD SWAP2 DUP2 DUP1 DUP3 DUP1 MULMOD SWAP2 DUP2 DUP1 DUP3 DUP1 MULMOD SWAP2 DUP2 DUP2 DUP1 MULMOD MULMOD MULMOD MULMOD MULMOD SWAP2 DUP1 MULMOD MULMOD DUP1 MULMOD DUP1 MULMOD DUP1 MULMOD DUP1 MULMOD DUP1 MULMOD DUP2 DUP1 DUP1 DUP1 DUP12 DUP2 DUP2 DUP1 MULMOD MULMOD DUP2 DUP13 DUP2 DUP2 DUP1 MULMOD MULMOD MULMOD DUP2 DUP1 DUP13 DUP2 DUP2 DUP1 MULMOD MULMOD DUP2 DUP14 DUP2 DUP1 DUP3 DUP2 DUP2 DUP1 MULMOD MULMOD SWAP2 DUP2 DUP2 DUP1 MULMOD MULMOD MULMOD MULMOD MULMOD SWAP2 DUP1 MULMOD MULMOD DUP1 MULMOD DUP1 MULMOD DUP1 MULMOD DUP1 MULMOD DUP1 MULMOD MULMOD DUP1 MULMOD DUP1 MULMOD DUP1 MULMOD DUP1 MULMOD DUP1 MULMOD DUP1 MULMOD MULMOD DUP1 MULMOD DUP1 MULMOD DUP1 MULMOD DUP1 MULMOD SWAP3 DUP2 DUP2 DUP1 MULMOD MULMOD SWAP2 DUP1 MULMOD MULMOD DUP1 MULMOD DUP1 MULMOD DUP1 MULMOD DUP1 MULMOD DUP1 MULMOD DUP1 MULMOD DUP1 MULMOD DUP1 MULMOD DUP2 DUP1 DUP1 DUP1 DUP11 DUP1 MULMOD DUP2 DUP12 DUP2 DUP2 DUP1 MULMOD MULMOD MULMOD DUP2 DUP1 DUP12 DUP2 DUP2 DUP1 MULMOD MULMOD DUP2 DUP13 DUP2 DUP2 DUP1 MULMOD MULMOD MULMOD MULMOD SWAP2 DUP1 MULMOD MULMOD DUP1 MULMOD DUP1 MULMOD SWAP3 DUP2 DUP2 DUP1 MULMOD MULMOD SWAP2 DUP1 MULMOD MULMOD DUP1 MULMOD DUP1 MULMOD DUP2 DUP1 DUP14 DUP2 DUP2 DUP1 MULMOD MULMOD SWAP2 DUP1 MULMOD MULMOD DUP1 MULMOD DUP1 MULMOD DUP1 MULMOD DUP1 MULMOD DUP1 MULMOD DUP1 MULMOD DUP1 MULMOD SWAP3 DUP2 DUP1 DUP1 DUP4 DUP2 DUP2 DUP1 MULMOD MULMOD DUP2 DUP5 DUP2 DUP2 DUP1 MULMOD MULMOD MULMOD SWAP2 DUP2 DUP1 DUP3 DUP2 DUP2 DUP1 MULMOD MULMOD SWAP2 DUP2 DUP1 DUP3 DUP2 DUP2 DUP1 MULMOD MULMOD SWAP2 DUP2 DUP2 DUP1 MULMOD MULMOD MULMOD MULMOD MULMOD SWAP2 DUP1 MULMOD MULMOD DUP1 MULMOD DUP1 MULMOD DUP1 MULMOD DUP2 DUP1 DUP14 DUP2 DUP1 DUP3 DUP2 DUP2 DUP1 MULMOD MULMOD SWAP2 DUP2 DUP1 DUP3 DUP2 DUP2 DUP1 MULMOD MULMOD SWAP2 DUP2 DUP2 DUP1 MULMOD MULMOD MULMOD MULMOD SWAP2 DUP1 MULMOD MULMOD DUP1 MULMOD DUP1 MULMOD DUP1 MULMOD DUP2 DUP1 DUP1 DUP1 DUP12 DUP2 DUP2 DUP1 MULMOD MULMOD DUP2 DUP13 DUP2 DUP2 DUP1 MULMOD MULMOD MULMOD DUP2 DUP1 DUP13 DUP2 DUP2 DUP1 MULMOD MULMOD DUP2 DUP14 DUP2 DUP1 DUP3 DUP2 DUP2 DUP1 MULMOD MULMOD SWAP2 DUP2 DUP2 DUP1 MULMOD MULMOD MULMOD MULMOD MULMOD SWAP2 DUP1 MULMOD MULMOD DUP1 MULMOD DUP1 MULMOD DUP2 DUP1 DUP1 DUP8 DUP1 MULMOD DUP2 DUP9 DUP2 DUP2 DUP1 MULMOD MULMOD MULMOD SWAP2 DUP1 MULMOD MULMOD DUP1 MULMOD DUP1 MULMOD MULMOD DUP1 MULMOD DUP1 MULMOD DUP1 MULMOD DUP1 MULMOD DUP1 MULMOD SWAP3 DUP2 DUP1 DUP3 DUP1 MULMOD SWAP2 DUP2 DUP2 DUP1 MULMOD MULMOD MULMOD SWAP2 DUP1 MULMOD MULMOD SWAP1 JUMP JUMPDEST SWAP2 SWAP1 SWAP2 PUSH32 0x30644E72E131A029B85045B68181585D97816A916871CA8D3C208C16D87CFD47 SWAP1 DUP2 PUSH1 0x0 DUP6 MULMOD DUP3 SUB DUP3 DUP2 GT PUSH2 0xCDE JUMPI PUSH1 0x0 DUP4 PUSH1 0x1 DUP2 DUP1 SWAP5 DUP2 DUP4 DUP9 MULMOD ADDMOD SWAP8 MULMOD SWAP3 MULMOD ADDMOD SWAP1 JUMP JUMPDEST SWAP1 SWAP4 SWAP3 SWAP2 PUSH32 0x30644E72E131A029B85045B68181585D97816A916871CA8D3C208C16D87CFD47 SWAP3 DUP4 DUP2 DUP8 MULMOD DUP5 SUB DUP5 DUP2 GT PUSH2 0xCDE JUMPI DUP3 DUP6 DUP1 SWAP5 SWAP3 DUP2 DUP1 SWAP5 DUP9 MULMOD ADDMOD SWAP8 MULMOD SWAP3 MULMOD ADDMOD SWAP1 JUMP JUMPDEST SWAP4 SWAP3 SWAP1 SWAP4 PUSH32 0x30644E72E131A029B85045B68181585D97816A916871CA8D3C208C16D87CFD47 SWAP3 DUP4 SUB SWAP2 DUP4 DUP4 GT PUSH2 0xCDE JUMPI DUP4 SUB SWAP2 DUP4 DUP4 GT PUSH2 0xCDE JUMPI DUP4 SWAP2 ADDMOD SWAP4 ADDMOD SWAP1 JUMP JUMPDEST SWAP3 SWAP4 DUP3 SWAP2 DUP6 PUSH32 0x30644E72E131A029B85045B68181585D97816A916871CA8D3C208C16D87CFD47 PUSH1 0x3 DUP4 MULMOD DUP3 DUP8 PUSH32 0x30644E72E131A029B85045B68181585D97816A916871CA8D3C208C16D87CFD47 PUSH1 0x3 DUP3 MULMOD SWAP3 PUSH2 0x3657 SWAP4 PUSH2 0x3574 JUMP JUMPDEST SWAP1 SWAP7 PUSH2 0x3663 DUP4 DUP8 PUSH2 0x352C JUMP JUMPDEST PUSH2 0x3673 DUP2 SWAP12 DUP4 SWAP10 DUP5 SWAP9 DUP5 SWAP7 PUSH2 0x3574 JUMP JUMPDEST PUSH2 0x367D SWAP4 SWAP2 PUSH2 0x3574 JUMP JUMPDEST SWAP4 SWAP1 SWAP8 PUSH2 0x368C DUP5 DUP12 DUP2 DUP2 PUSH2 0x3574 JUMP JUMPDEST PUSH32 0x30644E72E131A029B85045B68181585D97816A916871CA8D3C208C16D87CFD47 PUSH1 0x8 DUP9 MULMOD SWAP1 PUSH32 0x30644E72E131A029B85045B68181585D97816A916871CA8D3C208C16D87CFD47 PUSH1 0x8 DUP14 MULMOD SWAP1 PUSH2 0x36E1 SWAP4 PUSH2 0x35BA JUMP JUMPDEST SWAP10 DUP2 SWAP12 DUP12 SWAP8 SWAP3 SWAP7 PUSH2 0x36F4 DUP8 DUP12 DUP2 DUP2 PUSH2 0x3574 JUMP JUMPDEST SWAP10 DUP2 SWAP16 PUSH32 0x30644E72E131A029B85045B68181585D97816A916871CA8D3C208C16D87CFD47 PUSH1 0x4 DUP14 SWAP8 SWAP5 SWAP9 MULMOD SWAP3 PUSH1 0x4 PUSH32 0x30644E72E131A029B85045B68181585D97816A916871CA8D3C208C16D87CFD47 SWAP2 MULMOD SWAP3 PUSH2 0x374F SWAP4 PUSH2 0x35BA JUMP JUMPDEST PUSH2 0x3759 SWAP4 SWAP2 PUSH2 0x3574 JUMP JUMPDEST SWAP4 SWAP1 SWAP5 PUSH32 0x30644E72E131A029B85045B68181585D97816A916871CA8D3C208C16D87CFD47 PUSH1 0x8 DUP3 MULMOD SWAP2 PUSH32 0x30644E72E131A029B85045B68181585D97816A916871CA8D3C208C16D87CFD47 PUSH1 0x8 DUP3 MULMOD SWAP3 PUSH2 0x37B1 SWAP4 PUSH2 0x3574 JUMP JUMPDEST PUSH2 0x37BB SWAP4 SWAP2 PUSH2 0x3574 JUMP JUMPDEST SWAP2 PUSH2 0x37C5 SWAP4 PUSH2 0x35BA JUMP JUMPDEST SWAP7 SWAP1 SWAP8 PUSH1 0x2 PUSH32 0x30644E72E131A029B85045B68181585D97816A916871CA8D3C208C16D87CFD47 SWAP2 MULMOD SWAP3 PUSH1 0x2 PUSH32 0x30644E72E131A029B85045B68181585D97816A916871CA8D3C208C16D87CFD47 SWAP2 MULMOD SWAP3 PUSH2 0x381D SWAP4 PUSH2 0x3574 JUMP JUMPDEST SWAP7 SWAP1 SWAP8 PUSH2 0x3829 SWAP4 PUSH2 0x3574 JUMP JUMPDEST PUSH1 0x8 PUSH32 0x30644E72E131A029B85045B68181585D97816A916871CA8D3C208C16D87CFD47 SWAP2 MULMOD SWAP1 PUSH1 0x8 PUSH32 0x30644E72E131A029B85045B68181585D97816A916871CA8D3C208C16D87CFD47 SWAP2 MULMOD SWAP2 JUMP JUMPDEST PUSH1 0x2 DUP1 SWAP2 SWAP4 SWAP3 SWAP4 PUSH32 0x30644E72E131A029B85045B68181585D97816A916871CA8D3C208C16D87CFD47 SWAP3 DUP4 SWAP2 MULMOD SWAP4 MULMOD SWAP1 JUMP INVALID LOG2 PUSH5 0x6970667358 0x22 SLT KECCAK256 0x23 RETURNDATACOPY 0xB3 MUL SSTORE DUP12 DELEGATECALL 0xAD 0xF6 0xC1 PUSH25 0xAC8FB971F973F9621A994914527DAFAD4C12283AA064736F6C PUSH4 0x43000818 STOP CALLER "},"methodIdentifiers":{"DID_PREFIX()":"4c0d9781","DST_REVOKE()":"e714023d","DST_UPDATE()":"356b9454","EXPECTED_DID_LENGTH()":"c76cd403","PREFIX_LENGTH()":"2418833f","_didEntries(string)":"08d2a651","_isDIDRegistered(string)":"47f30bd5","nonces(string)":"b24fce88","register(string,bytes32,string,uint8)":"88b57e95","resolve(string)":"461a4478","revoke(string,uint256[2],uint8)":"46f3c1ed","update(string,bytes32,uint256[2],uint8)":"9d9dcabc"}}}}}