{"contracts/main/AccessControlContract.sol":{"AccessControlContract":{"abi":[{"inputs":[{"internalType":"uint256[4]","name":"input","type":"uint256[4]"}],"name":"BNAddFailed","type":"error"},{"inputs":[{"internalType":"bytes","name":"dst","type":"bytes"}],"name":"InvalidDSTLength","type":"error"},{"inputs":[{"internalType":"uint256","name":"x","type":"uint256"}],"name":"InvalidFieldElement","type":"error"},{"inputs":[{"internalType":"uint256","name":"noSqrt","type":"uint256"}],"name":"MapToPointFailed","type":"error"},{"inputs":[{"internalType":"uint256","name":"base","type":"uint256"},{"internalType":"uint256","name":"exponent","type":"uint256"},{"internalType":"uint256","name":"modulus","type":"uint256"}],"name":"ModExpFailed","type":"error"},{"inputs":[{"internalType":"string","name":"agentDID","type":"string"},{"internalType":"string","name":"resourceIdentifier","type":"string"},{"internalType":"string","name":"actionIdentifier","type":"string"}],"name":"evaluateAccess","outputs":[{"internalType":"bool","name":"","type":"bool"}],"stateMutability":"view","type":"function"},{"inputs":[{"internalType":"string","name":"resourceIdentifier","type":"string"},{"internalType":"string","name":"actionIdentifier","type":"string"}],"name":"getPolicy","outputs":[{"components":[{"internalType":"enum IACC.PolicyType","name":"policyType","type":"uint8"},{"internalType":"bytes","name":"policyParameters","type":"bytes"}],"internalType":"struct IACC.Policy[]","name":"","type":"tuple[]"}],"stateMutability":"view","type":"function"},{"inputs":[{"components":[{"internalType":"string","name":"resourceIdentifier","type":"string"},{"internalType":"string","name":"actionIdentifier","type":"string"},{"internalType":"string","name":"policyTypeStr","type":"string"},{"components":[{"internalType":"string","name":"key","type":"string"},{"internalType":"string","name":"value","type":"string"}],"internalType":"struct IACC.KV[]","name":"policyParameters","type":"tuple[]"},{"internalType":"address[]","name":"controllers","type":"address[]"},{"internalType":"uint256[4][]","name":"blsPubKeys","type":"uint256[4][]"},{"internalType":"uint8","name":"requiredSigs","type":"uint8"},{"internalType":"uint256[2]","name":"aggSig","type":"uint256[2]"},{"internalType":"uint256","name":"controllerMask","type":"uint256"}],"internalType":"struct IACC.RegisterPolicyParams","name":"params","type":"tuple"}],"name":"registerPolicy","outputs":[{"internalType":"bool","name":"","type":"bool"}],"stateMutability":"nonpayable","type":"function"},{"inputs":[{"components":[{"internalType":"string","name":"resourceIdentifier","type":"string"},{"internalType":"string","name":"actionIdentifier","type":"string"},{"internalType":"string","name":"policyTypeStr","type":"string"},{"components":[{"internalType":"string","name":"key","type":"string"},{"internalType":"string","name":"value","type":"string"}],"internalType":"struct IACC.KV[]","name":"policyParameters","type":"tuple[]"},{"internalType":"uint256[2]","name":"aggSig","type":"uint256[2]"},{"internalType":"uint256","name":"controllerMask","type":"uint256"}],"internalType":"struct IACC.RemovePolicyParams","name":"params","type":"tuple"}],"name":"removePolicy","outputs":[{"internalType":"bool","name":"","type":"bool"}],"stateMutability":"nonpayable","type":"function"},{"inputs":[],"name":"systemThreatLevel","outputs":[{"internalType":"string","name":"","type":"string"}],"stateMutability":"view","type":"function"}],"evm":{"bytecode":{"linkReferences":{"contracts/lib/EnvironmentalPolicyLogic.sol":{"EnvironmentalPolicyLogic":[{"length":20,"start":3830}]},"contracts/lib/TemporalPolicyLogic.sol":{"TemporalPolicyLogic":[{"length":20,"start":3558}]}},"object":"608080604052346200009e57600180548181811c9116801562000093575b60208210146200007d57601f81116200004b575b506006626c6f7760e81b019055613d6b9081620000a48239f35b8160005281601f6020600020920160051c8201915b8281106200007057505062000031565b6000815501829062000060565b634e487b7160e01b600052602260045260246000fd5b90607f16906200001d565b600080fdfe604060808152600436101561001357600080fd5b600090813560e01c9182632e06aac61461006d57505080638f43cb0614610068578063a38ccea014610063578063aa10d77e1461005e5763fd9891871461005957600080fd5b6105eb565b6104ca565b6102f1565b610253565b3461017e57817ffffffffffffffffffffffffffffffffffffffffffffffffffffffffffffffffc36011261017e5767ffffffffffffffff60043581811161017a576100bc903690600401610181565b9160243590811161017657906100da6100e293923690600401610181565b929091610979565b825191602080840190808552835180925285850181878460051b880101950193965b8388106101115786860387f35b90919293948380610165837fffffffffffffffffffffffffffffffffffffffffffffffffffffffffffffffc08b6001960301875285838b518051610154816101b4565b845201519181858201520190610210565b970193019701969093929193610104565b8380fd5b8280fd5b80fd5b9181601f840112156101af5782359167ffffffffffffffff83116101af57602083818601950101116101af57565b600080fd5b600311156101be57565b7f4e487b7100000000000000000000000000000000000000000000000000000000600052602160045260246000fd5b60005b8381106102005750506000910152565b81810151838201526020016101f0565b907fffffffffffffffffffffffffffffffffffffffffffffffffffffffffffffffe0601f60209361024c815180928187528780880191016101ed565b0116010190565b346101af5760607ffffffffffffffffffffffffffffffffffffffffffffffffffffffffffffffffc3601126101af5767ffffffffffffffff6004358181116101af576102a3903690600401610181565b6024929192358281116101af576102be903690600401610181565b6044949194359384116101af576020946102df6102e7953690600401610181565b949093610c52565b6040519015158152f35b346101af577ffffffffffffffffffffffffffffffffffffffffffffffffffffffffffffffffc6020813601126101af576004359067ffffffffffffffff82116101af576101409082360301126101af576102e760209160040161194c565b7f4e487b7100000000000000000000000000000000000000000000000000000000600052600060045260246000fd5b90600182811c921680156103c7575b602083101461039857565b7f4e487b7100000000000000000000000000000000000000000000000000000000600052602260045260246000fd5b91607f169161038d565b7f4e487b7100000000000000000000000000000000000000000000000000000000600052604160045260246000fd5b60c0810190811067ffffffffffffffff82111761041c57604052565b6103d1565b60e0810190811067ffffffffffffffff82111761041c57604052565b6040810190811067ffffffffffffffff82111761041c57604052565b6080810190811067ffffffffffffffff82111761041c57604052565b90601f7fffffffffffffffffffffffffffffffffffffffffffffffffffffffffffffffe0910116810190811067ffffffffffffffff82111761041c57604052565b9060206104c7928181520190610210565b90565b346101af576000807ffffffffffffffffffffffffffffffffffffffffffffffffffffffffffffffffc36011261017e576040519080600180549061050d8261037e565b80865292602092600181169081156105a05750600114610548575b6105448661053881880382610475565b604051918291826104b6565b0390f35b9350600184527fb10e2d527612073b26eecdfd717e6a320cf44b4afac2b0732d9fcbe2b7fa0cf65b83851061058d575050505081016020016105388261054438610528565b8054868601840152938201938101610570565b879650610544979450602093506105389592507fffffffffffffffffffffffffffffffffffffffffffffffffffffffffffffff0091501682840152151560051b820101929338610528565b346101af577ffffffffffffffffffffffffffffffffffffffffffffffffffffffffffffffffc6020813601126101af576004359067ffffffffffffffff82116101af5760e0826004019183360301126101af5761071061073661079b61067260c46107a09661065a8780610f12565b60248301949161066a868b610f12565b929091611df2565b9661077361068a896000526000602052604060002090565b9687956106a361069e600589015460ff1690565b611c61565b6107676106f96106cd6106b96064890188610f63565b604093919351928391602083019586611046565b037fffffffffffffffffffffffffffffffffffffffffffffffffffffffffffffffe08101835282610475565b5190209461071c8661071660448a019e8f85610f12565b90611e52565b8b612421565b9b61075b61073e61072d8480610f12565b97909685610f12565b939094610f12565b95909661075261074c6107ac565b9d611d1c565b8d523691610b7f565b60208b01523691610b7f565b60408801523691610b7f565b6060850152608084015261078a36608483016118ad565b60a0840152013560c082015261255e565b6128c4565b60405160018152602090f35b604051906107b982610421565b565b604051906107b98261043d565b60405190610180820182811067ffffffffffffffff82111761041c57604052565b67ffffffffffffffff811161041c5760051b60200190565b61080a826101b4565b52565b80546000939261081c8261037e565b918282526020936001916001811690816000146108845750600114610843575b5050505050565b90939495506000929192528360002092846000945b8386106108705750505050010190388080808061083c565b805485870183015294019385908201610858565b7fffffffffffffffffffffffffffffffffffffffffffffffffffffffffffffff00168685015250505090151560051b01019150388080808061083c565b906107b96108d5926040519384809261080d565b0383610475565b9081546108e8816107e9565b906040916108f96040519182610475565b818152600094855260208086209195908087015b84831061091c57505050505050565b855186810181811067ffffffffffffffff82111761041c5760019260029285928a5260ff88541661094c816101b4565b815289516109678161096081898d0161080d565b0382610475565b8382015281520194019201919261090d565b90610985939291611df2565b6000526000602052604060002060ff600582015416610a01576040517f08c379a000000000000000000000000000000000000000000000000000000000815260206004820152601560248201527f4143433a20706f6c696379206e6f7420666f756e6400000000000000000000006044820152606490fd5b0390fd5b6104c7906108dc565b7f4e487b7100000000000000000000000000000000000000000000000000000000600052603260045260246000fd5b8054821015610a555760005260206000209060011b0190600090565b610a0a565b908160209103126101af575160038110156101af5790565b908160209103126101af575180151581036101af5790565b919060408352600060019060015491610aa28361037e565b92836040880152606090600181169081600014610b315750600114610ad6575b50506020915093610ad2836101b4565b0152565b600160009081529392507fb10e2d527612073b26eecdfd717e6a320cf44b4afac2b0732d9fcbe2b7fa0cf65b838510610b1c575050505060606020918501013880610ac2565b80548589018301526020909401938201610b02565b90506060935060209492507fffffffffffffffffffffffffffffffffffffffffffffffffffffffffffffff0091501682870152151560051b8501013880610ac2565b6040513d6000823e3d90fd5b92919267ffffffffffffffff821161041c5760405191610bc760207fffffffffffffffffffffffffffffffffffffffffffffffffffffffffffffffe0601f8401160184610475565b8294818452818301116101af578281602093846000960137010152565b519063ffffffff821682036101af57565b908160809103126101af57604051906080820182811067ffffffffffffffff82111761041c57610c4a916060916040528051845260208101516020850152610c3f60408201610be4565b604085015201610be4565b606082015290565b949093610c7293610c6293611df2565b6000526000602052604060002090565b91610c88610c84600585015460ff1690565b1590565b610f0a5760005b8354811015610f0157610ca28185610a39565b50805460ff16610cb1816101b4565b80610db257506001610cc391016108c1565b610d3e8151610cdc602093848080948301019101610bf5565b604051809381927f28f0ed18000000000000000000000000000000000000000000000000000000008352600483019190916060608082019380518352602081015160208401528160408201519163ffffffff8093166040860152015116910152565b038173__$02ad9ba44d5f8b108eb8cb9d26cfd8bba9$__5af4918215610dad57600092610d80575b505015610d77576001905b01610c8f565b50505050600090565b610d9f9250803d10610da6575b610d978183610475565b810190610a72565b3880610d66565b503d610d8d565b610b73565b610dbb816101b4565b600190808203610de757505050610dd3368484610b7f565b6020815191012015610d7757600190610d71565b80610df36002926101b4565b03610ea257610e0291016108c1565b610e4e8151610e1b602093848080948301019101610a5a565b604051809381927f7e2157cb00000000000000000000000000000000000000000000000000000000835260048301610a8a565b038173__$ed72d0048cc008b4b5e9604803f3e23f0f$__5af4918215610dad57600092610e85575b505015610d7757600190610d71565b610e9b9250803d10610da657610d978183610475565b3880610e76565b6040517f08c379a000000000000000000000000000000000000000000000000000000000815260206004820152601860248201527f4143433a20756e6b6e6f776e20706f6c696379207479706500000000000000006044820152606490fd5b50505050600190565b505050600190565b9035907fffffffffffffffffffffffffffffffffffffffffffffffffffffffffffffffe1813603018212156101af570180359067ffffffffffffffff82116101af576020019181360383136101af57565b9035907fffffffffffffffffffffffffffffffffffffffffffffffffffffffffffffffe1813603018212156101af570180359067ffffffffffffffff82116101af57602001918160051b360383136101af57565b90357fffffffffffffffffffffffffffffffffffffffffffffffffffffffffffffffe1823603018112156101af57016020813591019167ffffffffffffffff82116101af5781360383136101af57565b601f82602094937fffffffffffffffffffffffffffffffffffffffffffffffffffffffffffffffe0938186528686013760008582860101520116010190565b6020928084830185845252604093604083019260408360051b8201019585600080935b86851061107c5750505050505050505090565b9091929394959697987fffffffffffffffffffffffffffffffffffffffffffffffffffffffffffffffc082820301895289357fffffffffffffffffffffffffffffffffffffffffffffffffffffffffffffffc1853603018112156101765787611119600193878394019061110c6111026110f68480610fb7565b8d85528d850191611007565b9285810190610fb7565b9185818503910152611007565b9b0199019796950193929190611069565b1561113157565b60646040517f08c379a000000000000000000000000000000000000000000000000000000000815260206004820152601660248201527f4143433a20656d70747920636f6e74726f6c6c657273000000000000000000006044820152fd5b9035907fffffffffffffffffffffffffffffffffffffffffffffffffffffffffffffffe1813603018212156101af570180359067ffffffffffffffff82116101af57602001918160071b360383136101af57565b156111ea57565b60646040517f08c379a000000000000000000000000000000000000000000000000000000000815260206004820152602060248201527f4143433a206374726c2f7075626b6579206c656e677468206d69736d617463686044820152fd5b3560ff811681036101af5790565b1561125d57565b60646040517f08c379a000000000000000000000000000000000000000000000000000000000815260206004820152601a60248201527f4143433a20696e76616c696420736967207468726573686f6c640000000000006044820152fd5b7f4e487b7100000000000000000000000000000000000000000000000000000000600052601160045260246000fd5b8181106112f5575050565b600081556001016112ea565b80546000825580611310575050565b6107b9916000526020600020908101906112ea565b919067ffffffffffffffff821161041c5768010000000000000000821161041c5782548284558083106113a9575b50916000906000526020806000209360005b84811061137457505050505050565b81359173ffffffffffffffffffffffffffffffffffffffff831683036113a557908360019201928188015501611365565b8480fd5b6113c1908460005283602060002091820191016112ea565b38611353565b80549060008155816113d7575050565b7f3fffffffffffffffffffffffffffffffffffffffffffffffffffffffffffffff821682036114305760005260206000209060021b8101905b81811061141b575050565b8061142a6004809301826112ea565b01611410565b6112bb565b9068010000000000000000831161041c5781548383558084106114a3575b50600091825260208083209183905b85851061147157505050505050565b80825b600481106114915750506004608060019201940194019392611462565b81358682015590840190600101611474565b7f3fffffffffffffffffffffffffffffffffffffffffffffffffffffffffffffff80821682036114305784168403611430578260005260206000209060021b8101908460021b015b8181106114f85750611453565b806115076004809301826112ea565b016114eb565b90611517816101b4565b60ff7fffffffffffffffffffffffffffffffffffffffffffffffffffffffffffffff008354169116179055565b9190601f811161155357505050565b6107b9926000526020600020906020601f840160051c8301931061157f575b601f0160051c01906112ea565b9091508190611572565b919082546801000000000000000081101561041c576115b090600194600182018155610a39565b611705576001906115cb83516115c5816101b4565b8261150d565b01906020809101519384519167ffffffffffffffff831161041c576115fa836115f4865461037e565b86611544565b602091601f841160011461165b575050819061164c939495600092611650575b50507fffffffffffffffffffffffffffffffffffffffffffffffffffffffffffffffff8260011b9260031b1c19161790565b9055565b01519050388061161a565b957fffffffffffffffffffffffffffffffffffffffffffffffffffffffffffffffe084939293169661169286600052602060002090565b936000915b8983106116ee57505050836001959697106116b7575b505050811b019055565b01517fffffffffffffffffffffffffffffffffffffffffffffffffffffffffffffffff60f88460031b161c191690553880806116ad565b838501518655948501949381019391810191611697565b61034f565b604051906117178261043d565b600382527f41434300000000000000000000000000000000000000000000000000000000006020830152565b92859381899897939460609c9a979583526020830137019160208301600081523701916020830160008152370191602083015260408201520190565b6040519061178c82610459565b6080368337565b604051906117a08261043d565b6040368337565b604051906020820182811067ffffffffffffffff82111761041c576040526020368337565b8054821015610a555760005260206000209060021b0190600090565b60405191906000835b60048210611805575050506107b982610459565b60016020819285548152019301910190916117f1565b7fffffffffffffffffffffffffffffffffffffffffffffffffffffffffffffffff81146114305760010190565b1561184f57565b60646040517f08c379a000000000000000000000000000000000000000000000000000000000815260206004820152601760248201527f4143433a206e6f7420656e6f756768207369676e6572730000000000000000006044820152fd5b9190604051926118bc8461043d565b8390604081019283116101af57905b8282106118d757505050565b81358152602091820191016118cb565b156118ee57565b60646040517f08c379a000000000000000000000000000000000000000000000000000000000815260206004820152601a60248201527f4143433a206167672d73696720766572696679206661696c65640000000000006044820152fd5b90610c6261196d61195d8480610f12565b60208601939161066a8588610f12565b60408401916119a16119826107108588610f12565b936119906060880188610f63565b604051938491602083019384611046565b03926119d37fffffffffffffffffffffffffffffffffffffffffffffffffffffffffffffffe094858101835282610475565b6119e56119de6107bb565b9788610801565b806020880152600586016119fd610c84825460ff1690565b611b35575091611a5e611a3a8a611a77979694611a6a96611a1c61170a565b6020815191012095611a42611a318580610f12565b96909b86610f12565b929095610f12565b9390925190209360048d0154956040519b8c9960208b01611743565b03908101835282610475565b611a7261170a565b611f76565b611a7f61177f565b60009560006001906001860154905b818110611ae95750505091611ad991611ad4611adf94611aca611ae4999a611ac3611abd60038b015460ff1690565b60ff1690565b1115611848565b60e03691016118ad565b6122ff565b506118e7565b611589565b600190565b8280610120860135831c1614611b01575b8201611a8e565b9893611b2d611b278492611b21611b1b8e60028d016117cc565b506117e8565b9061227a565b9561181b565b999050611afa565b9350505050611adf9150611c10611bdf87611bda611bd06080611ae49a9b0192611b6b611b628583610f63565b9050151561112a565b611b758482610f63565b919050611b9360a0820192611b8a848461118f565b919050146111e3565b611bcb611bc160c083019660ff611ba989611248565b16151580611c3b575b611bbb90611256565b83610f63565b9060018d01611325565b61118f565b9060028901611435565b611248565b600385019060ff167fffffffffffffffffffffffffffffffffffffffffffffffffffffffffffffff00825416179055565b60017fffffffffffffffffffffffffffffffffffffffffffffffffffffffffffffff00825416179055565b50611bbb611c4889611248565b60ff611c548488610f63565b9290501611159050611bb2565b15611c6857565b60646040517f08c379a000000000000000000000000000000000000000000000000000000000815260206004820152601960248201527f4143433a20706f6c6963792d736574206e6f7420666f756e64000000000000006044820152fd5b908154611cd2816107e9565b92611ce06040519485610475565b818452600090815260208082208186015b848410611cff575050505050565b600483600192611d0e856117e8565b815201920193019290611cf1565b90604051611d2981610400565b8092611d34816108dc565b82526001808201604051809282548083526020809301936000526020600020926000905b828210611dc757505050505060056107b9949383611d7d60a095611dc0950382610475565b6020860152611d8e60028201611cc6565b6040860152611dae611da4600383015460ff1690565b60ff166060870152565b60048101546080860152015460ff1690565b1515910152565b845473ffffffffffffffffffffffffffffffffffffffff168652948501949383019390830190611d58565b9291611e4c91836021926040519583879460208601998a378401917f7c0000000000000000000000000000000000000000000000000000000000000060208401528583013701600083820152036001810184520182610475565b51902090565b611e5d913691610b7f565b602081519101207fb3e71936029ea100264457a898dcb589dd7ef1f9c03768f6d110e3d43558029d8114611f42577f89b51e83cb3fc3ff6274369bee8b175aeaa38ae40d40277bc6c12974f383a6fd8114611f3c577f0f7993c1cc9e18041afdbf383610eddf76760e765912de5665a4361729fb207d14611f37576040517f08c379a000000000000000000000000000000000000000000000000000000000815260206004820152601860248201527f4143433a20756e6b6e6f776e20706f6c696379207479706500000000000000006044820152606490fd5b600290565b50600190565b50600090565b6080810192916000915b60048310611f5f57505050565b600190825181526020809101920192019190611f52565b90611f7f611793565b506040808051611f8e8161043d565b36903782519260ff84116121e15760ff611fa6612bc4565b94169382519081611fbf87856020988985019586612c13565b0391611ff17fffffffffffffffffffffffffffffffffffffffffffffffffffffffffffffffe093848101835282610475565b519020918351858101906120178161200b8a868987612cb3565b03858101835282610475565b51902095612023612bdf565b936001926001945b6003861061216c575050505050506120d2818560606120d994015277ffffffffffffffffffffffffffffffffffffffffffffffff80601883015116907f30644e72e131a029b85045b68181585d97816a916871ca8d3c208c16d87cfd4780928260488382603089015116817801000000000000000000000000000000000000000000000000809609089601511692896120c26107bb565b878152019a1692090886526129c6565b93516129c6565b916120e261177f565b928451845281850151828501528051838501520151606083015261212e818460808560067ffffffffffffffffffffffffffffffffffffffffffffffffffffffffffffff8305a01fa1590565b61213757505090565b6109fd9250519182917f128e3f0800000000000000000000000000000000000000000000000000000000835260048301611f48565b909192938383879b8b7fffffffffffffffffffffffffffffffffffffffffffffffffffffffffffffffff8a6121ca8e6121be8d8a9f611abd6121ad91612824565b9251988993898986019c188c612d25565b03898101875286610475565b0160051b8b0101525190209901949392919061202b565b6109fd91519182917f26e4f9ba000000000000000000000000000000000000000000000000000000008352600483016104b6565b1561221c57565b60646040517f08c379a000000000000000000000000000000000000000000000000000000000815260206004820152601260248201527f424c533a20473220616464206661696c656400000000000000000000000000006044820152fd5b6107b99092919261228961177f565b9360405191805183526020810151602084019081526060806040840151936040870194855201519381860194855280516080870152602081015160a0870152604081015160c0870152015160e085015260808461010081600c5afa93518752516020870152516040860152516060850152612215565b6040602092836101809695816123136107c8565b95805187520151828601527f198e9393920d483a7260bfb731fb5d25f1aa493335a9e71297e485b7aef312c2848601527f1800deef121f1e76426a00665e5c4479674322d4f75edadd46debd5cd992f6ed60608601527f275dc4a288d1afb3cbb1ac09187524c7db36395df7be3b99e673b13a075a65ec60808601527f1d9befcd05a5323e6da4d435f3b617cdb3af83285c2df711ef39c01571827f9d60a0860152805160c0860152015160e0840152838101516101008401528051610120840152606081015161014084015201516101608201526123f06117a7565b93849160087ffffffffffffffffffffffffffffffffffffffffffffffffffffffffffffff8305a01fa915115159190565b9160005b8354811015612497576124388185610a39565b50828460ff835416612449826101b4565b612452816101b4565b14918261246f575b505061246857600101612425565b9250505090565b600191925061248890610960604051809481930161080d565b6020815191012014823861245a565b6040517f08c379a000000000000000000000000000000000000000000000000000000000815260206004820152601560248201527f4143433a20706f6c696379206e6f7420666f756e6400000000000000000000006044820152606490fd5b9492909160609694928652602095612516825180938980850191016101ed565b01612529825180938880850191016101ed565b0161253c825180938780850191016101ed565b019283015260408201520190565b8051821015610a555760209160051b010190565b61256661170a565b9182516020809401206125a66020840151611a6a6040936106cd6040880151606089015160808a01519060808b51015192604051978896602088016124f6565b926125af61177f565b9060009360005b8251888101515182101561260a5760018060c0860151841c16146125de575b506001016125b6565b6125fd8297956125f66001948961260395015161254a565b519061227a565b9461181b565b95906125d5565b505095506107b994925060a090612631611ad995611ac3611abd606085510160ff90511690565b01516122ff565b907f30644e72e131a029b85045b68181585d97816a916871ca8d3c208c16d87cfd4791820391821161143057565b9190918281146127a95761267a835461037e565b67ffffffffffffffff811161041c5761269d81612697845461037e565b84611544565b600093601f82116001146126f75761164c92939482916000926126ec5750507fffffffffffffffffffffffffffffffffffffffffffffffffffffffffffffffff8260011b9260031b1c19161790565b01549050388061161a565b6127297fffffffffffffffffffffffffffffffffffffffffffffffffffffffffffffffe0831691600052602060002090565b9461273984600052602060002090565b91815b8181106127915750958360019596971061275a57505050811b019055565b01547fffffffffffffffffffffffffffffffffffffffffffffffffffffffffffffffff60f88460031b161c191690553880806116ad565b8783015484556001938401939092019160200161273c565b509050565b6001600091828155016127c1815461037e565b806127cb57505050565b82601f82116001146127dc57505055565b90918082526127fa601f60208420940160051c8401600185016112ea565b5555565b90611705576001600091828155016127c1815461037e565b906001820180921161143057565b600101908160011161143057565b8054906000918282558061286d575b5080612851600160059301611301565b61285d600282016113c7565b8260038201558260048201550155565b7f7fffffffffffffffffffffffffffffffffffffffffffffffffffffffffffffff8116810361143057818352602083209060011b8101905b8181106128b25750612841565b806128be6002926127ae565b016128a5565b908154907fffffffffffffffffffffffffffffffffffffffffffffffffffffffffffffffff9182810190811161143057808203612982575b5050815490811561295357600491019161291f6129198483610a39565b906127fe565b8281550161292d8154612816565b9055156129375750565b61294e6107b9916000526000602052604060002090565b612832565b7f4e487b7100000000000000000000000000000000000000000000000000000000600052603160045260246000fd5b61298f6129979185610a39565b509184610a39565b611705578082146128fc57600180836129b760ff6129bf9654168561150d565b019101612666565b38806128fc565b906129cf611793565b917f30644e72e131a029b85045b68181585d97816a916871ca8d3c208c16d87cfd4780821015612b925780600481848009099060019181612a138183860892612638565b840890828080808078016789af3a83522eb353c98fc6b36d713d5d8d1cc5dffffffa818b81612a44818b8d096135fc565b9a8b92090909958180612a5689612638565b98817f183227397098d014dc2822db40c0ac2ecbc0b548b438e5469e10460b6c3e7ea39a8b0899089680090980097f10216f7ba065e00de81ac1e7808072c9dd2b2385cd7b438469602eb24829a9bd0985089083600381858181800909089385612abf86612d6c565b60000b03612b38575050508552612ad581612e9a565b90602087015215612b0557505b6020840191825191808316911603612af8575050565b612b0190612638565b9052565b6040517f396ec7710000000000000000000000000000000000000000000000000000000081526004810191909152602490fd5b919350915080600381848181800909089284612b5385612d6c565b60000b03612b795750508552612b6881612e9a565b90602087015215612b055750612ae2565b81935060039250808852818180090908612b6881612e9a565b6040517fd53e941500000000000000000000000000000000000000000000000000000000815260048101839052602490fd5b60405190612bd182610400565b6088825260a0366020840137565b60405190612bec82610459565b6060808352366020840137565b60405190612c0682610421565b60c0808352366020840137565b7fff0000000000000000000000000000000000000000000000000000000000000092612c5e60208093612c506004999896828151948592016101ed565b0191828151948592016101ed565b01600081527f6000000000000000000000000000000000000000000000000000000000000000600182015260006002820152612ca48251809360206003850191016101ed565b019160f81b1660038201520190565b91602293927fff000000000000000000000000000000000000000000000000000000000000009281527f01000000000000000000000000000000000000000000000000000000000000006020820152612d168251809360206021850191016101ed565b019160f81b1660218201520190565b602294939181527fff00000000000000000000000000000000000000000000000000000000000000809360f81b166020820152612d168251809360206021850191016101ed565b612d74612bf9565b9060c060206000828286018381528360408801528360608801528560808801527f183227397098d014dc2822db40c0ac2ecbc0b548b438e5469e10460b6c3e7ea3968760a08201527f30644e72e131a029b85045b68181585d97816a916871ca8d3c208c16d87cfd47958691015260055afa926000519315612e5e5750507f30644e72e131a029b85045b68181585d97816a916871ca8d3c208c16d87cfd468214612e385781151580612e2d575b612b05575060000b90565b506001821415612e22565b50507fffffffffffffffffffffffffffffffffffffffffffffffffffffffffffffffff90565b60649350604051927fc6daf7ab000000000000000000000000000000000000000000000000000000008452600484015260248301526044820152fd5b907f30644e72e131a029b85045b68181585d97816a916871ca8d3c208c16d87cfd478080808080808080808b8180808080808080808080808080808f8180828180808080808080808080809e8180808080858180808080808087819e8280808080808681808080808080809e818080808481808080808080808089819f828080808080808080808080808d819e8280808080808080888180808080809e8180808080808080808981808080809e81808080808080808080808b8180809e81808080808080808080808b8180809e818080808080808080808a818080809e8180808080808087818080808080809e8180808080808681808080808080809e8180808080808681808080808080809e8180808080808681808080808080809e8180808080808080808080808c81809e81808080808080808080808b8180809e8180808080808087818080808080809e81808080808080809781808080808581808080808080808080808b8181800909818c81818009090981808c8181800909818d818180090909098180808c8181800909818d818180090909818c818082818180090991818180090909090980098009800981808781818009099180090980098009800909800980098009800909800980098009800981808c8180828009918180828009918181800909090991800909800980098009800981808088800981808a8009818b8181800909090991800909800980098009098009800980098180808a800981808c8009818d8181800909090991800909800980098009800980090980098009800981808c8181800909918009098009800980098009800980099281808083818180090981848181800909099181808280099181808280099181818009090909099180090980098009800980098009800980098009800981808d818082800991818180090909918009098009800980098180898181800909918009098009800980099281808280099181808280099181818009090909918009098009800980098009800980098180808b8009818c8181800909099180090980098009800980098009800909800980098009800980098009818080808c8009818d818180090909818c81808281818009099181818009090909918009098009800980098009928180808381818009098184818180090909918180828009918180828009918181800909090909918009098009800981808d818082800991818180090909918009098009800980098009800980098009928181800909918009098009800980098009800980098009800992818082800991818180090909918009098009800981808d818180090991800909800980098009800980098009800992818080838009818481818009090991818082818180090991818180090909099180090980098009800981808d81808083800981848181800909099181808281818009099181818009090909918009098009800980098009818080898009818a8181800909099180090980098009928180828009918180828009918181800909090991800909800980098009800980098009800980098009818080808b8009818c81818009090981808c8181800909818d81818009090909918009098009800980099281808280099181818009090991800909800980098009800981808d81808281818009099181808281818009099181818009090909918009098009800980098009800980098180808088800981898181800909098180898181800909818a81818009090909918009098009800909800980098009800980098009928180828009918180828009918181800909090991800909800980098009800980098180808c8009818d8180828009918181800909090991800909800980098009800981808087800981888181800909099180090980098009098009800980098009800980099281808083818180090981848181800909099181808280099181808280099181818009090909099180090980098009800980098009818080808b8181800909818c81818009090981808c8181800909818d818082818180090991818180090909090991800909800980098009800980090980098009800980098009800909800980098009800992818180090991800909800980098009800980098009800980098180808c818082800991818180090909818d8180828181800909918181800909090991800909800980098180888181800909918009098009800992818180090991800909800980098009800980098009800981808d8180808381818009098184818180090909918180828181800909918180828181800909918181800909090909918009098009800980098180808a818180090981808c8181800909818d818180090909099180090980098009800992818080838181800909818481818009090991818082818180090991818082818180090991818180090909090991800909800980098180808c8009818d8181800909099180090980098009800980098180808781818009098180898181800909818a81818009090909918009098009917f30644e72e131a029b85045b68181585d97816a916871ca8d3c208c16d87cfd478380091490565b807f30644e72e131a029b85045b68181585d97816a916871ca8d3c208c16d87cfd47808080808080808881808080809e8180808080808080808981808080809e8180808080808080888180808080809e8180808080808080888180808080809e8181818080808080808781808080809e8180808080808087818080808080809e8180828180808080808080808080809e8180828180808080808080808981809e818080808080808080808080808d819e8280808080808080808080808080809e8082808080808080808080808080809e80828080808080808080808080808d819f828080808080808080808a818080809e8180808080808080808981808080809e8180808080808080808981808080809e8180808080808080808981808080809e8180808080808080808080808080809e80828080808080808080808080808d819f8280808080808080808981808080809e818080808080808080809981808080808581808080808080808080808b8181800909818c81818009090981808c8181800909818d818180090909098180808c8181800909818d818180090909818c818082818180090991818180090909090980098009800981808781818009099180090980098009800909800980098009800909800980098009800981808c8180828009918180828009918181800909090991800909800980098009800981808088800981808a8009818b8181800909090991800909800980098009098009800980098180808a800981808c8009818d8181800909090991800909800980098009800980090980098009800981808c8181800909918009098009800980098009800980099281808083818180090981848181800909099181808280099181808280099181818009090909099180090980098009800980098009800980098009800981808d818082800991818180090909918009098009800980098180898181800909918009098009800980099281808280099181808280099181818009090909918009098009800980098009800980098180808b8009818c8181800909099180090980098009800980098009800909800980098009800980098009818080808c8009818d818180090909818c81808281818009099181818009090909918009098009800980098009928180808381818009098184818180090909918180828009918180828009918181800909090909918009098009800981808d818082800991818180090909918009098009800980098009800980098009928181800909918009098009800980098009800980098009800992818082800991818180090909918009098009800981808d818180090991800909800980098009800980098009800992818080838009818481818009090991818082818180090991818180090909099180090980098009800981808d81808083800981848181800909099181808281818009099181818009090909918009098009800980098009818080898009818a8181800909099180090980098009928180828009918180828009918181800909090991800909800980098009800980098009800980098009818080808b8009818c81818009090981808c8181800909818d81818009090909918009098009800980099281808280099181818009090991800909800980098009800981808d81808281818009099181808281818009099181818009090909918009098009800980098009800980098180808088800981898181800909098180898181800909818a81818009090909918009098009800909800980098009800980098009928180828009918180828009918181800909090991800909800980098009800980098180808c8009818d8180828009918181800909090991800909800980098009800981808087800981888181800909099180090980098009098009800980098009800980099281808083818180090981848181800909099181808280099181808280099181818009090909099180090980098009800980098009818080808b8181800909818c81818009090981808c8181800909818d81808281818009099181818009090909099180090980098009800980098009098009800980098009800980090980098009800980099281818009099180090980098009800980098009800980098009818080808a8009818b81818009090981808b8181800909818c818180090909099180090980098009928181800909918009098009800981808d81818009099180090980098009800980098009800980099281808083818180090981848181800909099181808281818009099181808281818009099181818009090909099180090980098009800981808d8180828181800909918180828181800909918181800909090991800909800980098009818080808b8181800909818c81818009090981808c8181800909818d8180828181800909918181800909090909918009098009800981808087800981888181800909099180090980098009098009800980098009800992818082800991818180090909918009099056fea26469706673582212200fc34664fa3b82cbcd9c3f44ae7915233c1a3f8ea19bfd5428648282e4c621dc64736f6c63430008180033","opcodes":"PUSH1 0x80 DUP1 PUSH1 0x40 MSTORE CALLVALUE PUSH3 0x9E JUMPI PUSH1 0x1 DUP1 SLOAD DUP2 DUP2 DUP2 SHR SWAP2 AND DUP1 ISZERO PUSH3 0x93 JUMPI JUMPDEST PUSH1 0x20 DUP3 LT EQ PUSH3 0x7D JUMPI PUSH1 0x1F DUP2 GT PUSH3 0x4B JUMPI JUMPDEST POP PUSH1 0x6 PUSH3 0x6C6F77 PUSH1 0xE8 SHL ADD SWAP1 SSTORE PUSH2 0x3D6B SWAP1 DUP2 PUSH3 0xA4 DUP3 CODECOPY RETURN JUMPDEST DUP2 PUSH1 0x0 MSTORE DUP2 PUSH1 0x1F PUSH1 0x20 PUSH1 0x0 KECCAK256 SWAP3 ADD PUSH1 0x5 SHR DUP3 ADD SWAP2 JUMPDEST DUP3 DUP2 LT PUSH3 0x70 JUMPI POP POP PUSH3 0x31 JUMP JUMPDEST PUSH1 0x0 DUP2 SSTORE ADD DUP3 SWAP1 PUSH3 0x60 JUMP JUMPDEST PUSH4 0x4E487B71 PUSH1 0xE0 SHL PUSH1 0x0 MSTORE PUSH1 0x22 PUSH1 0x4 MSTORE PUSH1 0x24 PUSH1 0x0 REVERT JUMPDEST SWAP1 PUSH1 0x7F AND SWAP1 PUSH3 0x1D JUMP JUMPDEST PUSH1 0x0 DUP1 REVERT INVALID PUSH1 0x40 PUSH1 0x80 DUP2 MSTORE PUSH1 0x4 CALLDATASIZE LT ISZERO PUSH2 0x13 JUMPI PUSH1 0x0 DUP1 REVERT JUMPDEST PUSH1 0x0 SWAP1 DUP2 CALLDATALOAD PUSH1 0xE0 SHR SWAP2 DUP3 PUSH4 0x2E06AAC6 EQ PUSH2 0x6D JUMPI POP POP DUP1 PUSH4 0x8F43CB06 EQ PUSH2 0x68 JUMPI DUP1 PUSH4 0xA38CCEA0 EQ PUSH2 0x63 JUMPI DUP1 PUSH4 0xAA10D77E EQ PUSH2 0x5E JUMPI PUSH4 0xFD989187 EQ PUSH2 0x59 JUMPI PUSH1 0x0 DUP1 REVERT JUMPDEST PUSH2 0x5EB JUMP JUMPDEST PUSH2 0x4CA JUMP JUMPDEST PUSH2 0x2F1 JUMP JUMPDEST PUSH2 0x253 JUMP JUMPDEST CALLVALUE PUSH2 0x17E JUMPI DUP2 PUSH32 0xFFFFFFFFFFFFFFFFFFFFFFFFFFFFFFFFFFFFFFFFFFFFFFFFFFFFFFFFFFFFFFFC CALLDATASIZE ADD SLT PUSH2 0x17E JUMPI PUSH8 0xFFFFFFFFFFFFFFFF PUSH1 0x4 CALLDATALOAD DUP2 DUP2 GT PUSH2 0x17A JUMPI PUSH2 0xBC SWAP1 CALLDATASIZE SWAP1 PUSH1 0x4 ADD PUSH2 0x181 JUMP JUMPDEST SWAP2 PUSH1 0x24 CALLDATALOAD SWAP1 DUP2 GT PUSH2 0x176 JUMPI SWAP1 PUSH2 0xDA PUSH2 0xE2 SWAP4 SWAP3 CALLDATASIZE SWAP1 PUSH1 0x4 ADD PUSH2 0x181 JUMP JUMPDEST SWAP3 SWAP1 SWAP2 PUSH2 0x979 JUMP JUMPDEST DUP3 MLOAD SWAP2 PUSH1 0x20 DUP1 DUP5 ADD SWAP1 DUP1 DUP6 MSTORE DUP4 MLOAD DUP1 SWAP3 MSTORE DUP6 DUP6 ADD DUP2 DUP8 DUP5 PUSH1 0x5 SHL DUP9 ADD ADD SWAP6 ADD SWAP4 SWAP7 JUMPDEST DUP4 DUP9 LT PUSH2 0x111 JUMPI DUP7 DUP7 SUB DUP8 RETURN JUMPDEST SWAP1 SWAP2 SWAP3 SWAP4 SWAP5 DUP4 DUP1 PUSH2 0x165 DUP4 PUSH32 0xFFFFFFFFFFFFFFFFFFFFFFFFFFFFFFFFFFFFFFFFFFFFFFFFFFFFFFFFFFFFFFC0 DUP12 PUSH1 0x1 SWAP7 SUB ADD DUP8 MSTORE DUP6 DUP4 DUP12 MLOAD DUP1 MLOAD PUSH2 0x154 DUP2 PUSH2 0x1B4 JUMP JUMPDEST DUP5 MSTORE ADD MLOAD SWAP2 DUP2 DUP6 DUP3 ADD MSTORE ADD SWAP1 PUSH2 0x210 JUMP JUMPDEST SWAP8 ADD SWAP4 ADD SWAP8 ADD SWAP7 SWAP1 SWAP4 SWAP3 SWAP2 SWAP4 PUSH2 0x104 JUMP JUMPDEST DUP4 DUP1 REVERT JUMPDEST DUP3 DUP1 REVERT JUMPDEST DUP1 REVERT JUMPDEST SWAP2 DUP2 PUSH1 0x1F DUP5 ADD SLT ISZERO PUSH2 0x1AF JUMPI DUP3 CALLDATALOAD SWAP2 PUSH8 0xFFFFFFFFFFFFFFFF DUP4 GT PUSH2 0x1AF JUMPI PUSH1 0x20 DUP4 DUP2 DUP7 ADD SWAP6 ADD ADD GT PUSH2 0x1AF JUMPI JUMP JUMPDEST PUSH1 0x0 DUP1 REVERT JUMPDEST PUSH1 0x3 GT ISZERO PUSH2 0x1BE JUMPI JUMP JUMPDEST PUSH32 0x4E487B7100000000000000000000000000000000000000000000000000000000 PUSH1 0x0 MSTORE PUSH1 0x21 PUSH1 0x4 MSTORE PUSH1 0x24 PUSH1 0x0 REVERT JUMPDEST PUSH1 0x0 JUMPDEST DUP4 DUP2 LT PUSH2 0x200 JUMPI POP POP PUSH1 0x0 SWAP2 ADD MSTORE JUMP JUMPDEST DUP2 DUP2 ADD MLOAD DUP4 DUP3 ADD MSTORE PUSH1 0x20 ADD PUSH2 0x1F0 JUMP JUMPDEST SWAP1 PUSH32 0xFFFFFFFFFFFFFFFFFFFFFFFFFFFFFFFFFFFFFFFFFFFFFFFFFFFFFFFFFFFFFFE0 PUSH1 0x1F PUSH1 0x20 SWAP4 PUSH2 0x24C DUP2 MLOAD DUP1 SWAP3 DUP2 DUP8 MSTORE DUP8 DUP1 DUP9 ADD SWAP2 ADD PUSH2 0x1ED JUMP JUMPDEST ADD AND ADD ADD SWAP1 JUMP JUMPDEST CALLVALUE PUSH2 0x1AF JUMPI PUSH1 0x60 PUSH32 0xFFFFFFFFFFFFFFFFFFFFFFFFFFFFFFFFFFFFFFFFFFFFFFFFFFFFFFFFFFFFFFFC CALLDATASIZE ADD SLT PUSH2 0x1AF JUMPI PUSH8 0xFFFFFFFFFFFFFFFF PUSH1 0x4 CALLDATALOAD DUP2 DUP2 GT PUSH2 0x1AF JUMPI PUSH2 0x2A3 SWAP1 CALLDATASIZE SWAP1 PUSH1 0x4 ADD PUSH2 0x181 JUMP JUMPDEST PUSH1 0x24 SWAP3 SWAP2 SWAP3 CALLDATALOAD DUP3 DUP2 GT PUSH2 0x1AF JUMPI PUSH2 0x2BE SWAP1 CALLDATASIZE SWAP1 PUSH1 0x4 ADD PUSH2 0x181 JUMP JUMPDEST PUSH1 0x44 SWAP5 SWAP2 SWAP5 CALLDATALOAD SWAP4 DUP5 GT PUSH2 0x1AF JUMPI PUSH1 0x20 SWAP5 PUSH2 0x2DF PUSH2 0x2E7 SWAP6 CALLDATASIZE SWAP1 PUSH1 0x4 ADD PUSH2 0x181 JUMP JUMPDEST SWAP5 SWAP1 SWAP4 PUSH2 0xC52 JUMP JUMPDEST PUSH1 0x40 MLOAD SWAP1 ISZERO ISZERO DUP2 MSTORE RETURN JUMPDEST CALLVALUE PUSH2 0x1AF JUMPI PUSH32 0xFFFFFFFFFFFFFFFFFFFFFFFFFFFFFFFFFFFFFFFFFFFFFFFFFFFFFFFFFFFFFFFC PUSH1 0x20 DUP2 CALLDATASIZE ADD SLT PUSH2 0x1AF JUMPI PUSH1 0x4 CALLDATALOAD SWAP1 PUSH8 0xFFFFFFFFFFFFFFFF DUP3 GT PUSH2 0x1AF JUMPI PUSH2 0x140 SWAP1 DUP3 CALLDATASIZE SUB ADD SLT PUSH2 0x1AF JUMPI PUSH2 0x2E7 PUSH1 0x20 SWAP2 PUSH1 0x4 ADD PUSH2 0x194C JUMP JUMPDEST PUSH32 0x4E487B7100000000000000000000000000000000000000000000000000000000 PUSH1 0x0 MSTORE PUSH1 0x0 PUSH1 0x4 MSTORE PUSH1 0x24 PUSH1 0x0 REVERT JUMPDEST SWAP1 PUSH1 0x1 DUP3 DUP2 SHR SWAP3 AND DUP1 ISZERO PUSH2 0x3C7 JUMPI JUMPDEST PUSH1 0x20 DUP4 LT EQ PUSH2 0x398 JUMPI JUMP JUMPDEST PUSH32 0x4E487B7100000000000000000000000000000000000000000000000000000000 PUSH1 0x0 MSTORE PUSH1 0x22 PUSH1 0x4 MSTORE PUSH1 0x24 PUSH1 0x0 REVERT JUMPDEST SWAP2 PUSH1 0x7F AND SWAP2 PUSH2 0x38D JUMP JUMPDEST PUSH32 0x4E487B7100000000000000000000000000000000000000000000000000000000 PUSH1 0x0 MSTORE PUSH1 0x41 PUSH1 0x4 MSTORE PUSH1 0x24 PUSH1 0x0 REVERT JUMPDEST PUSH1 0xC0 DUP2 ADD SWAP1 DUP2 LT PUSH8 0xFFFFFFFFFFFFFFFF DUP3 GT OR PUSH2 0x41C JUMPI PUSH1 0x40 MSTORE JUMP JUMPDEST PUSH2 0x3D1 JUMP JUMPDEST PUSH1 0xE0 DUP2 ADD SWAP1 DUP2 LT PUSH8 0xFFFFFFFFFFFFFFFF DUP3 GT OR PUSH2 0x41C JUMPI PUSH1 0x40 MSTORE JUMP JUMPDEST PUSH1 0x40 DUP2 ADD SWAP1 DUP2 LT PUSH8 0xFFFFFFFFFFFFFFFF DUP3 GT OR PUSH2 0x41C JUMPI PUSH1 0x40 MSTORE JUMP JUMPDEST PUSH1 0x80 DUP2 ADD SWAP1 DUP2 LT PUSH8 0xFFFFFFFFFFFFFFFF DUP3 GT OR PUSH2 0x41C JUMPI PUSH1 0x40 MSTORE JUMP JUMPDEST SWAP1 PUSH1 0x1F PUSH32 0xFFFFFFFFFFFFFFFFFFFFFFFFFFFFFFFFFFFFFFFFFFFFFFFFFFFFFFFFFFFFFFE0 SWAP2 ADD AND DUP2 ADD SWAP1 DUP2 LT PUSH8 0xFFFFFFFFFFFFFFFF DUP3 GT OR PUSH2 0x41C JUMPI PUSH1 0x40 MSTORE JUMP JUMPDEST SWAP1 PUSH1 0x20 PUSH2 0x4C7 SWAP3 DUP2 DUP2 MSTORE ADD SWAP1 PUSH2 0x210 JUMP JUMPDEST SWAP1 JUMP JUMPDEST CALLVALUE PUSH2 0x1AF JUMPI PUSH1 0x0 DUP1 PUSH32 0xFFFFFFFFFFFFFFFFFFFFFFFFFFFFFFFFFFFFFFFFFFFFFFFFFFFFFFFFFFFFFFFC CALLDATASIZE ADD SLT PUSH2 0x17E JUMPI PUSH1 0x40 MLOAD SWAP1 DUP1 PUSH1 0x1 DUP1 SLOAD SWAP1 PUSH2 0x50D DUP3 PUSH2 0x37E JUMP JUMPDEST DUP1 DUP7 MSTORE SWAP3 PUSH1 0x20 SWAP3 PUSH1 0x1 DUP2 AND SWAP1 DUP2 ISZERO PUSH2 0x5A0 JUMPI POP PUSH1 0x1 EQ PUSH2 0x548 JUMPI JUMPDEST PUSH2 0x544 DUP7 PUSH2 0x538 DUP2 DUP9 SUB DUP3 PUSH2 0x475 JUMP JUMPDEST PUSH1 0x40 MLOAD SWAP2 DUP3 SWAP2 DUP3 PUSH2 0x4B6 JUMP JUMPDEST SUB SWAP1 RETURN JUMPDEST SWAP4 POP PUSH1 0x1 DUP5 MSTORE PUSH32 0xB10E2D527612073B26EECDFD717E6A320CF44B4AFAC2B0732D9FCBE2B7FA0CF6 JUMPDEST DUP4 DUP6 LT PUSH2 0x58D JUMPI POP POP POP POP DUP2 ADD PUSH1 0x20 ADD PUSH2 0x538 DUP3 PUSH2 0x544 CODESIZE PUSH2 0x528 JUMP JUMPDEST DUP1 SLOAD DUP7 DUP7 ADD DUP5 ADD MSTORE SWAP4 DUP3 ADD SWAP4 DUP2 ADD PUSH2 0x570 JUMP JUMPDEST DUP8 SWAP7 POP PUSH2 0x544 SWAP8 SWAP5 POP PUSH1 0x20 SWAP4 POP PUSH2 0x538 SWAP6 SWAP3 POP PUSH32 0xFFFFFFFFFFFFFFFFFFFFFFFFFFFFFFFFFFFFFFFFFFFFFFFFFFFFFFFFFFFFFF00 SWAP2 POP AND DUP3 DUP5 ADD MSTORE ISZERO ISZERO PUSH1 0x5 SHL DUP3 ADD ADD SWAP3 SWAP4 CODESIZE PUSH2 0x528 JUMP JUMPDEST CALLVALUE PUSH2 0x1AF JUMPI PUSH32 0xFFFFFFFFFFFFFFFFFFFFFFFFFFFFFFFFFFFFFFFFFFFFFFFFFFFFFFFFFFFFFFFC PUSH1 0x20 DUP2 CALLDATASIZE ADD SLT PUSH2 0x1AF JUMPI PUSH1 0x4 CALLDATALOAD SWAP1 PUSH8 0xFFFFFFFFFFFFFFFF DUP3 GT PUSH2 0x1AF JUMPI PUSH1 0xE0 DUP3 PUSH1 0x4 ADD SWAP2 DUP4 CALLDATASIZE SUB ADD SLT PUSH2 0x1AF JUMPI PUSH2 0x710 PUSH2 0x736 PUSH2 0x79B PUSH2 0x672 PUSH1 0xC4 PUSH2 0x7A0 SWAP7 PUSH2 0x65A DUP8 DUP1 PUSH2 0xF12 JUMP JUMPDEST PUSH1 0x24 DUP4 ADD SWAP5 SWAP2 PUSH2 0x66A DUP7 DUP12 PUSH2 0xF12 JUMP JUMPDEST SWAP3 SWAP1 SWAP2 PUSH2 0x1DF2 JUMP JUMPDEST SWAP7 PUSH2 0x773 PUSH2 0x68A DUP10 PUSH1 0x0 MSTORE PUSH1 0x0 PUSH1 0x20 MSTORE PUSH1 0x40 PUSH1 0x0 KECCAK256 SWAP1 JUMP JUMPDEST SWAP7 DUP8 SWAP6 PUSH2 0x6A3 PUSH2 0x69E PUSH1 0x5 DUP10 ADD SLOAD PUSH1 0xFF AND SWAP1 JUMP JUMPDEST PUSH2 0x1C61 JUMP JUMPDEST PUSH2 0x767 PUSH2 0x6F9 PUSH2 0x6CD PUSH2 0x6B9 PUSH1 0x64 DUP10 ADD DUP9 PUSH2 0xF63 JUMP JUMPDEST PUSH1 0x40 SWAP4 SWAP2 SWAP4 MLOAD SWAP3 DUP4 SWAP2 PUSH1 0x20 DUP4 ADD SWAP6 DUP7 PUSH2 0x1046 JUMP JUMPDEST SUB PUSH32 0xFFFFFFFFFFFFFFFFFFFFFFFFFFFFFFFFFFFFFFFFFFFFFFFFFFFFFFFFFFFFFFE0 DUP2 ADD DUP4 MSTORE DUP3 PUSH2 0x475 JUMP JUMPDEST MLOAD SWAP1 KECCAK256 SWAP5 PUSH2 0x71C DUP7 PUSH2 0x716 PUSH1 0x44 DUP11 ADD SWAP15 DUP16 DUP6 PUSH2 0xF12 JUMP JUMPDEST SWAP1 PUSH2 0x1E52 JUMP JUMPDEST DUP12 PUSH2 0x2421 JUMP JUMPDEST SWAP12 PUSH2 0x75B PUSH2 0x73E PUSH2 0x72D DUP5 DUP1 PUSH2 0xF12 JUMP JUMPDEST SWAP8 SWAP1 SWAP7 DUP6 PUSH2 0xF12 JUMP JUMPDEST SWAP4 SWAP1 SWAP5 PUSH2 0xF12 JUMP JUMPDEST SWAP6 SWAP1 SWAP7 PUSH2 0x752 PUSH2 0x74C PUSH2 0x7AC JUMP JUMPDEST SWAP14 PUSH2 0x1D1C JUMP JUMPDEST DUP14 MSTORE CALLDATASIZE SWAP2 PUSH2 0xB7F JUMP JUMPDEST PUSH1 0x20 DUP12 ADD MSTORE CALLDATASIZE SWAP2 PUSH2 0xB7F JUMP JUMPDEST PUSH1 0x40 DUP9 ADD MSTORE CALLDATASIZE SWAP2 PUSH2 0xB7F JUMP JUMPDEST PUSH1 0x60 DUP6 ADD MSTORE PUSH1 0x80 DUP5 ADD MSTORE PUSH2 0x78A CALLDATASIZE PUSH1 0x84 DUP4 ADD PUSH2 0x18AD JUMP JUMPDEST PUSH1 0xA0 DUP5 ADD MSTORE ADD CALLDATALOAD PUSH1 0xC0 DUP3 ADD MSTORE PUSH2 0x255E JUMP JUMPDEST PUSH2 0x28C4 JUMP JUMPDEST PUSH1 0x40 MLOAD PUSH1 0x1 DUP2 MSTORE PUSH1 0x20 SWAP1 RETURN JUMPDEST PUSH1 0x40 MLOAD SWAP1 PUSH2 0x7B9 DUP3 PUSH2 0x421 JUMP JUMPDEST JUMP JUMPDEST PUSH1 0x40 MLOAD SWAP1 PUSH2 0x7B9 DUP3 PUSH2 0x43D JUMP JUMPDEST PUSH1 0x40 MLOAD SWAP1 PUSH2 0x180 DUP3 ADD DUP3 DUP2 LT PUSH8 0xFFFFFFFFFFFFFFFF DUP3 GT OR PUSH2 0x41C JUMPI PUSH1 0x40 MSTORE JUMP JUMPDEST PUSH8 0xFFFFFFFFFFFFFFFF DUP2 GT PUSH2 0x41C JUMPI PUSH1 0x5 SHL PUSH1 0x20 ADD SWAP1 JUMP JUMPDEST PUSH2 0x80A DUP3 PUSH2 0x1B4 JUMP JUMPDEST MSTORE JUMP JUMPDEST DUP1 SLOAD PUSH1 0x0 SWAP4 SWAP3 PUSH2 0x81C DUP3 PUSH2 0x37E JUMP JUMPDEST SWAP2 DUP3 DUP3 MSTORE PUSH1 0x20 SWAP4 PUSH1 0x1 SWAP2 PUSH1 0x1 DUP2 AND SWAP1 DUP2 PUSH1 0x0 EQ PUSH2 0x884 JUMPI POP PUSH1 0x1 EQ PUSH2 0x843 JUMPI JUMPDEST POP POP POP POP POP JUMP JUMPDEST SWAP1 SWAP4 SWAP5 SWAP6 POP PUSH1 0x0 SWAP3 SWAP2 SWAP3 MSTORE DUP4 PUSH1 0x0 KECCAK256 SWAP3 DUP5 PUSH1 0x0 SWAP5 JUMPDEST DUP4 DUP7 LT PUSH2 0x870 JUMPI POP POP POP POP ADD ADD SWAP1 CODESIZE DUP1 DUP1 DUP1 DUP1 PUSH2 0x83C JUMP JUMPDEST DUP1 SLOAD DUP6 DUP8 ADD DUP4 ADD MSTORE SWAP5 ADD SWAP4 DUP6 SWAP1 DUP3 ADD PUSH2 0x858 JUMP JUMPDEST PUSH32 0xFFFFFFFFFFFFFFFFFFFFFFFFFFFFFFFFFFFFFFFFFFFFFFFFFFFFFFFFFFFFFF00 AND DUP7 DUP6 ADD MSTORE POP POP POP SWAP1 ISZERO ISZERO PUSH1 0x5 SHL ADD ADD SWAP2 POP CODESIZE DUP1 DUP1 DUP1 DUP1 PUSH2 0x83C JUMP JUMPDEST SWAP1 PUSH2 0x7B9 PUSH2 0x8D5 SWAP3 PUSH1 0x40 MLOAD SWAP4 DUP5 DUP1 SWAP3 PUSH2 0x80D JUMP JUMPDEST SUB DUP4 PUSH2 0x475 JUMP JUMPDEST SWAP1 DUP2 SLOAD PUSH2 0x8E8 DUP2 PUSH2 0x7E9 JUMP JUMPDEST SWAP1 PUSH1 0x40 SWAP2 PUSH2 0x8F9 PUSH1 0x40 MLOAD SWAP2 DUP3 PUSH2 0x475 JUMP JUMPDEST DUP2 DUP2 MSTORE PUSH1 0x0 SWAP5 DUP6 MSTORE PUSH1 0x20 DUP1 DUP7 KECCAK256 SWAP2 SWAP6 SWAP1 DUP1 DUP8 ADD JUMPDEST DUP5 DUP4 LT PUSH2 0x91C JUMPI POP POP POP POP POP POP JUMP JUMPDEST DUP6 MLOAD DUP7 DUP2 ADD DUP2 DUP2 LT PUSH8 0xFFFFFFFFFFFFFFFF DUP3 GT OR PUSH2 0x41C JUMPI PUSH1 0x1 SWAP3 PUSH1 0x2 SWAP3 DUP6 SWAP3 DUP11 MSTORE PUSH1 0xFF DUP9 SLOAD AND PUSH2 0x94C DUP2 PUSH2 0x1B4 JUMP JUMPDEST DUP2 MSTORE DUP10 MLOAD PUSH2 0x967 DUP2 PUSH2 0x960 DUP2 DUP10 DUP14 ADD PUSH2 0x80D JUMP JUMPDEST SUB DUP3 PUSH2 0x475 JUMP JUMPDEST DUP4 DUP3 ADD MSTORE DUP2 MSTORE ADD SWAP5 ADD SWAP3 ADD SWAP2 SWAP3 PUSH2 0x90D JUMP JUMPDEST SWAP1 PUSH2 0x985 SWAP4 SWAP3 SWAP2 PUSH2 0x1DF2 JUMP JUMPDEST PUSH1 0x0 MSTORE PUSH1 0x0 PUSH1 0x20 MSTORE PUSH1 0x40 PUSH1 0x0 KECCAK256 PUSH1 0xFF PUSH1 0x5 DUP3 ADD SLOAD AND PUSH2 0xA01 JUMPI PUSH1 0x40 MLOAD PUSH32 0x8C379A000000000000000000000000000000000000000000000000000000000 DUP2 MSTORE PUSH1 0x20 PUSH1 0x4 DUP3 ADD MSTORE PUSH1 0x15 PUSH1 0x24 DUP3 ADD MSTORE PUSH32 0x4143433A20706F6C696379206E6F7420666F756E640000000000000000000000 PUSH1 0x44 DUP3 ADD MSTORE PUSH1 0x64 SWAP1 REVERT JUMPDEST SUB SWAP1 REVERT JUMPDEST PUSH2 0x4C7 SWAP1 PUSH2 0x8DC JUMP JUMPDEST PUSH32 0x4E487B7100000000000000000000000000000000000000000000000000000000 PUSH1 0x0 MSTORE PUSH1 0x32 PUSH1 0x4 MSTORE PUSH1 0x24 PUSH1 0x0 REVERT JUMPDEST DUP1 SLOAD DUP3 LT ISZERO PUSH2 0xA55 JUMPI PUSH1 0x0 MSTORE PUSH1 0x20 PUSH1 0x0 KECCAK256 SWAP1 PUSH1 0x1 SHL ADD SWAP1 PUSH1 0x0 SWAP1 JUMP JUMPDEST PUSH2 0xA0A JUMP JUMPDEST SWAP1 DUP2 PUSH1 0x20 SWAP2 SUB SLT PUSH2 0x1AF JUMPI MLOAD PUSH1 0x3 DUP2 LT ISZERO PUSH2 0x1AF JUMPI SWAP1 JUMP JUMPDEST SWAP1 DUP2 PUSH1 0x20 SWAP2 SUB SLT PUSH2 0x1AF JUMPI MLOAD DUP1 ISZERO ISZERO DUP2 SUB PUSH2 0x1AF JUMPI SWAP1 JUMP JUMPDEST SWAP2 SWAP1 PUSH1 0x40 DUP4 MSTORE PUSH1 0x0 PUSH1 0x1 SWAP1 PUSH1 0x1 SLOAD SWAP2 PUSH2 0xAA2 DUP4 PUSH2 0x37E JUMP JUMPDEST SWAP3 DUP4 PUSH1 0x40 DUP9 ADD MSTORE PUSH1 0x60 SWAP1 PUSH1 0x1 DUP2 AND SWAP1 DUP2 PUSH1 0x0 EQ PUSH2 0xB31 JUMPI POP PUSH1 0x1 EQ PUSH2 0xAD6 JUMPI JUMPDEST POP POP PUSH1 0x20 SWAP2 POP SWAP4 PUSH2 0xAD2 DUP4 PUSH2 0x1B4 JUMP JUMPDEST ADD MSTORE JUMP JUMPDEST PUSH1 0x1 PUSH1 0x0 SWAP1 DUP2 MSTORE SWAP4 SWAP3 POP PUSH32 0xB10E2D527612073B26EECDFD717E6A320CF44B4AFAC2B0732D9FCBE2B7FA0CF6 JUMPDEST DUP4 DUP6 LT PUSH2 0xB1C JUMPI POP POP POP POP PUSH1 0x60 PUSH1 0x20 SWAP2 DUP6 ADD ADD CODESIZE DUP1 PUSH2 0xAC2 JUMP JUMPDEST DUP1 SLOAD DUP6 DUP10 ADD DUP4 ADD MSTORE PUSH1 0x20 SWAP1 SWAP5 ADD SWAP4 DUP3 ADD PUSH2 0xB02 JUMP JUMPDEST SWAP1 POP PUSH1 0x60 SWAP4 POP PUSH1 0x20 SWAP5 SWAP3 POP PUSH32 0xFFFFFFFFFFFFFFFFFFFFFFFFFFFFFFFFFFFFFFFFFFFFFFFFFFFFFFFFFFFFFF00 SWAP2 POP AND DUP3 DUP8 ADD MSTORE ISZERO ISZERO PUSH1 0x5 SHL DUP6 ADD ADD CODESIZE DUP1 PUSH2 0xAC2 JUMP JUMPDEST PUSH1 0x40 MLOAD RETURNDATASIZE PUSH1 0x0 DUP3 RETURNDATACOPY RETURNDATASIZE SWAP1 REVERT JUMPDEST SWAP3 SWAP2 SWAP3 PUSH8 0xFFFFFFFFFFFFFFFF DUP3 GT PUSH2 0x41C JUMPI PUSH1 0x40 MLOAD SWAP2 PUSH2 0xBC7 PUSH1 0x20 PUSH32 0xFFFFFFFFFFFFFFFFFFFFFFFFFFFFFFFFFFFFFFFFFFFFFFFFFFFFFFFFFFFFFFE0 PUSH1 0x1F DUP5 ADD AND ADD DUP5 PUSH2 0x475 JUMP JUMPDEST DUP3 SWAP5 DUP2 DUP5 MSTORE DUP2 DUP4 ADD GT PUSH2 0x1AF JUMPI DUP3 DUP2 PUSH1 0x20 SWAP4 DUP5 PUSH1 0x0 SWAP7 ADD CALLDATACOPY ADD ADD MSTORE JUMP JUMPDEST MLOAD SWAP1 PUSH4 0xFFFFFFFF DUP3 AND DUP3 SUB PUSH2 0x1AF JUMPI JUMP JUMPDEST SWAP1 DUP2 PUSH1 0x80 SWAP2 SUB SLT PUSH2 0x1AF JUMPI PUSH1 0x40 MLOAD SWAP1 PUSH1 0x80 DUP3 ADD DUP3 DUP2 LT PUSH8 0xFFFFFFFFFFFFFFFF DUP3 GT OR PUSH2 0x41C JUMPI PUSH2 0xC4A SWAP2 PUSH1 0x60 SWAP2 PUSH1 0x40 MSTORE DUP1 MLOAD DUP5 MSTORE PUSH1 0x20 DUP2 ADD MLOAD PUSH1 0x20 DUP6 ADD MSTORE PUSH2 0xC3F PUSH1 0x40 DUP3 ADD PUSH2 0xBE4 JUMP JUMPDEST PUSH1 0x40 DUP6 ADD MSTORE ADD PUSH2 0xBE4 JUMP JUMPDEST PUSH1 0x60 DUP3 ADD MSTORE SWAP1 JUMP JUMPDEST SWAP5 SWAP1 SWAP4 PUSH2 0xC72 SWAP4 PUSH2 0xC62 SWAP4 PUSH2 0x1DF2 JUMP JUMPDEST PUSH1 0x0 MSTORE PUSH1 0x0 PUSH1 0x20 MSTORE PUSH1 0x40 PUSH1 0x0 KECCAK256 SWAP1 JUMP JUMPDEST SWAP2 PUSH2 0xC88 PUSH2 0xC84 PUSH1 0x5 DUP6 ADD SLOAD PUSH1 0xFF AND SWAP1 JUMP JUMPDEST ISZERO SWAP1 JUMP JUMPDEST PUSH2 0xF0A JUMPI PUSH1 0x0 JUMPDEST DUP4 SLOAD DUP2 LT ISZERO PUSH2 0xF01 JUMPI PUSH2 0xCA2 DUP2 DUP6 PUSH2 0xA39 JUMP JUMPDEST POP DUP1 SLOAD PUSH1 0xFF AND PUSH2 0xCB1 DUP2 PUSH2 0x1B4 JUMP JUMPDEST DUP1 PUSH2 0xDB2 JUMPI POP PUSH1 0x1 PUSH2 0xCC3 SWAP2 ADD PUSH2 0x8C1 JUMP JUMPDEST PUSH2 0xD3E DUP2 MLOAD PUSH2 0xCDC PUSH1 0x20 SWAP4 DUP5 DUP1 DUP1 SWAP5 DUP4 ADD ADD SWAP2 ADD PUSH2 0xBF5 JUMP JUMPDEST PUSH1 0x40 MLOAD DUP1 SWAP4 DUP2 SWAP3 PUSH32 0x28F0ED1800000000000000000000000000000000000000000000000000000000 DUP4 MSTORE PUSH1 0x4 DUP4 ADD SWAP2 SWAP1 SWAP2 PUSH1 0x60 PUSH1 0x80 DUP3 ADD SWAP4 DUP1 MLOAD DUP4 MSTORE PUSH1 0x20 DUP2 ADD MLOAD PUSH1 0x20 DUP5 ADD MSTORE DUP2 PUSH1 0x40 DUP3 ADD MLOAD SWAP2 PUSH4 0xFFFFFFFF DUP1 SWAP4 AND PUSH1 0x40 DUP7 ADD MSTORE ADD MLOAD AND SWAP2 ADD MSTORE JUMP JUMPDEST SUB DUP2 PUSH20 0x0 GAS DELEGATECALL SWAP2 DUP3 ISZERO PUSH2 0xDAD JUMPI PUSH1 0x0 SWAP3 PUSH2 0xD80 JUMPI JUMPDEST POP POP ISZERO PUSH2 0xD77 JUMPI PUSH1 0x1 SWAP1 JUMPDEST ADD PUSH2 0xC8F JUMP JUMPDEST POP POP POP POP PUSH1 0x0 SWAP1 JUMP JUMPDEST PUSH2 0xD9F SWAP3 POP DUP1 RETURNDATASIZE LT PUSH2 0xDA6 JUMPI JUMPDEST PUSH2 0xD97 DUP2 DUP4 PUSH2 0x475 JUMP JUMPDEST DUP2 ADD SWAP1 PUSH2 0xA72 JUMP JUMPDEST CODESIZE DUP1 PUSH2 0xD66 JUMP JUMPDEST POP RETURNDATASIZE PUSH2 0xD8D JUMP JUMPDEST PUSH2 0xB73 JUMP JUMPDEST PUSH2 0xDBB DUP2 PUSH2 0x1B4 JUMP JUMPDEST PUSH1 0x1 SWAP1 DUP1 DUP3 SUB PUSH2 0xDE7 JUMPI POP POP POP PUSH2 0xDD3 CALLDATASIZE DUP5 DUP5 PUSH2 0xB7F JUMP JUMPDEST PUSH1 0x20 DUP2 MLOAD SWAP2 ADD KECCAK256 ISZERO PUSH2 0xD77 JUMPI PUSH1 0x1 SWAP1 PUSH2 0xD71 JUMP JUMPDEST DUP1 PUSH2 0xDF3 PUSH1 0x2 SWAP3 PUSH2 0x1B4 JUMP JUMPDEST SUB PUSH2 0xEA2 JUMPI PUSH2 0xE02 SWAP2 ADD PUSH2 0x8C1 JUMP JUMPDEST PUSH2 0xE4E DUP2 MLOAD PUSH2 0xE1B PUSH1 0x20 SWAP4 DUP5 DUP1 DUP1 SWAP5 DUP4 ADD ADD SWAP2 ADD PUSH2 0xA5A JUMP JUMPDEST PUSH1 0x40 MLOAD DUP1 SWAP4 DUP2 SWAP3 PUSH32 0x7E2157CB00000000000000000000000000000000000000000000000000000000 DUP4 MSTORE PUSH1 0x4 DUP4 ADD PUSH2 0xA8A JUMP JUMPDEST SUB DUP2 PUSH20 0x0 GAS DELEGATECALL SWAP2 DUP3 ISZERO PUSH2 0xDAD JUMPI PUSH1 0x0 SWAP3 PUSH2 0xE85 JUMPI JUMPDEST POP POP ISZERO PUSH2 0xD77 JUMPI PUSH1 0x1 SWAP1 PUSH2 0xD71 JUMP JUMPDEST PUSH2 0xE9B SWAP3 POP DUP1 RETURNDATASIZE LT PUSH2 0xDA6 JUMPI PUSH2 0xD97 DUP2 DUP4 PUSH2 0x475 JUMP JUMPDEST CODESIZE DUP1 PUSH2 0xE76 JUMP JUMPDEST PUSH1 0x40 MLOAD PUSH32 0x8C379A000000000000000000000000000000000000000000000000000000000 DUP2 MSTORE PUSH1 0x20 PUSH1 0x4 DUP3 ADD MSTORE PUSH1 0x18 PUSH1 0x24 DUP3 ADD MSTORE PUSH32 0x4143433A20756E6B6E6F776E20706F6C69637920747970650000000000000000 PUSH1 0x44 DUP3 ADD MSTORE PUSH1 0x64 SWAP1 REVERT JUMPDEST POP POP POP POP PUSH1 0x1 SWAP1 JUMP JUMPDEST POP POP POP PUSH1 0x1 SWAP1 JUMP JUMPDEST SWAP1 CALLDATALOAD SWAP1 PUSH32 0xFFFFFFFFFFFFFFFFFFFFFFFFFFFFFFFFFFFFFFFFFFFFFFFFFFFFFFFFFFFFFFE1 DUP2 CALLDATASIZE SUB ADD DUP3 SLT ISZERO PUSH2 0x1AF JUMPI ADD DUP1 CALLDATALOAD SWAP1 PUSH8 0xFFFFFFFFFFFFFFFF DUP3 GT PUSH2 0x1AF JUMPI PUSH1 0x20 ADD SWAP2 DUP2 CALLDATASIZE SUB DUP4 SGT PUSH2 0x1AF JUMPI JUMP JUMPDEST SWAP1 CALLDATALOAD SWAP1 PUSH32 0xFFFFFFFFFFFFFFFFFFFFFFFFFFFFFFFFFFFFFFFFFFFFFFFFFFFFFFFFFFFFFFE1 DUP2 CALLDATASIZE SUB ADD DUP3 SLT ISZERO PUSH2 0x1AF JUMPI ADD DUP1 CALLDATALOAD SWAP1 PUSH8 0xFFFFFFFFFFFFFFFF DUP3 GT PUSH2 0x1AF JUMPI PUSH1 0x20 ADD SWAP2 DUP2 PUSH1 0x5 SHL CALLDATASIZE SUB DUP4 SGT PUSH2 0x1AF JUMPI JUMP JUMPDEST SWAP1 CALLDATALOAD PUSH32 0xFFFFFFFFFFFFFFFFFFFFFFFFFFFFFFFFFFFFFFFFFFFFFFFFFFFFFFFFFFFFFFE1 DUP3 CALLDATASIZE SUB ADD DUP2 SLT ISZERO PUSH2 0x1AF JUMPI ADD PUSH1 0x20 DUP2 CALLDATALOAD SWAP2 ADD SWAP2 PUSH8 0xFFFFFFFFFFFFFFFF DUP3 GT PUSH2 0x1AF JUMPI DUP2 CALLDATASIZE SUB DUP4 SGT PUSH2 0x1AF JUMPI JUMP JUMPDEST PUSH1 0x1F DUP3 PUSH1 0x20 SWAP5 SWAP4 PUSH32 0xFFFFFFFFFFFFFFFFFFFFFFFFFFFFFFFFFFFFFFFFFFFFFFFFFFFFFFFFFFFFFFE0 SWAP4 DUP2 DUP7 MSTORE DUP7 DUP7 ADD CALLDATACOPY PUSH1 0x0 DUP6 DUP3 DUP7 ADD ADD MSTORE ADD AND ADD ADD SWAP1 JUMP JUMPDEST PUSH1 0x20 SWAP3 DUP1 DUP5 DUP4 ADD DUP6 DUP5 MSTORE MSTORE PUSH1 0x40 SWAP4 PUSH1 0x40 DUP4 ADD SWAP3 PUSH1 0x40 DUP4 PUSH1 0x5 SHL DUP3 ADD ADD SWAP6 DUP6 PUSH1 0x0 DUP1 SWAP4 JUMPDEST DUP7 DUP6 LT PUSH2 0x107C JUMPI POP POP POP POP POP POP POP POP POP SWAP1 JUMP JUMPDEST SWAP1 SWAP2 SWAP3 SWAP4 SWAP5 SWAP6 SWAP7 SWAP8 SWAP9 PUSH32 0xFFFFFFFFFFFFFFFFFFFFFFFFFFFFFFFFFFFFFFFFFFFFFFFFFFFFFFFFFFFFFFC0 DUP3 DUP3 SUB ADD DUP10 MSTORE DUP10 CALLDATALOAD PUSH32 0xFFFFFFFFFFFFFFFFFFFFFFFFFFFFFFFFFFFFFFFFFFFFFFFFFFFFFFFFFFFFFFC1 DUP6 CALLDATASIZE SUB ADD DUP2 SLT ISZERO PUSH2 0x176 JUMPI DUP8 PUSH2 0x1119 PUSH1 0x1 SWAP4 DUP8 DUP4 SWAP5 ADD SWAP1 PUSH2 0x110C PUSH2 0x1102 PUSH2 0x10F6 DUP5 DUP1 PUSH2 0xFB7 JUMP JUMPDEST DUP14 DUP6 MSTORE DUP14 DUP6 ADD SWAP2 PUSH2 0x1007 JUMP JUMPDEST SWAP3 DUP6 DUP2 ADD SWAP1 PUSH2 0xFB7 JUMP JUMPDEST SWAP2 DUP6 DUP2 DUP6 SUB SWAP2 ADD MSTORE PUSH2 0x1007 JUMP JUMPDEST SWAP12 ADD SWAP10 ADD SWAP8 SWAP7 SWAP6 ADD SWAP4 SWAP3 SWAP2 SWAP1 PUSH2 0x1069 JUMP JUMPDEST ISZERO PUSH2 0x1131 JUMPI JUMP JUMPDEST PUSH1 0x64 PUSH1 0x40 MLOAD PUSH32 0x8C379A000000000000000000000000000000000000000000000000000000000 DUP2 MSTORE PUSH1 0x20 PUSH1 0x4 DUP3 ADD MSTORE PUSH1 0x16 PUSH1 0x24 DUP3 ADD MSTORE PUSH32 0x4143433A20656D70747920636F6E74726F6C6C65727300000000000000000000 PUSH1 0x44 DUP3 ADD MSTORE REVERT JUMPDEST SWAP1 CALLDATALOAD SWAP1 PUSH32 0xFFFFFFFFFFFFFFFFFFFFFFFFFFFFFFFFFFFFFFFFFFFFFFFFFFFFFFFFFFFFFFE1 DUP2 CALLDATASIZE SUB ADD DUP3 SLT ISZERO PUSH2 0x1AF JUMPI ADD DUP1 CALLDATALOAD SWAP1 PUSH8 0xFFFFFFFFFFFFFFFF DUP3 GT PUSH2 0x1AF JUMPI PUSH1 0x20 ADD SWAP2 DUP2 PUSH1 0x7 SHL CALLDATASIZE SUB DUP4 SGT PUSH2 0x1AF JUMPI JUMP JUMPDEST ISZERO PUSH2 0x11EA JUMPI JUMP JUMPDEST PUSH1 0x64 PUSH1 0x40 MLOAD PUSH32 0x8C379A000000000000000000000000000000000000000000000000000000000 DUP2 MSTORE PUSH1 0x20 PUSH1 0x4 DUP3 ADD MSTORE PUSH1 0x20 PUSH1 0x24 DUP3 ADD MSTORE PUSH32 0x4143433A206374726C2F7075626B6579206C656E677468206D69736D61746368 PUSH1 0x44 DUP3 ADD MSTORE REVERT JUMPDEST CALLDATALOAD PUSH1 0xFF DUP2 AND DUP2 SUB PUSH2 0x1AF JUMPI SWAP1 JUMP JUMPDEST ISZERO PUSH2 0x125D JUMPI JUMP JUMPDEST PUSH1 0x64 PUSH1 0x40 MLOAD PUSH32 0x8C379A000000000000000000000000000000000000000000000000000000000 DUP2 MSTORE PUSH1 0x20 PUSH1 0x4 DUP3 ADD MSTORE PUSH1 0x1A PUSH1 0x24 DUP3 ADD MSTORE PUSH32 0x4143433A20696E76616C696420736967207468726573686F6C64000000000000 PUSH1 0x44 DUP3 ADD MSTORE REVERT JUMPDEST PUSH32 0x4E487B7100000000000000000000000000000000000000000000000000000000 PUSH1 0x0 MSTORE PUSH1 0x11 PUSH1 0x4 MSTORE PUSH1 0x24 PUSH1 0x0 REVERT JUMPDEST DUP2 DUP2 LT PUSH2 0x12F5 JUMPI POP POP JUMP JUMPDEST PUSH1 0x0 DUP2 SSTORE PUSH1 0x1 ADD PUSH2 0x12EA JUMP JUMPDEST DUP1 SLOAD PUSH1 0x0 DUP3 SSTORE DUP1 PUSH2 0x1310 JUMPI POP POP JUMP JUMPDEST PUSH2 0x7B9 SWAP2 PUSH1 0x0 MSTORE PUSH1 0x20 PUSH1 0x0 KECCAK256 SWAP1 DUP2 ADD SWAP1 PUSH2 0x12EA JUMP JUMPDEST SWAP2 SWAP1 PUSH8 0xFFFFFFFFFFFFFFFF DUP3 GT PUSH2 0x41C JUMPI PUSH9 0x10000000000000000 DUP3 GT PUSH2 0x41C JUMPI DUP3 SLOAD DUP3 DUP5 SSTORE DUP1 DUP4 LT PUSH2 0x13A9 JUMPI JUMPDEST POP SWAP2 PUSH1 0x0 SWAP1 PUSH1 0x0 MSTORE PUSH1 0x20 DUP1 PUSH1 0x0 KECCAK256 SWAP4 PUSH1 0x0 JUMPDEST DUP5 DUP2 LT PUSH2 0x1374 JUMPI POP POP POP POP POP POP JUMP JUMPDEST DUP2 CALLDATALOAD SWAP2 PUSH20 0xFFFFFFFFFFFFFFFFFFFFFFFFFFFFFFFFFFFFFFFF DUP4 AND DUP4 SUB PUSH2 0x13A5 JUMPI SWAP1 DUP4 PUSH1 0x1 SWAP3 ADD SWAP3 DUP2 DUP9 ADD SSTORE ADD PUSH2 0x1365 JUMP JUMPDEST DUP5 DUP1 REVERT JUMPDEST PUSH2 0x13C1 SWAP1 DUP5 PUSH1 0x0 MSTORE DUP4 PUSH1 0x20 PUSH1 0x0 KECCAK256 SWAP2 DUP3 ADD SWAP2 ADD PUSH2 0x12EA JUMP JUMPDEST CODESIZE PUSH2 0x1353 JUMP JUMPDEST DUP1 SLOAD SWAP1 PUSH1 0x0 DUP2 SSTORE DUP2 PUSH2 0x13D7 JUMPI POP POP JUMP JUMPDEST PUSH32 0x3FFFFFFFFFFFFFFFFFFFFFFFFFFFFFFFFFFFFFFFFFFFFFFFFFFFFFFFFFFFFFFF DUP3 AND DUP3 SUB PUSH2 0x1430 JUMPI PUSH1 0x0 MSTORE PUSH1 0x20 PUSH1 0x0 KECCAK256 SWAP1 PUSH1 0x2 SHL DUP2 ADD SWAP1 JUMPDEST DUP2 DUP2 LT PUSH2 0x141B JUMPI POP POP JUMP JUMPDEST DUP1 PUSH2 0x142A PUSH1 0x4 DUP1 SWAP4 ADD DUP3 PUSH2 0x12EA JUMP JUMPDEST ADD PUSH2 0x1410 JUMP JUMPDEST PUSH2 0x12BB JUMP JUMPDEST SWAP1 PUSH9 0x10000000000000000 DUP4 GT PUSH2 0x41C JUMPI DUP2 SLOAD DUP4 DUP4 SSTORE DUP1 DUP5 LT PUSH2 0x14A3 JUMPI JUMPDEST POP PUSH1 0x0 SWAP2 DUP3 MSTORE PUSH1 0x20 DUP1 DUP4 KECCAK256 SWAP2 DUP4 SWAP1 JUMPDEST DUP6 DUP6 LT PUSH2 0x1471 JUMPI POP POP POP POP POP POP JUMP JUMPDEST DUP1 DUP3 JUMPDEST PUSH1 0x4 DUP2 LT PUSH2 0x1491 JUMPI POP POP PUSH1 0x4 PUSH1 0x80 PUSH1 0x1 SWAP3 ADD SWAP5 ADD SWAP5 ADD SWAP4 SWAP3 PUSH2 0x1462 JUMP JUMPDEST DUP2 CALLDATALOAD DUP7 DUP3 ADD SSTORE SWAP1 DUP5 ADD SWAP1 PUSH1 0x1 ADD PUSH2 0x1474 JUMP JUMPDEST PUSH32 0x3FFFFFFFFFFFFFFFFFFFFFFFFFFFFFFFFFFFFFFFFFFFFFFFFFFFFFFFFFFFFFFF DUP1 DUP3 AND DUP3 SUB PUSH2 0x1430 JUMPI DUP5 AND DUP5 SUB PUSH2 0x1430 JUMPI DUP3 PUSH1 0x0 MSTORE PUSH1 0x20 PUSH1 0x0 KECCAK256 SWAP1 PUSH1 0x2 SHL DUP2 ADD SWAP1 DUP5 PUSH1 0x2 SHL ADD JUMPDEST DUP2 DUP2 LT PUSH2 0x14F8 JUMPI POP PUSH2 0x1453 JUMP JUMPDEST DUP1 PUSH2 0x1507 PUSH1 0x4 DUP1 SWAP4 ADD DUP3 PUSH2 0x12EA JUMP JUMPDEST ADD PUSH2 0x14EB JUMP JUMPDEST SWAP1 PUSH2 0x1517 DUP2 PUSH2 0x1B4 JUMP JUMPDEST PUSH1 0xFF PUSH32 0xFFFFFFFFFFFFFFFFFFFFFFFFFFFFFFFFFFFFFFFFFFFFFFFFFFFFFFFFFFFFFF00 DUP4 SLOAD AND SWAP2 AND OR SWAP1 SSTORE JUMP JUMPDEST SWAP2 SWAP1 PUSH1 0x1F DUP2 GT PUSH2 0x1553 JUMPI POP POP POP JUMP JUMPDEST PUSH2 0x7B9 SWAP3 PUSH1 0x0 MSTORE PUSH1 0x20 PUSH1 0x0 KECCAK256 SWAP1 PUSH1 0x20 PUSH1 0x1F DUP5 ADD PUSH1 0x5 SHR DUP4 ADD SWAP4 LT PUSH2 0x157F JUMPI JUMPDEST PUSH1 0x1F ADD PUSH1 0x5 SHR ADD SWAP1 PUSH2 0x12EA JUMP JUMPDEST SWAP1 SWAP2 POP DUP2 SWAP1 PUSH2 0x1572 JUMP JUMPDEST SWAP2 SWAP1 DUP3 SLOAD PUSH9 0x10000000000000000 DUP2 LT ISZERO PUSH2 0x41C JUMPI PUSH2 0x15B0 SWAP1 PUSH1 0x1 SWAP5 PUSH1 0x1 DUP3 ADD DUP2 SSTORE PUSH2 0xA39 JUMP JUMPDEST PUSH2 0x1705 JUMPI PUSH1 0x1 SWAP1 PUSH2 0x15CB DUP4 MLOAD PUSH2 0x15C5 DUP2 PUSH2 0x1B4 JUMP JUMPDEST DUP3 PUSH2 0x150D JUMP JUMPDEST ADD SWAP1 PUSH1 0x20 DUP1 SWAP2 ADD MLOAD SWAP4 DUP5 MLOAD SWAP2 PUSH8 0xFFFFFFFFFFFFFFFF DUP4 GT PUSH2 0x41C JUMPI PUSH2 0x15FA DUP4 PUSH2 0x15F4 DUP7 SLOAD PUSH2 0x37E JUMP JUMPDEST DUP7 PUSH2 0x1544 JUMP JUMPDEST PUSH1 0x20 SWAP2 PUSH1 0x1F DUP5 GT PUSH1 0x1 EQ PUSH2 0x165B JUMPI POP POP DUP2 SWAP1 PUSH2 0x164C SWAP4 SWAP5 SWAP6 PUSH1 0x0 SWAP3 PUSH2 0x1650 JUMPI JUMPDEST POP POP PUSH32 0xFFFFFFFFFFFFFFFFFFFFFFFFFFFFFFFFFFFFFFFFFFFFFFFFFFFFFFFFFFFFFFFF DUP3 PUSH1 0x1 SHL SWAP3 PUSH1 0x3 SHL SHR NOT AND OR SWAP1 JUMP JUMPDEST SWAP1 SSTORE JUMP JUMPDEST ADD MLOAD SWAP1 POP CODESIZE DUP1 PUSH2 0x161A JUMP JUMPDEST SWAP6 PUSH32 0xFFFFFFFFFFFFFFFFFFFFFFFFFFFFFFFFFFFFFFFFFFFFFFFFFFFFFFFFFFFFFFE0 DUP5 SWAP4 SWAP3 SWAP4 AND SWAP7 PUSH2 0x1692 DUP7 PUSH1 0x0 MSTORE PUSH1 0x20 PUSH1 0x0 KECCAK256 SWAP1 JUMP JUMPDEST SWAP4 PUSH1 0x0 SWAP2 JUMPDEST DUP10 DUP4 LT PUSH2 0x16EE JUMPI POP POP POP DUP4 PUSH1 0x1 SWAP6 SWAP7 SWAP8 LT PUSH2 0x16B7 JUMPI JUMPDEST POP POP POP DUP2 SHL ADD SWAP1 SSTORE JUMP JUMPDEST ADD MLOAD PUSH32 0xFFFFFFFFFFFFFFFFFFFFFFFFFFFFFFFFFFFFFFFFFFFFFFFFFFFFFFFFFFFFFFFF PUSH1 0xF8 DUP5 PUSH1 0x3 SHL AND SHR NOT AND SWAP1 SSTORE CODESIZE DUP1 DUP1 PUSH2 0x16AD JUMP JUMPDEST DUP4 DUP6 ADD MLOAD DUP7 SSTORE SWAP5 DUP6 ADD SWAP5 SWAP4 DUP2 ADD SWAP4 SWAP2 DUP2 ADD SWAP2 PUSH2 0x1697 JUMP JUMPDEST PUSH2 0x34F JUMP JUMPDEST PUSH1 0x40 MLOAD SWAP1 PUSH2 0x1717 DUP3 PUSH2 0x43D JUMP JUMPDEST PUSH1 0x3 DUP3 MSTORE PUSH32 0x4143430000000000000000000000000000000000000000000000000000000000 PUSH1 0x20 DUP4 ADD MSTORE JUMP JUMPDEST SWAP3 DUP6 SWAP4 DUP2 DUP10 SWAP9 SWAP8 SWAP4 SWAP5 PUSH1 0x60 SWAP13 SWAP11 SWAP8 SWAP6 DUP4 MSTORE PUSH1 0x20 DUP4 ADD CALLDATACOPY ADD SWAP2 PUSH1 0x20 DUP4 ADD PUSH1 0x0 DUP2 MSTORE CALLDATACOPY ADD SWAP2 PUSH1 0x20 DUP4 ADD PUSH1 0x0 DUP2 MSTORE CALLDATACOPY ADD SWAP2 PUSH1 0x20 DUP4 ADD MSTORE PUSH1 0x40 DUP3 ADD MSTORE ADD SWAP1 JUMP JUMPDEST PUSH1 0x40 MLOAD SWAP1 PUSH2 0x178C DUP3 PUSH2 0x459 JUMP JUMPDEST PUSH1 0x80 CALLDATASIZE DUP4 CALLDATACOPY JUMP JUMPDEST PUSH1 0x40 MLOAD SWAP1 PUSH2 0x17A0 DUP3 PUSH2 0x43D JUMP JUMPDEST PUSH1 0x40 CALLDATASIZE DUP4 CALLDATACOPY JUMP JUMPDEST PUSH1 0x40 MLOAD SWAP1 PUSH1 0x20 DUP3 ADD DUP3 DUP2 LT PUSH8 0xFFFFFFFFFFFFFFFF DUP3 GT OR PUSH2 0x41C JUMPI PUSH1 0x40 MSTORE PUSH1 0x20 CALLDATASIZE DUP4 CALLDATACOPY JUMP JUMPDEST DUP1 SLOAD DUP3 LT ISZERO PUSH2 0xA55 JUMPI PUSH1 0x0 MSTORE PUSH1 0x20 PUSH1 0x0 KECCAK256 SWAP1 PUSH1 0x2 SHL ADD SWAP1 PUSH1 0x0 SWAP1 JUMP JUMPDEST PUSH1 0x40 MLOAD SWAP2 SWAP1 PUSH1 0x0 DUP4 JUMPDEST PUSH1 0x4 DUP3 LT PUSH2 0x1805 JUMPI POP POP POP PUSH2 0x7B9 DUP3 PUSH2 0x459 JUMP JUMPDEST PUSH1 0x1 PUSH1 0x20 DUP2 SWAP3 DUP6 SLOAD DUP2 MSTORE ADD SWAP4 ADD SWAP2 ADD SWAP1 SWAP2 PUSH2 0x17F1 JUMP JUMPDEST PUSH32 0xFFFFFFFFFFFFFFFFFFFFFFFFFFFFFFFFFFFFFFFFFFFFFFFFFFFFFFFFFFFFFFFF DUP2 EQ PUSH2 0x1430 JUMPI PUSH1 0x1 ADD SWAP1 JUMP JUMPDEST ISZERO PUSH2 0x184F JUMPI JUMP JUMPDEST PUSH1 0x64 PUSH1 0x40 MLOAD PUSH32 0x8C379A000000000000000000000000000000000000000000000000000000000 DUP2 MSTORE PUSH1 0x20 PUSH1 0x4 DUP3 ADD MSTORE PUSH1 0x17 PUSH1 0x24 DUP3 ADD MSTORE PUSH32 0x4143433A206E6F7420656E6F756768207369676E657273000000000000000000 PUSH1 0x44 DUP3 ADD MSTORE REVERT JUMPDEST SWAP2 SWAP1 PUSH1 0x40 MLOAD SWAP3 PUSH2 0x18BC DUP5 PUSH2 0x43D JUMP JUMPDEST DUP4 SWAP1 PUSH1 0x40 DUP2 ADD SWAP3 DUP4 GT PUSH2 0x1AF JUMPI SWAP1 JUMPDEST DUP3 DUP3 LT PUSH2 0x18D7 JUMPI POP POP POP JUMP JUMPDEST DUP2 CALLDATALOAD DUP2 MSTORE PUSH1 0x20 SWAP2 DUP3 ADD SWAP2 ADD PUSH2 0x18CB JUMP JUMPDEST ISZERO PUSH2 0x18EE JUMPI JUMP JUMPDEST PUSH1 0x64 PUSH1 0x40 MLOAD PUSH32 0x8C379A000000000000000000000000000000000000000000000000000000000 DUP2 MSTORE PUSH1 0x20 PUSH1 0x4 DUP3 ADD MSTORE PUSH1 0x1A PUSH1 0x24 DUP3 ADD MSTORE PUSH32 0x4143433A206167672D73696720766572696679206661696C6564000000000000 PUSH1 0x44 DUP3 ADD MSTORE REVERT JUMPDEST SWAP1 PUSH2 0xC62 PUSH2 0x196D PUSH2 0x195D DUP5 DUP1 PUSH2 0xF12 JUMP JUMPDEST PUSH1 0x20 DUP7 ADD SWAP4 SWAP2 PUSH2 0x66A DUP6 DUP9 PUSH2 0xF12 JUMP JUMPDEST PUSH1 0x40 DUP5 ADD SWAP2 PUSH2 0x19A1 PUSH2 0x1982 PUSH2 0x710 DUP6 DUP9 PUSH2 0xF12 JUMP JUMPDEST SWAP4 PUSH2 0x1990 PUSH1 0x60 DUP9 ADD DUP9 PUSH2 0xF63 JUMP JUMPDEST PUSH1 0x40 MLOAD SWAP4 DUP5 SWAP2 PUSH1 0x20 DUP4 ADD SWAP4 DUP5 PUSH2 0x1046 JUMP JUMPDEST SUB SWAP3 PUSH2 0x19D3 PUSH32 0xFFFFFFFFFFFFFFFFFFFFFFFFFFFFFFFFFFFFFFFFFFFFFFFFFFFFFFFFFFFFFFE0 SWAP5 DUP6 DUP2 ADD DUP4 MSTORE DUP3 PUSH2 0x475 JUMP JUMPDEST PUSH2 0x19E5 PUSH2 0x19DE PUSH2 0x7BB JUMP JUMPDEST SWAP8 DUP9 PUSH2 0x801 JUMP JUMPDEST DUP1 PUSH1 0x20 DUP9 ADD MSTORE PUSH1 0x5 DUP7 ADD PUSH2 0x19FD PUSH2 0xC84 DUP3 SLOAD PUSH1 0xFF AND SWAP1 JUMP JUMPDEST PUSH2 0x1B35 JUMPI POP SWAP2 PUSH2 0x1A5E PUSH2 0x1A3A DUP11 PUSH2 0x1A77 SWAP8 SWAP7 SWAP5 PUSH2 0x1A6A SWAP7 PUSH2 0x1A1C PUSH2 0x170A JUMP JUMPDEST PUSH1 0x20 DUP2 MLOAD SWAP2 ADD KECCAK256 SWAP6 PUSH2 0x1A42 PUSH2 0x1A31 DUP6 DUP1 PUSH2 0xF12 JUMP JUMPDEST SWAP7 SWAP1 SWAP12 DUP7 PUSH2 0xF12 JUMP JUMPDEST SWAP3 SWAP1 SWAP6 PUSH2 0xF12 JUMP JUMPDEST SWAP4 SWAP1 SWAP3 MLOAD SWAP1 KECCAK256 SWAP4 PUSH1 0x4 DUP14 ADD SLOAD SWAP6 PUSH1 0x40 MLOAD SWAP12 DUP13 SWAP10 PUSH1 0x20 DUP12 ADD PUSH2 0x1743 JUMP JUMPDEST SUB SWAP1 DUP2 ADD DUP4 MSTORE DUP3 PUSH2 0x475 JUMP JUMPDEST PUSH2 0x1A72 PUSH2 0x170A JUMP JUMPDEST PUSH2 0x1F76 JUMP JUMPDEST PUSH2 0x1A7F PUSH2 0x177F JUMP JUMPDEST PUSH1 0x0 SWAP6 PUSH1 0x0 PUSH1 0x1 SWAP1 PUSH1 0x1 DUP7 ADD SLOAD SWAP1 JUMPDEST DUP2 DUP2 LT PUSH2 0x1AE9 JUMPI POP POP POP SWAP2 PUSH2 0x1AD9 SWAP2 PUSH2 0x1AD4 PUSH2 0x1ADF SWAP5 PUSH2 0x1ACA PUSH2 0x1AE4 SWAP10 SWAP11 PUSH2 0x1AC3 PUSH2 0x1ABD PUSH1 0x3 DUP12 ADD SLOAD PUSH1 0xFF AND SWAP1 JUMP JUMPDEST PUSH1 0xFF AND SWAP1 JUMP JUMPDEST GT ISZERO PUSH2 0x1848 JUMP JUMPDEST PUSH1 0xE0 CALLDATASIZE SWAP2 ADD PUSH2 0x18AD JUMP JUMPDEST PUSH2 0x22FF JUMP JUMPDEST POP PUSH2 0x18E7 JUMP JUMPDEST PUSH2 0x1589 JUMP JUMPDEST PUSH1 0x1 SWAP1 JUMP JUMPDEST DUP3 DUP1 PUSH2 0x120 DUP7 ADD CALLDATALOAD DUP4 SHR AND EQ PUSH2 0x1B01 JUMPI JUMPDEST DUP3 ADD PUSH2 0x1A8E JUMP JUMPDEST SWAP9 SWAP4 PUSH2 0x1B2D PUSH2 0x1B27 DUP5 SWAP3 PUSH2 0x1B21 PUSH2 0x1B1B DUP15 PUSH1 0x2 DUP14 ADD PUSH2 0x17CC JUMP JUMPDEST POP PUSH2 0x17E8 JUMP JUMPDEST SWAP1 PUSH2 0x227A JUMP JUMPDEST SWAP6 PUSH2 0x181B JUMP JUMPDEST SWAP10 SWAP1 POP PUSH2 0x1AFA JUMP JUMPDEST SWAP4 POP POP POP POP PUSH2 0x1ADF SWAP2 POP PUSH2 0x1C10 PUSH2 0x1BDF DUP8 PUSH2 0x1BDA PUSH2 0x1BD0 PUSH1 0x80 PUSH2 0x1AE4 SWAP11 SWAP12 ADD SWAP3 PUSH2 0x1B6B PUSH2 0x1B62 DUP6 DUP4 PUSH2 0xF63 JUMP JUMPDEST SWAP1 POP ISZERO ISZERO PUSH2 0x112A JUMP JUMPDEST PUSH2 0x1B75 DUP5 DUP3 PUSH2 0xF63 JUMP JUMPDEST SWAP2 SWAP1 POP PUSH2 0x1B93 PUSH1 0xA0 DUP3 ADD SWAP3 PUSH2 0x1B8A DUP5 DUP5 PUSH2 0x118F JUMP JUMPDEST SWAP2 SWAP1 POP EQ PUSH2 0x11E3 JUMP JUMPDEST PUSH2 0x1BCB PUSH2 0x1BC1 PUSH1 0xC0 DUP4 ADD SWAP7 PUSH1 0xFF PUSH2 0x1BA9 DUP10 PUSH2 0x1248 JUMP JUMPDEST AND ISZERO ISZERO DUP1 PUSH2 0x1C3B JUMPI JUMPDEST PUSH2 0x1BBB SWAP1 PUSH2 0x1256 JUMP JUMPDEST DUP4 PUSH2 0xF63 JUMP JUMPDEST SWAP1 PUSH1 0x1 DUP14 ADD PUSH2 0x1325 JUMP JUMPDEST PUSH2 0x118F JUMP JUMPDEST SWAP1 PUSH1 0x2 DUP10 ADD PUSH2 0x1435 JUMP JUMPDEST PUSH2 0x1248 JUMP JUMPDEST PUSH1 0x3 DUP6 ADD SWAP1 PUSH1 0xFF AND PUSH32 0xFFFFFFFFFFFFFFFFFFFFFFFFFFFFFFFFFFFFFFFFFFFFFFFFFFFFFFFFFFFFFF00 DUP3 SLOAD AND OR SWAP1 SSTORE JUMP JUMPDEST PUSH1 0x1 PUSH32 0xFFFFFFFFFFFFFFFFFFFFFFFFFFFFFFFFFFFFFFFFFFFFFFFFFFFFFFFFFFFFFF00 DUP3 SLOAD AND OR SWAP1 SSTORE JUMP JUMPDEST POP PUSH2 0x1BBB PUSH2 0x1C48 DUP10 PUSH2 0x1248 JUMP JUMPDEST PUSH1 0xFF PUSH2 0x1C54 DUP5 DUP9 PUSH2 0xF63 JUMP JUMPDEST SWAP3 SWAP1 POP AND GT ISZERO SWAP1 POP PUSH2 0x1BB2 JUMP JUMPDEST ISZERO PUSH2 0x1C68 JUMPI JUMP JUMPDEST PUSH1 0x64 PUSH1 0x40 MLOAD PUSH32 0x8C379A000000000000000000000000000000000000000000000000000000000 DUP2 MSTORE PUSH1 0x20 PUSH1 0x4 DUP3 ADD MSTORE PUSH1 0x19 PUSH1 0x24 DUP3 ADD MSTORE PUSH32 0x4143433A20706F6C6963792D736574206E6F7420666F756E6400000000000000 PUSH1 0x44 DUP3 ADD MSTORE REVERT JUMPDEST SWAP1 DUP2 SLOAD PUSH2 0x1CD2 DUP2 PUSH2 0x7E9 JUMP JUMPDEST SWAP3 PUSH2 0x1CE0 PUSH1 0x40 MLOAD SWAP5 DUP6 PUSH2 0x475 JUMP JUMPDEST DUP2 DUP5 MSTORE PUSH1 0x0 SWAP1 DUP2 MSTORE PUSH1 0x20 DUP1 DUP3 KECCAK256 DUP2 DUP7 ADD JUMPDEST DUP5 DUP5 LT PUSH2 0x1CFF JUMPI POP POP POP POP POP JUMP JUMPDEST PUSH1 0x4 DUP4 PUSH1 0x1 SWAP3 PUSH2 0x1D0E DUP6 PUSH2 0x17E8 JUMP JUMPDEST DUP2 MSTORE ADD SWAP3 ADD SWAP4 ADD SWAP3 SWAP1 PUSH2 0x1CF1 JUMP JUMPDEST SWAP1 PUSH1 0x40 MLOAD PUSH2 0x1D29 DUP2 PUSH2 0x400 JUMP JUMPDEST DUP1 SWAP3 PUSH2 0x1D34 DUP2 PUSH2 0x8DC JUMP JUMPDEST DUP3 MSTORE PUSH1 0x1 DUP1 DUP3 ADD PUSH1 0x40 MLOAD DUP1 SWAP3 DUP3 SLOAD DUP1 DUP4 MSTORE PUSH1 0x20 DUP1 SWAP4 ADD SWAP4 PUSH1 0x0 MSTORE PUSH1 0x20 PUSH1 0x0 KECCAK256 SWAP3 PUSH1 0x0 SWAP1 JUMPDEST DUP3 DUP3 LT PUSH2 0x1DC7 JUMPI POP POP POP POP POP PUSH1 0x5 PUSH2 0x7B9 SWAP5 SWAP4 DUP4 PUSH2 0x1D7D PUSH1 0xA0 SWAP6 PUSH2 0x1DC0 SWAP6 SUB DUP3 PUSH2 0x475 JUMP JUMPDEST PUSH1 0x20 DUP7 ADD MSTORE PUSH2 0x1D8E PUSH1 0x2 DUP3 ADD PUSH2 0x1CC6 JUMP JUMPDEST PUSH1 0x40 DUP7 ADD MSTORE PUSH2 0x1DAE PUSH2 0x1DA4 PUSH1 0x3 DUP4 ADD SLOAD PUSH1 0xFF AND SWAP1 JUMP JUMPDEST PUSH1 0xFF AND PUSH1 0x60 DUP8 ADD MSTORE JUMP JUMPDEST PUSH1 0x4 DUP2 ADD SLOAD PUSH1 0x80 DUP7 ADD MSTORE ADD SLOAD PUSH1 0xFF AND SWAP1 JUMP JUMPDEST ISZERO ISZERO SWAP2 ADD MSTORE JUMP JUMPDEST DUP5 SLOAD PUSH20 0xFFFFFFFFFFFFFFFFFFFFFFFFFFFFFFFFFFFFFFFF AND DUP7 MSTORE SWAP5 DUP6 ADD SWAP5 SWAP4 DUP4 ADD SWAP4 SWAP1 DUP4 ADD SWAP1 PUSH2 0x1D58 JUMP JUMPDEST SWAP3 SWAP2 PUSH2 0x1E4C SWAP2 DUP4 PUSH1 0x21 SWAP3 PUSH1 0x40 MLOAD SWAP6 DUP4 DUP8 SWAP5 PUSH1 0x20 DUP7 ADD SWAP10 DUP11 CALLDATACOPY DUP5 ADD SWAP2 PUSH32 0x7C00000000000000000000000000000000000000000000000000000000000000 PUSH1 0x20 DUP5 ADD MSTORE DUP6 DUP4 ADD CALLDATACOPY ADD PUSH1 0x0 DUP4 DUP3 ADD MSTORE SUB PUSH1 0x1 DUP2 ADD DUP5 MSTORE ADD DUP3 PUSH2 0x475 JUMP JUMPDEST MLOAD SWAP1 KECCAK256 SWAP1 JUMP JUMPDEST PUSH2 0x1E5D SWAP2 CALLDATASIZE SWAP2 PUSH2 0xB7F JUMP JUMPDEST PUSH1 0x20 DUP2 MLOAD SWAP2 ADD KECCAK256 PUSH32 0xB3E71936029EA100264457A898DCB589DD7EF1F9C03768F6D110E3D43558029D DUP2 EQ PUSH2 0x1F42 JUMPI PUSH32 0x89B51E83CB3FC3FF6274369BEE8B175AEAA38AE40D40277BC6C12974F383A6FD DUP2 EQ PUSH2 0x1F3C JUMPI PUSH32 0xF7993C1CC9E18041AFDBF383610EDDF76760E765912DE5665A4361729FB207D EQ PUSH2 0x1F37 JUMPI PUSH1 0x40 MLOAD PUSH32 0x8C379A000000000000000000000000000000000000000000000000000000000 DUP2 MSTORE PUSH1 0x20 PUSH1 0x4 DUP3 ADD MSTORE PUSH1 0x18 PUSH1 0x24 DUP3 ADD MSTORE PUSH32 0x4143433A20756E6B6E6F776E20706F6C69637920747970650000000000000000 PUSH1 0x44 DUP3 ADD MSTORE PUSH1 0x64 SWAP1 REVERT JUMPDEST PUSH1 0x2 SWAP1 JUMP JUMPDEST POP PUSH1 0x1 SWAP1 JUMP JUMPDEST POP PUSH1 0x0 SWAP1 JUMP JUMPDEST PUSH1 0x80 DUP2 ADD SWAP3 SWAP2 PUSH1 0x0 SWAP2 JUMPDEST PUSH1 0x4 DUP4 LT PUSH2 0x1F5F JUMPI POP POP POP JUMP JUMPDEST PUSH1 0x1 SWAP1 DUP3 MLOAD DUP2 MSTORE PUSH1 0x20 DUP1 SWAP2 ADD SWAP3 ADD SWAP3 ADD SWAP2 SWAP1 PUSH2 0x1F52 JUMP JUMPDEST SWAP1 PUSH2 0x1F7F PUSH2 0x1793 JUMP JUMPDEST POP PUSH1 0x40 DUP1 DUP1 MLOAD PUSH2 0x1F8E DUP2 PUSH2 0x43D JUMP JUMPDEST CALLDATASIZE SWAP1 CALLDATACOPY DUP3 MLOAD SWAP3 PUSH1 0xFF DUP5 GT PUSH2 0x21E1 JUMPI PUSH1 0xFF PUSH2 0x1FA6 PUSH2 0x2BC4 JUMP JUMPDEST SWAP5 AND SWAP4 DUP3 MLOAD SWAP1 DUP2 PUSH2 0x1FBF DUP8 DUP6 PUSH1 0x20 SWAP9 DUP10 DUP6 ADD SWAP6 DUP7 PUSH2 0x2C13 JUMP JUMPDEST SUB SWAP2 PUSH2 0x1FF1 PUSH32 0xFFFFFFFFFFFFFFFFFFFFFFFFFFFFFFFFFFFFFFFFFFFFFFFFFFFFFFFFFFFFFFE0 SWAP4 DUP5 DUP2 ADD DUP4 MSTORE DUP3 PUSH2 0x475 JUMP JUMPDEST MLOAD SWAP1 KECCAK256 SWAP2 DUP4 MLOAD DUP6 DUP2 ADD SWAP1 PUSH2 0x2017 DUP2 PUSH2 0x200B DUP11 DUP7 DUP10 DUP8 PUSH2 0x2CB3 JUMP JUMPDEST SUB DUP6 DUP2 ADD DUP4 MSTORE DUP3 PUSH2 0x475 JUMP JUMPDEST MLOAD SWAP1 KECCAK256 SWAP6 PUSH2 0x2023 PUSH2 0x2BDF JUMP JUMPDEST SWAP4 PUSH1 0x1 SWAP3 PUSH1 0x1 SWAP5 JUMPDEST PUSH1 0x3 DUP7 LT PUSH2 0x216C JUMPI POP POP POP POP POP POP PUSH2 0x20D2 DUP2 DUP6 PUSH1 0x60 PUSH2 0x20D9 SWAP5 ADD MSTORE PUSH24 0xFFFFFFFFFFFFFFFFFFFFFFFFFFFFFFFFFFFFFFFFFFFFFFFF DUP1 PUSH1 0x18 DUP4 ADD MLOAD AND SWAP1 PUSH32 0x30644E72E131A029B85045B68181585D97816A916871CA8D3C208C16D87CFD47 DUP1 SWAP3 DUP3 PUSH1 0x48 DUP4 DUP3 PUSH1 0x30 DUP10 ADD MLOAD AND DUP2 PUSH25 0x1000000000000000000000000000000000000000000000000 DUP1 SWAP7 MULMOD ADDMOD SWAP7 ADD MLOAD AND SWAP3 DUP10 PUSH2 0x20C2 PUSH2 0x7BB JUMP JUMPDEST DUP8 DUP2 MSTORE ADD SWAP11 AND SWAP3 MULMOD ADDMOD DUP7 MSTORE PUSH2 0x29C6 JUMP JUMPDEST SWAP4 MLOAD PUSH2 0x29C6 JUMP JUMPDEST SWAP2 PUSH2 0x20E2 PUSH2 0x177F JUMP JUMPDEST SWAP3 DUP5 MLOAD DUP5 MSTORE DUP2 DUP6 ADD MLOAD DUP3 DUP6 ADD MSTORE DUP1 MLOAD DUP4 DUP6 ADD MSTORE ADD MLOAD PUSH1 0x60 DUP4 ADD MSTORE PUSH2 0x212E DUP2 DUP5 PUSH1 0x80 DUP6 PUSH1 0x6 PUSH32 0xFFFFFFFFFFFFFFFFFFFFFFFFFFFFFFFFFFFFFFFFFFFFFFFFFFFFFFFFFFFFF830 GAS ADD STATICCALL ISZERO SWAP1 JUMP JUMPDEST PUSH2 0x2137 JUMPI POP POP SWAP1 JUMP JUMPDEST PUSH2 0x9FD SWAP3 POP MLOAD SWAP2 DUP3 SWAP2 PUSH32 0x128E3F0800000000000000000000000000000000000000000000000000000000 DUP4 MSTORE PUSH1 0x4 DUP4 ADD PUSH2 0x1F48 JUMP JUMPDEST SWAP1 SWAP2 SWAP3 SWAP4 DUP4 DUP4 DUP8 SWAP12 DUP12 PUSH32 0xFFFFFFFFFFFFFFFFFFFFFFFFFFFFFFFFFFFFFFFFFFFFFFFFFFFFFFFFFFFFFFFF DUP11 PUSH2 0x21CA DUP15 PUSH2 0x21BE DUP14 DUP11 SWAP16 PUSH2 0x1ABD PUSH2 0x21AD SWAP2 PUSH2 0x2824 JUMP JUMPDEST SWAP3 MLOAD SWAP9 DUP10 SWAP4 DUP10 DUP10 DUP7 ADD SWAP13 XOR DUP13 PUSH2 0x2D25 JUMP JUMPDEST SUB DUP10 DUP2 ADD DUP8 MSTORE DUP7 PUSH2 0x475 JUMP JUMPDEST ADD PUSH1 0x5 SHL DUP12 ADD ADD MSTORE MLOAD SWAP1 KECCAK256 SWAP10 ADD SWAP5 SWAP4 SWAP3 SWAP2 SWAP1 PUSH2 0x202B JUMP JUMPDEST PUSH2 0x9FD SWAP2 MLOAD SWAP2 DUP3 SWAP2 PUSH32 0x26E4F9BA00000000000000000000000000000000000000000000000000000000 DUP4 MSTORE PUSH1 0x4 DUP4 ADD PUSH2 0x4B6 JUMP JUMPDEST ISZERO PUSH2 0x221C JUMPI JUMP JUMPDEST PUSH1 0x64 PUSH1 0x40 MLOAD PUSH32 0x8C379A000000000000000000000000000000000000000000000000000000000 DUP2 MSTORE PUSH1 0x20 PUSH1 0x4 DUP3 ADD MSTORE PUSH1 0x12 PUSH1 0x24 DUP3 ADD MSTORE PUSH32 0x424C533A20473220616464206661696C65640000000000000000000000000000 PUSH1 0x44 DUP3 ADD MSTORE REVERT JUMPDEST PUSH2 0x7B9 SWAP1 SWAP3 SWAP2 SWAP3 PUSH2 0x2289 PUSH2 0x177F JUMP JUMPDEST SWAP4 PUSH1 0x40 MLOAD SWAP2 DUP1 MLOAD DUP4 MSTORE PUSH1 0x20 DUP2 ADD MLOAD PUSH1 0x20 DUP5 ADD SWAP1 DUP2 MSTORE PUSH1 0x60 DUP1 PUSH1 0x40 DUP5 ADD MLOAD SWAP4 PUSH1 0x40 DUP8 ADD SWAP5 DUP6 MSTORE ADD MLOAD SWAP4 DUP2 DUP7 ADD SWAP5 DUP6 MSTORE DUP1 MLOAD PUSH1 0x80 DUP8 ADD MSTORE PUSH1 0x20 DUP2 ADD MLOAD PUSH1 0xA0 DUP8 ADD MSTORE PUSH1 0x40 DUP2 ADD MLOAD PUSH1 0xC0 DUP8 ADD MSTORE ADD MLOAD PUSH1 0xE0 DUP6 ADD MSTORE PUSH1 0x80 DUP5 PUSH2 0x100 DUP2 PUSH1 0xC GAS STATICCALL SWAP4 MLOAD DUP8 MSTORE MLOAD PUSH1 0x20 DUP8 ADD MSTORE MLOAD PUSH1 0x40 DUP7 ADD MSTORE MLOAD PUSH1 0x60 DUP6 ADD MSTORE PUSH2 0x2215 JUMP JUMPDEST PUSH1 0x40 PUSH1 0x20 SWAP3 DUP4 PUSH2 0x180 SWAP7 SWAP6 DUP2 PUSH2 0x2313 PUSH2 0x7C8 JUMP JUMPDEST SWAP6 DUP1 MLOAD DUP8 MSTORE ADD MLOAD DUP3 DUP7 ADD MSTORE PUSH32 0x198E9393920D483A7260BFB731FB5D25F1AA493335A9E71297E485B7AEF312C2 DUP5 DUP7 ADD MSTORE PUSH32 0x1800DEEF121F1E76426A00665E5C4479674322D4F75EDADD46DEBD5CD992F6ED PUSH1 0x60 DUP7 ADD MSTORE PUSH32 0x275DC4A288D1AFB3CBB1AC09187524C7DB36395DF7BE3B99E673B13A075A65EC PUSH1 0x80 DUP7 ADD MSTORE PUSH32 0x1D9BEFCD05A5323E6DA4D435F3B617CDB3AF83285C2DF711EF39C01571827F9D PUSH1 0xA0 DUP7 ADD MSTORE DUP1 MLOAD PUSH1 0xC0 DUP7 ADD MSTORE ADD MLOAD PUSH1 0xE0 DUP5 ADD MSTORE DUP4 DUP2 ADD MLOAD PUSH2 0x100 DUP5 ADD MSTORE DUP1 MLOAD PUSH2 0x120 DUP5 ADD MSTORE PUSH1 0x60 DUP2 ADD MLOAD PUSH2 0x140 DUP5 ADD MSTORE ADD MLOAD PUSH2 0x160 DUP3 ADD MSTORE PUSH2 0x23F0 PUSH2 0x17A7 JUMP JUMPDEST SWAP4 DUP5 SWAP2 PUSH1 0x8 PUSH32 0xFFFFFFFFFFFFFFFFFFFFFFFFFFFFFFFFFFFFFFFFFFFFFFFFFFFFFFFFFFFFF830 GAS ADD STATICCALL SWAP2 MLOAD ISZERO ISZERO SWAP2 SWAP1 JUMP JUMPDEST SWAP2 PUSH1 0x0 JUMPDEST DUP4 SLOAD DUP2 LT ISZERO PUSH2 0x2497 JUMPI PUSH2 0x2438 DUP2 DUP6 PUSH2 0xA39 JUMP JUMPDEST POP DUP3 DUP5 PUSH1 0xFF DUP4 SLOAD AND PUSH2 0x2449 DUP3 PUSH2 0x1B4 JUMP JUMPDEST PUSH2 0x2452 DUP2 PUSH2 0x1B4 JUMP JUMPDEST EQ SWAP2 DUP3 PUSH2 0x246F JUMPI JUMPDEST POP POP PUSH2 0x2468 JUMPI PUSH1 0x1 ADD PUSH2 0x2425 JUMP JUMPDEST SWAP3 POP POP POP SWAP1 JUMP JUMPDEST PUSH1 0x1 SWAP2 SWAP3 POP PUSH2 0x2488 SWAP1 PUSH2 0x960 PUSH1 0x40 MLOAD DUP1 SWAP5 DUP2 SWAP4 ADD PUSH2 0x80D JUMP JUMPDEST PUSH1 0x20 DUP2 MLOAD SWAP2 ADD KECCAK256 EQ DUP3 CODESIZE PUSH2 0x245A JUMP JUMPDEST PUSH1 0x40 MLOAD PUSH32 0x8C379A000000000000000000000000000000000000000000000000000000000 DUP2 MSTORE PUSH1 0x20 PUSH1 0x4 DUP3 ADD MSTORE PUSH1 0x15 PUSH1 0x24 DUP3 ADD MSTORE PUSH32 0x4143433A20706F6C696379206E6F7420666F756E640000000000000000000000 PUSH1 0x44 DUP3 ADD MSTORE PUSH1 0x64 SWAP1 REVERT JUMPDEST SWAP5 SWAP3 SWAP1 SWAP2 PUSH1 0x60 SWAP7 SWAP5 SWAP3 DUP7 MSTORE PUSH1 0x20 SWAP6 PUSH2 0x2516 DUP3 MLOAD DUP1 SWAP4 DUP10 DUP1 DUP6 ADD SWAP2 ADD PUSH2 0x1ED JUMP JUMPDEST ADD PUSH2 0x2529 DUP3 MLOAD DUP1 SWAP4 DUP9 DUP1 DUP6 ADD SWAP2 ADD PUSH2 0x1ED JUMP JUMPDEST ADD PUSH2 0x253C DUP3 MLOAD DUP1 SWAP4 DUP8 DUP1 DUP6 ADD SWAP2 ADD PUSH2 0x1ED JUMP JUMPDEST ADD SWAP3 DUP4 ADD MSTORE PUSH1 0x40 DUP3 ADD MSTORE ADD SWAP1 JUMP JUMPDEST DUP1 MLOAD DUP3 LT ISZERO PUSH2 0xA55 JUMPI PUSH1 0x20 SWAP2 PUSH1 0x5 SHL ADD ADD SWAP1 JUMP JUMPDEST PUSH2 0x2566 PUSH2 0x170A JUMP JUMPDEST SWAP2 DUP3 MLOAD PUSH1 0x20 DUP1 SWAP5 ADD KECCAK256 PUSH2 0x25A6 PUSH1 0x20 DUP5 ADD MLOAD PUSH2 0x1A6A PUSH1 0x40 SWAP4 PUSH2 0x6CD PUSH1 0x40 DUP9 ADD MLOAD PUSH1 0x60 DUP10 ADD MLOAD PUSH1 0x80 DUP11 ADD MLOAD SWAP1 PUSH1 0x80 DUP12 MLOAD ADD MLOAD SWAP3 PUSH1 0x40 MLOAD SWAP8 DUP9 SWAP7 PUSH1 0x20 DUP9 ADD PUSH2 0x24F6 JUMP JUMPDEST SWAP3 PUSH2 0x25AF PUSH2 0x177F JUMP JUMPDEST SWAP1 PUSH1 0x0 SWAP4 PUSH1 0x0 JUMPDEST DUP3 MLOAD DUP9 DUP2 ADD MLOAD MLOAD DUP3 LT ISZERO PUSH2 0x260A JUMPI PUSH1 0x1 DUP1 PUSH1 0xC0 DUP7 ADD MLOAD DUP5 SHR AND EQ PUSH2 0x25DE JUMPI JUMPDEST POP PUSH1 0x1 ADD PUSH2 0x25B6 JUMP JUMPDEST PUSH2 0x25FD DUP3 SWAP8 SWAP6 PUSH2 0x25F6 PUSH1 0x1 SWAP5 DUP10 PUSH2 0x2603 SWAP6 ADD MLOAD PUSH2 0x254A JUMP JUMPDEST MLOAD SWAP1 PUSH2 0x227A JUMP JUMPDEST SWAP5 PUSH2 0x181B JUMP JUMPDEST SWAP6 SWAP1 PUSH2 0x25D5 JUMP JUMPDEST POP POP SWAP6 POP PUSH2 0x7B9 SWAP5 SWAP3 POP PUSH1 0xA0 SWAP1 PUSH2 0x2631 PUSH2 0x1AD9 SWAP6 PUSH2 0x1AC3 PUSH2 0x1ABD PUSH1 0x60 DUP6 MLOAD ADD PUSH1 0xFF SWAP1 MLOAD AND SWAP1 JUMP JUMPDEST ADD MLOAD PUSH2 0x22FF JUMP JUMPDEST SWAP1 PUSH32 0x30644E72E131A029B85045B68181585D97816A916871CA8D3C208C16D87CFD47 SWAP2 DUP3 SUB SWAP2 DUP3 GT PUSH2 0x1430 JUMPI JUMP JUMPDEST SWAP2 SWAP1 SWAP2 DUP3 DUP2 EQ PUSH2 0x27A9 JUMPI PUSH2 0x267A DUP4 SLOAD PUSH2 0x37E JUMP JUMPDEST PUSH8 0xFFFFFFFFFFFFFFFF DUP2 GT PUSH2 0x41C JUMPI PUSH2 0x269D DUP2 PUSH2 0x2697 DUP5 SLOAD PUSH2 0x37E JUMP JUMPDEST DUP5 PUSH2 0x1544 JUMP JUMPDEST PUSH1 0x0 SWAP4 PUSH1 0x1F DUP3 GT PUSH1 0x1 EQ PUSH2 0x26F7 JUMPI PUSH2 0x164C SWAP3 SWAP4 SWAP5 DUP3 SWAP2 PUSH1 0x0 SWAP3 PUSH2 0x26EC JUMPI POP POP PUSH32 0xFFFFFFFFFFFFFFFFFFFFFFFFFFFFFFFFFFFFFFFFFFFFFFFFFFFFFFFFFFFFFFFF DUP3 PUSH1 0x1 SHL SWAP3 PUSH1 0x3 SHL SHR NOT AND OR SWAP1 JUMP JUMPDEST ADD SLOAD SWAP1 POP CODESIZE DUP1 PUSH2 0x161A JUMP JUMPDEST PUSH2 0x2729 PUSH32 0xFFFFFFFFFFFFFFFFFFFFFFFFFFFFFFFFFFFFFFFFFFFFFFFFFFFFFFFFFFFFFFE0 DUP4 AND SWAP2 PUSH1 0x0 MSTORE PUSH1 0x20 PUSH1 0x0 KECCAK256 SWAP1 JUMP JUMPDEST SWAP5 PUSH2 0x2739 DUP5 PUSH1 0x0 MSTORE PUSH1 0x20 PUSH1 0x0 KECCAK256 SWAP1 JUMP JUMPDEST SWAP2 DUP2 JUMPDEST DUP2 DUP2 LT PUSH2 0x2791 JUMPI POP SWAP6 DUP4 PUSH1 0x1 SWAP6 SWAP7 SWAP8 LT PUSH2 0x275A JUMPI POP POP POP DUP2 SHL ADD SWAP1 SSTORE JUMP JUMPDEST ADD SLOAD PUSH32 0xFFFFFFFFFFFFFFFFFFFFFFFFFFFFFFFFFFFFFFFFFFFFFFFFFFFFFFFFFFFFFFFF PUSH1 0xF8 DUP5 PUSH1 0x3 SHL AND SHR NOT AND SWAP1 SSTORE CODESIZE DUP1 DUP1 PUSH2 0x16AD JUMP JUMPDEST DUP8 DUP4 ADD SLOAD DUP5 SSTORE PUSH1 0x1 SWAP4 DUP5 ADD SWAP4 SWAP1 SWAP3 ADD SWAP2 PUSH1 0x20 ADD PUSH2 0x273C JUMP JUMPDEST POP SWAP1 POP JUMP JUMPDEST PUSH1 0x1 PUSH1 0x0 SWAP2 DUP3 DUP2 SSTORE ADD PUSH2 0x27C1 DUP2 SLOAD PUSH2 0x37E JUMP JUMPDEST DUP1 PUSH2 0x27CB JUMPI POP POP POP JUMP JUMPDEST DUP3 PUSH1 0x1F DUP3 GT PUSH1 0x1 EQ PUSH2 0x27DC JUMPI POP POP SSTORE JUMP JUMPDEST SWAP1 SWAP2 DUP1 DUP3 MSTORE PUSH2 0x27FA PUSH1 0x1F PUSH1 0x20 DUP5 KECCAK256 SWAP5 ADD PUSH1 0x5 SHR DUP5 ADD PUSH1 0x1 DUP6 ADD PUSH2 0x12EA JUMP JUMPDEST SSTORE SSTORE JUMP JUMPDEST SWAP1 PUSH2 0x1705 JUMPI PUSH1 0x1 PUSH1 0x0 SWAP2 DUP3 DUP2 SSTORE ADD PUSH2 0x27C1 DUP2 SLOAD PUSH2 0x37E JUMP JUMPDEST SWAP1 PUSH1 0x1 DUP3 ADD DUP1 SWAP3 GT PUSH2 0x1430 JUMPI JUMP JUMPDEST PUSH1 0x1 ADD SWAP1 DUP2 PUSH1 0x1 GT PUSH2 0x1430 JUMPI JUMP JUMPDEST DUP1 SLOAD SWAP1 PUSH1 0x0 SWAP2 DUP3 DUP3 SSTORE DUP1 PUSH2 0x286D JUMPI JUMPDEST POP DUP1 PUSH2 0x2851 PUSH1 0x1 PUSH1 0x5 SWAP4 ADD PUSH2 0x1301 JUMP JUMPDEST PUSH2 0x285D PUSH1 0x2 DUP3 ADD PUSH2 0x13C7 JUMP JUMPDEST DUP3 PUSH1 0x3 DUP3 ADD SSTORE DUP3 PUSH1 0x4 DUP3 ADD SSTORE ADD SSTORE JUMP JUMPDEST PUSH32 0x7FFFFFFFFFFFFFFFFFFFFFFFFFFFFFFFFFFFFFFFFFFFFFFFFFFFFFFFFFFFFFFF DUP2 AND DUP2 SUB PUSH2 0x1430 JUMPI DUP2 DUP4 MSTORE PUSH1 0x20 DUP4 KECCAK256 SWAP1 PUSH1 0x1 SHL DUP2 ADD SWAP1 JUMPDEST DUP2 DUP2 LT PUSH2 0x28B2 JUMPI POP PUSH2 0x2841 JUMP JUMPDEST DUP1 PUSH2 0x28BE PUSH1 0x2 SWAP3 PUSH2 0x27AE JUMP JUMPDEST ADD PUSH2 0x28A5 JUMP JUMPDEST SWAP1 DUP2 SLOAD SWAP1 PUSH32 0xFFFFFFFFFFFFFFFFFFFFFFFFFFFFFFFFFFFFFFFFFFFFFFFFFFFFFFFFFFFFFFFF SWAP2 DUP3 DUP2 ADD SWAP1 DUP2 GT PUSH2 0x1430 JUMPI DUP1 DUP3 SUB PUSH2 0x2982 JUMPI JUMPDEST POP POP DUP2 SLOAD SWAP1 DUP2 ISZERO PUSH2 0x2953 JUMPI PUSH1 0x4 SWAP2 ADD SWAP2 PUSH2 0x291F PUSH2 0x2919 DUP5 DUP4 PUSH2 0xA39 JUMP JUMPDEST SWAP1 PUSH2 0x27FE JUMP JUMPDEST DUP3 DUP2 SSTORE ADD PUSH2 0x292D DUP2 SLOAD PUSH2 0x2816 JUMP JUMPDEST SWAP1 SSTORE ISZERO PUSH2 0x2937 JUMPI POP JUMP JUMPDEST PUSH2 0x294E PUSH2 0x7B9 SWAP2 PUSH1 0x0 MSTORE PUSH1 0x0 PUSH1 0x20 MSTORE PUSH1 0x40 PUSH1 0x0 KECCAK256 SWAP1 JUMP JUMPDEST PUSH2 0x2832 JUMP JUMPDEST PUSH32 0x4E487B7100000000000000000000000000000000000000000000000000000000 PUSH1 0x0 MSTORE PUSH1 0x31 PUSH1 0x4 MSTORE PUSH1 0x24 PUSH1 0x0 REVERT JUMPDEST PUSH2 0x298F PUSH2 0x2997 SWAP2 DUP6 PUSH2 0xA39 JUMP JUMPDEST POP SWAP2 DUP5 PUSH2 0xA39 JUMP JUMPDEST PUSH2 0x1705 JUMPI DUP1 DUP3 EQ PUSH2 0x28FC JUMPI PUSH1 0x1 DUP1 DUP4 PUSH2 0x29B7 PUSH1 0xFF PUSH2 0x29BF SWAP7 SLOAD AND DUP6 PUSH2 0x150D JUMP JUMPDEST ADD SWAP2 ADD PUSH2 0x2666 JUMP JUMPDEST CODESIZE DUP1 PUSH2 0x28FC JUMP JUMPDEST SWAP1 PUSH2 0x29CF PUSH2 0x1793 JUMP JUMPDEST SWAP2 PUSH32 0x30644E72E131A029B85045B68181585D97816A916871CA8D3C208C16D87CFD47 DUP1 DUP3 LT ISZERO PUSH2 0x2B92 JUMPI DUP1 PUSH1 0x4 DUP2 DUP5 DUP1 MULMOD MULMOD SWAP1 PUSH1 0x1 SWAP2 DUP2 PUSH2 0x2A13 DUP2 DUP4 DUP7 ADDMOD SWAP3 PUSH2 0x2638 JUMP JUMPDEST DUP5 ADDMOD SWAP1 DUP3 DUP1 DUP1 DUP1 DUP1 PUSH25 0x16789AF3A83522EB353C98FC6B36D713D5D8D1CC5DFFFFFFA DUP2 DUP12 DUP2 PUSH2 0x2A44 DUP2 DUP12 DUP14 MULMOD PUSH2 0x35FC JUMP JUMPDEST SWAP11 DUP12 SWAP3 MULMOD MULMOD MULMOD SWAP6 DUP2 DUP1 PUSH2 0x2A56 DUP10 PUSH2 0x2638 JUMP JUMPDEST SWAP9 DUP2 PUSH32 0x183227397098D014DC2822DB40C0AC2ECBC0B548B438E5469E10460B6C3E7EA3 SWAP11 DUP12 ADDMOD SWAP10 ADDMOD SWAP7 DUP1 MULMOD MULMOD DUP1 MULMOD PUSH32 0x10216F7BA065E00DE81AC1E7808072C9DD2B2385CD7B438469602EB24829A9BD MULMOD DUP6 ADDMOD SWAP1 DUP4 PUSH1 0x3 DUP2 DUP6 DUP2 DUP2 DUP1 MULMOD MULMOD ADDMOD SWAP4 DUP6 PUSH2 0x2ABF DUP7 PUSH2 0x2D6C JUMP JUMPDEST PUSH1 0x0 SIGNEXTEND SUB PUSH2 0x2B38 JUMPI POP POP POP DUP6 MSTORE PUSH2 0x2AD5 DUP2 PUSH2 0x2E9A JUMP JUMPDEST SWAP1 PUSH1 0x20 DUP8 ADD MSTORE ISZERO PUSH2 0x2B05 JUMPI POP JUMPDEST PUSH1 0x20 DUP5 ADD SWAP2 DUP3 MLOAD SWAP2 DUP1 DUP4 AND SWAP2 AND SUB PUSH2 0x2AF8 JUMPI POP POP JUMP JUMPDEST PUSH2 0x2B01 SWAP1 PUSH2 0x2638 JUMP JUMPDEST SWAP1 MSTORE JUMP JUMPDEST PUSH1 0x40 MLOAD PUSH32 0x396EC77100000000000000000000000000000000000000000000000000000000 DUP2 MSTORE PUSH1 0x4 DUP2 ADD SWAP2 SWAP1 SWAP2 MSTORE PUSH1 0x24 SWAP1 REVERT JUMPDEST SWAP2 SWAP4 POP SWAP2 POP DUP1 PUSH1 0x3 DUP2 DUP5 DUP2 DUP2 DUP1 MULMOD MULMOD ADDMOD SWAP3 DUP5 PUSH2 0x2B53 DUP6 PUSH2 0x2D6C JUMP JUMPDEST PUSH1 0x0 SIGNEXTEND SUB PUSH2 0x2B79 JUMPI POP POP DUP6 MSTORE PUSH2 0x2B68 DUP2 PUSH2 0x2E9A JUMP JUMPDEST SWAP1 PUSH1 0x20 DUP8 ADD MSTORE ISZERO PUSH2 0x2B05 JUMPI POP PUSH2 0x2AE2 JUMP JUMPDEST DUP2 SWAP4 POP PUSH1 0x3 SWAP3 POP DUP1 DUP9 MSTORE DUP2 DUP2 DUP1 MULMOD MULMOD ADDMOD PUSH2 0x2B68 DUP2 PUSH2 0x2E9A JUMP JUMPDEST PUSH1 0x40 MLOAD PUSH32 0xD53E941500000000000000000000000000000000000000000000000000000000 DUP2 MSTORE PUSH1 0x4 DUP2 ADD DUP4 SWAP1 MSTORE PUSH1 0x24 SWAP1 REVERT JUMPDEST PUSH1 0x40 MLOAD SWAP1 PUSH2 0x2BD1 DUP3 PUSH2 0x400 JUMP JUMPDEST PUSH1 0x88 DUP3 MSTORE PUSH1 0xA0 CALLDATASIZE PUSH1 0x20 DUP5 ADD CALLDATACOPY JUMP JUMPDEST PUSH1 0x40 MLOAD SWAP1 PUSH2 0x2BEC DUP3 PUSH2 0x459 JUMP JUMPDEST PUSH1 0x60 DUP1 DUP4 MSTORE CALLDATASIZE PUSH1 0x20 DUP5 ADD CALLDATACOPY JUMP JUMPDEST PUSH1 0x40 MLOAD SWAP1 PUSH2 0x2C06 DUP3 PUSH2 0x421 JUMP JUMPDEST PUSH1 0xC0 DUP1 DUP4 MSTORE CALLDATASIZE PUSH1 0x20 DUP5 ADD CALLDATACOPY JUMP JUMPDEST PUSH32 0xFF00000000000000000000000000000000000000000000000000000000000000 SWAP3 PUSH2 0x2C5E PUSH1 0x20 DUP1 SWAP4 PUSH2 0x2C50 PUSH1 0x4 SWAP10 SWAP9 SWAP7 DUP3 DUP2 MLOAD SWAP5 DUP6 SWAP3 ADD PUSH2 0x1ED JUMP JUMPDEST ADD SWAP2 DUP3 DUP2 MLOAD SWAP5 DUP6 SWAP3 ADD PUSH2 0x1ED JUMP JUMPDEST ADD PUSH1 0x0 DUP2 MSTORE PUSH32 0x6000000000000000000000000000000000000000000000000000000000000000 PUSH1 0x1 DUP3 ADD MSTORE PUSH1 0x0 PUSH1 0x2 DUP3 ADD MSTORE PUSH2 0x2CA4 DUP3 MLOAD DUP1 SWAP4 PUSH1 0x20 PUSH1 0x3 DUP6 ADD SWAP2 ADD PUSH2 0x1ED JUMP JUMPDEST ADD SWAP2 PUSH1 0xF8 SHL AND PUSH1 0x3 DUP3 ADD MSTORE ADD SWAP1 JUMP JUMPDEST SWAP2 PUSH1 0x22 SWAP4 SWAP3 PUSH32 0xFF00000000000000000000000000000000000000000000000000000000000000 SWAP3 DUP2 MSTORE PUSH32 0x100000000000000000000000000000000000000000000000000000000000000 PUSH1 0x20 DUP3 ADD MSTORE PUSH2 0x2D16 DUP3 MLOAD DUP1 SWAP4 PUSH1 0x20 PUSH1 0x21 DUP6 ADD SWAP2 ADD PUSH2 0x1ED JUMP JUMPDEST ADD SWAP2 PUSH1 0xF8 SHL AND PUSH1 0x21 DUP3 ADD MSTORE ADD SWAP1 JUMP JUMPDEST PUSH1 0x22 SWAP5 SWAP4 SWAP2 DUP2 MSTORE PUSH32 0xFF00000000000000000000000000000000000000000000000000000000000000 DUP1 SWAP4 PUSH1 0xF8 SHL AND PUSH1 0x20 DUP3 ADD MSTORE PUSH2 0x2D16 DUP3 MLOAD DUP1 SWAP4 PUSH1 0x20 PUSH1 0x21 DUP6 ADD SWAP2 ADD PUSH2 0x1ED JUMP JUMPDEST PUSH2 0x2D74 PUSH2 0x2BF9 JUMP JUMPDEST SWAP1 PUSH1 0xC0 PUSH1 0x20 PUSH1 0x0 DUP3 DUP3 DUP7 ADD DUP4 DUP2 MSTORE DUP4 PUSH1 0x40 DUP9 ADD MSTORE DUP4 PUSH1 0x60 DUP9 ADD MSTORE DUP6 PUSH1 0x80 DUP9 ADD MSTORE PUSH32 0x183227397098D014DC2822DB40C0AC2ECBC0B548B438E5469E10460B6C3E7EA3 SWAP7 DUP8 PUSH1 0xA0 DUP3 ADD MSTORE PUSH32 0x30644E72E131A029B85045B68181585D97816A916871CA8D3C208C16D87CFD47 SWAP6 DUP7 SWAP2 ADD MSTORE PUSH1 0x5 GAS STATICCALL SWAP3 PUSH1 0x0 MLOAD SWAP4 ISZERO PUSH2 0x2E5E JUMPI POP POP PUSH32 0x30644E72E131A029B85045B68181585D97816A916871CA8D3C208C16D87CFD46 DUP3 EQ PUSH2 0x2E38 JUMPI DUP2 ISZERO ISZERO DUP1 PUSH2 0x2E2D JUMPI JUMPDEST PUSH2 0x2B05 JUMPI POP PUSH1 0x0 SIGNEXTEND SWAP1 JUMP JUMPDEST POP PUSH1 0x1 DUP3 EQ ISZERO PUSH2 0x2E22 JUMP JUMPDEST POP POP PUSH32 0xFFFFFFFFFFFFFFFFFFFFFFFFFFFFFFFFFFFFFFFFFFFFFFFFFFFFFFFFFFFFFFFF SWAP1 JUMP JUMPDEST PUSH1 0x64 SWAP4 POP PUSH1 0x40 MLOAD SWAP3 PUSH32 0xC6DAF7AB00000000000000000000000000000000000000000000000000000000 DUP5 MSTORE PUSH1 0x4 DUP5 ADD MSTORE PUSH1 0x24 DUP4 ADD MSTORE PUSH1 0x44 DUP3 ADD MSTORE REVERT JUMPDEST SWAP1 PUSH32 0x30644E72E131A029B85045B68181585D97816A916871CA8D3C208C16D87CFD47 DUP1 DUP1 DUP1 DUP1 DUP1 DUP1 DUP1 DUP1 DUP1 DUP12 DUP2 DUP1 DUP1 DUP1 DUP1 DUP1 DUP1 DUP1 DUP1 DUP1 DUP1 DUP1 DUP1 DUP1 DUP1 DUP16 DUP2 DUP1 DUP3 DUP2 DUP1 DUP1 DUP1 DUP1 DUP1 DUP1 DUP1 DUP1 DUP1 DUP1 DUP1 SWAP15 DUP2 DUP1 DUP1 DUP1 DUP1 DUP6 DUP2 DUP1 DUP1 DUP1 DUP1 DUP1 DUP1 DUP8 DUP2 SWAP15 DUP3 DUP1 DUP1 DUP1 DUP1 DUP1 DUP7 DUP2 DUP1 DUP1 DUP1 DUP1 DUP1 DUP1 DUP1 SWAP15 DUP2 DUP1 DUP1 DUP1 DUP5 DUP2 DUP1 DUP1 DUP1 DUP1 DUP1 DUP1 DUP1 DUP1 DUP10 DUP2 SWAP16 DUP3 DUP1 DUP1 DUP1 DUP1 DUP1 DUP1 DUP1 DUP1 DUP1 DUP1 DUP1 DUP1 DUP14 DUP2 SWAP15 DUP3 DUP1 DUP1 DUP1 DUP1 DUP1 DUP1 DUP1 DUP9 DUP2 DUP1 DUP1 DUP1 DUP1 DUP1 SWAP15 DUP2 DUP1 DUP1 DUP1 DUP1 DUP1 DUP1 DUP1 DUP1 DUP10 DUP2 DUP1 DUP1 DUP1 DUP1 SWAP15 DUP2 DUP1 DUP1 DUP1 DUP1 DUP1 DUP1 DUP1 DUP1 DUP1 DUP1 DUP12 DUP2 DUP1 DUP1 SWAP15 DUP2 DUP1 DUP1 DUP1 DUP1 DUP1 DUP1 DUP1 DUP1 DUP1 DUP1 DUP12 DUP2 DUP1 DUP1 SWAP15 DUP2 DUP1 DUP1 DUP1 DUP1 DUP1 DUP1 DUP1 DUP1 DUP1 DUP11 DUP2 DUP1 DUP1 DUP1 SWAP15 DUP2 DUP1 DUP1 DUP1 DUP1 DUP1 DUP1 DUP8 DUP2 DUP1 DUP1 DUP1 DUP1 DUP1 DUP1 SWAP15 DUP2 DUP1 DUP1 DUP1 DUP1 DUP1 DUP7 DUP2 DUP1 DUP1 DUP1 DUP1 DUP1 DUP1 DUP1 SWAP15 DUP2 DUP1 DUP1 DUP1 DUP1 DUP1 DUP7 DUP2 DUP1 DUP1 DUP1 DUP1 DUP1 DUP1 DUP1 SWAP15 DUP2 DUP1 DUP1 DUP1 DUP1 DUP1 DUP7 DUP2 DUP1 DUP1 DUP1 DUP1 DUP1 DUP1 DUP1 SWAP15 DUP2 DUP1 DUP1 DUP1 DUP1 DUP1 DUP1 DUP1 DUP1 DUP1 DUP1 DUP1 DUP13 DUP2 DUP1 SWAP15 DUP2 DUP1 DUP1 DUP1 DUP1 DUP1 DUP1 DUP1 DUP1 DUP1 DUP1 DUP12 DUP2 DUP1 DUP1 SWAP15 DUP2 DUP1 DUP1 DUP1 DUP1 DUP1 DUP1 DUP8 DUP2 DUP1 DUP1 DUP1 DUP1 DUP1 DUP1 SWAP15 DUP2 DUP1 DUP1 DUP1 DUP1 DUP1 DUP1 DUP1 SWAP8 DUP2 DUP1 DUP1 DUP1 DUP1 DUP6 DUP2 DUP1 DUP1 DUP1 DUP1 DUP1 DUP1 DUP1 DUP1 DUP1 DUP1 DUP12 DUP2 DUP2 DUP1 MULMOD MULMOD DUP2 DUP13 DUP2 DUP2 DUP1 MULMOD MULMOD MULMOD DUP2 DUP1 DUP13 DUP2 DUP2 DUP1 MULMOD MULMOD DUP2 DUP14 DUP2 DUP2 DUP1 MULMOD MULMOD MULMOD MULMOD DUP2 DUP1 DUP1 DUP13 DUP2 DUP2 DUP1 MULMOD MULMOD DUP2 DUP14 DUP2 DUP2 DUP1 MULMOD MULMOD MULMOD DUP2 DUP13 DUP2 DUP1 DUP3 DUP2 DUP2 DUP1 MULMOD MULMOD SWAP2 DUP2 DUP2 DUP1 MULMOD MULMOD MULMOD MULMOD MULMOD DUP1 MULMOD DUP1 MULMOD DUP1 MULMOD DUP2 DUP1 DUP8 DUP2 DUP2 DUP1 MULMOD MULMOD SWAP2 DUP1 MULMOD MULMOD DUP1 MULMOD DUP1 MULMOD DUP1 MULMOD MULMOD DUP1 MULMOD DUP1 MULMOD DUP1 MULMOD DUP1 MULMOD MULMOD DUP1 MULMOD DUP1 MULMOD DUP1 MULMOD DUP1 MULMOD DUP2 DUP1 DUP13 DUP2 DUP1 DUP3 DUP1 MULMOD SWAP2 DUP2 DUP1 DUP3 DUP1 MULMOD SWAP2 DUP2 DUP2 DUP1 MULMOD MULMOD MULMOD MULMOD SWAP2 DUP1 MULMOD MULMOD DUP1 MULMOD DUP1 MULMOD DUP1 MULMOD DUP1 MULMOD DUP2 DUP1 DUP1 DUP9 DUP1 MULMOD DUP2 DUP1 DUP11 DUP1 MULMOD DUP2 DUP12 DUP2 DUP2 DUP1 MULMOD MULMOD MULMOD MULMOD SWAP2 DUP1 MULMOD MULMOD DUP1 MULMOD DUP1 MULMOD DUP1 MULMOD MULMOD DUP1 MULMOD DUP1 MULMOD DUP1 MULMOD DUP2 DUP1 DUP1 DUP11 DUP1 MULMOD DUP2 DUP1 DUP13 DUP1 MULMOD DUP2 DUP14 DUP2 DUP2 DUP1 MULMOD MULMOD MULMOD MULMOD SWAP2 DUP1 MULMOD MULMOD DUP1 MULMOD DUP1 MULMOD DUP1 MULMOD DUP1 MULMOD DUP1 MULMOD MULMOD DUP1 MULMOD DUP1 MULMOD DUP1 MULMOD DUP2 DUP1 DUP13 DUP2 DUP2 DUP1 MULMOD MULMOD SWAP2 DUP1 MULMOD MULMOD DUP1 MULMOD DUP1 MULMOD DUP1 MULMOD DUP1 MULMOD DUP1 MULMOD DUP1 MULMOD SWAP3 DUP2 DUP1 DUP1 DUP4 DUP2 DUP2 DUP1 MULMOD MULMOD DUP2 DUP5 DUP2 DUP2 DUP1 MULMOD MULMOD MULMOD SWAP2 DUP2 DUP1 DUP3 DUP1 MULMOD SWAP2 DUP2 DUP1 DUP3 DUP1 MULMOD SWAP2 DUP2 DUP2 DUP1 MULMOD MULMOD MULMOD MULMOD MULMOD SWAP2 DUP1 MULMOD MULMOD DUP1 MULMOD DUP1 MULMOD DUP1 MULMOD DUP1 MULMOD DUP1 MULMOD DUP1 MULMOD DUP1 MULMOD DUP1 MULMOD DUP1 MULMOD DUP2 DUP1 DUP14 DUP2 DUP1 DUP3 DUP1 MULMOD SWAP2 DUP2 DUP2 DUP1 MULMOD MULMOD MULMOD SWAP2 DUP1 MULMOD MULMOD DUP1 MULMOD DUP1 MULMOD DUP1 MULMOD DUP2 DUP1 DUP10 DUP2 DUP2 DUP1 MULMOD MULMOD SWAP2 DUP1 MULMOD MULMOD DUP1 MULMOD DUP1 MULMOD DUP1 MULMOD SWAP3 DUP2 DUP1 DUP3 DUP1 MULMOD SWAP2 DUP2 DUP1 DUP3 DUP1 MULMOD SWAP2 DUP2 DUP2 DUP1 MULMOD MULMOD MULMOD MULMOD SWAP2 DUP1 MULMOD MULMOD DUP1 MULMOD DUP1 MULMOD DUP1 MULMOD DUP1 MULMOD DUP1 MULMOD DUP1 MULMOD DUP2 DUP1 DUP1 DUP12 DUP1 MULMOD DUP2 DUP13 DUP2 DUP2 DUP1 MULMOD MULMOD MULMOD SWAP2 DUP1 MULMOD MULMOD DUP1 MULMOD DUP1 MULMOD DUP1 MULMOD DUP1 MULMOD DUP1 MULMOD DUP1 MULMOD MULMOD DUP1 MULMOD DUP1 MULMOD DUP1 MULMOD DUP1 MULMOD DUP1 MULMOD DUP1 MULMOD DUP2 DUP1 DUP1 DUP1 DUP13 DUP1 MULMOD DUP2 DUP14 DUP2 DUP2 DUP1 MULMOD MULMOD MULMOD DUP2 DUP13 DUP2 DUP1 DUP3 DUP2 DUP2 DUP1 MULMOD MULMOD SWAP2 DUP2 DUP2 DUP1 MULMOD MULMOD MULMOD MULMOD SWAP2 DUP1 MULMOD MULMOD DUP1 MULMOD DUP1 MULMOD DUP1 MULMOD DUP1 MULMOD SWAP3 DUP2 DUP1 DUP1 DUP4 DUP2 DUP2 DUP1 MULMOD MULMOD DUP2 DUP5 DUP2 DUP2 DUP1 MULMOD MULMOD MULMOD SWAP2 DUP2 DUP1 DUP3 DUP1 MULMOD SWAP2 DUP2 DUP1 DUP3 DUP1 MULMOD SWAP2 DUP2 DUP2 DUP1 MULMOD MULMOD MULMOD MULMOD MULMOD SWAP2 DUP1 MULMOD MULMOD DUP1 MULMOD DUP1 MULMOD DUP2 DUP1 DUP14 DUP2 DUP1 DUP3 DUP1 MULMOD SWAP2 DUP2 DUP2 DUP1 MULMOD MULMOD MULMOD SWAP2 DUP1 MULMOD MULMOD DUP1 MULMOD DUP1 MULMOD DUP1 MULMOD DUP1 MULMOD DUP1 MULMOD DUP1 MULMOD DUP1 MULMOD SWAP3 DUP2 DUP2 DUP1 MULMOD MULMOD SWAP2 DUP1 MULMOD MULMOD DUP1 MULMOD DUP1 MULMOD DUP1 MULMOD DUP1 MULMOD DUP1 MULMOD DUP1 MULMOD DUP1 MULMOD DUP1 MULMOD SWAP3 DUP2 DUP1 DUP3 DUP1 MULMOD SWAP2 DUP2 DUP2 DUP1 MULMOD MULMOD MULMOD SWAP2 DUP1 MULMOD MULMOD DUP1 MULMOD DUP1 MULMOD DUP2 DUP1 DUP14 DUP2 DUP2 DUP1 MULMOD MULMOD SWAP2 DUP1 MULMOD MULMOD DUP1 MULMOD DUP1 MULMOD DUP1 MULMOD DUP1 MULMOD DUP1 MULMOD DUP1 MULMOD DUP1 MULMOD SWAP3 DUP2 DUP1 DUP1 DUP4 DUP1 MULMOD DUP2 DUP5 DUP2 DUP2 DUP1 MULMOD MULMOD MULMOD SWAP2 DUP2 DUP1 DUP3 DUP2 DUP2 DUP1 MULMOD MULMOD SWAP2 DUP2 DUP2 DUP1 MULMOD MULMOD MULMOD MULMOD SWAP2 DUP1 MULMOD MULMOD DUP1 MULMOD DUP1 MULMOD DUP1 MULMOD DUP2 DUP1 DUP14 DUP2 DUP1 DUP1 DUP4 DUP1 MULMOD DUP2 DUP5 DUP2 DUP2 DUP1 MULMOD MULMOD MULMOD SWAP2 DUP2 DUP1 DUP3 DUP2 DUP2 DUP1 MULMOD MULMOD SWAP2 DUP2 DUP2 DUP1 MULMOD MULMOD MULMOD MULMOD SWAP2 DUP1 MULMOD MULMOD DUP1 MULMOD DUP1 MULMOD DUP1 MULMOD DUP1 MULMOD DUP2 DUP1 DUP1 DUP10 DUP1 MULMOD DUP2 DUP11 DUP2 DUP2 DUP1 MULMOD MULMOD MULMOD SWAP2 DUP1 MULMOD MULMOD DUP1 MULMOD DUP1 MULMOD SWAP3 DUP2 DUP1 DUP3 DUP1 MULMOD SWAP2 DUP2 DUP1 DUP3 DUP1 MULMOD SWAP2 DUP2 DUP2 DUP1 MULMOD MULMOD MULMOD MULMOD SWAP2 DUP1 MULMOD MULMOD DUP1 MULMOD DUP1 MULMOD DUP1 MULMOD DUP1 MULMOD DUP1 MULMOD DUP1 MULMOD DUP1 MULMOD DUP1 MULMOD DUP1 MULMOD DUP2 DUP1 DUP1 DUP1 DUP12 DUP1 MULMOD DUP2 DUP13 DUP2 DUP2 DUP1 MULMOD MULMOD MULMOD DUP2 DUP1 DUP13 DUP2 DUP2 DUP1 MULMOD MULMOD DUP2 DUP14 DUP2 DUP2 DUP1 MULMOD MULMOD MULMOD MULMOD SWAP2 DUP1 MULMOD MULMOD DUP1 MULMOD DUP1 MULMOD DUP1 MULMOD SWAP3 DUP2 DUP1 DUP3 DUP1 MULMOD SWAP2 DUP2 DUP2 DUP1 MULMOD MULMOD MULMOD SWAP2 DUP1 MULMOD MULMOD DUP1 MULMOD DUP1 MULMOD DUP1 MULMOD DUP1 MULMOD DUP2 DUP1 DUP14 DUP2 DUP1 DUP3 DUP2 DUP2 DUP1 MULMOD MULMOD SWAP2 DUP2 DUP1 DUP3 DUP2 DUP2 DUP1 MULMOD MULMOD SWAP2 DUP2 DUP2 DUP1 MULMOD MULMOD MULMOD MULMOD SWAP2 DUP1 MULMOD MULMOD DUP1 MULMOD DUP1 MULMOD DUP1 MULMOD DUP1 MULMOD DUP1 MULMOD DUP1 MULMOD DUP2 DUP1 DUP1 DUP1 DUP9 DUP1 MULMOD DUP2 DUP10 DUP2 DUP2 DUP1 MULMOD MULMOD MULMOD DUP2 DUP1 DUP10 DUP2 DUP2 DUP1 MULMOD MULMOD DUP2 DUP11 DUP2 DUP2 DUP1 MULMOD MULMOD MULMOD MULMOD SWAP2 DUP1 MULMOD MULMOD DUP1 MULMOD DUP1 MULMOD MULMOD DUP1 MULMOD DUP1 MULMOD DUP1 MULMOD DUP1 MULMOD DUP1 MULMOD DUP1 MULMOD SWAP3 DUP2 DUP1 DUP3 DUP1 MULMOD SWAP2 DUP2 DUP1 DUP3 DUP1 MULMOD SWAP2 DUP2 DUP2 DUP1 MULMOD MULMOD MULMOD MULMOD SWAP2 DUP1 MULMOD MULMOD DUP1 MULMOD DUP1 MULMOD DUP1 MULMOD DUP1 MULMOD DUP1 MULMOD DUP2 DUP1 DUP1 DUP13 DUP1 MULMOD DUP2 DUP14 DUP2 DUP1 DUP3 DUP1 MULMOD SWAP2 DUP2 DUP2 DUP1 MULMOD MULMOD MULMOD MULMOD SWAP2 DUP1 MULMOD MULMOD DUP1 MULMOD DUP1 MULMOD DUP1 MULMOD DUP1 MULMOD DUP2 DUP1 DUP1 DUP8 DUP1 MULMOD DUP2 DUP9 DUP2 DUP2 DUP1 MULMOD MULMOD MULMOD SWAP2 DUP1 MULMOD MULMOD DUP1 MULMOD DUP1 MULMOD MULMOD DUP1 MULMOD DUP1 MULMOD DUP1 MULMOD DUP1 MULMOD DUP1 MULMOD DUP1 MULMOD SWAP3 DUP2 DUP1 DUP1 DUP4 DUP2 DUP2 DUP1 MULMOD MULMOD DUP2 DUP5 DUP2 DUP2 DUP1 MULMOD MULMOD MULMOD SWAP2 DUP2 DUP1 DUP3 DUP1 MULMOD SWAP2 DUP2 DUP1 DUP3 DUP1 MULMOD SWAP2 DUP2 DUP2 DUP1 MULMOD MULMOD MULMOD MULMOD MULMOD SWAP2 DUP1 MULMOD MULMOD DUP1 MULMOD DUP1 MULMOD DUP1 MULMOD DUP1 MULMOD DUP1 MULMOD DUP2 DUP1 DUP1 DUP1 DUP12 DUP2 DUP2 DUP1 MULMOD MULMOD DUP2 DUP13 DUP2 DUP2 DUP1 MULMOD MULMOD MULMOD DUP2 DUP1 DUP13 DUP2 DUP2 DUP1 MULMOD MULMOD DUP2 DUP14 DUP2 DUP1 DUP3 DUP2 DUP2 DUP1 MULMOD MULMOD SWAP2 DUP2 DUP2 DUP1 MULMOD MULMOD MULMOD MULMOD MULMOD SWAP2 DUP1 MULMOD MULMOD DUP1 MULMOD DUP1 MULMOD DUP1 MULMOD DUP1 MULMOD DUP1 MULMOD MULMOD DUP1 MULMOD DUP1 MULMOD DUP1 MULMOD DUP1 MULMOD DUP1 MULMOD DUP1 MULMOD MULMOD DUP1 MULMOD DUP1 MULMOD DUP1 MULMOD DUP1 MULMOD SWAP3 DUP2 DUP2 DUP1 MULMOD MULMOD SWAP2 DUP1 MULMOD MULMOD DUP1 MULMOD DUP1 MULMOD DUP1 MULMOD DUP1 MULMOD DUP1 MULMOD DUP1 MULMOD DUP1 MULMOD DUP1 MULMOD DUP2 DUP1 DUP1 DUP13 DUP2 DUP1 DUP3 DUP1 MULMOD SWAP2 DUP2 DUP2 DUP1 MULMOD MULMOD MULMOD DUP2 DUP14 DUP2 DUP1 DUP3 DUP2 DUP2 DUP1 MULMOD MULMOD SWAP2 DUP2 DUP2 DUP1 MULMOD MULMOD MULMOD MULMOD SWAP2 DUP1 MULMOD MULMOD DUP1 MULMOD DUP1 MULMOD DUP2 DUP1 DUP9 DUP2 DUP2 DUP1 MULMOD MULMOD SWAP2 DUP1 MULMOD MULMOD DUP1 MULMOD DUP1 MULMOD SWAP3 DUP2 DUP2 DUP1 MULMOD MULMOD SWAP2 DUP1 MULMOD MULMOD DUP1 MULMOD DUP1 MULMOD DUP1 MULMOD DUP1 MULMOD DUP1 MULMOD DUP1 MULMOD DUP1 MULMOD DUP2 DUP1 DUP14 DUP2 DUP1 DUP1 DUP4 DUP2 DUP2 DUP1 MULMOD MULMOD DUP2 DUP5 DUP2 DUP2 DUP1 MULMOD MULMOD MULMOD SWAP2 DUP2 DUP1 DUP3 DUP2 DUP2 DUP1 MULMOD MULMOD SWAP2 DUP2 DUP1 DUP3 DUP2 DUP2 DUP1 MULMOD MULMOD SWAP2 DUP2 DUP2 DUP1 MULMOD MULMOD MULMOD MULMOD MULMOD SWAP2 DUP1 MULMOD MULMOD DUP1 MULMOD DUP1 MULMOD DUP1 MULMOD DUP2 DUP1 DUP1 DUP11 DUP2 DUP2 DUP1 MULMOD MULMOD DUP2 DUP1 DUP13 DUP2 DUP2 DUP1 MULMOD MULMOD DUP2 DUP14 DUP2 DUP2 DUP1 MULMOD MULMOD MULMOD MULMOD SWAP2 DUP1 MULMOD MULMOD DUP1 MULMOD DUP1 MULMOD DUP1 MULMOD SWAP3 DUP2 DUP1 DUP1 DUP4 DUP2 DUP2 DUP1 MULMOD MULMOD DUP2 DUP5 DUP2 DUP2 DUP1 MULMOD MULMOD MULMOD SWAP2 DUP2 DUP1 DUP3 DUP2 DUP2 DUP1 MULMOD MULMOD SWAP2 DUP2 DUP1 DUP3 DUP2 DUP2 DUP1 MULMOD MULMOD SWAP2 DUP2 DUP2 DUP1 MULMOD MULMOD MULMOD MULMOD MULMOD SWAP2 DUP1 MULMOD MULMOD DUP1 MULMOD DUP1 MULMOD DUP2 DUP1 DUP1 DUP13 DUP1 MULMOD DUP2 DUP14 DUP2 DUP2 DUP1 MULMOD MULMOD MULMOD SWAP2 DUP1 MULMOD MULMOD DUP1 MULMOD DUP1 MULMOD DUP1 MULMOD DUP1 MULMOD DUP2 DUP1 DUP1 DUP8 DUP2 DUP2 DUP1 MULMOD MULMOD DUP2 DUP1 DUP10 DUP2 DUP2 DUP1 MULMOD MULMOD DUP2 DUP11 DUP2 DUP2 DUP1 MULMOD MULMOD MULMOD MULMOD SWAP2 DUP1 MULMOD MULMOD DUP1 MULMOD SWAP2 PUSH32 0x30644E72E131A029B85045B68181585D97816A916871CA8D3C208C16D87CFD47 DUP4 DUP1 MULMOD EQ SWAP1 JUMP JUMPDEST DUP1 PUSH32 0x30644E72E131A029B85045B68181585D97816A916871CA8D3C208C16D87CFD47 DUP1 DUP1 DUP1 DUP1 DUP1 DUP1 DUP1 DUP9 DUP2 DUP1 DUP1 DUP1 DUP1 SWAP15 DUP2 DUP1 DUP1 DUP1 DUP1 DUP1 DUP1 DUP1 DUP1 DUP10 DUP2 DUP1 DUP1 DUP1 DUP1 SWAP15 DUP2 DUP1 DUP1 DUP1 DUP1 DUP1 DUP1 DUP1 DUP9 DUP2 DUP1 DUP1 DUP1 DUP1 DUP1 SWAP15 DUP2 DUP1 DUP1 DUP1 DUP1 DUP1 DUP1 DUP1 DUP9 DUP2 DUP1 DUP1 DUP1 DUP1 DUP1 SWAP15 DUP2 DUP2 DUP2 DUP1 DUP1 DUP1 DUP1 DUP1 DUP1 DUP8 DUP2 DUP1 DUP1 DUP1 DUP1 SWAP15 DUP2 DUP1 DUP1 DUP1 DUP1 DUP1 DUP1 DUP8 DUP2 DUP1 DUP1 DUP1 DUP1 DUP1 DUP1 SWAP15 DUP2 DUP1 DUP3 DUP2 DUP1 DUP1 DUP1 DUP1 DUP1 DUP1 DUP1 DUP1 DUP1 DUP1 DUP1 SWAP15 DUP2 DUP1 DUP3 DUP2 DUP1 DUP1 DUP1 DUP1 DUP1 DUP1 DUP1 DUP1 DUP10 DUP2 DUP1 SWAP15 DUP2 DUP1 DUP1 DUP1 DUP1 DUP1 DUP1 DUP1 DUP1 DUP1 DUP1 DUP1 DUP1 DUP14 DUP2 SWAP15 DUP3 DUP1 DUP1 DUP1 DUP1 DUP1 DUP1 DUP1 DUP1 DUP1 DUP1 DUP1 DUP1 DUP1 DUP1 SWAP15 DUP1 DUP3 DUP1 DUP1 DUP1 DUP1 DUP1 DUP1 DUP1 DUP1 DUP1 DUP1 DUP1 DUP1 DUP1 SWAP15 DUP1 DUP3 DUP1 DUP1 DUP1 DUP1 DUP1 DUP1 DUP1 DUP1 DUP1 DUP1 DUP1 DUP1 DUP14 DUP2 SWAP16 DUP3 DUP1 DUP1 DUP1 DUP1 DUP1 DUP1 DUP1 DUP1 DUP1 DUP11 DUP2 DUP1 DUP1 DUP1 SWAP15 DUP2 DUP1 DUP1 DUP1 DUP1 DUP1 DUP1 DUP1 DUP1 DUP10 DUP2 DUP1 DUP1 DUP1 DUP1 SWAP15 DUP2 DUP1 DUP1 DUP1 DUP1 DUP1 DUP1 DUP1 DUP1 DUP10 DUP2 DUP1 DUP1 DUP1 DUP1 SWAP15 DUP2 DUP1 DUP1 DUP1 DUP1 DUP1 DUP1 DUP1 DUP1 DUP10 DUP2 DUP1 DUP1 DUP1 DUP1 SWAP15 DUP2 DUP1 DUP1 DUP1 DUP1 DUP1 DUP1 DUP1 DUP1 DUP1 DUP1 DUP1 DUP1 DUP1 DUP1 SWAP15 DUP1 DUP3 DUP1 DUP1 DUP1 DUP1 DUP1 DUP1 DUP1 DUP1 DUP1 DUP1 DUP1 DUP1 DUP14 DUP2 SWAP16 DUP3 DUP1 DUP1 DUP1 DUP1 DUP1 DUP1 DUP1 DUP1 DUP10 DUP2 DUP1 DUP1 DUP1 DUP1 SWAP15 DUP2 DUP1 DUP1 DUP1 DUP1 DUP1 DUP1 DUP1 DUP1 DUP1 SWAP10 DUP2 DUP1 DUP1 DUP1 DUP1 DUP6 DUP2 DUP1 DUP1 DUP1 DUP1 DUP1 DUP1 DUP1 DUP1 DUP1 DUP1 DUP12 DUP2 DUP2 DUP1 MULMOD MULMOD DUP2 DUP13 DUP2 DUP2 DUP1 MULMOD MULMOD MULMOD DUP2 DUP1 DUP13 DUP2 DUP2 DUP1 MULMOD MULMOD DUP2 DUP14 DUP2 DUP2 DUP1 MULMOD MULMOD MULMOD MULMOD DUP2 DUP1 DUP1 DUP13 DUP2 DUP2 DUP1 MULMOD MULMOD DUP2 DUP14 DUP2 DUP2 DUP1 MULMOD MULMOD MULMOD DUP2 DUP13 DUP2 DUP1 DUP3 DUP2 DUP2 DUP1 MULMOD MULMOD SWAP2 DUP2 DUP2 DUP1 MULMOD MULMOD MULMOD MULMOD MULMOD DUP1 MULMOD DUP1 MULMOD DUP1 MULMOD DUP2 DUP1 DUP8 DUP2 DUP2 DUP1 MULMOD MULMOD SWAP2 DUP1 MULMOD MULMOD DUP1 MULMOD DUP1 MULMOD DUP1 MULMOD MULMOD DUP1 MULMOD DUP1 MULMOD DUP1 MULMOD DUP1 MULMOD MULMOD DUP1 MULMOD DUP1 MULMOD DUP1 MULMOD DUP1 MULMOD DUP2 DUP1 DUP13 DUP2 DUP1 DUP3 DUP1 MULMOD SWAP2 DUP2 DUP1 DUP3 DUP1 MULMOD SWAP2 DUP2 DUP2 DUP1 MULMOD MULMOD MULMOD MULMOD SWAP2 DUP1 MULMOD MULMOD DUP1 MULMOD DUP1 MULMOD DUP1 MULMOD DUP1 MULMOD DUP2 DUP1 DUP1 DUP9 DUP1 MULMOD DUP2 DUP1 DUP11 DUP1 MULMOD DUP2 DUP12 DUP2 DUP2 DUP1 MULMOD MULMOD MULMOD MULMOD SWAP2 DUP1 MULMOD MULMOD DUP1 MULMOD DUP1 MULMOD DUP1 MULMOD MULMOD DUP1 MULMOD DUP1 MULMOD DUP1 MULMOD DUP2 DUP1 DUP1 DUP11 DUP1 MULMOD DUP2 DUP1 DUP13 DUP1 MULMOD DUP2 DUP14 DUP2 DUP2 DUP1 MULMOD MULMOD MULMOD MULMOD SWAP2 DUP1 MULMOD MULMOD DUP1 MULMOD DUP1 MULMOD DUP1 MULMOD DUP1 MULMOD DUP1 MULMOD MULMOD DUP1 MULMOD DUP1 MULMOD DUP1 MULMOD DUP2 DUP1 DUP13 DUP2 DUP2 DUP1 MULMOD MULMOD SWAP2 DUP1 MULMOD MULMOD DUP1 MULMOD DUP1 MULMOD DUP1 MULMOD DUP1 MULMOD DUP1 MULMOD DUP1 MULMOD SWAP3 DUP2 DUP1 DUP1 DUP4 DUP2 DUP2 DUP1 MULMOD MULMOD DUP2 DUP5 DUP2 DUP2 DUP1 MULMOD MULMOD MULMOD SWAP2 DUP2 DUP1 DUP3 DUP1 MULMOD SWAP2 DUP2 DUP1 DUP3 DUP1 MULMOD SWAP2 DUP2 DUP2 DUP1 MULMOD MULMOD MULMOD MULMOD MULMOD SWAP2 DUP1 MULMOD MULMOD DUP1 MULMOD DUP1 MULMOD DUP1 MULMOD DUP1 MULMOD DUP1 MULMOD DUP1 MULMOD DUP1 MULMOD DUP1 MULMOD DUP1 MULMOD DUP2 DUP1 DUP14 DUP2 DUP1 DUP3 DUP1 MULMOD SWAP2 DUP2 DUP2 DUP1 MULMOD MULMOD MULMOD SWAP2 DUP1 MULMOD MULMOD DUP1 MULMOD DUP1 MULMOD DUP1 MULMOD DUP2 DUP1 DUP10 DUP2 DUP2 DUP1 MULMOD MULMOD SWAP2 DUP1 MULMOD MULMOD DUP1 MULMOD DUP1 MULMOD DUP1 MULMOD SWAP3 DUP2 DUP1 DUP3 DUP1 MULMOD SWAP2 DUP2 DUP1 DUP3 DUP1 MULMOD SWAP2 DUP2 DUP2 DUP1 MULMOD MULMOD MULMOD MULMOD SWAP2 DUP1 MULMOD MULMOD DUP1 MULMOD DUP1 MULMOD DUP1 MULMOD DUP1 MULMOD DUP1 MULMOD DUP1 MULMOD DUP2 DUP1 DUP1 DUP12 DUP1 MULMOD DUP2 DUP13 DUP2 DUP2 DUP1 MULMOD MULMOD MULMOD SWAP2 DUP1 MULMOD MULMOD DUP1 MULMOD DUP1 MULMOD DUP1 MULMOD DUP1 MULMOD DUP1 MULMOD DUP1 MULMOD MULMOD DUP1 MULMOD DUP1 MULMOD DUP1 MULMOD DUP1 MULMOD DUP1 MULMOD DUP1 MULMOD DUP2 DUP1 DUP1 DUP1 DUP13 DUP1 MULMOD DUP2 DUP14 DUP2 DUP2 DUP1 MULMOD MULMOD MULMOD DUP2 DUP13 DUP2 DUP1 DUP3 DUP2 DUP2 DUP1 MULMOD MULMOD SWAP2 DUP2 DUP2 DUP1 MULMOD MULMOD MULMOD MULMOD SWAP2 DUP1 MULMOD MULMOD DUP1 MULMOD DUP1 MULMOD DUP1 MULMOD DUP1 MULMOD SWAP3 DUP2 DUP1 DUP1 DUP4 DUP2 DUP2 DUP1 MULMOD MULMOD DUP2 DUP5 DUP2 DUP2 DUP1 MULMOD MULMOD MULMOD SWAP2 DUP2 DUP1 DUP3 DUP1 MULMOD SWAP2 DUP2 DUP1 DUP3 DUP1 MULMOD SWAP2 DUP2 DUP2 DUP1 MULMOD MULMOD MULMOD MULMOD MULMOD SWAP2 DUP1 MULMOD MULMOD DUP1 MULMOD DUP1 MULMOD DUP2 DUP1 DUP14 DUP2 DUP1 DUP3 DUP1 MULMOD SWAP2 DUP2 DUP2 DUP1 MULMOD MULMOD MULMOD SWAP2 DUP1 MULMOD MULMOD DUP1 MULMOD DUP1 MULMOD DUP1 MULMOD DUP1 MULMOD DUP1 MULMOD DUP1 MULMOD DUP1 MULMOD SWAP3 DUP2 DUP2 DUP1 MULMOD MULMOD SWAP2 DUP1 MULMOD MULMOD DUP1 MULMOD DUP1 MULMOD DUP1 MULMOD DUP1 MULMOD DUP1 MULMOD DUP1 MULMOD DUP1 MULMOD DUP1 MULMOD SWAP3 DUP2 DUP1 DUP3 DUP1 MULMOD SWAP2 DUP2 DUP2 DUP1 MULMOD MULMOD MULMOD SWAP2 DUP1 MULMOD MULMOD DUP1 MULMOD DUP1 MULMOD DUP2 DUP1 DUP14 DUP2 DUP2 DUP1 MULMOD MULMOD SWAP2 DUP1 MULMOD MULMOD DUP1 MULMOD DUP1 MULMOD DUP1 MULMOD DUP1 MULMOD DUP1 MULMOD DUP1 MULMOD DUP1 MULMOD SWAP3 DUP2 DUP1 DUP1 DUP4 DUP1 MULMOD DUP2 DUP5 DUP2 DUP2 DUP1 MULMOD MULMOD MULMOD SWAP2 DUP2 DUP1 DUP3 DUP2 DUP2 DUP1 MULMOD MULMOD SWAP2 DUP2 DUP2 DUP1 MULMOD MULMOD MULMOD MULMOD SWAP2 DUP1 MULMOD MULMOD DUP1 MULMOD DUP1 MULMOD DUP1 MULMOD DUP2 DUP1 DUP14 DUP2 DUP1 DUP1 DUP4 DUP1 MULMOD DUP2 DUP5 DUP2 DUP2 DUP1 MULMOD MULMOD MULMOD SWAP2 DUP2 DUP1 DUP3 DUP2 DUP2 DUP1 MULMOD MULMOD SWAP2 DUP2 DUP2 DUP1 MULMOD MULMOD MULMOD MULMOD SWAP2 DUP1 MULMOD MULMOD DUP1 MULMOD DUP1 MULMOD DUP1 MULMOD DUP1 MULMOD DUP2 DUP1 DUP1 DUP10 DUP1 MULMOD DUP2 DUP11 DUP2 DUP2 DUP1 MULMOD MULMOD MULMOD SWAP2 DUP1 MULMOD MULMOD DUP1 MULMOD DUP1 MULMOD SWAP3 DUP2 DUP1 DUP3 DUP1 MULMOD SWAP2 DUP2 DUP1 DUP3 DUP1 MULMOD SWAP2 DUP2 DUP2 DUP1 MULMOD MULMOD MULMOD MULMOD SWAP2 DUP1 MULMOD MULMOD DUP1 MULMOD DUP1 MULMOD DUP1 MULMOD DUP1 MULMOD DUP1 MULMOD DUP1 MULMOD DUP1 MULMOD DUP1 MULMOD DUP1 MULMOD DUP2 DUP1 DUP1 DUP1 DUP12 DUP1 MULMOD DUP2 DUP13 DUP2 DUP2 DUP1 MULMOD MULMOD MULMOD DUP2 DUP1 DUP13 DUP2 DUP2 DUP1 MULMOD MULMOD DUP2 DUP14 DUP2 DUP2 DUP1 MULMOD MULMOD MULMOD MULMOD SWAP2 DUP1 MULMOD MULMOD DUP1 MULMOD DUP1 MULMOD DUP1 MULMOD SWAP3 DUP2 DUP1 DUP3 DUP1 MULMOD SWAP2 DUP2 DUP2 DUP1 MULMOD MULMOD MULMOD SWAP2 DUP1 MULMOD MULMOD DUP1 MULMOD DUP1 MULMOD DUP1 MULMOD DUP1 MULMOD DUP2 DUP1 DUP14 DUP2 DUP1 DUP3 DUP2 DUP2 DUP1 MULMOD MULMOD SWAP2 DUP2 DUP1 DUP3 DUP2 DUP2 DUP1 MULMOD MULMOD SWAP2 DUP2 DUP2 DUP1 MULMOD MULMOD MULMOD MULMOD SWAP2 DUP1 MULMOD MULMOD DUP1 MULMOD DUP1 MULMOD DUP1 MULMOD DUP1 MULMOD DUP1 MULMOD DUP1 MULMOD DUP2 DUP1 DUP1 DUP1 DUP9 DUP1 MULMOD DUP2 DUP10 DUP2 DUP2 DUP1 MULMOD MULMOD MULMOD DUP2 DUP1 DUP10 DUP2 DUP2 DUP1 MULMOD MULMOD DUP2 DUP11 DUP2 DUP2 DUP1 MULMOD MULMOD MULMOD MULMOD SWAP2 DUP1 MULMOD MULMOD DUP1 MULMOD DUP1 MULMOD MULMOD DUP1 MULMOD DUP1 MULMOD DUP1 MULMOD DUP1 MULMOD DUP1 MULMOD DUP1 MULMOD SWAP3 DUP2 DUP1 DUP3 DUP1 MULMOD SWAP2 DUP2 DUP1 DUP3 DUP1 MULMOD SWAP2 DUP2 DUP2 DUP1 MULMOD MULMOD MULMOD MULMOD SWAP2 DUP1 MULMOD MULMOD DUP1 MULMOD DUP1 MULMOD DUP1 MULMOD DUP1 MULMOD DUP1 MULMOD DUP2 DUP1 DUP1 DUP13 DUP1 MULMOD DUP2 DUP14 DUP2 DUP1 DUP3 DUP1 MULMOD SWAP2 DUP2 DUP2 DUP1 MULMOD MULMOD MULMOD MULMOD SWAP2 DUP1 MULMOD MULMOD DUP1 MULMOD DUP1 MULMOD DUP1 MULMOD DUP1 MULMOD DUP2 DUP1 DUP1 DUP8 DUP1 MULMOD DUP2 DUP9 DUP2 DUP2 DUP1 MULMOD MULMOD MULMOD SWAP2 DUP1 MULMOD MULMOD DUP1 MULMOD DUP1 MULMOD MULMOD DUP1 MULMOD DUP1 MULMOD DUP1 MULMOD DUP1 MULMOD DUP1 MULMOD DUP1 MULMOD SWAP3 DUP2 DUP1 DUP1 DUP4 DUP2 DUP2 DUP1 MULMOD MULMOD DUP2 DUP5 DUP2 DUP2 DUP1 MULMOD MULMOD MULMOD SWAP2 DUP2 DUP1 DUP3 DUP1 MULMOD SWAP2 DUP2 DUP1 DUP3 DUP1 MULMOD SWAP2 DUP2 DUP2 DUP1 MULMOD MULMOD MULMOD MULMOD MULMOD SWAP2 DUP1 MULMOD MULMOD DUP1 MULMOD DUP1 MULMOD DUP1 MULMOD DUP1 MULMOD DUP1 MULMOD DUP2 DUP1 DUP1 DUP1 DUP12 DUP2 DUP2 DUP1 MULMOD MULMOD DUP2 DUP13 DUP2 DUP2 DUP1 MULMOD MULMOD MULMOD DUP2 DUP1 DUP13 DUP2 DUP2 DUP1 MULMOD MULMOD DUP2 DUP14 DUP2 DUP1 DUP3 DUP2 DUP2 DUP1 MULMOD MULMOD SWAP2 DUP2 DUP2 DUP1 MULMOD MULMOD MULMOD MULMOD MULMOD SWAP2 DUP1 MULMOD MULMOD DUP1 MULMOD DUP1 MULMOD DUP1 MULMOD DUP1 MULMOD DUP1 MULMOD MULMOD DUP1 MULMOD DUP1 MULMOD DUP1 MULMOD DUP1 MULMOD DUP1 MULMOD DUP1 MULMOD MULMOD DUP1 MULMOD DUP1 MULMOD DUP1 MULMOD DUP1 MULMOD SWAP3 DUP2 DUP2 DUP1 MULMOD MULMOD SWAP2 DUP1 MULMOD MULMOD DUP1 MULMOD DUP1 MULMOD DUP1 MULMOD DUP1 MULMOD DUP1 MULMOD DUP1 MULMOD DUP1 MULMOD DUP1 MULMOD DUP2 DUP1 DUP1 DUP1 DUP11 DUP1 MULMOD DUP2 DUP12 DUP2 DUP2 DUP1 MULMOD MULMOD MULMOD DUP2 DUP1 DUP12 DUP2 DUP2 DUP1 MULMOD MULMOD DUP2 DUP13 DUP2 DUP2 DUP1 MULMOD MULMOD MULMOD MULMOD SWAP2 DUP1 MULMOD MULMOD DUP1 MULMOD DUP1 MULMOD SWAP3 DUP2 DUP2 DUP1 MULMOD MULMOD SWAP2 DUP1 MULMOD MULMOD DUP1 MULMOD DUP1 MULMOD DUP2 DUP1 DUP14 DUP2 DUP2 DUP1 MULMOD MULMOD SWAP2 DUP1 MULMOD MULMOD DUP1 MULMOD DUP1 MULMOD DUP1 MULMOD DUP1 MULMOD DUP1 MULMOD DUP1 MULMOD DUP1 MULMOD SWAP3 DUP2 DUP1 DUP1 DUP4 DUP2 DUP2 DUP1 MULMOD MULMOD DUP2 DUP5 DUP2 DUP2 DUP1 MULMOD MULMOD MULMOD SWAP2 DUP2 DUP1 DUP3 DUP2 DUP2 DUP1 MULMOD MULMOD SWAP2 DUP2 DUP1 DUP3 DUP2 DUP2 DUP1 MULMOD MULMOD SWAP2 DUP2 DUP2 DUP1 MULMOD MULMOD MULMOD MULMOD MULMOD SWAP2 DUP1 MULMOD MULMOD DUP1 MULMOD DUP1 MULMOD DUP1 MULMOD DUP2 DUP1 DUP14 DUP2 DUP1 DUP3 DUP2 DUP2 DUP1 MULMOD MULMOD SWAP2 DUP2 DUP1 DUP3 DUP2 DUP2 DUP1 MULMOD MULMOD SWAP2 DUP2 DUP2 DUP1 MULMOD MULMOD MULMOD MULMOD SWAP2 DUP1 MULMOD MULMOD DUP1 MULMOD DUP1 MULMOD DUP1 MULMOD DUP2 DUP1 DUP1 DUP1 DUP12 DUP2 DUP2 DUP1 MULMOD MULMOD DUP2 DUP13 DUP2 DUP2 DUP1 MULMOD MULMOD MULMOD DUP2 DUP1 DUP13 DUP2 DUP2 DUP1 MULMOD MULMOD DUP2 DUP14 DUP2 DUP1 DUP3 DUP2 DUP2 DUP1 MULMOD MULMOD SWAP2 DUP2 DUP2 DUP1 MULMOD MULMOD MULMOD MULMOD MULMOD SWAP2 DUP1 MULMOD MULMOD DUP1 MULMOD DUP1 MULMOD DUP2 DUP1 DUP1 DUP8 DUP1 MULMOD DUP2 DUP9 DUP2 DUP2 DUP1 MULMOD MULMOD MULMOD SWAP2 DUP1 MULMOD MULMOD DUP1 MULMOD DUP1 MULMOD MULMOD DUP1 MULMOD DUP1 MULMOD DUP1 MULMOD DUP1 MULMOD DUP1 MULMOD SWAP3 DUP2 DUP1 DUP3 DUP1 MULMOD SWAP2 DUP2 DUP2 DUP1 MULMOD MULMOD MULMOD SWAP2 DUP1 MULMOD MULMOD SWAP1 JUMP INVALID LOG2 PUSH5 0x6970667358 0x22 SLT KECCAK256 0xF 0xC3 CHAINID PUSH5 0xFA3B82CBCD SWAP13 EXTCODEHASH PREVRANDAO 0xAE PUSH26 0x15233C1A3F8EA19BFD5428648282E4C621DC64736F6C63430008 XOR STOP CALLER "},"methodIdentifiers":{"evaluateAccess(string,string,string)":"8f43cb06","getPolicy(string,string)":"2e06aac6","registerPolicy((string,string,string,(string,string)[],address[],uint256[4][],uint8,uint256[2],uint256))":"a38ccea0","removePolicy((string,string,string,(string,string)[],uint256[2],uint256))":"fd989187","systemThreatLevel()":"aa10d77e"}}}}}