{"contracts/main/AgentGovernanceContract.sol":{"AgentGovernanceContract":{"abi":[{"inputs":[{"internalType":"uint256[4]","name":"input","type":"uint256[4]"}],"name":"BNAddFailed","type":"error"},{"inputs":[{"internalType":"bytes","name":"dst","type":"bytes"}],"name":"InvalidDSTLength","type":"error"},{"inputs":[{"internalType":"uint256","name":"x","type":"uint256"}],"name":"InvalidFieldElement","type":"error"},{"inputs":[{"internalType":"uint256","name":"noSqrt","type":"uint256"}],"name":"MapToPointFailed","type":"error"},{"inputs":[{"internalType":"uint256","name":"base","type":"uint256"},{"internalType":"uint256","name":"exponent","type":"uint256"},{"internalType":"uint256","name":"modulus","type":"uint256"}],"name":"ModExpFailed","type":"error"},{"anonymous":false,"inputs":[{"indexed":true,"internalType":"string","name":"DID","type":"string"},{"indexed":true,"internalType":"bytes32","name":"documentHash","type":"bytes32"}],"name":"DIDCreated","type":"event"},{"anonymous":false,"inputs":[{"indexed":true,"internalType":"string","name":"DID","type":"string"},{"indexed":true,"internalType":"bytes32","name":"newDocumentHash","type":"bytes32"}],"name":"DIDDocumentUpdated","type":"event"},{"anonymous":false,"inputs":[{"indexed":true,"internalType":"string","name":"DID","type":"string"}],"name":"DIDRevoked","type":"event"},{"inputs":[],"name":"DID_PREFIX","outputs":[{"internalType":"string","name":"","type":"string"}],"stateMutability":"view","type":"function"},{"inputs":[],"name":"DST_REVOKE","outputs":[{"internalType":"bytes32","name":"","type":"bytes32"}],"stateMutability":"view","type":"function"},{"inputs":[],"name":"DST_UPDATE","outputs":[{"internalType":"bytes32","name":"","type":"bytes32"}],"stateMutability":"view","type":"function"},{"inputs":[],"name":"EXPECTED_DID_LENGTH","outputs":[{"internalType":"uint256","name":"","type":"uint256"}],"stateMutability":"view","type":"function"},{"inputs":[],"name":"PREFIX_LENGTH","outputs":[{"internalType":"uint256","name":"","type":"uint256"}],"stateMutability":"view","type":"function"},{"inputs":[{"internalType":"string","name":"","type":"string"}],"name":"nonces","outputs":[{"internalType":"uint256","name":"","type":"uint256"}],"stateMutability":"view","type":"function"},{"inputs":[{"internalType":"string","name":"DID","type":"string"},{"internalType":"bytes32","name":"documentHash","type":"bytes32"},{"internalType":"string","name":"cid","type":"string"},{"internalType":"uint8","name":"_requiredSigsForCapUpdate","type":"uint8"}],"name":"register","outputs":[{"internalType":"bool","name":"success","type":"bool"}],"stateMutability":"nonpayable","type":"function"},{"inputs":[{"internalType":"string","name":"DID","type":"string"}],"name":"resolve","outputs":[{"internalType":"bytes32","name":"documentHash","type":"bytes32"},{"internalType":"string","name":"cid","type":"string"}],"stateMutability":"view","type":"function"},{"inputs":[{"internalType":"string","name":"DID","type":"string"},{"internalType":"uint256[2]","name":"aggSig","type":"uint256[2]"},{"internalType":"uint8","name":"pksMask","type":"uint8"}],"name":"revoke","outputs":[{"internalType":"bool","name":"success","type":"bool"}],"stateMutability":"nonpayable","type":"function"},{"inputs":[{"internalType":"string","name":"DID","type":"string"},{"internalType":"bytes32","name":"newDocumentHash","type":"bytes32"},{"internalType":"uint256[2]","name":"aggSig","type":"uint256[2]"},{"internalType":"uint8","name":"pksMask","type":"uint8"}],"name":"update","outputs":[{"internalType":"bool","name":"success","type":"bool"}],"stateMutability":"nonpayable","type":"function"}],"evm":{"bytecode":{"linkReferences":{},"object":"608034620001ab5760a08101906001600160401b03821181831017620001955760409182526200002e620001b0565b907960a51abaa3f2764436fd165edbc5741ce715f2f37489d1da8b3380835279b1b1a5191b8c7c2f06f77fd65a84918fc334f328cc2c31a00087602093818582015279ad88a2a26025738de27aadf7736b8c6060b63ec5e4992cb5cad68087830152793838b27da13d61bfa3b0a38a7ee573b88bf71c95011d67d3308b9260609284848201528652620000c0620001b0565b85815281888201528289820152848482015287870152620000e0620001b0565b8581528188820152828982015284848201528887015262000100620001b0565b8581528188820152828982015284848201528387015262000120620001b0565b94855286850152868401528201526080820152906000916000905b60058210620001535784516138029081620001d18239f35b82815160005b6004811062000177575050600490600192019401910190926200013b565b81516001600160d01b03168782015585929091019060010162000159565b634e487b7160e01b600052604160045260246000fd5b600080fd5b60405190608082016001600160401b03811183821017620001955760405256fe6080604052600436101561001257600080fd5b6000803560e01c9081632418833f146100ba57508063356b9454146100b5578063461a4478146100b057806346f3c1ed146100ab5780634c0d9781146100a657806388b57e95146100a15780639d9dcabc1461009c578063b24fce8814610097578063c76cd403146100925763e714023d1461008d57600080fd5b610acf565b610a95565b610a24565b610881565b6107f6565b6107a8565b6105b4565b6103b4565b6100f6565b346100f357807ffffffffffffffffffffffffffffffffffffffffffffffffffffffffffffffffc3601126100f357600a60805260206080f35b80fd5b3461014f5760007ffffffffffffffffffffffffffffffffffffffffffffffffffffffffffffffffc36011261014f5760206040517f283b208957fe4fa6f6029daabcfeddad5c9b5d110a38b1816631f64e563f85848152f35b600080fd5b7f4e487b7100000000000000000000000000000000000000000000000000000000600052604160045260246000fd5b60e0810190811067ffffffffffffffff82111761019f57604052565b610154565b6040810190811067ffffffffffffffff82111761019f57604052565b6080810190811067ffffffffffffffff82111761019f57604052565b60c0810190811067ffffffffffffffff82111761019f57604052565b90601f7fffffffffffffffffffffffffffffffffffffffffffffffffffffffffffffffe0910116810190811067ffffffffffffffff82111761019f57604052565b6040519061024682610183565b565b60405190610246826101a4565b60405190610180820182811067ffffffffffffffff82111761019f57604052565b81601f8201121561014f5780359067ffffffffffffffff821161019f57604051926102c960207fffffffffffffffffffffffffffffffffffffffffffffffffffffffffffffffe0601f86011601856101f8565b8284526020838301011161014f57816000926020809301838601378301015290565b60207ffffffffffffffffffffffffffffffffffffffffffffffffffffffffffffffffc82011261014f576004359067ffffffffffffffff821161014f5761033491600401610276565b90565b60005b83811061034a5750506000910152565b818101518382015260200161033a565b907fffffffffffffffffffffffffffffffffffffffffffffffffffffffffffffffe0601f60209361039681518092818752878088019101610337565b0116010190565b60409061033493928152816020820152019061035a565b3461014f576103c2366102eb565b6103d760ff6103d0836109b2565b5416610b28565b60ff60046103e4836109d8565b0154169060028210156104e1576103fe6104039215610b97565b6109d8565b6005600282015491019060405191826000825461041f81610bfc565b908184526020946001916001811690816000146104a05750600114610461575b50505061044e925003836101f8565b61045d6040519283928361039d565b0390f35b600090815285812095935091905b81831061048857505061044e935082010138808061043f565b8554888401850152948501948794509183019161046f565b91505061044e9593507fffffffffffffffffffffffffffffffffffffffffffffffffffffffffffffff0091501682840152151560051b82010138808061043f565b7f4e487b7100000000000000000000000000000000000000000000000000000000600052602160045260246000fd5b806043121561014f5760405190610526826101a4565b8160649160641161014f576024905b8282106105425750505090565b8135815260209182019101610535565b806063121561014f5760405190610568826101a4565b8160849160841161014f576044905b8282106105845750505090565b8135815260209182019101610577565b6064359060ff8216820361014f57565b6084359060ff8216820361014f57565b3461014f5760807ffffffffffffffffffffffffffffffffffffffffffffffffffffffffffffffffc36011261014f5760043567ffffffffffffffff811161014f57610603903690600401610276565b61060c36610510565b90610615610594565b61062360ff6103d0846109b2565b60ff6004610630846109d8565b0154169260028410156104e15761064a61073d9415610b97565b6106f46106ee610659856109d8565b936106e960018601946106c86106b987546106ac8b61068060405193849260208401610c4f565b037fffffffffffffffffffffffffffffffffffffffffffffffffffffffffffffffe081018352826101f8565b6106b4610ce7565b6114d4565b936106c2610d20565b5061179f565b6106e26106dc60068b969496015460ff1690565b60ff1690565b1115610d81565b611880565b50610de6565b6107266004830160017fffffffffffffffffffffffffffffffffffffffffffffffffffffffffffffff00825416179055565b6107308154610ea8565b9055600342910155610ed5565b604051907f8d5d0f9333534da02ef5f341fe3f88a64f03b3d4ca4aef5bfdb6e3d5cdece101600080a260018152602090f35b6040519061077c826101a4565b600d82527f6469643a626c6f636b6132613a000000000000000000000000000000000000006020830152565b3461014f5760007ffffffffffffffffffffffffffffffffffffffffffffffffffffffffffffffffc36011261014f5761045d6107e261076f565b60405191829160208352602083019061035a565b3461014f5760807ffffffffffffffffffffffffffffffffffffffffffffffffffffffffffffffffc36011261014f5767ffffffffffffffff60043581811161014f57610846903690600401610276565b9060443590811161014f57602091610865610877923690600401610276565b61086d610594565b916024359061132b565b6040519015158152f35b3461014f5760a07ffffffffffffffffffffffffffffffffffffffffffffffffffffffffffffffffc36011261014f5760043567ffffffffffffffff811161014f576108d0903690600401610276565b602435906108dd36610552565b906108e66105a4565b916108f560ff6103d0846109b2565b60ff6004610902846109d8565b0154169260028410156104e15761091c61097f9415610b97565b610730610928846109d8565b926109746106ee60018601946106e98654946109606106b98d6109588d6106808b60405194859360208501610c9c565b6106b461143e565b6106e26106dc60068d969496015460ff1690565b866002850155610ea8565b90604051917ffbccb49fcba0db7422ed2970ae7e545a0133b0d0343c5cd282b5a877ef95c487600080a360018152602090f35b60206109cb918160405193828580945193849201610337565b8101601581520301902090565b60206109f1918160405193828580945193849201610337565b8101601481520301902090565b6020610a17918160405193828580945193849201610337565b8101601681520301902090565b3461014f576020610a3c610a37366102eb565b6109fe565b54604051908152f35b7f4e487b7100000000000000000000000000000000000000000000000000000000600052601160045260246000fd5b9060018201809211610a8257565b610a45565b6001019081600111610a8257565b3461014f5760007ffffffffffffffffffffffffffffffffffffffffffffffffffffffffffffffffc36011261014f57602060405160148152f35b3461014f5760007ffffffffffffffffffffffffffffffffffffffffffffffffffffffffffffffffc36011261014f5760206040517f6688844a85e8870f0474f90aa6d22975f9e2e6d3485e6abb706be219ab7cd70b8152f35b15610b2f57565b60646040517f08c379a000000000000000000000000000000000000000000000000000000000815260206004820152601760248201527f4147433a20444944206e6f7420726567697374657265640000000000000000006044820152fd5b600211156104e157565b15610b9e57565b60646040517f08c379a000000000000000000000000000000000000000000000000000000000815260206004820152601360248201527f4147433a20444944206e6f7420616374697665000000000000000000000000006044820152fd5b90600182811c92168015610c45575b6020831014610c1657565b7f4e487b7100000000000000000000000000000000000000000000000000000000600052602260045260246000fd5b91607f1691610c0b565b90606092917f6688844a85e8870f0474f90aa6d22975f9e2e6d3485e6abb706be219ab7cd70b8152610c8a8251809360208085019101610337565b01906000602083015260408201520190565b90606093917f283b208957fe4fa6f6029daabcfeddad5c9b5d110a38b1816631f64e563f85848152610cd78251809360208085019101610337565b0191602083015260408201520190565b60405190610cf4826101a4565b600a82527f4147432d7265766f6b65000000000000000000000000000000000000000000006020830152565b60405190610d2d826101c0565b6080368337565b60405190610d41826101a4565b6040368337565b604051906020820182811067ffffffffffffffff82111761019f576040526020368337565b60405190610d7a826101dc565b60c0368337565b15610d8857565b60646040517f08c379a000000000000000000000000000000000000000000000000000000000815260206004820152601760248201527f4147433a206e6f7420656e6f756768207369676e6572730000000000000000006044820152fd5b15610ded57565b60846040517f08c379a000000000000000000000000000000000000000000000000000000000815260206004820152602c60248201527f4147433a20616767726567617465207369676e6174757265207665726966696360448201527f6174696f6e206661696c656400000000000000000000000000000000000000006064820152fd5b9060028110156104e15760ff7fffffffffffffffffffffffffffffffffffffffffffffffffffffffffffffff008354169116179055565b7fffffffffffffffffffffffffffffffffffffffffffffffffffffffffffffffff8114610a825760010190565b610eed90602060405192828480945193849201610337565b810103902090565b15610efc57565b60646040517f08c379a000000000000000000000000000000000000000000000000000000000815260206004820152601b60248201527f4147433a2044494420616c7265616479207265676973746572656400000000006044820152fd5b15610f6157565b60846040517f08c379a000000000000000000000000000000000000000000000000000000000815260206004820152602960248201527f4147433a20726571756972656453696773466f72436170557064617465206d7560448201527f7374206265203e203000000000000000000000000000000000000000000000006064820152fd5b90601f8111610ff357505050565b6000916000526020600020906020601f850160051c83019410611031575b601f0160051c01915b82811061102657505050565b81815560010161101a565b9092508290611011565b919091825167ffffffffffffffff811161019f576110638161105d8454610bfc565b84610fe5565b602080601f83116001146110c3575081906110b49394956000926110b8575b50507fffffffffffffffffffffffffffffffffffffffffffffffffffffffffffffffff8260011b9260031b1c19161790565b9055565b015190503880611082565b907fffffffffffffffffffffffffffffffffffffffffffffffffffffffffffffffe08316956110f785600052602060002090565b926000905b8882106111525750508360019596971061111b575b505050811b019055565b01517fffffffffffffffffffffffffffffffffffffffffffffffffffffffffffffffff60f88460031b161c19169055388080611111565b806001859682949686015181550195019301906110fc565b919091825192835167ffffffffffffffff811161019f576111958161118f8554610bfc565b85610fe5565b602080601f831160011461127357506006926111f0836112449460c094610246999a6000926110b85750507fffffffffffffffffffffffffffffffffffffffffffffffffffffffffffffffff8260011b9260031b1c19161790565b85555b60208101516001860155604081015160028601556060810151600386015561122b608082015161122281610b8d565b60048701610e71565b61123c60a08201516005870161103b565b015160ff1690565b91019060ff167fffffffffffffffffffffffffffffffffffffffffffffffffffffffffffffff00825416179055565b907fffffffffffffffffffffffffffffffffffffffffffffffffffffffffffffffe08316966112a786600052602060002090565b926000905b8982106113135750508360c09360069693600193611244976102469b9c106112dc575b505050811b0185556111f3565b01517fffffffffffffffffffffffffffffffffffffffffffffffffffffffffffffffff60f88460031b161c191690553880806112cf565b806001859682949686015181550195019301906112ac565b909261133d611339836119b3565b1590565b6114355761140b926113af6113bd9261136a61136561133961135e886109b2565b5460ff1690565b610ef5565b61137860ff82161515610f5a565b611380610239565b92858452600160208501528760408501524260608501526000608085015260a084015260c083019060ff169052565b6113b8836109d8565b61116a565b6113f46113c9826109b2565b60017fffffffffffffffffffffffffffffffffffffffffffffffffffffffffffffff00825416179055565b611406611400826109fe565b60019055565b610ed5565b7f64b17621560acdf371cc9090466395c4edacecc3acc35947973db19d2fb2cf14600080a3600190565b50505050600090565b6040519061144b826101a4565b600a82527f4147432d757064617465000000000000000000000000000000000000000000006020830152565b7f4e487b7100000000000000000000000000000000000000000000000000000000600052603260045260246000fd5b6080810192916000915b600483106114bd57505050565b6001908251815260208091019201920191906114b0565b906114dd610d34565b5060408080516114ec816101a4565b36903782519260ff84116117435760ff611504611f72565b9416938251908161151d87856020988985019586611fc1565b039161154f7fffffffffffffffffffffffffffffffffffffffffffffffffffffffffffffffe0938481018352826101f8565b51902091835185810190611575816115698a868987612061565b038581018352826101f8565b51902095611581611f8d565b936001926001945b600386106116ce575050505050506116308185606061163794015277ffffffffffffffffffffffffffffffffffffffffffffffff80601883015116907f30644e72e131a029b85045b68181585d97816a916871ca8d3c208c16d87cfd478092826048838260308901511681780100000000000000000000000000000000000000000000000080960908960151169289611620610248565b878152019a169209088652611bf7565b9351611bf7565b91611640610d20565b928451845281850151828501528051838501520151606083015261168c818460808560067ffffffffffffffffffffffffffffffffffffffffffffffffffffffffffffff8305a01fa1590565b61169557505090565b6116ca9250519182917f128e3f08000000000000000000000000000000000000000000000000000000008352600483016114a6565b0390fd5b909192938383879b8b7fffffffffffffffffffffffffffffffffffffffffffffffffffffffffffffffff8a61172c8e6117208d8a9f6106dc61170f91610a87565b9251988993898986019c188c6120d3565b038981018752866101f8565b0160051b8b01015251902099019493929190611589565b6116ca91519182917f26e4f9ba00000000000000000000000000000000000000000000000000000000835260048301611f61565b60ff1660ff8114610a825760010190565b600581101561179a5760021b90600090565b611477565b6117a7610d20565b6000805b60ff8082166005811015611876576001901b8516166117d3575b6117ce90611777565b6117ab565b9061186e6117ce9184516020860180519061185f60408901938885519460608c0195865161180084611788565b50549161182661181c61181287611788565b5060010190600090565b90549060031b1c90565b9361185961181c61184f61184961181c61183f8b611788565b5060020190600090565b98611788565b5060030190600090565b96611e2b565b90929591945252528552610a74565b9190506117c5565b5050509291509190565b604060209283610180969581611894610255565b95805187520151828601527f198e9393920d483a7260bfb731fb5d25f1aa493335a9e71297e485b7aef312c2848601527f1800deef121f1e76426a00665e5c4479674322d4f75edadd46debd5cd992f6ed60608601527f275dc4a288d1afb3cbb1ac09187524c7db36395df7be3b99e673b13a075a65ec60808601527f1d9befcd05a5323e6da4d435f3b617cdb3af83285c2df711ef39c01571827f9d60a0860152805160c0860152015160e084015283810151610100840152805161012084015260608101516101408401520151610160820152611971610d48565b93849160087ffffffffffffffffffffffffffffffffffffffffffffffffffffffffffffff8305a01fa915115159190565b90815181101561179a570160200190565b6119bb61076f565b6014825103611ad65760005b600a8110611b74575050600a5b8151811015611b6d57611a38611a136119ed83856119a2565b517fff000000000000000000000000000000000000000000000000000000000000001690565b7fff000000000000000000000000000000000000000000000000000000000000001690565b7f30000000000000000000000000000000000000000000000000000000000000008110159081611b42575b7f610000000000000000000000000000000000000000000000000000000000000081101580611b18575b7f41000000000000000000000000000000000000000000000000000000000000008210159182611aed575b508215611ae5575b508115611add575b5015611ad6576001016119d4565b5050600090565b905038611ac8565b915038611ac0565b7f46000000000000000000000000000000000000000000000000000000000000001015915038611ab8565b507f6600000000000000000000000000000000000000000000000000000000000000811115611a8d565b7f39000000000000000000000000000000000000000000000000000000000000008111159150611a63565b5050600190565b611b816119ed82856119a2565b7fff00000000000000000000000000000000000000000000000000000000000000611bb2611a136119ed85876119a2565b911603611bc1576001016119c7565b505050600090565b907f30644e72e131a029b85045b68181585d97816a916871ca8d3c208c16d87cfd47918203918211610a8257565b90611c00610d34565b917f30644e72e131a029b85045b68181585d97816a916871ca8d3c208c16d87cfd4780821015611dc35780600481848009099060019181611c448183860892611bc9565b840890828080808078016789af3a83522eb353c98fc6b36d713d5d8d1cc5dffffffa818b81611c75818b8d09612d17565b9a8b92090909958180611c8789611bc9565b98817f183227397098d014dc2822db40c0ac2ecbc0b548b438e5469e10460b6c3e7ea39a8b0899089680090980097f10216f7ba065e00de81ac1e7808072c9dd2b2385cd7b438469602eb24829a9bd0985089083600381858181800909089385611cf08661211a565b60000b03611d69575050508552611d0681612248565b90602087015215611d3657505b6020840191825191808316911603611d29575050565b611d3290611bc9565b9052565b6040517f396ec7710000000000000000000000000000000000000000000000000000000081526004810191909152602490fd5b919350915080600381848181800909089284611d848561211a565b60000b03611daa5750508552611d9981612248565b90602087015215611d365750611d13565b81935060039250808852818180090908611d9981612248565b6040517fd53e941500000000000000000000000000000000000000000000000000000000815260048101839052602490fd5b15611dfc57565b7f4e487b7100000000000000000000000000000000000000000000000000000000600052600160045260246000fd5b979497969596801580611f59575b80611f51575b80611f49575b15611e9f5750505050801580611e97575b80611e8f575b80611e87575b15611e6e575b93929190565b611e82611e7d848688856129aa565b611df5565b611e68565b508215611e62565b508315611e5c565b508415611e56565b849895989796971580611f41575b80611f39575b80611f31575b611f195791611f1197959391611eee979593611eda611e7d858585856129aa565b611ee9611e7d898989896129aa565b612a56565b8051906020810151604082015160608301519160a0608085015194015194612c3f565b929391929091565b935096935094509250611e68611e7d848688856129aa565b508715611eb9565b508615611eb3565b508515611ead565b508315611e45565b508215611e3f565b508115611e39565b90602061033492818152019061035a565b60405190611f7f826101dc565b6088825260a0366020840137565b60405190611f9a826101c0565b6060808352366020840137565b60405190611fb482610183565b60c0808352366020840137565b7fff000000000000000000000000000000000000000000000000000000000000009261200c60208093611ffe600499989682815194859201610337565b019182815194859201610337565b01600081527f6000000000000000000000000000000000000000000000000000000000000000600182015260006002820152612052825180936020600385019101610337565b019160f81b1660038201520190565b91602293927fff000000000000000000000000000000000000000000000000000000000000009281527f010000000000000000000000000000000000000000000000000000000000000060208201526120c4825180936020602185019101610337565b019160f81b1660218201520190565b602294939181527fff00000000000000000000000000000000000000000000000000000000000000809360f81b1660208201526120c4825180936020602185019101610337565b612122611fa7565b9060c060206000828286018381528360408801528360608801528560808801527f183227397098d014dc2822db40c0ac2ecbc0b548b438e5469e10460b6c3e7ea3968760a08201527f30644e72e131a029b85045b68181585d97816a916871ca8d3c208c16d87cfd47958691015260055afa92600051931561220c5750507f30644e72e131a029b85045b68181585d97816a916871ca8d3c208c16d87cfd4682146121e657811515806121db575b611d36575060000b90565b5060018214156121d0565b50507fffffffffffffffffffffffffffffffffffffffffffffffffffffffffffffffff90565b60649350604051927fc6daf7ab000000000000000000000000000000000000000000000000000000008452600484015260248301526044820152fd5b907f30644e72e131a029b85045b68181585d97816a916871ca8d3c208c16d87cfd478080808080808080808b8180808080808080808080808080808f8180828180808080808080808080809e8180808080858180808080808087819e8280808080808681808080808080809e818080808481808080808080808089819f828080808080808080808080808d819e8280808080808080888180808080809e8180808080808080808981808080809e81808080808080808080808b8180809e81808080808080808080808b8180809e818080808080808080808a818080809e8180808080808087818080808080809e8180808080808681808080808080809e8180808080808681808080808080809e8180808080808681808080808080809e8180808080808080808080808c81809e81808080808080808080808b8180809e8180808080808087818080808080809e81808080808080809781808080808581808080808080808080808b8181800909818c81818009090981808c8181800909818d818180090909098180808c8181800909818d818180090909818c818082818180090991818180090909090980098009800981808781818009099180090980098009800909800980098009800909800980098009800981808c8180828009918180828009918181800909090991800909800980098009800981808088800981808a8009818b8181800909090991800909800980098009098009800980098180808a800981808c8009818d8181800909090991800909800980098009800980090980098009800981808c8181800909918009098009800980098009800980099281808083818180090981848181800909099181808280099181808280099181818009090909099180090980098009800980098009800980098009800981808d818082800991818180090909918009098009800980098180898181800909918009098009800980099281808280099181808280099181818009090909918009098009800980098009800980098180808b8009818c8181800909099180090980098009800980098009800909800980098009800980098009818080808c8009818d818180090909818c81808281818009099181818009090909918009098009800980098009928180808381818009098184818180090909918180828009918180828009918181800909090909918009098009800981808d818082800991818180090909918009098009800980098009800980098009928181800909918009098009800980098009800980098009800992818082800991818180090909918009098009800981808d818180090991800909800980098009800980098009800992818080838009818481818009090991818082818180090991818180090909099180090980098009800981808d81808083800981848181800909099181808281818009099181818009090909918009098009800980098009818080898009818a8181800909099180090980098009928180828009918180828009918181800909090991800909800980098009800980098009800980098009818080808b8009818c81818009090981808c8181800909818d81818009090909918009098009800980099281808280099181818009090991800909800980098009800981808d81808281818009099181808281818009099181818009090909918009098009800980098009800980098180808088800981898181800909098180898181800909818a81818009090909918009098009800909800980098009800980098009928180828009918180828009918181800909090991800909800980098009800980098180808c8009818d8180828009918181800909090991800909800980098009800981808087800981888181800909099180090980098009098009800980098009800980099281808083818180090981848181800909099181808280099181808280099181818009090909099180090980098009800980098009818080808b8181800909818c81818009090981808c8181800909818d818082818180090991818180090909090991800909800980098009800980090980098009800980098009800909800980098009800992818180090991800909800980098009800980098009800980098180808c818082800991818180090909818d8180828181800909918181800909090991800909800980098180888181800909918009098009800992818180090991800909800980098009800980098009800981808d8180808381818009098184818180090909918180828181800909918180828181800909918181800909090909918009098009800980098180808a818180090981808c8181800909818d818180090909099180090980098009800992818080838181800909818481818009090991818082818180090991818082818180090991818180090909090991800909800980098180808c8009818d8181800909099180090980098009800980098180808781818009098180898181800909818a81818009090909918009098009917f30644e72e131a029b85045b68181585d97816a916871ca8d3c208c16d87cfd478380091490565b6129f26129dd7f054fb1321278f57b36922d1d65a0ed99e1cca4ac0e95daea09b8a53ab3dbc462956129fa958181613498565b9390926129ec82828181613498565b90613498565b9290916134de565b91907f30644e72e131a029b85045b68181585d97816a916871ca8d3c208c16d87cfd4791829108159182612a2d57505090565b7f2fcd3ac2a640a154eb23960892a85a68f031ca0c8344b23a577dcf1052b9e775919250081590565b949796979591929395612a72612a6a610d6d565b998a94613450565b979096612a98612a828888613450565b9490936060880195865260408801948552613450565b979096612aa58684613450565b608060a08a9993990199828b5201978089528a149081612c35575b50612bbb57505050505050505060408601928351946060880195865191612ae6936134de565b608088019283519460a08a0195865191612aff936134de565b612b0b81838181613498565b838388959395518a51612b1f918589613498565b93612b2b939197613498565b989097612b388a8a613450565b909252528b8789612b4b888a8181613498565b612b5491613450565b612b5e93916134de565b612b68848861379b565b91612b72936134de565b818196612b7f9396613498565b9091602001528c52612b90936134de565b91612b9a93613498565b9190928451865191612bab93613498565b91612bb5936134de565b90925252565b9397509397509397869b9a9b9991959951149081612c2a575b50612c0b575050505050505050600060a0820152600060808201526000606082015260016040820152600060208201526001815290565b612c1493613520565b9092969397919498525252526020830152815290565b905086511438612bd4565b90508a1438612ac0565b95939195949092947f30644e72e131a029b85045b68181585d97816a916871ca8d3c208c16d87cfd479260405160208152602080820152602060408201528480838009818680090860608201527f30644e72e131a029b85045b68181585d97816a916871ca8d3c208c16d87cfd4560808201528460a082015260208160c08160057ffffffffffffffffffffffffffffffffffffffffffffffffffffffffffffff8305a01fa9051901561014f57848181930993098303928311610a82578282612d1395612d0b93613498565b959096613498565b9091565b807f30644e72e131a029b85045b68181585d97816a916871ca8d3c208c16d87cfd47808080808080808881808080809e8180808080808080808981808080809e8180808080808080888180808080809e8180808080808080888180808080809e8181818080808080808781808080809e8180808080808087818080808080809e8180828180808080808080808080809e8180828180808080808080808981809e818080808080808080808080808d819e8280808080808080808080808080809e8082808080808080808080808080809e80828080808080808080808080808d819f828080808080808080808a818080809e8180808080808080808981808080809e8180808080808080808981808080809e8180808080808080808981808080809e8180808080808080808080808080809e80828080808080808080808080808d819f8280808080808080808981808080809e818080808080808080809981808080808581808080808080808080808b8181800909818c81818009090981808c8181800909818d818180090909098180808c8181800909818d818180090909818c818082818180090991818180090909090980098009800981808781818009099180090980098009800909800980098009800909800980098009800981808c8180828009918180828009918181800909090991800909800980098009800981808088800981808a8009818b8181800909090991800909800980098009098009800980098180808a800981808c8009818d8181800909090991800909800980098009800980090980098009800981808c8181800909918009098009800980098009800980099281808083818180090981848181800909099181808280099181808280099181818009090909099180090980098009800980098009800980098009800981808d818082800991818180090909918009098009800980098180898181800909918009098009800980099281808280099181808280099181818009090909918009098009800980098009800980098180808b8009818c8181800909099180090980098009800980098009800909800980098009800980098009818080808c8009818d818180090909818c81808281818009099181818009090909918009098009800980098009928180808381818009098184818180090909918180828009918180828009918181800909090909918009098009800981808d818082800991818180090909918009098009800980098009800980098009928181800909918009098009800980098009800980098009800992818082800991818180090909918009098009800981808d818180090991800909800980098009800980098009800992818080838009818481818009090991818082818180090991818180090909099180090980098009800981808d81808083800981848181800909099181808281818009099181818009090909918009098009800980098009818080898009818a8181800909099180090980098009928180828009918180828009918181800909090991800909800980098009800980098009800980098009818080808b8009818c81818009090981808c8181800909818d81818009090909918009098009800980099281808280099181818009090991800909800980098009800981808d81808281818009099181808281818009099181818009090909918009098009800980098009800980098180808088800981898181800909098180898181800909818a81818009090909918009098009800909800980098009800980098009928180828009918180828009918181800909090991800909800980098009800980098180808c8009818d8180828009918181800909090991800909800980098009800981808087800981888181800909099180090980098009098009800980098009800980099281808083818180090981848181800909099181808280099181808280099181818009090909099180090980098009800980098009818080808b8181800909818c81818009090981808c8181800909818d81808281818009099181818009090909099180090980098009800980098009098009800980098009800980090980098009800980099281818009099180090980098009800980098009800980098009818080808a8009818b81818009090981808b8181800909818c818180090909099180090980098009928181800909918009098009800981808d81818009099180090980098009800980098009800980099281808083818180090981848181800909099181808281818009099181808281818009099181818009090909099180090980098009800981808d8180828181800909918180828181800909918181800909090991800909800980098009818080808b8181800909818c81818009090981808c8181800909818d81808281818009099181818009090909099180090980098009818080878009818881818009090991800909800980090980098009800980098009928180828009918181800909099180090990565b9190917f30644e72e131a029b85045b68181585d97816a916871ca8d3c208c16d87cfd479081600085098203828111610a825760008360018180948183880908970992090890565b909392917f30644e72e131a029b85045b68181585d97816a916871ca8d3c208c16d87cfd4792838187098403848111610a82578285809492818094880908970992090890565b939290937f30644e72e131a029b85045b68181585d97816a916871ca8d3c208c16d87cfd4792830391838311610a8257830391838311610a8257839108930890565b92938291857f30644e72e131a029b85045b68181585d97816a916871ca8d3c208c16d87cfd476003830982877f30644e72e131a029b85045b68181585d97816a916871ca8d3c208c16d87cfd47600382099261357b93613498565b90966135878387613450565b613597819b839984988496613498565b6135a19391613498565b9390976135b0848b8181613498565b7f30644e72e131a029b85045b68181585d97816a916871ca8d3c208c16d87cfd4760088809907f30644e72e131a029b85045b68181585d97816a916871ca8d3c208c16d87cfd4760088d0990613605936134de565b99819b8b979296613618878b8181613498565b99819f7f30644e72e131a029b85045b68181585d97816a916871ca8d3c208c16d87cfd4760048d979498099260047f30644e72e131a029b85045b68181585d97816a916871ca8d3c208c16d87cfd47910992613673936134de565b61367d9391613498565b9390947f30644e72e131a029b85045b68181585d97816a916871ca8d3c208c16d87cfd4760088209917f30644e72e131a029b85045b68181585d97816a916871ca8d3c208c16d87cfd4760088209926136d593613498565b6136df9391613498565b916136e9936134de565b96909760027f30644e72e131a029b85045b68181585d97816a916871ca8d3c208c16d87cfd4791099260027f30644e72e131a029b85045b68181585d97816a916871ca8d3c208c16d87cfd4791099261374193613498565b96909761374d93613498565b60087f30644e72e131a029b85045b68181585d97816a916871ca8d3c208c16d87cfd4791099060087f30644e72e131a029b85045b68181585d97816a916871ca8d3c208c16d87cfd47910991565b600280919392937f30644e72e131a029b85045b68181585d97816a916871ca8d3c208c16d87cfd479283910993099056fea26469706673582212202ddc88dc687dfc6128422793574bcf128cd16a26b40522770723d9991dd70ac264736f6c63430008180033","opcodes":"PUSH1 0x80 CALLVALUE PUSH3 0x1AB JUMPI PUSH1 0xA0 DUP2 ADD SWAP1 PUSH1 0x1 PUSH1 0x1 PUSH1 0x40 SHL SUB DUP3 GT DUP2 DUP4 LT OR PUSH3 0x195 JUMPI PUSH1 0x40 SWAP2 DUP3 MSTORE PUSH3 0x2E PUSH3 0x1B0 JUMP JUMPDEST SWAP1 PUSH26 0x60A51ABAA3F2764436FD165EDBC5741CE715F2F37489D1DA8B33 DUP1 DUP4 MSTORE PUSH26 0xB1B1A5191B8C7C2F06F77FD65A84918FC334F328CC2C31A00087 PUSH1 0x20 SWAP4 DUP2 DUP6 DUP3 ADD MSTORE PUSH26 0xAD88A2A26025738DE27AADF7736B8C6060B63EC5E4992CB5CAD6 DUP1 DUP8 DUP4 ADD MSTORE PUSH26 0x3838B27DA13D61BFA3B0A38A7EE573B88BF71C95011D67D3308B SWAP3 PUSH1 0x60 SWAP3 DUP5 DUP5 DUP3 ADD MSTORE DUP7 MSTORE PUSH3 0xC0 PUSH3 0x1B0 JUMP JUMPDEST DUP6 DUP2 MSTORE DUP2 DUP9 DUP3 ADD MSTORE DUP3 DUP10 DUP3 ADD MSTORE DUP5 DUP5 DUP3 ADD MSTORE DUP8 DUP8 ADD MSTORE PUSH3 0xE0 PUSH3 0x1B0 JUMP JUMPDEST DUP6 DUP2 MSTORE DUP2 DUP9 DUP3 ADD MSTORE DUP3 DUP10 DUP3 ADD MSTORE DUP5 DUP5 DUP3 ADD MSTORE DUP9 DUP8 ADD MSTORE PUSH3 0x100 PUSH3 0x1B0 JUMP JUMPDEST DUP6 DUP2 MSTORE DUP2 DUP9 DUP3 ADD MSTORE DUP3 DUP10 DUP3 ADD MSTORE DUP5 DUP5 DUP3 ADD MSTORE DUP4 DUP8 ADD MSTORE PUSH3 0x120 PUSH3 0x1B0 JUMP JUMPDEST SWAP5 DUP6 MSTORE DUP7 DUP6 ADD MSTORE DUP7 DUP5 ADD MSTORE DUP3 ADD MSTORE PUSH1 0x80 DUP3 ADD MSTORE SWAP1 PUSH1 0x0 SWAP2 PUSH1 0x0 SWAP1 JUMPDEST PUSH1 0x5 DUP3 LT PUSH3 0x153 JUMPI DUP5 MLOAD PUSH2 0x3802 SWAP1 DUP2 PUSH3 0x1D1 DUP3 CODECOPY RETURN JUMPDEST DUP3 DUP2 MLOAD PUSH1 0x0 JUMPDEST PUSH1 0x4 DUP2 LT PUSH3 0x177 JUMPI POP POP PUSH1 0x4 SWAP1 PUSH1 0x1 SWAP3 ADD SWAP5 ADD SWAP2 ADD SWAP1 SWAP3 PUSH3 0x13B JUMP JUMPDEST DUP2 MLOAD PUSH1 0x1 PUSH1 0x1 PUSH1 0xD0 SHL SUB AND DUP8 DUP3 ADD SSTORE DUP6 SWAP3 SWAP1 SWAP2 ADD SWAP1 PUSH1 0x1 ADD PUSH3 0x159 JUMP JUMPDEST PUSH4 0x4E487B71 PUSH1 0xE0 SHL PUSH1 0x0 MSTORE PUSH1 0x41 PUSH1 0x4 MSTORE PUSH1 0x24 PUSH1 0x0 REVERT JUMPDEST PUSH1 0x0 DUP1 REVERT JUMPDEST PUSH1 0x40 MLOAD SWAP1 PUSH1 0x80 DUP3 ADD PUSH1 0x1 PUSH1 0x1 PUSH1 0x40 SHL SUB DUP2 GT DUP4 DUP3 LT OR PUSH3 0x195 JUMPI PUSH1 0x40 MSTORE JUMP INVALID PUSH1 0x80 PUSH1 0x40 MSTORE PUSH1 0x4 CALLDATASIZE LT ISZERO PUSH2 0x12 JUMPI PUSH1 0x0 DUP1 REVERT JUMPDEST PUSH1 0x0 DUP1 CALLDATALOAD PUSH1 0xE0 SHR SWAP1 DUP2 PUSH4 0x2418833F EQ PUSH2 0xBA JUMPI POP DUP1 PUSH4 0x356B9454 EQ PUSH2 0xB5 JUMPI DUP1 PUSH4 0x461A4478 EQ PUSH2 0xB0 JUMPI DUP1 PUSH4 0x46F3C1ED EQ PUSH2 0xAB JUMPI DUP1 PUSH4 0x4C0D9781 EQ PUSH2 0xA6 JUMPI DUP1 PUSH4 0x88B57E95 EQ PUSH2 0xA1 JUMPI DUP1 PUSH4 0x9D9DCABC EQ PUSH2 0x9C JUMPI DUP1 PUSH4 0xB24FCE88 EQ PUSH2 0x97 JUMPI DUP1 PUSH4 0xC76CD403 EQ PUSH2 0x92 JUMPI PUSH4 0xE714023D EQ PUSH2 0x8D JUMPI PUSH1 0x0 DUP1 REVERT JUMPDEST PUSH2 0xACF JUMP JUMPDEST PUSH2 0xA95 JUMP JUMPDEST PUSH2 0xA24 JUMP JUMPDEST PUSH2 0x881 JUMP JUMPDEST PUSH2 0x7F6 JUMP JUMPDEST PUSH2 0x7A8 JUMP JUMPDEST PUSH2 0x5B4 JUMP JUMPDEST PUSH2 0x3B4 JUMP JUMPDEST PUSH2 0xF6 JUMP JUMPDEST CALLVALUE PUSH2 0xF3 JUMPI DUP1 PUSH32 0xFFFFFFFFFFFFFFFFFFFFFFFFFFFFFFFFFFFFFFFFFFFFFFFFFFFFFFFFFFFFFFFC CALLDATASIZE ADD SLT PUSH2 0xF3 JUMPI PUSH1 0xA PUSH1 0x80 MSTORE PUSH1 0x20 PUSH1 0x80 RETURN JUMPDEST DUP1 REVERT JUMPDEST CALLVALUE PUSH2 0x14F JUMPI PUSH1 0x0 PUSH32 0xFFFFFFFFFFFFFFFFFFFFFFFFFFFFFFFFFFFFFFFFFFFFFFFFFFFFFFFFFFFFFFFC CALLDATASIZE ADD SLT PUSH2 0x14F JUMPI PUSH1 0x20 PUSH1 0x40 MLOAD PUSH32 0x283B208957FE4FA6F6029DAABCFEDDAD5C9B5D110A38B1816631F64E563F8584 DUP2 MSTORE RETURN JUMPDEST PUSH1 0x0 DUP1 REVERT JUMPDEST PUSH32 0x4E487B7100000000000000000000000000000000000000000000000000000000 PUSH1 0x0 MSTORE PUSH1 0x41 PUSH1 0x4 MSTORE PUSH1 0x24 PUSH1 0x0 REVERT JUMPDEST PUSH1 0xE0 DUP2 ADD SWAP1 DUP2 LT PUSH8 0xFFFFFFFFFFFFFFFF DUP3 GT OR PUSH2 0x19F JUMPI PUSH1 0x40 MSTORE JUMP JUMPDEST PUSH2 0x154 JUMP JUMPDEST PUSH1 0x40 DUP2 ADD SWAP1 DUP2 LT PUSH8 0xFFFFFFFFFFFFFFFF DUP3 GT OR PUSH2 0x19F JUMPI PUSH1 0x40 MSTORE JUMP JUMPDEST PUSH1 0x80 DUP2 ADD SWAP1 DUP2 LT PUSH8 0xFFFFFFFFFFFFFFFF DUP3 GT OR PUSH2 0x19F JUMPI PUSH1 0x40 MSTORE JUMP JUMPDEST PUSH1 0xC0 DUP2 ADD SWAP1 DUP2 LT PUSH8 0xFFFFFFFFFFFFFFFF DUP3 GT OR PUSH2 0x19F JUMPI PUSH1 0x40 MSTORE JUMP JUMPDEST SWAP1 PUSH1 0x1F PUSH32 0xFFFFFFFFFFFFFFFFFFFFFFFFFFFFFFFFFFFFFFFFFFFFFFFFFFFFFFFFFFFFFFE0 SWAP2 ADD AND DUP2 ADD SWAP1 DUP2 LT PUSH8 0xFFFFFFFFFFFFFFFF DUP3 GT OR PUSH2 0x19F JUMPI PUSH1 0x40 MSTORE JUMP JUMPDEST PUSH1 0x40 MLOAD SWAP1 PUSH2 0x246 DUP3 PUSH2 0x183 JUMP JUMPDEST JUMP JUMPDEST PUSH1 0x40 MLOAD SWAP1 PUSH2 0x246 DUP3 PUSH2 0x1A4 JUMP JUMPDEST PUSH1 0x40 MLOAD SWAP1 PUSH2 0x180 DUP3 ADD DUP3 DUP2 LT PUSH8 0xFFFFFFFFFFFFFFFF DUP3 GT OR PUSH2 0x19F JUMPI PUSH1 0x40 MSTORE JUMP JUMPDEST DUP2 PUSH1 0x1F DUP3 ADD SLT ISZERO PUSH2 0x14F JUMPI DUP1 CALLDATALOAD SWAP1 PUSH8 0xFFFFFFFFFFFFFFFF DUP3 GT PUSH2 0x19F JUMPI PUSH1 0x40 MLOAD SWAP3 PUSH2 0x2C9 PUSH1 0x20 PUSH32 0xFFFFFFFFFFFFFFFFFFFFFFFFFFFFFFFFFFFFFFFFFFFFFFFFFFFFFFFFFFFFFFE0 PUSH1 0x1F DUP7 ADD AND ADD DUP6 PUSH2 0x1F8 JUMP JUMPDEST DUP3 DUP5 MSTORE PUSH1 0x20 DUP4 DUP4 ADD ADD GT PUSH2 0x14F JUMPI DUP2 PUSH1 0x0 SWAP3 PUSH1 0x20 DUP1 SWAP4 ADD DUP4 DUP7 ADD CALLDATACOPY DUP4 ADD ADD MSTORE SWAP1 JUMP JUMPDEST PUSH1 0x20 PUSH32 0xFFFFFFFFFFFFFFFFFFFFFFFFFFFFFFFFFFFFFFFFFFFFFFFFFFFFFFFFFFFFFFFC DUP3 ADD SLT PUSH2 0x14F JUMPI PUSH1 0x4 CALLDATALOAD SWAP1 PUSH8 0xFFFFFFFFFFFFFFFF DUP3 GT PUSH2 0x14F JUMPI PUSH2 0x334 SWAP2 PUSH1 0x4 ADD PUSH2 0x276 JUMP JUMPDEST SWAP1 JUMP JUMPDEST PUSH1 0x0 JUMPDEST DUP4 DUP2 LT PUSH2 0x34A JUMPI POP POP PUSH1 0x0 SWAP2 ADD MSTORE JUMP JUMPDEST DUP2 DUP2 ADD MLOAD DUP4 DUP3 ADD MSTORE PUSH1 0x20 ADD PUSH2 0x33A JUMP JUMPDEST SWAP1 PUSH32 0xFFFFFFFFFFFFFFFFFFFFFFFFFFFFFFFFFFFFFFFFFFFFFFFFFFFFFFFFFFFFFFE0 PUSH1 0x1F PUSH1 0x20 SWAP4 PUSH2 0x396 DUP2 MLOAD DUP1 SWAP3 DUP2 DUP8 MSTORE DUP8 DUP1 DUP9 ADD SWAP2 ADD PUSH2 0x337 JUMP JUMPDEST ADD AND ADD ADD SWAP1 JUMP JUMPDEST PUSH1 0x40 SWAP1 PUSH2 0x334 SWAP4 SWAP3 DUP2 MSTORE DUP2 PUSH1 0x20 DUP3 ADD MSTORE ADD SWAP1 PUSH2 0x35A JUMP JUMPDEST CALLVALUE PUSH2 0x14F JUMPI PUSH2 0x3C2 CALLDATASIZE PUSH2 0x2EB JUMP JUMPDEST PUSH2 0x3D7 PUSH1 0xFF PUSH2 0x3D0 DUP4 PUSH2 0x9B2 JUMP JUMPDEST SLOAD AND PUSH2 0xB28 JUMP JUMPDEST PUSH1 0xFF PUSH1 0x4 PUSH2 0x3E4 DUP4 PUSH2 0x9D8 JUMP JUMPDEST ADD SLOAD AND SWAP1 PUSH1 0x2 DUP3 LT ISZERO PUSH2 0x4E1 JUMPI PUSH2 0x3FE PUSH2 0x403 SWAP3 ISZERO PUSH2 0xB97 JUMP JUMPDEST PUSH2 0x9D8 JUMP JUMPDEST PUSH1 0x5 PUSH1 0x2 DUP3 ADD SLOAD SWAP2 ADD SWAP1 PUSH1 0x40 MLOAD SWAP2 DUP3 PUSH1 0x0 DUP3 SLOAD PUSH2 0x41F DUP2 PUSH2 0xBFC JUMP JUMPDEST SWAP1 DUP2 DUP5 MSTORE PUSH1 0x20 SWAP5 PUSH1 0x1 SWAP2 PUSH1 0x1 DUP2 AND SWAP1 DUP2 PUSH1 0x0 EQ PUSH2 0x4A0 JUMPI POP PUSH1 0x1 EQ PUSH2 0x461 JUMPI JUMPDEST POP POP POP PUSH2 0x44E SWAP3 POP SUB DUP4 PUSH2 0x1F8 JUMP JUMPDEST PUSH2 0x45D PUSH1 0x40 MLOAD SWAP3 DUP4 SWAP3 DUP4 PUSH2 0x39D JUMP JUMPDEST SUB SWAP1 RETURN JUMPDEST PUSH1 0x0 SWAP1 DUP2 MSTORE DUP6 DUP2 KECCAK256 SWAP6 SWAP4 POP SWAP2 SWAP1 JUMPDEST DUP2 DUP4 LT PUSH2 0x488 JUMPI POP POP PUSH2 0x44E SWAP4 POP DUP3 ADD ADD CODESIZE DUP1 DUP1 PUSH2 0x43F JUMP JUMPDEST DUP6 SLOAD DUP9 DUP5 ADD DUP6 ADD MSTORE SWAP5 DUP6 ADD SWAP5 DUP8 SWAP5 POP SWAP2 DUP4 ADD SWAP2 PUSH2 0x46F JUMP JUMPDEST SWAP2 POP POP PUSH2 0x44E SWAP6 SWAP4 POP PUSH32 0xFFFFFFFFFFFFFFFFFFFFFFFFFFFFFFFFFFFFFFFFFFFFFFFFFFFFFFFFFFFFFF00 SWAP2 POP AND DUP3 DUP5 ADD MSTORE ISZERO ISZERO PUSH1 0x5 SHL DUP3 ADD ADD CODESIZE DUP1 DUP1 PUSH2 0x43F JUMP JUMPDEST PUSH32 0x4E487B7100000000000000000000000000000000000000000000000000000000 PUSH1 0x0 MSTORE PUSH1 0x21 PUSH1 0x4 MSTORE PUSH1 0x24 PUSH1 0x0 REVERT JUMPDEST DUP1 PUSH1 0x43 SLT ISZERO PUSH2 0x14F JUMPI PUSH1 0x40 MLOAD SWAP1 PUSH2 0x526 DUP3 PUSH2 0x1A4 JUMP JUMPDEST DUP2 PUSH1 0x64 SWAP2 PUSH1 0x64 GT PUSH2 0x14F JUMPI PUSH1 0x24 SWAP1 JUMPDEST DUP3 DUP3 LT PUSH2 0x542 JUMPI POP POP POP SWAP1 JUMP JUMPDEST DUP2 CALLDATALOAD DUP2 MSTORE PUSH1 0x20 SWAP2 DUP3 ADD SWAP2 ADD PUSH2 0x535 JUMP JUMPDEST DUP1 PUSH1 0x63 SLT ISZERO PUSH2 0x14F JUMPI PUSH1 0x40 MLOAD SWAP1 PUSH2 0x568 DUP3 PUSH2 0x1A4 JUMP JUMPDEST DUP2 PUSH1 0x84 SWAP2 PUSH1 0x84 GT PUSH2 0x14F JUMPI PUSH1 0x44 SWAP1 JUMPDEST DUP3 DUP3 LT PUSH2 0x584 JUMPI POP POP POP SWAP1 JUMP JUMPDEST DUP2 CALLDATALOAD DUP2 MSTORE PUSH1 0x20 SWAP2 DUP3 ADD SWAP2 ADD PUSH2 0x577 JUMP JUMPDEST PUSH1 0x64 CALLDATALOAD SWAP1 PUSH1 0xFF DUP3 AND DUP3 SUB PUSH2 0x14F JUMPI JUMP JUMPDEST PUSH1 0x84 CALLDATALOAD SWAP1 PUSH1 0xFF DUP3 AND DUP3 SUB PUSH2 0x14F JUMPI JUMP JUMPDEST CALLVALUE PUSH2 0x14F JUMPI PUSH1 0x80 PUSH32 0xFFFFFFFFFFFFFFFFFFFFFFFFFFFFFFFFFFFFFFFFFFFFFFFFFFFFFFFFFFFFFFFC CALLDATASIZE ADD SLT PUSH2 0x14F JUMPI PUSH1 0x4 CALLDATALOAD PUSH8 0xFFFFFFFFFFFFFFFF DUP2 GT PUSH2 0x14F JUMPI PUSH2 0x603 SWAP1 CALLDATASIZE SWAP1 PUSH1 0x4 ADD PUSH2 0x276 JUMP JUMPDEST PUSH2 0x60C CALLDATASIZE PUSH2 0x510 JUMP JUMPDEST SWAP1 PUSH2 0x615 PUSH2 0x594 JUMP JUMPDEST PUSH2 0x623 PUSH1 0xFF PUSH2 0x3D0 DUP5 PUSH2 0x9B2 JUMP JUMPDEST PUSH1 0xFF PUSH1 0x4 PUSH2 0x630 DUP5 PUSH2 0x9D8 JUMP JUMPDEST ADD SLOAD AND SWAP3 PUSH1 0x2 DUP5 LT ISZERO PUSH2 0x4E1 JUMPI PUSH2 0x64A PUSH2 0x73D SWAP5 ISZERO PUSH2 0xB97 JUMP JUMPDEST PUSH2 0x6F4 PUSH2 0x6EE PUSH2 0x659 DUP6 PUSH2 0x9D8 JUMP JUMPDEST SWAP4 PUSH2 0x6E9 PUSH1 0x1 DUP7 ADD SWAP5 PUSH2 0x6C8 PUSH2 0x6B9 DUP8 SLOAD PUSH2 0x6AC DUP12 PUSH2 0x680 PUSH1 0x40 MLOAD SWAP4 DUP5 SWAP3 PUSH1 0x20 DUP5 ADD PUSH2 0xC4F JUMP JUMPDEST SUB PUSH32 0xFFFFFFFFFFFFFFFFFFFFFFFFFFFFFFFFFFFFFFFFFFFFFFFFFFFFFFFFFFFFFFE0 DUP2 ADD DUP4 MSTORE DUP3 PUSH2 0x1F8 JUMP JUMPDEST PUSH2 0x6B4 PUSH2 0xCE7 JUMP JUMPDEST PUSH2 0x14D4 JUMP JUMPDEST SWAP4 PUSH2 0x6C2 PUSH2 0xD20 JUMP JUMPDEST POP PUSH2 0x179F JUMP JUMPDEST PUSH2 0x6E2 PUSH2 0x6DC PUSH1 0x6 DUP12 SWAP7 SWAP5 SWAP7 ADD SLOAD PUSH1 0xFF AND SWAP1 JUMP JUMPDEST PUSH1 0xFF AND SWAP1 JUMP JUMPDEST GT ISZERO PUSH2 0xD81 JUMP JUMPDEST PUSH2 0x1880 JUMP JUMPDEST POP PUSH2 0xDE6 JUMP JUMPDEST PUSH2 0x726 PUSH1 0x4 DUP4 ADD PUSH1 0x1 PUSH32 0xFFFFFFFFFFFFFFFFFFFFFFFFFFFFFFFFFFFFFFFFFFFFFFFFFFFFFFFFFFFFFF00 DUP3 SLOAD AND OR SWAP1 SSTORE JUMP JUMPDEST PUSH2 0x730 DUP2 SLOAD PUSH2 0xEA8 JUMP JUMPDEST SWAP1 SSTORE PUSH1 0x3 TIMESTAMP SWAP2 ADD SSTORE PUSH2 0xED5 JUMP JUMPDEST PUSH1 0x40 MLOAD SWAP1 PUSH32 0x8D5D0F9333534DA02EF5F341FE3F88A64F03B3D4CA4AEF5BFDB6E3D5CDECE101 PUSH1 0x0 DUP1 LOG2 PUSH1 0x1 DUP2 MSTORE PUSH1 0x20 SWAP1 RETURN JUMPDEST PUSH1 0x40 MLOAD SWAP1 PUSH2 0x77C DUP3 PUSH2 0x1A4 JUMP JUMPDEST PUSH1 0xD DUP3 MSTORE PUSH32 0x6469643A626C6F636B6132613A00000000000000000000000000000000000000 PUSH1 0x20 DUP4 ADD MSTORE JUMP JUMPDEST CALLVALUE PUSH2 0x14F JUMPI PUSH1 0x0 PUSH32 0xFFFFFFFFFFFFFFFFFFFFFFFFFFFFFFFFFFFFFFFFFFFFFFFFFFFFFFFFFFFFFFFC CALLDATASIZE ADD SLT PUSH2 0x14F JUMPI PUSH2 0x45D PUSH2 0x7E2 PUSH2 0x76F JUMP JUMPDEST PUSH1 0x40 MLOAD SWAP2 DUP3 SWAP2 PUSH1 0x20 DUP4 MSTORE PUSH1 0x20 DUP4 ADD SWAP1 PUSH2 0x35A JUMP JUMPDEST CALLVALUE PUSH2 0x14F JUMPI PUSH1 0x80 PUSH32 0xFFFFFFFFFFFFFFFFFFFFFFFFFFFFFFFFFFFFFFFFFFFFFFFFFFFFFFFFFFFFFFFC CALLDATASIZE ADD SLT PUSH2 0x14F JUMPI PUSH8 0xFFFFFFFFFFFFFFFF PUSH1 0x4 CALLDATALOAD DUP2 DUP2 GT PUSH2 0x14F JUMPI PUSH2 0x846 SWAP1 CALLDATASIZE SWAP1 PUSH1 0x4 ADD PUSH2 0x276 JUMP JUMPDEST SWAP1 PUSH1 0x44 CALLDATALOAD SWAP1 DUP2 GT PUSH2 0x14F JUMPI PUSH1 0x20 SWAP2 PUSH2 0x865 PUSH2 0x877 SWAP3 CALLDATASIZE SWAP1 PUSH1 0x4 ADD PUSH2 0x276 JUMP JUMPDEST PUSH2 0x86D PUSH2 0x594 JUMP JUMPDEST SWAP2 PUSH1 0x24 CALLDATALOAD SWAP1 PUSH2 0x132B JUMP JUMPDEST PUSH1 0x40 MLOAD SWAP1 ISZERO ISZERO DUP2 MSTORE RETURN JUMPDEST CALLVALUE PUSH2 0x14F JUMPI PUSH1 0xA0 PUSH32 0xFFFFFFFFFFFFFFFFFFFFFFFFFFFFFFFFFFFFFFFFFFFFFFFFFFFFFFFFFFFFFFFC CALLDATASIZE ADD SLT PUSH2 0x14F JUMPI PUSH1 0x4 CALLDATALOAD PUSH8 0xFFFFFFFFFFFFFFFF DUP2 GT PUSH2 0x14F JUMPI PUSH2 0x8D0 SWAP1 CALLDATASIZE SWAP1 PUSH1 0x4 ADD PUSH2 0x276 JUMP JUMPDEST PUSH1 0x24 CALLDATALOAD SWAP1 PUSH2 0x8DD CALLDATASIZE PUSH2 0x552 JUMP JUMPDEST SWAP1 PUSH2 0x8E6 PUSH2 0x5A4 JUMP JUMPDEST SWAP2 PUSH2 0x8F5 PUSH1 0xFF PUSH2 0x3D0 DUP5 PUSH2 0x9B2 JUMP JUMPDEST PUSH1 0xFF PUSH1 0x4 PUSH2 0x902 DUP5 PUSH2 0x9D8 JUMP JUMPDEST ADD SLOAD AND SWAP3 PUSH1 0x2 DUP5 LT ISZERO PUSH2 0x4E1 JUMPI PUSH2 0x91C PUSH2 0x97F SWAP5 ISZERO PUSH2 0xB97 JUMP JUMPDEST PUSH2 0x730 PUSH2 0x928 DUP5 PUSH2 0x9D8 JUMP JUMPDEST SWAP3 PUSH2 0x974 PUSH2 0x6EE PUSH1 0x1 DUP7 ADD SWAP5 PUSH2 0x6E9 DUP7 SLOAD SWAP5 PUSH2 0x960 PUSH2 0x6B9 DUP14 PUSH2 0x958 DUP14 PUSH2 0x680 DUP12 PUSH1 0x40 MLOAD SWAP5 DUP6 SWAP4 PUSH1 0x20 DUP6 ADD PUSH2 0xC9C JUMP JUMPDEST PUSH2 0x6B4 PUSH2 0x143E JUMP JUMPDEST PUSH2 0x6E2 PUSH2 0x6DC PUSH1 0x6 DUP14 SWAP7 SWAP5 SWAP7 ADD SLOAD PUSH1 0xFF AND SWAP1 JUMP JUMPDEST DUP7 PUSH1 0x2 DUP6 ADD SSTORE PUSH2 0xEA8 JUMP JUMPDEST SWAP1 PUSH1 0x40 MLOAD SWAP2 PUSH32 0xFBCCB49FCBA0DB7422ED2970AE7E545A0133B0D0343C5CD282B5A877EF95C487 PUSH1 0x0 DUP1 LOG3 PUSH1 0x1 DUP2 MSTORE PUSH1 0x20 SWAP1 RETURN JUMPDEST PUSH1 0x20 PUSH2 0x9CB SWAP2 DUP2 PUSH1 0x40 MLOAD SWAP4 DUP3 DUP6 DUP1 SWAP5 MLOAD SWAP4 DUP5 SWAP3 ADD PUSH2 0x337 JUMP JUMPDEST DUP2 ADD PUSH1 0x15 DUP2 MSTORE SUB ADD SWAP1 KECCAK256 SWAP1 JUMP JUMPDEST PUSH1 0x20 PUSH2 0x9F1 SWAP2 DUP2 PUSH1 0x40 MLOAD SWAP4 DUP3 DUP6 DUP1 SWAP5 MLOAD SWAP4 DUP5 SWAP3 ADD PUSH2 0x337 JUMP JUMPDEST DUP2 ADD PUSH1 0x14 DUP2 MSTORE SUB ADD SWAP1 KECCAK256 SWAP1 JUMP JUMPDEST PUSH1 0x20 PUSH2 0xA17 SWAP2 DUP2 PUSH1 0x40 MLOAD SWAP4 DUP3 DUP6 DUP1 SWAP5 MLOAD SWAP4 DUP5 SWAP3 ADD PUSH2 0x337 JUMP JUMPDEST DUP2 ADD PUSH1 0x16 DUP2 MSTORE SUB ADD SWAP1 KECCAK256 SWAP1 JUMP JUMPDEST CALLVALUE PUSH2 0x14F JUMPI PUSH1 0x20 PUSH2 0xA3C PUSH2 0xA37 CALLDATASIZE PUSH2 0x2EB JUMP JUMPDEST PUSH2 0x9FE JUMP JUMPDEST SLOAD PUSH1 0x40 MLOAD SWAP1 DUP2 MSTORE RETURN JUMPDEST PUSH32 0x4E487B7100000000000000000000000000000000000000000000000000000000 PUSH1 0x0 MSTORE PUSH1 0x11 PUSH1 0x4 MSTORE PUSH1 0x24 PUSH1 0x0 REVERT JUMPDEST SWAP1 PUSH1 0x1 DUP3 ADD DUP1 SWAP3 GT PUSH2 0xA82 JUMPI JUMP JUMPDEST PUSH2 0xA45 JUMP JUMPDEST PUSH1 0x1 ADD SWAP1 DUP2 PUSH1 0x1 GT PUSH2 0xA82 JUMPI JUMP JUMPDEST CALLVALUE PUSH2 0x14F JUMPI PUSH1 0x0 PUSH32 0xFFFFFFFFFFFFFFFFFFFFFFFFFFFFFFFFFFFFFFFFFFFFFFFFFFFFFFFFFFFFFFFC CALLDATASIZE ADD SLT PUSH2 0x14F JUMPI PUSH1 0x20 PUSH1 0x40 MLOAD PUSH1 0x14 DUP2 MSTORE RETURN JUMPDEST CALLVALUE PUSH2 0x14F JUMPI PUSH1 0x0 PUSH32 0xFFFFFFFFFFFFFFFFFFFFFFFFFFFFFFFFFFFFFFFFFFFFFFFFFFFFFFFFFFFFFFFC CALLDATASIZE ADD SLT PUSH2 0x14F JUMPI PUSH1 0x20 PUSH1 0x40 MLOAD PUSH32 0x6688844A85E8870F0474F90AA6D22975F9E2E6D3485E6ABB706BE219AB7CD70B DUP2 MSTORE RETURN JUMPDEST ISZERO PUSH2 0xB2F JUMPI JUMP JUMPDEST PUSH1 0x64 PUSH1 0x40 MLOAD PUSH32 0x8C379A000000000000000000000000000000000000000000000000000000000 DUP2 MSTORE PUSH1 0x20 PUSH1 0x4 DUP3 ADD MSTORE PUSH1 0x17 PUSH1 0x24 DUP3 ADD MSTORE PUSH32 0x4147433A20444944206E6F742072656769737465726564000000000000000000 PUSH1 0x44 DUP3 ADD MSTORE REVERT JUMPDEST PUSH1 0x2 GT ISZERO PUSH2 0x4E1 JUMPI JUMP JUMPDEST ISZERO PUSH2 0xB9E JUMPI JUMP JUMPDEST PUSH1 0x64 PUSH1 0x40 MLOAD PUSH32 0x8C379A000000000000000000000000000000000000000000000000000000000 DUP2 MSTORE PUSH1 0x20 PUSH1 0x4 DUP3 ADD MSTORE PUSH1 0x13 PUSH1 0x24 DUP3 ADD MSTORE PUSH32 0x4147433A20444944206E6F742061637469766500000000000000000000000000 PUSH1 0x44 DUP3 ADD MSTORE REVERT JUMPDEST SWAP1 PUSH1 0x1 DUP3 DUP2 SHR SWAP3 AND DUP1 ISZERO PUSH2 0xC45 JUMPI JUMPDEST PUSH1 0x20 DUP4 LT EQ PUSH2 0xC16 JUMPI JUMP JUMPDEST PUSH32 0x4E487B7100000000000000000000000000000000000000000000000000000000 PUSH1 0x0 MSTORE PUSH1 0x22 PUSH1 0x4 MSTORE PUSH1 0x24 PUSH1 0x0 REVERT JUMPDEST SWAP2 PUSH1 0x7F AND SWAP2 PUSH2 0xC0B JUMP JUMPDEST SWAP1 PUSH1 0x60 SWAP3 SWAP2 PUSH32 0x6688844A85E8870F0474F90AA6D22975F9E2E6D3485E6ABB706BE219AB7CD70B DUP2 MSTORE PUSH2 0xC8A DUP3 MLOAD DUP1 SWAP4 PUSH1 0x20 DUP1 DUP6 ADD SWAP2 ADD PUSH2 0x337 JUMP JUMPDEST ADD SWAP1 PUSH1 0x0 PUSH1 0x20 DUP4 ADD MSTORE PUSH1 0x40 DUP3 ADD MSTORE ADD SWAP1 JUMP JUMPDEST SWAP1 PUSH1 0x60 SWAP4 SWAP2 PUSH32 0x283B208957FE4FA6F6029DAABCFEDDAD5C9B5D110A38B1816631F64E563F8584 DUP2 MSTORE PUSH2 0xCD7 DUP3 MLOAD DUP1 SWAP4 PUSH1 0x20 DUP1 DUP6 ADD SWAP2 ADD PUSH2 0x337 JUMP JUMPDEST ADD SWAP2 PUSH1 0x20 DUP4 ADD MSTORE PUSH1 0x40 DUP3 ADD MSTORE ADD SWAP1 JUMP JUMPDEST PUSH1 0x40 MLOAD SWAP1 PUSH2 0xCF4 DUP3 PUSH2 0x1A4 JUMP JUMPDEST PUSH1 0xA DUP3 MSTORE PUSH32 0x4147432D7265766F6B6500000000000000000000000000000000000000000000 PUSH1 0x20 DUP4 ADD MSTORE JUMP JUMPDEST PUSH1 0x40 MLOAD SWAP1 PUSH2 0xD2D DUP3 PUSH2 0x1C0 JUMP JUMPDEST PUSH1 0x80 CALLDATASIZE DUP4 CALLDATACOPY JUMP JUMPDEST PUSH1 0x40 MLOAD SWAP1 PUSH2 0xD41 DUP3 PUSH2 0x1A4 JUMP JUMPDEST PUSH1 0x40 CALLDATASIZE DUP4 CALLDATACOPY JUMP JUMPDEST PUSH1 0x40 MLOAD SWAP1 PUSH1 0x20 DUP3 ADD DUP3 DUP2 LT PUSH8 0xFFFFFFFFFFFFFFFF DUP3 GT OR PUSH2 0x19F JUMPI PUSH1 0x40 MSTORE PUSH1 0x20 CALLDATASIZE DUP4 CALLDATACOPY JUMP JUMPDEST PUSH1 0x40 MLOAD SWAP1 PUSH2 0xD7A DUP3 PUSH2 0x1DC JUMP JUMPDEST PUSH1 0xC0 CALLDATASIZE DUP4 CALLDATACOPY JUMP JUMPDEST ISZERO PUSH2 0xD88 JUMPI JUMP JUMPDEST PUSH1 0x64 PUSH1 0x40 MLOAD PUSH32 0x8C379A000000000000000000000000000000000000000000000000000000000 DUP2 MSTORE PUSH1 0x20 PUSH1 0x4 DUP3 ADD MSTORE PUSH1 0x17 PUSH1 0x24 DUP3 ADD MSTORE PUSH32 0x4147433A206E6F7420656E6F756768207369676E657273000000000000000000 PUSH1 0x44 DUP3 ADD MSTORE REVERT JUMPDEST ISZERO PUSH2 0xDED JUMPI JUMP JUMPDEST PUSH1 0x84 PUSH1 0x40 MLOAD PUSH32 0x8C379A000000000000000000000000000000000000000000000000000000000 DUP2 MSTORE PUSH1 0x20 PUSH1 0x4 DUP3 ADD MSTORE PUSH1 0x2C PUSH1 0x24 DUP3 ADD MSTORE PUSH32 0x4147433A20616767726567617465207369676E61747572652076657269666963 PUSH1 0x44 DUP3 ADD MSTORE PUSH32 0x6174696F6E206661696C65640000000000000000000000000000000000000000 PUSH1 0x64 DUP3 ADD MSTORE REVERT JUMPDEST SWAP1 PUSH1 0x2 DUP2 LT ISZERO PUSH2 0x4E1 JUMPI PUSH1 0xFF PUSH32 0xFFFFFFFFFFFFFFFFFFFFFFFFFFFFFFFFFFFFFFFFFFFFFFFFFFFFFFFFFFFFFF00 DUP4 SLOAD AND SWAP2 AND OR SWAP1 SSTORE JUMP JUMPDEST PUSH32 0xFFFFFFFFFFFFFFFFFFFFFFFFFFFFFFFFFFFFFFFFFFFFFFFFFFFFFFFFFFFFFFFF DUP2 EQ PUSH2 0xA82 JUMPI PUSH1 0x1 ADD SWAP1 JUMP JUMPDEST PUSH2 0xEED SWAP1 PUSH1 0x20 PUSH1 0x40 MLOAD SWAP3 DUP3 DUP5 DUP1 SWAP5 MLOAD SWAP4 DUP5 SWAP3 ADD PUSH2 0x337 JUMP JUMPDEST DUP2 ADD SUB SWAP1 KECCAK256 SWAP1 JUMP JUMPDEST ISZERO PUSH2 0xEFC JUMPI JUMP JUMPDEST PUSH1 0x64 PUSH1 0x40 MLOAD PUSH32 0x8C379A000000000000000000000000000000000000000000000000000000000 DUP2 MSTORE PUSH1 0x20 PUSH1 0x4 DUP3 ADD MSTORE PUSH1 0x1B PUSH1 0x24 DUP3 ADD MSTORE PUSH32 0x4147433A2044494420616C726561647920726567697374657265640000000000 PUSH1 0x44 DUP3 ADD MSTORE REVERT JUMPDEST ISZERO PUSH2 0xF61 JUMPI JUMP JUMPDEST PUSH1 0x84 PUSH1 0x40 MLOAD PUSH32 0x8C379A000000000000000000000000000000000000000000000000000000000 DUP2 MSTORE PUSH1 0x20 PUSH1 0x4 DUP3 ADD MSTORE PUSH1 0x29 PUSH1 0x24 DUP3 ADD MSTORE PUSH32 0x4147433A20726571756972656453696773466F72436170557064617465206D75 PUSH1 0x44 DUP3 ADD MSTORE PUSH32 0x7374206265203E20300000000000000000000000000000000000000000000000 PUSH1 0x64 DUP3 ADD MSTORE REVERT JUMPDEST SWAP1 PUSH1 0x1F DUP2 GT PUSH2 0xFF3 JUMPI POP POP POP JUMP JUMPDEST PUSH1 0x0 SWAP2 PUSH1 0x0 MSTORE PUSH1 0x20 PUSH1 0x0 KECCAK256 SWAP1 PUSH1 0x20 PUSH1 0x1F DUP6 ADD PUSH1 0x5 SHR DUP4 ADD SWAP5 LT PUSH2 0x1031 JUMPI JUMPDEST PUSH1 0x1F ADD PUSH1 0x5 SHR ADD SWAP2 JUMPDEST DUP3 DUP2 LT PUSH2 0x1026 JUMPI POP POP POP JUMP JUMPDEST DUP2 DUP2 SSTORE PUSH1 0x1 ADD PUSH2 0x101A JUMP JUMPDEST SWAP1 SWAP3 POP DUP3 SWAP1 PUSH2 0x1011 JUMP JUMPDEST SWAP2 SWAP1 SWAP2 DUP3 MLOAD PUSH8 0xFFFFFFFFFFFFFFFF DUP2 GT PUSH2 0x19F JUMPI PUSH2 0x1063 DUP2 PUSH2 0x105D DUP5 SLOAD PUSH2 0xBFC JUMP JUMPDEST DUP5 PUSH2 0xFE5 JUMP JUMPDEST PUSH1 0x20 DUP1 PUSH1 0x1F DUP4 GT PUSH1 0x1 EQ PUSH2 0x10C3 JUMPI POP DUP2 SWAP1 PUSH2 0x10B4 SWAP4 SWAP5 SWAP6 PUSH1 0x0 SWAP3 PUSH2 0x10B8 JUMPI JUMPDEST POP POP PUSH32 0xFFFFFFFFFFFFFFFFFFFFFFFFFFFFFFFFFFFFFFFFFFFFFFFFFFFFFFFFFFFFFFFF DUP3 PUSH1 0x1 SHL SWAP3 PUSH1 0x3 SHL SHR NOT AND OR SWAP1 JUMP JUMPDEST SWAP1 SSTORE JUMP JUMPDEST ADD MLOAD SWAP1 POP CODESIZE DUP1 PUSH2 0x1082 JUMP JUMPDEST SWAP1 PUSH32 0xFFFFFFFFFFFFFFFFFFFFFFFFFFFFFFFFFFFFFFFFFFFFFFFFFFFFFFFFFFFFFFE0 DUP4 AND SWAP6 PUSH2 0x10F7 DUP6 PUSH1 0x0 MSTORE PUSH1 0x20 PUSH1 0x0 KECCAK256 SWAP1 JUMP JUMPDEST SWAP3 PUSH1 0x0 SWAP1 JUMPDEST DUP9 DUP3 LT PUSH2 0x1152 JUMPI POP POP DUP4 PUSH1 0x1 SWAP6 SWAP7 SWAP8 LT PUSH2 0x111B JUMPI JUMPDEST POP POP POP DUP2 SHL ADD SWAP1 SSTORE JUMP JUMPDEST ADD MLOAD PUSH32 0xFFFFFFFFFFFFFFFFFFFFFFFFFFFFFFFFFFFFFFFFFFFFFFFFFFFFFFFFFFFFFFFF PUSH1 0xF8 DUP5 PUSH1 0x3 SHL AND SHR NOT AND SWAP1 SSTORE CODESIZE DUP1 DUP1 PUSH2 0x1111 JUMP JUMPDEST DUP1 PUSH1 0x1 DUP6 SWAP7 DUP3 SWAP5 SWAP7 DUP7 ADD MLOAD DUP2 SSTORE ADD SWAP6 ADD SWAP4 ADD SWAP1 PUSH2 0x10FC JUMP JUMPDEST SWAP2 SWAP1 SWAP2 DUP3 MLOAD SWAP3 DUP4 MLOAD PUSH8 0xFFFFFFFFFFFFFFFF DUP2 GT PUSH2 0x19F JUMPI PUSH2 0x1195 DUP2 PUSH2 0x118F DUP6 SLOAD PUSH2 0xBFC JUMP JUMPDEST DUP6 PUSH2 0xFE5 JUMP JUMPDEST PUSH1 0x20 DUP1 PUSH1 0x1F DUP4 GT PUSH1 0x1 EQ PUSH2 0x1273 JUMPI POP PUSH1 0x6 SWAP3 PUSH2 0x11F0 DUP4 PUSH2 0x1244 SWAP5 PUSH1 0xC0 SWAP5 PUSH2 0x246 SWAP10 SWAP11 PUSH1 0x0 SWAP3 PUSH2 0x10B8 JUMPI POP POP PUSH32 0xFFFFFFFFFFFFFFFFFFFFFFFFFFFFFFFFFFFFFFFFFFFFFFFFFFFFFFFFFFFFFFFF DUP3 PUSH1 0x1 SHL SWAP3 PUSH1 0x3 SHL SHR NOT AND OR SWAP1 JUMP JUMPDEST DUP6 SSTORE JUMPDEST PUSH1 0x20 DUP2 ADD MLOAD PUSH1 0x1 DUP7 ADD SSTORE PUSH1 0x40 DUP2 ADD MLOAD PUSH1 0x2 DUP7 ADD SSTORE PUSH1 0x60 DUP2 ADD MLOAD PUSH1 0x3 DUP7 ADD SSTORE PUSH2 0x122B PUSH1 0x80 DUP3 ADD MLOAD PUSH2 0x1222 DUP2 PUSH2 0xB8D JUMP JUMPDEST PUSH1 0x4 DUP8 ADD PUSH2 0xE71 JUMP JUMPDEST PUSH2 0x123C PUSH1 0xA0 DUP3 ADD MLOAD PUSH1 0x5 DUP8 ADD PUSH2 0x103B JUMP JUMPDEST ADD MLOAD PUSH1 0xFF AND SWAP1 JUMP JUMPDEST SWAP2 ADD SWAP1 PUSH1 0xFF AND PUSH32 0xFFFFFFFFFFFFFFFFFFFFFFFFFFFFFFFFFFFFFFFFFFFFFFFFFFFFFFFFFFFFFF00 DUP3 SLOAD AND OR SWAP1 SSTORE JUMP JUMPDEST SWAP1 PUSH32 0xFFFFFFFFFFFFFFFFFFFFFFFFFFFFFFFFFFFFFFFFFFFFFFFFFFFFFFFFFFFFFFE0 DUP4 AND SWAP7 PUSH2 0x12A7 DUP7 PUSH1 0x0 MSTORE PUSH1 0x20 PUSH1 0x0 KECCAK256 SWAP1 JUMP JUMPDEST SWAP3 PUSH1 0x0 SWAP1 JUMPDEST DUP10 DUP3 LT PUSH2 0x1313 JUMPI POP POP DUP4 PUSH1 0xC0 SWAP4 PUSH1 0x6 SWAP7 SWAP4 PUSH1 0x1 SWAP4 PUSH2 0x1244 SWAP8 PUSH2 0x246 SWAP12 SWAP13 LT PUSH2 0x12DC JUMPI JUMPDEST POP POP POP DUP2 SHL ADD DUP6 SSTORE PUSH2 0x11F3 JUMP JUMPDEST ADD MLOAD PUSH32 0xFFFFFFFFFFFFFFFFFFFFFFFFFFFFFFFFFFFFFFFFFFFFFFFFFFFFFFFFFFFFFFFF PUSH1 0xF8 DUP5 PUSH1 0x3 SHL AND SHR NOT AND SWAP1 SSTORE CODESIZE DUP1 DUP1 PUSH2 0x12CF JUMP JUMPDEST DUP1 PUSH1 0x1 DUP6 SWAP7 DUP3 SWAP5 SWAP7 DUP7 ADD MLOAD DUP2 SSTORE ADD SWAP6 ADD SWAP4 ADD SWAP1 PUSH2 0x12AC JUMP JUMPDEST SWAP1 SWAP3 PUSH2 0x133D PUSH2 0x1339 DUP4 PUSH2 0x19B3 JUMP JUMPDEST ISZERO SWAP1 JUMP JUMPDEST PUSH2 0x1435 JUMPI PUSH2 0x140B SWAP3 PUSH2 0x13AF PUSH2 0x13BD SWAP3 PUSH2 0x136A PUSH2 0x1365 PUSH2 0x1339 PUSH2 0x135E DUP9 PUSH2 0x9B2 JUMP JUMPDEST SLOAD PUSH1 0xFF AND SWAP1 JUMP JUMPDEST PUSH2 0xEF5 JUMP JUMPDEST PUSH2 0x1378 PUSH1 0xFF DUP3 AND ISZERO ISZERO PUSH2 0xF5A JUMP JUMPDEST PUSH2 0x1380 PUSH2 0x239 JUMP JUMPDEST SWAP3 DUP6 DUP5 MSTORE PUSH1 0x1 PUSH1 0x20 DUP6 ADD MSTORE DUP8 PUSH1 0x40 DUP6 ADD MSTORE TIMESTAMP PUSH1 0x60 DUP6 ADD MSTORE PUSH1 0x0 PUSH1 0x80 DUP6 ADD MSTORE PUSH1 0xA0 DUP5 ADD MSTORE PUSH1 0xC0 DUP4 ADD SWAP1 PUSH1 0xFF AND SWAP1 MSTORE JUMP JUMPDEST PUSH2 0x13B8 DUP4 PUSH2 0x9D8 JUMP JUMPDEST PUSH2 0x116A JUMP JUMPDEST PUSH2 0x13F4 PUSH2 0x13C9 DUP3 PUSH2 0x9B2 JUMP JUMPDEST PUSH1 0x1 PUSH32 0xFFFFFFFFFFFFFFFFFFFFFFFFFFFFFFFFFFFFFFFFFFFFFFFFFFFFFFFFFFFFFF00 DUP3 SLOAD AND OR SWAP1 SSTORE JUMP JUMPDEST PUSH2 0x1406 PUSH2 0x1400 DUP3 PUSH2 0x9FE JUMP JUMPDEST PUSH1 0x1 SWAP1 SSTORE JUMP JUMPDEST PUSH2 0xED5 JUMP JUMPDEST PUSH32 0x64B17621560ACDF371CC9090466395C4EDACECC3ACC35947973DB19D2FB2CF14 PUSH1 0x0 DUP1 LOG3 PUSH1 0x1 SWAP1 JUMP JUMPDEST POP POP POP POP PUSH1 0x0 SWAP1 JUMP JUMPDEST PUSH1 0x40 MLOAD SWAP1 PUSH2 0x144B DUP3 PUSH2 0x1A4 JUMP JUMPDEST PUSH1 0xA DUP3 MSTORE PUSH32 0x4147432D75706461746500000000000000000000000000000000000000000000 PUSH1 0x20 DUP4 ADD MSTORE JUMP JUMPDEST PUSH32 0x4E487B7100000000000000000000000000000000000000000000000000000000 PUSH1 0x0 MSTORE PUSH1 0x32 PUSH1 0x4 MSTORE PUSH1 0x24 PUSH1 0x0 REVERT JUMPDEST PUSH1 0x80 DUP2 ADD SWAP3 SWAP2 PUSH1 0x0 SWAP2 JUMPDEST PUSH1 0x4 DUP4 LT PUSH2 0x14BD JUMPI POP POP POP JUMP JUMPDEST PUSH1 0x1 SWAP1 DUP3 MLOAD DUP2 MSTORE PUSH1 0x20 DUP1 SWAP2 ADD SWAP3 ADD SWAP3 ADD SWAP2 SWAP1 PUSH2 0x14B0 JUMP JUMPDEST SWAP1 PUSH2 0x14DD PUSH2 0xD34 JUMP JUMPDEST POP PUSH1 0x40 DUP1 DUP1 MLOAD PUSH2 0x14EC DUP2 PUSH2 0x1A4 JUMP JUMPDEST CALLDATASIZE SWAP1 CALLDATACOPY DUP3 MLOAD SWAP3 PUSH1 0xFF DUP5 GT PUSH2 0x1743 JUMPI PUSH1 0xFF PUSH2 0x1504 PUSH2 0x1F72 JUMP JUMPDEST SWAP5 AND SWAP4 DUP3 MLOAD SWAP1 DUP2 PUSH2 0x151D DUP8 DUP6 PUSH1 0x20 SWAP9 DUP10 DUP6 ADD SWAP6 DUP7 PUSH2 0x1FC1 JUMP JUMPDEST SUB SWAP2 PUSH2 0x154F PUSH32 0xFFFFFFFFFFFFFFFFFFFFFFFFFFFFFFFFFFFFFFFFFFFFFFFFFFFFFFFFFFFFFFE0 SWAP4 DUP5 DUP2 ADD DUP4 MSTORE DUP3 PUSH2 0x1F8 JUMP JUMPDEST MLOAD SWAP1 KECCAK256 SWAP2 DUP4 MLOAD DUP6 DUP2 ADD SWAP1 PUSH2 0x1575 DUP2 PUSH2 0x1569 DUP11 DUP7 DUP10 DUP8 PUSH2 0x2061 JUMP JUMPDEST SUB DUP6 DUP2 ADD DUP4 MSTORE DUP3 PUSH2 0x1F8 JUMP JUMPDEST MLOAD SWAP1 KECCAK256 SWAP6 PUSH2 0x1581 PUSH2 0x1F8D JUMP JUMPDEST SWAP4 PUSH1 0x1 SWAP3 PUSH1 0x1 SWAP5 JUMPDEST PUSH1 0x3 DUP7 LT PUSH2 0x16CE JUMPI POP POP POP POP POP POP PUSH2 0x1630 DUP2 DUP6 PUSH1 0x60 PUSH2 0x1637 SWAP5 ADD MSTORE PUSH24 0xFFFFFFFFFFFFFFFFFFFFFFFFFFFFFFFFFFFFFFFFFFFFFFFF DUP1 PUSH1 0x18 DUP4 ADD MLOAD AND SWAP1 PUSH32 0x30644E72E131A029B85045B68181585D97816A916871CA8D3C208C16D87CFD47 DUP1 SWAP3 DUP3 PUSH1 0x48 DUP4 DUP3 PUSH1 0x30 DUP10 ADD MLOAD AND DUP2 PUSH25 0x1000000000000000000000000000000000000000000000000 DUP1 SWAP7 MULMOD ADDMOD SWAP7 ADD MLOAD AND SWAP3 DUP10 PUSH2 0x1620 PUSH2 0x248 JUMP JUMPDEST DUP8 DUP2 MSTORE ADD SWAP11 AND SWAP3 MULMOD ADDMOD DUP7 MSTORE PUSH2 0x1BF7 JUMP JUMPDEST SWAP4 MLOAD PUSH2 0x1BF7 JUMP JUMPDEST SWAP2 PUSH2 0x1640 PUSH2 0xD20 JUMP JUMPDEST SWAP3 DUP5 MLOAD DUP5 MSTORE DUP2 DUP6 ADD MLOAD DUP3 DUP6 ADD MSTORE DUP1 MLOAD DUP4 DUP6 ADD MSTORE ADD MLOAD PUSH1 0x60 DUP4 ADD MSTORE PUSH2 0x168C DUP2 DUP5 PUSH1 0x80 DUP6 PUSH1 0x6 PUSH32 0xFFFFFFFFFFFFFFFFFFFFFFFFFFFFFFFFFFFFFFFFFFFFFFFFFFFFFFFFFFFFF830 GAS ADD STATICCALL ISZERO SWAP1 JUMP JUMPDEST PUSH2 0x1695 JUMPI POP POP SWAP1 JUMP JUMPDEST PUSH2 0x16CA SWAP3 POP MLOAD SWAP2 DUP3 SWAP2 PUSH32 0x128E3F0800000000000000000000000000000000000000000000000000000000 DUP4 MSTORE PUSH1 0x4 DUP4 ADD PUSH2 0x14A6 JUMP JUMPDEST SUB SWAP1 REVERT JUMPDEST SWAP1 SWAP2 SWAP3 SWAP4 DUP4 DUP4 DUP8 SWAP12 DUP12 PUSH32 0xFFFFFFFFFFFFFFFFFFFFFFFFFFFFFFFFFFFFFFFFFFFFFFFFFFFFFFFFFFFFFFFF DUP11 PUSH2 0x172C DUP15 PUSH2 0x1720 DUP14 DUP11 SWAP16 PUSH2 0x6DC PUSH2 0x170F SWAP2 PUSH2 0xA87 JUMP JUMPDEST SWAP3 MLOAD SWAP9 DUP10 SWAP4 DUP10 DUP10 DUP7 ADD SWAP13 XOR DUP13 PUSH2 0x20D3 JUMP JUMPDEST SUB DUP10 DUP2 ADD DUP8 MSTORE DUP7 PUSH2 0x1F8 JUMP JUMPDEST ADD PUSH1 0x5 SHL DUP12 ADD ADD MSTORE MLOAD SWAP1 KECCAK256 SWAP10 ADD SWAP5 SWAP4 SWAP3 SWAP2 SWAP1 PUSH2 0x1589 JUMP JUMPDEST PUSH2 0x16CA SWAP2 MLOAD SWAP2 DUP3 SWAP2 PUSH32 0x26E4F9BA00000000000000000000000000000000000000000000000000000000 DUP4 MSTORE PUSH1 0x4 DUP4 ADD PUSH2 0x1F61 JUMP JUMPDEST PUSH1 0xFF AND PUSH1 0xFF DUP2 EQ PUSH2 0xA82 JUMPI PUSH1 0x1 ADD SWAP1 JUMP JUMPDEST PUSH1 0x5 DUP2 LT ISZERO PUSH2 0x179A JUMPI PUSH1 0x2 SHL SWAP1 PUSH1 0x0 SWAP1 JUMP JUMPDEST PUSH2 0x1477 JUMP JUMPDEST PUSH2 0x17A7 PUSH2 0xD20 JUMP JUMPDEST PUSH1 0x0 DUP1 JUMPDEST PUSH1 0xFF DUP1 DUP3 AND PUSH1 0x5 DUP2 LT ISZERO PUSH2 0x1876 JUMPI PUSH1 0x1 SWAP1 SHL DUP6 AND AND PUSH2 0x17D3 JUMPI JUMPDEST PUSH2 0x17CE SWAP1 PUSH2 0x1777 JUMP JUMPDEST PUSH2 0x17AB JUMP JUMPDEST SWAP1 PUSH2 0x186E PUSH2 0x17CE SWAP2 DUP5 MLOAD PUSH1 0x20 DUP7 ADD DUP1 MLOAD SWAP1 PUSH2 0x185F PUSH1 0x40 DUP10 ADD SWAP4 DUP9 DUP6 MLOAD SWAP5 PUSH1 0x60 DUP13 ADD SWAP6 DUP7 MLOAD PUSH2 0x1800 DUP5 PUSH2 0x1788 JUMP JUMPDEST POP SLOAD SWAP2 PUSH2 0x1826 PUSH2 0x181C PUSH2 0x1812 DUP8 PUSH2 0x1788 JUMP JUMPDEST POP PUSH1 0x1 ADD SWAP1 PUSH1 0x0 SWAP1 JUMP JUMPDEST SWAP1 SLOAD SWAP1 PUSH1 0x3 SHL SHR SWAP1 JUMP JUMPDEST SWAP4 PUSH2 0x1859 PUSH2 0x181C PUSH2 0x184F PUSH2 0x1849 PUSH2 0x181C PUSH2 0x183F DUP12 PUSH2 0x1788 JUMP JUMPDEST POP PUSH1 0x2 ADD SWAP1 PUSH1 0x0 SWAP1 JUMP JUMPDEST SWAP9 PUSH2 0x1788 JUMP JUMPDEST POP PUSH1 0x3 ADD SWAP1 PUSH1 0x0 SWAP1 JUMP JUMPDEST SWAP7 PUSH2 0x1E2B JUMP JUMPDEST SWAP1 SWAP3 SWAP6 SWAP2 SWAP5 MSTORE MSTORE MSTORE DUP6 MSTORE PUSH2 0xA74 JUMP JUMPDEST SWAP2 SWAP1 POP PUSH2 0x17C5 JUMP JUMPDEST POP POP POP SWAP3 SWAP2 POP SWAP2 SWAP1 JUMP JUMPDEST PUSH1 0x40 PUSH1 0x20 SWAP3 DUP4 PUSH2 0x180 SWAP7 SWAP6 DUP2 PUSH2 0x1894 PUSH2 0x255 JUMP JUMPDEST SWAP6 DUP1 MLOAD DUP8 MSTORE ADD MLOAD DUP3 DUP7 ADD MSTORE PUSH32 0x198E9393920D483A7260BFB731FB5D25F1AA493335A9E71297E485B7AEF312C2 DUP5 DUP7 ADD MSTORE PUSH32 0x1800DEEF121F1E76426A00665E5C4479674322D4F75EDADD46DEBD5CD992F6ED PUSH1 0x60 DUP7 ADD MSTORE PUSH32 0x275DC4A288D1AFB3CBB1AC09187524C7DB36395DF7BE3B99E673B13A075A65EC PUSH1 0x80 DUP7 ADD MSTORE PUSH32 0x1D9BEFCD05A5323E6DA4D435F3B617CDB3AF83285C2DF711EF39C01571827F9D PUSH1 0xA0 DUP7 ADD MSTORE DUP1 MLOAD PUSH1 0xC0 DUP7 ADD MSTORE ADD MLOAD PUSH1 0xE0 DUP5 ADD MSTORE DUP4 DUP2 ADD MLOAD PUSH2 0x100 DUP5 ADD MSTORE DUP1 MLOAD PUSH2 0x120 DUP5 ADD MSTORE PUSH1 0x60 DUP2 ADD MLOAD PUSH2 0x140 DUP5 ADD MSTORE ADD MLOAD PUSH2 0x160 DUP3 ADD MSTORE PUSH2 0x1971 PUSH2 0xD48 JUMP JUMPDEST SWAP4 DUP5 SWAP2 PUSH1 0x8 PUSH32 0xFFFFFFFFFFFFFFFFFFFFFFFFFFFFFFFFFFFFFFFFFFFFFFFFFFFFFFFFFFFFF830 GAS ADD STATICCALL SWAP2 MLOAD ISZERO ISZERO SWAP2 SWAP1 JUMP JUMPDEST SWAP1 DUP2 MLOAD DUP2 LT ISZERO PUSH2 0x179A JUMPI ADD PUSH1 0x20 ADD SWAP1 JUMP JUMPDEST PUSH2 0x19BB PUSH2 0x76F JUMP JUMPDEST PUSH1 0x14 DUP3 MLOAD SUB PUSH2 0x1AD6 JUMPI PUSH1 0x0 JUMPDEST PUSH1 0xA DUP2 LT PUSH2 0x1B74 JUMPI POP POP PUSH1 0xA JUMPDEST DUP2 MLOAD DUP2 LT ISZERO PUSH2 0x1B6D JUMPI PUSH2 0x1A38 PUSH2 0x1A13 PUSH2 0x19ED DUP4 DUP6 PUSH2 0x19A2 JUMP JUMPDEST MLOAD PUSH32 0xFF00000000000000000000000000000000000000000000000000000000000000 AND SWAP1 JUMP JUMPDEST PUSH32 0xFF00000000000000000000000000000000000000000000000000000000000000 AND SWAP1 JUMP JUMPDEST PUSH32 0x3000000000000000000000000000000000000000000000000000000000000000 DUP2 LT ISZERO SWAP1 DUP2 PUSH2 0x1B42 JUMPI JUMPDEST PUSH32 0x6100000000000000000000000000000000000000000000000000000000000000 DUP2 LT ISZERO DUP1 PUSH2 0x1B18 JUMPI JUMPDEST PUSH32 0x4100000000000000000000000000000000000000000000000000000000000000 DUP3 LT ISZERO SWAP2 DUP3 PUSH2 0x1AED JUMPI JUMPDEST POP DUP3 ISZERO PUSH2 0x1AE5 JUMPI JUMPDEST POP DUP2 ISZERO PUSH2 0x1ADD JUMPI JUMPDEST POP ISZERO PUSH2 0x1AD6 JUMPI PUSH1 0x1 ADD PUSH2 0x19D4 JUMP JUMPDEST POP POP PUSH1 0x0 SWAP1 JUMP JUMPDEST SWAP1 POP CODESIZE PUSH2 0x1AC8 JUMP JUMPDEST SWAP2 POP CODESIZE PUSH2 0x1AC0 JUMP JUMPDEST PUSH32 0x4600000000000000000000000000000000000000000000000000000000000000 LT ISZERO SWAP2 POP CODESIZE PUSH2 0x1AB8 JUMP JUMPDEST POP PUSH32 0x6600000000000000000000000000000000000000000000000000000000000000 DUP2 GT ISZERO PUSH2 0x1A8D JUMP JUMPDEST PUSH32 0x3900000000000000000000000000000000000000000000000000000000000000 DUP2 GT ISZERO SWAP2 POP PUSH2 0x1A63 JUMP JUMPDEST POP POP PUSH1 0x1 SWAP1 JUMP JUMPDEST PUSH2 0x1B81 PUSH2 0x19ED DUP3 DUP6 PUSH2 0x19A2 JUMP JUMPDEST PUSH32 0xFF00000000000000000000000000000000000000000000000000000000000000 PUSH2 0x1BB2 PUSH2 0x1A13 PUSH2 0x19ED DUP6 DUP8 PUSH2 0x19A2 JUMP JUMPDEST SWAP2 AND SUB PUSH2 0x1BC1 JUMPI PUSH1 0x1 ADD PUSH2 0x19C7 JUMP JUMPDEST POP POP POP PUSH1 0x0 SWAP1 JUMP JUMPDEST SWAP1 PUSH32 0x30644E72E131A029B85045B68181585D97816A916871CA8D3C208C16D87CFD47 SWAP2 DUP3 SUB SWAP2 DUP3 GT PUSH2 0xA82 JUMPI JUMP JUMPDEST SWAP1 PUSH2 0x1C00 PUSH2 0xD34 JUMP JUMPDEST SWAP2 PUSH32 0x30644E72E131A029B85045B68181585D97816A916871CA8D3C208C16D87CFD47 DUP1 DUP3 LT ISZERO PUSH2 0x1DC3 JUMPI DUP1 PUSH1 0x4 DUP2 DUP5 DUP1 MULMOD MULMOD SWAP1 PUSH1 0x1 SWAP2 DUP2 PUSH2 0x1C44 DUP2 DUP4 DUP7 ADDMOD SWAP3 PUSH2 0x1BC9 JUMP JUMPDEST DUP5 ADDMOD SWAP1 DUP3 DUP1 DUP1 DUP1 DUP1 PUSH25 0x16789AF3A83522EB353C98FC6B36D713D5D8D1CC5DFFFFFFA DUP2 DUP12 DUP2 PUSH2 0x1C75 DUP2 DUP12 DUP14 MULMOD PUSH2 0x2D17 JUMP JUMPDEST SWAP11 DUP12 SWAP3 MULMOD MULMOD MULMOD SWAP6 DUP2 DUP1 PUSH2 0x1C87 DUP10 PUSH2 0x1BC9 JUMP JUMPDEST SWAP9 DUP2 PUSH32 0x183227397098D014DC2822DB40C0AC2ECBC0B548B438E5469E10460B6C3E7EA3 SWAP11 DUP12 ADDMOD SWAP10 ADDMOD SWAP7 DUP1 MULMOD MULMOD DUP1 MULMOD PUSH32 0x10216F7BA065E00DE81AC1E7808072C9DD2B2385CD7B438469602EB24829A9BD MULMOD DUP6 ADDMOD SWAP1 DUP4 PUSH1 0x3 DUP2 DUP6 DUP2 DUP2 DUP1 MULMOD MULMOD ADDMOD SWAP4 DUP6 PUSH2 0x1CF0 DUP7 PUSH2 0x211A JUMP JUMPDEST PUSH1 0x0 SIGNEXTEND SUB PUSH2 0x1D69 JUMPI POP POP POP DUP6 MSTORE PUSH2 0x1D06 DUP2 PUSH2 0x2248 JUMP JUMPDEST SWAP1 PUSH1 0x20 DUP8 ADD MSTORE ISZERO PUSH2 0x1D36 JUMPI POP JUMPDEST PUSH1 0x20 DUP5 ADD SWAP2 DUP3 MLOAD SWAP2 DUP1 DUP4 AND SWAP2 AND SUB PUSH2 0x1D29 JUMPI POP POP JUMP JUMPDEST PUSH2 0x1D32 SWAP1 PUSH2 0x1BC9 JUMP JUMPDEST SWAP1 MSTORE JUMP JUMPDEST PUSH1 0x40 MLOAD PUSH32 0x396EC77100000000000000000000000000000000000000000000000000000000 DUP2 MSTORE PUSH1 0x4 DUP2 ADD SWAP2 SWAP1 SWAP2 MSTORE PUSH1 0x24 SWAP1 REVERT JUMPDEST SWAP2 SWAP4 POP SWAP2 POP DUP1 PUSH1 0x3 DUP2 DUP5 DUP2 DUP2 DUP1 MULMOD MULMOD ADDMOD SWAP3 DUP5 PUSH2 0x1D84 DUP6 PUSH2 0x211A JUMP JUMPDEST PUSH1 0x0 SIGNEXTEND SUB PUSH2 0x1DAA JUMPI POP POP DUP6 MSTORE PUSH2 0x1D99 DUP2 PUSH2 0x2248 JUMP JUMPDEST SWAP1 PUSH1 0x20 DUP8 ADD MSTORE ISZERO PUSH2 0x1D36 JUMPI POP PUSH2 0x1D13 JUMP JUMPDEST DUP2 SWAP4 POP PUSH1 0x3 SWAP3 POP DUP1 DUP9 MSTORE DUP2 DUP2 DUP1 MULMOD MULMOD ADDMOD PUSH2 0x1D99 DUP2 PUSH2 0x2248 JUMP JUMPDEST PUSH1 0x40 MLOAD PUSH32 0xD53E941500000000000000000000000000000000000000000000000000000000 DUP2 MSTORE PUSH1 0x4 DUP2 ADD DUP4 SWAP1 MSTORE PUSH1 0x24 SWAP1 REVERT JUMPDEST ISZERO PUSH2 0x1DFC JUMPI JUMP JUMPDEST PUSH32 0x4E487B7100000000000000000000000000000000000000000000000000000000 PUSH1 0x0 MSTORE PUSH1 0x1 PUSH1 0x4 MSTORE PUSH1 0x24 PUSH1 0x0 REVERT JUMPDEST SWAP8 SWAP5 SWAP8 SWAP7 SWAP6 SWAP7 DUP1 ISZERO DUP1 PUSH2 0x1F59 JUMPI JUMPDEST DUP1 PUSH2 0x1F51 JUMPI JUMPDEST DUP1 PUSH2 0x1F49 JUMPI JUMPDEST ISZERO PUSH2 0x1E9F JUMPI POP POP POP POP DUP1 ISZERO DUP1 PUSH2 0x1E97 JUMPI JUMPDEST DUP1 PUSH2 0x1E8F JUMPI JUMPDEST DUP1 PUSH2 0x1E87 JUMPI JUMPDEST ISZERO PUSH2 0x1E6E JUMPI JUMPDEST SWAP4 SWAP3 SWAP2 SWAP1 JUMP JUMPDEST PUSH2 0x1E82 PUSH2 0x1E7D DUP5 DUP7 DUP9 DUP6 PUSH2 0x29AA JUMP JUMPDEST PUSH2 0x1DF5 JUMP JUMPDEST PUSH2 0x1E68 JUMP JUMPDEST POP DUP3 ISZERO PUSH2 0x1E62 JUMP JUMPDEST POP DUP4 ISZERO PUSH2 0x1E5C JUMP JUMPDEST POP DUP5 ISZERO PUSH2 0x1E56 JUMP JUMPDEST DUP5 SWAP9 SWAP6 SWAP9 SWAP8 SWAP7 SWAP8 ISZERO DUP1 PUSH2 0x1F41 JUMPI JUMPDEST DUP1 PUSH2 0x1F39 JUMPI JUMPDEST DUP1 PUSH2 0x1F31 JUMPI JUMPDEST PUSH2 0x1F19 JUMPI SWAP2 PUSH2 0x1F11 SWAP8 SWAP6 SWAP4 SWAP2 PUSH2 0x1EEE SWAP8 SWAP6 SWAP4 PUSH2 0x1EDA PUSH2 0x1E7D DUP6 DUP6 DUP6 DUP6 PUSH2 0x29AA JUMP JUMPDEST PUSH2 0x1EE9 PUSH2 0x1E7D DUP10 DUP10 DUP10 DUP10 PUSH2 0x29AA JUMP JUMPDEST PUSH2 0x2A56 JUMP JUMPDEST DUP1 MLOAD SWAP1 PUSH1 0x20 DUP2 ADD MLOAD PUSH1 0x40 DUP3 ADD MLOAD PUSH1 0x60 DUP4 ADD MLOAD SWAP2 PUSH1 0xA0 PUSH1 0x80 DUP6 ADD MLOAD SWAP5 ADD MLOAD SWAP5 PUSH2 0x2C3F JUMP JUMPDEST SWAP3 SWAP4 SWAP2 SWAP3 SWAP1 SWAP2 JUMP JUMPDEST SWAP4 POP SWAP7 SWAP4 POP SWAP5 POP SWAP3 POP PUSH2 0x1E68 PUSH2 0x1E7D DUP5 DUP7 DUP9 DUP6 PUSH2 0x29AA JUMP JUMPDEST POP DUP8 ISZERO PUSH2 0x1EB9 JUMP JUMPDEST POP DUP7 ISZERO PUSH2 0x1EB3 JUMP JUMPDEST POP DUP6 ISZERO PUSH2 0x1EAD JUMP JUMPDEST POP DUP4 ISZERO PUSH2 0x1E45 JUMP JUMPDEST POP DUP3 ISZERO PUSH2 0x1E3F JUMP JUMPDEST POP DUP2 ISZERO PUSH2 0x1E39 JUMP JUMPDEST SWAP1 PUSH1 0x20 PUSH2 0x334 SWAP3 DUP2 DUP2 MSTORE ADD SWAP1 PUSH2 0x35A JUMP JUMPDEST PUSH1 0x40 MLOAD SWAP1 PUSH2 0x1F7F DUP3 PUSH2 0x1DC JUMP JUMPDEST PUSH1 0x88 DUP3 MSTORE PUSH1 0xA0 CALLDATASIZE PUSH1 0x20 DUP5 ADD CALLDATACOPY JUMP JUMPDEST PUSH1 0x40 MLOAD SWAP1 PUSH2 0x1F9A DUP3 PUSH2 0x1C0 JUMP JUMPDEST PUSH1 0x60 DUP1 DUP4 MSTORE CALLDATASIZE PUSH1 0x20 DUP5 ADD CALLDATACOPY JUMP JUMPDEST PUSH1 0x40 MLOAD SWAP1 PUSH2 0x1FB4 DUP3 PUSH2 0x183 JUMP JUMPDEST PUSH1 0xC0 DUP1 DUP4 MSTORE CALLDATASIZE PUSH1 0x20 DUP5 ADD CALLDATACOPY JUMP JUMPDEST PUSH32 0xFF00000000000000000000000000000000000000000000000000000000000000 SWAP3 PUSH2 0x200C PUSH1 0x20 DUP1 SWAP4 PUSH2 0x1FFE PUSH1 0x4 SWAP10 SWAP9 SWAP7 DUP3 DUP2 MLOAD SWAP5 DUP6 SWAP3 ADD PUSH2 0x337 JUMP JUMPDEST ADD SWAP2 DUP3 DUP2 MLOAD SWAP5 DUP6 SWAP3 ADD PUSH2 0x337 JUMP JUMPDEST ADD PUSH1 0x0 DUP2 MSTORE PUSH32 0x6000000000000000000000000000000000000000000000000000000000000000 PUSH1 0x1 DUP3 ADD MSTORE PUSH1 0x0 PUSH1 0x2 DUP3 ADD MSTORE PUSH2 0x2052 DUP3 MLOAD DUP1 SWAP4 PUSH1 0x20 PUSH1 0x3 DUP6 ADD SWAP2 ADD PUSH2 0x337 JUMP JUMPDEST ADD SWAP2 PUSH1 0xF8 SHL AND PUSH1 0x3 DUP3 ADD MSTORE ADD SWAP1 JUMP JUMPDEST SWAP2 PUSH1 0x22 SWAP4 SWAP3 PUSH32 0xFF00000000000000000000000000000000000000000000000000000000000000 SWAP3 DUP2 MSTORE PUSH32 0x100000000000000000000000000000000000000000000000000000000000000 PUSH1 0x20 DUP3 ADD MSTORE PUSH2 0x20C4 DUP3 MLOAD DUP1 SWAP4 PUSH1 0x20 PUSH1 0x21 DUP6 ADD SWAP2 ADD PUSH2 0x337 JUMP JUMPDEST ADD SWAP2 PUSH1 0xF8 SHL AND PUSH1 0x21 DUP3 ADD MSTORE ADD SWAP1 JUMP JUMPDEST PUSH1 0x22 SWAP5 SWAP4 SWAP2 DUP2 MSTORE PUSH32 0xFF00000000000000000000000000000000000000000000000000000000000000 DUP1 SWAP4 PUSH1 0xF8 SHL AND PUSH1 0x20 DUP3 ADD MSTORE PUSH2 0x20C4 DUP3 MLOAD DUP1 SWAP4 PUSH1 0x20 PUSH1 0x21 DUP6 ADD SWAP2 ADD PUSH2 0x337 JUMP JUMPDEST PUSH2 0x2122 PUSH2 0x1FA7 JUMP JUMPDEST SWAP1 PUSH1 0xC0 PUSH1 0x20 PUSH1 0x0 DUP3 DUP3 DUP7 ADD DUP4 DUP2 MSTORE DUP4 PUSH1 0x40 DUP9 ADD MSTORE DUP4 PUSH1 0x60 DUP9 ADD MSTORE DUP6 PUSH1 0x80 DUP9 ADD MSTORE PUSH32 0x183227397098D014DC2822DB40C0AC2ECBC0B548B438E5469E10460B6C3E7EA3 SWAP7 DUP8 PUSH1 0xA0 DUP3 ADD MSTORE PUSH32 0x30644E72E131A029B85045B68181585D97816A916871CA8D3C208C16D87CFD47 SWAP6 DUP7 SWAP2 ADD MSTORE PUSH1 0x5 GAS STATICCALL SWAP3 PUSH1 0x0 MLOAD SWAP4 ISZERO PUSH2 0x220C JUMPI POP POP PUSH32 0x30644E72E131A029B85045B68181585D97816A916871CA8D3C208C16D87CFD46 DUP3 EQ PUSH2 0x21E6 JUMPI DUP2 ISZERO ISZERO DUP1 PUSH2 0x21DB JUMPI JUMPDEST PUSH2 0x1D36 JUMPI POP PUSH1 0x0 SIGNEXTEND SWAP1 JUMP JUMPDEST POP PUSH1 0x1 DUP3 EQ ISZERO PUSH2 0x21D0 JUMP JUMPDEST POP POP PUSH32 0xFFFFFFFFFFFFFFFFFFFFFFFFFFFFFFFFFFFFFFFFFFFFFFFFFFFFFFFFFFFFFFFF SWAP1 JUMP JUMPDEST PUSH1 0x64 SWAP4 POP PUSH1 0x40 MLOAD SWAP3 PUSH32 0xC6DAF7AB00000000000000000000000000000000000000000000000000000000 DUP5 MSTORE PUSH1 0x4 DUP5 ADD MSTORE PUSH1 0x24 DUP4 ADD MSTORE PUSH1 0x44 DUP3 ADD MSTORE REVERT JUMPDEST SWAP1 PUSH32 0x30644E72E131A029B85045B68181585D97816A916871CA8D3C208C16D87CFD47 DUP1 DUP1 DUP1 DUP1 DUP1 DUP1 DUP1 DUP1 DUP1 DUP12 DUP2 DUP1 DUP1 DUP1 DUP1 DUP1 DUP1 DUP1 DUP1 DUP1 DUP1 DUP1 DUP1 DUP1 DUP1 DUP16 DUP2 DUP1 DUP3 DUP2 DUP1 DUP1 DUP1 DUP1 DUP1 DUP1 DUP1 DUP1 DUP1 DUP1 DUP1 SWAP15 DUP2 DUP1 DUP1 DUP1 DUP1 DUP6 DUP2 DUP1 DUP1 DUP1 DUP1 DUP1 DUP1 DUP8 DUP2 SWAP15 DUP3 DUP1 DUP1 DUP1 DUP1 DUP1 DUP7 DUP2 DUP1 DUP1 DUP1 DUP1 DUP1 DUP1 DUP1 SWAP15 DUP2 DUP1 DUP1 DUP1 DUP5 DUP2 DUP1 DUP1 DUP1 DUP1 DUP1 DUP1 DUP1 DUP1 DUP10 DUP2 SWAP16 DUP3 DUP1 DUP1 DUP1 DUP1 DUP1 DUP1 DUP1 DUP1 DUP1 DUP1 DUP1 DUP1 DUP14 DUP2 SWAP15 DUP3 DUP1 DUP1 DUP1 DUP1 DUP1 DUP1 DUP1 DUP9 DUP2 DUP1 DUP1 DUP1 DUP1 DUP1 SWAP15 DUP2 DUP1 DUP1 DUP1 DUP1 DUP1 DUP1 DUP1 DUP1 DUP10 DUP2 DUP1 DUP1 DUP1 DUP1 SWAP15 DUP2 DUP1 DUP1 DUP1 DUP1 DUP1 DUP1 DUP1 DUP1 DUP1 DUP1 DUP12 DUP2 DUP1 DUP1 SWAP15 DUP2 DUP1 DUP1 DUP1 DUP1 DUP1 DUP1 DUP1 DUP1 DUP1 DUP1 DUP12 DUP2 DUP1 DUP1 SWAP15 DUP2 DUP1 DUP1 DUP1 DUP1 DUP1 DUP1 DUP1 DUP1 DUP1 DUP11 DUP2 DUP1 DUP1 DUP1 SWAP15 DUP2 DUP1 DUP1 DUP1 DUP1 DUP1 DUP1 DUP8 DUP2 DUP1 DUP1 DUP1 DUP1 DUP1 DUP1 SWAP15 DUP2 DUP1 DUP1 DUP1 DUP1 DUP1 DUP7 DUP2 DUP1 DUP1 DUP1 DUP1 DUP1 DUP1 DUP1 SWAP15 DUP2 DUP1 DUP1 DUP1 DUP1 DUP1 DUP7 DUP2 DUP1 DUP1 DUP1 DUP1 DUP1 DUP1 DUP1 SWAP15 DUP2 DUP1 DUP1 DUP1 DUP1 DUP1 DUP7 DUP2 DUP1 DUP1 DUP1 DUP1 DUP1 DUP1 DUP1 SWAP15 DUP2 DUP1 DUP1 DUP1 DUP1 DUP1 DUP1 DUP1 DUP1 DUP1 DUP1 DUP1 DUP13 DUP2 DUP1 SWAP15 DUP2 DUP1 DUP1 DUP1 DUP1 DUP1 DUP1 DUP1 DUP1 DUP1 DUP1 DUP12 DUP2 DUP1 DUP1 SWAP15 DUP2 DUP1 DUP1 DUP1 DUP1 DUP1 DUP1 DUP8 DUP2 DUP1 DUP1 DUP1 DUP1 DUP1 DUP1 SWAP15 DUP2 DUP1 DUP1 DUP1 DUP1 DUP1 DUP1 DUP1 SWAP8 DUP2 DUP1 DUP1 DUP1 DUP1 DUP6 DUP2 DUP1 DUP1 DUP1 DUP1 DUP1 DUP1 DUP1 DUP1 DUP1 DUP1 DUP12 DUP2 DUP2 DUP1 MULMOD MULMOD DUP2 DUP13 DUP2 DUP2 DUP1 MULMOD MULMOD MULMOD DUP2 DUP1 DUP13 DUP2 DUP2 DUP1 MULMOD MULMOD DUP2 DUP14 DUP2 DUP2 DUP1 MULMOD MULMOD MULMOD MULMOD DUP2 DUP1 DUP1 DUP13 DUP2 DUP2 DUP1 MULMOD MULMOD DUP2 DUP14 DUP2 DUP2 DUP1 MULMOD MULMOD MULMOD DUP2 DUP13 DUP2 DUP1 DUP3 DUP2 DUP2 DUP1 MULMOD MULMOD SWAP2 DUP2 DUP2 DUP1 MULMOD MULMOD MULMOD MULMOD MULMOD DUP1 MULMOD DUP1 MULMOD DUP1 MULMOD DUP2 DUP1 DUP8 DUP2 DUP2 DUP1 MULMOD MULMOD SWAP2 DUP1 MULMOD MULMOD DUP1 MULMOD DUP1 MULMOD DUP1 MULMOD MULMOD DUP1 MULMOD DUP1 MULMOD DUP1 MULMOD DUP1 MULMOD MULMOD DUP1 MULMOD DUP1 MULMOD DUP1 MULMOD DUP1 MULMOD DUP2 DUP1 DUP13 DUP2 DUP1 DUP3 DUP1 MULMOD SWAP2 DUP2 DUP1 DUP3 DUP1 MULMOD SWAP2 DUP2 DUP2 DUP1 MULMOD MULMOD MULMOD MULMOD SWAP2 DUP1 MULMOD MULMOD DUP1 MULMOD DUP1 MULMOD DUP1 MULMOD DUP1 MULMOD DUP2 DUP1 DUP1 DUP9 DUP1 MULMOD DUP2 DUP1 DUP11 DUP1 MULMOD DUP2 DUP12 DUP2 DUP2 DUP1 MULMOD MULMOD MULMOD MULMOD SWAP2 DUP1 MULMOD MULMOD DUP1 MULMOD DUP1 MULMOD DUP1 MULMOD MULMOD DUP1 MULMOD DUP1 MULMOD DUP1 MULMOD DUP2 DUP1 DUP1 DUP11 DUP1 MULMOD DUP2 DUP1 DUP13 DUP1 MULMOD DUP2 DUP14 DUP2 DUP2 DUP1 MULMOD MULMOD MULMOD MULMOD SWAP2 DUP1 MULMOD MULMOD DUP1 MULMOD DUP1 MULMOD DUP1 MULMOD DUP1 MULMOD DUP1 MULMOD MULMOD DUP1 MULMOD DUP1 MULMOD DUP1 MULMOD DUP2 DUP1 DUP13 DUP2 DUP2 DUP1 MULMOD MULMOD SWAP2 DUP1 MULMOD MULMOD DUP1 MULMOD DUP1 MULMOD DUP1 MULMOD DUP1 MULMOD DUP1 MULMOD DUP1 MULMOD SWAP3 DUP2 DUP1 DUP1 DUP4 DUP2 DUP2 DUP1 MULMOD MULMOD DUP2 DUP5 DUP2 DUP2 DUP1 MULMOD MULMOD MULMOD SWAP2 DUP2 DUP1 DUP3 DUP1 MULMOD SWAP2 DUP2 DUP1 DUP3 DUP1 MULMOD SWAP2 DUP2 DUP2 DUP1 MULMOD MULMOD MULMOD MULMOD MULMOD SWAP2 DUP1 MULMOD MULMOD DUP1 MULMOD DUP1 MULMOD DUP1 MULMOD DUP1 MULMOD DUP1 MULMOD DUP1 MULMOD DUP1 MULMOD DUP1 MULMOD DUP1 MULMOD DUP2 DUP1 DUP14 DUP2 DUP1 DUP3 DUP1 MULMOD SWAP2 DUP2 DUP2 DUP1 MULMOD MULMOD MULMOD SWAP2 DUP1 MULMOD MULMOD DUP1 MULMOD DUP1 MULMOD DUP1 MULMOD DUP2 DUP1 DUP10 DUP2 DUP2 DUP1 MULMOD MULMOD SWAP2 DUP1 MULMOD MULMOD DUP1 MULMOD DUP1 MULMOD DUP1 MULMOD SWAP3 DUP2 DUP1 DUP3 DUP1 MULMOD SWAP2 DUP2 DUP1 DUP3 DUP1 MULMOD SWAP2 DUP2 DUP2 DUP1 MULMOD MULMOD MULMOD MULMOD SWAP2 DUP1 MULMOD MULMOD DUP1 MULMOD DUP1 MULMOD DUP1 MULMOD DUP1 MULMOD DUP1 MULMOD DUP1 MULMOD DUP2 DUP1 DUP1 DUP12 DUP1 MULMOD DUP2 DUP13 DUP2 DUP2 DUP1 MULMOD MULMOD MULMOD SWAP2 DUP1 MULMOD MULMOD DUP1 MULMOD DUP1 MULMOD DUP1 MULMOD DUP1 MULMOD DUP1 MULMOD DUP1 MULMOD MULMOD DUP1 MULMOD DUP1 MULMOD DUP1 MULMOD DUP1 MULMOD DUP1 MULMOD DUP1 MULMOD DUP2 DUP1 DUP1 DUP1 DUP13 DUP1 MULMOD DUP2 DUP14 DUP2 DUP2 DUP1 MULMOD MULMOD MULMOD DUP2 DUP13 DUP2 DUP1 DUP3 DUP2 DUP2 DUP1 MULMOD MULMOD SWAP2 DUP2 DUP2 DUP1 MULMOD MULMOD MULMOD MULMOD SWAP2 DUP1 MULMOD MULMOD DUP1 MULMOD DUP1 MULMOD DUP1 MULMOD DUP1 MULMOD SWAP3 DUP2 DUP1 DUP1 DUP4 DUP2 DUP2 DUP1 MULMOD MULMOD DUP2 DUP5 DUP2 DUP2 DUP1 MULMOD MULMOD MULMOD SWAP2 DUP2 DUP1 DUP3 DUP1 MULMOD SWAP2 DUP2 DUP1 DUP3 DUP1 MULMOD SWAP2 DUP2 DUP2 DUP1 MULMOD MULMOD MULMOD MULMOD MULMOD SWAP2 DUP1 MULMOD MULMOD DUP1 MULMOD DUP1 MULMOD DUP2 DUP1 DUP14 DUP2 DUP1 DUP3 DUP1 MULMOD SWAP2 DUP2 DUP2 DUP1 MULMOD MULMOD MULMOD SWAP2 DUP1 MULMOD MULMOD DUP1 MULMOD DUP1 MULMOD DUP1 MULMOD DUP1 MULMOD DUP1 MULMOD DUP1 MULMOD DUP1 MULMOD SWAP3 DUP2 DUP2 DUP1 MULMOD MULMOD SWAP2 DUP1 MULMOD MULMOD DUP1 MULMOD DUP1 MULMOD DUP1 MULMOD DUP1 MULMOD DUP1 MULMOD DUP1 MULMOD DUP1 MULMOD DUP1 MULMOD SWAP3 DUP2 DUP1 DUP3 DUP1 MULMOD SWAP2 DUP2 DUP2 DUP1 MULMOD MULMOD MULMOD SWAP2 DUP1 MULMOD MULMOD DUP1 MULMOD DUP1 MULMOD DUP2 DUP1 DUP14 DUP2 DUP2 DUP1 MULMOD MULMOD SWAP2 DUP1 MULMOD MULMOD DUP1 MULMOD DUP1 MULMOD DUP1 MULMOD DUP1 MULMOD DUP1 MULMOD DUP1 MULMOD DUP1 MULMOD SWAP3 DUP2 DUP1 DUP1 DUP4 DUP1 MULMOD DUP2 DUP5 DUP2 DUP2 DUP1 MULMOD MULMOD MULMOD SWAP2 DUP2 DUP1 DUP3 DUP2 DUP2 DUP1 MULMOD MULMOD SWAP2 DUP2 DUP2 DUP1 MULMOD MULMOD MULMOD MULMOD SWAP2 DUP1 MULMOD MULMOD DUP1 MULMOD DUP1 MULMOD DUP1 MULMOD DUP2 DUP1 DUP14 DUP2 DUP1 DUP1 DUP4 DUP1 MULMOD DUP2 DUP5 DUP2 DUP2 DUP1 MULMOD MULMOD MULMOD SWAP2 DUP2 DUP1 DUP3 DUP2 DUP2 DUP1 MULMOD MULMOD SWAP2 DUP2 DUP2 DUP1 MULMOD MULMOD MULMOD MULMOD SWAP2 DUP1 MULMOD MULMOD DUP1 MULMOD DUP1 MULMOD DUP1 MULMOD DUP1 MULMOD DUP2 DUP1 DUP1 DUP10 DUP1 MULMOD DUP2 DUP11 DUP2 DUP2 DUP1 MULMOD MULMOD MULMOD SWAP2 DUP1 MULMOD MULMOD DUP1 MULMOD DUP1 MULMOD SWAP3 DUP2 DUP1 DUP3 DUP1 MULMOD SWAP2 DUP2 DUP1 DUP3 DUP1 MULMOD SWAP2 DUP2 DUP2 DUP1 MULMOD MULMOD MULMOD MULMOD SWAP2 DUP1 MULMOD MULMOD DUP1 MULMOD DUP1 MULMOD DUP1 MULMOD DUP1 MULMOD DUP1 MULMOD DUP1 MULMOD DUP1 MULMOD DUP1 MULMOD DUP1 MULMOD DUP2 DUP1 DUP1 DUP1 DUP12 DUP1 MULMOD DUP2 DUP13 DUP2 DUP2 DUP1 MULMOD MULMOD MULMOD DUP2 DUP1 DUP13 DUP2 DUP2 DUP1 MULMOD MULMOD DUP2 DUP14 DUP2 DUP2 DUP1 MULMOD MULMOD MULMOD MULMOD SWAP2 DUP1 MULMOD MULMOD DUP1 MULMOD DUP1 MULMOD DUP1 MULMOD SWAP3 DUP2 DUP1 DUP3 DUP1 MULMOD SWAP2 DUP2 DUP2 DUP1 MULMOD MULMOD MULMOD SWAP2 DUP1 MULMOD MULMOD DUP1 MULMOD DUP1 MULMOD DUP1 MULMOD DUP1 MULMOD DUP2 DUP1 DUP14 DUP2 DUP1 DUP3 DUP2 DUP2 DUP1 MULMOD MULMOD SWAP2 DUP2 DUP1 DUP3 DUP2 DUP2 DUP1 MULMOD MULMOD SWAP2 DUP2 DUP2 DUP1 MULMOD MULMOD MULMOD MULMOD SWAP2 DUP1 MULMOD MULMOD DUP1 MULMOD DUP1 MULMOD DUP1 MULMOD DUP1 MULMOD DUP1 MULMOD DUP1 MULMOD DUP2 DUP1 DUP1 DUP1 DUP9 DUP1 MULMOD DUP2 DUP10 DUP2 DUP2 DUP1 MULMOD MULMOD MULMOD DUP2 DUP1 DUP10 DUP2 DUP2 DUP1 MULMOD MULMOD DUP2 DUP11 DUP2 DUP2 DUP1 MULMOD MULMOD MULMOD MULMOD SWAP2 DUP1 MULMOD MULMOD DUP1 MULMOD DUP1 MULMOD MULMOD DUP1 MULMOD DUP1 MULMOD DUP1 MULMOD DUP1 MULMOD DUP1 MULMOD DUP1 MULMOD SWAP3 DUP2 DUP1 DUP3 DUP1 MULMOD SWAP2 DUP2 DUP1 DUP3 DUP1 MULMOD SWAP2 DUP2 DUP2 DUP1 MULMOD MULMOD MULMOD MULMOD SWAP2 DUP1 MULMOD MULMOD DUP1 MULMOD DUP1 MULMOD DUP1 MULMOD DUP1 MULMOD DUP1 MULMOD DUP2 DUP1 DUP1 DUP13 DUP1 MULMOD DUP2 DUP14 DUP2 DUP1 DUP3 DUP1 MULMOD SWAP2 DUP2 DUP2 DUP1 MULMOD MULMOD MULMOD MULMOD SWAP2 DUP1 MULMOD MULMOD DUP1 MULMOD DUP1 MULMOD DUP1 MULMOD DUP1 MULMOD DUP2 DUP1 DUP1 DUP8 DUP1 MULMOD DUP2 DUP9 DUP2 DUP2 DUP1 MULMOD MULMOD MULMOD SWAP2 DUP1 MULMOD MULMOD DUP1 MULMOD DUP1 MULMOD MULMOD DUP1 MULMOD DUP1 MULMOD DUP1 MULMOD DUP1 MULMOD DUP1 MULMOD DUP1 MULMOD SWAP3 DUP2 DUP1 DUP1 DUP4 DUP2 DUP2 DUP1 MULMOD MULMOD DUP2 DUP5 DUP2 DUP2 DUP1 MULMOD MULMOD MULMOD SWAP2 DUP2 DUP1 DUP3 DUP1 MULMOD SWAP2 DUP2 DUP1 DUP3 DUP1 MULMOD SWAP2 DUP2 DUP2 DUP1 MULMOD MULMOD MULMOD MULMOD MULMOD SWAP2 DUP1 MULMOD MULMOD DUP1 MULMOD DUP1 MULMOD DUP1 MULMOD DUP1 MULMOD DUP1 MULMOD DUP2 DUP1 DUP1 DUP1 DUP12 DUP2 DUP2 DUP1 MULMOD MULMOD DUP2 DUP13 DUP2 DUP2 DUP1 MULMOD MULMOD MULMOD DUP2 DUP1 DUP13 DUP2 DUP2 DUP1 MULMOD MULMOD DUP2 DUP14 DUP2 DUP1 DUP3 DUP2 DUP2 DUP1 MULMOD MULMOD SWAP2 DUP2 DUP2 DUP1 MULMOD MULMOD MULMOD MULMOD MULMOD SWAP2 DUP1 MULMOD MULMOD DUP1 MULMOD DUP1 MULMOD DUP1 MULMOD DUP1 MULMOD DUP1 MULMOD MULMOD DUP1 MULMOD DUP1 MULMOD DUP1 MULMOD DUP1 MULMOD DUP1 MULMOD DUP1 MULMOD MULMOD DUP1 MULMOD DUP1 MULMOD DUP1 MULMOD DUP1 MULMOD SWAP3 DUP2 DUP2 DUP1 MULMOD MULMOD SWAP2 DUP1 MULMOD MULMOD DUP1 MULMOD DUP1 MULMOD DUP1 MULMOD DUP1 MULMOD DUP1 MULMOD DUP1 MULMOD DUP1 MULMOD DUP1 MULMOD DUP2 DUP1 DUP1 DUP13 DUP2 DUP1 DUP3 DUP1 MULMOD SWAP2 DUP2 DUP2 DUP1 MULMOD MULMOD MULMOD DUP2 DUP14 DUP2 DUP1 DUP3 DUP2 DUP2 DUP1 MULMOD MULMOD SWAP2 DUP2 DUP2 DUP1 MULMOD MULMOD MULMOD MULMOD SWAP2 DUP1 MULMOD MULMOD DUP1 MULMOD DUP1 MULMOD DUP2 DUP1 DUP9 DUP2 DUP2 DUP1 MULMOD MULMOD SWAP2 DUP1 MULMOD MULMOD DUP1 MULMOD DUP1 MULMOD SWAP3 DUP2 DUP2 DUP1 MULMOD MULMOD SWAP2 DUP1 MULMOD MULMOD DUP1 MULMOD DUP1 MULMOD DUP1 MULMOD DUP1 MULMOD DUP1 MULMOD DUP1 MULMOD DUP1 MULMOD DUP2 DUP1 DUP14 DUP2 DUP1 DUP1 DUP4 DUP2 DUP2 DUP1 MULMOD MULMOD DUP2 DUP5 DUP2 DUP2 DUP1 MULMOD MULMOD MULMOD SWAP2 DUP2 DUP1 DUP3 DUP2 DUP2 DUP1 MULMOD MULMOD SWAP2 DUP2 DUP1 DUP3 DUP2 DUP2 DUP1 MULMOD MULMOD SWAP2 DUP2 DUP2 DUP1 MULMOD MULMOD MULMOD MULMOD MULMOD SWAP2 DUP1 MULMOD MULMOD DUP1 MULMOD DUP1 MULMOD DUP1 MULMOD DUP2 DUP1 DUP1 DUP11 DUP2 DUP2 DUP1 MULMOD MULMOD DUP2 DUP1 DUP13 DUP2 DUP2 DUP1 MULMOD MULMOD DUP2 DUP14 DUP2 DUP2 DUP1 MULMOD MULMOD MULMOD MULMOD SWAP2 DUP1 MULMOD MULMOD DUP1 MULMOD DUP1 MULMOD DUP1 MULMOD SWAP3 DUP2 DUP1 DUP1 DUP4 DUP2 DUP2 DUP1 MULMOD MULMOD DUP2 DUP5 DUP2 DUP2 DUP1 MULMOD MULMOD MULMOD SWAP2 DUP2 DUP1 DUP3 DUP2 DUP2 DUP1 MULMOD MULMOD SWAP2 DUP2 DUP1 DUP3 DUP2 DUP2 DUP1 MULMOD MULMOD SWAP2 DUP2 DUP2 DUP1 MULMOD MULMOD MULMOD MULMOD MULMOD SWAP2 DUP1 MULMOD MULMOD DUP1 MULMOD DUP1 MULMOD DUP2 DUP1 DUP1 DUP13 DUP1 MULMOD DUP2 DUP14 DUP2 DUP2 DUP1 MULMOD MULMOD MULMOD SWAP2 DUP1 MULMOD MULMOD DUP1 MULMOD DUP1 MULMOD DUP1 MULMOD DUP1 MULMOD DUP2 DUP1 DUP1 DUP8 DUP2 DUP2 DUP1 MULMOD MULMOD DUP2 DUP1 DUP10 DUP2 DUP2 DUP1 MULMOD MULMOD DUP2 DUP11 DUP2 DUP2 DUP1 MULMOD MULMOD MULMOD MULMOD SWAP2 DUP1 MULMOD MULMOD DUP1 MULMOD SWAP2 PUSH32 0x30644E72E131A029B85045B68181585D97816A916871CA8D3C208C16D87CFD47 DUP4 DUP1 MULMOD EQ SWAP1 JUMP JUMPDEST PUSH2 0x29F2 PUSH2 0x29DD PUSH32 0x54FB1321278F57B36922D1D65A0ED99E1CCA4AC0E95DAEA09B8A53AB3DBC462 SWAP6 PUSH2 0x29FA SWAP6 DUP2 DUP2 PUSH2 0x3498 JUMP JUMPDEST SWAP4 SWAP1 SWAP3 PUSH2 0x29EC DUP3 DUP3 DUP2 DUP2 PUSH2 0x3498 JUMP JUMPDEST SWAP1 PUSH2 0x3498 JUMP JUMPDEST SWAP3 SWAP1 SWAP2 PUSH2 0x34DE JUMP JUMPDEST SWAP2 SWAP1 PUSH32 0x30644E72E131A029B85045B68181585D97816A916871CA8D3C208C16D87CFD47 SWAP2 DUP3 SWAP2 ADDMOD ISZERO SWAP2 DUP3 PUSH2 0x2A2D JUMPI POP POP SWAP1 JUMP JUMPDEST PUSH32 0x2FCD3AC2A640A154EB23960892A85A68F031CA0C8344B23A577DCF1052B9E775 SWAP2 SWAP3 POP ADDMOD ISZERO SWAP1 JUMP JUMPDEST SWAP5 SWAP8 SWAP7 SWAP8 SWAP6 SWAP2 SWAP3 SWAP4 SWAP6 PUSH2 0x2A72 PUSH2 0x2A6A PUSH2 0xD6D JUMP JUMPDEST SWAP10 DUP11 SWAP5 PUSH2 0x3450 JUMP JUMPDEST SWAP8 SWAP1 SWAP7 PUSH2 0x2A98 PUSH2 0x2A82 DUP9 DUP9 PUSH2 0x3450 JUMP JUMPDEST SWAP5 SWAP1 SWAP4 PUSH1 0x60 DUP9 ADD SWAP6 DUP7 MSTORE PUSH1 0x40 DUP9 ADD SWAP5 DUP6 MSTORE PUSH2 0x3450 JUMP JUMPDEST SWAP8 SWAP1 SWAP7 PUSH2 0x2AA5 DUP7 DUP5 PUSH2 0x3450 JUMP JUMPDEST PUSH1 0x80 PUSH1 0xA0 DUP11 SWAP10 SWAP4 SWAP10 ADD SWAP10 DUP3 DUP12 MSTORE ADD SWAP8 DUP1 DUP10 MSTORE DUP11 EQ SWAP1 DUP2 PUSH2 0x2C35 JUMPI JUMPDEST POP PUSH2 0x2BBB JUMPI POP POP POP POP POP POP POP POP PUSH1 0x40 DUP7 ADD SWAP3 DUP4 MLOAD SWAP5 PUSH1 0x60 DUP9 ADD SWAP6 DUP7 MLOAD SWAP2 PUSH2 0x2AE6 SWAP4 PUSH2 0x34DE JUMP JUMPDEST PUSH1 0x80 DUP9 ADD SWAP3 DUP4 MLOAD SWAP5 PUSH1 0xA0 DUP11 ADD SWAP6 DUP7 MLOAD SWAP2 PUSH2 0x2AFF SWAP4 PUSH2 0x34DE JUMP JUMPDEST PUSH2 0x2B0B DUP2 DUP4 DUP2 DUP2 PUSH2 0x3498 JUMP JUMPDEST DUP4 DUP4 DUP9 SWAP6 SWAP4 SWAP6 MLOAD DUP11 MLOAD PUSH2 0x2B1F SWAP2 DUP6 DUP10 PUSH2 0x3498 JUMP JUMPDEST SWAP4 PUSH2 0x2B2B SWAP4 SWAP2 SWAP8 PUSH2 0x3498 JUMP JUMPDEST SWAP9 SWAP1 SWAP8 PUSH2 0x2B38 DUP11 DUP11 PUSH2 0x3450 JUMP JUMPDEST SWAP1 SWAP3 MSTORE MSTORE DUP12 DUP8 DUP10 PUSH2 0x2B4B DUP9 DUP11 DUP2 DUP2 PUSH2 0x3498 JUMP JUMPDEST PUSH2 0x2B54 SWAP2 PUSH2 0x3450 JUMP JUMPDEST PUSH2 0x2B5E SWAP4 SWAP2 PUSH2 0x34DE JUMP JUMPDEST PUSH2 0x2B68 DUP5 DUP9 PUSH2 0x379B JUMP JUMPDEST SWAP2 PUSH2 0x2B72 SWAP4 PUSH2 0x34DE JUMP JUMPDEST DUP2 DUP2 SWAP7 PUSH2 0x2B7F SWAP4 SWAP7 PUSH2 0x3498 JUMP JUMPDEST SWAP1 SWAP2 PUSH1 0x20 ADD MSTORE DUP13 MSTORE PUSH2 0x2B90 SWAP4 PUSH2 0x34DE JUMP JUMPDEST SWAP2 PUSH2 0x2B9A SWAP4 PUSH2 0x3498 JUMP JUMPDEST SWAP2 SWAP1 SWAP3 DUP5 MLOAD DUP7 MLOAD SWAP2 PUSH2 0x2BAB SWAP4 PUSH2 0x3498 JUMP JUMPDEST SWAP2 PUSH2 0x2BB5 SWAP4 PUSH2 0x34DE JUMP JUMPDEST SWAP1 SWAP3 MSTORE MSTORE JUMP JUMPDEST SWAP4 SWAP8 POP SWAP4 SWAP8 POP SWAP4 SWAP8 DUP7 SWAP12 SWAP11 SWAP12 SWAP10 SWAP2 SWAP6 SWAP10 MLOAD EQ SWAP1 DUP2 PUSH2 0x2C2A JUMPI JUMPDEST POP PUSH2 0x2C0B JUMPI POP POP POP POP POP POP POP POP PUSH1 0x0 PUSH1 0xA0 DUP3 ADD MSTORE PUSH1 0x0 PUSH1 0x80 DUP3 ADD MSTORE PUSH1 0x0 PUSH1 0x60 DUP3 ADD MSTORE PUSH1 0x1 PUSH1 0x40 DUP3 ADD MSTORE PUSH1 0x0 PUSH1 0x20 DUP3 ADD MSTORE PUSH1 0x1 DUP2 MSTORE SWAP1 JUMP JUMPDEST PUSH2 0x2C14 SWAP4 PUSH2 0x3520 JUMP JUMPDEST SWAP1 SWAP3 SWAP7 SWAP4 SWAP8 SWAP2 SWAP5 SWAP9 MSTORE MSTORE MSTORE MSTORE PUSH1 0x20 DUP4 ADD MSTORE DUP2 MSTORE SWAP1 JUMP JUMPDEST SWAP1 POP DUP7 MLOAD EQ CODESIZE PUSH2 0x2BD4 JUMP JUMPDEST SWAP1 POP DUP11 EQ CODESIZE PUSH2 0x2AC0 JUMP JUMPDEST SWAP6 SWAP4 SWAP2 SWAP6 SWAP5 SWAP1 SWAP3 SWAP5 PUSH32 0x30644E72E131A029B85045B68181585D97816A916871CA8D3C208C16D87CFD47 SWAP3 PUSH1 0x40 MLOAD PUSH1 0x20 DUP2 MSTORE PUSH1 0x20 DUP1 DUP3 ADD MSTORE PUSH1 0x20 PUSH1 0x40 DUP3 ADD MSTORE DUP5 DUP1 DUP4 DUP1 MULMOD DUP2 DUP7 DUP1 MULMOD ADDMOD PUSH1 0x60 DUP3 ADD MSTORE PUSH32 0x30644E72E131A029B85045B68181585D97816A916871CA8D3C208C16D87CFD45 PUSH1 0x80 DUP3 ADD MSTORE DUP5 PUSH1 0xA0 DUP3 ADD MSTORE PUSH1 0x20 DUP2 PUSH1 0xC0 DUP2 PUSH1 0x5 PUSH32 0xFFFFFFFFFFFFFFFFFFFFFFFFFFFFFFFFFFFFFFFFFFFFFFFFFFFFFFFFFFFFF830 GAS ADD STATICCALL SWAP1 MLOAD SWAP1 ISZERO PUSH2 0x14F JUMPI DUP5 DUP2 DUP2 SWAP4 MULMOD SWAP4 MULMOD DUP4 SUB SWAP3 DUP4 GT PUSH2 0xA82 JUMPI DUP3 DUP3 PUSH2 0x2D13 SWAP6 PUSH2 0x2D0B SWAP4 PUSH2 0x3498 JUMP JUMPDEST SWAP6 SWAP1 SWAP7 PUSH2 0x3498 JUMP JUMPDEST SWAP1 SWAP2 JUMP JUMPDEST DUP1 PUSH32 0x30644E72E131A029B85045B68181585D97816A916871CA8D3C208C16D87CFD47 DUP1 DUP1 DUP1 DUP1 DUP1 DUP1 DUP1 DUP9 DUP2 DUP1 DUP1 DUP1 DUP1 SWAP15 DUP2 DUP1 DUP1 DUP1 DUP1 DUP1 DUP1 DUP1 DUP1 DUP10 DUP2 DUP1 DUP1 DUP1 DUP1 SWAP15 DUP2 DUP1 DUP1 DUP1 DUP1 DUP1 DUP1 DUP1 DUP9 DUP2 DUP1 DUP1 DUP1 DUP1 DUP1 SWAP15 DUP2 DUP1 DUP1 DUP1 DUP1 DUP1 DUP1 DUP1 DUP9 DUP2 DUP1 DUP1 DUP1 DUP1 DUP1 SWAP15 DUP2 DUP2 DUP2 DUP1 DUP1 DUP1 DUP1 DUP1 DUP1 DUP8 DUP2 DUP1 DUP1 DUP1 DUP1 SWAP15 DUP2 DUP1 DUP1 DUP1 DUP1 DUP1 DUP1 DUP8 DUP2 DUP1 DUP1 DUP1 DUP1 DUP1 DUP1 SWAP15 DUP2 DUP1 DUP3 DUP2 DUP1 DUP1 DUP1 DUP1 DUP1 DUP1 DUP1 DUP1 DUP1 DUP1 DUP1 SWAP15 DUP2 DUP1 DUP3 DUP2 DUP1 DUP1 DUP1 DUP1 DUP1 DUP1 DUP1 DUP1 DUP10 DUP2 DUP1 SWAP15 DUP2 DUP1 DUP1 DUP1 DUP1 DUP1 DUP1 DUP1 DUP1 DUP1 DUP1 DUP1 DUP1 DUP14 DUP2 SWAP15 DUP3 DUP1 DUP1 DUP1 DUP1 DUP1 DUP1 DUP1 DUP1 DUP1 DUP1 DUP1 DUP1 DUP1 DUP1 SWAP15 DUP1 DUP3 DUP1 DUP1 DUP1 DUP1 DUP1 DUP1 DUP1 DUP1 DUP1 DUP1 DUP1 DUP1 DUP1 SWAP15 DUP1 DUP3 DUP1 DUP1 DUP1 DUP1 DUP1 DUP1 DUP1 DUP1 DUP1 DUP1 DUP1 DUP1 DUP14 DUP2 SWAP16 DUP3 DUP1 DUP1 DUP1 DUP1 DUP1 DUP1 DUP1 DUP1 DUP1 DUP11 DUP2 DUP1 DUP1 DUP1 SWAP15 DUP2 DUP1 DUP1 DUP1 DUP1 DUP1 DUP1 DUP1 DUP1 DUP10 DUP2 DUP1 DUP1 DUP1 DUP1 SWAP15 DUP2 DUP1 DUP1 DUP1 DUP1 DUP1 DUP1 DUP1 DUP1 DUP10 DUP2 DUP1 DUP1 DUP1 DUP1 SWAP15 DUP2 DUP1 DUP1 DUP1 DUP1 DUP1 DUP1 DUP1 DUP1 DUP10 DUP2 DUP1 DUP1 DUP1 DUP1 SWAP15 DUP2 DUP1 DUP1 DUP1 DUP1 DUP1 DUP1 DUP1 DUP1 DUP1 DUP1 DUP1 DUP1 DUP1 DUP1 SWAP15 DUP1 DUP3 DUP1 DUP1 DUP1 DUP1 DUP1 DUP1 DUP1 DUP1 DUP1 DUP1 DUP1 DUP1 DUP14 DUP2 SWAP16 DUP3 DUP1 DUP1 DUP1 DUP1 DUP1 DUP1 DUP1 DUP1 DUP10 DUP2 DUP1 DUP1 DUP1 DUP1 SWAP15 DUP2 DUP1 DUP1 DUP1 DUP1 DUP1 DUP1 DUP1 DUP1 DUP1 SWAP10 DUP2 DUP1 DUP1 DUP1 DUP1 DUP6 DUP2 DUP1 DUP1 DUP1 DUP1 DUP1 DUP1 DUP1 DUP1 DUP1 DUP1 DUP12 DUP2 DUP2 DUP1 MULMOD MULMOD DUP2 DUP13 DUP2 DUP2 DUP1 MULMOD MULMOD MULMOD DUP2 DUP1 DUP13 DUP2 DUP2 DUP1 MULMOD MULMOD DUP2 DUP14 DUP2 DUP2 DUP1 MULMOD MULMOD MULMOD MULMOD DUP2 DUP1 DUP1 DUP13 DUP2 DUP2 DUP1 MULMOD MULMOD DUP2 DUP14 DUP2 DUP2 DUP1 MULMOD MULMOD MULMOD DUP2 DUP13 DUP2 DUP1 DUP3 DUP2 DUP2 DUP1 MULMOD MULMOD SWAP2 DUP2 DUP2 DUP1 MULMOD MULMOD MULMOD MULMOD MULMOD DUP1 MULMOD DUP1 MULMOD DUP1 MULMOD DUP2 DUP1 DUP8 DUP2 DUP2 DUP1 MULMOD MULMOD SWAP2 DUP1 MULMOD MULMOD DUP1 MULMOD DUP1 MULMOD DUP1 MULMOD MULMOD DUP1 MULMOD DUP1 MULMOD DUP1 MULMOD DUP1 MULMOD MULMOD DUP1 MULMOD DUP1 MULMOD DUP1 MULMOD DUP1 MULMOD DUP2 DUP1 DUP13 DUP2 DUP1 DUP3 DUP1 MULMOD SWAP2 DUP2 DUP1 DUP3 DUP1 MULMOD SWAP2 DUP2 DUP2 DUP1 MULMOD MULMOD MULMOD MULMOD SWAP2 DUP1 MULMOD MULMOD DUP1 MULMOD DUP1 MULMOD DUP1 MULMOD DUP1 MULMOD DUP2 DUP1 DUP1 DUP9 DUP1 MULMOD DUP2 DUP1 DUP11 DUP1 MULMOD DUP2 DUP12 DUP2 DUP2 DUP1 MULMOD MULMOD MULMOD MULMOD SWAP2 DUP1 MULMOD MULMOD DUP1 MULMOD DUP1 MULMOD DUP1 MULMOD MULMOD DUP1 MULMOD DUP1 MULMOD DUP1 MULMOD DUP2 DUP1 DUP1 DUP11 DUP1 MULMOD DUP2 DUP1 DUP13 DUP1 MULMOD DUP2 DUP14 DUP2 DUP2 DUP1 MULMOD MULMOD MULMOD MULMOD SWAP2 DUP1 MULMOD MULMOD DUP1 MULMOD DUP1 MULMOD DUP1 MULMOD DUP1 MULMOD DUP1 MULMOD MULMOD DUP1 MULMOD DUP1 MULMOD DUP1 MULMOD DUP2 DUP1 DUP13 DUP2 DUP2 DUP1 MULMOD MULMOD SWAP2 DUP1 MULMOD MULMOD DUP1 MULMOD DUP1 MULMOD DUP1 MULMOD DUP1 MULMOD DUP1 MULMOD DUP1 MULMOD SWAP3 DUP2 DUP1 DUP1 DUP4 DUP2 DUP2 DUP1 MULMOD MULMOD DUP2 DUP5 DUP2 DUP2 DUP1 MULMOD MULMOD MULMOD SWAP2 DUP2 DUP1 DUP3 DUP1 MULMOD SWAP2 DUP2 DUP1 DUP3 DUP1 MULMOD SWAP2 DUP2 DUP2 DUP1 MULMOD MULMOD MULMOD MULMOD MULMOD SWAP2 DUP1 MULMOD MULMOD DUP1 MULMOD DUP1 MULMOD DUP1 MULMOD DUP1 MULMOD DUP1 MULMOD DUP1 MULMOD DUP1 MULMOD DUP1 MULMOD DUP1 MULMOD DUP2 DUP1 DUP14 DUP2 DUP1 DUP3 DUP1 MULMOD SWAP2 DUP2 DUP2 DUP1 MULMOD MULMOD MULMOD SWAP2 DUP1 MULMOD MULMOD DUP1 MULMOD DUP1 MULMOD DUP1 MULMOD DUP2 DUP1 DUP10 DUP2 DUP2 DUP1 MULMOD MULMOD SWAP2 DUP1 MULMOD MULMOD DUP1 MULMOD DUP1 MULMOD DUP1 MULMOD SWAP3 DUP2 DUP1 DUP3 DUP1 MULMOD SWAP2 DUP2 DUP1 DUP3 DUP1 MULMOD SWAP2 DUP2 DUP2 DUP1 MULMOD MULMOD MULMOD MULMOD SWAP2 DUP1 MULMOD MULMOD DUP1 MULMOD DUP1 MULMOD DUP1 MULMOD DUP1 MULMOD DUP1 MULMOD DUP1 MULMOD DUP2 DUP1 DUP1 DUP12 DUP1 MULMOD DUP2 DUP13 DUP2 DUP2 DUP1 MULMOD MULMOD MULMOD SWAP2 DUP1 MULMOD MULMOD DUP1 MULMOD DUP1 MULMOD DUP1 MULMOD DUP1 MULMOD DUP1 MULMOD DUP1 MULMOD MULMOD DUP1 MULMOD DUP1 MULMOD DUP1 MULMOD DUP1 MULMOD DUP1 MULMOD DUP1 MULMOD DUP2 DUP1 DUP1 DUP1 DUP13 DUP1 MULMOD DUP2 DUP14 DUP2 DUP2 DUP1 MULMOD MULMOD MULMOD DUP2 DUP13 DUP2 DUP1 DUP3 DUP2 DUP2 DUP1 MULMOD MULMOD SWAP2 DUP2 DUP2 DUP1 MULMOD MULMOD MULMOD MULMOD SWAP2 DUP1 MULMOD MULMOD DUP1 MULMOD DUP1 MULMOD DUP1 MULMOD DUP1 MULMOD SWAP3 DUP2 DUP1 DUP1 DUP4 DUP2 DUP2 DUP1 MULMOD MULMOD DUP2 DUP5 DUP2 DUP2 DUP1 MULMOD MULMOD MULMOD SWAP2 DUP2 DUP1 DUP3 DUP1 MULMOD SWAP2 DUP2 DUP1 DUP3 DUP1 MULMOD SWAP2 DUP2 DUP2 DUP1 MULMOD MULMOD MULMOD MULMOD MULMOD SWAP2 DUP1 MULMOD MULMOD DUP1 MULMOD DUP1 MULMOD DUP2 DUP1 DUP14 DUP2 DUP1 DUP3 DUP1 MULMOD SWAP2 DUP2 DUP2 DUP1 MULMOD MULMOD MULMOD SWAP2 DUP1 MULMOD MULMOD DUP1 MULMOD DUP1 MULMOD DUP1 MULMOD DUP1 MULMOD DUP1 MULMOD DUP1 MULMOD DUP1 MULMOD SWAP3 DUP2 DUP2 DUP1 MULMOD MULMOD SWAP2 DUP1 MULMOD MULMOD DUP1 MULMOD DUP1 MULMOD DUP1 MULMOD DUP1 MULMOD DUP1 MULMOD DUP1 MULMOD DUP1 MULMOD DUP1 MULMOD SWAP3 DUP2 DUP1 DUP3 DUP1 MULMOD SWAP2 DUP2 DUP2 DUP1 MULMOD MULMOD MULMOD SWAP2 DUP1 MULMOD MULMOD DUP1 MULMOD DUP1 MULMOD DUP2 DUP1 DUP14 DUP2 DUP2 DUP1 MULMOD MULMOD SWAP2 DUP1 MULMOD MULMOD DUP1 MULMOD DUP1 MULMOD DUP1 MULMOD DUP1 MULMOD DUP1 MULMOD DUP1 MULMOD DUP1 MULMOD SWAP3 DUP2 DUP1 DUP1 DUP4 DUP1 MULMOD DUP2 DUP5 DUP2 DUP2 DUP1 MULMOD MULMOD MULMOD SWAP2 DUP2 DUP1 DUP3 DUP2 DUP2 DUP1 MULMOD MULMOD SWAP2 DUP2 DUP2 DUP1 MULMOD MULMOD MULMOD MULMOD SWAP2 DUP1 MULMOD MULMOD DUP1 MULMOD DUP1 MULMOD DUP1 MULMOD DUP2 DUP1 DUP14 DUP2 DUP1 DUP1 DUP4 DUP1 MULMOD DUP2 DUP5 DUP2 DUP2 DUP1 MULMOD MULMOD MULMOD SWAP2 DUP2 DUP1 DUP3 DUP2 DUP2 DUP1 MULMOD MULMOD SWAP2 DUP2 DUP2 DUP1 MULMOD MULMOD MULMOD MULMOD SWAP2 DUP1 MULMOD MULMOD DUP1 MULMOD DUP1 MULMOD DUP1 MULMOD DUP1 MULMOD DUP2 DUP1 DUP1 DUP10 DUP1 MULMOD DUP2 DUP11 DUP2 DUP2 DUP1 MULMOD MULMOD MULMOD SWAP2 DUP1 MULMOD MULMOD DUP1 MULMOD DUP1 MULMOD SWAP3 DUP2 DUP1 DUP3 DUP1 MULMOD SWAP2 DUP2 DUP1 DUP3 DUP1 MULMOD SWAP2 DUP2 DUP2 DUP1 MULMOD MULMOD MULMOD MULMOD SWAP2 DUP1 MULMOD MULMOD DUP1 MULMOD DUP1 MULMOD DUP1 MULMOD DUP1 MULMOD DUP1 MULMOD DUP1 MULMOD DUP1 MULMOD DUP1 MULMOD DUP1 MULMOD DUP2 DUP1 DUP1 DUP1 DUP12 DUP1 MULMOD DUP2 DUP13 DUP2 DUP2 DUP1 MULMOD MULMOD MULMOD DUP2 DUP1 DUP13 DUP2 DUP2 DUP1 MULMOD MULMOD DUP2 DUP14 DUP2 DUP2 DUP1 MULMOD MULMOD MULMOD MULMOD SWAP2 DUP1 MULMOD MULMOD DUP1 MULMOD DUP1 MULMOD DUP1 MULMOD SWAP3 DUP2 DUP1 DUP3 DUP1 MULMOD SWAP2 DUP2 DUP2 DUP1 MULMOD MULMOD MULMOD SWAP2 DUP1 MULMOD MULMOD DUP1 MULMOD DUP1 MULMOD DUP1 MULMOD DUP1 MULMOD DUP2 DUP1 DUP14 DUP2 DUP1 DUP3 DUP2 DUP2 DUP1 MULMOD MULMOD SWAP2 DUP2 DUP1 DUP3 DUP2 DUP2 DUP1 MULMOD MULMOD SWAP2 DUP2 DUP2 DUP1 MULMOD MULMOD MULMOD MULMOD SWAP2 DUP1 MULMOD MULMOD DUP1 MULMOD DUP1 MULMOD DUP1 MULMOD DUP1 MULMOD DUP1 MULMOD DUP1 MULMOD DUP2 DUP1 DUP1 DUP1 DUP9 DUP1 MULMOD DUP2 DUP10 DUP2 DUP2 DUP1 MULMOD MULMOD MULMOD DUP2 DUP1 DUP10 DUP2 DUP2 DUP1 MULMOD MULMOD DUP2 DUP11 DUP2 DUP2 DUP1 MULMOD MULMOD MULMOD MULMOD SWAP2 DUP1 MULMOD MULMOD DUP1 MULMOD DUP1 MULMOD MULMOD DUP1 MULMOD DUP1 MULMOD DUP1 MULMOD DUP1 MULMOD DUP1 MULMOD DUP1 MULMOD SWAP3 DUP2 DUP1 DUP3 DUP1 MULMOD SWAP2 DUP2 DUP1 DUP3 DUP1 MULMOD SWAP2 DUP2 DUP2 DUP1 MULMOD MULMOD MULMOD MULMOD SWAP2 DUP1 MULMOD MULMOD DUP1 MULMOD DUP1 MULMOD DUP1 MULMOD DUP1 MULMOD DUP1 MULMOD DUP2 DUP1 DUP1 DUP13 DUP1 MULMOD DUP2 DUP14 DUP2 DUP1 DUP3 DUP1 MULMOD SWAP2 DUP2 DUP2 DUP1 MULMOD MULMOD MULMOD MULMOD SWAP2 DUP1 MULMOD MULMOD DUP1 MULMOD DUP1 MULMOD DUP1 MULMOD DUP1 MULMOD DUP2 DUP1 DUP1 DUP8 DUP1 MULMOD DUP2 DUP9 DUP2 DUP2 DUP1 MULMOD MULMOD MULMOD SWAP2 DUP1 MULMOD MULMOD DUP1 MULMOD DUP1 MULMOD MULMOD DUP1 MULMOD DUP1 MULMOD DUP1 MULMOD DUP1 MULMOD DUP1 MULMOD DUP1 MULMOD SWAP3 DUP2 DUP1 DUP1 DUP4 DUP2 DUP2 DUP1 MULMOD MULMOD DUP2 DUP5 DUP2 DUP2 DUP1 MULMOD MULMOD MULMOD SWAP2 DUP2 DUP1 DUP3 DUP1 MULMOD SWAP2 DUP2 DUP1 DUP3 DUP1 MULMOD SWAP2 DUP2 DUP2 DUP1 MULMOD MULMOD MULMOD MULMOD MULMOD SWAP2 DUP1 MULMOD MULMOD DUP1 MULMOD DUP1 MULMOD DUP1 MULMOD DUP1 MULMOD DUP1 MULMOD DUP2 DUP1 DUP1 DUP1 DUP12 DUP2 DUP2 DUP1 MULMOD MULMOD DUP2 DUP13 DUP2 DUP2 DUP1 MULMOD MULMOD MULMOD DUP2 DUP1 DUP13 DUP2 DUP2 DUP1 MULMOD MULMOD DUP2 DUP14 DUP2 DUP1 DUP3 DUP2 DUP2 DUP1 MULMOD MULMOD SWAP2 DUP2 DUP2 DUP1 MULMOD MULMOD MULMOD MULMOD MULMOD SWAP2 DUP1 MULMOD MULMOD DUP1 MULMOD DUP1 MULMOD DUP1 MULMOD DUP1 MULMOD DUP1 MULMOD MULMOD DUP1 MULMOD DUP1 MULMOD DUP1 MULMOD DUP1 MULMOD DUP1 MULMOD DUP1 MULMOD MULMOD DUP1 MULMOD DUP1 MULMOD DUP1 MULMOD DUP1 MULMOD SWAP3 DUP2 DUP2 DUP1 MULMOD MULMOD SWAP2 DUP1 MULMOD MULMOD DUP1 MULMOD DUP1 MULMOD DUP1 MULMOD DUP1 MULMOD DUP1 MULMOD DUP1 MULMOD DUP1 MULMOD DUP1 MULMOD DUP2 DUP1 DUP1 DUP1 DUP11 DUP1 MULMOD DUP2 DUP12 DUP2 DUP2 DUP1 MULMOD MULMOD MULMOD DUP2 DUP1 DUP12 DUP2 DUP2 DUP1 MULMOD MULMOD DUP2 DUP13 DUP2 DUP2 DUP1 MULMOD MULMOD MULMOD MULMOD SWAP2 DUP1 MULMOD MULMOD DUP1 MULMOD DUP1 MULMOD SWAP3 DUP2 DUP2 DUP1 MULMOD MULMOD SWAP2 DUP1 MULMOD MULMOD DUP1 MULMOD DUP1 MULMOD DUP2 DUP1 DUP14 DUP2 DUP2 DUP1 MULMOD MULMOD SWAP2 DUP1 MULMOD MULMOD DUP1 MULMOD DUP1 MULMOD DUP1 MULMOD DUP1 MULMOD DUP1 MULMOD DUP1 MULMOD DUP1 MULMOD SWAP3 DUP2 DUP1 DUP1 DUP4 DUP2 DUP2 DUP1 MULMOD MULMOD DUP2 DUP5 DUP2 DUP2 DUP1 MULMOD MULMOD MULMOD SWAP2 DUP2 DUP1 DUP3 DUP2 DUP2 DUP1 MULMOD MULMOD SWAP2 DUP2 DUP1 DUP3 DUP2 DUP2 DUP1 MULMOD MULMOD SWAP2 DUP2 DUP2 DUP1 MULMOD MULMOD MULMOD MULMOD MULMOD SWAP2 DUP1 MULMOD MULMOD DUP1 MULMOD DUP1 MULMOD DUP1 MULMOD DUP2 DUP1 DUP14 DUP2 DUP1 DUP3 DUP2 DUP2 DUP1 MULMOD MULMOD SWAP2 DUP2 DUP1 DUP3 DUP2 DUP2 DUP1 MULMOD MULMOD SWAP2 DUP2 DUP2 DUP1 MULMOD MULMOD MULMOD MULMOD SWAP2 DUP1 MULMOD MULMOD DUP1 MULMOD DUP1 MULMOD DUP1 MULMOD DUP2 DUP1 DUP1 DUP1 DUP12 DUP2 DUP2 DUP1 MULMOD MULMOD DUP2 DUP13 DUP2 DUP2 DUP1 MULMOD MULMOD MULMOD DUP2 DUP1 DUP13 DUP2 DUP2 DUP1 MULMOD MULMOD DUP2 DUP14 DUP2 DUP1 DUP3 DUP2 DUP2 DUP1 MULMOD MULMOD SWAP2 DUP2 DUP2 DUP1 MULMOD MULMOD MULMOD MULMOD MULMOD SWAP2 DUP1 MULMOD MULMOD DUP1 MULMOD DUP1 MULMOD DUP2 DUP1 DUP1 DUP8 DUP1 MULMOD DUP2 DUP9 DUP2 DUP2 DUP1 MULMOD MULMOD MULMOD SWAP2 DUP1 MULMOD MULMOD DUP1 MULMOD DUP1 MULMOD MULMOD DUP1 MULMOD DUP1 MULMOD DUP1 MULMOD DUP1 MULMOD DUP1 MULMOD SWAP3 DUP2 DUP1 DUP3 DUP1 MULMOD SWAP2 DUP2 DUP2 DUP1 MULMOD MULMOD MULMOD SWAP2 DUP1 MULMOD MULMOD SWAP1 JUMP JUMPDEST SWAP2 SWAP1 SWAP2 PUSH32 0x30644E72E131A029B85045B68181585D97816A916871CA8D3C208C16D87CFD47 SWAP1 DUP2 PUSH1 0x0 DUP6 MULMOD DUP3 SUB DUP3 DUP2 GT PUSH2 0xA82 JUMPI PUSH1 0x0 DUP4 PUSH1 0x1 DUP2 DUP1 SWAP5 DUP2 DUP4 DUP9 MULMOD ADDMOD SWAP8 MULMOD SWAP3 MULMOD ADDMOD SWAP1 JUMP JUMPDEST SWAP1 SWAP4 SWAP3 SWAP2 PUSH32 0x30644E72E131A029B85045B68181585D97816A916871CA8D3C208C16D87CFD47 SWAP3 DUP4 DUP2 DUP8 MULMOD DUP5 SUB DUP5 DUP2 GT PUSH2 0xA82 JUMPI DUP3 DUP6 DUP1 SWAP5 SWAP3 DUP2 DUP1 SWAP5 DUP9 MULMOD ADDMOD SWAP8 MULMOD SWAP3 MULMOD ADDMOD SWAP1 JUMP JUMPDEST SWAP4 SWAP3 SWAP1 SWAP4 PUSH32 0x30644E72E131A029B85045B68181585D97816A916871CA8D3C208C16D87CFD47 SWAP3 DUP4 SUB SWAP2 DUP4 DUP4 GT PUSH2 0xA82 JUMPI DUP4 SUB SWAP2 DUP4 DUP4 GT PUSH2 0xA82 JUMPI DUP4 SWAP2 ADDMOD SWAP4 ADDMOD SWAP1 JUMP JUMPDEST SWAP3 SWAP4 DUP3 SWAP2 DUP6 PUSH32 0x30644E72E131A029B85045B68181585D97816A916871CA8D3C208C16D87CFD47 PUSH1 0x3 DUP4 MULMOD DUP3 DUP8 PUSH32 0x30644E72E131A029B85045B68181585D97816A916871CA8D3C208C16D87CFD47 PUSH1 0x3 DUP3 MULMOD SWAP3 PUSH2 0x357B SWAP4 PUSH2 0x3498 JUMP JUMPDEST SWAP1 SWAP7 PUSH2 0x3587 DUP4 DUP8 PUSH2 0x3450 JUMP JUMPDEST PUSH2 0x3597 DUP2 SWAP12 DUP4 SWAP10 DUP5 SWAP9 DUP5 SWAP7 PUSH2 0x3498 JUMP JUMPDEST PUSH2 0x35A1 SWAP4 SWAP2 PUSH2 0x3498 JUMP JUMPDEST SWAP4 SWAP1 SWAP8 PUSH2 0x35B0 DUP5 DUP12 DUP2 DUP2 PUSH2 0x3498 JUMP JUMPDEST PUSH32 0x30644E72E131A029B85045B68181585D97816A916871CA8D3C208C16D87CFD47 PUSH1 0x8 DUP9 MULMOD SWAP1 PUSH32 0x30644E72E131A029B85045B68181585D97816A916871CA8D3C208C16D87CFD47 PUSH1 0x8 DUP14 MULMOD SWAP1 PUSH2 0x3605 SWAP4 PUSH2 0x34DE JUMP JUMPDEST SWAP10 DUP2 SWAP12 DUP12 SWAP8 SWAP3 SWAP7 PUSH2 0x3618 DUP8 DUP12 DUP2 DUP2 PUSH2 0x3498 JUMP JUMPDEST SWAP10 DUP2 SWAP16 PUSH32 0x30644E72E131A029B85045B68181585D97816A916871CA8D3C208C16D87CFD47 PUSH1 0x4 DUP14 SWAP8 SWAP5 SWAP9 MULMOD SWAP3 PUSH1 0x4 PUSH32 0x30644E72E131A029B85045B68181585D97816A916871CA8D3C208C16D87CFD47 SWAP2 MULMOD SWAP3 PUSH2 0x3673 SWAP4 PUSH2 0x34DE JUMP JUMPDEST PUSH2 0x367D SWAP4 SWAP2 PUSH2 0x3498 JUMP JUMPDEST SWAP4 SWAP1 SWAP5 PUSH32 0x30644E72E131A029B85045B68181585D97816A916871CA8D3C208C16D87CFD47 PUSH1 0x8 DUP3 MULMOD SWAP2 PUSH32 0x30644E72E131A029B85045B68181585D97816A916871CA8D3C208C16D87CFD47 PUSH1 0x8 DUP3 MULMOD SWAP3 PUSH2 0x36D5 SWAP4 PUSH2 0x3498 JUMP JUMPDEST PUSH2 0x36DF SWAP4 SWAP2 PUSH2 0x3498 JUMP JUMPDEST SWAP2 PUSH2 0x36E9 SWAP4 PUSH2 0x34DE JUMP JUMPDEST SWAP7 SWAP1 SWAP8 PUSH1 0x2 PUSH32 0x30644E72E131A029B85045B68181585D97816A916871CA8D3C208C16D87CFD47 SWAP2 MULMOD SWAP3 PUSH1 0x2 PUSH32 0x30644E72E131A029B85045B68181585D97816A916871CA8D3C208C16D87CFD47 SWAP2 MULMOD SWAP3 PUSH2 0x3741 SWAP4 PUSH2 0x3498 JUMP JUMPDEST SWAP7 SWAP1 SWAP8 PUSH2 0x374D SWAP4 PUSH2 0x3498 JUMP JUMPDEST PUSH1 0x8 PUSH32 0x30644E72E131A029B85045B68181585D97816A916871CA8D3C208C16D87CFD47 SWAP2 MULMOD SWAP1 PUSH1 0x8 PUSH32 0x30644E72E131A029B85045B68181585D97816A916871CA8D3C208C16D87CFD47 SWAP2 MULMOD SWAP2 JUMP JUMPDEST PUSH1 0x2 DUP1 SWAP2 SWAP4 SWAP3 SWAP4 PUSH32 0x30644E72E131A029B85045B68181585D97816A916871CA8D3C208C16D87CFD47 SWAP3 DUP4 SWAP2 MULMOD SWAP4 MULMOD SWAP1 JUMP INVALID LOG2 PUSH5 0x6970667358 0x22 SLT KECCAK256 0x2D 0xDC DUP9 0xDC PUSH9 0x7DFC6128422793574B 0xCF SLT DUP13 0xD1 PUSH11 0x26B40522770723D9991DD7 EXP 0xC2 PUSH5 0x736F6C6343 STOP ADDMOD XOR STOP CALLER "},"methodIdentifiers":{"DID_PREFIX()":"4c0d9781","DST_REVOKE()":"e714023d","DST_UPDATE()":"356b9454","EXPECTED_DID_LENGTH()":"c76cd403","PREFIX_LENGTH()":"2418833f","nonces(string)":"b24fce88","register(string,bytes32,string,uint8)":"88b57e95","resolve(string)":"461a4478","revoke(string,uint256[2],uint8)":"46f3c1ed","update(string,bytes32,uint256[2],uint8)":"9d9dcabc"}}}}}