{"contracts/lib/TemporalPolicyLogic.sol":{"TemporalPolicyLogic":{"abi":[{"inputs":[{"components":[{"internalType":"uint256","name":"validAfter","type":"uint256"},{"internalType":"uint256","name":"validBefore","type":"uint256"},{"internalType":"uint32","name":"dailyStart","type":"uint32"},{"internalType":"uint32","name":"dailyEnd","type":"uint32"}],"internalType":"struct TemporalPolicyLogic.TemporalParams","name":"params","type":"tuple"}],"name":"evaluate","outputs":[{"internalType":"bool","name":"granted","type":"bool"}],"stateMutability":"view","type":"function"}],"evm":{"bytecode":{"linkReferences":{},"object":"6080806040523461001a576101069081610020823930815050f35b600080fdfe6080806040526004361015601257600080fd5b60003560e01c6328f0ed1814602657600080fd5b60807ffffffffffffffffffffffffffffffffffffffffffffffffffffffffffffffffc360112605e5760209060586063565b15158152f35b600080fd5b6004354210801560c6575b60b85760643563ffffffff90818116809103605e57604435918216809203605e57818111609d575b5050600190565b62015180420691821091821560bd575b505060b85738806096565b600090565b119050388060ad565b506024354211606e56fea264697066735822122047c047cc7d3b75f09577d7e4cb64840f811efe420ba74fce5cd22e6a6d27d62064736f6c63430008180033","opcodes":"PUSH1 0x80 DUP1 PUSH1 0x40 MSTORE CALLVALUE PUSH2 0x1A JUMPI PUSH2 0x106 SWAP1 DUP2 PUSH2 0x20 DUP3 CODECOPY ADDRESS DUP2 POP POP RETURN JUMPDEST PUSH1 0x0 DUP1 REVERT INVALID PUSH1 0x80 DUP1 PUSH1 0x40 MSTORE PUSH1 0x4 CALLDATASIZE LT ISZERO PUSH1 0x12 JUMPI PUSH1 0x0 DUP1 REVERT JUMPDEST PUSH1 0x0 CALLDATALOAD PUSH1 0xE0 SHR PUSH4 0x28F0ED18 EQ PUSH1 0x26 JUMPI PUSH1 0x0 DUP1 REVERT JUMPDEST PUSH1 0x80 PUSH32 0xFFFFFFFFFFFFFFFFFFFFFFFFFFFFFFFFFFFFFFFFFFFFFFFFFFFFFFFFFFFFFFFC CALLDATASIZE ADD SLT PUSH1 0x5E JUMPI PUSH1 0x20 SWAP1 PUSH1 0x58 PUSH1 0x63 JUMP JUMPDEST ISZERO ISZERO DUP2 MSTORE RETURN JUMPDEST PUSH1 0x0 DUP1 REVERT JUMPDEST PUSH1 0x4 CALLDATALOAD TIMESTAMP LT DUP1 ISZERO PUSH1 0xC6 JUMPI JUMPDEST PUSH1 0xB8 JUMPI PUSH1 0x64 CALLDATALOAD PUSH4 0xFFFFFFFF SWAP1 DUP2 DUP2 AND DUP1 SWAP2 SUB PUSH1 0x5E JUMPI PUSH1 0x44 CALLDATALOAD SWAP2 DUP3 AND DUP1 SWAP3 SUB PUSH1 0x5E JUMPI DUP2 DUP2 GT PUSH1 0x9D JUMPI JUMPDEST POP POP PUSH1 0x1 SWAP1 JUMP JUMPDEST PUSH3 0x15180 TIMESTAMP MOD SWAP2 DUP3 LT SWAP2 DUP3 ISZERO PUSH1 0xBD JUMPI JUMPDEST POP POP PUSH1 0xB8 JUMPI CODESIZE DUP1 PUSH1 0x96 JUMP JUMPDEST PUSH1 0x0 SWAP1 JUMP JUMPDEST GT SWAP1 POP CODESIZE DUP1 PUSH1 0xAD JUMP JUMPDEST POP PUSH1 0x24 CALLDATALOAD TIMESTAMP GT PUSH1 0x6E JUMP INVALID LOG2 PUSH5 0x6970667358 0x22 SLT KECCAK256 SELFBALANCE 0xC0 SELFBALANCE 0xCC PUSH30 0x3B75F09577D7E4CB64840F811EFE420BA74FCE5CD22E6A6D27D62064736F PUSH13 0x63430008180033000000000000 "},"methodIdentifiers":{"evaluate(TemporalPolicyLogic.TemporalParams)":"28f0ed18"}}}}}