{"contracts/lib/DIDAttributePolicyLogic.sol":{"DIDAttributePolicyLogic":{"abi":[{"inputs":[{"components":[{"internalType":"string","name":"name","type":"string"},{"internalType":"string[]","name":"values","type":"string[]"}],"internalType":"struct DIDAttributePolicyLogic.Attribute[]","name":"context","type":"tuple[]"},{"components":[{"internalType":"string","name":"attributeName","type":"string"},{"internalType":"string","name":"expectedValue","type":"string"}],"internalType":"struct DIDAttributePolicyLogic.AttributeRequirement","name":"requirement","type":"tuple"}],"name":"evaluate","outputs":[{"internalType":"bool","name":"granted","type":"bool"}],"stateMutability":"pure","type":"function"}],"evm":{"bytecode":{"linkReferences":{},"object":"6080806040523461001a576103809081610020823930815050f35b600080fdfe6080604052600436101561001257600080fd5b6000803560e01c630552ef921461002857600080fd5b7ffffffffffffffffffffffffffffffffffffffffffffffffffffffffffffffffc6040813601126100c5576004359167ffffffffffffffff908184116100c257366023850112156100c2578360040135928284116100c5573660248560051b870101116100c5576024359283116100c55760409083360301126100c25760206100b860048401856024880161022e565b6040519015158152f35b80fd5b5080fd5b919081101561010e5760051b810135907fffffffffffffffffffffffffffffffffffffffffffffffffffffffffffffffc181360301821215610109570190565b600080fd5b7f4e487b7100000000000000000000000000000000000000000000000000000000600052603260045260246000fd5b9035907fffffffffffffffffffffffffffffffffffffffffffffffffffffffffffffffe181360301821215610109570180359067ffffffffffffffff82116101095760200191813603831361010957565b92919267ffffffffffffffff918281116101ff5760405192601f82017fffffffffffffffffffffffffffffffffffffffffffffffffffffffffffffffe0908116603f01168401908111848210176101ff57604052829481845281830111610109578281602093846000960137010152565b7f4e487b7100000000000000000000000000000000000000000000000000000000600052604160045260246000fd5b909160005b8381106102435750505050600090565b61026161025a6102548387876100c9565b8061013d565b369161018e565b805160208092012061027661025a858061013d565b8281519101201461028b575b50600101610233565b6102968286866100c9565b81810135907fffffffffffffffffffffffffffffffffffffffffffffffffffffffffffffffe18136030182121561010957019081359167ffffffffffffffff83116101095781810190600584811b360383136101095760005b858110610300575050505050610282565b61031361025a8683851b8601018661013d565b85815191012061032861025a878b018b61013d565b8681519101201461033b576001016102ef565b5050505050505050505060019056fea2646970667358221220b48f4b7c29735be49e2de4c5b73b5ad9be08ab2b136677a157e645d71da1309464736f6c63430008180033","opcodes":"PUSH1 0x80 DUP1 PUSH1 0x40 MSTORE CALLVALUE PUSH2 0x1A JUMPI PUSH2 0x380 SWAP1 DUP2 PUSH2 0x20 DUP3 CODECOPY ADDRESS DUP2 POP POP RETURN JUMPDEST PUSH1 0x0 DUP1 REVERT INVALID PUSH1 0x80 PUSH1 0x40 MSTORE PUSH1 0x4 CALLDATASIZE LT ISZERO PUSH2 0x12 JUMPI PUSH1 0x0 DUP1 REVERT JUMPDEST PUSH1 0x0 DUP1 CALLDATALOAD PUSH1 0xE0 SHR PUSH4 0x552EF92 EQ PUSH2 0x28 JUMPI PUSH1 0x0 DUP1 REVERT JUMPDEST PUSH32 0xFFFFFFFFFFFFFFFFFFFFFFFFFFFFFFFFFFFFFFFFFFFFFFFFFFFFFFFFFFFFFFFC PUSH1 0x40 DUP2 CALLDATASIZE ADD SLT PUSH2 0xC5 JUMPI PUSH1 0x4 CALLDATALOAD SWAP2 PUSH8 0xFFFFFFFFFFFFFFFF SWAP1 DUP2 DUP5 GT PUSH2 0xC2 JUMPI CALLDATASIZE PUSH1 0x23 DUP6 ADD SLT ISZERO PUSH2 0xC2 JUMPI DUP4 PUSH1 0x4 ADD CALLDATALOAD SWAP3 DUP3 DUP5 GT PUSH2 0xC5 JUMPI CALLDATASIZE PUSH1 0x24 DUP6 PUSH1 0x5 SHL DUP8 ADD ADD GT PUSH2 0xC5 JUMPI PUSH1 0x24 CALLDATALOAD SWAP3 DUP4 GT PUSH2 0xC5 JUMPI PUSH1 0x40 SWAP1 DUP4 CALLDATASIZE SUB ADD SLT PUSH2 0xC2 JUMPI PUSH1 0x20 PUSH2 0xB8 PUSH1 0x4 DUP5 ADD DUP6 PUSH1 0x24 DUP9 ADD PUSH2 0x22E JUMP JUMPDEST PUSH1 0x40 MLOAD SWAP1 ISZERO ISZERO DUP2 MSTORE RETURN JUMPDEST DUP1 REVERT JUMPDEST POP DUP1 REVERT JUMPDEST SWAP2 SWAP1 DUP2 LT ISZERO PUSH2 0x10E JUMPI PUSH1 0x5 SHL DUP2 ADD CALLDATALOAD SWAP1 PUSH32 0xFFFFFFFFFFFFFFFFFFFFFFFFFFFFFFFFFFFFFFFFFFFFFFFFFFFFFFFFFFFFFFC1 DUP2 CALLDATASIZE SUB ADD DUP3 SLT ISZERO PUSH2 0x109 JUMPI ADD SWAP1 JUMP JUMPDEST PUSH1 0x0 DUP1 REVERT JUMPDEST PUSH32 0x4E487B7100000000000000000000000000000000000000000000000000000000 PUSH1 0x0 MSTORE PUSH1 0x32 PUSH1 0x4 MSTORE PUSH1 0x24 PUSH1 0x0 REVERT JUMPDEST SWAP1 CALLDATALOAD SWAP1 PUSH32 0xFFFFFFFFFFFFFFFFFFFFFFFFFFFFFFFFFFFFFFFFFFFFFFFFFFFFFFFFFFFFFFE1 DUP2 CALLDATASIZE SUB ADD DUP3 SLT ISZERO PUSH2 0x109 JUMPI ADD DUP1 CALLDATALOAD SWAP1 PUSH8 0xFFFFFFFFFFFFFFFF DUP3 GT PUSH2 0x109 JUMPI PUSH1 0x20 ADD SWAP2 DUP2 CALLDATASIZE SUB DUP4 SGT PUSH2 0x109 JUMPI JUMP JUMPDEST SWAP3 SWAP2 SWAP3 PUSH8 0xFFFFFFFFFFFFFFFF SWAP2 DUP3 DUP2 GT PUSH2 0x1FF JUMPI PUSH1 0x40 MLOAD SWAP3 PUSH1 0x1F DUP3 ADD PUSH32 0xFFFFFFFFFFFFFFFFFFFFFFFFFFFFFFFFFFFFFFFFFFFFFFFFFFFFFFFFFFFFFFE0 SWAP1 DUP2 AND PUSH1 0x3F ADD AND DUP5 ADD SWAP1 DUP2 GT DUP5 DUP3 LT OR PUSH2 0x1FF JUMPI PUSH1 0x40 MSTORE DUP3 SWAP5 DUP2 DUP5 MSTORE DUP2 DUP4 ADD GT PUSH2 0x109 JUMPI DUP3 DUP2 PUSH1 0x20 SWAP4 DUP5 PUSH1 0x0 SWAP7 ADD CALLDATACOPY ADD ADD MSTORE JUMP JUMPDEST PUSH32 0x4E487B7100000000000000000000000000000000000000000000000000000000 PUSH1 0x0 MSTORE PUSH1 0x41 PUSH1 0x4 MSTORE PUSH1 0x24 PUSH1 0x0 REVERT JUMPDEST SWAP1 SWAP2 PUSH1 0x0 JUMPDEST DUP4 DUP2 LT PUSH2 0x243 JUMPI POP POP POP POP PUSH1 0x0 SWAP1 JUMP JUMPDEST PUSH2 0x261 PUSH2 0x25A PUSH2 0x254 DUP4 DUP8 DUP8 PUSH2 0xC9 JUMP JUMPDEST DUP1 PUSH2 0x13D JUMP JUMPDEST CALLDATASIZE SWAP2 PUSH2 0x18E JUMP JUMPDEST DUP1 MLOAD PUSH1 0x20 DUP1 SWAP3 ADD KECCAK256 PUSH2 0x276 PUSH2 0x25A DUP6 DUP1 PUSH2 0x13D JUMP JUMPDEST DUP3 DUP2 MLOAD SWAP2 ADD KECCAK256 EQ PUSH2 0x28B JUMPI JUMPDEST POP PUSH1 0x1 ADD PUSH2 0x233 JUMP JUMPDEST PUSH2 0x296 DUP3 DUP7 DUP7 PUSH2 0xC9 JUMP JUMPDEST DUP2 DUP2 ADD CALLDATALOAD SWAP1 PUSH32 0xFFFFFFFFFFFFFFFFFFFFFFFFFFFFFFFFFFFFFFFFFFFFFFFFFFFFFFFFFFFFFFE1 DUP2 CALLDATASIZE SUB ADD DUP3 SLT ISZERO PUSH2 0x109 JUMPI ADD SWAP1 DUP2 CALLDATALOAD SWAP2 PUSH8 0xFFFFFFFFFFFFFFFF DUP4 GT PUSH2 0x109 JUMPI DUP2 DUP2 ADD SWAP1 PUSH1 0x5 DUP5 DUP2 SHL CALLDATASIZE SUB DUP4 SGT PUSH2 0x109 JUMPI PUSH1 0x0 JUMPDEST DUP6 DUP2 LT PUSH2 0x300 JUMPI POP POP POP POP POP PUSH2 0x282 JUMP JUMPDEST PUSH2 0x313 PUSH2 0x25A DUP7 DUP4 DUP6 SHL DUP7 ADD ADD DUP7 PUSH2 0x13D JUMP JUMPDEST DUP6 DUP2 MLOAD SWAP2 ADD KECCAK256 PUSH2 0x328 PUSH2 0x25A DUP8 DUP12 ADD DUP12 PUSH2 0x13D JUMP JUMPDEST DUP7 DUP2 MLOAD SWAP2 ADD KECCAK256 EQ PUSH2 0x33B JUMPI PUSH1 0x1 ADD PUSH2 0x2EF JUMP JUMPDEST POP POP POP POP POP POP POP POP POP POP PUSH1 0x1 SWAP1 JUMP INVALID LOG2 PUSH5 0x6970667358 0x22 SLT KECCAK256 0xB4 DUP16 0x4B PUSH29 0x29735BE49E2DE4C5B73B5AD9BE08AB2B136677A157E645D71DA1309464 PUSH20 0x6F6C634300081800330000000000000000000000 "},"methodIdentifiers":{"evaluate(DIDAttributePolicyLogic.Attribute[],DIDAttributePolicyLogic.AttributeRequirement)":"0552ef92"}}}}}