{"contracts/main/DataAnchoringContract.sol":{"DataAnchoringContract":{"abi":[{"inputs":[],"stateMutability":"nonpayable","type":"constructor"},{"inputs":[{"internalType":"uint256[4]","name":"input","type":"uint256[4]"}],"name":"BNAddFailed","type":"error"},{"inputs":[{"internalType":"bytes","name":"dst","type":"bytes"}],"name":"InvalidDSTLength","type":"error"},{"inputs":[{"internalType":"uint256","name":"x","type":"uint256"}],"name":"InvalidFieldElement","type":"error"},{"inputs":[{"internalType":"uint256","name":"noSqrt","type":"uint256"}],"name":"MapToPointFailed","type":"error"},{"inputs":[{"internalType":"uint256","name":"base","type":"uint256"},{"internalType":"uint256","name":"exponent","type":"uint256"},{"internalType":"uint256","name":"modulus","type":"uint256"}],"name":"ModExpFailed","type":"error"},{"anonymous":false,"inputs":[{"indexed":true,"internalType":"bytes32","name":"dataHash","type":"bytes32"},{"indexed":false,"internalType":"string","name":"cid","type":"string"},{"indexed":false,"internalType":"uint256","name":"expiry","type":"uint256"},{"indexed":false,"internalType":"string","name":"status","type":"string"}],"name":"DataAnchored","type":"event"},{"anonymous":false,"inputs":[{"indexed":true,"internalType":"bytes32","name":"dataHash","type":"bytes32"},{"indexed":false,"internalType":"string","name":"newStatus","type":"string"}],"name":"DataUpdated","type":"event"},{"inputs":[{"internalType":"bytes32","name":"dataHash","type":"bytes32"},{"internalType":"string","name":"cid","type":"string"},{"internalType":"uint256","name":"expiry","type":"uint256"},{"internalType":"string","name":"status","type":"string"}],"name":"anchor","outputs":[],"stateMutability":"nonpayable","type":"function"},{"inputs":[{"internalType":"uint256","name":"","type":"uint256"},{"internalType":"uint256","name":"","type":"uint256"}],"name":"blsPubKeys","outputs":[{"internalType":"uint256","name":"","type":"uint256"}],"stateMutability":"view","type":"function"},{"inputs":[{"internalType":"bytes32","name":"dataHash","type":"bytes32"}],"name":"get","outputs":[{"internalType":"bytes32","name":"dataHash_","type":"bytes32"},{"internalType":"string","name":"cid_","type":"string"},{"internalType":"uint256","name":"expiry_","type":"uint256"},{"internalType":"string","name":"status_","type":"string"}],"stateMutability":"view","type":"function"},{"inputs":[{"internalType":"uint256[2]","name":"aggSig","type":"uint256[2]"},{"internalType":"bytes32","name":"dataHash","type":"bytes32"},{"internalType":"string","name":"milestone","type":"string"},{"internalType":"string[]","name":"dids","type":"string[]"}],"name":"update","outputs":[],"stateMutability":"nonpayable","type":"function"}],"evm":{"bytecode":{"linkReferences":{},"object":"6080604052346200009e576200008e62000018620000a3565b600181526200003c60009182602082015260026040820152826060820152620000d9565b620000676200004a620000a3565b6003815282602082015260046040820152826060820152620000d9565b62000071620000a3565b9060058252806020830152600660408301526060820152620000d9565b6040516127579081620001628239f35b600080fd5b60405190608082016001600160401b03811183821017620000c357604052565b634e487b7160e01b600052604160045260246000fd5b6000805490680100000000000000008210156200014d57600192600183018083558310156200013957818052602092602083209060021b0190915b6004811062000124575050505050565b825160ff168282015591830191840162000114565b634e487b7160e01b82526032600452602482fd5b634e487b7160e01b81526041600452602490fdfe6080604052600436101561001257600080fd5b6000803560e01c9081633850ed511461005a575080634de5fa0c146100555780638eaa6ac0146100505763e3dfeffc1461004b57600080fd5b6103c6565b610327565b610260565b346101c45760807ffffffffffffffffffffffffffffffffffffffffffffffffffffffffffffffffc3601126101c45760043567ffffffffffffffff6024358181116101c0576100ad9036906004016101c7565b90604435926064359081116101bc576100ca9036906004016101c7565b8594919415610164577fe18a55b985f840385ab64291d5164d82da1b055135197b9e06882a73317b80739461015e9261010486151561045e565b61010f4282116104c3565b6101528383600361012a8c6000526001602052604060002090565b610135815415610528565b8c81556101468b8b60018401610665565b85600282015501610665565b604051958695866107d1565b0390a280f35b7f08c379a0000000000000000000000000000000000000000000000000000000006080526020608452601260a4527f4441433a207a65726f206461746148617368000000000000000000000000000060c45260646080fd5b8580fd5b8380fd5b80fd5b9181601f840112156101f55782359167ffffffffffffffff83116101f557602083818601950101116101f557565b600080fd5b9060009182548110156102335782805260021b7f290decd9548b62a8d60345a988386fc84ba6bc95484008f6362f93160ef3e563019190565b6024837f4e487b710000000000000000000000000000000000000000000000000000000081526032600452fd5b346101f55760407ffffffffffffffffffffffffffffffffffffffffffffffffffffffffffffffffc3601126101f557600435602435906000548110156101f5576102a9906101fa565b509060048110156101f5576020910154604051908152f35b60005b8381106102d45750506000910152565b81810151838201526020016102c4565b907fffffffffffffffffffffffffffffffffffffffffffffffffffffffffffffffe0601f602093610320815180928187528780880191016102c1565b0116010190565b346101f55760207ffffffffffffffffffffffffffffffffffffffffffffffffffffffffffffffffc3601126101f557600435600052600160205260406000208054610373811515610801565b6103c26002830154610393600361038c600187016108df565b95016108df565b6103af60405195869586526080602087015260808601906102e4565b91604085015283820360608501526102e4565b0390f35b346101f55760a07ffffffffffffffffffffffffffffffffffffffffffffffffffffffffffffffffc3601126101f557366044116101f55767ffffffffffffffff6064358181116101f55761041e9036906004016101c7565b90916084358181116101f557366023820112156101f55780600401359182116101f557602490369260051b0101116101f55761045c91604435610cce565b005b1561046557565b60646040517f08c379a000000000000000000000000000000000000000000000000000000000815260206004820152600e60248201527f4441433a20656d707479204349440000000000000000000000000000000000006044820152fd5b156104ca57565b60646040517f08c379a000000000000000000000000000000000000000000000000000000000815260206004820152601a60248201527f4441433a20657870697279206d757374206265206675747572650000000000006044820152fd5b1561052f57565b60646040517f08c379a000000000000000000000000000000000000000000000000000000000815260206004820152601560248201527f4441433a20616c726561647920616e63686f72656400000000000000000000006044820152fd5b7f4e487b7100000000000000000000000000000000000000000000000000000000600052604160045260246000fd5b90600182811c92168015610605575b60208310146105d657565b7f4e487b7100000000000000000000000000000000000000000000000000000000600052602260045260246000fd5b91607f16916105cb565b90601f811161061d57505050565b6000916000526020600020906020601f850160051c8301941061065b575b601f0160051c01915b82811061065057505050565b818155600101610644565b909250829061063b565b90929167ffffffffffffffff811161078d5761068b8161068584546105bc565b8461060f565b6000601f82116001146106e95781906106da9394956000926106de575b50507fffffffffffffffffffffffffffffffffffffffffffffffffffffffffffffffff8260011b9260031b1c19161790565b9055565b0135905038806106a8565b7fffffffffffffffffffffffffffffffffffffffffffffffffffffffffffffffe082169461071c84600052602060002090565b91805b87811061077557508360019596971061073d575b505050811b019055565b7fffffffffffffffffffffffffffffffffffffffffffffffffffffffffffffffff60f88560031b161c19910135169055388080610733565b9092602060018192868601358155019401910161071f565b61058d565b601f82602094937fffffffffffffffffffffffffffffffffffffffffffffffffffffffffffffffe0938186528686013760008582860101520116010190565b906107eb906107fe96949593606084526060840191610792565b9360208201526040818503910152610792565b90565b1561080857565b60646040517f08c379a000000000000000000000000000000000000000000000000000000000815260206004820152601160248201527f4441433a206e6f7420616e63686f7265640000000000000000000000000000006044820152fd5b6040810190811067ffffffffffffffff82111761078d57604052565b6080810190811067ffffffffffffffff82111761078d57604052565b90601f7fffffffffffffffffffffffffffffffffffffffffffffffffffffffffffffffe0910116810190811067ffffffffffffffff82111761078d57604052565b906040519182600082546108f2816105bc565b908184526020946001916001811690816000146109625750600114610923575b5050506109219250038361089e565b565b600090815285812095935091905b81831061094a5750506109219350820101388080610912565b85548884018501529485019487945091830191610931565b9150506109219593507fffffffffffffffffffffffffffffffffffffffffffffffffffffffffffffff0091501682840152151560051b820101388080610912565b6040519061092182610866565b60405190610180820182811067ffffffffffffffff82111761078d57604052565b604051906109de82610866565b600182527f7c000000000000000000000000000000000000000000000000000000000000006020830152565b908092918237016000815290565b91849392602095928152610a34825180938880850191016102c1565b01918483013701016000815290565b60405190610a5082610866565b600382527f44414300000000000000000000000000000000000000000000000000000000006020830152565b60405190610a8982610882565b6080368337565b60405190610a9d82610866565b6040368337565b604051906020820182811067ffffffffffffffff82111761078d576040526020368337565b60405191906000835b60048210610ae65750505061092182610882565b6001602081928554815201930191019091610ad2565b9060405191610b0a83610866565b826044916044116101f5576004905b828210610b2557505050565b8135815260209182019101610b19565b15610b3c57565b60646040517f08c379a000000000000000000000000000000000000000000000000000000000815260206004820152601660248201527f4441433a20424c5320766572696679206661696c6564000000000000000000006044820152fd5b919091825167ffffffffffffffff811161078d57610bbc8161068584546105bc565b602080601f8311600114610c17575081906106da939495600092610c0c5750507fffffffffffffffffffffffffffffffffffffffffffffffffffffffffffffffff8260011b9260031b1c19161790565b0151905038806106a8565b907fffffffffffffffffffffffffffffffffffffffffffffffffffffffffffffffe0831695610c4b85600052602060002090565b926000905b888210610ca557505083600195969710610c6e57505050811b019055565b01517fffffffffffffffffffffffffffffffffffffffffffffffffffffffffffffffff60f88460031b161c19169055388080610733565b80600185968294968601518155019501930190610c50565b9060206107fe9281815201906102e4565b9181610ce4846000526001602052604060002090565b91610cf183541515610801565b610d4f610cfc6109d1565b610d10836040519586938a60208601610a18565b0392610d427fffffffffffffffffffffffffffffffffffffffffffffffffffffffffffffffe09485810183528261089e565b610d4a610a43565b610e6b565b610d57610a7c565b600080545b808210610e15575050610e1094610dfe610dc995610e0495610db4610dae7f12f9d9ce5e1577cde337d32720563ae30a0fc8c24bfe12db04a281eead2b6cc59b97600397610da936610afc565b6111fe565b50610b35565b610df260405198899788936020850191610a0a565b7f5f76657269666965640000000000000000000000000000000000000000000000815260090190565b0390810185528461089e565b01610b9a565b60405191829182610cbd565b0390a2565b9091610e35600191610e2f610e29866101fa565b50610ac9565b90611179565b920190610d5c565b6080810192916000915b60048310610e5457505050565b600190825181526020809101920192019190610e47565b90610e74610a90565b506040808051610e8381610866565b36903782519260ff84116110e05760ff610e9b611580565b94169382519081610eb4878560209889850195866115f1565b0391610ee67fffffffffffffffffffffffffffffffffffffffffffffffffffffffffffffffe09384810183528261089e565b51902091835185810190610f0c81610f008a868987611691565b0385810183528261089e565b51902095610f186115ac565b936001926001945b6003861061106557505050505050610fc781856060610fce94015277ffffffffffffffffffffffffffffffffffffffffffffffff80601883015116907f30644e72e131a029b85045b68181585d97816a916871ca8d3c208c16d87cfd478092826048838260308901511681780100000000000000000000000000000000000000000000000080960908960151169289610fb76109a3565b878152019a169209088652611382565b9351611382565b91610fd7610a7c565b9284518452818501518285015280518385015201516060830152611023818460808560067ffffffffffffffffffffffffffffffffffffffffffffffffffffffffffffff8305a01fa1590565b61102c57505090565b6110619250519182917f128e3f0800000000000000000000000000000000000000000000000000000000835260048301610e3d565b0390fd5b909192938383879b8b7fffffffffffffffffffffffffffffffffffffffffffffffffffffffffffffffff8a6110c98e6110bd8d8a9f6110a66110ac9161174a565b60ff1690565b9251988993898986019c188c611703565b0389810187528661089e565b0160051b8b01015251902099019493929190610f20565b61106191519182917f26e4f9ba00000000000000000000000000000000000000000000000000000000835260048301610cbd565b1561111b57565b60646040517f08c379a000000000000000000000000000000000000000000000000000000000815260206004820152601260248201527f424c533a20473220616464206661696c656400000000000000000000000000006044820152fd5b61092190929192611188610a7c565b9360405191805183526020810151602084019081526060806040840151936040870194855201519381860194855280516080870152602081015160a0870152604081015160c0870152015160e085015260808461010081600c5afa93518752516020870152516040860152516060850152611114565b6040602092836101809695816112126109b0565b95805187520151828601527f198e9393920d483a7260bfb731fb5d25f1aa493335a9e71297e485b7aef312c2848601527f1800deef121f1e76426a00665e5c4479674322d4f75edadd46debd5cd992f6ed60608601527f275dc4a288d1afb3cbb1ac09187524c7db36395df7be3b99e673b13a075a65ec60808601527f1d9befcd05a5323e6da4d435f3b617cdb3af83285c2df711ef39c01571827f9d60a0860152805160c0860152015160e0840152838101516101008401528051610120840152606081015161014084015201516101608201526112ef610aa4565b93849160087ffffffffffffffffffffffffffffffffffffffffffffffffffffffffffffff8305a01fa915115159190565b7f4e487b7100000000000000000000000000000000000000000000000000000000600052601160045260246000fd5b907f30644e72e131a029b85045b68181585d97816a916871ca8d3c208c16d87cfd4791820391821161137d57565b611320565b9061138b610a90565b917f30644e72e131a029b85045b68181585d97816a916871ca8d3c208c16d87cfd478082101561154e57806004818480090990600191816113cf818386089261134f565b840890828080808078016789af3a83522eb353c98fc6b36d713d5d8d1cc5dffffffa818b81611400818b8d09611fe8565b9a8b920909099581806114128961134f565b98817f183227397098d014dc2822db40c0ac2ecbc0b548b438e5469e10460b6c3e7ea39a8b0899089680090980097f10216f7ba065e00de81ac1e7808072c9dd2b2385cd7b438469602eb24829a9bd098508908360038185818180090908938561147b86611758565b60000b036114f457505050855261149181611886565b906020870152156114c157505b60208401918251918083169116036114b4575050565b6114bd9061134f565b9052565b6040517f396ec7710000000000000000000000000000000000000000000000000000000081526004810191909152602490fd5b91935091508060038184818180090908928461150f85611758565b60000b03611535575050855261152481611886565b906020870152156114c1575061149e565b8193506003925080885281818009090861152481611886565b6040517fd53e941500000000000000000000000000000000000000000000000000000000815260048101839052602490fd5b6040519060c0820182811067ffffffffffffffff82111761078d576040526088825260a0366020840137565b604051906115b982610882565b6060808352366020840137565b6040519060e0820182811067ffffffffffffffff82111761078d5760405260c0808352366020840137565b7fff000000000000000000000000000000000000000000000000000000000000009261163c6020809361162e6004999896828151948592016102c1565b0191828151948592016102c1565b01600081527f60000000000000000000000000000000000000000000000000000000000000006001820152600060028201526116828251809360206003850191016102c1565b019160f81b1660038201520190565b91602293927fff000000000000000000000000000000000000000000000000000000000000009281527f010000000000000000000000000000000000000000000000000000000000000060208201526116f48251809360206021850191016102c1565b019160f81b1660218201520190565b602294939181527fff00000000000000000000000000000000000000000000000000000000000000809360f81b1660208201526116f48251809360206021850191016102c1565b600101908160011161137d57565b6117606115c6565b9060c060206000828286018381528360408801528360608801528560808801527f183227397098d014dc2822db40c0ac2ecbc0b548b438e5469e10460b6c3e7ea3968760a08201527f30644e72e131a029b85045b68181585d97816a916871ca8d3c208c16d87cfd47958691015260055afa92600051931561184a5750507f30644e72e131a029b85045b68181585d97816a916871ca8d3c208c16d87cfd4682146118245781151580611819575b6114c1575060000b90565b50600182141561180e565b50507fffffffffffffffffffffffffffffffffffffffffffffffffffffffffffffffff90565b60649350604051927fc6daf7ab000000000000000000000000000000000000000000000000000000008452600484015260248301526044820152fd5b907f30644e72e131a029b85045b68181585d97816a916871ca8d3c208c16d87cfd478080808080808080808b8180808080808080808080808080808f8180828180808080808080808080809e8180808080858180808080808087819e8280808080808681808080808080809e818080808481808080808080808089819f828080808080808080808080808d819e8280808080808080888180808080809e8180808080808080808981808080809e81808080808080808080808b8180809e81808080808080808080808b8180809e818080808080808080808a818080809e8180808080808087818080808080809e8180808080808681808080808080809e8180808080808681808080808080809e8180808080808681808080808080809e8180808080808080808080808c81809e81808080808080808080808b8180809e8180808080808087818080808080809e81808080808080809781808080808581808080808080808080808b8181800909818c81818009090981808c8181800909818d818180090909098180808c8181800909818d818180090909818c818082818180090991818180090909090980098009800981808781818009099180090980098009800909800980098009800909800980098009800981808c8180828009918180828009918181800909090991800909800980098009800981808088800981808a8009818b8181800909090991800909800980098009098009800980098180808a800981808c8009818d8181800909090991800909800980098009800980090980098009800981808c8181800909918009098009800980098009800980099281808083818180090981848181800909099181808280099181808280099181818009090909099180090980098009800980098009800980098009800981808d818082800991818180090909918009098009800980098180898181800909918009098009800980099281808280099181808280099181818009090909918009098009800980098009800980098180808b8009818c8181800909099180090980098009800980098009800909800980098009800980098009818080808c8009818d818180090909818c81808281818009099181818009090909918009098009800980098009928180808381818009098184818180090909918180828009918180828009918181800909090909918009098009800981808d818082800991818180090909918009098009800980098009800980098009928181800909918009098009800980098009800980098009800992818082800991818180090909918009098009800981808d818180090991800909800980098009800980098009800992818080838009818481818009090991818082818180090991818180090909099180090980098009800981808d81808083800981848181800909099181808281818009099181818009090909918009098009800980098009818080898009818a8181800909099180090980098009928180828009918180828009918181800909090991800909800980098009800980098009800980098009818080808b8009818c81818009090981808c8181800909818d81818009090909918009098009800980099281808280099181818009090991800909800980098009800981808d81808281818009099181808281818009099181818009090909918009098009800980098009800980098180808088800981898181800909098180898181800909818a81818009090909918009098009800909800980098009800980098009928180828009918180828009918181800909090991800909800980098009800980098180808c8009818d8180828009918181800909090991800909800980098009800981808087800981888181800909099180090980098009098009800980098009800980099281808083818180090981848181800909099181808280099181808280099181818009090909099180090980098009800980098009818080808b8181800909818c81818009090981808c8181800909818d818082818180090991818180090909090991800909800980098009800980090980098009800980098009800909800980098009800992818180090991800909800980098009800980098009800980098180808c818082800991818180090909818d8180828181800909918181800909090991800909800980098180888181800909918009098009800992818180090991800909800980098009800980098009800981808d8180808381818009098184818180090909918180828181800909918180828181800909918181800909090909918009098009800980098180808a818180090981808c8181800909818d818180090909099180090980098009800992818080838181800909818481818009090991818082818180090991818082818180090991818180090909090991800909800980098180808c8009818d8181800909099180090980098009800980098180808781818009098180898181800909818a81818009090909918009098009917f30644e72e131a029b85045b68181585d97816a916871ca8d3c208c16d87cfd478380091490565b807f30644e72e131a029b85045b68181585d97816a916871ca8d3c208c16d87cfd47808080808080808881808080809e8180808080808080808981808080809e8180808080808080888180808080809e8180808080808080888180808080809e8181818080808080808781808080809e8180808080808087818080808080809e8180828180808080808080808080809e8180828180808080808080808981809e818080808080808080808080808d819e8280808080808080808080808080809e8082808080808080808080808080809e80828080808080808080808080808d819f828080808080808080808a818080809e8180808080808080808981808080809e8180808080808080808981808080809e8180808080808080808981808080809e8180808080808080808080808080809e80828080808080808080808080808d819f8280808080808080808981808080809e818080808080808080809981808080808581808080808080808080808b8181800909818c81818009090981808c8181800909818d818180090909098180808c8181800909818d818180090909818c818082818180090991818180090909090980098009800981808781818009099180090980098009800909800980098009800909800980098009800981808c8180828009918180828009918181800909090991800909800980098009800981808088800981808a8009818b8181800909090991800909800980098009098009800980098180808a800981808c8009818d8181800909090991800909800980098009800980090980098009800981808c8181800909918009098009800980098009800980099281808083818180090981848181800909099181808280099181808280099181818009090909099180090980098009800980098009800980098009800981808d818082800991818180090909918009098009800980098180898181800909918009098009800980099281808280099181808280099181818009090909918009098009800980098009800980098180808b8009818c8181800909099180090980098009800980098009800909800980098009800980098009818080808c8009818d818180090909818c81808281818009099181818009090909918009098009800980098009928180808381818009098184818180090909918180828009918180828009918181800909090909918009098009800981808d818082800991818180090909918009098009800980098009800980098009928181800909918009098009800980098009800980098009800992818082800991818180090909918009098009800981808d818180090991800909800980098009800980098009800992818080838009818481818009090991818082818180090991818180090909099180090980098009800981808d81808083800981848181800909099181808281818009099181818009090909918009098009800980098009818080898009818a8181800909099180090980098009928180828009918180828009918181800909090991800909800980098009800980098009800980098009818080808b8009818c81818009090981808c8181800909818d81818009090909918009098009800980099281808280099181818009090991800909800980098009800981808d81808281818009099181808281818009099181818009090909918009098009800980098009800980098180808088800981898181800909098180898181800909818a81818009090909918009098009800909800980098009800980098009928180828009918180828009918181800909090991800909800980098009800980098180808c8009818d8180828009918181800909090991800909800980098009800981808087800981888181800909099180090980098009098009800980098009800980099281808083818180090981848181800909099181808280099181808280099181818009090909099180090980098009800980098009818080808b8181800909818c81818009090981808c8181800909818d81808281818009099181818009090909099180090980098009800980098009098009800980098009800980090980098009800980099281818009099180090980098009800980098009800980098009818080808a8009818b81818009090981808b8181800909818c818180090909099180090980098009928181800909918009098009800981808d81818009099180090980098009800980098009800980099281808083818180090981848181800909099181808281818009099181808281818009099181818009090909099180090980098009800981808d8180828181800909918180828181800909918181800909090991800909800980098009818080808b8181800909818c81818009090981808c8181800909818d8180828181800909918181800909090909918009098009800981808087800981888181800909099180090980098009098009800980098009800992818082800991818180090909918009099056fea264697066735822122088b4ccf21da4cc7e62ea2749d52dbfc0e356090d09ad8f5792fd802dd585aa5664736f6c63430008180033","opcodes":"PUSH1 0x80 PUSH1 0x40 MSTORE CALLVALUE PUSH3 0x9E JUMPI PUSH3 0x8E PUSH3 0x18 PUSH3 0xA3 JUMP JUMPDEST PUSH1 0x1 DUP2 MSTORE PUSH3 0x3C PUSH1 0x0 SWAP2 DUP3 PUSH1 0x20 DUP3 ADD MSTORE PUSH1 0x2 PUSH1 0x40 DUP3 ADD MSTORE DUP3 PUSH1 0x60 DUP3 ADD MSTORE PUSH3 0xD9 JUMP JUMPDEST PUSH3 0x67 PUSH3 0x4A PUSH3 0xA3 JUMP JUMPDEST PUSH1 0x3 DUP2 MSTORE DUP3 PUSH1 0x20 DUP3 ADD MSTORE PUSH1 0x4 PUSH1 0x40 DUP3 ADD MSTORE DUP3 PUSH1 0x60 DUP3 ADD MSTORE PUSH3 0xD9 JUMP JUMPDEST PUSH3 0x71 PUSH3 0xA3 JUMP JUMPDEST SWAP1 PUSH1 0x5 DUP3 MSTORE DUP1 PUSH1 0x20 DUP4 ADD MSTORE PUSH1 0x6 PUSH1 0x40 DUP4 ADD MSTORE PUSH1 0x60 DUP3 ADD MSTORE PUSH3 0xD9 JUMP JUMPDEST PUSH1 0x40 MLOAD PUSH2 0x2757 SWAP1 DUP2 PUSH3 0x162 DUP3 CODECOPY RETURN JUMPDEST PUSH1 0x0 DUP1 REVERT JUMPDEST PUSH1 0x40 MLOAD SWAP1 PUSH1 0x80 DUP3 ADD PUSH1 0x1 PUSH1 0x1 PUSH1 0x40 SHL SUB DUP2 GT DUP4 DUP3 LT OR PUSH3 0xC3 JUMPI PUSH1 0x40 MSTORE JUMP JUMPDEST PUSH4 0x4E487B71 PUSH1 0xE0 SHL PUSH1 0x0 MSTORE PUSH1 0x41 PUSH1 0x4 MSTORE PUSH1 0x24 PUSH1 0x0 REVERT JUMPDEST PUSH1 0x0 DUP1 SLOAD SWAP1 PUSH9 0x10000000000000000 DUP3 LT ISZERO PUSH3 0x14D JUMPI PUSH1 0x1 SWAP3 PUSH1 0x1 DUP4 ADD DUP1 DUP4 SSTORE DUP4 LT ISZERO PUSH3 0x139 JUMPI DUP2 DUP1 MSTORE PUSH1 0x20 SWAP3 PUSH1 0x20 DUP4 KECCAK256 SWAP1 PUSH1 0x2 SHL ADD SWAP1 SWAP2 JUMPDEST PUSH1 0x4 DUP2 LT PUSH3 0x124 JUMPI POP POP POP POP POP JUMP JUMPDEST DUP3 MLOAD PUSH1 0xFF AND DUP3 DUP3 ADD SSTORE SWAP2 DUP4 ADD SWAP2 DUP5 ADD PUSH3 0x114 JUMP JUMPDEST PUSH4 0x4E487B71 PUSH1 0xE0 SHL DUP3 MSTORE PUSH1 0x32 PUSH1 0x4 MSTORE PUSH1 0x24 DUP3 REVERT JUMPDEST PUSH4 0x4E487B71 PUSH1 0xE0 SHL DUP2 MSTORE PUSH1 0x41 PUSH1 0x4 MSTORE PUSH1 0x24 SWAP1 REVERT INVALID PUSH1 0x80 PUSH1 0x40 MSTORE PUSH1 0x4 CALLDATASIZE LT ISZERO PUSH2 0x12 JUMPI PUSH1 0x0 DUP1 REVERT JUMPDEST PUSH1 0x0 DUP1 CALLDATALOAD PUSH1 0xE0 SHR SWAP1 DUP2 PUSH4 0x3850ED51 EQ PUSH2 0x5A JUMPI POP DUP1 PUSH4 0x4DE5FA0C EQ PUSH2 0x55 JUMPI DUP1 PUSH4 0x8EAA6AC0 EQ PUSH2 0x50 JUMPI PUSH4 0xE3DFEFFC EQ PUSH2 0x4B JUMPI PUSH1 0x0 DUP1 REVERT JUMPDEST PUSH2 0x3C6 JUMP JUMPDEST PUSH2 0x327 JUMP JUMPDEST PUSH2 0x260 JUMP JUMPDEST CALLVALUE PUSH2 0x1C4 JUMPI PUSH1 0x80 PUSH32 0xFFFFFFFFFFFFFFFFFFFFFFFFFFFFFFFFFFFFFFFFFFFFFFFFFFFFFFFFFFFFFFFC CALLDATASIZE ADD SLT PUSH2 0x1C4 JUMPI PUSH1 0x4 CALLDATALOAD PUSH8 0xFFFFFFFFFFFFFFFF PUSH1 0x24 CALLDATALOAD DUP2 DUP2 GT PUSH2 0x1C0 JUMPI PUSH2 0xAD SWAP1 CALLDATASIZE SWAP1 PUSH1 0x4 ADD PUSH2 0x1C7 JUMP JUMPDEST SWAP1 PUSH1 0x44 CALLDATALOAD SWAP3 PUSH1 0x64 CALLDATALOAD SWAP1 DUP2 GT PUSH2 0x1BC JUMPI PUSH2 0xCA SWAP1 CALLDATASIZE SWAP1 PUSH1 0x4 ADD PUSH2 0x1C7 JUMP JUMPDEST DUP6 SWAP5 SWAP2 SWAP5 ISZERO PUSH2 0x164 JUMPI PUSH32 0xE18A55B985F840385AB64291D5164D82DA1B055135197B9E06882A73317B8073 SWAP5 PUSH2 0x15E SWAP3 PUSH2 0x104 DUP7 ISZERO ISZERO PUSH2 0x45E JUMP JUMPDEST PUSH2 0x10F TIMESTAMP DUP3 GT PUSH2 0x4C3 JUMP JUMPDEST PUSH2 0x152 DUP4 DUP4 PUSH1 0x3 PUSH2 0x12A DUP13 PUSH1 0x0 MSTORE PUSH1 0x1 PUSH1 0x20 MSTORE PUSH1 0x40 PUSH1 0x0 KECCAK256 SWAP1 JUMP JUMPDEST PUSH2 0x135 DUP2 SLOAD ISZERO PUSH2 0x528 JUMP JUMPDEST DUP13 DUP2 SSTORE PUSH2 0x146 DUP12 DUP12 PUSH1 0x1 DUP5 ADD PUSH2 0x665 JUMP JUMPDEST DUP6 PUSH1 0x2 DUP3 ADD SSTORE ADD PUSH2 0x665 JUMP JUMPDEST PUSH1 0x40 MLOAD SWAP6 DUP7 SWAP6 DUP7 PUSH2 0x7D1 JUMP JUMPDEST SUB SWAP1 LOG2 DUP1 RETURN JUMPDEST PUSH32 0x8C379A000000000000000000000000000000000000000000000000000000000 PUSH1 0x80 MSTORE PUSH1 0x20 PUSH1 0x84 MSTORE PUSH1 0x12 PUSH1 0xA4 MSTORE PUSH32 0x4441433A207A65726F2064617461486173680000000000000000000000000000 PUSH1 0xC4 MSTORE PUSH1 0x64 PUSH1 0x80 REVERT JUMPDEST DUP6 DUP1 REVERT JUMPDEST DUP4 DUP1 REVERT JUMPDEST DUP1 REVERT JUMPDEST SWAP2 DUP2 PUSH1 0x1F DUP5 ADD SLT ISZERO PUSH2 0x1F5 JUMPI DUP3 CALLDATALOAD SWAP2 PUSH8 0xFFFFFFFFFFFFFFFF DUP4 GT PUSH2 0x1F5 JUMPI PUSH1 0x20 DUP4 DUP2 DUP7 ADD SWAP6 ADD ADD GT PUSH2 0x1F5 JUMPI JUMP JUMPDEST PUSH1 0x0 DUP1 REVERT JUMPDEST SWAP1 PUSH1 0x0 SWAP2 DUP3 SLOAD DUP2 LT ISZERO PUSH2 0x233 JUMPI DUP3 DUP1 MSTORE PUSH1 0x2 SHL PUSH32 0x290DECD9548B62A8D60345A988386FC84BA6BC95484008F6362F93160EF3E563 ADD SWAP2 SWAP1 JUMP JUMPDEST PUSH1 0x24 DUP4 PUSH32 0x4E487B7100000000000000000000000000000000000000000000000000000000 DUP2 MSTORE PUSH1 0x32 PUSH1 0x4 MSTORE REVERT JUMPDEST CALLVALUE PUSH2 0x1F5 JUMPI PUSH1 0x40 PUSH32 0xFFFFFFFFFFFFFFFFFFFFFFFFFFFFFFFFFFFFFFFFFFFFFFFFFFFFFFFFFFFFFFFC CALLDATASIZE ADD SLT PUSH2 0x1F5 JUMPI PUSH1 0x4 CALLDATALOAD PUSH1 0x24 CALLDATALOAD SWAP1 PUSH1 0x0 SLOAD DUP2 LT ISZERO PUSH2 0x1F5 JUMPI PUSH2 0x2A9 SWAP1 PUSH2 0x1FA JUMP JUMPDEST POP SWAP1 PUSH1 0x4 DUP2 LT ISZERO PUSH2 0x1F5 JUMPI PUSH1 0x20 SWAP2 ADD SLOAD PUSH1 0x40 MLOAD SWAP1 DUP2 MSTORE RETURN JUMPDEST PUSH1 0x0 JUMPDEST DUP4 DUP2 LT PUSH2 0x2D4 JUMPI POP POP PUSH1 0x0 SWAP2 ADD MSTORE JUMP JUMPDEST DUP2 DUP2 ADD MLOAD DUP4 DUP3 ADD MSTORE PUSH1 0x20 ADD PUSH2 0x2C4 JUMP JUMPDEST SWAP1 PUSH32 0xFFFFFFFFFFFFFFFFFFFFFFFFFFFFFFFFFFFFFFFFFFFFFFFFFFFFFFFFFFFFFFE0 PUSH1 0x1F PUSH1 0x20 SWAP4 PUSH2 0x320 DUP2 MLOAD DUP1 SWAP3 DUP2 DUP8 MSTORE DUP8 DUP1 DUP9 ADD SWAP2 ADD PUSH2 0x2C1 JUMP JUMPDEST ADD AND ADD ADD SWAP1 JUMP JUMPDEST CALLVALUE PUSH2 0x1F5 JUMPI PUSH1 0x20 PUSH32 0xFFFFFFFFFFFFFFFFFFFFFFFFFFFFFFFFFFFFFFFFFFFFFFFFFFFFFFFFFFFFFFFC CALLDATASIZE ADD SLT PUSH2 0x1F5 JUMPI PUSH1 0x4 CALLDATALOAD PUSH1 0x0 MSTORE PUSH1 0x1 PUSH1 0x20 MSTORE PUSH1 0x40 PUSH1 0x0 KECCAK256 DUP1 SLOAD PUSH2 0x373 DUP2 ISZERO ISZERO PUSH2 0x801 JUMP JUMPDEST PUSH2 0x3C2 PUSH1 0x2 DUP4 ADD SLOAD PUSH2 0x393 PUSH1 0x3 PUSH2 0x38C PUSH1 0x1 DUP8 ADD PUSH2 0x8DF JUMP JUMPDEST SWAP6 ADD PUSH2 0x8DF JUMP JUMPDEST PUSH2 0x3AF PUSH1 0x40 MLOAD SWAP6 DUP7 SWAP6 DUP7 MSTORE PUSH1 0x80 PUSH1 0x20 DUP8 ADD MSTORE PUSH1 0x80 DUP7 ADD SWAP1 PUSH2 0x2E4 JUMP JUMPDEST SWAP2 PUSH1 0x40 DUP6 ADD MSTORE DUP4 DUP3 SUB PUSH1 0x60 DUP6 ADD MSTORE PUSH2 0x2E4 JUMP JUMPDEST SUB SWAP1 RETURN JUMPDEST CALLVALUE PUSH2 0x1F5 JUMPI PUSH1 0xA0 PUSH32 0xFFFFFFFFFFFFFFFFFFFFFFFFFFFFFFFFFFFFFFFFFFFFFFFFFFFFFFFFFFFFFFFC CALLDATASIZE ADD SLT PUSH2 0x1F5 JUMPI CALLDATASIZE PUSH1 0x44 GT PUSH2 0x1F5 JUMPI PUSH8 0xFFFFFFFFFFFFFFFF PUSH1 0x64 CALLDATALOAD DUP2 DUP2 GT PUSH2 0x1F5 JUMPI PUSH2 0x41E SWAP1 CALLDATASIZE SWAP1 PUSH1 0x4 ADD PUSH2 0x1C7 JUMP JUMPDEST SWAP1 SWAP2 PUSH1 0x84 CALLDATALOAD DUP2 DUP2 GT PUSH2 0x1F5 JUMPI CALLDATASIZE PUSH1 0x23 DUP3 ADD SLT ISZERO PUSH2 0x1F5 JUMPI DUP1 PUSH1 0x4 ADD CALLDATALOAD SWAP2 DUP3 GT PUSH2 0x1F5 JUMPI PUSH1 0x24 SWAP1 CALLDATASIZE SWAP3 PUSH1 0x5 SHL ADD ADD GT PUSH2 0x1F5 JUMPI PUSH2 0x45C SWAP2 PUSH1 0x44 CALLDATALOAD PUSH2 0xCCE JUMP JUMPDEST STOP JUMPDEST ISZERO PUSH2 0x465 JUMPI JUMP JUMPDEST PUSH1 0x64 PUSH1 0x40 MLOAD PUSH32 0x8C379A000000000000000000000000000000000000000000000000000000000 DUP2 MSTORE PUSH1 0x20 PUSH1 0x4 DUP3 ADD MSTORE PUSH1 0xE PUSH1 0x24 DUP3 ADD MSTORE PUSH32 0x4441433A20656D70747920434944000000000000000000000000000000000000 PUSH1 0x44 DUP3 ADD MSTORE REVERT JUMPDEST ISZERO PUSH2 0x4CA JUMPI JUMP JUMPDEST PUSH1 0x64 PUSH1 0x40 MLOAD PUSH32 0x8C379A000000000000000000000000000000000000000000000000000000000 DUP2 MSTORE PUSH1 0x20 PUSH1 0x4 DUP3 ADD MSTORE PUSH1 0x1A PUSH1 0x24 DUP3 ADD MSTORE PUSH32 0x4441433A20657870697279206D75737420626520667574757265000000000000 PUSH1 0x44 DUP3 ADD MSTORE REVERT JUMPDEST ISZERO PUSH2 0x52F JUMPI JUMP JUMPDEST PUSH1 0x64 PUSH1 0x40 MLOAD PUSH32 0x8C379A000000000000000000000000000000000000000000000000000000000 DUP2 MSTORE PUSH1 0x20 PUSH1 0x4 DUP3 ADD MSTORE PUSH1 0x15 PUSH1 0x24 DUP3 ADD MSTORE PUSH32 0x4441433A20616C726561647920616E63686F7265640000000000000000000000 PUSH1 0x44 DUP3 ADD MSTORE REVERT JUMPDEST PUSH32 0x4E487B7100000000000000000000000000000000000000000000000000000000 PUSH1 0x0 MSTORE PUSH1 0x41 PUSH1 0x4 MSTORE PUSH1 0x24 PUSH1 0x0 REVERT JUMPDEST SWAP1 PUSH1 0x1 DUP3 DUP2 SHR SWAP3 AND DUP1 ISZERO PUSH2 0x605 JUMPI JUMPDEST PUSH1 0x20 DUP4 LT EQ PUSH2 0x5D6 JUMPI JUMP JUMPDEST PUSH32 0x4E487B7100000000000000000000000000000000000000000000000000000000 PUSH1 0x0 MSTORE PUSH1 0x22 PUSH1 0x4 MSTORE PUSH1 0x24 PUSH1 0x0 REVERT JUMPDEST SWAP2 PUSH1 0x7F AND SWAP2 PUSH2 0x5CB JUMP JUMPDEST SWAP1 PUSH1 0x1F DUP2 GT PUSH2 0x61D JUMPI POP POP POP JUMP JUMPDEST PUSH1 0x0 SWAP2 PUSH1 0x0 MSTORE PUSH1 0x20 PUSH1 0x0 KECCAK256 SWAP1 PUSH1 0x20 PUSH1 0x1F DUP6 ADD PUSH1 0x5 SHR DUP4 ADD SWAP5 LT PUSH2 0x65B JUMPI JUMPDEST PUSH1 0x1F ADD PUSH1 0x5 SHR ADD SWAP2 JUMPDEST DUP3 DUP2 LT PUSH2 0x650 JUMPI POP POP POP JUMP JUMPDEST DUP2 DUP2 SSTORE PUSH1 0x1 ADD PUSH2 0x644 JUMP JUMPDEST SWAP1 SWAP3 POP DUP3 SWAP1 PUSH2 0x63B JUMP JUMPDEST SWAP1 SWAP3 SWAP2 PUSH8 0xFFFFFFFFFFFFFFFF DUP2 GT PUSH2 0x78D JUMPI PUSH2 0x68B DUP2 PUSH2 0x685 DUP5 SLOAD PUSH2 0x5BC JUMP JUMPDEST DUP5 PUSH2 0x60F JUMP JUMPDEST PUSH1 0x0 PUSH1 0x1F DUP3 GT PUSH1 0x1 EQ PUSH2 0x6E9 JUMPI DUP2 SWAP1 PUSH2 0x6DA SWAP4 SWAP5 SWAP6 PUSH1 0x0 SWAP3 PUSH2 0x6DE JUMPI JUMPDEST POP POP PUSH32 0xFFFFFFFFFFFFFFFFFFFFFFFFFFFFFFFFFFFFFFFFFFFFFFFFFFFFFFFFFFFFFFFF DUP3 PUSH1 0x1 SHL SWAP3 PUSH1 0x3 SHL SHR NOT AND OR SWAP1 JUMP JUMPDEST SWAP1 SSTORE JUMP JUMPDEST ADD CALLDATALOAD SWAP1 POP CODESIZE DUP1 PUSH2 0x6A8 JUMP JUMPDEST PUSH32 0xFFFFFFFFFFFFFFFFFFFFFFFFFFFFFFFFFFFFFFFFFFFFFFFFFFFFFFFFFFFFFFE0 DUP3 AND SWAP5 PUSH2 0x71C DUP5 PUSH1 0x0 MSTORE PUSH1 0x20 PUSH1 0x0 KECCAK256 SWAP1 JUMP JUMPDEST SWAP2 DUP1 JUMPDEST DUP8 DUP2 LT PUSH2 0x775 JUMPI POP DUP4 PUSH1 0x1 SWAP6 SWAP7 SWAP8 LT PUSH2 0x73D JUMPI JUMPDEST POP POP POP DUP2 SHL ADD SWAP1 SSTORE JUMP JUMPDEST PUSH32 0xFFFFFFFFFFFFFFFFFFFFFFFFFFFFFFFFFFFFFFFFFFFFFFFFFFFFFFFFFFFFFFFF PUSH1 0xF8 DUP6 PUSH1 0x3 SHL AND SHR NOT SWAP2 ADD CALLDATALOAD AND SWAP1 SSTORE CODESIZE DUP1 DUP1 PUSH2 0x733 JUMP JUMPDEST SWAP1 SWAP3 PUSH1 0x20 PUSH1 0x1 DUP2 SWAP3 DUP7 DUP7 ADD CALLDATALOAD DUP2 SSTORE ADD SWAP5 ADD SWAP2 ADD PUSH2 0x71F JUMP JUMPDEST PUSH2 0x58D JUMP JUMPDEST PUSH1 0x1F DUP3 PUSH1 0x20 SWAP5 SWAP4 PUSH32 0xFFFFFFFFFFFFFFFFFFFFFFFFFFFFFFFFFFFFFFFFFFFFFFFFFFFFFFFFFFFFFFE0 SWAP4 DUP2 DUP7 MSTORE DUP7 DUP7 ADD CALLDATACOPY PUSH1 0x0 DUP6 DUP3 DUP7 ADD ADD MSTORE ADD AND ADD ADD SWAP1 JUMP JUMPDEST SWAP1 PUSH2 0x7EB SWAP1 PUSH2 0x7FE SWAP7 SWAP5 SWAP6 SWAP4 PUSH1 0x60 DUP5 MSTORE PUSH1 0x60 DUP5 ADD SWAP2 PUSH2 0x792 JUMP JUMPDEST SWAP4 PUSH1 0x20 DUP3 ADD MSTORE PUSH1 0x40 DUP2 DUP6 SUB SWAP2 ADD MSTORE PUSH2 0x792 JUMP JUMPDEST SWAP1 JUMP JUMPDEST ISZERO PUSH2 0x808 JUMPI JUMP JUMPDEST PUSH1 0x64 PUSH1 0x40 MLOAD PUSH32 0x8C379A000000000000000000000000000000000000000000000000000000000 DUP2 MSTORE PUSH1 0x20 PUSH1 0x4 DUP3 ADD MSTORE PUSH1 0x11 PUSH1 0x24 DUP3 ADD MSTORE PUSH32 0x4441433A206E6F7420616E63686F726564000000000000000000000000000000 PUSH1 0x44 DUP3 ADD MSTORE REVERT JUMPDEST PUSH1 0x40 DUP2 ADD SWAP1 DUP2 LT PUSH8 0xFFFFFFFFFFFFFFFF DUP3 GT OR PUSH2 0x78D JUMPI PUSH1 0x40 MSTORE JUMP JUMPDEST PUSH1 0x80 DUP2 ADD SWAP1 DUP2 LT PUSH8 0xFFFFFFFFFFFFFFFF DUP3 GT OR PUSH2 0x78D JUMPI PUSH1 0x40 MSTORE JUMP JUMPDEST SWAP1 PUSH1 0x1F PUSH32 0xFFFFFFFFFFFFFFFFFFFFFFFFFFFFFFFFFFFFFFFFFFFFFFFFFFFFFFFFFFFFFFE0 SWAP2 ADD AND DUP2 ADD SWAP1 DUP2 LT PUSH8 0xFFFFFFFFFFFFFFFF DUP3 GT OR PUSH2 0x78D JUMPI PUSH1 0x40 MSTORE JUMP JUMPDEST SWAP1 PUSH1 0x40 MLOAD SWAP2 DUP3 PUSH1 0x0 DUP3 SLOAD PUSH2 0x8F2 DUP2 PUSH2 0x5BC JUMP JUMPDEST SWAP1 DUP2 DUP5 MSTORE PUSH1 0x20 SWAP5 PUSH1 0x1 SWAP2 PUSH1 0x1 DUP2 AND SWAP1 DUP2 PUSH1 0x0 EQ PUSH2 0x962 JUMPI POP PUSH1 0x1 EQ PUSH2 0x923 JUMPI JUMPDEST POP POP POP PUSH2 0x921 SWAP3 POP SUB DUP4 PUSH2 0x89E JUMP JUMPDEST JUMP JUMPDEST PUSH1 0x0 SWAP1 DUP2 MSTORE DUP6 DUP2 KECCAK256 SWAP6 SWAP4 POP SWAP2 SWAP1 JUMPDEST DUP2 DUP4 LT PUSH2 0x94A JUMPI POP POP PUSH2 0x921 SWAP4 POP DUP3 ADD ADD CODESIZE DUP1 DUP1 PUSH2 0x912 JUMP JUMPDEST DUP6 SLOAD DUP9 DUP5 ADD DUP6 ADD MSTORE SWAP5 DUP6 ADD SWAP5 DUP8 SWAP5 POP SWAP2 DUP4 ADD SWAP2 PUSH2 0x931 JUMP JUMPDEST SWAP2 POP POP PUSH2 0x921 SWAP6 SWAP4 POP PUSH32 0xFFFFFFFFFFFFFFFFFFFFFFFFFFFFFFFFFFFFFFFFFFFFFFFFFFFFFFFFFFFFFF00 SWAP2 POP AND DUP3 DUP5 ADD MSTORE ISZERO ISZERO PUSH1 0x5 SHL DUP3 ADD ADD CODESIZE DUP1 DUP1 PUSH2 0x912 JUMP JUMPDEST PUSH1 0x40 MLOAD SWAP1 PUSH2 0x921 DUP3 PUSH2 0x866 JUMP JUMPDEST PUSH1 0x40 MLOAD SWAP1 PUSH2 0x180 DUP3 ADD DUP3 DUP2 LT PUSH8 0xFFFFFFFFFFFFFFFF DUP3 GT OR PUSH2 0x78D JUMPI PUSH1 0x40 MSTORE JUMP JUMPDEST PUSH1 0x40 MLOAD SWAP1 PUSH2 0x9DE DUP3 PUSH2 0x866 JUMP JUMPDEST PUSH1 0x1 DUP3 MSTORE PUSH32 0x7C00000000000000000000000000000000000000000000000000000000000000 PUSH1 0x20 DUP4 ADD MSTORE JUMP JUMPDEST SWAP1 DUP1 SWAP3 SWAP2 DUP3 CALLDATACOPY ADD PUSH1 0x0 DUP2 MSTORE SWAP1 JUMP JUMPDEST SWAP2 DUP5 SWAP4 SWAP3 PUSH1 0x20 SWAP6 SWAP3 DUP2 MSTORE PUSH2 0xA34 DUP3 MLOAD DUP1 SWAP4 DUP9 DUP1 DUP6 ADD SWAP2 ADD PUSH2 0x2C1 JUMP JUMPDEST ADD SWAP2 DUP5 DUP4 ADD CALLDATACOPY ADD ADD PUSH1 0x0 DUP2 MSTORE SWAP1 JUMP JUMPDEST PUSH1 0x40 MLOAD SWAP1 PUSH2 0xA50 DUP3 PUSH2 0x866 JUMP JUMPDEST PUSH1 0x3 DUP3 MSTORE PUSH32 0x4441430000000000000000000000000000000000000000000000000000000000 PUSH1 0x20 DUP4 ADD MSTORE JUMP JUMPDEST PUSH1 0x40 MLOAD SWAP1 PUSH2 0xA89 DUP3 PUSH2 0x882 JUMP JUMPDEST PUSH1 0x80 CALLDATASIZE DUP4 CALLDATACOPY JUMP JUMPDEST PUSH1 0x40 MLOAD SWAP1 PUSH2 0xA9D DUP3 PUSH2 0x866 JUMP JUMPDEST PUSH1 0x40 CALLDATASIZE DUP4 CALLDATACOPY JUMP JUMPDEST PUSH1 0x40 MLOAD SWAP1 PUSH1 0x20 DUP3 ADD DUP3 DUP2 LT PUSH8 0xFFFFFFFFFFFFFFFF DUP3 GT OR PUSH2 0x78D JUMPI PUSH1 0x40 MSTORE PUSH1 0x20 CALLDATASIZE DUP4 CALLDATACOPY JUMP JUMPDEST PUSH1 0x40 MLOAD SWAP2 SWAP1 PUSH1 0x0 DUP4 JUMPDEST PUSH1 0x4 DUP3 LT PUSH2 0xAE6 JUMPI POP POP POP PUSH2 0x921 DUP3 PUSH2 0x882 JUMP JUMPDEST PUSH1 0x1 PUSH1 0x20 DUP2 SWAP3 DUP6 SLOAD DUP2 MSTORE ADD SWAP4 ADD SWAP2 ADD SWAP1 SWAP2 PUSH2 0xAD2 JUMP JUMPDEST SWAP1 PUSH1 0x40 MLOAD SWAP2 PUSH2 0xB0A DUP4 PUSH2 0x866 JUMP JUMPDEST DUP3 PUSH1 0x44 SWAP2 PUSH1 0x44 GT PUSH2 0x1F5 JUMPI PUSH1 0x4 SWAP1 JUMPDEST DUP3 DUP3 LT PUSH2 0xB25 JUMPI POP POP POP JUMP JUMPDEST DUP2 CALLDATALOAD DUP2 MSTORE PUSH1 0x20 SWAP2 DUP3 ADD SWAP2 ADD PUSH2 0xB19 JUMP JUMPDEST ISZERO PUSH2 0xB3C JUMPI JUMP JUMPDEST PUSH1 0x64 PUSH1 0x40 MLOAD PUSH32 0x8C379A000000000000000000000000000000000000000000000000000000000 DUP2 MSTORE PUSH1 0x20 PUSH1 0x4 DUP3 ADD MSTORE PUSH1 0x16 PUSH1 0x24 DUP3 ADD MSTORE PUSH32 0x4441433A20424C5320766572696679206661696C656400000000000000000000 PUSH1 0x44 DUP3 ADD MSTORE REVERT JUMPDEST SWAP2 SWAP1 SWAP2 DUP3 MLOAD PUSH8 0xFFFFFFFFFFFFFFFF DUP2 GT PUSH2 0x78D JUMPI PUSH2 0xBBC DUP2 PUSH2 0x685 DUP5 SLOAD PUSH2 0x5BC JUMP JUMPDEST PUSH1 0x20 DUP1 PUSH1 0x1F DUP4 GT PUSH1 0x1 EQ PUSH2 0xC17 JUMPI POP DUP2 SWAP1 PUSH2 0x6DA SWAP4 SWAP5 SWAP6 PUSH1 0x0 SWAP3 PUSH2 0xC0C JUMPI POP POP PUSH32 0xFFFFFFFFFFFFFFFFFFFFFFFFFFFFFFFFFFFFFFFFFFFFFFFFFFFFFFFFFFFFFFFF DUP3 PUSH1 0x1 SHL SWAP3 PUSH1 0x3 SHL SHR NOT AND OR SWAP1 JUMP JUMPDEST ADD MLOAD SWAP1 POP CODESIZE DUP1 PUSH2 0x6A8 JUMP JUMPDEST SWAP1 PUSH32 0xFFFFFFFFFFFFFFFFFFFFFFFFFFFFFFFFFFFFFFFFFFFFFFFFFFFFFFFFFFFFFFE0 DUP4 AND SWAP6 PUSH2 0xC4B DUP6 PUSH1 0x0 MSTORE PUSH1 0x20 PUSH1 0x0 KECCAK256 SWAP1 JUMP JUMPDEST SWAP3 PUSH1 0x0 SWAP1 JUMPDEST DUP9 DUP3 LT PUSH2 0xCA5 JUMPI POP POP DUP4 PUSH1 0x1 SWAP6 SWAP7 SWAP8 LT PUSH2 0xC6E JUMPI POP POP POP DUP2 SHL ADD SWAP1 SSTORE JUMP JUMPDEST ADD MLOAD PUSH32 0xFFFFFFFFFFFFFFFFFFFFFFFFFFFFFFFFFFFFFFFFFFFFFFFFFFFFFFFFFFFFFFFF PUSH1 0xF8 DUP5 PUSH1 0x3 SHL AND SHR NOT AND SWAP1 SSTORE CODESIZE DUP1 DUP1 PUSH2 0x733 JUMP JUMPDEST DUP1 PUSH1 0x1 DUP6 SWAP7 DUP3 SWAP5 SWAP7 DUP7 ADD MLOAD DUP2 SSTORE ADD SWAP6 ADD SWAP4 ADD SWAP1 PUSH2 0xC50 JUMP JUMPDEST SWAP1 PUSH1 0x20 PUSH2 0x7FE SWAP3 DUP2 DUP2 MSTORE ADD SWAP1 PUSH2 0x2E4 JUMP JUMPDEST SWAP2 DUP2 PUSH2 0xCE4 DUP5 PUSH1 0x0 MSTORE PUSH1 0x1 PUSH1 0x20 MSTORE PUSH1 0x40 PUSH1 0x0 KECCAK256 SWAP1 JUMP JUMPDEST SWAP2 PUSH2 0xCF1 DUP4 SLOAD ISZERO ISZERO PUSH2 0x801 JUMP JUMPDEST PUSH2 0xD4F PUSH2 0xCFC PUSH2 0x9D1 JUMP JUMPDEST PUSH2 0xD10 DUP4 PUSH1 0x40 MLOAD SWAP6 DUP7 SWAP4 DUP11 PUSH1 0x20 DUP7 ADD PUSH2 0xA18 JUMP JUMPDEST SUB SWAP3 PUSH2 0xD42 PUSH32 0xFFFFFFFFFFFFFFFFFFFFFFFFFFFFFFFFFFFFFFFFFFFFFFFFFFFFFFFFFFFFFFE0 SWAP5 DUP6 DUP2 ADD DUP4 MSTORE DUP3 PUSH2 0x89E JUMP JUMPDEST PUSH2 0xD4A PUSH2 0xA43 JUMP JUMPDEST PUSH2 0xE6B JUMP JUMPDEST PUSH2 0xD57 PUSH2 0xA7C JUMP JUMPDEST PUSH1 0x0 DUP1 SLOAD JUMPDEST DUP1 DUP3 LT PUSH2 0xE15 JUMPI POP POP PUSH2 0xE10 SWAP5 PUSH2 0xDFE PUSH2 0xDC9 SWAP6 PUSH2 0xE04 SWAP6 PUSH2 0xDB4 PUSH2 0xDAE PUSH32 0x12F9D9CE5E1577CDE337D32720563AE30A0FC8C24BFE12DB04A281EEAD2B6CC5 SWAP12 SWAP8 PUSH1 0x3 SWAP8 PUSH2 0xDA9 CALLDATASIZE PUSH2 0xAFC JUMP JUMPDEST PUSH2 0x11FE JUMP JUMPDEST POP PUSH2 0xB35 JUMP JUMPDEST PUSH2 0xDF2 PUSH1 0x40 MLOAD SWAP9 DUP10 SWAP8 DUP9 SWAP4 PUSH1 0x20 DUP6 ADD SWAP2 PUSH2 0xA0A JUMP JUMPDEST PUSH32 0x5F76657269666965640000000000000000000000000000000000000000000000 DUP2 MSTORE PUSH1 0x9 ADD SWAP1 JUMP JUMPDEST SUB SWAP1 DUP2 ADD DUP6 MSTORE DUP5 PUSH2 0x89E JUMP JUMPDEST ADD PUSH2 0xB9A JUMP JUMPDEST PUSH1 0x40 MLOAD SWAP2 DUP3 SWAP2 DUP3 PUSH2 0xCBD JUMP JUMPDEST SUB SWAP1 LOG2 JUMP JUMPDEST SWAP1 SWAP2 PUSH2 0xE35 PUSH1 0x1 SWAP2 PUSH2 0xE2F PUSH2 0xE29 DUP7 PUSH2 0x1FA JUMP JUMPDEST POP PUSH2 0xAC9 JUMP JUMPDEST SWAP1 PUSH2 0x1179 JUMP JUMPDEST SWAP3 ADD SWAP1 PUSH2 0xD5C JUMP JUMPDEST PUSH1 0x80 DUP2 ADD SWAP3 SWAP2 PUSH1 0x0 SWAP2 JUMPDEST PUSH1 0x4 DUP4 LT PUSH2 0xE54 JUMPI POP POP POP JUMP JUMPDEST PUSH1 0x1 SWAP1 DUP3 MLOAD DUP2 MSTORE PUSH1 0x20 DUP1 SWAP2 ADD SWAP3 ADD SWAP3 ADD SWAP2 SWAP1 PUSH2 0xE47 JUMP JUMPDEST SWAP1 PUSH2 0xE74 PUSH2 0xA90 JUMP JUMPDEST POP PUSH1 0x40 DUP1 DUP1 MLOAD PUSH2 0xE83 DUP2 PUSH2 0x866 JUMP JUMPDEST CALLDATASIZE SWAP1 CALLDATACOPY DUP3 MLOAD SWAP3 PUSH1 0xFF DUP5 GT PUSH2 0x10E0 JUMPI PUSH1 0xFF PUSH2 0xE9B PUSH2 0x1580 JUMP JUMPDEST SWAP5 AND SWAP4 DUP3 MLOAD SWAP1 DUP2 PUSH2 0xEB4 DUP8 DUP6 PUSH1 0x20 SWAP9 DUP10 DUP6 ADD SWAP6 DUP7 PUSH2 0x15F1 JUMP JUMPDEST SUB SWAP2 PUSH2 0xEE6 PUSH32 0xFFFFFFFFFFFFFFFFFFFFFFFFFFFFFFFFFFFFFFFFFFFFFFFFFFFFFFFFFFFFFFE0 SWAP4 DUP5 DUP2 ADD DUP4 MSTORE DUP3 PUSH2 0x89E JUMP JUMPDEST MLOAD SWAP1 KECCAK256 SWAP2 DUP4 MLOAD DUP6 DUP2 ADD SWAP1 PUSH2 0xF0C DUP2 PUSH2 0xF00 DUP11 DUP7 DUP10 DUP8 PUSH2 0x1691 JUMP JUMPDEST SUB DUP6 DUP2 ADD DUP4 MSTORE DUP3 PUSH2 0x89E JUMP JUMPDEST MLOAD SWAP1 KECCAK256 SWAP6 PUSH2 0xF18 PUSH2 0x15AC JUMP JUMPDEST SWAP4 PUSH1 0x1 SWAP3 PUSH1 0x1 SWAP5 JUMPDEST PUSH1 0x3 DUP7 LT PUSH2 0x1065 JUMPI POP POP POP POP POP POP PUSH2 0xFC7 DUP2 DUP6 PUSH1 0x60 PUSH2 0xFCE SWAP5 ADD MSTORE PUSH24 0xFFFFFFFFFFFFFFFFFFFFFFFFFFFFFFFFFFFFFFFFFFFFFFFF DUP1 PUSH1 0x18 DUP4 ADD MLOAD AND SWAP1 PUSH32 0x30644E72E131A029B85045B68181585D97816A916871CA8D3C208C16D87CFD47 DUP1 SWAP3 DUP3 PUSH1 0x48 DUP4 DUP3 PUSH1 0x30 DUP10 ADD MLOAD AND DUP2 PUSH25 0x1000000000000000000000000000000000000000000000000 DUP1 SWAP7 MULMOD ADDMOD SWAP7 ADD MLOAD AND SWAP3 DUP10 PUSH2 0xFB7 PUSH2 0x9A3 JUMP JUMPDEST DUP8 DUP2 MSTORE ADD SWAP11 AND SWAP3 MULMOD ADDMOD DUP7 MSTORE PUSH2 0x1382 JUMP JUMPDEST SWAP4 MLOAD PUSH2 0x1382 JUMP JUMPDEST SWAP2 PUSH2 0xFD7 PUSH2 0xA7C JUMP JUMPDEST SWAP3 DUP5 MLOAD DUP5 MSTORE DUP2 DUP6 ADD MLOAD DUP3 DUP6 ADD MSTORE DUP1 MLOAD DUP4 DUP6 ADD MSTORE ADD MLOAD PUSH1 0x60 DUP4 ADD MSTORE PUSH2 0x1023 DUP2 DUP5 PUSH1 0x80 DUP6 PUSH1 0x6 PUSH32 0xFFFFFFFFFFFFFFFFFFFFFFFFFFFFFFFFFFFFFFFFFFFFFFFFFFFFFFFFFFFFF830 GAS ADD STATICCALL ISZERO SWAP1 JUMP JUMPDEST PUSH2 0x102C JUMPI POP POP SWAP1 JUMP JUMPDEST PUSH2 0x1061 SWAP3 POP MLOAD SWAP2 DUP3 SWAP2 PUSH32 0x128E3F0800000000000000000000000000000000000000000000000000000000 DUP4 MSTORE PUSH1 0x4 DUP4 ADD PUSH2 0xE3D JUMP JUMPDEST SUB SWAP1 REVERT JUMPDEST SWAP1 SWAP2 SWAP3 SWAP4 DUP4 DUP4 DUP8 SWAP12 DUP12 PUSH32 0xFFFFFFFFFFFFFFFFFFFFFFFFFFFFFFFFFFFFFFFFFFFFFFFFFFFFFFFFFFFFFFFF DUP11 PUSH2 0x10C9 DUP15 PUSH2 0x10BD DUP14 DUP11 SWAP16 PUSH2 0x10A6 PUSH2 0x10AC SWAP2 PUSH2 0x174A JUMP JUMPDEST PUSH1 0xFF AND SWAP1 JUMP JUMPDEST SWAP3 MLOAD SWAP9 DUP10 SWAP4 DUP10 DUP10 DUP7 ADD SWAP13 XOR DUP13 PUSH2 0x1703 JUMP JUMPDEST SUB DUP10 DUP2 ADD DUP8 MSTORE DUP7 PUSH2 0x89E JUMP JUMPDEST ADD PUSH1 0x5 SHL DUP12 ADD ADD MSTORE MLOAD SWAP1 KECCAK256 SWAP10 ADD SWAP5 SWAP4 SWAP3 SWAP2 SWAP1 PUSH2 0xF20 JUMP JUMPDEST PUSH2 0x1061 SWAP2 MLOAD SWAP2 DUP3 SWAP2 PUSH32 0x26E4F9BA00000000000000000000000000000000000000000000000000000000 DUP4 MSTORE PUSH1 0x4 DUP4 ADD PUSH2 0xCBD JUMP JUMPDEST ISZERO PUSH2 0x111B JUMPI JUMP JUMPDEST PUSH1 0x64 PUSH1 0x40 MLOAD PUSH32 0x8C379A000000000000000000000000000000000000000000000000000000000 DUP2 MSTORE PUSH1 0x20 PUSH1 0x4 DUP3 ADD MSTORE PUSH1 0x12 PUSH1 0x24 DUP3 ADD MSTORE PUSH32 0x424C533A20473220616464206661696C65640000000000000000000000000000 PUSH1 0x44 DUP3 ADD MSTORE REVERT JUMPDEST PUSH2 0x921 SWAP1 SWAP3 SWAP2 SWAP3 PUSH2 0x1188 PUSH2 0xA7C JUMP JUMPDEST SWAP4 PUSH1 0x40 MLOAD SWAP2 DUP1 MLOAD DUP4 MSTORE PUSH1 0x20 DUP2 ADD MLOAD PUSH1 0x20 DUP5 ADD SWAP1 DUP2 MSTORE PUSH1 0x60 DUP1 PUSH1 0x40 DUP5 ADD MLOAD SWAP4 PUSH1 0x40 DUP8 ADD SWAP5 DUP6 MSTORE ADD MLOAD SWAP4 DUP2 DUP7 ADD SWAP5 DUP6 MSTORE DUP1 MLOAD PUSH1 0x80 DUP8 ADD MSTORE PUSH1 0x20 DUP2 ADD MLOAD PUSH1 0xA0 DUP8 ADD MSTORE PUSH1 0x40 DUP2 ADD MLOAD PUSH1 0xC0 DUP8 ADD MSTORE ADD MLOAD PUSH1 0xE0 DUP6 ADD MSTORE PUSH1 0x80 DUP5 PUSH2 0x100 DUP2 PUSH1 0xC GAS STATICCALL SWAP4 MLOAD DUP8 MSTORE MLOAD PUSH1 0x20 DUP8 ADD MSTORE MLOAD PUSH1 0x40 DUP7 ADD MSTORE MLOAD PUSH1 0x60 DUP6 ADD MSTORE PUSH2 0x1114 JUMP JUMPDEST PUSH1 0x40 PUSH1 0x20 SWAP3 DUP4 PUSH2 0x180 SWAP7 SWAP6 DUP2 PUSH2 0x1212 PUSH2 0x9B0 JUMP JUMPDEST SWAP6 DUP1 MLOAD DUP8 MSTORE ADD MLOAD DUP3 DUP7 ADD MSTORE PUSH32 0x198E9393920D483A7260BFB731FB5D25F1AA493335A9E71297E485B7AEF312C2 DUP5 DUP7 ADD MSTORE PUSH32 0x1800DEEF121F1E76426A00665E5C4479674322D4F75EDADD46DEBD5CD992F6ED PUSH1 0x60 DUP7 ADD MSTORE PUSH32 0x275DC4A288D1AFB3CBB1AC09187524C7DB36395DF7BE3B99E673B13A075A65EC PUSH1 0x80 DUP7 ADD MSTORE PUSH32 0x1D9BEFCD05A5323E6DA4D435F3B617CDB3AF83285C2DF711EF39C01571827F9D PUSH1 0xA0 DUP7 ADD MSTORE DUP1 MLOAD PUSH1 0xC0 DUP7 ADD MSTORE ADD MLOAD PUSH1 0xE0 DUP5 ADD MSTORE DUP4 DUP2 ADD MLOAD PUSH2 0x100 DUP5 ADD MSTORE DUP1 MLOAD PUSH2 0x120 DUP5 ADD MSTORE PUSH1 0x60 DUP2 ADD MLOAD PUSH2 0x140 DUP5 ADD MSTORE ADD MLOAD PUSH2 0x160 DUP3 ADD MSTORE PUSH2 0x12EF PUSH2 0xAA4 JUMP JUMPDEST SWAP4 DUP5 SWAP2 PUSH1 0x8 PUSH32 0xFFFFFFFFFFFFFFFFFFFFFFFFFFFFFFFFFFFFFFFFFFFFFFFFFFFFFFFFFFFFF830 GAS ADD STATICCALL SWAP2 MLOAD ISZERO ISZERO SWAP2 SWAP1 JUMP JUMPDEST PUSH32 0x4E487B7100000000000000000000000000000000000000000000000000000000 PUSH1 0x0 MSTORE PUSH1 0x11 PUSH1 0x4 MSTORE PUSH1 0x24 PUSH1 0x0 REVERT JUMPDEST SWAP1 PUSH32 0x30644E72E131A029B85045B68181585D97816A916871CA8D3C208C16D87CFD47 SWAP2 DUP3 SUB SWAP2 DUP3 GT PUSH2 0x137D JUMPI JUMP JUMPDEST PUSH2 0x1320 JUMP JUMPDEST SWAP1 PUSH2 0x138B PUSH2 0xA90 JUMP JUMPDEST SWAP2 PUSH32 0x30644E72E131A029B85045B68181585D97816A916871CA8D3C208C16D87CFD47 DUP1 DUP3 LT ISZERO PUSH2 0x154E JUMPI DUP1 PUSH1 0x4 DUP2 DUP5 DUP1 MULMOD MULMOD SWAP1 PUSH1 0x1 SWAP2 DUP2 PUSH2 0x13CF DUP2 DUP4 DUP7 ADDMOD SWAP3 PUSH2 0x134F JUMP JUMPDEST DUP5 ADDMOD SWAP1 DUP3 DUP1 DUP1 DUP1 DUP1 PUSH25 0x16789AF3A83522EB353C98FC6B36D713D5D8D1CC5DFFFFFFA DUP2 DUP12 DUP2 PUSH2 0x1400 DUP2 DUP12 DUP14 MULMOD PUSH2 0x1FE8 JUMP JUMPDEST SWAP11 DUP12 SWAP3 MULMOD MULMOD MULMOD SWAP6 DUP2 DUP1 PUSH2 0x1412 DUP10 PUSH2 0x134F JUMP JUMPDEST SWAP9 DUP2 PUSH32 0x183227397098D014DC2822DB40C0AC2ECBC0B548B438E5469E10460B6C3E7EA3 SWAP11 DUP12 ADDMOD SWAP10 ADDMOD SWAP7 DUP1 MULMOD MULMOD DUP1 MULMOD PUSH32 0x10216F7BA065E00DE81AC1E7808072C9DD2B2385CD7B438469602EB24829A9BD MULMOD DUP6 ADDMOD SWAP1 DUP4 PUSH1 0x3 DUP2 DUP6 DUP2 DUP2 DUP1 MULMOD MULMOD ADDMOD SWAP4 DUP6 PUSH2 0x147B DUP7 PUSH2 0x1758 JUMP JUMPDEST PUSH1 0x0 SIGNEXTEND SUB PUSH2 0x14F4 JUMPI POP POP POP DUP6 MSTORE PUSH2 0x1491 DUP2 PUSH2 0x1886 JUMP JUMPDEST SWAP1 PUSH1 0x20 DUP8 ADD MSTORE ISZERO PUSH2 0x14C1 JUMPI POP JUMPDEST PUSH1 0x20 DUP5 ADD SWAP2 DUP3 MLOAD SWAP2 DUP1 DUP4 AND SWAP2 AND SUB PUSH2 0x14B4 JUMPI POP POP JUMP JUMPDEST PUSH2 0x14BD SWAP1 PUSH2 0x134F JUMP JUMPDEST SWAP1 MSTORE JUMP JUMPDEST PUSH1 0x40 MLOAD PUSH32 0x396EC77100000000000000000000000000000000000000000000000000000000 DUP2 MSTORE PUSH1 0x4 DUP2 ADD SWAP2 SWAP1 SWAP2 MSTORE PUSH1 0x24 SWAP1 REVERT JUMPDEST SWAP2 SWAP4 POP SWAP2 POP DUP1 PUSH1 0x3 DUP2 DUP5 DUP2 DUP2 DUP1 MULMOD MULMOD ADDMOD SWAP3 DUP5 PUSH2 0x150F DUP6 PUSH2 0x1758 JUMP JUMPDEST PUSH1 0x0 SIGNEXTEND SUB PUSH2 0x1535 JUMPI POP POP DUP6 MSTORE PUSH2 0x1524 DUP2 PUSH2 0x1886 JUMP JUMPDEST SWAP1 PUSH1 0x20 DUP8 ADD MSTORE ISZERO PUSH2 0x14C1 JUMPI POP PUSH2 0x149E JUMP JUMPDEST DUP2 SWAP4 POP PUSH1 0x3 SWAP3 POP DUP1 DUP9 MSTORE DUP2 DUP2 DUP1 MULMOD MULMOD ADDMOD PUSH2 0x1524 DUP2 PUSH2 0x1886 JUMP JUMPDEST PUSH1 0x40 MLOAD PUSH32 0xD53E941500000000000000000000000000000000000000000000000000000000 DUP2 MSTORE PUSH1 0x4 DUP2 ADD DUP4 SWAP1 MSTORE PUSH1 0x24 SWAP1 REVERT JUMPDEST PUSH1 0x40 MLOAD SWAP1 PUSH1 0xC0 DUP3 ADD DUP3 DUP2 LT PUSH8 0xFFFFFFFFFFFFFFFF DUP3 GT OR PUSH2 0x78D JUMPI PUSH1 0x40 MSTORE PUSH1 0x88 DUP3 MSTORE PUSH1 0xA0 CALLDATASIZE PUSH1 0x20 DUP5 ADD CALLDATACOPY JUMP JUMPDEST PUSH1 0x40 MLOAD SWAP1 PUSH2 0x15B9 DUP3 PUSH2 0x882 JUMP JUMPDEST PUSH1 0x60 DUP1 DUP4 MSTORE CALLDATASIZE PUSH1 0x20 DUP5 ADD CALLDATACOPY JUMP JUMPDEST PUSH1 0x40 MLOAD SWAP1 PUSH1 0xE0 DUP3 ADD DUP3 DUP2 LT PUSH8 0xFFFFFFFFFFFFFFFF DUP3 GT OR PUSH2 0x78D JUMPI PUSH1 0x40 MSTORE PUSH1 0xC0 DUP1 DUP4 MSTORE CALLDATASIZE PUSH1 0x20 DUP5 ADD CALLDATACOPY JUMP JUMPDEST PUSH32 0xFF00000000000000000000000000000000000000000000000000000000000000 SWAP3 PUSH2 0x163C PUSH1 0x20 DUP1 SWAP4 PUSH2 0x162E PUSH1 0x4 SWAP10 SWAP9 SWAP7 DUP3 DUP2 MLOAD SWAP5 DUP6 SWAP3 ADD PUSH2 0x2C1 JUMP JUMPDEST ADD SWAP2 DUP3 DUP2 MLOAD SWAP5 DUP6 SWAP3 ADD PUSH2 0x2C1 JUMP JUMPDEST ADD PUSH1 0x0 DUP2 MSTORE PUSH32 0x6000000000000000000000000000000000000000000000000000000000000000 PUSH1 0x1 DUP3 ADD MSTORE PUSH1 0x0 PUSH1 0x2 DUP3 ADD MSTORE PUSH2 0x1682 DUP3 MLOAD DUP1 SWAP4 PUSH1 0x20 PUSH1 0x3 DUP6 ADD SWAP2 ADD PUSH2 0x2C1 JUMP JUMPDEST ADD SWAP2 PUSH1 0xF8 SHL AND PUSH1 0x3 DUP3 ADD MSTORE ADD SWAP1 JUMP JUMPDEST SWAP2 PUSH1 0x22 SWAP4 SWAP3 PUSH32 0xFF00000000000000000000000000000000000000000000000000000000000000 SWAP3 DUP2 MSTORE PUSH32 0x100000000000000000000000000000000000000000000000000000000000000 PUSH1 0x20 DUP3 ADD MSTORE PUSH2 0x16F4 DUP3 MLOAD DUP1 SWAP4 PUSH1 0x20 PUSH1 0x21 DUP6 ADD SWAP2 ADD PUSH2 0x2C1 JUMP JUMPDEST ADD SWAP2 PUSH1 0xF8 SHL AND PUSH1 0x21 DUP3 ADD MSTORE ADD SWAP1 JUMP JUMPDEST PUSH1 0x22 SWAP5 SWAP4 SWAP2 DUP2 MSTORE PUSH32 0xFF00000000000000000000000000000000000000000000000000000000000000 DUP1 SWAP4 PUSH1 0xF8 SHL AND PUSH1 0x20 DUP3 ADD MSTORE PUSH2 0x16F4 DUP3 MLOAD DUP1 SWAP4 PUSH1 0x20 PUSH1 0x21 DUP6 ADD SWAP2 ADD PUSH2 0x2C1 JUMP JUMPDEST PUSH1 0x1 ADD SWAP1 DUP2 PUSH1 0x1 GT PUSH2 0x137D JUMPI JUMP JUMPDEST PUSH2 0x1760 PUSH2 0x15C6 JUMP JUMPDEST SWAP1 PUSH1 0xC0 PUSH1 0x20 PUSH1 0x0 DUP3 DUP3 DUP7 ADD DUP4 DUP2 MSTORE DUP4 PUSH1 0x40 DUP9 ADD MSTORE DUP4 PUSH1 0x60 DUP9 ADD MSTORE DUP6 PUSH1 0x80 DUP9 ADD MSTORE PUSH32 0x183227397098D014DC2822DB40C0AC2ECBC0B548B438E5469E10460B6C3E7EA3 SWAP7 DUP8 PUSH1 0xA0 DUP3 ADD MSTORE PUSH32 0x30644E72E131A029B85045B68181585D97816A916871CA8D3C208C16D87CFD47 SWAP6 DUP7 SWAP2 ADD MSTORE PUSH1 0x5 GAS STATICCALL SWAP3 PUSH1 0x0 MLOAD SWAP4 ISZERO PUSH2 0x184A JUMPI POP POP PUSH32 0x30644E72E131A029B85045B68181585D97816A916871CA8D3C208C16D87CFD46 DUP3 EQ PUSH2 0x1824 JUMPI DUP2 ISZERO ISZERO DUP1 PUSH2 0x1819 JUMPI JUMPDEST PUSH2 0x14C1 JUMPI POP PUSH1 0x0 SIGNEXTEND SWAP1 JUMP JUMPDEST POP PUSH1 0x1 DUP3 EQ ISZERO PUSH2 0x180E JUMP JUMPDEST POP POP PUSH32 0xFFFFFFFFFFFFFFFFFFFFFFFFFFFFFFFFFFFFFFFFFFFFFFFFFFFFFFFFFFFFFFFF SWAP1 JUMP JUMPDEST PUSH1 0x64 SWAP4 POP PUSH1 0x40 MLOAD SWAP3 PUSH32 0xC6DAF7AB00000000000000000000000000000000000000000000000000000000 DUP5 MSTORE PUSH1 0x4 DUP5 ADD MSTORE PUSH1 0x24 DUP4 ADD MSTORE PUSH1 0x44 DUP3 ADD MSTORE REVERT JUMPDEST SWAP1 PUSH32 0x30644E72E131A029B85045B68181585D97816A916871CA8D3C208C16D87CFD47 DUP1 DUP1 DUP1 DUP1 DUP1 DUP1 DUP1 DUP1 DUP1 DUP12 DUP2 DUP1 DUP1 DUP1 DUP1 DUP1 DUP1 DUP1 DUP1 DUP1 DUP1 DUP1 DUP1 DUP1 DUP1 DUP16 DUP2 DUP1 DUP3 DUP2 DUP1 DUP1 DUP1 DUP1 DUP1 DUP1 DUP1 DUP1 DUP1 DUP1 DUP1 SWAP15 DUP2 DUP1 DUP1 DUP1 DUP1 DUP6 DUP2 DUP1 DUP1 DUP1 DUP1 DUP1 DUP1 DUP8 DUP2 SWAP15 DUP3 DUP1 DUP1 DUP1 DUP1 DUP1 DUP7 DUP2 DUP1 DUP1 DUP1 DUP1 DUP1 DUP1 DUP1 SWAP15 DUP2 DUP1 DUP1 DUP1 DUP5 DUP2 DUP1 DUP1 DUP1 DUP1 DUP1 DUP1 DUP1 DUP1 DUP10 DUP2 SWAP16 DUP3 DUP1 DUP1 DUP1 DUP1 DUP1 DUP1 DUP1 DUP1 DUP1 DUP1 DUP1 DUP1 DUP14 DUP2 SWAP15 DUP3 DUP1 DUP1 DUP1 DUP1 DUP1 DUP1 DUP1 DUP9 DUP2 DUP1 DUP1 DUP1 DUP1 DUP1 SWAP15 DUP2 DUP1 DUP1 DUP1 DUP1 DUP1 DUP1 DUP1 DUP1 DUP10 DUP2 DUP1 DUP1 DUP1 DUP1 SWAP15 DUP2 DUP1 DUP1 DUP1 DUP1 DUP1 DUP1 DUP1 DUP1 DUP1 DUP1 DUP12 DUP2 DUP1 DUP1 SWAP15 DUP2 DUP1 DUP1 DUP1 DUP1 DUP1 DUP1 DUP1 DUP1 DUP1 DUP1 DUP12 DUP2 DUP1 DUP1 SWAP15 DUP2 DUP1 DUP1 DUP1 DUP1 DUP1 DUP1 DUP1 DUP1 DUP1 DUP11 DUP2 DUP1 DUP1 DUP1 SWAP15 DUP2 DUP1 DUP1 DUP1 DUP1 DUP1 DUP1 DUP8 DUP2 DUP1 DUP1 DUP1 DUP1 DUP1 DUP1 SWAP15 DUP2 DUP1 DUP1 DUP1 DUP1 DUP1 DUP7 DUP2 DUP1 DUP1 DUP1 DUP1 DUP1 DUP1 DUP1 SWAP15 DUP2 DUP1 DUP1 DUP1 DUP1 DUP1 DUP7 DUP2 DUP1 DUP1 DUP1 DUP1 DUP1 DUP1 DUP1 SWAP15 DUP2 DUP1 DUP1 DUP1 DUP1 DUP1 DUP7 DUP2 DUP1 DUP1 DUP1 DUP1 DUP1 DUP1 DUP1 SWAP15 DUP2 DUP1 DUP1 DUP1 DUP1 DUP1 DUP1 DUP1 DUP1 DUP1 DUP1 DUP1 DUP13 DUP2 DUP1 SWAP15 DUP2 DUP1 DUP1 DUP1 DUP1 DUP1 DUP1 DUP1 DUP1 DUP1 DUP1 DUP12 DUP2 DUP1 DUP1 SWAP15 DUP2 DUP1 DUP1 DUP1 DUP1 DUP1 DUP1 DUP8 DUP2 DUP1 DUP1 DUP1 DUP1 DUP1 DUP1 SWAP15 DUP2 DUP1 DUP1 DUP1 DUP1 DUP1 DUP1 DUP1 SWAP8 DUP2 DUP1 DUP1 DUP1 DUP1 DUP6 DUP2 DUP1 DUP1 DUP1 DUP1 DUP1 DUP1 DUP1 DUP1 DUP1 DUP1 DUP12 DUP2 DUP2 DUP1 MULMOD MULMOD DUP2 DUP13 DUP2 DUP2 DUP1 MULMOD MULMOD MULMOD DUP2 DUP1 DUP13 DUP2 DUP2 DUP1 MULMOD MULMOD DUP2 DUP14 DUP2 DUP2 DUP1 MULMOD MULMOD MULMOD MULMOD DUP2 DUP1 DUP1 DUP13 DUP2 DUP2 DUP1 MULMOD MULMOD DUP2 DUP14 DUP2 DUP2 DUP1 MULMOD MULMOD MULMOD DUP2 DUP13 DUP2 DUP1 DUP3 DUP2 DUP2 DUP1 MULMOD MULMOD SWAP2 DUP2 DUP2 DUP1 MULMOD MULMOD MULMOD MULMOD MULMOD DUP1 MULMOD DUP1 MULMOD DUP1 MULMOD DUP2 DUP1 DUP8 DUP2 DUP2 DUP1 MULMOD MULMOD SWAP2 DUP1 MULMOD MULMOD DUP1 MULMOD DUP1 MULMOD DUP1 MULMOD MULMOD DUP1 MULMOD DUP1 MULMOD DUP1 MULMOD DUP1 MULMOD MULMOD DUP1 MULMOD DUP1 MULMOD DUP1 MULMOD DUP1 MULMOD DUP2 DUP1 DUP13 DUP2 DUP1 DUP3 DUP1 MULMOD SWAP2 DUP2 DUP1 DUP3 DUP1 MULMOD SWAP2 DUP2 DUP2 DUP1 MULMOD MULMOD MULMOD MULMOD SWAP2 DUP1 MULMOD MULMOD DUP1 MULMOD DUP1 MULMOD DUP1 MULMOD DUP1 MULMOD DUP2 DUP1 DUP1 DUP9 DUP1 MULMOD DUP2 DUP1 DUP11 DUP1 MULMOD DUP2 DUP12 DUP2 DUP2 DUP1 MULMOD MULMOD MULMOD MULMOD SWAP2 DUP1 MULMOD MULMOD DUP1 MULMOD DUP1 MULMOD DUP1 MULMOD MULMOD DUP1 MULMOD DUP1 MULMOD DUP1 MULMOD DUP2 DUP1 DUP1 DUP11 DUP1 MULMOD DUP2 DUP1 DUP13 DUP1 MULMOD DUP2 DUP14 DUP2 DUP2 DUP1 MULMOD MULMOD MULMOD MULMOD SWAP2 DUP1 MULMOD MULMOD DUP1 MULMOD DUP1 MULMOD DUP1 MULMOD DUP1 MULMOD DUP1 MULMOD MULMOD DUP1 MULMOD DUP1 MULMOD DUP1 MULMOD DUP2 DUP1 DUP13 DUP2 DUP2 DUP1 MULMOD MULMOD SWAP2 DUP1 MULMOD MULMOD DUP1 MULMOD DUP1 MULMOD DUP1 MULMOD DUP1 MULMOD DUP1 MULMOD DUP1 MULMOD SWAP3 DUP2 DUP1 DUP1 DUP4 DUP2 DUP2 DUP1 MULMOD MULMOD DUP2 DUP5 DUP2 DUP2 DUP1 MULMOD MULMOD MULMOD SWAP2 DUP2 DUP1 DUP3 DUP1 MULMOD SWAP2 DUP2 DUP1 DUP3 DUP1 MULMOD SWAP2 DUP2 DUP2 DUP1 MULMOD MULMOD MULMOD MULMOD MULMOD SWAP2 DUP1 MULMOD MULMOD DUP1 MULMOD DUP1 MULMOD DUP1 MULMOD DUP1 MULMOD DUP1 MULMOD DUP1 MULMOD DUP1 MULMOD DUP1 MULMOD DUP1 MULMOD DUP2 DUP1 DUP14 DUP2 DUP1 DUP3 DUP1 MULMOD SWAP2 DUP2 DUP2 DUP1 MULMOD MULMOD MULMOD SWAP2 DUP1 MULMOD MULMOD DUP1 MULMOD DUP1 MULMOD DUP1 MULMOD DUP2 DUP1 DUP10 DUP2 DUP2 DUP1 MULMOD MULMOD SWAP2 DUP1 MULMOD MULMOD DUP1 MULMOD DUP1 MULMOD DUP1 MULMOD SWAP3 DUP2 DUP1 DUP3 DUP1 MULMOD SWAP2 DUP2 DUP1 DUP3 DUP1 MULMOD SWAP2 DUP2 DUP2 DUP1 MULMOD MULMOD MULMOD MULMOD SWAP2 DUP1 MULMOD MULMOD DUP1 MULMOD DUP1 MULMOD DUP1 MULMOD DUP1 MULMOD DUP1 MULMOD DUP1 MULMOD DUP2 DUP1 DUP1 DUP12 DUP1 MULMOD DUP2 DUP13 DUP2 DUP2 DUP1 MULMOD MULMOD MULMOD SWAP2 DUP1 MULMOD MULMOD DUP1 MULMOD DUP1 MULMOD DUP1 MULMOD DUP1 MULMOD DUP1 MULMOD DUP1 MULMOD MULMOD DUP1 MULMOD DUP1 MULMOD DUP1 MULMOD DUP1 MULMOD DUP1 MULMOD DUP1 MULMOD DUP2 DUP1 DUP1 DUP1 DUP13 DUP1 MULMOD DUP2 DUP14 DUP2 DUP2 DUP1 MULMOD MULMOD MULMOD DUP2 DUP13 DUP2 DUP1 DUP3 DUP2 DUP2 DUP1 MULMOD MULMOD SWAP2 DUP2 DUP2 DUP1 MULMOD MULMOD MULMOD MULMOD SWAP2 DUP1 MULMOD MULMOD DUP1 MULMOD DUP1 MULMOD DUP1 MULMOD DUP1 MULMOD SWAP3 DUP2 DUP1 DUP1 DUP4 DUP2 DUP2 DUP1 MULMOD MULMOD DUP2 DUP5 DUP2 DUP2 DUP1 MULMOD MULMOD MULMOD SWAP2 DUP2 DUP1 DUP3 DUP1 MULMOD SWAP2 DUP2 DUP1 DUP3 DUP1 MULMOD SWAP2 DUP2 DUP2 DUP1 MULMOD MULMOD MULMOD MULMOD MULMOD SWAP2 DUP1 MULMOD MULMOD DUP1 MULMOD DUP1 MULMOD DUP2 DUP1 DUP14 DUP2 DUP1 DUP3 DUP1 MULMOD SWAP2 DUP2 DUP2 DUP1 MULMOD MULMOD MULMOD SWAP2 DUP1 MULMOD MULMOD DUP1 MULMOD DUP1 MULMOD DUP1 MULMOD DUP1 MULMOD DUP1 MULMOD DUP1 MULMOD DUP1 MULMOD SWAP3 DUP2 DUP2 DUP1 MULMOD MULMOD SWAP2 DUP1 MULMOD MULMOD DUP1 MULMOD DUP1 MULMOD DUP1 MULMOD DUP1 MULMOD DUP1 MULMOD DUP1 MULMOD DUP1 MULMOD DUP1 MULMOD SWAP3 DUP2 DUP1 DUP3 DUP1 MULMOD SWAP2 DUP2 DUP2 DUP1 MULMOD MULMOD MULMOD SWAP2 DUP1 MULMOD MULMOD DUP1 MULMOD DUP1 MULMOD DUP2 DUP1 DUP14 DUP2 DUP2 DUP1 MULMOD MULMOD SWAP2 DUP1 MULMOD MULMOD DUP1 MULMOD DUP1 MULMOD DUP1 MULMOD DUP1 MULMOD DUP1 MULMOD DUP1 MULMOD DUP1 MULMOD SWAP3 DUP2 DUP1 DUP1 DUP4 DUP1 MULMOD DUP2 DUP5 DUP2 DUP2 DUP1 MULMOD MULMOD MULMOD SWAP2 DUP2 DUP1 DUP3 DUP2 DUP2 DUP1 MULMOD MULMOD SWAP2 DUP2 DUP2 DUP1 MULMOD MULMOD MULMOD MULMOD SWAP2 DUP1 MULMOD MULMOD DUP1 MULMOD DUP1 MULMOD DUP1 MULMOD DUP2 DUP1 DUP14 DUP2 DUP1 DUP1 DUP4 DUP1 MULMOD DUP2 DUP5 DUP2 DUP2 DUP1 MULMOD MULMOD MULMOD SWAP2 DUP2 DUP1 DUP3 DUP2 DUP2 DUP1 MULMOD MULMOD SWAP2 DUP2 DUP2 DUP1 MULMOD MULMOD MULMOD MULMOD SWAP2 DUP1 MULMOD MULMOD DUP1 MULMOD DUP1 MULMOD DUP1 MULMOD DUP1 MULMOD DUP2 DUP1 DUP1 DUP10 DUP1 MULMOD DUP2 DUP11 DUP2 DUP2 DUP1 MULMOD MULMOD MULMOD SWAP2 DUP1 MULMOD MULMOD DUP1 MULMOD DUP1 MULMOD SWAP3 DUP2 DUP1 DUP3 DUP1 MULMOD SWAP2 DUP2 DUP1 DUP3 DUP1 MULMOD SWAP2 DUP2 DUP2 DUP1 MULMOD MULMOD MULMOD MULMOD SWAP2 DUP1 MULMOD MULMOD DUP1 MULMOD DUP1 MULMOD DUP1 MULMOD DUP1 MULMOD DUP1 MULMOD DUP1 MULMOD DUP1 MULMOD DUP1 MULMOD DUP1 MULMOD DUP2 DUP1 DUP1 DUP1 DUP12 DUP1 MULMOD DUP2 DUP13 DUP2 DUP2 DUP1 MULMOD MULMOD MULMOD DUP2 DUP1 DUP13 DUP2 DUP2 DUP1 MULMOD MULMOD DUP2 DUP14 DUP2 DUP2 DUP1 MULMOD MULMOD MULMOD MULMOD SWAP2 DUP1 MULMOD MULMOD DUP1 MULMOD DUP1 MULMOD DUP1 MULMOD SWAP3 DUP2 DUP1 DUP3 DUP1 MULMOD SWAP2 DUP2 DUP2 DUP1 MULMOD MULMOD MULMOD SWAP2 DUP1 MULMOD MULMOD DUP1 MULMOD DUP1 MULMOD DUP1 MULMOD DUP1 MULMOD DUP2 DUP1 DUP14 DUP2 DUP1 DUP3 DUP2 DUP2 DUP1 MULMOD MULMOD SWAP2 DUP2 DUP1 DUP3 DUP2 DUP2 DUP1 MULMOD MULMOD SWAP2 DUP2 DUP2 DUP1 MULMOD MULMOD MULMOD MULMOD SWAP2 DUP1 MULMOD MULMOD DUP1 MULMOD DUP1 MULMOD DUP1 MULMOD DUP1 MULMOD DUP1 MULMOD DUP1 MULMOD DUP2 DUP1 DUP1 DUP1 DUP9 DUP1 MULMOD DUP2 DUP10 DUP2 DUP2 DUP1 MULMOD MULMOD MULMOD DUP2 DUP1 DUP10 DUP2 DUP2 DUP1 MULMOD MULMOD DUP2 DUP11 DUP2 DUP2 DUP1 MULMOD MULMOD MULMOD MULMOD SWAP2 DUP1 MULMOD MULMOD DUP1 MULMOD DUP1 MULMOD MULMOD DUP1 MULMOD DUP1 MULMOD DUP1 MULMOD DUP1 MULMOD DUP1 MULMOD DUP1 MULMOD SWAP3 DUP2 DUP1 DUP3 DUP1 MULMOD SWAP2 DUP2 DUP1 DUP3 DUP1 MULMOD SWAP2 DUP2 DUP2 DUP1 MULMOD MULMOD MULMOD MULMOD SWAP2 DUP1 MULMOD MULMOD DUP1 MULMOD DUP1 MULMOD DUP1 MULMOD DUP1 MULMOD DUP1 MULMOD DUP2 DUP1 DUP1 DUP13 DUP1 MULMOD DUP2 DUP14 DUP2 DUP1 DUP3 DUP1 MULMOD SWAP2 DUP2 DUP2 DUP1 MULMOD MULMOD MULMOD MULMOD SWAP2 DUP1 MULMOD MULMOD DUP1 MULMOD DUP1 MULMOD DUP1 MULMOD DUP1 MULMOD DUP2 DUP1 DUP1 DUP8 DUP1 MULMOD DUP2 DUP9 DUP2 DUP2 DUP1 MULMOD MULMOD MULMOD SWAP2 DUP1 MULMOD MULMOD DUP1 MULMOD DUP1 MULMOD MULMOD DUP1 MULMOD DUP1 MULMOD DUP1 MULMOD DUP1 MULMOD DUP1 MULMOD DUP1 MULMOD SWAP3 DUP2 DUP1 DUP1 DUP4 DUP2 DUP2 DUP1 MULMOD MULMOD DUP2 DUP5 DUP2 DUP2 DUP1 MULMOD MULMOD MULMOD SWAP2 DUP2 DUP1 DUP3 DUP1 MULMOD SWAP2 DUP2 DUP1 DUP3 DUP1 MULMOD SWAP2 DUP2 DUP2 DUP1 MULMOD MULMOD MULMOD MULMOD MULMOD SWAP2 DUP1 MULMOD MULMOD DUP1 MULMOD DUP1 MULMOD DUP1 MULMOD DUP1 MULMOD DUP1 MULMOD DUP2 DUP1 DUP1 DUP1 DUP12 DUP2 DUP2 DUP1 MULMOD MULMOD DUP2 DUP13 DUP2 DUP2 DUP1 MULMOD MULMOD MULMOD DUP2 DUP1 DUP13 DUP2 DUP2 DUP1 MULMOD MULMOD DUP2 DUP14 DUP2 DUP1 DUP3 DUP2 DUP2 DUP1 MULMOD MULMOD SWAP2 DUP2 DUP2 DUP1 MULMOD MULMOD MULMOD MULMOD MULMOD SWAP2 DUP1 MULMOD MULMOD DUP1 MULMOD DUP1 MULMOD DUP1 MULMOD DUP1 MULMOD DUP1 MULMOD MULMOD DUP1 MULMOD DUP1 MULMOD DUP1 MULMOD DUP1 MULMOD DUP1 MULMOD DUP1 MULMOD MULMOD DUP1 MULMOD DUP1 MULMOD DUP1 MULMOD DUP1 MULMOD SWAP3 DUP2 DUP2 DUP1 MULMOD MULMOD SWAP2 DUP1 MULMOD MULMOD DUP1 MULMOD DUP1 MULMOD DUP1 MULMOD DUP1 MULMOD DUP1 MULMOD DUP1 MULMOD DUP1 MULMOD DUP1 MULMOD DUP2 DUP1 DUP1 DUP13 DUP2 DUP1 DUP3 DUP1 MULMOD SWAP2 DUP2 DUP2 DUP1 MULMOD MULMOD MULMOD DUP2 DUP14 DUP2 DUP1 DUP3 DUP2 DUP2 DUP1 MULMOD MULMOD SWAP2 DUP2 DUP2 DUP1 MULMOD MULMOD MULMOD MULMOD SWAP2 DUP1 MULMOD MULMOD DUP1 MULMOD DUP1 MULMOD DUP2 DUP1 DUP9 DUP2 DUP2 DUP1 MULMOD MULMOD SWAP2 DUP1 MULMOD MULMOD DUP1 MULMOD DUP1 MULMOD SWAP3 DUP2 DUP2 DUP1 MULMOD MULMOD SWAP2 DUP1 MULMOD MULMOD DUP1 MULMOD DUP1 MULMOD DUP1 MULMOD DUP1 MULMOD DUP1 MULMOD DUP1 MULMOD DUP1 MULMOD DUP2 DUP1 DUP14 DUP2 DUP1 DUP1 DUP4 DUP2 DUP2 DUP1 MULMOD MULMOD DUP2 DUP5 DUP2 DUP2 DUP1 MULMOD MULMOD MULMOD SWAP2 DUP2 DUP1 DUP3 DUP2 DUP2 DUP1 MULMOD MULMOD SWAP2 DUP2 DUP1 DUP3 DUP2 DUP2 DUP1 MULMOD MULMOD SWAP2 DUP2 DUP2 DUP1 MULMOD MULMOD MULMOD MULMOD MULMOD SWAP2 DUP1 MULMOD MULMOD DUP1 MULMOD DUP1 MULMOD DUP1 MULMOD DUP2 DUP1 DUP1 DUP11 DUP2 DUP2 DUP1 MULMOD MULMOD DUP2 DUP1 DUP13 DUP2 DUP2 DUP1 MULMOD MULMOD DUP2 DUP14 DUP2 DUP2 DUP1 MULMOD MULMOD MULMOD MULMOD SWAP2 DUP1 MULMOD MULMOD DUP1 MULMOD DUP1 MULMOD DUP1 MULMOD SWAP3 DUP2 DUP1 DUP1 DUP4 DUP2 DUP2 DUP1 MULMOD MULMOD DUP2 DUP5 DUP2 DUP2 DUP1 MULMOD MULMOD MULMOD SWAP2 DUP2 DUP1 DUP3 DUP2 DUP2 DUP1 MULMOD MULMOD SWAP2 DUP2 DUP1 DUP3 DUP2 DUP2 DUP1 MULMOD MULMOD SWAP2 DUP2 DUP2 DUP1 MULMOD MULMOD MULMOD MULMOD MULMOD SWAP2 DUP1 MULMOD MULMOD DUP1 MULMOD DUP1 MULMOD DUP2 DUP1 DUP1 DUP13 DUP1 MULMOD DUP2 DUP14 DUP2 DUP2 DUP1 MULMOD MULMOD MULMOD SWAP2 DUP1 MULMOD MULMOD DUP1 MULMOD DUP1 MULMOD DUP1 MULMOD DUP1 MULMOD DUP2 DUP1 DUP1 DUP8 DUP2 DUP2 DUP1 MULMOD MULMOD DUP2 DUP1 DUP10 DUP2 DUP2 DUP1 MULMOD MULMOD DUP2 DUP11 DUP2 DUP2 DUP1 MULMOD MULMOD MULMOD MULMOD SWAP2 DUP1 MULMOD MULMOD DUP1 MULMOD SWAP2 PUSH32 0x30644E72E131A029B85045B68181585D97816A916871CA8D3C208C16D87CFD47 DUP4 DUP1 MULMOD EQ SWAP1 JUMP JUMPDEST DUP1 PUSH32 0x30644E72E131A029B85045B68181585D97816A916871CA8D3C208C16D87CFD47 DUP1 DUP1 DUP1 DUP1 DUP1 DUP1 DUP1 DUP9 DUP2 DUP1 DUP1 DUP1 DUP1 SWAP15 DUP2 DUP1 DUP1 DUP1 DUP1 DUP1 DUP1 DUP1 DUP1 DUP10 DUP2 DUP1 DUP1 DUP1 DUP1 SWAP15 DUP2 DUP1 DUP1 DUP1 DUP1 DUP1 DUP1 DUP1 DUP9 DUP2 DUP1 DUP1 DUP1 DUP1 DUP1 SWAP15 DUP2 DUP1 DUP1 DUP1 DUP1 DUP1 DUP1 DUP1 DUP9 DUP2 DUP1 DUP1 DUP1 DUP1 DUP1 SWAP15 DUP2 DUP2 DUP2 DUP1 DUP1 DUP1 DUP1 DUP1 DUP1 DUP8 DUP2 DUP1 DUP1 DUP1 DUP1 SWAP15 DUP2 DUP1 DUP1 DUP1 DUP1 DUP1 DUP1 DUP8 DUP2 DUP1 DUP1 DUP1 DUP1 DUP1 DUP1 SWAP15 DUP2 DUP1 DUP3 DUP2 DUP1 DUP1 DUP1 DUP1 DUP1 DUP1 DUP1 DUP1 DUP1 DUP1 DUP1 SWAP15 DUP2 DUP1 DUP3 DUP2 DUP1 DUP1 DUP1 DUP1 DUP1 DUP1 DUP1 DUP1 DUP10 DUP2 DUP1 SWAP15 DUP2 DUP1 DUP1 DUP1 DUP1 DUP1 DUP1 DUP1 DUP1 DUP1 DUP1 DUP1 DUP1 DUP14 DUP2 SWAP15 DUP3 DUP1 DUP1 DUP1 DUP1 DUP1 DUP1 DUP1 DUP1 DUP1 DUP1 DUP1 DUP1 DUP1 DUP1 SWAP15 DUP1 DUP3 DUP1 DUP1 DUP1 DUP1 DUP1 DUP1 DUP1 DUP1 DUP1 DUP1 DUP1 DUP1 DUP1 SWAP15 DUP1 DUP3 DUP1 DUP1 DUP1 DUP1 DUP1 DUP1 DUP1 DUP1 DUP1 DUP1 DUP1 DUP1 DUP14 DUP2 SWAP16 DUP3 DUP1 DUP1 DUP1 DUP1 DUP1 DUP1 DUP1 DUP1 DUP1 DUP11 DUP2 DUP1 DUP1 DUP1 SWAP15 DUP2 DUP1 DUP1 DUP1 DUP1 DUP1 DUP1 DUP1 DUP1 DUP10 DUP2 DUP1 DUP1 DUP1 DUP1 SWAP15 DUP2 DUP1 DUP1 DUP1 DUP1 DUP1 DUP1 DUP1 DUP1 DUP10 DUP2 DUP1 DUP1 DUP1 DUP1 SWAP15 DUP2 DUP1 DUP1 DUP1 DUP1 DUP1 DUP1 DUP1 DUP1 DUP10 DUP2 DUP1 DUP1 DUP1 DUP1 SWAP15 DUP2 DUP1 DUP1 DUP1 DUP1 DUP1 DUP1 DUP1 DUP1 DUP1 DUP1 DUP1 DUP1 DUP1 DUP1 SWAP15 DUP1 DUP3 DUP1 DUP1 DUP1 DUP1 DUP1 DUP1 DUP1 DUP1 DUP1 DUP1 DUP1 DUP1 DUP14 DUP2 SWAP16 DUP3 DUP1 DUP1 DUP1 DUP1 DUP1 DUP1 DUP1 DUP1 DUP10 DUP2 DUP1 DUP1 DUP1 DUP1 SWAP15 DUP2 DUP1 DUP1 DUP1 DUP1 DUP1 DUP1 DUP1 DUP1 DUP1 SWAP10 DUP2 DUP1 DUP1 DUP1 DUP1 DUP6 DUP2 DUP1 DUP1 DUP1 DUP1 DUP1 DUP1 DUP1 DUP1 DUP1 DUP1 DUP12 DUP2 DUP2 DUP1 MULMOD MULMOD DUP2 DUP13 DUP2 DUP2 DUP1 MULMOD MULMOD MULMOD DUP2 DUP1 DUP13 DUP2 DUP2 DUP1 MULMOD MULMOD DUP2 DUP14 DUP2 DUP2 DUP1 MULMOD MULMOD MULMOD MULMOD DUP2 DUP1 DUP1 DUP13 DUP2 DUP2 DUP1 MULMOD MULMOD DUP2 DUP14 DUP2 DUP2 DUP1 MULMOD MULMOD MULMOD DUP2 DUP13 DUP2 DUP1 DUP3 DUP2 DUP2 DUP1 MULMOD MULMOD SWAP2 DUP2 DUP2 DUP1 MULMOD MULMOD MULMOD MULMOD MULMOD DUP1 MULMOD DUP1 MULMOD DUP1 MULMOD DUP2 DUP1 DUP8 DUP2 DUP2 DUP1 MULMOD MULMOD SWAP2 DUP1 MULMOD MULMOD DUP1 MULMOD DUP1 MULMOD DUP1 MULMOD MULMOD DUP1 MULMOD DUP1 MULMOD DUP1 MULMOD DUP1 MULMOD MULMOD DUP1 MULMOD DUP1 MULMOD DUP1 MULMOD DUP1 MULMOD DUP2 DUP1 DUP13 DUP2 DUP1 DUP3 DUP1 MULMOD SWAP2 DUP2 DUP1 DUP3 DUP1 MULMOD SWAP2 DUP2 DUP2 DUP1 MULMOD MULMOD MULMOD MULMOD SWAP2 DUP1 MULMOD MULMOD DUP1 MULMOD DUP1 MULMOD DUP1 MULMOD DUP1 MULMOD DUP2 DUP1 DUP1 DUP9 DUP1 MULMOD DUP2 DUP1 DUP11 DUP1 MULMOD DUP2 DUP12 DUP2 DUP2 DUP1 MULMOD MULMOD MULMOD MULMOD SWAP2 DUP1 MULMOD MULMOD DUP1 MULMOD DUP1 MULMOD DUP1 MULMOD MULMOD DUP1 MULMOD DUP1 MULMOD DUP1 MULMOD DUP2 DUP1 DUP1 DUP11 DUP1 MULMOD DUP2 DUP1 DUP13 DUP1 MULMOD DUP2 DUP14 DUP2 DUP2 DUP1 MULMOD MULMOD MULMOD MULMOD SWAP2 DUP1 MULMOD MULMOD DUP1 MULMOD DUP1 MULMOD DUP1 MULMOD DUP1 MULMOD DUP1 MULMOD MULMOD DUP1 MULMOD DUP1 MULMOD DUP1 MULMOD DUP2 DUP1 DUP13 DUP2 DUP2 DUP1 MULMOD MULMOD SWAP2 DUP1 MULMOD MULMOD DUP1 MULMOD DUP1 MULMOD DUP1 MULMOD DUP1 MULMOD DUP1 MULMOD DUP1 MULMOD SWAP3 DUP2 DUP1 DUP1 DUP4 DUP2 DUP2 DUP1 MULMOD MULMOD DUP2 DUP5 DUP2 DUP2 DUP1 MULMOD MULMOD MULMOD SWAP2 DUP2 DUP1 DUP3 DUP1 MULMOD SWAP2 DUP2 DUP1 DUP3 DUP1 MULMOD SWAP2 DUP2 DUP2 DUP1 MULMOD MULMOD MULMOD MULMOD MULMOD SWAP2 DUP1 MULMOD MULMOD DUP1 MULMOD DUP1 MULMOD DUP1 MULMOD DUP1 MULMOD DUP1 MULMOD DUP1 MULMOD DUP1 MULMOD DUP1 MULMOD DUP1 MULMOD DUP2 DUP1 DUP14 DUP2 DUP1 DUP3 DUP1 MULMOD SWAP2 DUP2 DUP2 DUP1 MULMOD MULMOD MULMOD SWAP2 DUP1 MULMOD MULMOD DUP1 MULMOD DUP1 MULMOD DUP1 MULMOD DUP2 DUP1 DUP10 DUP2 DUP2 DUP1 MULMOD MULMOD SWAP2 DUP1 MULMOD MULMOD DUP1 MULMOD DUP1 MULMOD DUP1 MULMOD SWAP3 DUP2 DUP1 DUP3 DUP1 MULMOD SWAP2 DUP2 DUP1 DUP3 DUP1 MULMOD SWAP2 DUP2 DUP2 DUP1 MULMOD MULMOD MULMOD MULMOD SWAP2 DUP1 MULMOD MULMOD DUP1 MULMOD DUP1 MULMOD DUP1 MULMOD DUP1 MULMOD DUP1 MULMOD DUP1 MULMOD DUP2 DUP1 DUP1 DUP12 DUP1 MULMOD DUP2 DUP13 DUP2 DUP2 DUP1 MULMOD MULMOD MULMOD SWAP2 DUP1 MULMOD MULMOD DUP1 MULMOD DUP1 MULMOD DUP1 MULMOD DUP1 MULMOD DUP1 MULMOD DUP1 MULMOD MULMOD DUP1 MULMOD DUP1 MULMOD DUP1 MULMOD DUP1 MULMOD DUP1 MULMOD DUP1 MULMOD DUP2 DUP1 DUP1 DUP1 DUP13 DUP1 MULMOD DUP2 DUP14 DUP2 DUP2 DUP1 MULMOD MULMOD MULMOD DUP2 DUP13 DUP2 DUP1 DUP3 DUP2 DUP2 DUP1 MULMOD MULMOD SWAP2 DUP2 DUP2 DUP1 MULMOD MULMOD MULMOD MULMOD SWAP2 DUP1 MULMOD MULMOD DUP1 MULMOD DUP1 MULMOD DUP1 MULMOD DUP1 MULMOD SWAP3 DUP2 DUP1 DUP1 DUP4 DUP2 DUP2 DUP1 MULMOD MULMOD DUP2 DUP5 DUP2 DUP2 DUP1 MULMOD MULMOD MULMOD SWAP2 DUP2 DUP1 DUP3 DUP1 MULMOD SWAP2 DUP2 DUP1 DUP3 DUP1 MULMOD SWAP2 DUP2 DUP2 DUP1 MULMOD MULMOD MULMOD MULMOD MULMOD SWAP2 DUP1 MULMOD MULMOD DUP1 MULMOD DUP1 MULMOD DUP2 DUP1 DUP14 DUP2 DUP1 DUP3 DUP1 MULMOD SWAP2 DUP2 DUP2 DUP1 MULMOD MULMOD MULMOD SWAP2 DUP1 MULMOD MULMOD DUP1 MULMOD DUP1 MULMOD DUP1 MULMOD DUP1 MULMOD DUP1 MULMOD DUP1 MULMOD DUP1 MULMOD SWAP3 DUP2 DUP2 DUP1 MULMOD MULMOD SWAP2 DUP1 MULMOD MULMOD DUP1 MULMOD DUP1 MULMOD DUP1 MULMOD DUP1 MULMOD DUP1 MULMOD DUP1 MULMOD DUP1 MULMOD DUP1 MULMOD SWAP3 DUP2 DUP1 DUP3 DUP1 MULMOD SWAP2 DUP2 DUP2 DUP1 MULMOD MULMOD MULMOD SWAP2 DUP1 MULMOD MULMOD DUP1 MULMOD DUP1 MULMOD DUP2 DUP1 DUP14 DUP2 DUP2 DUP1 MULMOD MULMOD SWAP2 DUP1 MULMOD MULMOD DUP1 MULMOD DUP1 MULMOD DUP1 MULMOD DUP1 MULMOD DUP1 MULMOD DUP1 MULMOD DUP1 MULMOD SWAP3 DUP2 DUP1 DUP1 DUP4 DUP1 MULMOD DUP2 DUP5 DUP2 DUP2 DUP1 MULMOD MULMOD MULMOD SWAP2 DUP2 DUP1 DUP3 DUP2 DUP2 DUP1 MULMOD MULMOD SWAP2 DUP2 DUP2 DUP1 MULMOD MULMOD MULMOD MULMOD SWAP2 DUP1 MULMOD MULMOD DUP1 MULMOD DUP1 MULMOD DUP1 MULMOD DUP2 DUP1 DUP14 DUP2 DUP1 DUP1 DUP4 DUP1 MULMOD DUP2 DUP5 DUP2 DUP2 DUP1 MULMOD MULMOD MULMOD SWAP2 DUP2 DUP1 DUP3 DUP2 DUP2 DUP1 MULMOD MULMOD SWAP2 DUP2 DUP2 DUP1 MULMOD MULMOD MULMOD MULMOD SWAP2 DUP1 MULMOD MULMOD DUP1 MULMOD DUP1 MULMOD DUP1 MULMOD DUP1 MULMOD DUP2 DUP1 DUP1 DUP10 DUP1 MULMOD DUP2 DUP11 DUP2 DUP2 DUP1 MULMOD MULMOD MULMOD SWAP2 DUP1 MULMOD MULMOD DUP1 MULMOD DUP1 MULMOD SWAP3 DUP2 DUP1 DUP3 DUP1 MULMOD SWAP2 DUP2 DUP1 DUP3 DUP1 MULMOD SWAP2 DUP2 DUP2 DUP1 MULMOD MULMOD MULMOD MULMOD SWAP2 DUP1 MULMOD MULMOD DUP1 MULMOD DUP1 MULMOD DUP1 MULMOD DUP1 MULMOD DUP1 MULMOD DUP1 MULMOD DUP1 MULMOD DUP1 MULMOD DUP1 MULMOD DUP2 DUP1 DUP1 DUP1 DUP12 DUP1 MULMOD DUP2 DUP13 DUP2 DUP2 DUP1 MULMOD MULMOD MULMOD DUP2 DUP1 DUP13 DUP2 DUP2 DUP1 MULMOD MULMOD DUP2 DUP14 DUP2 DUP2 DUP1 MULMOD MULMOD MULMOD MULMOD SWAP2 DUP1 MULMOD MULMOD DUP1 MULMOD DUP1 MULMOD DUP1 MULMOD SWAP3 DUP2 DUP1 DUP3 DUP1 MULMOD SWAP2 DUP2 DUP2 DUP1 MULMOD MULMOD MULMOD SWAP2 DUP1 MULMOD MULMOD DUP1 MULMOD DUP1 MULMOD DUP1 MULMOD DUP1 MULMOD DUP2 DUP1 DUP14 DUP2 DUP1 DUP3 DUP2 DUP2 DUP1 MULMOD MULMOD SWAP2 DUP2 DUP1 DUP3 DUP2 DUP2 DUP1 MULMOD MULMOD SWAP2 DUP2 DUP2 DUP1 MULMOD MULMOD MULMOD MULMOD SWAP2 DUP1 MULMOD MULMOD DUP1 MULMOD DUP1 MULMOD DUP1 MULMOD DUP1 MULMOD DUP1 MULMOD DUP1 MULMOD DUP2 DUP1 DUP1 DUP1 DUP9 DUP1 MULMOD DUP2 DUP10 DUP2 DUP2 DUP1 MULMOD MULMOD MULMOD DUP2 DUP1 DUP10 DUP2 DUP2 DUP1 MULMOD MULMOD DUP2 DUP11 DUP2 DUP2 DUP1 MULMOD MULMOD MULMOD MULMOD SWAP2 DUP1 MULMOD MULMOD DUP1 MULMOD DUP1 MULMOD MULMOD DUP1 MULMOD DUP1 MULMOD DUP1 MULMOD DUP1 MULMOD DUP1 MULMOD DUP1 MULMOD SWAP3 DUP2 DUP1 DUP3 DUP1 MULMOD SWAP2 DUP2 DUP1 DUP3 DUP1 MULMOD SWAP2 DUP2 DUP2 DUP1 MULMOD MULMOD MULMOD MULMOD SWAP2 DUP1 MULMOD MULMOD DUP1 MULMOD DUP1 MULMOD DUP1 MULMOD DUP1 MULMOD DUP1 MULMOD DUP2 DUP1 DUP1 DUP13 DUP1 MULMOD DUP2 DUP14 DUP2 DUP1 DUP3 DUP1 MULMOD SWAP2 DUP2 DUP2 DUP1 MULMOD MULMOD MULMOD MULMOD SWAP2 DUP1 MULMOD MULMOD DUP1 MULMOD DUP1 MULMOD DUP1 MULMOD DUP1 MULMOD DUP2 DUP1 DUP1 DUP8 DUP1 MULMOD DUP2 DUP9 DUP2 DUP2 DUP1 MULMOD MULMOD MULMOD SWAP2 DUP1 MULMOD MULMOD DUP1 MULMOD DUP1 MULMOD MULMOD DUP1 MULMOD DUP1 MULMOD DUP1 MULMOD DUP1 MULMOD DUP1 MULMOD DUP1 MULMOD SWAP3 DUP2 DUP1 DUP1 DUP4 DUP2 DUP2 DUP1 MULMOD MULMOD DUP2 DUP5 DUP2 DUP2 DUP1 MULMOD MULMOD MULMOD SWAP2 DUP2 DUP1 DUP3 DUP1 MULMOD SWAP2 DUP2 DUP1 DUP3 DUP1 MULMOD SWAP2 DUP2 DUP2 DUP1 MULMOD MULMOD MULMOD MULMOD MULMOD SWAP2 DUP1 MULMOD MULMOD DUP1 MULMOD DUP1 MULMOD DUP1 MULMOD DUP1 MULMOD DUP1 MULMOD DUP2 DUP1 DUP1 DUP1 DUP12 DUP2 DUP2 DUP1 MULMOD MULMOD DUP2 DUP13 DUP2 DUP2 DUP1 MULMOD MULMOD MULMOD DUP2 DUP1 DUP13 DUP2 DUP2 DUP1 MULMOD MULMOD DUP2 DUP14 DUP2 DUP1 DUP3 DUP2 DUP2 DUP1 MULMOD MULMOD SWAP2 DUP2 DUP2 DUP1 MULMOD MULMOD MULMOD MULMOD MULMOD SWAP2 DUP1 MULMOD MULMOD DUP1 MULMOD DUP1 MULMOD DUP1 MULMOD DUP1 MULMOD DUP1 MULMOD MULMOD DUP1 MULMOD DUP1 MULMOD DUP1 MULMOD DUP1 MULMOD DUP1 MULMOD DUP1 MULMOD MULMOD DUP1 MULMOD DUP1 MULMOD DUP1 MULMOD DUP1 MULMOD SWAP3 DUP2 DUP2 DUP1 MULMOD MULMOD SWAP2 DUP1 MULMOD MULMOD DUP1 MULMOD DUP1 MULMOD DUP1 MULMOD DUP1 MULMOD DUP1 MULMOD DUP1 MULMOD DUP1 MULMOD DUP1 MULMOD DUP2 DUP1 DUP1 DUP1 DUP11 DUP1 MULMOD DUP2 DUP12 DUP2 DUP2 DUP1 MULMOD MULMOD MULMOD DUP2 DUP1 DUP12 DUP2 DUP2 DUP1 MULMOD MULMOD DUP2 DUP13 DUP2 DUP2 DUP1 MULMOD MULMOD MULMOD MULMOD SWAP2 DUP1 MULMOD MULMOD DUP1 MULMOD DUP1 MULMOD SWAP3 DUP2 DUP2 DUP1 MULMOD MULMOD SWAP2 DUP1 MULMOD MULMOD DUP1 MULMOD DUP1 MULMOD DUP2 DUP1 DUP14 DUP2 DUP2 DUP1 MULMOD MULMOD SWAP2 DUP1 MULMOD MULMOD DUP1 MULMOD DUP1 MULMOD DUP1 MULMOD DUP1 MULMOD DUP1 MULMOD DUP1 MULMOD DUP1 MULMOD SWAP3 DUP2 DUP1 DUP1 DUP4 DUP2 DUP2 DUP1 MULMOD MULMOD DUP2 DUP5 DUP2 DUP2 DUP1 MULMOD MULMOD MULMOD SWAP2 DUP2 DUP1 DUP3 DUP2 DUP2 DUP1 MULMOD MULMOD SWAP2 DUP2 DUP1 DUP3 DUP2 DUP2 DUP1 MULMOD MULMOD SWAP2 DUP2 DUP2 DUP1 MULMOD MULMOD MULMOD MULMOD MULMOD SWAP2 DUP1 MULMOD MULMOD DUP1 MULMOD DUP1 MULMOD DUP1 MULMOD DUP2 DUP1 DUP14 DUP2 DUP1 DUP3 DUP2 DUP2 DUP1 MULMOD MULMOD SWAP2 DUP2 DUP1 DUP3 DUP2 DUP2 DUP1 MULMOD MULMOD SWAP2 DUP2 DUP2 DUP1 MULMOD MULMOD MULMOD MULMOD SWAP2 DUP1 MULMOD MULMOD DUP1 MULMOD DUP1 MULMOD DUP1 MULMOD DUP2 DUP1 DUP1 DUP1 DUP12 DUP2 DUP2 DUP1 MULMOD MULMOD DUP2 DUP13 DUP2 DUP2 DUP1 MULMOD MULMOD MULMOD DUP2 DUP1 DUP13 DUP2 DUP2 DUP1 MULMOD MULMOD DUP2 DUP14 DUP2 DUP1 DUP3 DUP2 DUP2 DUP1 MULMOD MULMOD SWAP2 DUP2 DUP2 DUP1 MULMOD MULMOD MULMOD MULMOD MULMOD SWAP2 DUP1 MULMOD MULMOD DUP1 MULMOD DUP1 MULMOD DUP2 DUP1 DUP1 DUP8 DUP1 MULMOD DUP2 DUP9 DUP2 DUP2 DUP1 MULMOD MULMOD MULMOD SWAP2 DUP1 MULMOD MULMOD DUP1 MULMOD DUP1 MULMOD MULMOD DUP1 MULMOD DUP1 MULMOD DUP1 MULMOD DUP1 MULMOD DUP1 MULMOD SWAP3 DUP2 DUP1 DUP3 DUP1 MULMOD SWAP2 DUP2 DUP2 DUP1 MULMOD MULMOD MULMOD SWAP2 DUP1 MULMOD MULMOD SWAP1 JUMP INVALID LOG2 PUSH5 0x6970667358 0x22 SLT KECCAK256 DUP9 0xB4 0xCC CALLCODE SAR LOG4 0xCC PUSH31 0x62EA2749D52DBFC0E356090D09AD8F5792FD802DD585AA5664736F6C634300 ADDMOD XOR STOP CALLER "},"methodIdentifiers":{"anchor(bytes32,string,uint256,string)":"3850ed51","blsPubKeys(uint256,uint256)":"4de5fa0c","get(bytes32)":"8eaa6ac0","update(uint256[2],bytes32,string,string[])":"e3dfeffc"}}}}}