{"contracts/lib/EnvironmentalPolicyLogic.sol":{"EnvironmentalPolicyLogic":{"abi":[{"inputs":[{"internalType":"string","name":"contextLevel","type":"string"},{"internalType":"enum EnvironmentalPolicyLogic.RiskLevel","name":"thresholdLevel","type":"EnvironmentalPolicyLogic.RiskLevel"}],"name":"evaluate","outputs":[{"internalType":"bool","name":"granted","type":"bool"}],"stateMutability":"pure","type":"function"}],"evm":{"bytecode":{"linkReferences":{},"object":"6080806040523461001a5761039f9081610020823930815050f35b600080fdfe6080600436101561000f57600080fd5b600090813560e01c637e2157cb1461002657600080fd5b60407ffffffffffffffffffffffffffffffffffffffffffffffffffffffffffffffffc3601126101725767ffffffffffffffff9060043582811161016e573660238201121561016e5780600401359083821161016a57366024838301011161016a57602435936003851015610166577fffffffffffffffffffffffffffffffffffffffffffffffffffffffffffffffe0603f81601f86011601168401908482109082111761013957826100ef9493602488946020946040528287520183860137830101526101c5565b600381101561010c576020925060ff806040519316911611158152f35b6024837f4e487b710000000000000000000000000000000000000000000000000000000081526021600452fd5b6024867f4e487b710000000000000000000000000000000000000000000000000000000081526041600452fd5b8580fd5b8480fd5b8380fd5b5080fd5b604051906040820182811067ffffffffffffffff82111761019657604052565b7f4e487b7100000000000000000000000000000000000000000000000000000000600052604160045260246000fd5b602081519101207f6c6f77000000000000000000000000000000000000000000000000000000000060206101f7610176565b6003815201527f72e202ecc31e532b534c49c160181cef44f90bcfaccd37037424ff9ac79456d0810361022a5750600090565b7f6d656469756d00000000000000000000000000000000000000000000000000006020610255610176565b6006815201527f3ab0b67412918f8f1210e41bc8a2ff98ed67dd7036f38cf7d1bc582ed1fd38dd81036102885750600190565b7f82247b42a0ceadb9deb0ac0d0d798bd40d89bcd6cdc79e8db3c1db6f70af8ac8907f686967680000000000000000000000000000000000000000000000000000000060206102d5610176565b600481520152146103645760846040517f08c379a000000000000000000000000000000000000000000000000000000000815260206004820152602c60248201527f456e7669726f6e6d656e74616c506f6c6963794c6f6769633a20696e76616c6960448201527f64207269736b206c6576656c00000000000000000000000000000000000000006064820152fd5b60029056fea2646970667358221220183f259892f7c019dddb739703947cbf673f4eb30ad3c9641c8ab8c9811cec6764736f6c63430008180033","opcodes":"PUSH1 0x80 DUP1 PUSH1 0x40 MSTORE CALLVALUE PUSH2 0x1A JUMPI PUSH2 0x39F SWAP1 DUP2 PUSH2 0x20 DUP3 CODECOPY ADDRESS DUP2 POP POP RETURN JUMPDEST PUSH1 0x0 DUP1 REVERT INVALID PUSH1 0x80 PUSH1 0x4 CALLDATASIZE LT ISZERO PUSH2 0xF JUMPI PUSH1 0x0 DUP1 REVERT JUMPDEST PUSH1 0x0 SWAP1 DUP2 CALLDATALOAD PUSH1 0xE0 SHR PUSH4 0x7E2157CB EQ PUSH2 0x26 JUMPI PUSH1 0x0 DUP1 REVERT JUMPDEST PUSH1 0x40 PUSH32 0xFFFFFFFFFFFFFFFFFFFFFFFFFFFFFFFFFFFFFFFFFFFFFFFFFFFFFFFFFFFFFFFC CALLDATASIZE ADD SLT PUSH2 0x172 JUMPI PUSH8 0xFFFFFFFFFFFFFFFF SWAP1 PUSH1 0x4 CALLDATALOAD DUP3 DUP2 GT PUSH2 0x16E JUMPI CALLDATASIZE PUSH1 0x23 DUP3 ADD SLT ISZERO PUSH2 0x16E JUMPI DUP1 PUSH1 0x4 ADD CALLDATALOAD SWAP1 DUP4 DUP3 GT PUSH2 0x16A JUMPI CALLDATASIZE PUSH1 0x24 DUP4 DUP4 ADD ADD GT PUSH2 0x16A JUMPI PUSH1 0x24 CALLDATALOAD SWAP4 PUSH1 0x3 DUP6 LT ISZERO PUSH2 0x166 JUMPI PUSH32 0xFFFFFFFFFFFFFFFFFFFFFFFFFFFFFFFFFFFFFFFFFFFFFFFFFFFFFFFFFFFFFFE0 PUSH1 0x3F DUP2 PUSH1 0x1F DUP7 ADD AND ADD AND DUP5 ADD SWAP1 DUP5 DUP3 LT SWAP1 DUP3 GT OR PUSH2 0x139 JUMPI DUP3 PUSH2 0xEF SWAP5 SWAP4 PUSH1 0x24 DUP9 SWAP5 PUSH1 0x20 SWAP5 PUSH1 0x40 MSTORE DUP3 DUP8 MSTORE ADD DUP4 DUP7 ADD CALLDATACOPY DUP4 ADD ADD MSTORE PUSH2 0x1C5 JUMP JUMPDEST PUSH1 0x3 DUP2 LT ISZERO PUSH2 0x10C JUMPI PUSH1 0x20 SWAP3 POP PUSH1 0xFF DUP1 PUSH1 0x40 MLOAD SWAP4 AND SWAP2 AND GT ISZERO DUP2 MSTORE RETURN JUMPDEST PUSH1 0x24 DUP4 PUSH32 0x4E487B7100000000000000000000000000000000000000000000000000000000 DUP2 MSTORE PUSH1 0x21 PUSH1 0x4 MSTORE REVERT JUMPDEST PUSH1 0x24 DUP7 PUSH32 0x4E487B7100000000000000000000000000000000000000000000000000000000 DUP2 MSTORE PUSH1 0x41 PUSH1 0x4 MSTORE REVERT JUMPDEST DUP6 DUP1 REVERT JUMPDEST DUP5 DUP1 REVERT JUMPDEST DUP4 DUP1 REVERT JUMPDEST POP DUP1 REVERT JUMPDEST PUSH1 0x40 MLOAD SWAP1 PUSH1 0x40 DUP3 ADD DUP3 DUP2 LT PUSH8 0xFFFFFFFFFFFFFFFF DUP3 GT OR PUSH2 0x196 JUMPI PUSH1 0x40 MSTORE JUMP JUMPDEST PUSH32 0x4E487B7100000000000000000000000000000000000000000000000000000000 PUSH1 0x0 MSTORE PUSH1 0x41 PUSH1 0x4 MSTORE PUSH1 0x24 PUSH1 0x0 REVERT JUMPDEST PUSH1 0x20 DUP2 MLOAD SWAP2 ADD KECCAK256 PUSH32 0x6C6F770000000000000000000000000000000000000000000000000000000000 PUSH1 0x20 PUSH2 0x1F7 PUSH2 0x176 JUMP JUMPDEST PUSH1 0x3 DUP2 MSTORE ADD MSTORE PUSH32 0x72E202ECC31E532B534C49C160181CEF44F90BCFACCD37037424FF9AC79456D0 DUP2 SUB PUSH2 0x22A JUMPI POP PUSH1 0x0 SWAP1 JUMP JUMPDEST PUSH32 0x6D656469756D0000000000000000000000000000000000000000000000000000 PUSH1 0x20 PUSH2 0x255 PUSH2 0x176 JUMP JUMPDEST PUSH1 0x6 DUP2 MSTORE ADD MSTORE PUSH32 0x3AB0B67412918F8F1210E41BC8A2FF98ED67DD7036F38CF7D1BC582ED1FD38DD DUP2 SUB PUSH2 0x288 JUMPI POP PUSH1 0x1 SWAP1 JUMP JUMPDEST PUSH32 0x82247B42A0CEADB9DEB0AC0D0D798BD40D89BCD6CDC79E8DB3C1DB6F70AF8AC8 SWAP1 PUSH32 0x6869676800000000000000000000000000000000000000000000000000000000 PUSH1 0x20 PUSH2 0x2D5 PUSH2 0x176 JUMP JUMPDEST PUSH1 0x4 DUP2 MSTORE ADD MSTORE EQ PUSH2 0x364 JUMPI PUSH1 0x84 PUSH1 0x40 MLOAD PUSH32 0x8C379A000000000000000000000000000000000000000000000000000000000 DUP2 MSTORE PUSH1 0x20 PUSH1 0x4 DUP3 ADD MSTORE PUSH1 0x2C PUSH1 0x24 DUP3 ADD MSTORE PUSH32 0x456E7669726F6E6D656E74616C506F6C6963794C6F6769633A20696E76616C69 PUSH1 0x44 DUP3 ADD MSTORE PUSH32 0x64207269736B206C6576656C0000000000000000000000000000000000000000 PUSH1 0x64 DUP3 ADD MSTORE REVERT JUMPDEST PUSH1 0x2 SWAP1 JUMP INVALID LOG2 PUSH5 0x6970667358 0x22 SLT KECCAK256 XOR EXTCODEHASH 0x25 SWAP9 SWAP3 0xF7 0xC0 NOT 0xDD 0xDB PUSH20 0x9703947CBF673F4EB30AD3C9641C8AB8C9811CEC PUSH8 0x64736F6C63430008 XOR STOP CALLER "},"methodIdentifiers":{"evaluate(string,EnvironmentalPolicyLogic.RiskLevel)":"7e2157cb"}}}}}