{"contracts/main/AccessControlContract.sol":{"AccessControlContract":{"abi":[{"inputs":[{"internalType":"uint256[4]","name":"input","type":"uint256[4]"}],"name":"BNAddFailed","type":"error"},{"inputs":[{"internalType":"bytes","name":"dst","type":"bytes"}],"name":"InvalidDSTLength","type":"error"},{"inputs":[{"internalType":"uint256","name":"x","type":"uint256"}],"name":"InvalidFieldElement","type":"error"},{"inputs":[{"internalType":"uint256","name":"noSqrt","type":"uint256"}],"name":"MapToPointFailed","type":"error"},{"inputs":[{"internalType":"uint256","name":"base","type":"uint256"},{"internalType":"uint256","name":"exponent","type":"uint256"},{"internalType":"uint256","name":"modulus","type":"uint256"}],"name":"ModExpFailed","type":"error"},{"anonymous":false,"inputs":[{"indexed":false,"internalType":"bytes","name":"calculatedPayload","type":"bytes"}],"name":"DebugPayload","type":"event"},{"anonymous":false,"inputs":[{"indexed":false,"internalType":"string","name":"agentDID","type":"string"},{"indexed":false,"internalType":"string","name":"actionIdentifier","type":"string"},{"indexed":false,"internalType":"string","name":"resourceIdentifier","type":"string"},{"indexed":false,"internalType":"uint256","name":"expiry","type":"uint256"}],"name":"TokenIssued","type":"event"},{"inputs":[{"internalType":"string","name":"agentDID","type":"string"},{"internalType":"string","name":"resourceIdentifier","type":"string"},{"internalType":"string","name":"actionIdentifier","type":"string"}],"name":"evaluate","outputs":[{"components":[{"internalType":"string","name":"agentDID","type":"string"},{"internalType":"string","name":"actionIdentifier","type":"string"},{"internalType":"string","name":"resourceIdentifier","type":"string"},{"internalType":"uint256","name":"expiry","type":"uint256"}],"internalType":"struct IACC.AccessToken","name":"token","type":"tuple"}],"stateMutability":"nonpayable","type":"function"},{"inputs":[{"internalType":"string","name":"resourceIdentifier","type":"string"},{"internalType":"string","name":"actionIdentifier","type":"string"}],"name":"getPolicy","outputs":[{"components":[{"internalType":"enum IACC.PolicyType","name":"policyType","type":"uint8"},{"internalType":"bytes","name":"policyParameters","type":"bytes"}],"internalType":"struct IACC.Policy[]","name":"","type":"tuple[]"}],"stateMutability":"view","type":"function"},{"inputs":[{"components":[{"internalType":"string","name":"agentDID","type":"string"},{"internalType":"string","name":"actionIdentifier","type":"string"},{"internalType":"string","name":"resourceIdentifier","type":"string"},{"internalType":"uint256","name":"expiry","type":"uint256"}],"internalType":"struct IACC.AccessToken","name":"token","type":"tuple"}],"name":"getTokenHash","outputs":[{"internalType":"bytes32","name":"","type":"bytes32"}],"stateMutability":"pure","type":"function"},{"inputs":[{"components":[{"internalType":"string","name":"resourceIdentifier","type":"string"},{"internalType":"string","name":"actionIdentifier","type":"string"},{"internalType":"string","name":"policyTypeStr","type":"string"},{"components":[{"internalType":"string","name":"key","type":"string"},{"internalType":"string","name":"value","type":"string"}],"internalType":"struct IACC.KV[]","name":"policyParameters","type":"tuple[]"},{"internalType":"uint8","name":"requiredSigs","type":"uint8"},{"internalType":"uint256[2]","name":"aggSig","type":"uint256[2]"},{"internalType":"uint8","name":"pksMask","type":"uint8"}],"internalType":"struct IACC.RegisterPolicyParams","name":"params","type":"tuple"}],"name":"registerPolicy","outputs":[{"internalType":"bool","name":"","type":"bool"}],"stateMutability":"nonpayable","type":"function"},{"inputs":[{"components":[{"internalType":"string","name":"resourceIdentifier","type":"string"},{"internalType":"string","name":"actionIdentifier","type":"string"},{"internalType":"string","name":"policyTypeStr","type":"string"},{"components":[{"internalType":"string","name":"key","type":"string"},{"internalType":"string","name":"value","type":"string"}],"internalType":"struct IACC.KV[]","name":"policyParameters","type":"tuple[]"},{"internalType":"uint256[2]","name":"aggSig","type":"uint256[2]"},{"internalType":"uint8","name":"pksMask","type":"uint8"}],"internalType":"struct IACC.RemovePolicyParams","name":"params","type":"tuple"}],"name":"removePolicy","outputs":[{"internalType":"bool","name":"","type":"bool"}],"stateMutability":"nonpayable","type":"function"},{"inputs":[],"name":"systemThreatLevel","outputs":[{"internalType":"string","name":"","type":"string"}],"stateMutability":"view","type":"function"},{"inputs":[{"internalType":"bytes32","name":"tokenHash","type":"bytes32"}],"name":"verifyTokenHash","outputs":[{"internalType":"bool","name":"","type":"bool"}],"stateMutability":"view","type":"function"}],"evm":{"bytecode":{"linkReferences":{"contracts/lib/EnvironmentalPolicyLogic.sol":{"EnvironmentalPolicyLogic":[{"length":20,"start":11263}]},"contracts/lib/TemporalPolicyLogic.sol":{"TemporalPolicyLogic":[{"length":20,"start":10991}]}},"object":"6080346200043a5760a08101906001600160401b03821181831017620004245760409182526200002e6200043f565b907f0febc527fc610e05784552f398809fed7b36fb242e8d780f82968000b861154d82526020917f2d9b0820eaadca6c70bf7c0696eb6895c544a8ed7281129e93fcb6917c676727838201527f27575aec04b577018dfebc1b9f25e97cefbbc3c8c2d3aeb1f8d45ed464e70450848201526060907f2452213c3c8b58668d5268980fb7fe1d912a74cfaca609a30bdab68896ea57b4828201528252620000d36200043f565b7f2455d2a03728b500c4cc0ad271911e4bc8dd42633ac5bd7438af0a2a80a3f12c81527f2db4731fcbe3dda6e39fc20728f18e8631bc55419f7ea88d0392d259ef48045b848201527f2e9c1e51795148332cecab28e17c895123ba22a5ba56c1389af86ecce718c514858201527f0f1d27edf7bdc1bf49fa69878aed52a52431263840bf1780b6c1edb8cb91fa3f8282015283830152620001736200043f565b7f15aa22779ac75bcf9f2136febade4e3b0007c31c9f6f1cfc03bdbea89386b24881527f0a22035c14940c675e9522932e4258941312afb004169ae6894d3478edc307f3848201527f16d89a57ad3871d717a8e73e0b74fe6deb64c9942090441a258827c1e873618b858201527f077d884f73738abc1ac46af75e3e7d234cacc09df571bdd04de53becd04da9f58282015284830152620002136200043f565b7f0b67e6f405e955a705552cc20c5843788dc1181a9f7b8feed46eb9fbfc79153681527f2dbd0a425af318a1c89601f956003df338c766dfa98c14175f19da7dcc775c8c848201527f2a1188f241747a55cae36b5bca25b031d0a839b1dac8308259c33edb65eb6e94858201527f170c2f98625e5d1a5222e2b99e25e433b9c43bc158278440ac1c0dabc19bd80882820152818301527f1258bb75e0970e7fdb7f9e16afe3d876ee996ce9f026f736f002f133ab0d8b44620002d46200043f565b917f1694aac85acd836afa535ba41366e1897a03a2948ab1514049f8e67efd585f9c83527f2dcb07e629ce8de88cbac1ee7640f3bcd074db30cb1eff4fa2275ee623d3300b858401527f1d8bb91d1944398523f23eb77f4512cd2bcd85cc378ff81b8f0f32a342fed51a8684015282015260808201526000906000905b60058210620003eb57505050601654600191600182811c92168015620003e0575b81831014620003ca57601f8211620003a1575b6006626c6f7760e81b01601655835161445c9081620004608239f35b601f906016600052600020910160051c8101905b818110156200038557600081558201620003b5565b634e487b7160e01b600052602260045260246000fd5b91607f169162000372565b83815160005b600481106200040f5750506004906001920193019101909162000351565b815186820155869290910190600101620003f1565b634e487b7160e01b600052604160045260246000fd5b600080fd5b60405190608082016001600160401b03811183821017620004245760405256fe6080604052600436101561001257600080fd5b6000803560e01c90816301eb0e591461008a575080632e06aac61461008557806367f76ad2146100805780636fec6a9a1461007b5780638309435a14610076578063aa10d77e146100715763df1a4f431461006c57600080fd5b610afc565b61090d565b61058a565b610339565b6102d7565b6101cc565b346100f3577ffffffffffffffffffffffffffffffffffffffffffffffffffffffffffffffffc906020823601126100f3576004359167ffffffffffffffff83116100f6576101009083360301126100f35760206100e9836004016112a6565b6040519015158152f35b80fd5b5080fd5b9181601f840112156101285782359167ffffffffffffffff8311610128576020838186019501011161012857565b600080fd5b6003111561013757565b7f4e487b7100000000000000000000000000000000000000000000000000000000600052602160045260246000fd5b60005b8381106101795750506000910152565b8181015183820152602001610169565b907fffffffffffffffffffffffffffffffffffffffffffffffffffffffffffffffe0601f6020936101c581518092818752878088019101610166565b0116010190565b34610128576040807ffffffffffffffffffffffffffffffffffffffffffffffffffffffffffffffffc3601126101285767ffffffffffffffff6004358181116101285761021d9036906004016100fa565b90602435928311610128576102396102419336906004016100fa565b92909161159a565b815190602080830181845282518091528484019180868360051b8701019401926000965b8388106102725786860387f35b909192939483806102c6837fffffffffffffffffffffffffffffffffffffffffffffffffffffffffffffffc08b6001960301875285838b5180516102b58161012d565b845201519181858201520190610189565b970193019701969093929193610265565b346101285760207ffffffffffffffffffffffffffffffffffffffffffffffffffffffffffffffffc3601126101285760043560005260146020526020604060002054801515908161032e575b506040519015158152f35b905042111538610323565b34610128577ffffffffffffffffffffffffffffffffffffffffffffffffffffffffffffffffc602081360112610128576004359067ffffffffffffffff82116101285760e082600401918336030112610128576103968180610bdd565b929060248201936103a78585610bdd565b916103b193611881565b916103c6836000526015602052604060002090565b9360038501546103d69060ff1690565b6103df9061162b565b6103ec6064840183610c2e565b90604051809160208201936104019185610d11565b037fffffffffffffffffffffffffffffffffffffffffffffffffffffffffffffffe08101825261043190826108cc565b519020926044810193806104458686610bdd565b61044e916118db565b906104599189611ed6565b946104648580610bdd565b9590946104719082610bdd565b9261047c9192610bdd565b91909260c4860161048c90610e05565b96610495610a2f565b9861049f8d611690565b8a5236906104ac92610a79565b602089015236906104bc92610a79565b604087015236906104cc92610a79565b606085015260808401526104e4903690608401611207565b60a083015260ff1660c08201526104fa90611fe6565b61050392612332565b60405160018152602090f35b0390f35b6020815260806060610581610533855184602087015260a0860190610189565b61056d6020870151917fffffffffffffffffffffffffffffffffffffffffffffffffffffffffffffffe09283888303016040890152610189565b906040870151908683030184870152610189565b93015191015290565b34610128576060807ffffffffffffffffffffffffffffffffffffffffffffffffffffffffffffffffc3601126101285767ffffffffffffffff90600435828111610128576105dc9036906004016100fa565b602435848111610128576105f49036906004016100fa565b9290946044359081116101285761050f957f31f2a9a1648ad524dab76bf973a43a9ef82147d8a007802be67f77b17e167474946106386106e39336906004016100fa565b60008960409593955161064a81610857565b818152816020820152816040820152015261067161066c828686868c8c6125b3565b6116d0565b61067a42611764565b610682610a3e565b9961068e368a8a610a79565b8b5261069b368488610a79565b60208c01526106ab368686610a79565b60408c01528a019081526106be8a6117d7565b6106d48251916000526014602052604060002090565b55519360405197889788611794565b0390a160405191829182610513565b7f4e487b7100000000000000000000000000000000000000000000000000000000600052600060045260246000fd5b90600182811c9216801561076a575b602083101461073b57565b7f4e487b7100000000000000000000000000000000000000000000000000000000600052602260045260246000fd5b91607f1691610730565b80546000939261078382610721565b918282526020936001916001811690816000146107eb57506001146107aa575b5050505050565b90939495506000929192528360002092846000945b8386106107d7575050505001019038808080806107a3565b8054858701830152940193859082016107bf565b7fffffffffffffffffffffffffffffffffffffffffffffffffffffffffffffff00168685015250505090151560051b0101915038808080806107a3565b7f4e487b7100000000000000000000000000000000000000000000000000000000600052604160045260246000fd5b6080810190811067ffffffffffffffff82111761087357604052565b610828565b6040810190811067ffffffffffffffff82111761087357604052565b60e0810190811067ffffffffffffffff82111761087357604052565b60c0810190811067ffffffffffffffff82111761087357604052565b90601f7fffffffffffffffffffffffffffffffffffffffffffffffffffffffffffffffe0910116810190811067ffffffffffffffff82111761087357604052565b34610128576000807ffffffffffffffffffffffffffffffffffffffffffffffffffffffffffffffffc3601126100f3576040519080826016549161095083610721565b92838352602094600191866001821691826000146109ee575050600114610994575b5050610980925003836108cc565b61050f604051928284938452830190610189565b90859250601682527fd833147d7dc355ba459fc788f669e58cfaf9dc25ddcd0702e87d69c7b51242895b8583106109d657505061098093508201013880610972565b805483890185015287945086939092019181016109be565b915093506109809592507fffffffffffffffffffffffffffffffffffffffffffffffffffffffffffffff0091501682840152151560051b8201013880610972565b60405190610a3c82610894565b565b60405190610a3c82610857565b60405190610a3c82610878565b60405190610180820182811067ffffffffffffffff82111761087357604052565b92919267ffffffffffffffff82116108735760405191610ac160207fffffffffffffffffffffffffffffffffffffffffffffffffffffffffffffffe0601f84011601846108cc565b829481845281830111610128578281602093846000960137010152565b9080601f8301121561012857816020610af993359101610a79565b90565b34610128577ffffffffffffffffffffffffffffffffffffffffffffffffffffffffffffffffc6020813601126101285760043567ffffffffffffffff9182821161012857608090823603011261012857604051610b5881610857565b816004013583811161012857610b749060043691850101610ade565b8152602482013583811161012857610b929060043691850101610ade565b60208201526044820135928311610128576064610bcd92610bbc61050f9560043691840101610ade565b6040840152013560608201526117d7565b6040519081529081906020820190565b9035907fffffffffffffffffffffffffffffffffffffffffffffffffffffffffffffffe181360301821215610128570180359067ffffffffffffffff82116101285760200191813603831361012857565b9035907fffffffffffffffffffffffffffffffffffffffffffffffffffffffffffffffe181360301821215610128570180359067ffffffffffffffff821161012857602001918160051b3603831361012857565b90357fffffffffffffffffffffffffffffffffffffffffffffffffffffffffffffffe18236030181121561012857016020813591019167ffffffffffffffff821161012857813603831361012857565b601f82602094937fffffffffffffffffffffffffffffffffffffffffffffffffffffffffffffffe0938186528686013760008582860101520116010190565b6020928084830185845252604093604083019260408360051b8201019585600080935b868510610d475750505050505050505090565b9091929394959697987fffffffffffffffffffffffffffffffffffffffffffffffffffffffffffffffc082820301895289357fffffffffffffffffffffffffffffffffffffffffffffffffffffffffffffffc185360301811215610df55787610de46001938783940190610dd7610dcd610dc18480610c82565b8d85528d850191610cd2565b9285810190610c82565b9185818503910152610cd2565b9b0199019796950193929190610d34565b8380fd5b610e028261012d565b52565b3560ff811681036101285790565b15610e1a57565b60646040517f08c379a000000000000000000000000000000000000000000000000000000000815260206004820152601a60248201527f4143433a20696e76616c696420736967207468726573686f6c640000000000006044820152fd5b7f4e487b7100000000000000000000000000000000000000000000000000000000600052603260045260246000fd5b8054821015610ec35760005260206000209060011b0190600090565b610e78565b90610ed28161012d565b60ff7fffffffffffffffffffffffffffffffffffffffffffffffffffffffffffffff008354169116179055565b818110610f0a575050565b60008155600101610eff565b9190601f8111610f2557505050565b610a3c926000526020600020906020601f840160051c83019310610f51575b601f0160051c0190610eff565b9091508190610f44565b919082546801000000000000000081101561087357610f8290600194600182018155610ea7565b6110d757600190610f9d8351610f978161012d565b82610ec8565b01906020809101519384519167ffffffffffffffff831161087357610fcc83610fc68654610721565b86610f16565b602091601f841160011461102d575050819061101e939495600092611022575b50507fffffffffffffffffffffffffffffffffffffffffffffffffffffffffffffffff8260011b9260031b1c19161790565b9055565b015190503880610fec565b957fffffffffffffffffffffffffffffffffffffffffffffffffffffffffffffffe084939293169661106486600052602060002090565b936000915b8983106110c05750505083600195969710611089575b505050811b019055565b01517fffffffffffffffffffffffffffffffffffffffffffffffffffffffffffffffff60f88460031b161c1916905538808061107f565b838501518655948501949381019391810191611069565b6106f2565b9382879695829460409b9996948237019160008352823701916000835282370191825260208201520190565b6040519061111582610878565b600382527f41434300000000000000000000000000000000000000000000000000000000006020830152565b6040519061114e82610857565b6080368337565b6040519061116282610878565b6040368337565b604051906020820182811067ffffffffffffffff821117610873576040526020368337565b6040519061119b826108b0565b60c0368337565b156111a957565b60646040517f08c379a000000000000000000000000000000000000000000000000000000000815260206004820152601760248201527f4143433a206e6f7420656e6f756768207369676e6572730000000000000000006044820152fd5b91906040519261121684610878565b83906040810192831161012857905b82821061123157505050565b8135815260209182019101611225565b1561124857565b60646040517f08c379a000000000000000000000000000000000000000000000000000000000815260206004820152601a60248201527f4143433a206167672d73696720766572696679206661696c65640000000000006044820152fd5b6112ce6112de6112b68380610bdd565b6020850193916112c68587610bdd565b929091611881565b6000526015602052604060002090565b604083016112f56112ef8286610bdd565b906118db565b926113196113066060870187610c2e565b6040516020810193909283929085610d11565b039361134b7fffffffffffffffffffffffffffffffffffffffffffffffffffffffffffffffe0958681018452836108cc565b61135d611356610a4b565b9788610df9565b81602088015260038601611379611375825460ff1690565b1590565b61145557506113f36113b96113e661144b97611445976113da8d8c6114509f9a6114369a6114409a60026113c16113b08780610bdd565b9c909988610bdd565b939097610bdd565b949093519020940154946040519a8b9860208a016110dc565b039081018352826108cc565b6113ee611108565b6119ff565b926113fc611141565b5061141161140c60e08301610e05565b611cd3565b60ff61142d61142760018c989598015460ff1690565b60ff1690565b911610156111a2565b60a0369101611207565b611db4565b50611241565b610f5b565b600190565b935050505061144b91506114b86114876080611450970161148260ff61147a83610e05565b161515610e13565b610e05565b600185019060ff167fffffffffffffffffffffffffffffffffffffffffffffffffffffffffffffff00825416179055565b60017fffffffffffffffffffffffffffffffffffffffffffffffffffffffffffffff00825416179055565b90610a3c6114f79260405193848092610774565b03836108cc565b90815467ffffffffffffffff8111610873576020926040936040519461152a60208560051b01876108cc565b83865260208601926000526020600020906000935b85851061154e57505050505050565b600284600192845161155f81610878565b60ff87541661156d8161012d565b815285516115888161158181898c01610774565b03826108cc565b8382015281520193019401939161153f565b906115a6939291611881565b6000526015602052604060002060ff600382015416611622576040517f08c379a000000000000000000000000000000000000000000000000000000000815260206004820152601560248201527f4143433a20706f6c696379206e6f7420666f756e6400000000000000000000006044820152606490fd5b0390fd5b610af9906114fe565b1561163257565b60646040517f08c379a000000000000000000000000000000000000000000000000000000000815260206004820152601960248201527f4143433a20706f6c6963792d736574206e6f7420666f756e64000000000000006044820152fd5b9060405161169d81610857565b606060ff600383956116ae816114fe565b8552826001820154166020860152600281015460408601520154161515910152565b156116d757565b60646040517f08c379a000000000000000000000000000000000000000000000000000000000815260206004820152601160248201527f4143433a20556e617574686f72697a65640000000000000000000000000000006044820152fd5b7f4e487b7100000000000000000000000000000000000000000000000000000000600052601160045260246000fd5b90610e10820180921161177357565b611735565b906001820180921161177357565b600101908160011161177357565b97969591926117d2946117b66117c4936060989660808d5260808d0191610cd2565b918a830360208c0152610cd2565b918783036040890152610cd2565b930152565b80519061187b60436020808401516060604086015195015160405195836118618161180c8a9788019b8c815193849201610166565b8601947f7c000000000000000000000000000000000000000000000000000000000000009586848201526118498251809386602185019101610166565b01918560218401528351938491602285019101610166565b0191602283015260238201520360238101845201826108cc565b51902090565b929161187b91836021926040519583879460208601998a378401917f7c00000000000000000000000000000000000000000000000000000000000000602084015285830137016000838201520360018101845201826108cc565b6118e6913691610a79565b602081519101207fb3e71936029ea100264457a898dcb589dd7ef1f9c03768f6d110e3d43558029d81146119cb577f89b51e83cb3fc3ff6274369bee8b175aeaa38ae40d40277bc6c12974f383a6fd81146119c5577f0f7993c1cc9e18041afdbf383610eddf76760e765912de5665a4361729fb207d146119c0576040517f08c379a000000000000000000000000000000000000000000000000000000000815260206004820152601860248201527f4143433a20756e6b6e6f776e20706f6c696379207479706500000000000000006044820152606490fd5b600290565b50600190565b50600090565b6080810192916000915b600483106119e857505050565b6001908251815260208091019201920191906119db565b90611a08611155565b506040808051611a1781610878565b36903782519260ff8411611c6a5760ff611a2f612bda565b94169382519081611a4887856020988985019586612c29565b0391611a7a7fffffffffffffffffffffffffffffffffffffffffffffffffffffffffffffffe0938481018352826108cc565b51902091835185810190611aa081611a948a868987612cbb565b038581018352826108cc565b51902095611aac612bf5565b936001926001945b60038610611bf557505050505050611b5b81856060611b6294015277ffffffffffffffffffffffffffffffffffffffffffffffff80601883015116907f30644e72e131a029b85045b68181585d97816a916871ca8d3c208c16d87cfd478092826048838260308901511681780100000000000000000000000000000000000000000000000080960908960151169289611b4b610a4b565b878152019a16920908865261285f565b935161285f565b91611b6b611141565b9284518452818501518285015280518385015201516060830152611bb7818460808560067ffffffffffffffffffffffffffffffffffffffffffffffffffffffffffffff8305a01fa1590565b611bc057505090565b61161e9250519182917f128e3f08000000000000000000000000000000000000000000000000000000008352600483016119d1565b909192938383879b8b7fffffffffffffffffffffffffffffffffffffffffffffffffffffffffffffffff8a611c538e611c478d8a9f611427611c3691611786565b9251988993898986019c188c612d2d565b038981018752866108cc565b0160051b8b01015251902099019493929190611ab4565b61161e91519182917f26e4f9ba00000000000000000000000000000000000000000000000000000000835260048301612bc9565b60ff1660ff81146117735760010190565b6005811015610ec35760021b90600090565b60ff60019116019060ff821161177357565b611cdb611141565b6000805b60ff8082166005811015611daa576001901b851616611d07575b611d0290611c9e565b611cdf565b90611da2611d0291845160208601805190611d9360408901938885519460608c01958651611d3484611caf565b505491611d5a611d50611d4687611caf565b5060010190600090565b90549060031b1c90565b93611d8d611d50611d83611d7d611d50611d738b611caf565b5060020190600090565b98611caf565b5060030190600090565b96612a93565b90929591945252528552611cc1565b919050611cf9565b5050509291509190565b604060209283610180969581611dc8610a58565b95805187520151828601527f198e9393920d483a7260bfb731fb5d25f1aa493335a9e71297e485b7aef312c2848601527f1800deef121f1e76426a00665e5c4479674322d4f75edadd46debd5cd992f6ed60608601527f275dc4a288d1afb3cbb1ac09187524c7db36395df7be3b99e673b13a075a65ec60808601527f1d9befcd05a5323e6da4d435f3b617cdb3af83285c2df711ef39c01571827f9d60a0860152805160c0860152015160e084015283810151610100840152805161012084015260608101516101408401520151610160820152611ea5611169565b93849160087ffffffffffffffffffffffffffffffffffffffffffffffffffffffffffffff8305a01fa915115159190565b9160005b8354811015611f4c57611eed8185610ea7565b50828460ff835416611efe8261012d565b611f078161012d565b149182611f24575b5050611f1d57600101611eda565b9250505090565b6001919250611f3d906115816040518094819301610774565b60208151910120148238611f0f565b6040517f08c379a000000000000000000000000000000000000000000000000000000000815260206004820152601560248201527f4143433a20706f6c696379206e6f7420666f756e6400000000000000000000006044820152606490fd5b60208093611fcb82611fd994611fcb60409b999782815194859201610166565b019182815194859201610166565b0191825260208201520190565b611445610a3c9161208560a061205260208401516113e66040860151916120266060880151608089015160408a5101519160405196879560208701611fab565b037fffffffffffffffffffffffffffffffffffffffffffffffffffffffffffffffe081018352826108cc565b9261205b611141565b5061206d61140c60c083015160ff1690565b60ff61142d611427602086989598510160ff90511690565b0151611db4565b907f30644e72e131a029b85045b68181585d97816a916871ca8d3c208c16d87cfd4791820391821161177357565b9190918281146121fd576120ce8354610721565b67ffffffffffffffff8111610873576120f1816120eb8454610721565b84610f16565b600093601f821160011461214b5761101e92939482916000926121405750507fffffffffffffffffffffffffffffffffffffffffffffffffffffffffffffffff8260011b9260031b1c19161790565b015490503880610fec565b61217d7fffffffffffffffffffffffffffffffffffffffffffffffffffffffffffffffe0831691600052602060002090565b9461218d84600052602060002090565b91815b8181106121e5575095836001959697106121ae57505050811b019055565b01547fffffffffffffffffffffffffffffffffffffffffffffffffffffffffffffffff60f88460031b161c1916905538808061107f565b87830154845560019384019390920191602001612190565b509050565b906110d75760016000918281550161221a8154610721565b8061222457505050565b82601f821160011461223557505055565b9091808252612253601f60208420940160051c840160018501610eff565b5555565b8054906000918282558061227a575b508082600160039301558260028201550155565b60017f7fffffffffffffffffffffffffffffffffffffffffffffffffffffffffffffff821682036117735782845260208085209260011b8301925b8381106122c457505050612266565b808660029255868482016122d88154610721565b806122e7575b505050016122b5565b86601f80831160011461230157505050555b8638806122de565b93839052868b2061232d9461231d930160051c81019101610eff565b6000908082528160208120915555565b6122f9565b908154907fffffffffffffffffffffffffffffffffffffffffffffffffffffffffffffffff91828101908111611773578082036123f0575b505081549081156123c157600291019161238d6123878483610ea7565b90612202565b8281550161239b8154611778565b9055156123a55750565b6123bc610a3c916000526015602052604060002090565b612257565b7f4e487b7100000000000000000000000000000000000000000000000000000000600052603160045260246000fd5b6123fd6124059185610ea7565b509184610ea7565b6110d75780821461236a576001808361242560ff61242d96541685610ec8565b0191016120ba565b388061236a565b90816020910312610128575160038110156101285790565b90816020910312610128575180151581036101285790565b91906040835260006016549061247982610721565b91826040870152606060019160018116908160001461250a57506001146124af575b505060209150936124ab8361012d565b0152565b601660009081529392507fd833147d7dc355ba459fc788f669e58cfaf9dc25ddcd0702e87d69c7b51242895b8385106124f557505050506060602091850101388061249b565b805485890183015260209094019382016124db565b90506060935060209492507fffffffffffffffffffffffffffffffffffffffffffffffffffffffffffffff0091501682870152151560051b850101388061249b565b6040513d6000823e3d90fd5b519063ffffffff8216820361012857565b90816080910312610128576125ab60606040519261258684610857565b80518452602081015160208501526125a060408201612558565b604085015201612558565b606082015290565b9490936125c3936112ce93611881565b916125d5611375600385015460ff1690565b6128575760005b835481101561284e576125ef8185610ea7565b50805460ff166125fe8161012d565b806126ff5750600161261091016114e3565b61268b8151612629602093848080948301019101612569565b604051809381927f28f0ed18000000000000000000000000000000000000000000000000000000008352600483019190916060608082019380518352602081015160208401528160408201519163ffffffff8093166040860152015116910152565b038173__$02ad9ba44d5f8b108eb8cb9d26cfd8bba9$__5af49182156126fa576000926126cd575b5050156126c4576001905b016125dc565b50505050600090565b6126ec9250803d106126f3575b6126e481836108cc565b81019061244c565b38806126b3565b503d6126da565b61254c565b6127088161012d565b60019080820361273457505050612720368484610a79565b60208151910120156126c4576001906126be565b8061274060029261012d565b036127ef5761274f91016114e3565b61279b8151612768602093848080948301019101612434565b604051809381927f7e2157cb00000000000000000000000000000000000000000000000000000000835260048301612464565b038173__$ed72d0048cc008b4b5e9604803f3e23f0f$__5af49182156126fa576000926127d2575b5050156126c4576001906126be565b6127e89250803d106126f3576126e481836108cc565b38806127c3565b6040517f08c379a000000000000000000000000000000000000000000000000000000000815260206004820152601860248201527f4143433a20756e6b6e6f776e20706f6c696379207479706500000000000000006044820152606490fd5b50505050600190565b505050600190565b90612868611155565b917f30644e72e131a029b85045b68181585d97816a916871ca8d3c208c16d87cfd4780821015612a2b57806004818480090990600191816128ac818386089261208c565b840890828080808078016789af3a83522eb353c98fc6b36d713d5d8d1cc5dffffffa818b816128dd818b8d09613971565b9a8b920909099581806128ef8961208c565b98817f183227397098d014dc2822db40c0ac2ecbc0b548b438e5469e10460b6c3e7ea39a8b0899089680090980097f10216f7ba065e00de81ac1e7808072c9dd2b2385cd7b438469602eb24829a9bd098508908360038185818180090908938561295886612d74565b60000b036129d157505050855261296e81612ea2565b9060208701521561299e57505b6020840191825191808316911603612991575050565b61299a9061208c565b9052565b6040517f396ec7710000000000000000000000000000000000000000000000000000000081526004810191909152602490fd5b9193509150806003818481818009090892846129ec85612d74565b60000b03612a125750508552612a0181612ea2565b9060208701521561299e575061297b565b81935060039250808852818180090908612a0181612ea2565b6040517fd53e941500000000000000000000000000000000000000000000000000000000815260048101839052602490fd5b15612a6457565b7f4e487b7100000000000000000000000000000000000000000000000000000000600052600160045260246000fd5b979497969596801580612bc1575b80612bb9575b80612bb1575b15612b075750505050801580612aff575b80612af7575b80612aef575b15612ad6575b93929190565b612aea612ae584868885613604565b612a5d565b612ad0565b508215612aca565b508315612ac4565b508415612abe565b849895989796971580612ba9575b80612ba1575b80612b99575b612b815791612b7997959391612b56979593612b42612ae585858585613604565b612b51612ae589898989613604565b6136b0565b8051906020810151604082015160608301519160a0608085015194015194613899565b929391929091565b935096935094509250612ad0612ae584868885613604565b508715612b21565b508615612b1b565b508515612b15565b508315612aad565b508215612aa7565b508115612aa1565b906020610af9928181520190610189565b60405190612be7826108b0565b6088825260a0366020840137565b60405190612c0282610857565b6060808352366020840137565b60405190612c1c82610894565b60c0808352366020840137565b7fff0000000000000000000000000000000000000000000000000000000000000092612c6660208093611fcb600499989682815194859201610166565b01600081527f6000000000000000000000000000000000000000000000000000000000000000600182015260006002820152612cac825180936020600385019101610166565b019160f81b1660038201520190565b91602293927fff000000000000000000000000000000000000000000000000000000000000009281527f01000000000000000000000000000000000000000000000000000000000000006020820152612d1e825180936020602185019101610166565b019160f81b1660218201520190565b602294939181527fff00000000000000000000000000000000000000000000000000000000000000809360f81b166020820152612d1e825180936020602185019101610166565b612d7c612c0f565b9060c060206000828286018381528360408801528360608801528560808801527f183227397098d014dc2822db40c0ac2ecbc0b548b438e5469e10460b6c3e7ea3968760a08201527f30644e72e131a029b85045b68181585d97816a916871ca8d3c208c16d87cfd47958691015260055afa926000519315612e665750507f30644e72e131a029b85045b68181585d97816a916871ca8d3c208c16d87cfd468214612e405781151580612e35575b61299e575060000b90565b506001821415612e2a565b50507fffffffffffffffffffffffffffffffffffffffffffffffffffffffffffffffff90565b60649350604051927fc6daf7ab000000000000000000000000000000000000000000000000000000008452600484015260248301526044820152fd5b907f30644e72e131a029b85045b68181585d97816a916871ca8d3c208c16d87cfd478080808080808080808b8180808080808080808080808080808f8180828180808080808080808080809e8180808080858180808080808087819e8280808080808681808080808080809e818080808481808080808080808089819f828080808080808080808080808d819e8280808080808080888180808080809e8180808080808080808981808080809e81808080808080808080808b8180809e81808080808080808080808b8180809e818080808080808080808a818080809e8180808080808087818080808080809e8180808080808681808080808080809e8180808080808681808080808080809e8180808080808681808080808080809e8180808080808080808080808c81809e81808080808080808080808b8180809e8180808080808087818080808080809e81808080808080809781808080808581808080808080808080808b8181800909818c81818009090981808c8181800909818d818180090909098180808c8181800909818d818180090909818c818082818180090991818180090909090980098009800981808781818009099180090980098009800909800980098009800909800980098009800981808c8180828009918180828009918181800909090991800909800980098009800981808088800981808a8009818b8181800909090991800909800980098009098009800980098180808a800981808c8009818d8181800909090991800909800980098009800980090980098009800981808c8181800909918009098009800980098009800980099281808083818180090981848181800909099181808280099181808280099181818009090909099180090980098009800980098009800980098009800981808d818082800991818180090909918009098009800980098180898181800909918009098009800980099281808280099181808280099181818009090909918009098009800980098009800980098180808b8009818c8181800909099180090980098009800980098009800909800980098009800980098009818080808c8009818d818180090909818c81808281818009099181818009090909918009098009800980098009928180808381818009098184818180090909918180828009918180828009918181800909090909918009098009800981808d818082800991818180090909918009098009800980098009800980098009928181800909918009098009800980098009800980098009800992818082800991818180090909918009098009800981808d818180090991800909800980098009800980098009800992818080838009818481818009090991818082818180090991818180090909099180090980098009800981808d81808083800981848181800909099181808281818009099181818009090909918009098009800980098009818080898009818a8181800909099180090980098009928180828009918180828009918181800909090991800909800980098009800980098009800980098009818080808b8009818c81818009090981808c8181800909818d81818009090909918009098009800980099281808280099181818009090991800909800980098009800981808d81808281818009099181808281818009099181818009090909918009098009800980098009800980098180808088800981898181800909098180898181800909818a81818009090909918009098009800909800980098009800980098009928180828009918180828009918181800909090991800909800980098009800980098180808c8009818d8180828009918181800909090991800909800980098009800981808087800981888181800909099180090980098009098009800980098009800980099281808083818180090981848181800909099181808280099181808280099181818009090909099180090980098009800980098009818080808b8181800909818c81818009090981808c8181800909818d818082818180090991818180090909090991800909800980098009800980090980098009800980098009800909800980098009800992818180090991800909800980098009800980098009800980098180808c818082800991818180090909818d8180828181800909918181800909090991800909800980098180888181800909918009098009800992818180090991800909800980098009800980098009800981808d8180808381818009098184818180090909918180828181800909918180828181800909918181800909090909918009098009800980098180808a818180090981808c8181800909818d818180090909099180090980098009800992818080838181800909818481818009090991818082818180090991818082818180090991818180090909090991800909800980098180808c8009818d8181800909099180090980098009800980098180808781818009098180898181800909818a81818009090909918009098009917f30644e72e131a029b85045b68181585d97816a916871ca8d3c208c16d87cfd478380091490565b61364c6136377f054fb1321278f57b36922d1d65a0ed99e1cca4ac0e95daea09b8a53ab3dbc462956136549581816140f2565b939092613646828281816140f2565b906140f2565b929091614138565b91907f30644e72e131a029b85045b68181585d97816a916871ca8d3c208c16d87cfd479182910815918261368757505090565b7f2fcd3ac2a640a154eb23960892a85a68f031ca0c8344b23a577dcf1052b9e775919250081590565b9497969795919293956136cc6136c461118e565b998a946140aa565b9790966136f26136dc88886140aa565b94909360608801958652604088019485526140aa565b9790966136ff86846140aa565b608060a08a9993990199828b5201978089528a14908161388f575b506138155750505050505050506040860192835194606088019586519161374093614138565b608088019283519460a08a019586519161375993614138565b613765818381816140f2565b838388959395518a516137799185896140f2565b936137859391976140f2565b9890976137928a8a6140aa565b909252528b87896137a5888a81816140f2565b6137ae916140aa565b6137b89391614138565b6137c284886143f5565b916137cc93614138565b8181966137d993966140f2565b9091602001528c526137ea93614138565b916137f4936140f2565b9190928451865191613805936140f2565b9161380f93614138565b90925252565b9397509397509397869b9a9b9991959951149081613884575b50613865575050505050505050600060a0820152600060808201526000606082015260016040820152600060208201526001815290565b61386e9361417a565b9092969397919498525252526020830152815290565b90508651143861382e565b90508a143861371a565b95939195949092947f30644e72e131a029b85045b68181585d97816a916871ca8d3c208c16d87cfd479260405160208152602080820152602060408201528480838009818680090860608201527f30644e72e131a029b85045b68181585d97816a916871ca8d3c208c16d87cfd4560808201528460a082015260208160c08160057ffffffffffffffffffffffffffffffffffffffffffffffffffffffffffffff8305a01fa905190156101285784818193099309830392831161177357828261396d95613965936140f2565b9590966140f2565b9091565b807f30644e72e131a029b85045b68181585d97816a916871ca8d3c208c16d87cfd47808080808080808881808080809e8180808080808080808981808080809e8180808080808080888180808080809e8180808080808080888180808080809e8181818080808080808781808080809e8180808080808087818080808080809e8180828180808080808080808080809e8180828180808080808080808981809e818080808080808080808080808d819e8280808080808080808080808080809e8082808080808080808080808080809e80828080808080808080808080808d819f828080808080808080808a818080809e8180808080808080808981808080809e8180808080808080808981808080809e8180808080808080808981808080809e8180808080808080808080808080809e80828080808080808080808080808d819f8280808080808080808981808080809e818080808080808080809981808080808581808080808080808080808b8181800909818c81818009090981808c8181800909818d818180090909098180808c8181800909818d818180090909818c818082818180090991818180090909090980098009800981808781818009099180090980098009800909800980098009800909800980098009800981808c8180828009918180828009918181800909090991800909800980098009800981808088800981808a8009818b8181800909090991800909800980098009098009800980098180808a800981808c8009818d8181800909090991800909800980098009800980090980098009800981808c8181800909918009098009800980098009800980099281808083818180090981848181800909099181808280099181808280099181818009090909099180090980098009800980098009800980098009800981808d818082800991818180090909918009098009800980098180898181800909918009098009800980099281808280099181808280099181818009090909918009098009800980098009800980098180808b8009818c8181800909099180090980098009800980098009800909800980098009800980098009818080808c8009818d818180090909818c81808281818009099181818009090909918009098009800980098009928180808381818009098184818180090909918180828009918180828009918181800909090909918009098009800981808d818082800991818180090909918009098009800980098009800980098009928181800909918009098009800980098009800980098009800992818082800991818180090909918009098009800981808d818180090991800909800980098009800980098009800992818080838009818481818009090991818082818180090991818180090909099180090980098009800981808d81808083800981848181800909099181808281818009099181818009090909918009098009800980098009818080898009818a8181800909099180090980098009928180828009918180828009918181800909090991800909800980098009800980098009800980098009818080808b8009818c81818009090981808c8181800909818d81818009090909918009098009800980099281808280099181818009090991800909800980098009800981808d81808281818009099181808281818009099181818009090909918009098009800980098009800980098180808088800981898181800909098180898181800909818a81818009090909918009098009800909800980098009800980098009928180828009918180828009918181800909090991800909800980098009800980098180808c8009818d8180828009918181800909090991800909800980098009800981808087800981888181800909099180090980098009098009800980098009800980099281808083818180090981848181800909099181808280099181808280099181818009090909099180090980098009800980098009818080808b8181800909818c81818009090981808c8181800909818d81808281818009099181818009090909099180090980098009800980098009098009800980098009800980090980098009800980099281818009099180090980098009800980098009800980098009818080808a8009818b81818009090981808b8181800909818c818180090909099180090980098009928181800909918009098009800981808d81818009099180090980098009800980098009800980099281808083818180090981848181800909099181808281818009099181808281818009099181818009090909099180090980098009800981808d8180828181800909918180828181800909918181800909090991800909800980098009818080808b8181800909818c81818009090981808c8181800909818d81808281818009099181818009090909099180090980098009818080878009818881818009090991800909800980090980098009800980098009928180828009918181800909099180090990565b9190917f30644e72e131a029b85045b68181585d97816a916871ca8d3c208c16d87cfd4790816000850982038281116117735760008360018180948183880908970992090890565b909392917f30644e72e131a029b85045b68181585d97816a916871ca8d3c208c16d87cfd4792838187098403848111611773578285809492818094880908970992090890565b939290937f30644e72e131a029b85045b68181585d97816a916871ca8d3c208c16d87cfd47928303918383116117735783039183831161177357839108930890565b92938291857f30644e72e131a029b85045b68181585d97816a916871ca8d3c208c16d87cfd476003830982877f30644e72e131a029b85045b68181585d97816a916871ca8d3c208c16d87cfd4760038209926141d5936140f2565b90966141e183876140aa565b6141f1819b8399849884966140f2565b6141fb93916140f2565b93909761420a848b81816140f2565b7f30644e72e131a029b85045b68181585d97816a916871ca8d3c208c16d87cfd4760088809907f30644e72e131a029b85045b68181585d97816a916871ca8d3c208c16d87cfd4760088d099061425f93614138565b99819b8b979296614272878b81816140f2565b99819f7f30644e72e131a029b85045b68181585d97816a916871ca8d3c208c16d87cfd4760048d979498099260047f30644e72e131a029b85045b68181585d97816a916871ca8d3c208c16d87cfd479109926142cd93614138565b6142d793916140f2565b9390947f30644e72e131a029b85045b68181585d97816a916871ca8d3c208c16d87cfd4760088209917f30644e72e131a029b85045b68181585d97816a916871ca8d3c208c16d87cfd47600882099261432f936140f2565b61433993916140f2565b9161434393614138565b96909760027f30644e72e131a029b85045b68181585d97816a916871ca8d3c208c16d87cfd4791099260027f30644e72e131a029b85045b68181585d97816a916871ca8d3c208c16d87cfd4791099261439b936140f2565b9690976143a7936140f2565b60087f30644e72e131a029b85045b68181585d97816a916871ca8d3c208c16d87cfd4791099060087f30644e72e131a029b85045b68181585d97816a916871ca8d3c208c16d87cfd47910991565b600280919392937f30644e72e131a029b85045b68181585d97816a916871ca8d3c208c16d87cfd479283910993099056fea2646970667358221220a07a01c038d83e63c8c71f61471e7d83b98143522f68b078152f5df06b2234a264736f6c63430008180033","opcodes":"PUSH1 0x80 CALLVALUE PUSH3 0x43A JUMPI PUSH1 0xA0 DUP2 ADD SWAP1 PUSH1 0x1 PUSH1 0x1 PUSH1 0x40 SHL SUB DUP3 GT DUP2 DUP4 LT OR PUSH3 0x424 JUMPI PUSH1 0x40 SWAP2 DUP3 MSTORE PUSH3 0x2E PUSH3 0x43F JUMP JUMPDEST SWAP1 PUSH32 0xFEBC527FC610E05784552F398809FED7B36FB242E8D780F82968000B861154D DUP3 MSTORE PUSH1 0x20 SWAP2 PUSH32 0x2D9B0820EAADCA6C70BF7C0696EB6895C544A8ED7281129E93FCB6917C676727 DUP4 DUP3 ADD MSTORE PUSH32 0x27575AEC04B577018DFEBC1B9F25E97CEFBBC3C8C2D3AEB1F8D45ED464E70450 DUP5 DUP3 ADD MSTORE PUSH1 0x60 SWAP1 PUSH32 0x2452213C3C8B58668D5268980FB7FE1D912A74CFACA609A30BDAB68896EA57B4 DUP3 DUP3 ADD MSTORE DUP3 MSTORE PUSH3 0xD3 PUSH3 0x43F JUMP JUMPDEST PUSH32 0x2455D2A03728B500C4CC0AD271911E4BC8DD42633AC5BD7438AF0A2A80A3F12C DUP2 MSTORE PUSH32 0x2DB4731FCBE3DDA6E39FC20728F18E8631BC55419F7EA88D0392D259EF48045B DUP5 DUP3 ADD MSTORE PUSH32 0x2E9C1E51795148332CECAB28E17C895123BA22A5BA56C1389AF86ECCE718C514 DUP6 DUP3 ADD MSTORE PUSH32 0xF1D27EDF7BDC1BF49FA69878AED52A52431263840BF1780B6C1EDB8CB91FA3F DUP3 DUP3 ADD MSTORE DUP4 DUP4 ADD MSTORE PUSH3 0x173 PUSH3 0x43F JUMP JUMPDEST PUSH32 0x15AA22779AC75BCF9F2136FEBADE4E3B0007C31C9F6F1CFC03BDBEA89386B248 DUP2 MSTORE PUSH32 0xA22035C14940C675E9522932E4258941312AFB004169AE6894D3478EDC307F3 DUP5 DUP3 ADD MSTORE PUSH32 0x16D89A57AD3871D717A8E73E0B74FE6DEB64C9942090441A258827C1E873618B DUP6 DUP3 ADD MSTORE PUSH32 0x77D884F73738ABC1AC46AF75E3E7D234CACC09DF571BDD04DE53BECD04DA9F5 DUP3 DUP3 ADD MSTORE DUP5 DUP4 ADD MSTORE PUSH3 0x213 PUSH3 0x43F JUMP JUMPDEST PUSH32 0xB67E6F405E955A705552CC20C5843788DC1181A9F7B8FEED46EB9FBFC791536 DUP2 MSTORE PUSH32 0x2DBD0A425AF318A1C89601F956003DF338C766DFA98C14175F19DA7DCC775C8C DUP5 DUP3 ADD MSTORE PUSH32 0x2A1188F241747A55CAE36B5BCA25B031D0A839B1DAC8308259C33EDB65EB6E94 DUP6 DUP3 ADD MSTORE PUSH32 0x170C2F98625E5D1A5222E2B99E25E433B9C43BC158278440AC1C0DABC19BD808 DUP3 DUP3 ADD MSTORE DUP2 DUP4 ADD MSTORE PUSH32 0x1258BB75E0970E7FDB7F9E16AFE3D876EE996CE9F026F736F002F133AB0D8B44 PUSH3 0x2D4 PUSH3 0x43F JUMP JUMPDEST SWAP2 PUSH32 0x1694AAC85ACD836AFA535BA41366E1897A03A2948AB1514049F8E67EFD585F9C DUP4 MSTORE PUSH32 0x2DCB07E629CE8DE88CBAC1EE7640F3BCD074DB30CB1EFF4FA2275EE623D3300B DUP6 DUP5 ADD MSTORE PUSH32 0x1D8BB91D1944398523F23EB77F4512CD2BCD85CC378FF81B8F0F32A342FED51A DUP7 DUP5 ADD MSTORE DUP3 ADD MSTORE PUSH1 0x80 DUP3 ADD MSTORE PUSH1 0x0 SWAP1 PUSH1 0x0 SWAP1 JUMPDEST PUSH1 0x5 DUP3 LT PUSH3 0x3EB JUMPI POP POP POP PUSH1 0x16 SLOAD PUSH1 0x1 SWAP2 PUSH1 0x1 DUP3 DUP2 SHR SWAP3 AND DUP1 ISZERO PUSH3 0x3E0 JUMPI JUMPDEST DUP2 DUP4 LT EQ PUSH3 0x3CA JUMPI PUSH1 0x1F DUP3 GT PUSH3 0x3A1 JUMPI JUMPDEST PUSH1 0x6 PUSH3 0x6C6F77 PUSH1 0xE8 SHL ADD PUSH1 0x16 SSTORE DUP4 MLOAD PUSH2 0x445C SWAP1 DUP2 PUSH3 0x460 DUP3 CODECOPY RETURN JUMPDEST PUSH1 0x1F SWAP1 PUSH1 0x16 PUSH1 0x0 MSTORE PUSH1 0x0 KECCAK256 SWAP2 ADD PUSH1 0x5 SHR DUP2 ADD SWAP1 JUMPDEST DUP2 DUP2 LT ISZERO PUSH3 0x385 JUMPI PUSH1 0x0 DUP2 SSTORE DUP3 ADD PUSH3 0x3B5 JUMP JUMPDEST PUSH4 0x4E487B71 PUSH1 0xE0 SHL PUSH1 0x0 MSTORE PUSH1 0x22 PUSH1 0x4 MSTORE PUSH1 0x24 PUSH1 0x0 REVERT JUMPDEST SWAP2 PUSH1 0x7F AND SWAP2 PUSH3 0x372 JUMP JUMPDEST DUP4 DUP2 MLOAD PUSH1 0x0 JUMPDEST PUSH1 0x4 DUP2 LT PUSH3 0x40F JUMPI POP POP PUSH1 0x4 SWAP1 PUSH1 0x1 SWAP3 ADD SWAP4 ADD SWAP2 ADD SWAP1 SWAP2 PUSH3 0x351 JUMP JUMPDEST DUP2 MLOAD DUP7 DUP3 ADD SSTORE DUP7 SWAP3 SWAP1 SWAP2 ADD SWAP1 PUSH1 0x1 ADD PUSH3 0x3F1 JUMP JUMPDEST PUSH4 0x4E487B71 PUSH1 0xE0 SHL PUSH1 0x0 MSTORE PUSH1 0x41 PUSH1 0x4 MSTORE PUSH1 0x24 PUSH1 0x0 REVERT JUMPDEST PUSH1 0x0 DUP1 REVERT JUMPDEST PUSH1 0x40 MLOAD SWAP1 PUSH1 0x80 DUP3 ADD PUSH1 0x1 PUSH1 0x1 PUSH1 0x40 SHL SUB DUP2 GT DUP4 DUP3 LT OR PUSH3 0x424 JUMPI PUSH1 0x40 MSTORE JUMP INVALID PUSH1 0x80 PUSH1 0x40 MSTORE PUSH1 0x4 CALLDATASIZE LT ISZERO PUSH2 0x12 JUMPI PUSH1 0x0 DUP1 REVERT JUMPDEST PUSH1 0x0 DUP1 CALLDATALOAD PUSH1 0xE0 SHR SWAP1 DUP2 PUSH4 0x1EB0E59 EQ PUSH2 0x8A JUMPI POP DUP1 PUSH4 0x2E06AAC6 EQ PUSH2 0x85 JUMPI DUP1 PUSH4 0x67F76AD2 EQ PUSH2 0x80 JUMPI DUP1 PUSH4 0x6FEC6A9A EQ PUSH2 0x7B JUMPI DUP1 PUSH4 0x8309435A EQ PUSH2 0x76 JUMPI DUP1 PUSH4 0xAA10D77E EQ PUSH2 0x71 JUMPI PUSH4 0xDF1A4F43 EQ PUSH2 0x6C JUMPI PUSH1 0x0 DUP1 REVERT JUMPDEST PUSH2 0xAFC JUMP JUMPDEST PUSH2 0x90D JUMP JUMPDEST PUSH2 0x58A JUMP JUMPDEST PUSH2 0x339 JUMP JUMPDEST PUSH2 0x2D7 JUMP JUMPDEST PUSH2 0x1CC JUMP JUMPDEST CALLVALUE PUSH2 0xF3 JUMPI PUSH32 0xFFFFFFFFFFFFFFFFFFFFFFFFFFFFFFFFFFFFFFFFFFFFFFFFFFFFFFFFFFFFFFFC SWAP1 PUSH1 0x20 DUP3 CALLDATASIZE ADD SLT PUSH2 0xF3 JUMPI PUSH1 0x4 CALLDATALOAD SWAP2 PUSH8 0xFFFFFFFFFFFFFFFF DUP4 GT PUSH2 0xF6 JUMPI PUSH2 0x100 SWAP1 DUP4 CALLDATASIZE SUB ADD SLT PUSH2 0xF3 JUMPI PUSH1 0x20 PUSH2 0xE9 DUP4 PUSH1 0x4 ADD PUSH2 0x12A6 JUMP JUMPDEST PUSH1 0x40 MLOAD SWAP1 ISZERO ISZERO DUP2 MSTORE RETURN JUMPDEST DUP1 REVERT JUMPDEST POP DUP1 REVERT JUMPDEST SWAP2 DUP2 PUSH1 0x1F DUP5 ADD SLT ISZERO PUSH2 0x128 JUMPI DUP3 CALLDATALOAD SWAP2 PUSH8 0xFFFFFFFFFFFFFFFF DUP4 GT PUSH2 0x128 JUMPI PUSH1 0x20 DUP4 DUP2 DUP7 ADD SWAP6 ADD ADD GT PUSH2 0x128 JUMPI JUMP JUMPDEST PUSH1 0x0 DUP1 REVERT JUMPDEST PUSH1 0x3 GT ISZERO PUSH2 0x137 JUMPI JUMP JUMPDEST PUSH32 0x4E487B7100000000000000000000000000000000000000000000000000000000 PUSH1 0x0 MSTORE PUSH1 0x21 PUSH1 0x4 MSTORE PUSH1 0x24 PUSH1 0x0 REVERT JUMPDEST PUSH1 0x0 JUMPDEST DUP4 DUP2 LT PUSH2 0x179 JUMPI POP POP PUSH1 0x0 SWAP2 ADD MSTORE JUMP JUMPDEST DUP2 DUP2 ADD MLOAD DUP4 DUP3 ADD MSTORE PUSH1 0x20 ADD PUSH2 0x169 JUMP JUMPDEST SWAP1 PUSH32 0xFFFFFFFFFFFFFFFFFFFFFFFFFFFFFFFFFFFFFFFFFFFFFFFFFFFFFFFFFFFFFFE0 PUSH1 0x1F PUSH1 0x20 SWAP4 PUSH2 0x1C5 DUP2 MLOAD DUP1 SWAP3 DUP2 DUP8 MSTORE DUP8 DUP1 DUP9 ADD SWAP2 ADD PUSH2 0x166 JUMP JUMPDEST ADD AND ADD ADD SWAP1 JUMP JUMPDEST CALLVALUE PUSH2 0x128 JUMPI PUSH1 0x40 DUP1 PUSH32 0xFFFFFFFFFFFFFFFFFFFFFFFFFFFFFFFFFFFFFFFFFFFFFFFFFFFFFFFFFFFFFFFC CALLDATASIZE ADD SLT PUSH2 0x128 JUMPI PUSH8 0xFFFFFFFFFFFFFFFF PUSH1 0x4 CALLDATALOAD DUP2 DUP2 GT PUSH2 0x128 JUMPI PUSH2 0x21D SWAP1 CALLDATASIZE SWAP1 PUSH1 0x4 ADD PUSH2 0xFA JUMP JUMPDEST SWAP1 PUSH1 0x24 CALLDATALOAD SWAP3 DUP4 GT PUSH2 0x128 JUMPI PUSH2 0x239 PUSH2 0x241 SWAP4 CALLDATASIZE SWAP1 PUSH1 0x4 ADD PUSH2 0xFA JUMP JUMPDEST SWAP3 SWAP1 SWAP2 PUSH2 0x159A JUMP JUMPDEST DUP2 MLOAD SWAP1 PUSH1 0x20 DUP1 DUP4 ADD DUP2 DUP5 MSTORE DUP3 MLOAD DUP1 SWAP2 MSTORE DUP5 DUP5 ADD SWAP2 DUP1 DUP7 DUP4 PUSH1 0x5 SHL DUP8 ADD ADD SWAP5 ADD SWAP3 PUSH1 0x0 SWAP7 JUMPDEST DUP4 DUP9 LT PUSH2 0x272 JUMPI DUP7 DUP7 SUB DUP8 RETURN JUMPDEST SWAP1 SWAP2 SWAP3 SWAP4 SWAP5 DUP4 DUP1 PUSH2 0x2C6 DUP4 PUSH32 0xFFFFFFFFFFFFFFFFFFFFFFFFFFFFFFFFFFFFFFFFFFFFFFFFFFFFFFFFFFFFFFC0 DUP12 PUSH1 0x1 SWAP7 SUB ADD DUP8 MSTORE DUP6 DUP4 DUP12 MLOAD DUP1 MLOAD PUSH2 0x2B5 DUP2 PUSH2 0x12D JUMP JUMPDEST DUP5 MSTORE ADD MLOAD SWAP2 DUP2 DUP6 DUP3 ADD MSTORE ADD SWAP1 PUSH2 0x189 JUMP JUMPDEST SWAP8 ADD SWAP4 ADD SWAP8 ADD SWAP7 SWAP1 SWAP4 SWAP3 SWAP2 SWAP4 PUSH2 0x265 JUMP JUMPDEST CALLVALUE PUSH2 0x128 JUMPI PUSH1 0x20 PUSH32 0xFFFFFFFFFFFFFFFFFFFFFFFFFFFFFFFFFFFFFFFFFFFFFFFFFFFFFFFFFFFFFFFC CALLDATASIZE ADD SLT PUSH2 0x128 JUMPI PUSH1 0x4 CALLDATALOAD PUSH1 0x0 MSTORE PUSH1 0x14 PUSH1 0x20 MSTORE PUSH1 0x20 PUSH1 0x40 PUSH1 0x0 KECCAK256 SLOAD DUP1 ISZERO ISZERO SWAP1 DUP2 PUSH2 0x32E JUMPI JUMPDEST POP PUSH1 0x40 MLOAD SWAP1 ISZERO ISZERO DUP2 MSTORE RETURN JUMPDEST SWAP1 POP TIMESTAMP GT ISZERO CODESIZE PUSH2 0x323 JUMP JUMPDEST CALLVALUE PUSH2 0x128 JUMPI PUSH32 0xFFFFFFFFFFFFFFFFFFFFFFFFFFFFFFFFFFFFFFFFFFFFFFFFFFFFFFFFFFFFFFFC PUSH1 0x20 DUP2 CALLDATASIZE ADD SLT PUSH2 0x128 JUMPI PUSH1 0x4 CALLDATALOAD SWAP1 PUSH8 0xFFFFFFFFFFFFFFFF DUP3 GT PUSH2 0x128 JUMPI PUSH1 0xE0 DUP3 PUSH1 0x4 ADD SWAP2 DUP4 CALLDATASIZE SUB ADD SLT PUSH2 0x128 JUMPI PUSH2 0x396 DUP2 DUP1 PUSH2 0xBDD JUMP JUMPDEST SWAP3 SWAP1 PUSH1 0x24 DUP3 ADD SWAP4 PUSH2 0x3A7 DUP6 DUP6 PUSH2 0xBDD JUMP JUMPDEST SWAP2 PUSH2 0x3B1 SWAP4 PUSH2 0x1881 JUMP JUMPDEST SWAP2 PUSH2 0x3C6 DUP4 PUSH1 0x0 MSTORE PUSH1 0x15 PUSH1 0x20 MSTORE PUSH1 0x40 PUSH1 0x0 KECCAK256 SWAP1 JUMP JUMPDEST SWAP4 PUSH1 0x3 DUP6 ADD SLOAD PUSH2 0x3D6 SWAP1 PUSH1 0xFF AND SWAP1 JUMP JUMPDEST PUSH2 0x3DF SWAP1 PUSH2 0x162B JUMP JUMPDEST PUSH2 0x3EC PUSH1 0x64 DUP5 ADD DUP4 PUSH2 0xC2E JUMP JUMPDEST SWAP1 PUSH1 0x40 MLOAD DUP1 SWAP2 PUSH1 0x20 DUP3 ADD SWAP4 PUSH2 0x401 SWAP2 DUP6 PUSH2 0xD11 JUMP JUMPDEST SUB PUSH32 0xFFFFFFFFFFFFFFFFFFFFFFFFFFFFFFFFFFFFFFFFFFFFFFFFFFFFFFFFFFFFFFE0 DUP2 ADD DUP3 MSTORE PUSH2 0x431 SWAP1 DUP3 PUSH2 0x8CC JUMP JUMPDEST MLOAD SWAP1 KECCAK256 SWAP3 PUSH1 0x44 DUP2 ADD SWAP4 DUP1 PUSH2 0x445 DUP7 DUP7 PUSH2 0xBDD JUMP JUMPDEST PUSH2 0x44E SWAP2 PUSH2 0x18DB JUMP JUMPDEST SWAP1 PUSH2 0x459 SWAP2 DUP10 PUSH2 0x1ED6 JUMP JUMPDEST SWAP5 PUSH2 0x464 DUP6 DUP1 PUSH2 0xBDD JUMP JUMPDEST SWAP6 SWAP1 SWAP5 PUSH2 0x471 SWAP1 DUP3 PUSH2 0xBDD JUMP JUMPDEST SWAP3 PUSH2 0x47C SWAP2 SWAP3 PUSH2 0xBDD JUMP JUMPDEST SWAP2 SWAP1 SWAP3 PUSH1 0xC4 DUP7 ADD PUSH2 0x48C SWAP1 PUSH2 0xE05 JUMP JUMPDEST SWAP7 PUSH2 0x495 PUSH2 0xA2F JUMP JUMPDEST SWAP9 PUSH2 0x49F DUP14 PUSH2 0x1690 JUMP JUMPDEST DUP11 MSTORE CALLDATASIZE SWAP1 PUSH2 0x4AC SWAP3 PUSH2 0xA79 JUMP JUMPDEST PUSH1 0x20 DUP10 ADD MSTORE CALLDATASIZE SWAP1 PUSH2 0x4BC SWAP3 PUSH2 0xA79 JUMP JUMPDEST PUSH1 0x40 DUP8 ADD MSTORE CALLDATASIZE SWAP1 PUSH2 0x4CC SWAP3 PUSH2 0xA79 JUMP JUMPDEST PUSH1 0x60 DUP6 ADD MSTORE PUSH1 0x80 DUP5 ADD MSTORE PUSH2 0x4E4 SWAP1 CALLDATASIZE SWAP1 PUSH1 0x84 ADD PUSH2 0x1207 JUMP JUMPDEST PUSH1 0xA0 DUP4 ADD MSTORE PUSH1 0xFF AND PUSH1 0xC0 DUP3 ADD MSTORE PUSH2 0x4FA SWAP1 PUSH2 0x1FE6 JUMP JUMPDEST PUSH2 0x503 SWAP3 PUSH2 0x2332 JUMP JUMPDEST PUSH1 0x40 MLOAD PUSH1 0x1 DUP2 MSTORE PUSH1 0x20 SWAP1 RETURN JUMPDEST SUB SWAP1 RETURN JUMPDEST PUSH1 0x20 DUP2 MSTORE PUSH1 0x80 PUSH1 0x60 PUSH2 0x581 PUSH2 0x533 DUP6 MLOAD DUP5 PUSH1 0x20 DUP8 ADD MSTORE PUSH1 0xA0 DUP7 ADD SWAP1 PUSH2 0x189 JUMP JUMPDEST PUSH2 0x56D PUSH1 0x20 DUP8 ADD MLOAD SWAP2 PUSH32 0xFFFFFFFFFFFFFFFFFFFFFFFFFFFFFFFFFFFFFFFFFFFFFFFFFFFFFFFFFFFFFFE0 SWAP3 DUP4 DUP9 DUP4 SUB ADD PUSH1 0x40 DUP10 ADD MSTORE PUSH2 0x189 JUMP JUMPDEST SWAP1 PUSH1 0x40 DUP8 ADD MLOAD SWAP1 DUP7 DUP4 SUB ADD DUP5 DUP8 ADD MSTORE PUSH2 0x189 JUMP JUMPDEST SWAP4 ADD MLOAD SWAP2 ADD MSTORE SWAP1 JUMP JUMPDEST CALLVALUE PUSH2 0x128 JUMPI PUSH1 0x60 DUP1 PUSH32 0xFFFFFFFFFFFFFFFFFFFFFFFFFFFFFFFFFFFFFFFFFFFFFFFFFFFFFFFFFFFFFFFC CALLDATASIZE ADD SLT PUSH2 0x128 JUMPI PUSH8 0xFFFFFFFFFFFFFFFF SWAP1 PUSH1 0x4 CALLDATALOAD DUP3 DUP2 GT PUSH2 0x128 JUMPI PUSH2 0x5DC SWAP1 CALLDATASIZE SWAP1 PUSH1 0x4 ADD PUSH2 0xFA JUMP JUMPDEST PUSH1 0x24 CALLDATALOAD DUP5 DUP2 GT PUSH2 0x128 JUMPI PUSH2 0x5F4 SWAP1 CALLDATASIZE SWAP1 PUSH1 0x4 ADD PUSH2 0xFA JUMP JUMPDEST SWAP3 SWAP1 SWAP5 PUSH1 0x44 CALLDATALOAD SWAP1 DUP2 GT PUSH2 0x128 JUMPI PUSH2 0x50F SWAP6 PUSH32 0x31F2A9A1648AD524DAB76BF973A43A9EF82147D8A007802BE67F77B17E167474 SWAP5 PUSH2 0x638 PUSH2 0x6E3 SWAP4 CALLDATASIZE SWAP1 PUSH1 0x4 ADD PUSH2 0xFA JUMP JUMPDEST PUSH1 0x0 DUP10 PUSH1 0x40 SWAP6 SWAP4 SWAP6 MLOAD PUSH2 0x64A DUP2 PUSH2 0x857 JUMP JUMPDEST DUP2 DUP2 MSTORE DUP2 PUSH1 0x20 DUP3 ADD MSTORE DUP2 PUSH1 0x40 DUP3 ADD MSTORE ADD MSTORE PUSH2 0x671 PUSH2 0x66C DUP3 DUP7 DUP7 DUP7 DUP13 DUP13 PUSH2 0x25B3 JUMP JUMPDEST PUSH2 0x16D0 JUMP JUMPDEST PUSH2 0x67A TIMESTAMP PUSH2 0x1764 JUMP JUMPDEST PUSH2 0x682 PUSH2 0xA3E JUMP JUMPDEST SWAP10 PUSH2 0x68E CALLDATASIZE DUP11 DUP11 PUSH2 0xA79 JUMP JUMPDEST DUP12 MSTORE PUSH2 0x69B CALLDATASIZE DUP5 DUP9 PUSH2 0xA79 JUMP JUMPDEST PUSH1 0x20 DUP13 ADD MSTORE PUSH2 0x6AB CALLDATASIZE DUP7 DUP7 PUSH2 0xA79 JUMP JUMPDEST PUSH1 0x40 DUP13 ADD MSTORE DUP11 ADD SWAP1 DUP2 MSTORE PUSH2 0x6BE DUP11 PUSH2 0x17D7 JUMP JUMPDEST PUSH2 0x6D4 DUP3 MLOAD SWAP2 PUSH1 0x0 MSTORE PUSH1 0x14 PUSH1 0x20 MSTORE PUSH1 0x40 PUSH1 0x0 KECCAK256 SWAP1 JUMP JUMPDEST SSTORE MLOAD SWAP4 PUSH1 0x40 MLOAD SWAP8 DUP9 SWAP8 DUP9 PUSH2 0x1794 JUMP JUMPDEST SUB SWAP1 LOG1 PUSH1 0x40 MLOAD SWAP2 DUP3 SWAP2 DUP3 PUSH2 0x513 JUMP JUMPDEST PUSH32 0x4E487B7100000000000000000000000000000000000000000000000000000000 PUSH1 0x0 MSTORE PUSH1 0x0 PUSH1 0x4 MSTORE PUSH1 0x24 PUSH1 0x0 REVERT JUMPDEST SWAP1 PUSH1 0x1 DUP3 DUP2 SHR SWAP3 AND DUP1 ISZERO PUSH2 0x76A JUMPI JUMPDEST PUSH1 0x20 DUP4 LT EQ PUSH2 0x73B JUMPI JUMP JUMPDEST PUSH32 0x4E487B7100000000000000000000000000000000000000000000000000000000 PUSH1 0x0 MSTORE PUSH1 0x22 PUSH1 0x4 MSTORE PUSH1 0x24 PUSH1 0x0 REVERT JUMPDEST SWAP2 PUSH1 0x7F AND SWAP2 PUSH2 0x730 JUMP JUMPDEST DUP1 SLOAD PUSH1 0x0 SWAP4 SWAP3 PUSH2 0x783 DUP3 PUSH2 0x721 JUMP JUMPDEST SWAP2 DUP3 DUP3 MSTORE PUSH1 0x20 SWAP4 PUSH1 0x1 SWAP2 PUSH1 0x1 DUP2 AND SWAP1 DUP2 PUSH1 0x0 EQ PUSH2 0x7EB JUMPI POP PUSH1 0x1 EQ PUSH2 0x7AA JUMPI JUMPDEST POP POP POP POP POP JUMP JUMPDEST SWAP1 SWAP4 SWAP5 SWAP6 POP PUSH1 0x0 SWAP3 SWAP2 SWAP3 MSTORE DUP4 PUSH1 0x0 KECCAK256 SWAP3 DUP5 PUSH1 0x0 SWAP5 JUMPDEST DUP4 DUP7 LT PUSH2 0x7D7 JUMPI POP POP POP POP ADD ADD SWAP1 CODESIZE DUP1 DUP1 DUP1 DUP1 PUSH2 0x7A3 JUMP JUMPDEST DUP1 SLOAD DUP6 DUP8 ADD DUP4 ADD MSTORE SWAP5 ADD SWAP4 DUP6 SWAP1 DUP3 ADD PUSH2 0x7BF JUMP JUMPDEST PUSH32 0xFFFFFFFFFFFFFFFFFFFFFFFFFFFFFFFFFFFFFFFFFFFFFFFFFFFFFFFFFFFFFF00 AND DUP7 DUP6 ADD MSTORE POP POP POP SWAP1 ISZERO ISZERO PUSH1 0x5 SHL ADD ADD SWAP2 POP CODESIZE DUP1 DUP1 DUP1 DUP1 PUSH2 0x7A3 JUMP JUMPDEST PUSH32 0x4E487B7100000000000000000000000000000000000000000000000000000000 PUSH1 0x0 MSTORE PUSH1 0x41 PUSH1 0x4 MSTORE PUSH1 0x24 PUSH1 0x0 REVERT JUMPDEST PUSH1 0x80 DUP2 ADD SWAP1 DUP2 LT PUSH8 0xFFFFFFFFFFFFFFFF DUP3 GT OR PUSH2 0x873 JUMPI PUSH1 0x40 MSTORE JUMP JUMPDEST PUSH2 0x828 JUMP JUMPDEST PUSH1 0x40 DUP2 ADD SWAP1 DUP2 LT PUSH8 0xFFFFFFFFFFFFFFFF DUP3 GT OR PUSH2 0x873 JUMPI PUSH1 0x40 MSTORE JUMP JUMPDEST PUSH1 0xE0 DUP2 ADD SWAP1 DUP2 LT PUSH8 0xFFFFFFFFFFFFFFFF DUP3 GT OR PUSH2 0x873 JUMPI PUSH1 0x40 MSTORE JUMP JUMPDEST PUSH1 0xC0 DUP2 ADD SWAP1 DUP2 LT PUSH8 0xFFFFFFFFFFFFFFFF DUP3 GT OR PUSH2 0x873 JUMPI PUSH1 0x40 MSTORE JUMP JUMPDEST SWAP1 PUSH1 0x1F PUSH32 0xFFFFFFFFFFFFFFFFFFFFFFFFFFFFFFFFFFFFFFFFFFFFFFFFFFFFFFFFFFFFFFE0 SWAP2 ADD AND DUP2 ADD SWAP1 DUP2 LT PUSH8 0xFFFFFFFFFFFFFFFF DUP3 GT OR PUSH2 0x873 JUMPI PUSH1 0x40 MSTORE JUMP JUMPDEST CALLVALUE PUSH2 0x128 JUMPI PUSH1 0x0 DUP1 PUSH32 0xFFFFFFFFFFFFFFFFFFFFFFFFFFFFFFFFFFFFFFFFFFFFFFFFFFFFFFFFFFFFFFFC CALLDATASIZE ADD SLT PUSH2 0xF3 JUMPI PUSH1 0x40 MLOAD SWAP1 DUP1 DUP3 PUSH1 0x16 SLOAD SWAP2 PUSH2 0x950 DUP4 PUSH2 0x721 JUMP JUMPDEST SWAP3 DUP4 DUP4 MSTORE PUSH1 0x20 SWAP5 PUSH1 0x1 SWAP2 DUP7 PUSH1 0x1 DUP3 AND SWAP2 DUP3 PUSH1 0x0 EQ PUSH2 0x9EE JUMPI POP POP PUSH1 0x1 EQ PUSH2 0x994 JUMPI JUMPDEST POP POP PUSH2 0x980 SWAP3 POP SUB DUP4 PUSH2 0x8CC JUMP JUMPDEST PUSH2 0x50F PUSH1 0x40 MLOAD SWAP3 DUP3 DUP5 SWAP4 DUP5 MSTORE DUP4 ADD SWAP1 PUSH2 0x189 JUMP JUMPDEST SWAP1 DUP6 SWAP3 POP PUSH1 0x16 DUP3 MSTORE PUSH32 0xD833147D7DC355BA459FC788F669E58CFAF9DC25DDCD0702E87D69C7B5124289 JUMPDEST DUP6 DUP4 LT PUSH2 0x9D6 JUMPI POP POP PUSH2 0x980 SWAP4 POP DUP3 ADD ADD CODESIZE DUP1 PUSH2 0x972 JUMP JUMPDEST DUP1 SLOAD DUP4 DUP10 ADD DUP6 ADD MSTORE DUP8 SWAP5 POP DUP7 SWAP4 SWAP1 SWAP3 ADD SWAP2 DUP2 ADD PUSH2 0x9BE JUMP JUMPDEST SWAP2 POP SWAP4 POP PUSH2 0x980 SWAP6 SWAP3 POP PUSH32 0xFFFFFFFFFFFFFFFFFFFFFFFFFFFFFFFFFFFFFFFFFFFFFFFFFFFFFFFFFFFFFF00 SWAP2 POP AND DUP3 DUP5 ADD MSTORE ISZERO ISZERO PUSH1 0x5 SHL DUP3 ADD ADD CODESIZE DUP1 PUSH2 0x972 JUMP JUMPDEST PUSH1 0x40 MLOAD SWAP1 PUSH2 0xA3C DUP3 PUSH2 0x894 JUMP JUMPDEST JUMP JUMPDEST PUSH1 0x40 MLOAD SWAP1 PUSH2 0xA3C DUP3 PUSH2 0x857 JUMP JUMPDEST PUSH1 0x40 MLOAD SWAP1 PUSH2 0xA3C DUP3 PUSH2 0x878 JUMP JUMPDEST PUSH1 0x40 MLOAD SWAP1 PUSH2 0x180 DUP3 ADD DUP3 DUP2 LT PUSH8 0xFFFFFFFFFFFFFFFF DUP3 GT OR PUSH2 0x873 JUMPI PUSH1 0x40 MSTORE JUMP JUMPDEST SWAP3 SWAP2 SWAP3 PUSH8 0xFFFFFFFFFFFFFFFF DUP3 GT PUSH2 0x873 JUMPI PUSH1 0x40 MLOAD SWAP2 PUSH2 0xAC1 PUSH1 0x20 PUSH32 0xFFFFFFFFFFFFFFFFFFFFFFFFFFFFFFFFFFFFFFFFFFFFFFFFFFFFFFFFFFFFFFE0 PUSH1 0x1F DUP5 ADD AND ADD DUP5 PUSH2 0x8CC JUMP JUMPDEST DUP3 SWAP5 DUP2 DUP5 MSTORE DUP2 DUP4 ADD GT PUSH2 0x128 JUMPI DUP3 DUP2 PUSH1 0x20 SWAP4 DUP5 PUSH1 0x0 SWAP7 ADD CALLDATACOPY ADD ADD MSTORE JUMP JUMPDEST SWAP1 DUP1 PUSH1 0x1F DUP4 ADD SLT ISZERO PUSH2 0x128 JUMPI DUP2 PUSH1 0x20 PUSH2 0xAF9 SWAP4 CALLDATALOAD SWAP2 ADD PUSH2 0xA79 JUMP JUMPDEST SWAP1 JUMP JUMPDEST CALLVALUE PUSH2 0x128 JUMPI PUSH32 0xFFFFFFFFFFFFFFFFFFFFFFFFFFFFFFFFFFFFFFFFFFFFFFFFFFFFFFFFFFFFFFFC PUSH1 0x20 DUP2 CALLDATASIZE ADD SLT PUSH2 0x128 JUMPI PUSH1 0x4 CALLDATALOAD PUSH8 0xFFFFFFFFFFFFFFFF SWAP2 DUP3 DUP3 GT PUSH2 0x128 JUMPI PUSH1 0x80 SWAP1 DUP3 CALLDATASIZE SUB ADD SLT PUSH2 0x128 JUMPI PUSH1 0x40 MLOAD PUSH2 0xB58 DUP2 PUSH2 0x857 JUMP JUMPDEST DUP2 PUSH1 0x4 ADD CALLDATALOAD DUP4 DUP2 GT PUSH2 0x128 JUMPI PUSH2 0xB74 SWAP1 PUSH1 0x4 CALLDATASIZE SWAP2 DUP6 ADD ADD PUSH2 0xADE JUMP JUMPDEST DUP2 MSTORE PUSH1 0x24 DUP3 ADD CALLDATALOAD DUP4 DUP2 GT PUSH2 0x128 JUMPI PUSH2 0xB92 SWAP1 PUSH1 0x4 CALLDATASIZE SWAP2 DUP6 ADD ADD PUSH2 0xADE JUMP JUMPDEST PUSH1 0x20 DUP3 ADD MSTORE PUSH1 0x44 DUP3 ADD CALLDATALOAD SWAP3 DUP4 GT PUSH2 0x128 JUMPI PUSH1 0x64 PUSH2 0xBCD SWAP3 PUSH2 0xBBC PUSH2 0x50F SWAP6 PUSH1 0x4 CALLDATASIZE SWAP2 DUP5 ADD ADD PUSH2 0xADE JUMP JUMPDEST PUSH1 0x40 DUP5 ADD MSTORE ADD CALLDATALOAD PUSH1 0x60 DUP3 ADD MSTORE PUSH2 0x17D7 JUMP JUMPDEST PUSH1 0x40 MLOAD SWAP1 DUP2 MSTORE SWAP1 DUP2 SWAP1 PUSH1 0x20 DUP3 ADD SWAP1 JUMP JUMPDEST SWAP1 CALLDATALOAD SWAP1 PUSH32 0xFFFFFFFFFFFFFFFFFFFFFFFFFFFFFFFFFFFFFFFFFFFFFFFFFFFFFFFFFFFFFFE1 DUP2 CALLDATASIZE SUB ADD DUP3 SLT ISZERO PUSH2 0x128 JUMPI ADD DUP1 CALLDATALOAD SWAP1 PUSH8 0xFFFFFFFFFFFFFFFF DUP3 GT PUSH2 0x128 JUMPI PUSH1 0x20 ADD SWAP2 DUP2 CALLDATASIZE SUB DUP4 SGT PUSH2 0x128 JUMPI JUMP JUMPDEST SWAP1 CALLDATALOAD SWAP1 PUSH32 0xFFFFFFFFFFFFFFFFFFFFFFFFFFFFFFFFFFFFFFFFFFFFFFFFFFFFFFFFFFFFFFE1 DUP2 CALLDATASIZE SUB ADD DUP3 SLT ISZERO PUSH2 0x128 JUMPI ADD DUP1 CALLDATALOAD SWAP1 PUSH8 0xFFFFFFFFFFFFFFFF DUP3 GT PUSH2 0x128 JUMPI PUSH1 0x20 ADD SWAP2 DUP2 PUSH1 0x5 SHL CALLDATASIZE SUB DUP4 SGT PUSH2 0x128 JUMPI JUMP JUMPDEST SWAP1 CALLDATALOAD PUSH32 0xFFFFFFFFFFFFFFFFFFFFFFFFFFFFFFFFFFFFFFFFFFFFFFFFFFFFFFFFFFFFFFE1 DUP3 CALLDATASIZE SUB ADD DUP2 SLT ISZERO PUSH2 0x128 JUMPI ADD PUSH1 0x20 DUP2 CALLDATALOAD SWAP2 ADD SWAP2 PUSH8 0xFFFFFFFFFFFFFFFF DUP3 GT PUSH2 0x128 JUMPI DUP2 CALLDATASIZE SUB DUP4 SGT PUSH2 0x128 JUMPI JUMP JUMPDEST PUSH1 0x1F DUP3 PUSH1 0x20 SWAP5 SWAP4 PUSH32 0xFFFFFFFFFFFFFFFFFFFFFFFFFFFFFFFFFFFFFFFFFFFFFFFFFFFFFFFFFFFFFFE0 SWAP4 DUP2 DUP7 MSTORE DUP7 DUP7 ADD CALLDATACOPY PUSH1 0x0 DUP6 DUP3 DUP7 ADD ADD MSTORE ADD AND ADD ADD SWAP1 JUMP JUMPDEST PUSH1 0x20 SWAP3 DUP1 DUP5 DUP4 ADD DUP6 DUP5 MSTORE MSTORE PUSH1 0x40 SWAP4 PUSH1 0x40 DUP4 ADD SWAP3 PUSH1 0x40 DUP4 PUSH1 0x5 SHL DUP3 ADD ADD SWAP6 DUP6 PUSH1 0x0 DUP1 SWAP4 JUMPDEST DUP7 DUP6 LT PUSH2 0xD47 JUMPI POP POP POP POP POP POP POP POP POP SWAP1 JUMP JUMPDEST SWAP1 SWAP2 SWAP3 SWAP4 SWAP5 SWAP6 SWAP7 SWAP8 SWAP9 PUSH32 0xFFFFFFFFFFFFFFFFFFFFFFFFFFFFFFFFFFFFFFFFFFFFFFFFFFFFFFFFFFFFFFC0 DUP3 DUP3 SUB ADD DUP10 MSTORE DUP10 CALLDATALOAD PUSH32 0xFFFFFFFFFFFFFFFFFFFFFFFFFFFFFFFFFFFFFFFFFFFFFFFFFFFFFFFFFFFFFFC1 DUP6 CALLDATASIZE SUB ADD DUP2 SLT ISZERO PUSH2 0xDF5 JUMPI DUP8 PUSH2 0xDE4 PUSH1 0x1 SWAP4 DUP8 DUP4 SWAP5 ADD SWAP1 PUSH2 0xDD7 PUSH2 0xDCD PUSH2 0xDC1 DUP5 DUP1 PUSH2 0xC82 JUMP JUMPDEST DUP14 DUP6 MSTORE DUP14 DUP6 ADD SWAP2 PUSH2 0xCD2 JUMP JUMPDEST SWAP3 DUP6 DUP2 ADD SWAP1 PUSH2 0xC82 JUMP JUMPDEST SWAP2 DUP6 DUP2 DUP6 SUB SWAP2 ADD MSTORE PUSH2 0xCD2 JUMP JUMPDEST SWAP12 ADD SWAP10 ADD SWAP8 SWAP7 SWAP6 ADD SWAP4 SWAP3 SWAP2 SWAP1 PUSH2 0xD34 JUMP JUMPDEST DUP4 DUP1 REVERT JUMPDEST PUSH2 0xE02 DUP3 PUSH2 0x12D JUMP JUMPDEST MSTORE JUMP JUMPDEST CALLDATALOAD PUSH1 0xFF DUP2 AND DUP2 SUB PUSH2 0x128 JUMPI SWAP1 JUMP JUMPDEST ISZERO PUSH2 0xE1A JUMPI JUMP JUMPDEST PUSH1 0x64 PUSH1 0x40 MLOAD PUSH32 0x8C379A000000000000000000000000000000000000000000000000000000000 DUP2 MSTORE PUSH1 0x20 PUSH1 0x4 DUP3 ADD MSTORE PUSH1 0x1A PUSH1 0x24 DUP3 ADD MSTORE PUSH32 0x4143433A20696E76616C696420736967207468726573686F6C64000000000000 PUSH1 0x44 DUP3 ADD MSTORE REVERT JUMPDEST PUSH32 0x4E487B7100000000000000000000000000000000000000000000000000000000 PUSH1 0x0 MSTORE PUSH1 0x32 PUSH1 0x4 MSTORE PUSH1 0x24 PUSH1 0x0 REVERT JUMPDEST DUP1 SLOAD DUP3 LT ISZERO PUSH2 0xEC3 JUMPI PUSH1 0x0 MSTORE PUSH1 0x20 PUSH1 0x0 KECCAK256 SWAP1 PUSH1 0x1 SHL ADD SWAP1 PUSH1 0x0 SWAP1 JUMP JUMPDEST PUSH2 0xE78 JUMP JUMPDEST SWAP1 PUSH2 0xED2 DUP2 PUSH2 0x12D JUMP JUMPDEST PUSH1 0xFF PUSH32 0xFFFFFFFFFFFFFFFFFFFFFFFFFFFFFFFFFFFFFFFFFFFFFFFFFFFFFFFFFFFFFF00 DUP4 SLOAD AND SWAP2 AND OR SWAP1 SSTORE JUMP JUMPDEST DUP2 DUP2 LT PUSH2 0xF0A JUMPI POP POP JUMP JUMPDEST PUSH1 0x0 DUP2 SSTORE PUSH1 0x1 ADD PUSH2 0xEFF JUMP JUMPDEST SWAP2 SWAP1 PUSH1 0x1F DUP2 GT PUSH2 0xF25 JUMPI POP POP POP JUMP JUMPDEST PUSH2 0xA3C SWAP3 PUSH1 0x0 MSTORE PUSH1 0x20 PUSH1 0x0 KECCAK256 SWAP1 PUSH1 0x20 PUSH1 0x1F DUP5 ADD PUSH1 0x5 SHR DUP4 ADD SWAP4 LT PUSH2 0xF51 JUMPI JUMPDEST PUSH1 0x1F ADD PUSH1 0x5 SHR ADD SWAP1 PUSH2 0xEFF JUMP JUMPDEST SWAP1 SWAP2 POP DUP2 SWAP1 PUSH2 0xF44 JUMP JUMPDEST SWAP2 SWAP1 DUP3 SLOAD PUSH9 0x10000000000000000 DUP2 LT ISZERO PUSH2 0x873 JUMPI PUSH2 0xF82 SWAP1 PUSH1 0x1 SWAP5 PUSH1 0x1 DUP3 ADD DUP2 SSTORE PUSH2 0xEA7 JUMP JUMPDEST PUSH2 0x10D7 JUMPI PUSH1 0x1 SWAP1 PUSH2 0xF9D DUP4 MLOAD PUSH2 0xF97 DUP2 PUSH2 0x12D JUMP JUMPDEST DUP3 PUSH2 0xEC8 JUMP JUMPDEST ADD SWAP1 PUSH1 0x20 DUP1 SWAP2 ADD MLOAD SWAP4 DUP5 MLOAD SWAP2 PUSH8 0xFFFFFFFFFFFFFFFF DUP4 GT PUSH2 0x873 JUMPI PUSH2 0xFCC DUP4 PUSH2 0xFC6 DUP7 SLOAD PUSH2 0x721 JUMP JUMPDEST DUP7 PUSH2 0xF16 JUMP JUMPDEST PUSH1 0x20 SWAP2 PUSH1 0x1F DUP5 GT PUSH1 0x1 EQ PUSH2 0x102D JUMPI POP POP DUP2 SWAP1 PUSH2 0x101E SWAP4 SWAP5 SWAP6 PUSH1 0x0 SWAP3 PUSH2 0x1022 JUMPI JUMPDEST POP POP PUSH32 0xFFFFFFFFFFFFFFFFFFFFFFFFFFFFFFFFFFFFFFFFFFFFFFFFFFFFFFFFFFFFFFFF DUP3 PUSH1 0x1 SHL SWAP3 PUSH1 0x3 SHL SHR NOT AND OR SWAP1 JUMP JUMPDEST SWAP1 SSTORE JUMP JUMPDEST ADD MLOAD SWAP1 POP CODESIZE DUP1 PUSH2 0xFEC JUMP JUMPDEST SWAP6 PUSH32 0xFFFFFFFFFFFFFFFFFFFFFFFFFFFFFFFFFFFFFFFFFFFFFFFFFFFFFFFFFFFFFFE0 DUP5 SWAP4 SWAP3 SWAP4 AND SWAP7 PUSH2 0x1064 DUP7 PUSH1 0x0 MSTORE PUSH1 0x20 PUSH1 0x0 KECCAK256 SWAP1 JUMP JUMPDEST SWAP4 PUSH1 0x0 SWAP2 JUMPDEST DUP10 DUP4 LT PUSH2 0x10C0 JUMPI POP POP POP DUP4 PUSH1 0x1 SWAP6 SWAP7 SWAP8 LT PUSH2 0x1089 JUMPI JUMPDEST POP POP POP DUP2 SHL ADD SWAP1 SSTORE JUMP JUMPDEST ADD MLOAD PUSH32 0xFFFFFFFFFFFFFFFFFFFFFFFFFFFFFFFFFFFFFFFFFFFFFFFFFFFFFFFFFFFFFFFF PUSH1 0xF8 DUP5 PUSH1 0x3 SHL AND SHR NOT AND SWAP1 SSTORE CODESIZE DUP1 DUP1 PUSH2 0x107F JUMP JUMPDEST DUP4 DUP6 ADD MLOAD DUP7 SSTORE SWAP5 DUP6 ADD SWAP5 SWAP4 DUP2 ADD SWAP4 SWAP2 DUP2 ADD SWAP2 PUSH2 0x1069 JUMP JUMPDEST PUSH2 0x6F2 JUMP JUMPDEST SWAP4 DUP3 DUP8 SWAP7 SWAP6 DUP3 SWAP5 PUSH1 0x40 SWAP12 SWAP10 SWAP7 SWAP5 DUP3 CALLDATACOPY ADD SWAP2 PUSH1 0x0 DUP4 MSTORE DUP3 CALLDATACOPY ADD SWAP2 PUSH1 0x0 DUP4 MSTORE DUP3 CALLDATACOPY ADD SWAP2 DUP3 MSTORE PUSH1 0x20 DUP3 ADD MSTORE ADD SWAP1 JUMP JUMPDEST PUSH1 0x40 MLOAD SWAP1 PUSH2 0x1115 DUP3 PUSH2 0x878 JUMP JUMPDEST PUSH1 0x3 DUP3 MSTORE PUSH32 0x4143430000000000000000000000000000000000000000000000000000000000 PUSH1 0x20 DUP4 ADD MSTORE JUMP JUMPDEST PUSH1 0x40 MLOAD SWAP1 PUSH2 0x114E DUP3 PUSH2 0x857 JUMP JUMPDEST PUSH1 0x80 CALLDATASIZE DUP4 CALLDATACOPY JUMP JUMPDEST PUSH1 0x40 MLOAD SWAP1 PUSH2 0x1162 DUP3 PUSH2 0x878 JUMP JUMPDEST PUSH1 0x40 CALLDATASIZE DUP4 CALLDATACOPY JUMP JUMPDEST PUSH1 0x40 MLOAD SWAP1 PUSH1 0x20 DUP3 ADD DUP3 DUP2 LT PUSH8 0xFFFFFFFFFFFFFFFF DUP3 GT OR PUSH2 0x873 JUMPI PUSH1 0x40 MSTORE PUSH1 0x20 CALLDATASIZE DUP4 CALLDATACOPY JUMP JUMPDEST PUSH1 0x40 MLOAD SWAP1 PUSH2 0x119B DUP3 PUSH2 0x8B0 JUMP JUMPDEST PUSH1 0xC0 CALLDATASIZE DUP4 CALLDATACOPY JUMP JUMPDEST ISZERO PUSH2 0x11A9 JUMPI JUMP JUMPDEST PUSH1 0x64 PUSH1 0x40 MLOAD PUSH32 0x8C379A000000000000000000000000000000000000000000000000000000000 DUP2 MSTORE PUSH1 0x20 PUSH1 0x4 DUP3 ADD MSTORE PUSH1 0x17 PUSH1 0x24 DUP3 ADD MSTORE PUSH32 0x4143433A206E6F7420656E6F756768207369676E657273000000000000000000 PUSH1 0x44 DUP3 ADD MSTORE REVERT JUMPDEST SWAP2 SWAP1 PUSH1 0x40 MLOAD SWAP3 PUSH2 0x1216 DUP5 PUSH2 0x878 JUMP JUMPDEST DUP4 SWAP1 PUSH1 0x40 DUP2 ADD SWAP3 DUP4 GT PUSH2 0x128 JUMPI SWAP1 JUMPDEST DUP3 DUP3 LT PUSH2 0x1231 JUMPI POP POP POP JUMP JUMPDEST DUP2 CALLDATALOAD DUP2 MSTORE PUSH1 0x20 SWAP2 DUP3 ADD SWAP2 ADD PUSH2 0x1225 JUMP JUMPDEST ISZERO PUSH2 0x1248 JUMPI JUMP JUMPDEST PUSH1 0x64 PUSH1 0x40 MLOAD PUSH32 0x8C379A000000000000000000000000000000000000000000000000000000000 DUP2 MSTORE PUSH1 0x20 PUSH1 0x4 DUP3 ADD MSTORE PUSH1 0x1A PUSH1 0x24 DUP3 ADD MSTORE PUSH32 0x4143433A206167672D73696720766572696679206661696C6564000000000000 PUSH1 0x44 DUP3 ADD MSTORE REVERT JUMPDEST PUSH2 0x12CE PUSH2 0x12DE PUSH2 0x12B6 DUP4 DUP1 PUSH2 0xBDD JUMP JUMPDEST PUSH1 0x20 DUP6 ADD SWAP4 SWAP2 PUSH2 0x12C6 DUP6 DUP8 PUSH2 0xBDD JUMP JUMPDEST SWAP3 SWAP1 SWAP2 PUSH2 0x1881 JUMP JUMPDEST PUSH1 0x0 MSTORE PUSH1 0x15 PUSH1 0x20 MSTORE PUSH1 0x40 PUSH1 0x0 KECCAK256 SWAP1 JUMP JUMPDEST PUSH1 0x40 DUP4 ADD PUSH2 0x12F5 PUSH2 0x12EF DUP3 DUP7 PUSH2 0xBDD JUMP JUMPDEST SWAP1 PUSH2 0x18DB JUMP JUMPDEST SWAP3 PUSH2 0x1319 PUSH2 0x1306 PUSH1 0x60 DUP8 ADD DUP8 PUSH2 0xC2E JUMP JUMPDEST PUSH1 0x40 MLOAD PUSH1 0x20 DUP2 ADD SWAP4 SWAP1 SWAP3 DUP4 SWAP3 SWAP1 DUP6 PUSH2 0xD11 JUMP JUMPDEST SUB SWAP4 PUSH2 0x134B PUSH32 0xFFFFFFFFFFFFFFFFFFFFFFFFFFFFFFFFFFFFFFFFFFFFFFFFFFFFFFFFFFFFFFE0 SWAP6 DUP7 DUP2 ADD DUP5 MSTORE DUP4 PUSH2 0x8CC JUMP JUMPDEST PUSH2 0x135D PUSH2 0x1356 PUSH2 0xA4B JUMP JUMPDEST SWAP8 DUP9 PUSH2 0xDF9 JUMP JUMPDEST DUP2 PUSH1 0x20 DUP9 ADD MSTORE PUSH1 0x3 DUP7 ADD PUSH2 0x1379 PUSH2 0x1375 DUP3 SLOAD PUSH1 0xFF AND SWAP1 JUMP JUMPDEST ISZERO SWAP1 JUMP JUMPDEST PUSH2 0x1455 JUMPI POP PUSH2 0x13F3 PUSH2 0x13B9 PUSH2 0x13E6 PUSH2 0x144B SWAP8 PUSH2 0x1445 SWAP8 PUSH2 0x13DA DUP14 DUP13 PUSH2 0x1450 SWAP16 SWAP11 PUSH2 0x1436 SWAP11 PUSH2 0x1440 SWAP11 PUSH1 0x2 PUSH2 0x13C1 PUSH2 0x13B0 DUP8 DUP1 PUSH2 0xBDD JUMP JUMPDEST SWAP13 SWAP1 SWAP10 DUP9 PUSH2 0xBDD JUMP JUMPDEST SWAP4 SWAP1 SWAP8 PUSH2 0xBDD JUMP JUMPDEST SWAP5 SWAP1 SWAP4 MLOAD SWAP1 KECCAK256 SWAP5 ADD SLOAD SWAP5 PUSH1 0x40 MLOAD SWAP11 DUP12 SWAP9 PUSH1 0x20 DUP11 ADD PUSH2 0x10DC JUMP JUMPDEST SUB SWAP1 DUP2 ADD DUP4 MSTORE DUP3 PUSH2 0x8CC JUMP JUMPDEST PUSH2 0x13EE PUSH2 0x1108 JUMP JUMPDEST PUSH2 0x19FF JUMP JUMPDEST SWAP3 PUSH2 0x13FC PUSH2 0x1141 JUMP JUMPDEST POP PUSH2 0x1411 PUSH2 0x140C PUSH1 0xE0 DUP4 ADD PUSH2 0xE05 JUMP JUMPDEST PUSH2 0x1CD3 JUMP JUMPDEST PUSH1 0xFF PUSH2 0x142D PUSH2 0x1427 PUSH1 0x1 DUP13 SWAP9 SWAP6 SWAP9 ADD SLOAD PUSH1 0xFF AND SWAP1 JUMP JUMPDEST PUSH1 0xFF AND SWAP1 JUMP JUMPDEST SWAP2 AND LT ISZERO PUSH2 0x11A2 JUMP JUMPDEST PUSH1 0xA0 CALLDATASIZE SWAP2 ADD PUSH2 0x1207 JUMP JUMPDEST PUSH2 0x1DB4 JUMP JUMPDEST POP PUSH2 0x1241 JUMP JUMPDEST PUSH2 0xF5B JUMP JUMPDEST PUSH1 0x1 SWAP1 JUMP JUMPDEST SWAP4 POP POP POP POP PUSH2 0x144B SWAP2 POP PUSH2 0x14B8 PUSH2 0x1487 PUSH1 0x80 PUSH2 0x1450 SWAP8 ADD PUSH2 0x1482 PUSH1 0xFF PUSH2 0x147A DUP4 PUSH2 0xE05 JUMP JUMPDEST AND ISZERO ISZERO PUSH2 0xE13 JUMP JUMPDEST PUSH2 0xE05 JUMP JUMPDEST PUSH1 0x1 DUP6 ADD SWAP1 PUSH1 0xFF AND PUSH32 0xFFFFFFFFFFFFFFFFFFFFFFFFFFFFFFFFFFFFFFFFFFFFFFFFFFFFFFFFFFFFFF00 DUP3 SLOAD AND OR SWAP1 SSTORE JUMP JUMPDEST PUSH1 0x1 PUSH32 0xFFFFFFFFFFFFFFFFFFFFFFFFFFFFFFFFFFFFFFFFFFFFFFFFFFFFFFFFFFFFFF00 DUP3 SLOAD AND OR SWAP1 SSTORE JUMP JUMPDEST SWAP1 PUSH2 0xA3C PUSH2 0x14F7 SWAP3 PUSH1 0x40 MLOAD SWAP4 DUP5 DUP1 SWAP3 PUSH2 0x774 JUMP JUMPDEST SUB DUP4 PUSH2 0x8CC JUMP JUMPDEST SWAP1 DUP2 SLOAD PUSH8 0xFFFFFFFFFFFFFFFF DUP2 GT PUSH2 0x873 JUMPI PUSH1 0x20 SWAP3 PUSH1 0x40 SWAP4 PUSH1 0x40 MLOAD SWAP5 PUSH2 0x152A PUSH1 0x20 DUP6 PUSH1 0x5 SHL ADD DUP8 PUSH2 0x8CC JUMP JUMPDEST DUP4 DUP7 MSTORE PUSH1 0x20 DUP7 ADD SWAP3 PUSH1 0x0 MSTORE PUSH1 0x20 PUSH1 0x0 KECCAK256 SWAP1 PUSH1 0x0 SWAP4 JUMPDEST DUP6 DUP6 LT PUSH2 0x154E JUMPI POP POP POP POP POP POP JUMP JUMPDEST PUSH1 0x2 DUP5 PUSH1 0x1 SWAP3 DUP5 MLOAD PUSH2 0x155F DUP2 PUSH2 0x878 JUMP JUMPDEST PUSH1 0xFF DUP8 SLOAD AND PUSH2 0x156D DUP2 PUSH2 0x12D JUMP JUMPDEST DUP2 MSTORE DUP6 MLOAD PUSH2 0x1588 DUP2 PUSH2 0x1581 DUP2 DUP10 DUP13 ADD PUSH2 0x774 JUMP JUMPDEST SUB DUP3 PUSH2 0x8CC JUMP JUMPDEST DUP4 DUP3 ADD MSTORE DUP2 MSTORE ADD SWAP4 ADD SWAP5 ADD SWAP4 SWAP2 PUSH2 0x153F JUMP JUMPDEST SWAP1 PUSH2 0x15A6 SWAP4 SWAP3 SWAP2 PUSH2 0x1881 JUMP JUMPDEST PUSH1 0x0 MSTORE PUSH1 0x15 PUSH1 0x20 MSTORE PUSH1 0x40 PUSH1 0x0 KECCAK256 PUSH1 0xFF PUSH1 0x3 DUP3 ADD SLOAD AND PUSH2 0x1622 JUMPI PUSH1 0x40 MLOAD PUSH32 0x8C379A000000000000000000000000000000000000000000000000000000000 DUP2 MSTORE PUSH1 0x20 PUSH1 0x4 DUP3 ADD MSTORE PUSH1 0x15 PUSH1 0x24 DUP3 ADD MSTORE PUSH32 0x4143433A20706F6C696379206E6F7420666F756E640000000000000000000000 PUSH1 0x44 DUP3 ADD MSTORE PUSH1 0x64 SWAP1 REVERT JUMPDEST SUB SWAP1 REVERT JUMPDEST PUSH2 0xAF9 SWAP1 PUSH2 0x14FE JUMP JUMPDEST ISZERO PUSH2 0x1632 JUMPI JUMP JUMPDEST PUSH1 0x64 PUSH1 0x40 MLOAD PUSH32 0x8C379A000000000000000000000000000000000000000000000000000000000 DUP2 MSTORE PUSH1 0x20 PUSH1 0x4 DUP3 ADD MSTORE PUSH1 0x19 PUSH1 0x24 DUP3 ADD MSTORE PUSH32 0x4143433A20706F6C6963792D736574206E6F7420666F756E6400000000000000 PUSH1 0x44 DUP3 ADD MSTORE REVERT JUMPDEST SWAP1 PUSH1 0x40 MLOAD PUSH2 0x169D DUP2 PUSH2 0x857 JUMP JUMPDEST PUSH1 0x60 PUSH1 0xFF PUSH1 0x3 DUP4 SWAP6 PUSH2 0x16AE DUP2 PUSH2 0x14FE JUMP JUMPDEST DUP6 MSTORE DUP3 PUSH1 0x1 DUP3 ADD SLOAD AND PUSH1 0x20 DUP7 ADD MSTORE PUSH1 0x2 DUP2 ADD SLOAD PUSH1 0x40 DUP7 ADD MSTORE ADD SLOAD AND ISZERO ISZERO SWAP2 ADD MSTORE JUMP JUMPDEST ISZERO PUSH2 0x16D7 JUMPI JUMP JUMPDEST PUSH1 0x64 PUSH1 0x40 MLOAD PUSH32 0x8C379A000000000000000000000000000000000000000000000000000000000 DUP2 MSTORE PUSH1 0x20 PUSH1 0x4 DUP3 ADD MSTORE PUSH1 0x11 PUSH1 0x24 DUP3 ADD MSTORE PUSH32 0x4143433A20556E617574686F72697A6564000000000000000000000000000000 PUSH1 0x44 DUP3 ADD MSTORE REVERT JUMPDEST PUSH32 0x4E487B7100000000000000000000000000000000000000000000000000000000 PUSH1 0x0 MSTORE PUSH1 0x11 PUSH1 0x4 MSTORE PUSH1 0x24 PUSH1 0x0 REVERT JUMPDEST SWAP1 PUSH2 0xE10 DUP3 ADD DUP1 SWAP3 GT PUSH2 0x1773 JUMPI JUMP JUMPDEST PUSH2 0x1735 JUMP JUMPDEST SWAP1 PUSH1 0x1 DUP3 ADD DUP1 SWAP3 GT PUSH2 0x1773 JUMPI JUMP JUMPDEST PUSH1 0x1 ADD SWAP1 DUP2 PUSH1 0x1 GT PUSH2 0x1773 JUMPI JUMP JUMPDEST SWAP8 SWAP7 SWAP6 SWAP2 SWAP3 PUSH2 0x17D2 SWAP5 PUSH2 0x17B6 PUSH2 0x17C4 SWAP4 PUSH1 0x60 SWAP9 SWAP7 PUSH1 0x80 DUP14 MSTORE PUSH1 0x80 DUP14 ADD SWAP2 PUSH2 0xCD2 JUMP JUMPDEST SWAP2 DUP11 DUP4 SUB PUSH1 0x20 DUP13 ADD MSTORE PUSH2 0xCD2 JUMP JUMPDEST SWAP2 DUP8 DUP4 SUB PUSH1 0x40 DUP10 ADD MSTORE PUSH2 0xCD2 JUMP JUMPDEST SWAP4 ADD MSTORE JUMP JUMPDEST DUP1 MLOAD SWAP1 PUSH2 0x187B PUSH1 0x43 PUSH1 0x20 DUP1 DUP5 ADD MLOAD PUSH1 0x60 PUSH1 0x40 DUP7 ADD MLOAD SWAP6 ADD MLOAD PUSH1 0x40 MLOAD SWAP6 DUP4 PUSH2 0x1861 DUP2 PUSH2 0x180C DUP11 SWAP8 DUP9 ADD SWAP12 DUP13 DUP2 MLOAD SWAP4 DUP5 SWAP3 ADD PUSH2 0x166 JUMP JUMPDEST DUP7 ADD SWAP5 PUSH32 0x7C00000000000000000000000000000000000000000000000000000000000000 SWAP6 DUP7 DUP5 DUP3 ADD MSTORE PUSH2 0x1849 DUP3 MLOAD DUP1 SWAP4 DUP7 PUSH1 0x21 DUP6 ADD SWAP2 ADD PUSH2 0x166 JUMP JUMPDEST ADD SWAP2 DUP6 PUSH1 0x21 DUP5 ADD MSTORE DUP4 MLOAD SWAP4 DUP5 SWAP2 PUSH1 0x22 DUP6 ADD SWAP2 ADD PUSH2 0x166 JUMP JUMPDEST ADD SWAP2 PUSH1 0x22 DUP4 ADD MSTORE PUSH1 0x23 DUP3 ADD MSTORE SUB PUSH1 0x23 DUP2 ADD DUP5 MSTORE ADD DUP3 PUSH2 0x8CC JUMP JUMPDEST MLOAD SWAP1 KECCAK256 SWAP1 JUMP JUMPDEST SWAP3 SWAP2 PUSH2 0x187B SWAP2 DUP4 PUSH1 0x21 SWAP3 PUSH1 0x40 MLOAD SWAP6 DUP4 DUP8 SWAP5 PUSH1 0x20 DUP7 ADD SWAP10 DUP11 CALLDATACOPY DUP5 ADD SWAP2 PUSH32 0x7C00000000000000000000000000000000000000000000000000000000000000 PUSH1 0x20 DUP5 ADD MSTORE DUP6 DUP4 ADD CALLDATACOPY ADD PUSH1 0x0 DUP4 DUP3 ADD MSTORE SUB PUSH1 0x1 DUP2 ADD DUP5 MSTORE ADD DUP3 PUSH2 0x8CC JUMP JUMPDEST PUSH2 0x18E6 SWAP2 CALLDATASIZE SWAP2 PUSH2 0xA79 JUMP JUMPDEST PUSH1 0x20 DUP2 MLOAD SWAP2 ADD KECCAK256 PUSH32 0xB3E71936029EA100264457A898DCB589DD7EF1F9C03768F6D110E3D43558029D DUP2 EQ PUSH2 0x19CB JUMPI PUSH32 0x89B51E83CB3FC3FF6274369BEE8B175AEAA38AE40D40277BC6C12974F383A6FD DUP2 EQ PUSH2 0x19C5 JUMPI PUSH32 0xF7993C1CC9E18041AFDBF383610EDDF76760E765912DE5665A4361729FB207D EQ PUSH2 0x19C0 JUMPI PUSH1 0x40 MLOAD PUSH32 0x8C379A000000000000000000000000000000000000000000000000000000000 DUP2 MSTORE PUSH1 0x20 PUSH1 0x4 DUP3 ADD MSTORE PUSH1 0x18 PUSH1 0x24 DUP3 ADD MSTORE PUSH32 0x4143433A20756E6B6E6F776E20706F6C69637920747970650000000000000000 PUSH1 0x44 DUP3 ADD MSTORE PUSH1 0x64 SWAP1 REVERT JUMPDEST PUSH1 0x2 SWAP1 JUMP JUMPDEST POP PUSH1 0x1 SWAP1 JUMP JUMPDEST POP PUSH1 0x0 SWAP1 JUMP JUMPDEST PUSH1 0x80 DUP2 ADD SWAP3 SWAP2 PUSH1 0x0 SWAP2 JUMPDEST PUSH1 0x4 DUP4 LT PUSH2 0x19E8 JUMPI POP POP POP JUMP JUMPDEST PUSH1 0x1 SWAP1 DUP3 MLOAD DUP2 MSTORE PUSH1 0x20 DUP1 SWAP2 ADD SWAP3 ADD SWAP3 ADD SWAP2 SWAP1 PUSH2 0x19DB JUMP JUMPDEST SWAP1 PUSH2 0x1A08 PUSH2 0x1155 JUMP JUMPDEST POP PUSH1 0x40 DUP1 DUP1 MLOAD PUSH2 0x1A17 DUP2 PUSH2 0x878 JUMP JUMPDEST CALLDATASIZE SWAP1 CALLDATACOPY DUP3 MLOAD SWAP3 PUSH1 0xFF DUP5 GT PUSH2 0x1C6A JUMPI PUSH1 0xFF PUSH2 0x1A2F PUSH2 0x2BDA JUMP JUMPDEST SWAP5 AND SWAP4 DUP3 MLOAD SWAP1 DUP2 PUSH2 0x1A48 DUP8 DUP6 PUSH1 0x20 SWAP9 DUP10 DUP6 ADD SWAP6 DUP7 PUSH2 0x2C29 JUMP JUMPDEST SUB SWAP2 PUSH2 0x1A7A PUSH32 0xFFFFFFFFFFFFFFFFFFFFFFFFFFFFFFFFFFFFFFFFFFFFFFFFFFFFFFFFFFFFFFE0 SWAP4 DUP5 DUP2 ADD DUP4 MSTORE DUP3 PUSH2 0x8CC JUMP JUMPDEST MLOAD SWAP1 KECCAK256 SWAP2 DUP4 MLOAD DUP6 DUP2 ADD SWAP1 PUSH2 0x1AA0 DUP2 PUSH2 0x1A94 DUP11 DUP7 DUP10 DUP8 PUSH2 0x2CBB JUMP JUMPDEST SUB DUP6 DUP2 ADD DUP4 MSTORE DUP3 PUSH2 0x8CC JUMP JUMPDEST MLOAD SWAP1 KECCAK256 SWAP6 PUSH2 0x1AAC PUSH2 0x2BF5 JUMP JUMPDEST SWAP4 PUSH1 0x1 SWAP3 PUSH1 0x1 SWAP5 JUMPDEST PUSH1 0x3 DUP7 LT PUSH2 0x1BF5 JUMPI POP POP POP POP POP POP PUSH2 0x1B5B DUP2 DUP6 PUSH1 0x60 PUSH2 0x1B62 SWAP5 ADD MSTORE PUSH24 0xFFFFFFFFFFFFFFFFFFFFFFFFFFFFFFFFFFFFFFFFFFFFFFFF DUP1 PUSH1 0x18 DUP4 ADD MLOAD AND SWAP1 PUSH32 0x30644E72E131A029B85045B68181585D97816A916871CA8D3C208C16D87CFD47 DUP1 SWAP3 DUP3 PUSH1 0x48 DUP4 DUP3 PUSH1 0x30 DUP10 ADD MLOAD AND DUP2 PUSH25 0x1000000000000000000000000000000000000000000000000 DUP1 SWAP7 MULMOD ADDMOD SWAP7 ADD MLOAD AND SWAP3 DUP10 PUSH2 0x1B4B PUSH2 0xA4B JUMP JUMPDEST DUP8 DUP2 MSTORE ADD SWAP11 AND SWAP3 MULMOD ADDMOD DUP7 MSTORE PUSH2 0x285F JUMP JUMPDEST SWAP4 MLOAD PUSH2 0x285F JUMP JUMPDEST SWAP2 PUSH2 0x1B6B PUSH2 0x1141 JUMP JUMPDEST SWAP3 DUP5 MLOAD DUP5 MSTORE DUP2 DUP6 ADD MLOAD DUP3 DUP6 ADD MSTORE DUP1 MLOAD DUP4 DUP6 ADD MSTORE ADD MLOAD PUSH1 0x60 DUP4 ADD MSTORE PUSH2 0x1BB7 DUP2 DUP5 PUSH1 0x80 DUP6 PUSH1 0x6 PUSH32 0xFFFFFFFFFFFFFFFFFFFFFFFFFFFFFFFFFFFFFFFFFFFFFFFFFFFFFFFFFFFFF830 GAS ADD STATICCALL ISZERO SWAP1 JUMP JUMPDEST PUSH2 0x1BC0 JUMPI POP POP SWAP1 JUMP JUMPDEST PUSH2 0x161E SWAP3 POP MLOAD SWAP2 DUP3 SWAP2 PUSH32 0x128E3F0800000000000000000000000000000000000000000000000000000000 DUP4 MSTORE PUSH1 0x4 DUP4 ADD PUSH2 0x19D1 JUMP JUMPDEST SWAP1 SWAP2 SWAP3 SWAP4 DUP4 DUP4 DUP8 SWAP12 DUP12 PUSH32 0xFFFFFFFFFFFFFFFFFFFFFFFFFFFFFFFFFFFFFFFFFFFFFFFFFFFFFFFFFFFFFFFF DUP11 PUSH2 0x1C53 DUP15 PUSH2 0x1C47 DUP14 DUP11 SWAP16 PUSH2 0x1427 PUSH2 0x1C36 SWAP2 PUSH2 0x1786 JUMP JUMPDEST SWAP3 MLOAD SWAP9 DUP10 SWAP4 DUP10 DUP10 DUP7 ADD SWAP13 XOR DUP13 PUSH2 0x2D2D JUMP JUMPDEST SUB DUP10 DUP2 ADD DUP8 MSTORE DUP7 PUSH2 0x8CC JUMP JUMPDEST ADD PUSH1 0x5 SHL DUP12 ADD ADD MSTORE MLOAD SWAP1 KECCAK256 SWAP10 ADD SWAP5 SWAP4 SWAP3 SWAP2 SWAP1 PUSH2 0x1AB4 JUMP JUMPDEST PUSH2 0x161E SWAP2 MLOAD SWAP2 DUP3 SWAP2 PUSH32 0x26E4F9BA00000000000000000000000000000000000000000000000000000000 DUP4 MSTORE PUSH1 0x4 DUP4 ADD PUSH2 0x2BC9 JUMP JUMPDEST PUSH1 0xFF AND PUSH1 0xFF DUP2 EQ PUSH2 0x1773 JUMPI PUSH1 0x1 ADD SWAP1 JUMP JUMPDEST PUSH1 0x5 DUP2 LT ISZERO PUSH2 0xEC3 JUMPI PUSH1 0x2 SHL SWAP1 PUSH1 0x0 SWAP1 JUMP JUMPDEST PUSH1 0xFF PUSH1 0x1 SWAP2 AND ADD SWAP1 PUSH1 0xFF DUP3 GT PUSH2 0x1773 JUMPI JUMP JUMPDEST PUSH2 0x1CDB PUSH2 0x1141 JUMP JUMPDEST PUSH1 0x0 DUP1 JUMPDEST PUSH1 0xFF DUP1 DUP3 AND PUSH1 0x5 DUP2 LT ISZERO PUSH2 0x1DAA JUMPI PUSH1 0x1 SWAP1 SHL DUP6 AND AND PUSH2 0x1D07 JUMPI JUMPDEST PUSH2 0x1D02 SWAP1 PUSH2 0x1C9E JUMP JUMPDEST PUSH2 0x1CDF JUMP JUMPDEST SWAP1 PUSH2 0x1DA2 PUSH2 0x1D02 SWAP2 DUP5 MLOAD PUSH1 0x20 DUP7 ADD DUP1 MLOAD SWAP1 PUSH2 0x1D93 PUSH1 0x40 DUP10 ADD SWAP4 DUP9 DUP6 MLOAD SWAP5 PUSH1 0x60 DUP13 ADD SWAP6 DUP7 MLOAD PUSH2 0x1D34 DUP5 PUSH2 0x1CAF JUMP JUMPDEST POP SLOAD SWAP2 PUSH2 0x1D5A PUSH2 0x1D50 PUSH2 0x1D46 DUP8 PUSH2 0x1CAF JUMP JUMPDEST POP PUSH1 0x1 ADD SWAP1 PUSH1 0x0 SWAP1 JUMP JUMPDEST SWAP1 SLOAD SWAP1 PUSH1 0x3 SHL SHR SWAP1 JUMP JUMPDEST SWAP4 PUSH2 0x1D8D PUSH2 0x1D50 PUSH2 0x1D83 PUSH2 0x1D7D PUSH2 0x1D50 PUSH2 0x1D73 DUP12 PUSH2 0x1CAF JUMP JUMPDEST POP PUSH1 0x2 ADD SWAP1 PUSH1 0x0 SWAP1 JUMP JUMPDEST SWAP9 PUSH2 0x1CAF JUMP JUMPDEST POP PUSH1 0x3 ADD SWAP1 PUSH1 0x0 SWAP1 JUMP JUMPDEST SWAP7 PUSH2 0x2A93 JUMP JUMPDEST SWAP1 SWAP3 SWAP6 SWAP2 SWAP5 MSTORE MSTORE MSTORE DUP6 MSTORE PUSH2 0x1CC1 JUMP JUMPDEST SWAP2 SWAP1 POP PUSH2 0x1CF9 JUMP JUMPDEST POP POP POP SWAP3 SWAP2 POP SWAP2 SWAP1 JUMP JUMPDEST PUSH1 0x40 PUSH1 0x20 SWAP3 DUP4 PUSH2 0x180 SWAP7 SWAP6 DUP2 PUSH2 0x1DC8 PUSH2 0xA58 JUMP JUMPDEST SWAP6 DUP1 MLOAD DUP8 MSTORE ADD MLOAD DUP3 DUP7 ADD MSTORE PUSH32 0x198E9393920D483A7260BFB731FB5D25F1AA493335A9E71297E485B7AEF312C2 DUP5 DUP7 ADD MSTORE PUSH32 0x1800DEEF121F1E76426A00665E5C4479674322D4F75EDADD46DEBD5CD992F6ED PUSH1 0x60 DUP7 ADD MSTORE PUSH32 0x275DC4A288D1AFB3CBB1AC09187524C7DB36395DF7BE3B99E673B13A075A65EC PUSH1 0x80 DUP7 ADD MSTORE PUSH32 0x1D9BEFCD05A5323E6DA4D435F3B617CDB3AF83285C2DF711EF39C01571827F9D PUSH1 0xA0 DUP7 ADD MSTORE DUP1 MLOAD PUSH1 0xC0 DUP7 ADD MSTORE ADD MLOAD PUSH1 0xE0 DUP5 ADD MSTORE DUP4 DUP2 ADD MLOAD PUSH2 0x100 DUP5 ADD MSTORE DUP1 MLOAD PUSH2 0x120 DUP5 ADD MSTORE PUSH1 0x60 DUP2 ADD MLOAD PUSH2 0x140 DUP5 ADD MSTORE ADD MLOAD PUSH2 0x160 DUP3 ADD MSTORE PUSH2 0x1EA5 PUSH2 0x1169 JUMP JUMPDEST SWAP4 DUP5 SWAP2 PUSH1 0x8 PUSH32 0xFFFFFFFFFFFFFFFFFFFFFFFFFFFFFFFFFFFFFFFFFFFFFFFFFFFFFFFFFFFFF830 GAS ADD STATICCALL SWAP2 MLOAD ISZERO ISZERO SWAP2 SWAP1 JUMP JUMPDEST SWAP2 PUSH1 0x0 JUMPDEST DUP4 SLOAD DUP2 LT ISZERO PUSH2 0x1F4C JUMPI PUSH2 0x1EED DUP2 DUP6 PUSH2 0xEA7 JUMP JUMPDEST POP DUP3 DUP5 PUSH1 0xFF DUP4 SLOAD AND PUSH2 0x1EFE DUP3 PUSH2 0x12D JUMP JUMPDEST PUSH2 0x1F07 DUP2 PUSH2 0x12D JUMP JUMPDEST EQ SWAP2 DUP3 PUSH2 0x1F24 JUMPI JUMPDEST POP POP PUSH2 0x1F1D JUMPI PUSH1 0x1 ADD PUSH2 0x1EDA JUMP JUMPDEST SWAP3 POP POP POP SWAP1 JUMP JUMPDEST PUSH1 0x1 SWAP2 SWAP3 POP PUSH2 0x1F3D SWAP1 PUSH2 0x1581 PUSH1 0x40 MLOAD DUP1 SWAP5 DUP2 SWAP4 ADD PUSH2 0x774 JUMP JUMPDEST PUSH1 0x20 DUP2 MLOAD SWAP2 ADD KECCAK256 EQ DUP3 CODESIZE PUSH2 0x1F0F JUMP JUMPDEST PUSH1 0x40 MLOAD PUSH32 0x8C379A000000000000000000000000000000000000000000000000000000000 DUP2 MSTORE PUSH1 0x20 PUSH1 0x4 DUP3 ADD MSTORE PUSH1 0x15 PUSH1 0x24 DUP3 ADD MSTORE PUSH32 0x4143433A20706F6C696379206E6F7420666F756E640000000000000000000000 PUSH1 0x44 DUP3 ADD MSTORE PUSH1 0x64 SWAP1 REVERT JUMPDEST PUSH1 0x20 DUP1 SWAP4 PUSH2 0x1FCB DUP3 PUSH2 0x1FD9 SWAP5 PUSH2 0x1FCB PUSH1 0x40 SWAP12 SWAP10 SWAP8 DUP3 DUP2 MLOAD SWAP5 DUP6 SWAP3 ADD PUSH2 0x166 JUMP JUMPDEST ADD SWAP2 DUP3 DUP2 MLOAD SWAP5 DUP6 SWAP3 ADD PUSH2 0x166 JUMP JUMPDEST ADD SWAP2 DUP3 MSTORE PUSH1 0x20 DUP3 ADD MSTORE ADD SWAP1 JUMP JUMPDEST PUSH2 0x1445 PUSH2 0xA3C SWAP2 PUSH2 0x2085 PUSH1 0xA0 PUSH2 0x2052 PUSH1 0x20 DUP5 ADD MLOAD PUSH2 0x13E6 PUSH1 0x40 DUP7 ADD MLOAD SWAP2 PUSH2 0x2026 PUSH1 0x60 DUP9 ADD MLOAD PUSH1 0x80 DUP10 ADD MLOAD PUSH1 0x40 DUP11 MLOAD ADD MLOAD SWAP2 PUSH1 0x40 MLOAD SWAP7 DUP8 SWAP6 PUSH1 0x20 DUP8 ADD PUSH2 0x1FAB JUMP JUMPDEST SUB PUSH32 0xFFFFFFFFFFFFFFFFFFFFFFFFFFFFFFFFFFFFFFFFFFFFFFFFFFFFFFFFFFFFFFE0 DUP2 ADD DUP4 MSTORE DUP3 PUSH2 0x8CC JUMP JUMPDEST SWAP3 PUSH2 0x205B PUSH2 0x1141 JUMP JUMPDEST POP PUSH2 0x206D PUSH2 0x140C PUSH1 0xC0 DUP4 ADD MLOAD PUSH1 0xFF AND SWAP1 JUMP JUMPDEST PUSH1 0xFF PUSH2 0x142D PUSH2 0x1427 PUSH1 0x20 DUP7 SWAP9 SWAP6 SWAP9 MLOAD ADD PUSH1 0xFF SWAP1 MLOAD AND SWAP1 JUMP JUMPDEST ADD MLOAD PUSH2 0x1DB4 JUMP JUMPDEST SWAP1 PUSH32 0x30644E72E131A029B85045B68181585D97816A916871CA8D3C208C16D87CFD47 SWAP2 DUP3 SUB SWAP2 DUP3 GT PUSH2 0x1773 JUMPI JUMP JUMPDEST SWAP2 SWAP1 SWAP2 DUP3 DUP2 EQ PUSH2 0x21FD JUMPI PUSH2 0x20CE DUP4 SLOAD PUSH2 0x721 JUMP JUMPDEST PUSH8 0xFFFFFFFFFFFFFFFF DUP2 GT PUSH2 0x873 JUMPI PUSH2 0x20F1 DUP2 PUSH2 0x20EB DUP5 SLOAD PUSH2 0x721 JUMP JUMPDEST DUP5 PUSH2 0xF16 JUMP JUMPDEST PUSH1 0x0 SWAP4 PUSH1 0x1F DUP3 GT PUSH1 0x1 EQ PUSH2 0x214B JUMPI PUSH2 0x101E SWAP3 SWAP4 SWAP5 DUP3 SWAP2 PUSH1 0x0 SWAP3 PUSH2 0x2140 JUMPI POP POP PUSH32 0xFFFFFFFFFFFFFFFFFFFFFFFFFFFFFFFFFFFFFFFFFFFFFFFFFFFFFFFFFFFFFFFF DUP3 PUSH1 0x1 SHL SWAP3 PUSH1 0x3 SHL SHR NOT AND OR SWAP1 JUMP JUMPDEST ADD SLOAD SWAP1 POP CODESIZE DUP1 PUSH2 0xFEC JUMP JUMPDEST PUSH2 0x217D PUSH32 0xFFFFFFFFFFFFFFFFFFFFFFFFFFFFFFFFFFFFFFFFFFFFFFFFFFFFFFFFFFFFFFE0 DUP4 AND SWAP2 PUSH1 0x0 MSTORE PUSH1 0x20 PUSH1 0x0 KECCAK256 SWAP1 JUMP JUMPDEST SWAP5 PUSH2 0x218D DUP5 PUSH1 0x0 MSTORE PUSH1 0x20 PUSH1 0x0 KECCAK256 SWAP1 JUMP JUMPDEST SWAP2 DUP2 JUMPDEST DUP2 DUP2 LT PUSH2 0x21E5 JUMPI POP SWAP6 DUP4 PUSH1 0x1 SWAP6 SWAP7 SWAP8 LT PUSH2 0x21AE JUMPI POP POP POP DUP2 SHL ADD SWAP1 SSTORE JUMP JUMPDEST ADD SLOAD PUSH32 0xFFFFFFFFFFFFFFFFFFFFFFFFFFFFFFFFFFFFFFFFFFFFFFFFFFFFFFFFFFFFFFFF PUSH1 0xF8 DUP5 PUSH1 0x3 SHL AND SHR NOT AND SWAP1 SSTORE CODESIZE DUP1 DUP1 PUSH2 0x107F JUMP JUMPDEST DUP8 DUP4 ADD SLOAD DUP5 SSTORE PUSH1 0x1 SWAP4 DUP5 ADD SWAP4 SWAP1 SWAP3 ADD SWAP2 PUSH1 0x20 ADD PUSH2 0x2190 JUMP JUMPDEST POP SWAP1 POP JUMP JUMPDEST SWAP1 PUSH2 0x10D7 JUMPI PUSH1 0x1 PUSH1 0x0 SWAP2 DUP3 DUP2 SSTORE ADD PUSH2 0x221A DUP2 SLOAD PUSH2 0x721 JUMP JUMPDEST DUP1 PUSH2 0x2224 JUMPI POP POP POP JUMP JUMPDEST DUP3 PUSH1 0x1F DUP3 GT PUSH1 0x1 EQ PUSH2 0x2235 JUMPI POP POP SSTORE JUMP JUMPDEST SWAP1 SWAP2 DUP1 DUP3 MSTORE PUSH2 0x2253 PUSH1 0x1F PUSH1 0x20 DUP5 KECCAK256 SWAP5 ADD PUSH1 0x5 SHR DUP5 ADD PUSH1 0x1 DUP6 ADD PUSH2 0xEFF JUMP JUMPDEST SSTORE SSTORE JUMP JUMPDEST DUP1 SLOAD SWAP1 PUSH1 0x0 SWAP2 DUP3 DUP3 SSTORE DUP1 PUSH2 0x227A JUMPI JUMPDEST POP DUP1 DUP3 PUSH1 0x1 PUSH1 0x3 SWAP4 ADD SSTORE DUP3 PUSH1 0x2 DUP3 ADD SSTORE ADD SSTORE JUMP JUMPDEST PUSH1 0x1 PUSH32 0x7FFFFFFFFFFFFFFFFFFFFFFFFFFFFFFFFFFFFFFFFFFFFFFFFFFFFFFFFFFFFFFF DUP3 AND DUP3 SUB PUSH2 0x1773 JUMPI DUP3 DUP5 MSTORE PUSH1 0x20 DUP1 DUP6 KECCAK256 SWAP3 PUSH1 0x1 SHL DUP4 ADD SWAP3 JUMPDEST DUP4 DUP2 LT PUSH2 0x22C4 JUMPI POP POP POP PUSH2 0x2266 JUMP JUMPDEST DUP1 DUP7 PUSH1 0x2 SWAP3 SSTORE DUP7 DUP5 DUP3 ADD PUSH2 0x22D8 DUP2 SLOAD PUSH2 0x721 JUMP JUMPDEST DUP1 PUSH2 0x22E7 JUMPI JUMPDEST POP POP POP ADD PUSH2 0x22B5 JUMP JUMPDEST DUP7 PUSH1 0x1F DUP1 DUP4 GT PUSH1 0x1 EQ PUSH2 0x2301 JUMPI POP POP POP SSTORE JUMPDEST DUP7 CODESIZE DUP1 PUSH2 0x22DE JUMP JUMPDEST SWAP4 DUP4 SWAP1 MSTORE DUP7 DUP12 KECCAK256 PUSH2 0x232D SWAP5 PUSH2 0x231D SWAP4 ADD PUSH1 0x5 SHR DUP2 ADD SWAP2 ADD PUSH2 0xEFF JUMP JUMPDEST PUSH1 0x0 SWAP1 DUP1 DUP3 MSTORE DUP2 PUSH1 0x20 DUP2 KECCAK256 SWAP2 SSTORE SSTORE JUMP JUMPDEST PUSH2 0x22F9 JUMP JUMPDEST SWAP1 DUP2 SLOAD SWAP1 PUSH32 0xFFFFFFFFFFFFFFFFFFFFFFFFFFFFFFFFFFFFFFFFFFFFFFFFFFFFFFFFFFFFFFFF SWAP2 DUP3 DUP2 ADD SWAP1 DUP2 GT PUSH2 0x1773 JUMPI DUP1 DUP3 SUB PUSH2 0x23F0 JUMPI JUMPDEST POP POP DUP2 SLOAD SWAP1 DUP2 ISZERO PUSH2 0x23C1 JUMPI PUSH1 0x2 SWAP2 ADD SWAP2 PUSH2 0x238D PUSH2 0x2387 DUP5 DUP4 PUSH2 0xEA7 JUMP JUMPDEST SWAP1 PUSH2 0x2202 JUMP JUMPDEST DUP3 DUP2 SSTORE ADD PUSH2 0x239B DUP2 SLOAD PUSH2 0x1778 JUMP JUMPDEST SWAP1 SSTORE ISZERO PUSH2 0x23A5 JUMPI POP JUMP JUMPDEST PUSH2 0x23BC PUSH2 0xA3C SWAP2 PUSH1 0x0 MSTORE PUSH1 0x15 PUSH1 0x20 MSTORE PUSH1 0x40 PUSH1 0x0 KECCAK256 SWAP1 JUMP JUMPDEST PUSH2 0x2257 JUMP JUMPDEST PUSH32 0x4E487B7100000000000000000000000000000000000000000000000000000000 PUSH1 0x0 MSTORE PUSH1 0x31 PUSH1 0x4 MSTORE PUSH1 0x24 PUSH1 0x0 REVERT JUMPDEST PUSH2 0x23FD PUSH2 0x2405 SWAP2 DUP6 PUSH2 0xEA7 JUMP JUMPDEST POP SWAP2 DUP5 PUSH2 0xEA7 JUMP JUMPDEST PUSH2 0x10D7 JUMPI DUP1 DUP3 EQ PUSH2 0x236A JUMPI PUSH1 0x1 DUP1 DUP4 PUSH2 0x2425 PUSH1 0xFF PUSH2 0x242D SWAP7 SLOAD AND DUP6 PUSH2 0xEC8 JUMP JUMPDEST ADD SWAP2 ADD PUSH2 0x20BA JUMP JUMPDEST CODESIZE DUP1 PUSH2 0x236A JUMP JUMPDEST SWAP1 DUP2 PUSH1 0x20 SWAP2 SUB SLT PUSH2 0x128 JUMPI MLOAD PUSH1 0x3 DUP2 LT ISZERO PUSH2 0x128 JUMPI SWAP1 JUMP JUMPDEST SWAP1 DUP2 PUSH1 0x20 SWAP2 SUB SLT PUSH2 0x128 JUMPI MLOAD DUP1 ISZERO ISZERO DUP2 SUB PUSH2 0x128 JUMPI SWAP1 JUMP JUMPDEST SWAP2 SWAP1 PUSH1 0x40 DUP4 MSTORE PUSH1 0x0 PUSH1 0x16 SLOAD SWAP1 PUSH2 0x2479 DUP3 PUSH2 0x721 JUMP JUMPDEST SWAP2 DUP3 PUSH1 0x40 DUP8 ADD MSTORE PUSH1 0x60 PUSH1 0x1 SWAP2 PUSH1 0x1 DUP2 AND SWAP1 DUP2 PUSH1 0x0 EQ PUSH2 0x250A JUMPI POP PUSH1 0x1 EQ PUSH2 0x24AF JUMPI JUMPDEST POP POP PUSH1 0x20 SWAP2 POP SWAP4 PUSH2 0x24AB DUP4 PUSH2 0x12D JUMP JUMPDEST ADD MSTORE JUMP JUMPDEST PUSH1 0x16 PUSH1 0x0 SWAP1 DUP2 MSTORE SWAP4 SWAP3 POP PUSH32 0xD833147D7DC355BA459FC788F669E58CFAF9DC25DDCD0702E87D69C7B5124289 JUMPDEST DUP4 DUP6 LT PUSH2 0x24F5 JUMPI POP POP POP POP PUSH1 0x60 PUSH1 0x20 SWAP2 DUP6 ADD ADD CODESIZE DUP1 PUSH2 0x249B JUMP JUMPDEST DUP1 SLOAD DUP6 DUP10 ADD DUP4 ADD MSTORE PUSH1 0x20 SWAP1 SWAP5 ADD SWAP4 DUP3 ADD PUSH2 0x24DB JUMP JUMPDEST SWAP1 POP PUSH1 0x60 SWAP4 POP PUSH1 0x20 SWAP5 SWAP3 POP PUSH32 0xFFFFFFFFFFFFFFFFFFFFFFFFFFFFFFFFFFFFFFFFFFFFFFFFFFFFFFFFFFFFFF00 SWAP2 POP AND DUP3 DUP8 ADD MSTORE ISZERO ISZERO PUSH1 0x5 SHL DUP6 ADD ADD CODESIZE DUP1 PUSH2 0x249B JUMP JUMPDEST PUSH1 0x40 MLOAD RETURNDATASIZE PUSH1 0x0 DUP3 RETURNDATACOPY RETURNDATASIZE SWAP1 REVERT JUMPDEST MLOAD SWAP1 PUSH4 0xFFFFFFFF DUP3 AND DUP3 SUB PUSH2 0x128 JUMPI JUMP JUMPDEST SWAP1 DUP2 PUSH1 0x80 SWAP2 SUB SLT PUSH2 0x128 JUMPI PUSH2 0x25AB PUSH1 0x60 PUSH1 0x40 MLOAD SWAP3 PUSH2 0x2586 DUP5 PUSH2 0x857 JUMP JUMPDEST DUP1 MLOAD DUP5 MSTORE PUSH1 0x20 DUP2 ADD MLOAD PUSH1 0x20 DUP6 ADD MSTORE PUSH2 0x25A0 PUSH1 0x40 DUP3 ADD PUSH2 0x2558 JUMP JUMPDEST PUSH1 0x40 DUP6 ADD MSTORE ADD PUSH2 0x2558 JUMP JUMPDEST PUSH1 0x60 DUP3 ADD MSTORE SWAP1 JUMP JUMPDEST SWAP5 SWAP1 SWAP4 PUSH2 0x25C3 SWAP4 PUSH2 0x12CE SWAP4 PUSH2 0x1881 JUMP JUMPDEST SWAP2 PUSH2 0x25D5 PUSH2 0x1375 PUSH1 0x3 DUP6 ADD SLOAD PUSH1 0xFF AND SWAP1 JUMP JUMPDEST PUSH2 0x2857 JUMPI PUSH1 0x0 JUMPDEST DUP4 SLOAD DUP2 LT ISZERO PUSH2 0x284E JUMPI PUSH2 0x25EF DUP2 DUP6 PUSH2 0xEA7 JUMP JUMPDEST POP DUP1 SLOAD PUSH1 0xFF AND PUSH2 0x25FE DUP2 PUSH2 0x12D JUMP JUMPDEST DUP1 PUSH2 0x26FF JUMPI POP PUSH1 0x1 PUSH2 0x2610 SWAP2 ADD PUSH2 0x14E3 JUMP JUMPDEST PUSH2 0x268B DUP2 MLOAD PUSH2 0x2629 PUSH1 0x20 SWAP4 DUP5 DUP1 DUP1 SWAP5 DUP4 ADD ADD SWAP2 ADD PUSH2 0x2569 JUMP JUMPDEST PUSH1 0x40 MLOAD DUP1 SWAP4 DUP2 SWAP3 PUSH32 0x28F0ED1800000000000000000000000000000000000000000000000000000000 DUP4 MSTORE PUSH1 0x4 DUP4 ADD SWAP2 SWAP1 SWAP2 PUSH1 0x60 PUSH1 0x80 DUP3 ADD SWAP4 DUP1 MLOAD DUP4 MSTORE PUSH1 0x20 DUP2 ADD MLOAD PUSH1 0x20 DUP5 ADD MSTORE DUP2 PUSH1 0x40 DUP3 ADD MLOAD SWAP2 PUSH4 0xFFFFFFFF DUP1 SWAP4 AND PUSH1 0x40 DUP7 ADD MSTORE ADD MLOAD AND SWAP2 ADD MSTORE JUMP JUMPDEST SUB DUP2 PUSH20 0x0 GAS DELEGATECALL SWAP2 DUP3 ISZERO PUSH2 0x26FA JUMPI PUSH1 0x0 SWAP3 PUSH2 0x26CD JUMPI JUMPDEST POP POP ISZERO PUSH2 0x26C4 JUMPI PUSH1 0x1 SWAP1 JUMPDEST ADD PUSH2 0x25DC JUMP JUMPDEST POP POP POP POP PUSH1 0x0 SWAP1 JUMP JUMPDEST PUSH2 0x26EC SWAP3 POP DUP1 RETURNDATASIZE LT PUSH2 0x26F3 JUMPI JUMPDEST PUSH2 0x26E4 DUP2 DUP4 PUSH2 0x8CC JUMP JUMPDEST DUP2 ADD SWAP1 PUSH2 0x244C JUMP JUMPDEST CODESIZE DUP1 PUSH2 0x26B3 JUMP JUMPDEST POP RETURNDATASIZE PUSH2 0x26DA JUMP JUMPDEST PUSH2 0x254C JUMP JUMPDEST PUSH2 0x2708 DUP2 PUSH2 0x12D JUMP JUMPDEST PUSH1 0x1 SWAP1 DUP1 DUP3 SUB PUSH2 0x2734 JUMPI POP POP POP PUSH2 0x2720 CALLDATASIZE DUP5 DUP5 PUSH2 0xA79 JUMP JUMPDEST PUSH1 0x20 DUP2 MLOAD SWAP2 ADD KECCAK256 ISZERO PUSH2 0x26C4 JUMPI PUSH1 0x1 SWAP1 PUSH2 0x26BE JUMP JUMPDEST DUP1 PUSH2 0x2740 PUSH1 0x2 SWAP3 PUSH2 0x12D JUMP JUMPDEST SUB PUSH2 0x27EF JUMPI PUSH2 0x274F SWAP2 ADD PUSH2 0x14E3 JUMP JUMPDEST PUSH2 0x279B DUP2 MLOAD PUSH2 0x2768 PUSH1 0x20 SWAP4 DUP5 DUP1 DUP1 SWAP5 DUP4 ADD ADD SWAP2 ADD PUSH2 0x2434 JUMP JUMPDEST PUSH1 0x40 MLOAD DUP1 SWAP4 DUP2 SWAP3 PUSH32 0x7E2157CB00000000000000000000000000000000000000000000000000000000 DUP4 MSTORE PUSH1 0x4 DUP4 ADD PUSH2 0x2464 JUMP JUMPDEST SUB DUP2 PUSH20 0x0 GAS DELEGATECALL SWAP2 DUP3 ISZERO PUSH2 0x26FA JUMPI PUSH1 0x0 SWAP3 PUSH2 0x27D2 JUMPI JUMPDEST POP POP ISZERO PUSH2 0x26C4 JUMPI PUSH1 0x1 SWAP1 PUSH2 0x26BE JUMP JUMPDEST PUSH2 0x27E8 SWAP3 POP DUP1 RETURNDATASIZE LT PUSH2 0x26F3 JUMPI PUSH2 0x26E4 DUP2 DUP4 PUSH2 0x8CC JUMP JUMPDEST CODESIZE DUP1 PUSH2 0x27C3 JUMP JUMPDEST PUSH1 0x40 MLOAD PUSH32 0x8C379A000000000000000000000000000000000000000000000000000000000 DUP2 MSTORE PUSH1 0x20 PUSH1 0x4 DUP3 ADD MSTORE PUSH1 0x18 PUSH1 0x24 DUP3 ADD MSTORE PUSH32 0x4143433A20756E6B6E6F776E20706F6C69637920747970650000000000000000 PUSH1 0x44 DUP3 ADD MSTORE PUSH1 0x64 SWAP1 REVERT JUMPDEST POP POP POP POP PUSH1 0x1 SWAP1 JUMP JUMPDEST POP POP POP PUSH1 0x1 SWAP1 JUMP JUMPDEST SWAP1 PUSH2 0x2868 PUSH2 0x1155 JUMP JUMPDEST SWAP2 PUSH32 0x30644E72E131A029B85045B68181585D97816A916871CA8D3C208C16D87CFD47 DUP1 DUP3 LT ISZERO PUSH2 0x2A2B JUMPI DUP1 PUSH1 0x4 DUP2 DUP5 DUP1 MULMOD MULMOD SWAP1 PUSH1 0x1 SWAP2 DUP2 PUSH2 0x28AC DUP2 DUP4 DUP7 ADDMOD SWAP3 PUSH2 0x208C JUMP JUMPDEST DUP5 ADDMOD SWAP1 DUP3 DUP1 DUP1 DUP1 DUP1 PUSH25 0x16789AF3A83522EB353C98FC6B36D713D5D8D1CC5DFFFFFFA DUP2 DUP12 DUP2 PUSH2 0x28DD DUP2 DUP12 DUP14 MULMOD PUSH2 0x3971 JUMP JUMPDEST SWAP11 DUP12 SWAP3 MULMOD MULMOD MULMOD SWAP6 DUP2 DUP1 PUSH2 0x28EF DUP10 PUSH2 0x208C JUMP JUMPDEST SWAP9 DUP2 PUSH32 0x183227397098D014DC2822DB40C0AC2ECBC0B548B438E5469E10460B6C3E7EA3 SWAP11 DUP12 ADDMOD SWAP10 ADDMOD SWAP7 DUP1 MULMOD MULMOD DUP1 MULMOD PUSH32 0x10216F7BA065E00DE81AC1E7808072C9DD2B2385CD7B438469602EB24829A9BD MULMOD DUP6 ADDMOD SWAP1 DUP4 PUSH1 0x3 DUP2 DUP6 DUP2 DUP2 DUP1 MULMOD MULMOD ADDMOD SWAP4 DUP6 PUSH2 0x2958 DUP7 PUSH2 0x2D74 JUMP JUMPDEST PUSH1 0x0 SIGNEXTEND SUB PUSH2 0x29D1 JUMPI POP POP POP DUP6 MSTORE PUSH2 0x296E DUP2 PUSH2 0x2EA2 JUMP JUMPDEST SWAP1 PUSH1 0x20 DUP8 ADD MSTORE ISZERO PUSH2 0x299E JUMPI POP JUMPDEST PUSH1 0x20 DUP5 ADD SWAP2 DUP3 MLOAD SWAP2 DUP1 DUP4 AND SWAP2 AND SUB PUSH2 0x2991 JUMPI POP POP JUMP JUMPDEST PUSH2 0x299A SWAP1 PUSH2 0x208C JUMP JUMPDEST SWAP1 MSTORE JUMP JUMPDEST PUSH1 0x40 MLOAD PUSH32 0x396EC77100000000000000000000000000000000000000000000000000000000 DUP2 MSTORE PUSH1 0x4 DUP2 ADD SWAP2 SWAP1 SWAP2 MSTORE PUSH1 0x24 SWAP1 REVERT JUMPDEST SWAP2 SWAP4 POP SWAP2 POP DUP1 PUSH1 0x3 DUP2 DUP5 DUP2 DUP2 DUP1 MULMOD MULMOD ADDMOD SWAP3 DUP5 PUSH2 0x29EC DUP6 PUSH2 0x2D74 JUMP JUMPDEST PUSH1 0x0 SIGNEXTEND SUB PUSH2 0x2A12 JUMPI POP POP DUP6 MSTORE PUSH2 0x2A01 DUP2 PUSH2 0x2EA2 JUMP JUMPDEST SWAP1 PUSH1 0x20 DUP8 ADD MSTORE ISZERO PUSH2 0x299E JUMPI POP PUSH2 0x297B JUMP JUMPDEST DUP2 SWAP4 POP PUSH1 0x3 SWAP3 POP DUP1 DUP9 MSTORE DUP2 DUP2 DUP1 MULMOD MULMOD ADDMOD PUSH2 0x2A01 DUP2 PUSH2 0x2EA2 JUMP JUMPDEST PUSH1 0x40 MLOAD PUSH32 0xD53E941500000000000000000000000000000000000000000000000000000000 DUP2 MSTORE PUSH1 0x4 DUP2 ADD DUP4 SWAP1 MSTORE PUSH1 0x24 SWAP1 REVERT JUMPDEST ISZERO PUSH2 0x2A64 JUMPI JUMP JUMPDEST PUSH32 0x4E487B7100000000000000000000000000000000000000000000000000000000 PUSH1 0x0 MSTORE PUSH1 0x1 PUSH1 0x4 MSTORE PUSH1 0x24 PUSH1 0x0 REVERT JUMPDEST SWAP8 SWAP5 SWAP8 SWAP7 SWAP6 SWAP7 DUP1 ISZERO DUP1 PUSH2 0x2BC1 JUMPI JUMPDEST DUP1 PUSH2 0x2BB9 JUMPI JUMPDEST DUP1 PUSH2 0x2BB1 JUMPI JUMPDEST ISZERO PUSH2 0x2B07 JUMPI POP POP POP POP DUP1 ISZERO DUP1 PUSH2 0x2AFF JUMPI JUMPDEST DUP1 PUSH2 0x2AF7 JUMPI JUMPDEST DUP1 PUSH2 0x2AEF JUMPI JUMPDEST ISZERO PUSH2 0x2AD6 JUMPI JUMPDEST SWAP4 SWAP3 SWAP2 SWAP1 JUMP JUMPDEST PUSH2 0x2AEA PUSH2 0x2AE5 DUP5 DUP7 DUP9 DUP6 PUSH2 0x3604 JUMP JUMPDEST PUSH2 0x2A5D JUMP JUMPDEST PUSH2 0x2AD0 JUMP JUMPDEST POP DUP3 ISZERO PUSH2 0x2ACA JUMP JUMPDEST POP DUP4 ISZERO PUSH2 0x2AC4 JUMP JUMPDEST POP DUP5 ISZERO PUSH2 0x2ABE JUMP JUMPDEST DUP5 SWAP9 SWAP6 SWAP9 SWAP8 SWAP7 SWAP8 ISZERO DUP1 PUSH2 0x2BA9 JUMPI JUMPDEST DUP1 PUSH2 0x2BA1 JUMPI JUMPDEST DUP1 PUSH2 0x2B99 JUMPI JUMPDEST PUSH2 0x2B81 JUMPI SWAP2 PUSH2 0x2B79 SWAP8 SWAP6 SWAP4 SWAP2 PUSH2 0x2B56 SWAP8 SWAP6 SWAP4 PUSH2 0x2B42 PUSH2 0x2AE5 DUP6 DUP6 DUP6 DUP6 PUSH2 0x3604 JUMP JUMPDEST PUSH2 0x2B51 PUSH2 0x2AE5 DUP10 DUP10 DUP10 DUP10 PUSH2 0x3604 JUMP JUMPDEST PUSH2 0x36B0 JUMP JUMPDEST DUP1 MLOAD SWAP1 PUSH1 0x20 DUP2 ADD MLOAD PUSH1 0x40 DUP3 ADD MLOAD PUSH1 0x60 DUP4 ADD MLOAD SWAP2 PUSH1 0xA0 PUSH1 0x80 DUP6 ADD MLOAD SWAP5 ADD MLOAD SWAP5 PUSH2 0x3899 JUMP JUMPDEST SWAP3 SWAP4 SWAP2 SWAP3 SWAP1 SWAP2 JUMP JUMPDEST SWAP4 POP SWAP7 SWAP4 POP SWAP5 POP SWAP3 POP PUSH2 0x2AD0 PUSH2 0x2AE5 DUP5 DUP7 DUP9 DUP6 PUSH2 0x3604 JUMP JUMPDEST POP DUP8 ISZERO PUSH2 0x2B21 JUMP JUMPDEST POP DUP7 ISZERO PUSH2 0x2B1B JUMP JUMPDEST POP DUP6 ISZERO PUSH2 0x2B15 JUMP JUMPDEST POP DUP4 ISZERO PUSH2 0x2AAD JUMP JUMPDEST POP DUP3 ISZERO PUSH2 0x2AA7 JUMP JUMPDEST POP DUP2 ISZERO PUSH2 0x2AA1 JUMP JUMPDEST SWAP1 PUSH1 0x20 PUSH2 0xAF9 SWAP3 DUP2 DUP2 MSTORE ADD SWAP1 PUSH2 0x189 JUMP JUMPDEST PUSH1 0x40 MLOAD SWAP1 PUSH2 0x2BE7 DUP3 PUSH2 0x8B0 JUMP JUMPDEST PUSH1 0x88 DUP3 MSTORE PUSH1 0xA0 CALLDATASIZE PUSH1 0x20 DUP5 ADD CALLDATACOPY JUMP JUMPDEST PUSH1 0x40 MLOAD SWAP1 PUSH2 0x2C02 DUP3 PUSH2 0x857 JUMP JUMPDEST PUSH1 0x60 DUP1 DUP4 MSTORE CALLDATASIZE PUSH1 0x20 DUP5 ADD CALLDATACOPY JUMP JUMPDEST PUSH1 0x40 MLOAD SWAP1 PUSH2 0x2C1C DUP3 PUSH2 0x894 JUMP JUMPDEST PUSH1 0xC0 DUP1 DUP4 MSTORE CALLDATASIZE PUSH1 0x20 DUP5 ADD CALLDATACOPY JUMP JUMPDEST PUSH32 0xFF00000000000000000000000000000000000000000000000000000000000000 SWAP3 PUSH2 0x2C66 PUSH1 0x20 DUP1 SWAP4 PUSH2 0x1FCB PUSH1 0x4 SWAP10 SWAP9 SWAP7 DUP3 DUP2 MLOAD SWAP5 DUP6 SWAP3 ADD PUSH2 0x166 JUMP JUMPDEST ADD PUSH1 0x0 DUP2 MSTORE PUSH32 0x6000000000000000000000000000000000000000000000000000000000000000 PUSH1 0x1 DUP3 ADD MSTORE PUSH1 0x0 PUSH1 0x2 DUP3 ADD MSTORE PUSH2 0x2CAC DUP3 MLOAD DUP1 SWAP4 PUSH1 0x20 PUSH1 0x3 DUP6 ADD SWAP2 ADD PUSH2 0x166 JUMP JUMPDEST ADD SWAP2 PUSH1 0xF8 SHL AND PUSH1 0x3 DUP3 ADD MSTORE ADD SWAP1 JUMP JUMPDEST SWAP2 PUSH1 0x22 SWAP4 SWAP3 PUSH32 0xFF00000000000000000000000000000000000000000000000000000000000000 SWAP3 DUP2 MSTORE PUSH32 0x100000000000000000000000000000000000000000000000000000000000000 PUSH1 0x20 DUP3 ADD MSTORE PUSH2 0x2D1E DUP3 MLOAD DUP1 SWAP4 PUSH1 0x20 PUSH1 0x21 DUP6 ADD SWAP2 ADD PUSH2 0x166 JUMP JUMPDEST ADD SWAP2 PUSH1 0xF8 SHL AND PUSH1 0x21 DUP3 ADD MSTORE ADD SWAP1 JUMP JUMPDEST PUSH1 0x22 SWAP5 SWAP4 SWAP2 DUP2 MSTORE PUSH32 0xFF00000000000000000000000000000000000000000000000000000000000000 DUP1 SWAP4 PUSH1 0xF8 SHL AND PUSH1 0x20 DUP3 ADD MSTORE PUSH2 0x2D1E DUP3 MLOAD DUP1 SWAP4 PUSH1 0x20 PUSH1 0x21 DUP6 ADD SWAP2 ADD PUSH2 0x166 JUMP JUMPDEST PUSH2 0x2D7C PUSH2 0x2C0F JUMP JUMPDEST SWAP1 PUSH1 0xC0 PUSH1 0x20 PUSH1 0x0 DUP3 DUP3 DUP7 ADD DUP4 DUP2 MSTORE DUP4 PUSH1 0x40 DUP9 ADD MSTORE DUP4 PUSH1 0x60 DUP9 ADD MSTORE DUP6 PUSH1 0x80 DUP9 ADD MSTORE PUSH32 0x183227397098D014DC2822DB40C0AC2ECBC0B548B438E5469E10460B6C3E7EA3 SWAP7 DUP8 PUSH1 0xA0 DUP3 ADD MSTORE PUSH32 0x30644E72E131A029B85045B68181585D97816A916871CA8D3C208C16D87CFD47 SWAP6 DUP7 SWAP2 ADD MSTORE PUSH1 0x5 GAS STATICCALL SWAP3 PUSH1 0x0 MLOAD SWAP4 ISZERO PUSH2 0x2E66 JUMPI POP POP PUSH32 0x30644E72E131A029B85045B68181585D97816A916871CA8D3C208C16D87CFD46 DUP3 EQ PUSH2 0x2E40 JUMPI DUP2 ISZERO ISZERO DUP1 PUSH2 0x2E35 JUMPI JUMPDEST PUSH2 0x299E JUMPI POP PUSH1 0x0 SIGNEXTEND SWAP1 JUMP JUMPDEST POP PUSH1 0x1 DUP3 EQ ISZERO PUSH2 0x2E2A JUMP JUMPDEST POP POP PUSH32 0xFFFFFFFFFFFFFFFFFFFFFFFFFFFFFFFFFFFFFFFFFFFFFFFFFFFFFFFFFFFFFFFF SWAP1 JUMP JUMPDEST PUSH1 0x64 SWAP4 POP PUSH1 0x40 MLOAD SWAP3 PUSH32 0xC6DAF7AB00000000000000000000000000000000000000000000000000000000 DUP5 MSTORE PUSH1 0x4 DUP5 ADD MSTORE PUSH1 0x24 DUP4 ADD MSTORE PUSH1 0x44 DUP3 ADD MSTORE REVERT JUMPDEST SWAP1 PUSH32 0x30644E72E131A029B85045B68181585D97816A916871CA8D3C208C16D87CFD47 DUP1 DUP1 DUP1 DUP1 DUP1 DUP1 DUP1 DUP1 DUP1 DUP12 DUP2 DUP1 DUP1 DUP1 DUP1 DUP1 DUP1 DUP1 DUP1 DUP1 DUP1 DUP1 DUP1 DUP1 DUP1 DUP16 DUP2 DUP1 DUP3 DUP2 DUP1 DUP1 DUP1 DUP1 DUP1 DUP1 DUP1 DUP1 DUP1 DUP1 DUP1 SWAP15 DUP2 DUP1 DUP1 DUP1 DUP1 DUP6 DUP2 DUP1 DUP1 DUP1 DUP1 DUP1 DUP1 DUP8 DUP2 SWAP15 DUP3 DUP1 DUP1 DUP1 DUP1 DUP1 DUP7 DUP2 DUP1 DUP1 DUP1 DUP1 DUP1 DUP1 DUP1 SWAP15 DUP2 DUP1 DUP1 DUP1 DUP5 DUP2 DUP1 DUP1 DUP1 DUP1 DUP1 DUP1 DUP1 DUP1 DUP10 DUP2 SWAP16 DUP3 DUP1 DUP1 DUP1 DUP1 DUP1 DUP1 DUP1 DUP1 DUP1 DUP1 DUP1 DUP1 DUP14 DUP2 SWAP15 DUP3 DUP1 DUP1 DUP1 DUP1 DUP1 DUP1 DUP1 DUP9 DUP2 DUP1 DUP1 DUP1 DUP1 DUP1 SWAP15 DUP2 DUP1 DUP1 DUP1 DUP1 DUP1 DUP1 DUP1 DUP1 DUP10 DUP2 DUP1 DUP1 DUP1 DUP1 SWAP15 DUP2 DUP1 DUP1 DUP1 DUP1 DUP1 DUP1 DUP1 DUP1 DUP1 DUP1 DUP12 DUP2 DUP1 DUP1 SWAP15 DUP2 DUP1 DUP1 DUP1 DUP1 DUP1 DUP1 DUP1 DUP1 DUP1 DUP1 DUP12 DUP2 DUP1 DUP1 SWAP15 DUP2 DUP1 DUP1 DUP1 DUP1 DUP1 DUP1 DUP1 DUP1 DUP1 DUP11 DUP2 DUP1 DUP1 DUP1 SWAP15 DUP2 DUP1 DUP1 DUP1 DUP1 DUP1 DUP1 DUP8 DUP2 DUP1 DUP1 DUP1 DUP1 DUP1 DUP1 SWAP15 DUP2 DUP1 DUP1 DUP1 DUP1 DUP1 DUP7 DUP2 DUP1 DUP1 DUP1 DUP1 DUP1 DUP1 DUP1 SWAP15 DUP2 DUP1 DUP1 DUP1 DUP1 DUP1 DUP7 DUP2 DUP1 DUP1 DUP1 DUP1 DUP1 DUP1 DUP1 SWAP15 DUP2 DUP1 DUP1 DUP1 DUP1 DUP1 DUP7 DUP2 DUP1 DUP1 DUP1 DUP1 DUP1 DUP1 DUP1 SWAP15 DUP2 DUP1 DUP1 DUP1 DUP1 DUP1 DUP1 DUP1 DUP1 DUP1 DUP1 DUP1 DUP13 DUP2 DUP1 SWAP15 DUP2 DUP1 DUP1 DUP1 DUP1 DUP1 DUP1 DUP1 DUP1 DUP1 DUP1 DUP12 DUP2 DUP1 DUP1 SWAP15 DUP2 DUP1 DUP1 DUP1 DUP1 DUP1 DUP1 DUP8 DUP2 DUP1 DUP1 DUP1 DUP1 DUP1 DUP1 SWAP15 DUP2 DUP1 DUP1 DUP1 DUP1 DUP1 DUP1 DUP1 SWAP8 DUP2 DUP1 DUP1 DUP1 DUP1 DUP6 DUP2 DUP1 DUP1 DUP1 DUP1 DUP1 DUP1 DUP1 DUP1 DUP1 DUP1 DUP12 DUP2 DUP2 DUP1 MULMOD MULMOD DUP2 DUP13 DUP2 DUP2 DUP1 MULMOD MULMOD MULMOD DUP2 DUP1 DUP13 DUP2 DUP2 DUP1 MULMOD MULMOD DUP2 DUP14 DUP2 DUP2 DUP1 MULMOD MULMOD MULMOD MULMOD DUP2 DUP1 DUP1 DUP13 DUP2 DUP2 DUP1 MULMOD MULMOD DUP2 DUP14 DUP2 DUP2 DUP1 MULMOD MULMOD MULMOD DUP2 DUP13 DUP2 DUP1 DUP3 DUP2 DUP2 DUP1 MULMOD MULMOD SWAP2 DUP2 DUP2 DUP1 MULMOD MULMOD MULMOD MULMOD MULMOD DUP1 MULMOD DUP1 MULMOD DUP1 MULMOD DUP2 DUP1 DUP8 DUP2 DUP2 DUP1 MULMOD MULMOD SWAP2 DUP1 MULMOD MULMOD DUP1 MULMOD DUP1 MULMOD DUP1 MULMOD MULMOD DUP1 MULMOD DUP1 MULMOD DUP1 MULMOD DUP1 MULMOD MULMOD DUP1 MULMOD DUP1 MULMOD DUP1 MULMOD DUP1 MULMOD DUP2 DUP1 DUP13 DUP2 DUP1 DUP3 DUP1 MULMOD SWAP2 DUP2 DUP1 DUP3 DUP1 MULMOD SWAP2 DUP2 DUP2 DUP1 MULMOD MULMOD MULMOD MULMOD SWAP2 DUP1 MULMOD MULMOD DUP1 MULMOD DUP1 MULMOD DUP1 MULMOD DUP1 MULMOD DUP2 DUP1 DUP1 DUP9 DUP1 MULMOD DUP2 DUP1 DUP11 DUP1 MULMOD DUP2 DUP12 DUP2 DUP2 DUP1 MULMOD MULMOD MULMOD MULMOD SWAP2 DUP1 MULMOD MULMOD DUP1 MULMOD DUP1 MULMOD DUP1 MULMOD MULMOD DUP1 MULMOD DUP1 MULMOD DUP1 MULMOD DUP2 DUP1 DUP1 DUP11 DUP1 MULMOD DUP2 DUP1 DUP13 DUP1 MULMOD DUP2 DUP14 DUP2 DUP2 DUP1 MULMOD MULMOD MULMOD MULMOD SWAP2 DUP1 MULMOD MULMOD DUP1 MULMOD DUP1 MULMOD DUP1 MULMOD DUP1 MULMOD DUP1 MULMOD MULMOD DUP1 MULMOD DUP1 MULMOD DUP1 MULMOD DUP2 DUP1 DUP13 DUP2 DUP2 DUP1 MULMOD MULMOD SWAP2 DUP1 MULMOD MULMOD DUP1 MULMOD DUP1 MULMOD DUP1 MULMOD DUP1 MULMOD DUP1 MULMOD DUP1 MULMOD SWAP3 DUP2 DUP1 DUP1 DUP4 DUP2 DUP2 DUP1 MULMOD MULMOD DUP2 DUP5 DUP2 DUP2 DUP1 MULMOD MULMOD MULMOD SWAP2 DUP2 DUP1 DUP3 DUP1 MULMOD SWAP2 DUP2 DUP1 DUP3 DUP1 MULMOD SWAP2 DUP2 DUP2 DUP1 MULMOD MULMOD MULMOD MULMOD MULMOD SWAP2 DUP1 MULMOD MULMOD DUP1 MULMOD DUP1 MULMOD DUP1 MULMOD DUP1 MULMOD DUP1 MULMOD DUP1 MULMOD DUP1 MULMOD DUP1 MULMOD DUP1 MULMOD DUP2 DUP1 DUP14 DUP2 DUP1 DUP3 DUP1 MULMOD SWAP2 DUP2 DUP2 DUP1 MULMOD MULMOD MULMOD SWAP2 DUP1 MULMOD MULMOD DUP1 MULMOD DUP1 MULMOD DUP1 MULMOD DUP2 DUP1 DUP10 DUP2 DUP2 DUP1 MULMOD MULMOD SWAP2 DUP1 MULMOD MULMOD DUP1 MULMOD DUP1 MULMOD DUP1 MULMOD SWAP3 DUP2 DUP1 DUP3 DUP1 MULMOD SWAP2 DUP2 DUP1 DUP3 DUP1 MULMOD SWAP2 DUP2 DUP2 DUP1 MULMOD MULMOD MULMOD MULMOD SWAP2 DUP1 MULMOD MULMOD DUP1 MULMOD DUP1 MULMOD DUP1 MULMOD DUP1 MULMOD DUP1 MULMOD DUP1 MULMOD DUP2 DUP1 DUP1 DUP12 DUP1 MULMOD DUP2 DUP13 DUP2 DUP2 DUP1 MULMOD MULMOD MULMOD SWAP2 DUP1 MULMOD MULMOD DUP1 MULMOD DUP1 MULMOD DUP1 MULMOD DUP1 MULMOD DUP1 MULMOD DUP1 MULMOD MULMOD DUP1 MULMOD DUP1 MULMOD DUP1 MULMOD DUP1 MULMOD DUP1 MULMOD DUP1 MULMOD DUP2 DUP1 DUP1 DUP1 DUP13 DUP1 MULMOD DUP2 DUP14 DUP2 DUP2 DUP1 MULMOD MULMOD MULMOD DUP2 DUP13 DUP2 DUP1 DUP3 DUP2 DUP2 DUP1 MULMOD MULMOD SWAP2 DUP2 DUP2 DUP1 MULMOD MULMOD MULMOD MULMOD SWAP2 DUP1 MULMOD MULMOD DUP1 MULMOD DUP1 MULMOD DUP1 MULMOD DUP1 MULMOD SWAP3 DUP2 DUP1 DUP1 DUP4 DUP2 DUP2 DUP1 MULMOD MULMOD DUP2 DUP5 DUP2 DUP2 DUP1 MULMOD MULMOD MULMOD SWAP2 DUP2 DUP1 DUP3 DUP1 MULMOD SWAP2 DUP2 DUP1 DUP3 DUP1 MULMOD SWAP2 DUP2 DUP2 DUP1 MULMOD MULMOD MULMOD MULMOD MULMOD SWAP2 DUP1 MULMOD MULMOD DUP1 MULMOD DUP1 MULMOD DUP2 DUP1 DUP14 DUP2 DUP1 DUP3 DUP1 MULMOD SWAP2 DUP2 DUP2 DUP1 MULMOD MULMOD MULMOD SWAP2 DUP1 MULMOD MULMOD DUP1 MULMOD DUP1 MULMOD DUP1 MULMOD DUP1 MULMOD DUP1 MULMOD DUP1 MULMOD DUP1 MULMOD SWAP3 DUP2 DUP2 DUP1 MULMOD MULMOD SWAP2 DUP1 MULMOD MULMOD DUP1 MULMOD DUP1 MULMOD DUP1 MULMOD DUP1 MULMOD DUP1 MULMOD DUP1 MULMOD DUP1 MULMOD DUP1 MULMOD SWAP3 DUP2 DUP1 DUP3 DUP1 MULMOD SWAP2 DUP2 DUP2 DUP1 MULMOD MULMOD MULMOD SWAP2 DUP1 MULMOD MULMOD DUP1 MULMOD DUP1 MULMOD DUP2 DUP1 DUP14 DUP2 DUP2 DUP1 MULMOD MULMOD SWAP2 DUP1 MULMOD MULMOD DUP1 MULMOD DUP1 MULMOD DUP1 MULMOD DUP1 MULMOD DUP1 MULMOD DUP1 MULMOD DUP1 MULMOD SWAP3 DUP2 DUP1 DUP1 DUP4 DUP1 MULMOD DUP2 DUP5 DUP2 DUP2 DUP1 MULMOD MULMOD MULMOD SWAP2 DUP2 DUP1 DUP3 DUP2 DUP2 DUP1 MULMOD MULMOD SWAP2 DUP2 DUP2 DUP1 MULMOD MULMOD MULMOD MULMOD SWAP2 DUP1 MULMOD MULMOD DUP1 MULMOD DUP1 MULMOD DUP1 MULMOD DUP2 DUP1 DUP14 DUP2 DUP1 DUP1 DUP4 DUP1 MULMOD DUP2 DUP5 DUP2 DUP2 DUP1 MULMOD MULMOD MULMOD SWAP2 DUP2 DUP1 DUP3 DUP2 DUP2 DUP1 MULMOD MULMOD SWAP2 DUP2 DUP2 DUP1 MULMOD MULMOD MULMOD MULMOD SWAP2 DUP1 MULMOD MULMOD DUP1 MULMOD DUP1 MULMOD DUP1 MULMOD DUP1 MULMOD DUP2 DUP1 DUP1 DUP10 DUP1 MULMOD DUP2 DUP11 DUP2 DUP2 DUP1 MULMOD MULMOD MULMOD SWAP2 DUP1 MULMOD MULMOD DUP1 MULMOD DUP1 MULMOD SWAP3 DUP2 DUP1 DUP3 DUP1 MULMOD SWAP2 DUP2 DUP1 DUP3 DUP1 MULMOD SWAP2 DUP2 DUP2 DUP1 MULMOD MULMOD MULMOD MULMOD SWAP2 DUP1 MULMOD MULMOD DUP1 MULMOD DUP1 MULMOD DUP1 MULMOD DUP1 MULMOD DUP1 MULMOD DUP1 MULMOD DUP1 MULMOD DUP1 MULMOD DUP1 MULMOD DUP2 DUP1 DUP1 DUP1 DUP12 DUP1 MULMOD DUP2 DUP13 DUP2 DUP2 DUP1 MULMOD MULMOD MULMOD DUP2 DUP1 DUP13 DUP2 DUP2 DUP1 MULMOD MULMOD DUP2 DUP14 DUP2 DUP2 DUP1 MULMOD MULMOD MULMOD MULMOD SWAP2 DUP1 MULMOD MULMOD DUP1 MULMOD DUP1 MULMOD DUP1 MULMOD SWAP3 DUP2 DUP1 DUP3 DUP1 MULMOD SWAP2 DUP2 DUP2 DUP1 MULMOD MULMOD MULMOD SWAP2 DUP1 MULMOD MULMOD DUP1 MULMOD DUP1 MULMOD DUP1 MULMOD DUP1 MULMOD DUP2 DUP1 DUP14 DUP2 DUP1 DUP3 DUP2 DUP2 DUP1 MULMOD MULMOD SWAP2 DUP2 DUP1 DUP3 DUP2 DUP2 DUP1 MULMOD MULMOD SWAP2 DUP2 DUP2 DUP1 MULMOD MULMOD MULMOD MULMOD SWAP2 DUP1 MULMOD MULMOD DUP1 MULMOD DUP1 MULMOD DUP1 MULMOD DUP1 MULMOD DUP1 MULMOD DUP1 MULMOD DUP2 DUP1 DUP1 DUP1 DUP9 DUP1 MULMOD DUP2 DUP10 DUP2 DUP2 DUP1 MULMOD MULMOD MULMOD DUP2 DUP1 DUP10 DUP2 DUP2 DUP1 MULMOD MULMOD DUP2 DUP11 DUP2 DUP2 DUP1 MULMOD MULMOD MULMOD MULMOD SWAP2 DUP1 MULMOD MULMOD DUP1 MULMOD DUP1 MULMOD MULMOD DUP1 MULMOD DUP1 MULMOD DUP1 MULMOD DUP1 MULMOD DUP1 MULMOD DUP1 MULMOD SWAP3 DUP2 DUP1 DUP3 DUP1 MULMOD SWAP2 DUP2 DUP1 DUP3 DUP1 MULMOD SWAP2 DUP2 DUP2 DUP1 MULMOD MULMOD MULMOD MULMOD SWAP2 DUP1 MULMOD MULMOD DUP1 MULMOD DUP1 MULMOD DUP1 MULMOD DUP1 MULMOD DUP1 MULMOD DUP2 DUP1 DUP1 DUP13 DUP1 MULMOD DUP2 DUP14 DUP2 DUP1 DUP3 DUP1 MULMOD SWAP2 DUP2 DUP2 DUP1 MULMOD MULMOD MULMOD MULMOD SWAP2 DUP1 MULMOD MULMOD DUP1 MULMOD DUP1 MULMOD DUP1 MULMOD DUP1 MULMOD DUP2 DUP1 DUP1 DUP8 DUP1 MULMOD DUP2 DUP9 DUP2 DUP2 DUP1 MULMOD MULMOD MULMOD SWAP2 DUP1 MULMOD MULMOD DUP1 MULMOD DUP1 MULMOD MULMOD DUP1 MULMOD DUP1 MULMOD DUP1 MULMOD DUP1 MULMOD DUP1 MULMOD DUP1 MULMOD SWAP3 DUP2 DUP1 DUP1 DUP4 DUP2 DUP2 DUP1 MULMOD MULMOD DUP2 DUP5 DUP2 DUP2 DUP1 MULMOD MULMOD MULMOD SWAP2 DUP2 DUP1 DUP3 DUP1 MULMOD SWAP2 DUP2 DUP1 DUP3 DUP1 MULMOD SWAP2 DUP2 DUP2 DUP1 MULMOD MULMOD MULMOD MULMOD MULMOD SWAP2 DUP1 MULMOD MULMOD DUP1 MULMOD DUP1 MULMOD DUP1 MULMOD DUP1 MULMOD DUP1 MULMOD DUP2 DUP1 DUP1 DUP1 DUP12 DUP2 DUP2 DUP1 MULMOD MULMOD DUP2 DUP13 DUP2 DUP2 DUP1 MULMOD MULMOD MULMOD DUP2 DUP1 DUP13 DUP2 DUP2 DUP1 MULMOD MULMOD DUP2 DUP14 DUP2 DUP1 DUP3 DUP2 DUP2 DUP1 MULMOD MULMOD SWAP2 DUP2 DUP2 DUP1 MULMOD MULMOD MULMOD MULMOD MULMOD SWAP2 DUP1 MULMOD MULMOD DUP1 MULMOD DUP1 MULMOD DUP1 MULMOD DUP1 MULMOD DUP1 MULMOD MULMOD DUP1 MULMOD DUP1 MULMOD DUP1 MULMOD DUP1 MULMOD DUP1 MULMOD DUP1 MULMOD MULMOD DUP1 MULMOD DUP1 MULMOD DUP1 MULMOD DUP1 MULMOD SWAP3 DUP2 DUP2 DUP1 MULMOD MULMOD SWAP2 DUP1 MULMOD MULMOD DUP1 MULMOD DUP1 MULMOD DUP1 MULMOD DUP1 MULMOD DUP1 MULMOD DUP1 MULMOD DUP1 MULMOD DUP1 MULMOD DUP2 DUP1 DUP1 DUP13 DUP2 DUP1 DUP3 DUP1 MULMOD SWAP2 DUP2 DUP2 DUP1 MULMOD MULMOD MULMOD DUP2 DUP14 DUP2 DUP1 DUP3 DUP2 DUP2 DUP1 MULMOD MULMOD SWAP2 DUP2 DUP2 DUP1 MULMOD MULMOD MULMOD MULMOD SWAP2 DUP1 MULMOD MULMOD DUP1 MULMOD DUP1 MULMOD DUP2 DUP1 DUP9 DUP2 DUP2 DUP1 MULMOD MULMOD SWAP2 DUP1 MULMOD MULMOD DUP1 MULMOD DUP1 MULMOD SWAP3 DUP2 DUP2 DUP1 MULMOD MULMOD SWAP2 DUP1 MULMOD MULMOD DUP1 MULMOD DUP1 MULMOD DUP1 MULMOD DUP1 MULMOD DUP1 MULMOD DUP1 MULMOD DUP1 MULMOD DUP2 DUP1 DUP14 DUP2 DUP1 DUP1 DUP4 DUP2 DUP2 DUP1 MULMOD MULMOD DUP2 DUP5 DUP2 DUP2 DUP1 MULMOD MULMOD MULMOD SWAP2 DUP2 DUP1 DUP3 DUP2 DUP2 DUP1 MULMOD MULMOD SWAP2 DUP2 DUP1 DUP3 DUP2 DUP2 DUP1 MULMOD MULMOD SWAP2 DUP2 DUP2 DUP1 MULMOD MULMOD MULMOD MULMOD MULMOD SWAP2 DUP1 MULMOD MULMOD DUP1 MULMOD DUP1 MULMOD DUP1 MULMOD DUP2 DUP1 DUP1 DUP11 DUP2 DUP2 DUP1 MULMOD MULMOD DUP2 DUP1 DUP13 DUP2 DUP2 DUP1 MULMOD MULMOD DUP2 DUP14 DUP2 DUP2 DUP1 MULMOD MULMOD MULMOD MULMOD SWAP2 DUP1 MULMOD MULMOD DUP1 MULMOD DUP1 MULMOD DUP1 MULMOD SWAP3 DUP2 DUP1 DUP1 DUP4 DUP2 DUP2 DUP1 MULMOD MULMOD DUP2 DUP5 DUP2 DUP2 DUP1 MULMOD MULMOD MULMOD SWAP2 DUP2 DUP1 DUP3 DUP2 DUP2 DUP1 MULMOD MULMOD SWAP2 DUP2 DUP1 DUP3 DUP2 DUP2 DUP1 MULMOD MULMOD SWAP2 DUP2 DUP2 DUP1 MULMOD MULMOD MULMOD MULMOD MULMOD SWAP2 DUP1 MULMOD MULMOD DUP1 MULMOD DUP1 MULMOD DUP2 DUP1 DUP1 DUP13 DUP1 MULMOD DUP2 DUP14 DUP2 DUP2 DUP1 MULMOD MULMOD MULMOD SWAP2 DUP1 MULMOD MULMOD DUP1 MULMOD DUP1 MULMOD DUP1 MULMOD DUP1 MULMOD DUP2 DUP1 DUP1 DUP8 DUP2 DUP2 DUP1 MULMOD MULMOD DUP2 DUP1 DUP10 DUP2 DUP2 DUP1 MULMOD MULMOD DUP2 DUP11 DUP2 DUP2 DUP1 MULMOD MULMOD MULMOD MULMOD SWAP2 DUP1 MULMOD MULMOD DUP1 MULMOD SWAP2 PUSH32 0x30644E72E131A029B85045B68181585D97816A916871CA8D3C208C16D87CFD47 DUP4 DUP1 MULMOD EQ SWAP1 JUMP JUMPDEST PUSH2 0x364C PUSH2 0x3637 PUSH32 0x54FB1321278F57B36922D1D65A0ED99E1CCA4AC0E95DAEA09B8A53AB3DBC462 SWAP6 PUSH2 0x3654 SWAP6 DUP2 DUP2 PUSH2 0x40F2 JUMP JUMPDEST SWAP4 SWAP1 SWAP3 PUSH2 0x3646 DUP3 DUP3 DUP2 DUP2 PUSH2 0x40F2 JUMP JUMPDEST SWAP1 PUSH2 0x40F2 JUMP JUMPDEST SWAP3 SWAP1 SWAP2 PUSH2 0x4138 JUMP JUMPDEST SWAP2 SWAP1 PUSH32 0x30644E72E131A029B85045B68181585D97816A916871CA8D3C208C16D87CFD47 SWAP2 DUP3 SWAP2 ADDMOD ISZERO SWAP2 DUP3 PUSH2 0x3687 JUMPI POP POP SWAP1 JUMP JUMPDEST PUSH32 0x2FCD3AC2A640A154EB23960892A85A68F031CA0C8344B23A577DCF1052B9E775 SWAP2 SWAP3 POP ADDMOD ISZERO SWAP1 JUMP JUMPDEST SWAP5 SWAP8 SWAP7 SWAP8 SWAP6 SWAP2 SWAP3 SWAP4 SWAP6 PUSH2 0x36CC PUSH2 0x36C4 PUSH2 0x118E JUMP JUMPDEST SWAP10 DUP11 SWAP5 PUSH2 0x40AA JUMP JUMPDEST SWAP8 SWAP1 SWAP7 PUSH2 0x36F2 PUSH2 0x36DC DUP9 DUP9 PUSH2 0x40AA JUMP JUMPDEST SWAP5 SWAP1 SWAP4 PUSH1 0x60 DUP9 ADD SWAP6 DUP7 MSTORE PUSH1 0x40 DUP9 ADD SWAP5 DUP6 MSTORE PUSH2 0x40AA JUMP JUMPDEST SWAP8 SWAP1 SWAP7 PUSH2 0x36FF DUP7 DUP5 PUSH2 0x40AA JUMP JUMPDEST PUSH1 0x80 PUSH1 0xA0 DUP11 SWAP10 SWAP4 SWAP10 ADD SWAP10 DUP3 DUP12 MSTORE ADD SWAP8 DUP1 DUP10 MSTORE DUP11 EQ SWAP1 DUP2 PUSH2 0x388F JUMPI JUMPDEST POP PUSH2 0x3815 JUMPI POP POP POP POP POP POP POP POP PUSH1 0x40 DUP7 ADD SWAP3 DUP4 MLOAD SWAP5 PUSH1 0x60 DUP9 ADD SWAP6 DUP7 MLOAD SWAP2 PUSH2 0x3740 SWAP4 PUSH2 0x4138 JUMP JUMPDEST PUSH1 0x80 DUP9 ADD SWAP3 DUP4 MLOAD SWAP5 PUSH1 0xA0 DUP11 ADD SWAP6 DUP7 MLOAD SWAP2 PUSH2 0x3759 SWAP4 PUSH2 0x4138 JUMP JUMPDEST PUSH2 0x3765 DUP2 DUP4 DUP2 DUP2 PUSH2 0x40F2 JUMP JUMPDEST DUP4 DUP4 DUP9 SWAP6 SWAP4 SWAP6 MLOAD DUP11 MLOAD PUSH2 0x3779 SWAP2 DUP6 DUP10 PUSH2 0x40F2 JUMP JUMPDEST SWAP4 PUSH2 0x3785 SWAP4 SWAP2 SWAP8 PUSH2 0x40F2 JUMP JUMPDEST SWAP9 SWAP1 SWAP8 PUSH2 0x3792 DUP11 DUP11 PUSH2 0x40AA JUMP JUMPDEST SWAP1 SWAP3 MSTORE MSTORE DUP12 DUP8 DUP10 PUSH2 0x37A5 DUP9 DUP11 DUP2 DUP2 PUSH2 0x40F2 JUMP JUMPDEST PUSH2 0x37AE SWAP2 PUSH2 0x40AA JUMP JUMPDEST PUSH2 0x37B8 SWAP4 SWAP2 PUSH2 0x4138 JUMP JUMPDEST PUSH2 0x37C2 DUP5 DUP9 PUSH2 0x43F5 JUMP JUMPDEST SWAP2 PUSH2 0x37CC SWAP4 PUSH2 0x4138 JUMP JUMPDEST DUP2 DUP2 SWAP7 PUSH2 0x37D9 SWAP4 SWAP7 PUSH2 0x40F2 JUMP JUMPDEST SWAP1 SWAP2 PUSH1 0x20 ADD MSTORE DUP13 MSTORE PUSH2 0x37EA SWAP4 PUSH2 0x4138 JUMP JUMPDEST SWAP2 PUSH2 0x37F4 SWAP4 PUSH2 0x40F2 JUMP JUMPDEST SWAP2 SWAP1 SWAP3 DUP5 MLOAD DUP7 MLOAD SWAP2 PUSH2 0x3805 SWAP4 PUSH2 0x40F2 JUMP JUMPDEST SWAP2 PUSH2 0x380F SWAP4 PUSH2 0x4138 JUMP JUMPDEST SWAP1 SWAP3 MSTORE MSTORE JUMP JUMPDEST SWAP4 SWAP8 POP SWAP4 SWAP8 POP SWAP4 SWAP8 DUP7 SWAP12 SWAP11 SWAP12 SWAP10 SWAP2 SWAP6 SWAP10 MLOAD EQ SWAP1 DUP2 PUSH2 0x3884 JUMPI JUMPDEST POP PUSH2 0x3865 JUMPI POP POP POP POP POP POP POP POP PUSH1 0x0 PUSH1 0xA0 DUP3 ADD MSTORE PUSH1 0x0 PUSH1 0x80 DUP3 ADD MSTORE PUSH1 0x0 PUSH1 0x60 DUP3 ADD MSTORE PUSH1 0x1 PUSH1 0x40 DUP3 ADD MSTORE PUSH1 0x0 PUSH1 0x20 DUP3 ADD MSTORE PUSH1 0x1 DUP2 MSTORE SWAP1 JUMP JUMPDEST PUSH2 0x386E SWAP4 PUSH2 0x417A JUMP JUMPDEST SWAP1 SWAP3 SWAP7 SWAP4 SWAP8 SWAP2 SWAP5 SWAP9 MSTORE MSTORE MSTORE MSTORE PUSH1 0x20 DUP4 ADD MSTORE DUP2 MSTORE SWAP1 JUMP JUMPDEST SWAP1 POP DUP7 MLOAD EQ CODESIZE PUSH2 0x382E JUMP JUMPDEST SWAP1 POP DUP11 EQ CODESIZE PUSH2 0x371A JUMP JUMPDEST SWAP6 SWAP4 SWAP2 SWAP6 SWAP5 SWAP1 SWAP3 SWAP5 PUSH32 0x30644E72E131A029B85045B68181585D97816A916871CA8D3C208C16D87CFD47 SWAP3 PUSH1 0x40 MLOAD PUSH1 0x20 DUP2 MSTORE PUSH1 0x20 DUP1 DUP3 ADD MSTORE PUSH1 0x20 PUSH1 0x40 DUP3 ADD MSTORE DUP5 DUP1 DUP4 DUP1 MULMOD DUP2 DUP7 DUP1 MULMOD ADDMOD PUSH1 0x60 DUP3 ADD MSTORE PUSH32 0x30644E72E131A029B85045B68181585D97816A916871CA8D3C208C16D87CFD45 PUSH1 0x80 DUP3 ADD MSTORE DUP5 PUSH1 0xA0 DUP3 ADD MSTORE PUSH1 0x20 DUP2 PUSH1 0xC0 DUP2 PUSH1 0x5 PUSH32 0xFFFFFFFFFFFFFFFFFFFFFFFFFFFFFFFFFFFFFFFFFFFFFFFFFFFFFFFFFFFFF830 GAS ADD STATICCALL SWAP1 MLOAD SWAP1 ISZERO PUSH2 0x128 JUMPI DUP5 DUP2 DUP2 SWAP4 MULMOD SWAP4 MULMOD DUP4 SUB SWAP3 DUP4 GT PUSH2 0x1773 JUMPI DUP3 DUP3 PUSH2 0x396D SWAP6 PUSH2 0x3965 SWAP4 PUSH2 0x40F2 JUMP JUMPDEST SWAP6 SWAP1 SWAP7 PUSH2 0x40F2 JUMP JUMPDEST SWAP1 SWAP2 JUMP JUMPDEST DUP1 PUSH32 0x30644E72E131A029B85045B68181585D97816A916871CA8D3C208C16D87CFD47 DUP1 DUP1 DUP1 DUP1 DUP1 DUP1 DUP1 DUP9 DUP2 DUP1 DUP1 DUP1 DUP1 SWAP15 DUP2 DUP1 DUP1 DUP1 DUP1 DUP1 DUP1 DUP1 DUP1 DUP10 DUP2 DUP1 DUP1 DUP1 DUP1 SWAP15 DUP2 DUP1 DUP1 DUP1 DUP1 DUP1 DUP1 DUP1 DUP9 DUP2 DUP1 DUP1 DUP1 DUP1 DUP1 SWAP15 DUP2 DUP1 DUP1 DUP1 DUP1 DUP1 DUP1 DUP1 DUP9 DUP2 DUP1 DUP1 DUP1 DUP1 DUP1 SWAP15 DUP2 DUP2 DUP2 DUP1 DUP1 DUP1 DUP1 DUP1 DUP1 DUP8 DUP2 DUP1 DUP1 DUP1 DUP1 SWAP15 DUP2 DUP1 DUP1 DUP1 DUP1 DUP1 DUP1 DUP8 DUP2 DUP1 DUP1 DUP1 DUP1 DUP1 DUP1 SWAP15 DUP2 DUP1 DUP3 DUP2 DUP1 DUP1 DUP1 DUP1 DUP1 DUP1 DUP1 DUP1 DUP1 DUP1 DUP1 SWAP15 DUP2 DUP1 DUP3 DUP2 DUP1 DUP1 DUP1 DUP1 DUP1 DUP1 DUP1 DUP1 DUP10 DUP2 DUP1 SWAP15 DUP2 DUP1 DUP1 DUP1 DUP1 DUP1 DUP1 DUP1 DUP1 DUP1 DUP1 DUP1 DUP1 DUP14 DUP2 SWAP15 DUP3 DUP1 DUP1 DUP1 DUP1 DUP1 DUP1 DUP1 DUP1 DUP1 DUP1 DUP1 DUP1 DUP1 DUP1 SWAP15 DUP1 DUP3 DUP1 DUP1 DUP1 DUP1 DUP1 DUP1 DUP1 DUP1 DUP1 DUP1 DUP1 DUP1 DUP1 SWAP15 DUP1 DUP3 DUP1 DUP1 DUP1 DUP1 DUP1 DUP1 DUP1 DUP1 DUP1 DUP1 DUP1 DUP1 DUP14 DUP2 SWAP16 DUP3 DUP1 DUP1 DUP1 DUP1 DUP1 DUP1 DUP1 DUP1 DUP1 DUP11 DUP2 DUP1 DUP1 DUP1 SWAP15 DUP2 DUP1 DUP1 DUP1 DUP1 DUP1 DUP1 DUP1 DUP1 DUP10 DUP2 DUP1 DUP1 DUP1 DUP1 SWAP15 DUP2 DUP1 DUP1 DUP1 DUP1 DUP1 DUP1 DUP1 DUP1 DUP10 DUP2 DUP1 DUP1 DUP1 DUP1 SWAP15 DUP2 DUP1 DUP1 DUP1 DUP1 DUP1 DUP1 DUP1 DUP1 DUP10 DUP2 DUP1 DUP1 DUP1 DUP1 SWAP15 DUP2 DUP1 DUP1 DUP1 DUP1 DUP1 DUP1 DUP1 DUP1 DUP1 DUP1 DUP1 DUP1 DUP1 DUP1 SWAP15 DUP1 DUP3 DUP1 DUP1 DUP1 DUP1 DUP1 DUP1 DUP1 DUP1 DUP1 DUP1 DUP1 DUP1 DUP14 DUP2 SWAP16 DUP3 DUP1 DUP1 DUP1 DUP1 DUP1 DUP1 DUP1 DUP1 DUP10 DUP2 DUP1 DUP1 DUP1 DUP1 SWAP15 DUP2 DUP1 DUP1 DUP1 DUP1 DUP1 DUP1 DUP1 DUP1 DUP1 SWAP10 DUP2 DUP1 DUP1 DUP1 DUP1 DUP6 DUP2 DUP1 DUP1 DUP1 DUP1 DUP1 DUP1 DUP1 DUP1 DUP1 DUP1 DUP12 DUP2 DUP2 DUP1 MULMOD MULMOD DUP2 DUP13 DUP2 DUP2 DUP1 MULMOD MULMOD MULMOD DUP2 DUP1 DUP13 DUP2 DUP2 DUP1 MULMOD MULMOD DUP2 DUP14 DUP2 DUP2 DUP1 MULMOD MULMOD MULMOD MULMOD DUP2 DUP1 DUP1 DUP13 DUP2 DUP2 DUP1 MULMOD MULMOD DUP2 DUP14 DUP2 DUP2 DUP1 MULMOD MULMOD MULMOD DUP2 DUP13 DUP2 DUP1 DUP3 DUP2 DUP2 DUP1 MULMOD MULMOD SWAP2 DUP2 DUP2 DUP1 MULMOD MULMOD MULMOD MULMOD MULMOD DUP1 MULMOD DUP1 MULMOD DUP1 MULMOD DUP2 DUP1 DUP8 DUP2 DUP2 DUP1 MULMOD MULMOD SWAP2 DUP1 MULMOD MULMOD DUP1 MULMOD DUP1 MULMOD DUP1 MULMOD MULMOD DUP1 MULMOD DUP1 MULMOD DUP1 MULMOD DUP1 MULMOD MULMOD DUP1 MULMOD DUP1 MULMOD DUP1 MULMOD DUP1 MULMOD DUP2 DUP1 DUP13 DUP2 DUP1 DUP3 DUP1 MULMOD SWAP2 DUP2 DUP1 DUP3 DUP1 MULMOD SWAP2 DUP2 DUP2 DUP1 MULMOD MULMOD MULMOD MULMOD SWAP2 DUP1 MULMOD MULMOD DUP1 MULMOD DUP1 MULMOD DUP1 MULMOD DUP1 MULMOD DUP2 DUP1 DUP1 DUP9 DUP1 MULMOD DUP2 DUP1 DUP11 DUP1 MULMOD DUP2 DUP12 DUP2 DUP2 DUP1 MULMOD MULMOD MULMOD MULMOD SWAP2 DUP1 MULMOD MULMOD DUP1 MULMOD DUP1 MULMOD DUP1 MULMOD MULMOD DUP1 MULMOD DUP1 MULMOD DUP1 MULMOD DUP2 DUP1 DUP1 DUP11 DUP1 MULMOD DUP2 DUP1 DUP13 DUP1 MULMOD DUP2 DUP14 DUP2 DUP2 DUP1 MULMOD MULMOD MULMOD MULMOD SWAP2 DUP1 MULMOD MULMOD DUP1 MULMOD DUP1 MULMOD DUP1 MULMOD DUP1 MULMOD DUP1 MULMOD MULMOD DUP1 MULMOD DUP1 MULMOD DUP1 MULMOD DUP2 DUP1 DUP13 DUP2 DUP2 DUP1 MULMOD MULMOD SWAP2 DUP1 MULMOD MULMOD DUP1 MULMOD DUP1 MULMOD DUP1 MULMOD DUP1 MULMOD DUP1 MULMOD DUP1 MULMOD SWAP3 DUP2 DUP1 DUP1 DUP4 DUP2 DUP2 DUP1 MULMOD MULMOD DUP2 DUP5 DUP2 DUP2 DUP1 MULMOD MULMOD MULMOD SWAP2 DUP2 DUP1 DUP3 DUP1 MULMOD SWAP2 DUP2 DUP1 DUP3 DUP1 MULMOD SWAP2 DUP2 DUP2 DUP1 MULMOD MULMOD MULMOD MULMOD MULMOD SWAP2 DUP1 MULMOD MULMOD DUP1 MULMOD DUP1 MULMOD DUP1 MULMOD DUP1 MULMOD DUP1 MULMOD DUP1 MULMOD DUP1 MULMOD DUP1 MULMOD DUP1 MULMOD DUP2 DUP1 DUP14 DUP2 DUP1 DUP3 DUP1 MULMOD SWAP2 DUP2 DUP2 DUP1 MULMOD MULMOD MULMOD SWAP2 DUP1 MULMOD MULMOD DUP1 MULMOD DUP1 MULMOD DUP1 MULMOD DUP2 DUP1 DUP10 DUP2 DUP2 DUP1 MULMOD MULMOD SWAP2 DUP1 MULMOD MULMOD DUP1 MULMOD DUP1 MULMOD DUP1 MULMOD SWAP3 DUP2 DUP1 DUP3 DUP1 MULMOD SWAP2 DUP2 DUP1 DUP3 DUP1 MULMOD SWAP2 DUP2 DUP2 DUP1 MULMOD MULMOD MULMOD MULMOD SWAP2 DUP1 MULMOD MULMOD DUP1 MULMOD DUP1 MULMOD DUP1 MULMOD DUP1 MULMOD DUP1 MULMOD DUP1 MULMOD DUP2 DUP1 DUP1 DUP12 DUP1 MULMOD DUP2 DUP13 DUP2 DUP2 DUP1 MULMOD MULMOD MULMOD SWAP2 DUP1 MULMOD MULMOD DUP1 MULMOD DUP1 MULMOD DUP1 MULMOD DUP1 MULMOD DUP1 MULMOD DUP1 MULMOD MULMOD DUP1 MULMOD DUP1 MULMOD DUP1 MULMOD DUP1 MULMOD DUP1 MULMOD DUP1 MULMOD DUP2 DUP1 DUP1 DUP1 DUP13 DUP1 MULMOD DUP2 DUP14 DUP2 DUP2 DUP1 MULMOD MULMOD MULMOD DUP2 DUP13 DUP2 DUP1 DUP3 DUP2 DUP2 DUP1 MULMOD MULMOD SWAP2 DUP2 DUP2 DUP1 MULMOD MULMOD MULMOD MULMOD SWAP2 DUP1 MULMOD MULMOD DUP1 MULMOD DUP1 MULMOD DUP1 MULMOD DUP1 MULMOD SWAP3 DUP2 DUP1 DUP1 DUP4 DUP2 DUP2 DUP1 MULMOD MULMOD DUP2 DUP5 DUP2 DUP2 DUP1 MULMOD MULMOD MULMOD SWAP2 DUP2 DUP1 DUP3 DUP1 MULMOD SWAP2 DUP2 DUP1 DUP3 DUP1 MULMOD SWAP2 DUP2 DUP2 DUP1 MULMOD MULMOD MULMOD MULMOD MULMOD SWAP2 DUP1 MULMOD MULMOD DUP1 MULMOD DUP1 MULMOD DUP2 DUP1 DUP14 DUP2 DUP1 DUP3 DUP1 MULMOD SWAP2 DUP2 DUP2 DUP1 MULMOD MULMOD MULMOD SWAP2 DUP1 MULMOD MULMOD DUP1 MULMOD DUP1 MULMOD DUP1 MULMOD DUP1 MULMOD DUP1 MULMOD DUP1 MULMOD DUP1 MULMOD SWAP3 DUP2 DUP2 DUP1 MULMOD MULMOD SWAP2 DUP1 MULMOD MULMOD DUP1 MULMOD DUP1 MULMOD DUP1 MULMOD DUP1 MULMOD DUP1 MULMOD DUP1 MULMOD DUP1 MULMOD DUP1 MULMOD SWAP3 DUP2 DUP1 DUP3 DUP1 MULMOD SWAP2 DUP2 DUP2 DUP1 MULMOD MULMOD MULMOD SWAP2 DUP1 MULMOD MULMOD DUP1 MULMOD DUP1 MULMOD DUP2 DUP1 DUP14 DUP2 DUP2 DUP1 MULMOD MULMOD SWAP2 DUP1 MULMOD MULMOD DUP1 MULMOD DUP1 MULMOD DUP1 MULMOD DUP1 MULMOD DUP1 MULMOD DUP1 MULMOD DUP1 MULMOD SWAP3 DUP2 DUP1 DUP1 DUP4 DUP1 MULMOD DUP2 DUP5 DUP2 DUP2 DUP1 MULMOD MULMOD MULMOD SWAP2 DUP2 DUP1 DUP3 DUP2 DUP2 DUP1 MULMOD MULMOD SWAP2 DUP2 DUP2 DUP1 MULMOD MULMOD MULMOD MULMOD SWAP2 DUP1 MULMOD MULMOD DUP1 MULMOD DUP1 MULMOD DUP1 MULMOD DUP2 DUP1 DUP14 DUP2 DUP1 DUP1 DUP4 DUP1 MULMOD DUP2 DUP5 DUP2 DUP2 DUP1 MULMOD MULMOD MULMOD SWAP2 DUP2 DUP1 DUP3 DUP2 DUP2 DUP1 MULMOD MULMOD SWAP2 DUP2 DUP2 DUP1 MULMOD MULMOD MULMOD MULMOD SWAP2 DUP1 MULMOD MULMOD DUP1 MULMOD DUP1 MULMOD DUP1 MULMOD DUP1 MULMOD DUP2 DUP1 DUP1 DUP10 DUP1 MULMOD DUP2 DUP11 DUP2 DUP2 DUP1 MULMOD MULMOD MULMOD SWAP2 DUP1 MULMOD MULMOD DUP1 MULMOD DUP1 MULMOD SWAP3 DUP2 DUP1 DUP3 DUP1 MULMOD SWAP2 DUP2 DUP1 DUP3 DUP1 MULMOD SWAP2 DUP2 DUP2 DUP1 MULMOD MULMOD MULMOD MULMOD SWAP2 DUP1 MULMOD MULMOD DUP1 MULMOD DUP1 MULMOD DUP1 MULMOD DUP1 MULMOD DUP1 MULMOD DUP1 MULMOD DUP1 MULMOD DUP1 MULMOD DUP1 MULMOD DUP2 DUP1 DUP1 DUP1 DUP12 DUP1 MULMOD DUP2 DUP13 DUP2 DUP2 DUP1 MULMOD MULMOD MULMOD DUP2 DUP1 DUP13 DUP2 DUP2 DUP1 MULMOD MULMOD DUP2 DUP14 DUP2 DUP2 DUP1 MULMOD MULMOD MULMOD MULMOD SWAP2 DUP1 MULMOD MULMOD DUP1 MULMOD DUP1 MULMOD DUP1 MULMOD SWAP3 DUP2 DUP1 DUP3 DUP1 MULMOD SWAP2 DUP2 DUP2 DUP1 MULMOD MULMOD MULMOD SWAP2 DUP1 MULMOD MULMOD DUP1 MULMOD DUP1 MULMOD DUP1 MULMOD DUP1 MULMOD DUP2 DUP1 DUP14 DUP2 DUP1 DUP3 DUP2 DUP2 DUP1 MULMOD MULMOD SWAP2 DUP2 DUP1 DUP3 DUP2 DUP2 DUP1 MULMOD MULMOD SWAP2 DUP2 DUP2 DUP1 MULMOD MULMOD MULMOD MULMOD SWAP2 DUP1 MULMOD MULMOD DUP1 MULMOD DUP1 MULMOD DUP1 MULMOD DUP1 MULMOD DUP1 MULMOD DUP1 MULMOD DUP2 DUP1 DUP1 DUP1 DUP9 DUP1 MULMOD DUP2 DUP10 DUP2 DUP2 DUP1 MULMOD MULMOD MULMOD DUP2 DUP1 DUP10 DUP2 DUP2 DUP1 MULMOD MULMOD DUP2 DUP11 DUP2 DUP2 DUP1 MULMOD MULMOD MULMOD MULMOD SWAP2 DUP1 MULMOD MULMOD DUP1 MULMOD DUP1 MULMOD MULMOD DUP1 MULMOD DUP1 MULMOD DUP1 MULMOD DUP1 MULMOD DUP1 MULMOD DUP1 MULMOD SWAP3 DUP2 DUP1 DUP3 DUP1 MULMOD SWAP2 DUP2 DUP1 DUP3 DUP1 MULMOD SWAP2 DUP2 DUP2 DUP1 MULMOD MULMOD MULMOD MULMOD SWAP2 DUP1 MULMOD MULMOD DUP1 MULMOD DUP1 MULMOD DUP1 MULMOD DUP1 MULMOD DUP1 MULMOD DUP2 DUP1 DUP1 DUP13 DUP1 MULMOD DUP2 DUP14 DUP2 DUP1 DUP3 DUP1 MULMOD SWAP2 DUP2 DUP2 DUP1 MULMOD MULMOD MULMOD MULMOD SWAP2 DUP1 MULMOD MULMOD DUP1 MULMOD DUP1 MULMOD DUP1 MULMOD DUP1 MULMOD DUP2 DUP1 DUP1 DUP8 DUP1 MULMOD DUP2 DUP9 DUP2 DUP2 DUP1 MULMOD MULMOD MULMOD SWAP2 DUP1 MULMOD MULMOD DUP1 MULMOD DUP1 MULMOD MULMOD DUP1 MULMOD DUP1 MULMOD DUP1 MULMOD DUP1 MULMOD DUP1 MULMOD DUP1 MULMOD SWAP3 DUP2 DUP1 DUP1 DUP4 DUP2 DUP2 DUP1 MULMOD MULMOD DUP2 DUP5 DUP2 DUP2 DUP1 MULMOD MULMOD MULMOD SWAP2 DUP2 DUP1 DUP3 DUP1 MULMOD SWAP2 DUP2 DUP1 DUP3 DUP1 MULMOD SWAP2 DUP2 DUP2 DUP1 MULMOD MULMOD MULMOD MULMOD MULMOD SWAP2 DUP1 MULMOD MULMOD DUP1 MULMOD DUP1 MULMOD DUP1 MULMOD DUP1 MULMOD DUP1 MULMOD DUP2 DUP1 DUP1 DUP1 DUP12 DUP2 DUP2 DUP1 MULMOD MULMOD DUP2 DUP13 DUP2 DUP2 DUP1 MULMOD MULMOD MULMOD DUP2 DUP1 DUP13 DUP2 DUP2 DUP1 MULMOD MULMOD DUP2 DUP14 DUP2 DUP1 DUP3 DUP2 DUP2 DUP1 MULMOD MULMOD SWAP2 DUP2 DUP2 DUP1 MULMOD MULMOD MULMOD MULMOD MULMOD SWAP2 DUP1 MULMOD MULMOD DUP1 MULMOD DUP1 MULMOD DUP1 MULMOD DUP1 MULMOD DUP1 MULMOD MULMOD DUP1 MULMOD DUP1 MULMOD DUP1 MULMOD DUP1 MULMOD DUP1 MULMOD DUP1 MULMOD MULMOD DUP1 MULMOD DUP1 MULMOD DUP1 MULMOD DUP1 MULMOD SWAP3 DUP2 DUP2 DUP1 MULMOD MULMOD SWAP2 DUP1 MULMOD MULMOD DUP1 MULMOD DUP1 MULMOD DUP1 MULMOD DUP1 MULMOD DUP1 MULMOD DUP1 MULMOD DUP1 MULMOD DUP1 MULMOD DUP2 DUP1 DUP1 DUP1 DUP11 DUP1 MULMOD DUP2 DUP12 DUP2 DUP2 DUP1 MULMOD MULMOD MULMOD DUP2 DUP1 DUP12 DUP2 DUP2 DUP1 MULMOD MULMOD DUP2 DUP13 DUP2 DUP2 DUP1 MULMOD MULMOD MULMOD MULMOD SWAP2 DUP1 MULMOD MULMOD DUP1 MULMOD DUP1 MULMOD SWAP3 DUP2 DUP2 DUP1 MULMOD MULMOD SWAP2 DUP1 MULMOD MULMOD DUP1 MULMOD DUP1 MULMOD DUP2 DUP1 DUP14 DUP2 DUP2 DUP1 MULMOD MULMOD SWAP2 DUP1 MULMOD MULMOD DUP1 MULMOD DUP1 MULMOD DUP1 MULMOD DUP1 MULMOD DUP1 MULMOD DUP1 MULMOD DUP1 MULMOD SWAP3 DUP2 DUP1 DUP1 DUP4 DUP2 DUP2 DUP1 MULMOD MULMOD DUP2 DUP5 DUP2 DUP2 DUP1 MULMOD MULMOD MULMOD SWAP2 DUP2 DUP1 DUP3 DUP2 DUP2 DUP1 MULMOD MULMOD SWAP2 DUP2 DUP1 DUP3 DUP2 DUP2 DUP1 MULMOD MULMOD SWAP2 DUP2 DUP2 DUP1 MULMOD MULMOD MULMOD MULMOD MULMOD SWAP2 DUP1 MULMOD MULMOD DUP1 MULMOD DUP1 MULMOD DUP1 MULMOD DUP2 DUP1 DUP14 DUP2 DUP1 DUP3 DUP2 DUP2 DUP1 MULMOD MULMOD SWAP2 DUP2 DUP1 DUP3 DUP2 DUP2 DUP1 MULMOD MULMOD SWAP2 DUP2 DUP2 DUP1 MULMOD MULMOD MULMOD MULMOD SWAP2 DUP1 MULMOD MULMOD DUP1 MULMOD DUP1 MULMOD DUP1 MULMOD DUP2 DUP1 DUP1 DUP1 DUP12 DUP2 DUP2 DUP1 MULMOD MULMOD DUP2 DUP13 DUP2 DUP2 DUP1 MULMOD MULMOD MULMOD DUP2 DUP1 DUP13 DUP2 DUP2 DUP1 MULMOD MULMOD DUP2 DUP14 DUP2 DUP1 DUP3 DUP2 DUP2 DUP1 MULMOD MULMOD SWAP2 DUP2 DUP2 DUP1 MULMOD MULMOD MULMOD MULMOD MULMOD SWAP2 DUP1 MULMOD MULMOD DUP1 MULMOD DUP1 MULMOD DUP2 DUP1 DUP1 DUP8 DUP1 MULMOD DUP2 DUP9 DUP2 DUP2 DUP1 MULMOD MULMOD MULMOD SWAP2 DUP1 MULMOD MULMOD DUP1 MULMOD DUP1 MULMOD MULMOD DUP1 MULMOD DUP1 MULMOD DUP1 MULMOD DUP1 MULMOD DUP1 MULMOD SWAP3 DUP2 DUP1 DUP3 DUP1 MULMOD SWAP2 DUP2 DUP2 DUP1 MULMOD MULMOD MULMOD SWAP2 DUP1 MULMOD MULMOD SWAP1 JUMP JUMPDEST SWAP2 SWAP1 SWAP2 PUSH32 0x30644E72E131A029B85045B68181585D97816A916871CA8D3C208C16D87CFD47 SWAP1 DUP2 PUSH1 0x0 DUP6 MULMOD DUP3 SUB DUP3 DUP2 GT PUSH2 0x1773 JUMPI PUSH1 0x0 DUP4 PUSH1 0x1 DUP2 DUP1 SWAP5 DUP2 DUP4 DUP9 MULMOD ADDMOD SWAP8 MULMOD SWAP3 MULMOD ADDMOD SWAP1 JUMP JUMPDEST SWAP1 SWAP4 SWAP3 SWAP2 PUSH32 0x30644E72E131A029B85045B68181585D97816A916871CA8D3C208C16D87CFD47 SWAP3 DUP4 DUP2 DUP8 MULMOD DUP5 SUB DUP5 DUP2 GT PUSH2 0x1773 JUMPI DUP3 DUP6 DUP1 SWAP5 SWAP3 DUP2 DUP1 SWAP5 DUP9 MULMOD ADDMOD SWAP8 MULMOD SWAP3 MULMOD ADDMOD SWAP1 JUMP JUMPDEST SWAP4 SWAP3 SWAP1 SWAP4 PUSH32 0x30644E72E131A029B85045B68181585D97816A916871CA8D3C208C16D87CFD47 SWAP3 DUP4 SUB SWAP2 DUP4 DUP4 GT PUSH2 0x1773 JUMPI DUP4 SUB SWAP2 DUP4 DUP4 GT PUSH2 0x1773 JUMPI DUP4 SWAP2 ADDMOD SWAP4 ADDMOD SWAP1 JUMP JUMPDEST SWAP3 SWAP4 DUP3 SWAP2 DUP6 PUSH32 0x30644E72E131A029B85045B68181585D97816A916871CA8D3C208C16D87CFD47 PUSH1 0x3 DUP4 MULMOD DUP3 DUP8 PUSH32 0x30644E72E131A029B85045B68181585D97816A916871CA8D3C208C16D87CFD47 PUSH1 0x3 DUP3 MULMOD SWAP3 PUSH2 0x41D5 SWAP4 PUSH2 0x40F2 JUMP JUMPDEST SWAP1 SWAP7 PUSH2 0x41E1 DUP4 DUP8 PUSH2 0x40AA JUMP JUMPDEST PUSH2 0x41F1 DUP2 SWAP12 DUP4 SWAP10 DUP5 SWAP9 DUP5 SWAP7 PUSH2 0x40F2 JUMP JUMPDEST PUSH2 0x41FB SWAP4 SWAP2 PUSH2 0x40F2 JUMP JUMPDEST SWAP4 SWAP1 SWAP8 PUSH2 0x420A DUP5 DUP12 DUP2 DUP2 PUSH2 0x40F2 JUMP JUMPDEST PUSH32 0x30644E72E131A029B85045B68181585D97816A916871CA8D3C208C16D87CFD47 PUSH1 0x8 DUP9 MULMOD SWAP1 PUSH32 0x30644E72E131A029B85045B68181585D97816A916871CA8D3C208C16D87CFD47 PUSH1 0x8 DUP14 MULMOD SWAP1 PUSH2 0x425F SWAP4 PUSH2 0x4138 JUMP JUMPDEST SWAP10 DUP2 SWAP12 DUP12 SWAP8 SWAP3 SWAP7 PUSH2 0x4272 DUP8 DUP12 DUP2 DUP2 PUSH2 0x40F2 JUMP JUMPDEST SWAP10 DUP2 SWAP16 PUSH32 0x30644E72E131A029B85045B68181585D97816A916871CA8D3C208C16D87CFD47 PUSH1 0x4 DUP14 SWAP8 SWAP5 SWAP9 MULMOD SWAP3 PUSH1 0x4 PUSH32 0x30644E72E131A029B85045B68181585D97816A916871CA8D3C208C16D87CFD47 SWAP2 MULMOD SWAP3 PUSH2 0x42CD SWAP4 PUSH2 0x4138 JUMP JUMPDEST PUSH2 0x42D7 SWAP4 SWAP2 PUSH2 0x40F2 JUMP JUMPDEST SWAP4 SWAP1 SWAP5 PUSH32 0x30644E72E131A029B85045B68181585D97816A916871CA8D3C208C16D87CFD47 PUSH1 0x8 DUP3 MULMOD SWAP2 PUSH32 0x30644E72E131A029B85045B68181585D97816A916871CA8D3C208C16D87CFD47 PUSH1 0x8 DUP3 MULMOD SWAP3 PUSH2 0x432F SWAP4 PUSH2 0x40F2 JUMP JUMPDEST PUSH2 0x4339 SWAP4 SWAP2 PUSH2 0x40F2 JUMP JUMPDEST SWAP2 PUSH2 0x4343 SWAP4 PUSH2 0x4138 JUMP JUMPDEST SWAP7 SWAP1 SWAP8 PUSH1 0x2 PUSH32 0x30644E72E131A029B85045B68181585D97816A916871CA8D3C208C16D87CFD47 SWAP2 MULMOD SWAP3 PUSH1 0x2 PUSH32 0x30644E72E131A029B85045B68181585D97816A916871CA8D3C208C16D87CFD47 SWAP2 MULMOD SWAP3 PUSH2 0x439B SWAP4 PUSH2 0x40F2 JUMP JUMPDEST SWAP7 SWAP1 SWAP8 PUSH2 0x43A7 SWAP4 PUSH2 0x40F2 JUMP JUMPDEST PUSH1 0x8 PUSH32 0x30644E72E131A029B85045B68181585D97816A916871CA8D3C208C16D87CFD47 SWAP2 MULMOD SWAP1 PUSH1 0x8 PUSH32 0x30644E72E131A029B85045B68181585D97816A916871CA8D3C208C16D87CFD47 SWAP2 MULMOD SWAP2 JUMP JUMPDEST PUSH1 0x2 DUP1 SWAP2 SWAP4 SWAP3 SWAP4 PUSH32 0x30644E72E131A029B85045B68181585D97816A916871CA8D3C208C16D87CFD47 SWAP3 DUP4 SWAP2 MULMOD SWAP4 MULMOD SWAP1 JUMP INVALID LOG2 PUSH5 0x6970667358 0x22 SLT KECCAK256 LOG0 PUSH27 0x1C038D83E63C8C71F61471E7D83B98143522F68B078152F5DF06B 0x22 CALLVALUE LOG2 PUSH5 0x736F6C6343 STOP ADDMOD XOR STOP CALLER "},"methodIdentifiers":{"evaluate(string,string,string)":"8309435a","getPolicy(string,string)":"2e06aac6","getTokenHash((string,string,string,uint256))":"df1a4f43","registerPolicy((string,string,string,(string,string)[],uint8,uint256[2],uint8))":"01eb0e59","removePolicy((string,string,string,(string,string)[],uint256[2],uint8))":"6fec6a9a","systemThreatLevel()":"aa10d77e","verifyTokenHash(bytes32)":"67f76ad2"}}}}}