{"contracts/lib/BN256G2.sol":{"BN256G2":{"abi":[{"inputs":[],"name":"GetFieldModulus","outputs":[{"internalType":"uint256","name":"","type":"uint256"}],"stateMutability":"pure","type":"function"},{"inputs":[{"internalType":"uint256","name":"pt1xx","type":"uint256"},{"internalType":"uint256","name":"pt1xy","type":"uint256"},{"internalType":"uint256","name":"pt1yx","type":"uint256"},{"internalType":"uint256","name":"pt1yy","type":"uint256"},{"internalType":"uint256","name":"pt1zx","type":"uint256"},{"internalType":"uint256","name":"pt1zy","type":"uint256"},{"internalType":"uint256","name":"pt2xx","type":"uint256"},{"internalType":"uint256","name":"pt2xy","type":"uint256"},{"internalType":"uint256","name":"pt2yx","type":"uint256"},{"internalType":"uint256","name":"pt2yy","type":"uint256"},{"internalType":"uint256","name":"pt2zx","type":"uint256"},{"internalType":"uint256","name":"pt2zy","type":"uint256"}],"name":"_ECTwistAddJacobian","outputs":[{"internalType":"uint256[6]","name":"pt3","type":"uint256[6]"}],"stateMutability":"pure","type":"function"},{"inputs":[{"internalType":"uint256","name":"pt1xx","type":"uint256"},{"internalType":"uint256","name":"pt1xy","type":"uint256"},{"internalType":"uint256","name":"pt1yx","type":"uint256"},{"internalType":"uint256","name":"pt1yy","type":"uint256"},{"internalType":"uint256","name":"pt1zx","type":"uint256"},{"internalType":"uint256","name":"pt1zy","type":"uint256"}],"name":"_ECTwistDoubleJacobian","outputs":[{"internalType":"uint256","name":"pt2xx","type":"uint256"},{"internalType":"uint256","name":"pt2xy","type":"uint256"},{"internalType":"uint256","name":"pt2yx","type":"uint256"},{"internalType":"uint256","name":"pt2yy","type":"uint256"},{"internalType":"uint256","name":"pt2zx","type":"uint256"},{"internalType":"uint256","name":"pt2zy","type":"uint256"}],"stateMutability":"pure","type":"function"},{"inputs":[{"internalType":"uint256","name":"d","type":"uint256"},{"internalType":"uint256","name":"pt1xx","type":"uint256"},{"internalType":"uint256","name":"pt1xy","type":"uint256"},{"internalType":"uint256","name":"pt1yx","type":"uint256"},{"internalType":"uint256","name":"pt1yy","type":"uint256"},{"internalType":"uint256","name":"pt1zx","type":"uint256"},{"internalType":"uint256","name":"pt1zy","type":"uint256"}],"name":"_ECTwistMulJacobian","outputs":[{"internalType":"uint256[6]","name":"pt2","type":"uint256[6]"}],"stateMutability":"pure","type":"function"},{"inputs":[{"internalType":"uint256","name":"xx","type":"uint256"},{"internalType":"uint256","name":"xy","type":"uint256"},{"internalType":"uint256","name":"yx","type":"uint256"},{"internalType":"uint256","name":"yy","type":"uint256"}],"name":"isOnCurve","outputs":[{"internalType":"bool","name":"","type":"bool"}],"stateMutability":"pure","type":"function"}],"evm":{"bytecode":{"linkReferences":{},"object":"6080806040523461001a5761318b9081610020823930815050f35b600080fdfe610180604052600436101561001357600080fd5b6000803560e01c80634a863fe01461030357806355a3e90f146102af5780635a3c8d36146101ec5780637c16f7c0146100c35763f2664d9a1461005557600080fd5b60c07ffffffffffffffffffffffffffffffffffffffffffffffffffffffffffffffffc3601126100c05760c061009b60a43560843560643560443560243560043561177f565b93604093919351958652602086015260408501526060840152608083015260a0820152f35b80fd5b5060807ffffffffffffffffffffffffffffffffffffffffffffffffffffffffffffffffc3601126100c0576024357f30644e72e131a029b85045b68181585d97816a916871ca8d3c208c16d87cfd4780606435816044358180600435818981808980098188800990610134916130f6565b93818380098282800990610147916130f6565b9482808084870981878609089e8f098383880990610164916130f6565b61016d916130f6565b9c09920908938183820992090890610184916130f6565b927f054fb1321278f57b36922d1d65a0ed99e1cca4ac0e95daea09b8a53ab3dbc46290081590602092826101bf575b50506040519015158152f35b7f2fcd3ac2a640a154eb23960892a85a68f031ca0c8344b23a577dcf1052b9e775919250081582806101b3565b5060e07ffffffffffffffffffffffffffffffffffffffffffffffffffffffffffffffffc3601126100c057506044356004356024358160c43560a435608435606435610236610398565b965b61024e576040518061024a898261036a565b0390f35b600196959697888616610276575b61026795969761177f565b9397949590941c939184610238565b6102a785858585858d8d6102679d9e51906020810151604082015160608301519160a06080850151940151946103ec565b96955061025c565b50807ffffffffffffffffffffffffffffffffffffffffffffffffffffffffffffffffc3601126100c05760206040517f30644e72e131a029b85045b68181585d97816a916871ca8d3c208c16d87cfd478152f35b506101807ffffffffffffffffffffffffffffffffffffffffffffffffffffffffffffffffc3601126100c05761024a6103626101643561014435610124356101043560e43560c43560a4356084356064356044356024356004356103ec565b604051918291825b60c0810192916000915b6006831061038157505050565b600190825181526020809101920192019190610374565b6040519060c0820182811067ffffffffffffffff8211176103bd5760405260c0368337565b7f4e487b7100000000000000000000000000000000000000000000000000000000600052604160045260246000fd5b92919a9699909394959998979860a05260c052610407610398565b99841580611777575b1561043f5750505050505060a085015260c05160808501526060840152604083015260a0516020830152815290565b60c09b99949695989b51158061176f575b611746576104858c7f30644e72e131a029b85045b68181585d97816a916871ca8d3c208c16d87cfd4789818d8d0992096130f6565b936104d87f30644e72e131a029b85045b68181585d97816a916871ca8d3c208c16d87cfd478885097f30644e72e131a029b85045b68181585d97816a916871ca8d3c208c16d87cfd4760c05185096130f6565b8c60607f30644e72e131a029b85045b68181585d97816a916871ca8d3c208c16d87cfd478060c0518809818c88090891015260408d01526105617f30644e72e131a029b85045b68181585d97816a916871ca8d3c208c16d87cfd478b60a051097f30644e72e131a029b85045b68181585d97816a916871ca8d3c208c16d87cfd478a89096130f6565b6080528b6105b77f30644e72e131a029b85045b68181585d97816a916871ca8d3c208c16d87cfd478984097f30644e72e131a029b85045b68181585d97816a916871ca8d3c208c16d87cfd4760c05188096130f6565b8060807f30644e72e131a029b85045b68181585d97816a916871ca8d3c208c16d87cfd478060c0518709818d8b0908938460a08201520152608051149081611711575b5061165b575050505096839186979887839b7f30644e72e131a029b85045b68181585d97816a916871ca8d3c208c16d87cfd4787830960c0517f30644e72e131a029b85045b68181585d97816a916871ca8d3c208c16d87cfd4790880990610661916130f6565b98604086015193606087015194610677916130f6565b987f30644e72e131a029b85045b68181585d97816a916871ca8d3c208c16d87cfd479109917f30644e72e131a029b85045b68181585d97816a916871ca8d3c208c16d87cfd479109907f30644e72e131a029b85045b68181585d97816a916871ca8d3c208c16d87cfd479108906106ed916130f6565b93608083015160a08401519060805190610706916130f6565b998a938660a051907f30644e72e131a029b85045b68181585d97816a916871ca8d3c208c16d87cfd479109917f30644e72e131a029b85045b68181585d97816a916871ca8d3c208c16d87cfd479109907f30644e72e131a029b85045b68181585d97816a916871ca8d3c208c16d87cfd47910890610783916130f6565b937f30644e72e131a029b85045b68181585d97816a916871ca8d3c208c16d87cfd478580097f30644e72e131a029b85045b68181585d97816a916871ca8d3c208c16d87cfd47848009906107d6916130f6565b976080850151998860a0870151948c8c877f30644e72e131a029b85045b68181585d97816a916871ca8d3c208c16d87cfd478a8d097f30644e72e131a029b85045b68181585d97816a916871ca8d3c208c16d87cfd478d8c09907f30644e72e131a029b85045b68181585d97816a916871ca8d3c208c16d87cfd479108907f30644e72e131a029b85045b68181585d97816a916871ca8d3c208c16d87cfd479109917f30644e72e131a029b85045b68181585d97816a916871ca8d3c208c16d87cfd479109906108a5916130f6565b948c8a7f30644e72e131a029b85045b68181585d97816a916871ca8d3c208c16d87cfd478a82097f30644e72e131a029b85045b68181585d97816a916871ca8d3c208c16d87cfd47828c09907f30644e72e131a029b85045b68181585d97816a916871ca8d3c208c16d87cfd479108907f30644e72e131a029b85045b68181585d97816a916871ca8d3c208c16d87cfd4791097f30644e72e131a029b85045b68181585d97816a916871ca8d3c208c16d87cfd478a830990610966916130f6565b99868c818d8d60c0517f30644e72e131a029b85045b68181585d97816a916871ca8d3c208c16d87cfd47908c097f30644e72e131a029b85045b68181585d97816a916871ca8d3c208c16d87cfd478a8a09907f30644e72e131a029b85045b68181585d97816a916871ca8d3c208c16d87cfd479108907f30644e72e131a029b85045b68181585d97816a916871ca8d3c208c16d87cfd478186097f30644e72e131a029b85045b68181585d97816a916871ca8d3c208c16d87cfd47868309907f30644e72e131a029b85045b68181585d97816a916871ca8d3c208c16d87cfd479108907f30644e72e131a029b85045b68181585d97816a916871ca8d3c208c16d87cfd4791097f30644e72e131a029b85045b68181585d97816a916871ca8d3c208c16d87cfd47858909907f30644e72e131a029b85045b68181585d97816a916871ca8d3c208c16d87cfd479108907f30644e72e131a029b85045b68181585d97816a916871ca8d3c208c16d87cfd479109917f30644e72e131a029b85045b68181585d97816a916871ca8d3c208c16d87cfd47910990610b06916130f6565b938c7f30644e72e131a029b85045b68181585d97816a916871ca8d3c208c16d87cfd478184097f30644e72e131a029b85045b68181585d97816a916871ca8d3c208c16d87cfd47848309907f30644e72e131a029b85045b68181585d97816a916871ca8d3c208c16d87cfd479108907f30644e72e131a029b85045b68181585d97816a916871ca8d3c208c16d87cfd479109917f30644e72e131a029b85045b68181585d97816a916871ca8d3c208c16d87cfd479109907f30644e72e131a029b85045b68181585d97816a916871ca8d3c208c16d87cfd479108907f30644e72e131a029b85045b68181585d97816a916871ca8d3c208c16d87cfd47910960c0517f30644e72e131a029b85045b68181585d97816a916871ca8d3c208c16d87cfd479088097f30644e72e131a029b85045b68181585d97816a916871ca8d3c208c16d87cfd47868609907f30644e72e131a029b85045b68181585d97816a916871ca8d3c208c16d87cfd4791087f30644e72e131a029b85045b68181585d97816a916871ca8d3c208c16d87cfd47908d09907f30644e72e131a029b85045b68181585d97816a916871ca8d3c208c16d87cfd47910860a0820152608001528c8a8c7f30644e72e131a029b85045b68181585d97816a916871ca8d3c208c16d87cfd478180097f30644e72e131a029b85045b68181585d97816a916871ca8d3c208c16d87cfd4787800990610d19916130f6565b957f30644e72e131a029b85045b68181585d97816a916871ca8d3c208c16d87cfd47818309917f30644e72e131a029b85045b68181585d97816a916871ca8d3c208c16d87cfd479109907f30644e72e131a029b85045b68181585d97816a916871ca8d3c208c16d87cfd479108918b60c0517f30644e72e131a029b85045b68181585d97816a916871ca8d3c208c16d87cfd479089097f30644e72e131a029b85045b68181585d97816a916871ca8d3c208c16d87cfd47878709907f30644e72e131a029b85045b68181585d97816a916871ca8d3c208c16d87cfd4791087f30644e72e131a029b85045b68181585d97816a916871ca8d3c208c16d87cfd479085097f30644e72e131a029b85045b68181585d97816a916871ca8d3c208c16d87cfd478a890990610e49916130f6565b90610e53916130f6565b9a7f30644e72e131a029b85045b68181585d97816a916871ca8d3c208c16d87cfd478184097f30644e72e131a029b85045b68181585d97816a916871ca8d3c208c16d87cfd47848309907f30644e72e131a029b85045b68181585d97816a916871ca8d3c208c16d87cfd479108907f30644e72e131a029b85045b68181585d97816a916871ca8d3c208c16d87cfd479109917f30644e72e131a029b85045b68181585d97816a916871ca8d3c208c16d87cfd479109907f30644e72e131a029b85045b68181585d97816a916871ca8d3c208c16d87cfd479108957f30644e72e131a029b85045b68181585d97816a916871ca8d3c208c16d87cfd4791099360c0517f30644e72e131a029b85045b68181585d97816a916871ca8d3c208c16d87cfd479109917f30644e72e131a029b85045b68181585d97816a916871ca8d3c208c16d87cfd479109907f30644e72e131a029b85045b68181585d97816a916871ca8d3c208c16d87cfd4791087f30644e72e131a029b85045b68181585d97816a916871ca8d3c208c16d87cfd479109907f30644e72e131a029b85045b68181585d97816a916871ca8d3c208c16d87cfd47910890611010916130f6565b927f30644e72e131a029b85045b68181585d97816a916871ca8d3c208c16d87cfd476002830961103f916130f6565b9289868c7f30644e72e131a029b85045b68181585d97816a916871ca8d3c208c16d87cfd47818309917f30644e72e131a029b85045b68181585d97816a916871ca8d3c208c16d87cfd479109907f30644e72e131a029b85045b68181585d97816a916871ca8d3c208c16d87cfd479108907f30644e72e131a029b85045b68181585d97816a916871ca8d3c208c16d87cfd4791097f30644e72e131a029b85045b68181585d97816a916871ca8d3c208c16d87cfd47848b09907f30644e72e131a029b85045b68181585d97816a916871ca8d3c208c16d87cfd47910860027f30644e72e131a029b85045b68181585d97816a916871ca8d3c208c16d87cfd479109611149916130f6565b927f30644e72e131a029b85045b68181585d97816a916871ca8d3c208c16d87cfd478487097f30644e72e131a029b85045b68181585d97816a916871ca8d3c208c16d87cfd47828d099061119c916130f6565b8d858d7f30644e72e131a029b85045b68181585d97816a916871ca8d3c208c16d87cfd47858b09917f30644e72e131a029b85045b68181585d97816a916871ca8d3c208c16d87cfd479109907f30644e72e131a029b85045b68181585d97816a916871ca8d3c208c16d87cfd47910890602001528d5261121b916130f6565b977f30644e72e131a029b85045b68181585d97816a916871ca8d3c208c16d87cfd478a86097f30644e72e131a029b85045b68181585d97816a916871ca8d3c208c16d87cfd47868c09907f30644e72e131a029b85045b68181585d97816a916871ca8d3c208c16d87cfd479108907f30644e72e131a029b85045b68181585d97816a916871ca8d3c208c16d87cfd479109907f30644e72e131a029b85045b68181585d97816a916871ca8d3c208c16d87cfd47908809907f30644e72e131a029b85045b68181585d97816a916871ca8d3c208c16d87cfd479108906112ff916130f6565b947f30644e72e131a029b85045b68181585d97816a916871ca8d3c208c16d87cfd478685097f30644e72e131a029b85045b68181585d97816a916871ca8d3c208c16d87cfd4788870990611352916130f6565b9260408b01519160608c015194858b7f30644e72e131a029b85045b68181585d97816a916871ca8d3c208c16d87cfd478186097f30644e72e131a029b85045b68181585d97816a916871ca8d3c208c16d87cfd47868309907f30644e72e131a029b85045b68181585d97816a916871ca8d3c208c16d87cfd479108907f30644e72e131a029b85045b68181585d97816a916871ca8d3c208c16d87cfd4791097f30644e72e131a029b85045b68181585d97816a916871ca8d3c208c16d87cfd47858509907f30644e72e131a029b85045b68181585d97816a916871ca8d3c208c16d87cfd479108907f30644e72e131a029b85045b68181585d97816a916871ca8d3c208c16d87cfd4791097f30644e72e131a029b85045b68181585d97816a916871ca8d3c208c16d87cfd478587099061148b916130f6565b611494916130f6565b997f30644e72e131a029b85045b68181585d97816a916871ca8d3c208c16d87cfd478184097f30644e72e131a029b85045b68181585d97816a916871ca8d3c208c16d87cfd47848309907f30644e72e131a029b85045b68181585d97816a916871ca8d3c208c16d87cfd479108907f30644e72e131a029b85045b68181585d97816a916871ca8d3c208c16d87cfd479109917f30644e72e131a029b85045b68181585d97816a916871ca8d3c208c16d87cfd479109907f30644e72e131a029b85045b68181585d97816a916871ca8d3c208c16d87cfd479108907f30644e72e131a029b85045b68181585d97816a916871ca8d3c208c16d87cfd479109917f30644e72e131a029b85045b68181585d97816a916871ca8d3c208c16d87cfd479109907f30644e72e131a029b85045b68181585d97816a916871ca8d3c208c16d87cfd479108937f30644e72e131a029b85045b68181585d97816a916871ca8d3c208c16d87cfd479109917f30644e72e131a029b85045b68181585d97816a916871ca8d3c208c16d87cfd479109907f30644e72e131a029b85045b68181585d97816a916871ca8d3c208c16d87cfd4791089061164f916130f6565b60608401526040830152565b94509450949590979987878b9460408601511494856116d5575b50505050506116ae57505050505050600060a0820152600060808201526000606082015260016040820152600060208201526001815290565b6116b79561177f565b60a08701526080860152606085015260408401526020830152815290565b6060015194507f30644e72e131a029b85045b68181585d97816a916871ca8d3c208c16d87cfd479384929183910992090814388087878b611675565b90507f30644e72e131a029b85045b68181585d97816a916871ca8d3c208c16d87cfd47808a60a05109818d8a090814386105fa565b965094935096985094905060a08701526080860152606085015260408401526020830152815290565b508515610450565b508515610410565b92909495916101405261010052837f30644e72e131a029b85045b68181585d97816a916871ca8d3c208c16d87cfd4760038209907f30644e72e131a029b85045b68181585d97816a916871ca8d3c208c16d87cfd479109827f30644e72e131a029b85045b68181585d97816a916871ca8d3c208c16d87cfd4760038209907f30644e72e131a029b85045b68181585d97816a916871ca8d3c208c16d87cfd4791099061182a916130f6565b8561010051907f30644e72e131a029b85045b68181585d97816a916871ca8d3c208c16d87cfd4791098461014051907f30644e72e131a029b85045b68181585d97816a916871ca8d3c208c16d87cfd47910990611886916130f6565b60e052610100517f30644e72e131a029b85045b68181585d97816a916871ca8d3c208c16d87cfd47908609610140517f30644e72e131a029b85045b68181585d97816a916871ca8d3c208c16d87cfd47908509906118e3916130f6565b948461010051907f30644e72e131a029b85045b68181585d97816a916871ca8d3c208c16d87cfd4791098761014051907f30644e72e131a029b85045b68181585d97816a916871ca8d3c208c16d87cfd479109907f30644e72e131a029b85045b68181585d97816a916871ca8d3c208c16d87cfd479108610140517f30644e72e131a029b85045b68181585d97816a916871ca8d3c208c16d87cfd47908309610100517f30644e72e131a029b85045b68181585d97816a916871ca8d3c208c16d87cfd47908709907f30644e72e131a029b85045b68181585d97816a916871ca8d3c208c16d87cfd479108907f30644e72e131a029b85045b68181585d97816a916871ca8d3c208c16d87cfd47910960e0517f30644e72e131a029b85045b68181585d97816a916871ca8d3c208c16d87cfd4790880990611a23916130f6565b95847f30644e72e131a029b85045b68181585d97816a916871ca8d3c208c16d87cfd4760038409907f30644e72e131a029b85045b68181585d97816a916871ca8d3c208c16d87cfd479109827f30644e72e131a029b85045b68181585d97816a916871ca8d3c208c16d87cfd4760038809907f30644e72e131a029b85045b68181585d97816a916871ca8d3c208c16d87cfd479109907f30644e72e131a029b85045b68181585d97816a916871ca8d3c208c16d87cfd479108857f30644e72e131a029b85045b68181585d97816a916871ca8d3c208c16d87cfd4760038509907f30644e72e131a029b85045b68181585d97816a916871ca8d3c208c16d87cfd479109837f30644e72e131a029b85045b68181585d97816a916871ca8d3c208c16d87cfd4760038909907f30644e72e131a029b85045b68181585d97816a916871ca8d3c208c16d87cfd479109907f30644e72e131a029b85045b68181585d97816a916871ca8d3c208c16d87cfd479108907f30644e72e131a029b85045b68181585d97816a916871ca8d3c208c16d87cfd4791097f30644e72e131a029b85045b68181585d97816a916871ca8d3c208c16d87cfd4784800990611be6916130f6565b7f30644e72e131a029b85045b68181585d97816a916871ca8d3c208c16d87cfd4760088909611c14916130f6565b809760e051610140517f30644e72e131a029b85045b68181585d97816a916871ca8d3c208c16d87cfd47908609610100517f30644e72e131a029b85045b68181585d97816a916871ca8d3c208c16d87cfd47908a09907f30644e72e131a029b85045b68181585d97816a916871ca8d3c208c16d87cfd479108907f30644e72e131a029b85045b68181585d97816a916871ca8d3c208c16d87cfd4791098861010051907f30644e72e131a029b85045b68181585d97816a916871ca8d3c208c16d87cfd4791098b61014051907f30644e72e131a029b85045b68181585d97816a916871ca8d3c208c16d87cfd479109907f30644e72e131a029b85045b68181585d97816a916871ca8d3c208c16d87cfd4791087f30644e72e131a029b85045b68181585d97816a916871ca8d3c208c16d87cfd47908509907f30644e72e131a029b85045b68181585d97816a916871ca8d3c208c16d87cfd47910860087f30644e72e131a029b85045b68181585d97816a916871ca8d3c208c16d87cfd47910985887f30644e72e131a029b85045b68181585d97816a916871ca8d3c208c16d87cfd4760038809907f30644e72e131a029b85045b68181585d97816a916871ca8d3c208c16d87cfd479109867f30644e72e131a029b85045b68181585d97816a916871ca8d3c208c16d87cfd4760038c09907f30644e72e131a029b85045b68181585d97816a916871ca8d3c208c16d87cfd479109907f30644e72e131a029b85045b68181585d97816a916871ca8d3c208c16d87cfd479108907f30644e72e131a029b85045b68181585d97816a916871ca8d3c208c16d87cfd479109887f30644e72e131a029b85045b68181585d97816a916871ca8d3c208c16d87cfd4760038809907f30644e72e131a029b85045b68181585d97816a916871ca8d3c208c16d87cfd479109867f30644e72e131a029b85045b68181585d97816a916871ca8d3c208c16d87cfd4760038c09907f30644e72e131a029b85045b68181585d97816a916871ca8d3c208c16d87cfd479109907f30644e72e131a029b85045b68181585d97816a916871ca8d3c208c16d87cfd4791087f30644e72e131a029b85045b68181585d97816a916871ca8d3c208c16d87cfd47908809907f30644e72e131a029b85045b68181585d97816a916871ca8d3c208c16d87cfd47910890611f7b916130f6565b610160528761010051907f30644e72e131a029b85045b68181585d97816a916871ca8d3c208c16d87cfd4791098a61014051907f30644e72e131a029b85045b68181585d97816a916871ca8d3c208c16d87cfd479109907f30644e72e131a029b85045b68181585d97816a916871ca8d3c208c16d87cfd4791088861010051907f30644e72e131a029b85045b68181585d97816a916871ca8d3c208c16d87cfd4791098b61014051907f30644e72e131a029b85045b68181585d97816a916871ca8d3c208c16d87cfd479109907f30644e72e131a029b85045b68181585d97816a916871ca8d3c208c16d87cfd479108907f30644e72e131a029b85045b68181585d97816a916871ca8d3c208c16d87cfd47910960e0517f30644e72e131a029b85045b68181585d97816a916871ca8d3c208c16d87cfd47908009906120c0916130f6565b6101205260047f30644e72e131a029b85045b68181585d97816a916871ca8d3c208c16d87cfd479109906120f3916130f6565b90610160519060e051610140517f30644e72e131a029b85045b68181585d97816a916871ca8d3c208c16d87cfd47908609610100517f30644e72e131a029b85045b68181585d97816a916871ca8d3c208c16d87cfd47908a09907f30644e72e131a029b85045b68181585d97816a916871ca8d3c208c16d87cfd479108907f30644e72e131a029b85045b68181585d97816a916871ca8d3c208c16d87cfd479109908861010051907f30644e72e131a029b85045b68181585d97816a916871ca8d3c208c16d87cfd4791098b61014051907f30644e72e131a029b85045b68181585d97816a916871ca8d3c208c16d87cfd479109907f30644e72e131a029b85045b68181585d97816a916871ca8d3c208c16d87cfd4791087f30644e72e131a029b85045b68181585d97816a916871ca8d3c208c16d87cfd479109907f30644e72e131a029b85045b68181585d97816a916871ca8d3c208c16d87cfd47910860047f30644e72e131a029b85045b68181585d97816a916871ca8d3c208c16d87cfd47910990612281916130f6565b94807f30644e72e131a029b85045b68181585d97816a916871ca8d3c208c16d87cfd4760038509907f30644e72e131a029b85045b68181585d97816a916871ca8d3c208c16d87cfd479109837f30644e72e131a029b85045b68181585d97816a916871ca8d3c208c16d87cfd4760038409907f30644e72e131a029b85045b68181585d97816a916871ca8d3c208c16d87cfd479109907f30644e72e131a029b85045b68181585d97816a916871ca8d3c208c16d87cfd4791087f30644e72e131a029b85045b68181585d97816a916871ca8d3c208c16d87cfd479087097f30644e72e131a029b85045b68181585d97816a916871ca8d3c208c16d87cfd478584099061238c916130f6565b956101405160087f30644e72e131a029b85045b68181585d97816a916871ca8d3c208c16d87cfd479109966101005160087f30644e72e131a029b85045b68181585d97816a916871ca8d3c208c16d87cfd479109610100517f30644e72e131a029b85045b68181585d97816a916871ca8d3c208c16d87cfd47908209610140517f30644e72e131a029b85045b68181585d97816a916871ca8d3c208c16d87cfd47908b099061243a916130f6565b9160e0518d8c61010051907f30644e72e131a029b85045b68181585d97816a916871ca8d3c208c16d87cfd4791099061014051907f30644e72e131a029b85045b68181585d97816a916871ca8d3c208c16d87cfd479109907f30644e72e131a029b85045b68181585d97816a916871ca8d3c208c16d87cfd479108907f30644e72e131a029b85045b68181585d97816a916871ca8d3c208c16d87cfd4791098d8c61010051907f30644e72e131a029b85045b68181585d97816a916871ca8d3c208c16d87cfd4791099061014051907f30644e72e131a029b85045b68181585d97816a916871ca8d3c208c16d87cfd479109907f30644e72e131a029b85045b68181585d97816a916871ca8d3c208c16d87cfd47910860e051907f30644e72e131a029b85045b68181585d97816a916871ca8d3c208c16d87cfd479109907f30644e72e131a029b85045b68181585d97816a916871ca8d3c208c16d87cfd479108610140517f30644e72e131a029b85045b68181585d97816a916871ca8d3c208c16d87cfd47908409610100517f30644e72e131a029b85045b68181585d97816a916871ca8d3c208c16d87cfd47908d09907f30644e72e131a029b85045b68181585d97816a916871ca8d3c208c16d87cfd479108907f30644e72e131a029b85045b68181585d97816a916871ca8d3c208c16d87cfd479109610120517f30644e72e131a029b85045b68181585d97816a916871ca8d3c208c16d87cfd4790850990612665916130f6565b61266e916130f6565b986101205191610140517f30644e72e131a029b85045b68181585d97816a916871ca8d3c208c16d87cfd47910990610100517f30644e72e131a029b85045b68181585d97816a916871ca8d3c208c16d87cfd479109907f30644e72e131a029b85045b68181585d97816a916871ca8d3c208c16d87cfd479108907f30644e72e131a029b85045b68181585d97816a916871ca8d3c208c16d87cfd4791099060e0518a61010051907f30644e72e131a029b85045b68181585d97816a916871ca8d3c208c16d87cfd4791098d61014051907f30644e72e131a029b85045b68181585d97816a916871ca8d3c208c16d87cfd479109907f30644e72e131a029b85045b68181585d97816a916871ca8d3c208c16d87cfd479108907f30644e72e131a029b85045b68181585d97816a916871ca8d3c208c16d87cfd4791098a61010051907f30644e72e131a029b85045b68181585d97816a916871ca8d3c208c16d87cfd4791098d61014051907f30644e72e131a029b85045b68181585d97816a916871ca8d3c208c16d87cfd479109907f30644e72e131a029b85045b68181585d97816a916871ca8d3c208c16d87cfd47910860e051907f30644e72e131a029b85045b68181585d97816a916871ca8d3c208c16d87cfd479109907f30644e72e131a029b85045b68181585d97816a916871ca8d3c208c16d87cfd4791087f30644e72e131a029b85045b68181585d97816a916871ca8d3c208c16d87cfd479109907f30644e72e131a029b85045b68181585d97816a916871ca8d3c208c16d87cfd479108947f30644e72e131a029b85045b68181585d97816a916871ca8d3c208c16d87cfd47910992817f30644e72e131a029b85045b68181585d97816a916871ca8d3c208c16d87cfd4760038309907f30644e72e131a029b85045b68181585d97816a916871ca8d3c208c16d87cfd4791099160037f30644e72e131a029b85045b68181585d97816a916871ca8d3c208c16d87cfd479109907f30644e72e131a029b85045b68181585d97816a916871ca8d3c208c16d87cfd479109907f30644e72e131a029b85045b68181585d97816a916871ca8d3c208c16d87cfd4791087f30644e72e131a029b85045b68181585d97816a916871ca8d3c208c16d87cfd479109907f30644e72e131a029b85045b68181585d97816a916871ca8d3c208c16d87cfd479108906129df916130f6565b91928061010051907f30644e72e131a029b85045b68181585d97816a916871ca8d3c208c16d87cfd4791098661014051907f30644e72e131a029b85045b68181585d97816a916871ca8d3c208c16d87cfd479109907f30644e72e131a029b85045b68181585d97816a916871ca8d3c208c16d87cfd4791086101605160027f30644e72e131a029b85045b68181585d97816a916871ca8d3c208c16d87cfd479109907f30644e72e131a029b85045b68181585d97816a916871ca8d3c208c16d87cfd47910960e0517f30644e72e131a029b85045b68181585d97816a916871ca8d3c208c16d87cfd4760028809907f30644e72e131a029b85045b68181585d97816a916871ca8d3c208c16d87cfd47910990612afa916130f6565b9460e0516101605160027f30644e72e131a029b85045b68181585d97816a916871ca8d3c208c16d87cfd479109907f30644e72e131a029b85045b68181585d97816a916871ca8d3c208c16d87cfd479109908261010051907f30644e72e131a029b85045b68181585d97816a916871ca8d3c208c16d87cfd4791098861014051907f30644e72e131a029b85045b68181585d97816a916871ca8d3c208c16d87cfd479109907f30644e72e131a029b85045b68181585d97816a916871ca8d3c208c16d87cfd4791089060027f30644e72e131a029b85045b68181585d97816a916871ca8d3c208c16d87cfd479109907f30644e72e131a029b85045b68181585d97816a916871ca8d3c208c16d87cfd479109907f30644e72e131a029b85045b68181585d97816a916871ca8d3c208c16d87cfd479108949560e0518261010051907f30644e72e131a029b85045b68181585d97816a916871ca8d3c208c16d87cfd4791098261014051907f30644e72e131a029b85045b68181585d97816a916871ca8d3c208c16d87cfd479109907f30644e72e131a029b85045b68181585d97816a916871ca8d3c208c16d87cfd479108907f30644e72e131a029b85045b68181585d97816a916871ca8d3c208c16d87cfd4791098261010051907f30644e72e131a029b85045b68181585d97816a916871ca8d3c208c16d87cfd4791098261014051907f30644e72e131a029b85045b68181585d97816a916871ca8d3c208c16d87cfd479109907f30644e72e131a029b85045b68181585d97816a916871ca8d3c208c16d87cfd47910860e051907f30644e72e131a029b85045b68181585d97816a916871ca8d3c208c16d87cfd479109907f30644e72e131a029b85045b68181585d97816a916871ca8d3c208c16d87cfd4791088261010051907f30644e72e131a029b85045b68181585d97816a916871ca8d3c208c16d87cfd4791098261014051907f30644e72e131a029b85045b68181585d97816a916871ca8d3c208c16d87cfd479109907f30644e72e131a029b85045b68181585d97816a916871ca8d3c208c16d87cfd479108907f30644e72e131a029b85045b68181585d97816a916871ca8d3c208c16d87cfd4791096101205160e051907f30644e72e131a029b85045b68181585d97816a916871ca8d3c208c16d87cfd47910990612e5f916130f6565b60087f30644e72e131a029b85045b68181585d97816a916871ca8d3c208c16d87cfd47910991610120518161010051907f30644e72e131a029b85045b68181585d97816a916871ca8d3c208c16d87cfd4791098361014051907f30644e72e131a029b85045b68181585d97816a916871ca8d3c208c16d87cfd479109907f30644e72e131a029b85045b68181585d97816a916871ca8d3c208c16d87cfd479108907f30644e72e131a029b85045b68181585d97816a916871ca8d3c208c16d87cfd4791099160e0518261010051907f30644e72e131a029b85045b68181585d97816a916871ca8d3c208c16d87cfd4791098261014051907f30644e72e131a029b85045b68181585d97816a916871ca8d3c208c16d87cfd479109907f30644e72e131a029b85045b68181585d97816a916871ca8d3c208c16d87cfd479108907f30644e72e131a029b85045b68181585d97816a916871ca8d3c208c16d87cfd4791099161010051907f30644e72e131a029b85045b68181585d97816a916871ca8d3c208c16d87cfd4791099061014051907f30644e72e131a029b85045b68181585d97816a916871ca8d3c208c16d87cfd479109907f30644e72e131a029b85045b68181585d97816a916871ca8d3c208c16d87cfd47910860e051907f30644e72e131a029b85045b68181585d97816a916871ca8d3c208c16d87cfd479109907f30644e72e131a029b85045b68181585d97816a916871ca8d3c208c16d87cfd47910860e051907f30644e72e131a029b85045b68181585d97816a916871ca8d3c208c16d87cfd479109907f30644e72e131a029b85045b68181585d97816a916871ca8d3c208c16d87cfd47910860087f30644e72e131a029b85045b68181585d97816a916871ca8d3c208c16d87cfd4791099091565b7f30644e72e131a029b85045b68181585d97816a916871ca8d3c208c16d87cfd4791820390828211613126570890565b7f4e487b7100000000000000000000000000000000000000000000000000000000600052601160045260246000fdfea2646970667358221220c663df28af2134d5c73728730b50173fedaf9abea4902baf77b6260517a7d86e64736f6c63430008180033","opcodes":"PUSH1 0x80 DUP1 PUSH1 0x40 MSTORE CALLVALUE PUSH2 0x1A JUMPI PUSH2 0x318B SWAP1 DUP2 PUSH2 0x20 DUP3 CODECOPY ADDRESS DUP2 POP POP RETURN JUMPDEST PUSH1 0x0 DUP1 REVERT INVALID PUSH2 0x180 PUSH1 0x40 MSTORE PUSH1 0x4 CALLDATASIZE LT ISZERO PUSH2 0x13 JUMPI PUSH1 0x0 DUP1 REVERT JUMPDEST PUSH1 0x0 DUP1 CALLDATALOAD PUSH1 0xE0 SHR DUP1 PUSH4 0x4A863FE0 EQ PUSH2 0x303 JUMPI DUP1 PUSH4 0x55A3E90F EQ PUSH2 0x2AF JUMPI DUP1 PUSH4 0x5A3C8D36 EQ PUSH2 0x1EC JUMPI DUP1 PUSH4 0x7C16F7C0 EQ PUSH2 0xC3 JUMPI PUSH4 0xF2664D9A EQ PUSH2 0x55 JUMPI PUSH1 0x0 DUP1 REVERT JUMPDEST PUSH1 0xC0 PUSH32 0xFFFFFFFFFFFFFFFFFFFFFFFFFFFFFFFFFFFFFFFFFFFFFFFFFFFFFFFFFFFFFFFC CALLDATASIZE ADD SLT PUSH2 0xC0 JUMPI PUSH1 0xC0 PUSH2 0x9B PUSH1 0xA4 CALLDATALOAD PUSH1 0x84 CALLDATALOAD PUSH1 0x64 CALLDATALOAD PUSH1 0x44 CALLDATALOAD PUSH1 0x24 CALLDATALOAD PUSH1 0x4 CALLDATALOAD PUSH2 0x177F JUMP JUMPDEST SWAP4 PUSH1 0x40 SWAP4 SWAP2 SWAP4 MLOAD SWAP6 DUP7 MSTORE PUSH1 0x20 DUP7 ADD MSTORE PUSH1 0x40 DUP6 ADD MSTORE PUSH1 0x60 DUP5 ADD MSTORE PUSH1 0x80 DUP4 ADD MSTORE PUSH1 0xA0 DUP3 ADD MSTORE RETURN JUMPDEST DUP1 REVERT JUMPDEST POP PUSH1 0x80 PUSH32 0xFFFFFFFFFFFFFFFFFFFFFFFFFFFFFFFFFFFFFFFFFFFFFFFFFFFFFFFFFFFFFFFC CALLDATASIZE ADD SLT PUSH2 0xC0 JUMPI PUSH1 0x24 CALLDATALOAD PUSH32 0x30644E72E131A029B85045B68181585D97816A916871CA8D3C208C16D87CFD47 DUP1 PUSH1 0x64 CALLDATALOAD DUP2 PUSH1 0x44 CALLDATALOAD DUP2 DUP1 PUSH1 0x4 CALLDATALOAD DUP2 DUP10 DUP2 DUP1 DUP10 DUP1 MULMOD DUP2 DUP9 DUP1 MULMOD SWAP1 PUSH2 0x134 SWAP2 PUSH2 0x30F6 JUMP JUMPDEST SWAP4 DUP2 DUP4 DUP1 MULMOD DUP3 DUP3 DUP1 MULMOD SWAP1 PUSH2 0x147 SWAP2 PUSH2 0x30F6 JUMP JUMPDEST SWAP5 DUP3 DUP1 DUP1 DUP5 DUP8 MULMOD DUP2 DUP8 DUP7 MULMOD ADDMOD SWAP15 DUP16 MULMOD DUP4 DUP4 DUP9 MULMOD SWAP1 PUSH2 0x164 SWAP2 PUSH2 0x30F6 JUMP JUMPDEST PUSH2 0x16D SWAP2 PUSH2 0x30F6 JUMP JUMPDEST SWAP13 MULMOD SWAP3 MULMOD ADDMOD SWAP4 DUP2 DUP4 DUP3 MULMOD SWAP3 MULMOD ADDMOD SWAP1 PUSH2 0x184 SWAP2 PUSH2 0x30F6 JUMP JUMPDEST SWAP3 PUSH32 0x54FB1321278F57B36922D1D65A0ED99E1CCA4AC0E95DAEA09B8A53AB3DBC462 SWAP1 ADDMOD ISZERO SWAP1 PUSH1 0x20 SWAP3 DUP3 PUSH2 0x1BF JUMPI JUMPDEST POP POP PUSH1 0x40 MLOAD SWAP1 ISZERO ISZERO DUP2 MSTORE RETURN JUMPDEST PUSH32 0x2FCD3AC2A640A154EB23960892A85A68F031CA0C8344B23A577DCF1052B9E775 SWAP2 SWAP3 POP ADDMOD ISZERO DUP3 DUP1 PUSH2 0x1B3 JUMP JUMPDEST POP PUSH1 0xE0 PUSH32 0xFFFFFFFFFFFFFFFFFFFFFFFFFFFFFFFFFFFFFFFFFFFFFFFFFFFFFFFFFFFFFFFC CALLDATASIZE ADD SLT PUSH2 0xC0 JUMPI POP PUSH1 0x44 CALLDATALOAD PUSH1 0x4 CALLDATALOAD PUSH1 0x24 CALLDATALOAD DUP2 PUSH1 0xC4 CALLDATALOAD PUSH1 0xA4 CALLDATALOAD PUSH1 0x84 CALLDATALOAD PUSH1 0x64 CALLDATALOAD PUSH2 0x236 PUSH2 0x398 JUMP JUMPDEST SWAP7 JUMPDEST PUSH2 0x24E JUMPI PUSH1 0x40 MLOAD DUP1 PUSH2 0x24A DUP10 DUP3 PUSH2 0x36A JUMP JUMPDEST SUB SWAP1 RETURN JUMPDEST PUSH1 0x1 SWAP7 SWAP6 SWAP7 SWAP8 DUP9 DUP7 AND PUSH2 0x276 JUMPI JUMPDEST PUSH2 0x267 SWAP6 SWAP7 SWAP8 PUSH2 0x177F JUMP JUMPDEST SWAP4 SWAP8 SWAP5 SWAP6 SWAP1 SWAP5 SHR SWAP4 SWAP2 DUP5 PUSH2 0x238 JUMP JUMPDEST PUSH2 0x2A7 DUP6 DUP6 DUP6 DUP6 DUP6 DUP14 DUP14 PUSH2 0x267 SWAP14 SWAP15 MLOAD SWAP1 PUSH1 0x20 DUP2 ADD MLOAD PUSH1 0x40 DUP3 ADD MLOAD PUSH1 0x60 DUP4 ADD MLOAD SWAP2 PUSH1 0xA0 PUSH1 0x80 DUP6 ADD MLOAD SWAP5 ADD MLOAD SWAP5 PUSH2 0x3EC JUMP JUMPDEST SWAP7 SWAP6 POP PUSH2 0x25C JUMP JUMPDEST POP DUP1 PUSH32 0xFFFFFFFFFFFFFFFFFFFFFFFFFFFFFFFFFFFFFFFFFFFFFFFFFFFFFFFFFFFFFFFC CALLDATASIZE ADD SLT PUSH2 0xC0 JUMPI PUSH1 0x20 PUSH1 0x40 MLOAD PUSH32 0x30644E72E131A029B85045B68181585D97816A916871CA8D3C208C16D87CFD47 DUP2 MSTORE RETURN JUMPDEST POP PUSH2 0x180 PUSH32 0xFFFFFFFFFFFFFFFFFFFFFFFFFFFFFFFFFFFFFFFFFFFFFFFFFFFFFFFFFFFFFFFC CALLDATASIZE ADD SLT PUSH2 0xC0 JUMPI PUSH2 0x24A PUSH2 0x362 PUSH2 0x164 CALLDATALOAD PUSH2 0x144 CALLDATALOAD PUSH2 0x124 CALLDATALOAD PUSH2 0x104 CALLDATALOAD PUSH1 0xE4 CALLDATALOAD PUSH1 0xC4 CALLDATALOAD PUSH1 0xA4 CALLDATALOAD PUSH1 0x84 CALLDATALOAD PUSH1 0x64 CALLDATALOAD PUSH1 0x44 CALLDATALOAD PUSH1 0x24 CALLDATALOAD PUSH1 0x4 CALLDATALOAD PUSH2 0x3EC JUMP JUMPDEST PUSH1 0x40 MLOAD SWAP2 DUP3 SWAP2 DUP3 JUMPDEST PUSH1 0xC0 DUP2 ADD SWAP3 SWAP2 PUSH1 0x0 SWAP2 JUMPDEST PUSH1 0x6 DUP4 LT PUSH2 0x381 JUMPI POP POP POP JUMP JUMPDEST PUSH1 0x1 SWAP1 DUP3 MLOAD DUP2 MSTORE PUSH1 0x20 DUP1 SWAP2 ADD SWAP3 ADD SWAP3 ADD SWAP2 SWAP1 PUSH2 0x374 JUMP JUMPDEST PUSH1 0x40 MLOAD SWAP1 PUSH1 0xC0 DUP3 ADD DUP3 DUP2 LT PUSH8 0xFFFFFFFFFFFFFFFF DUP3 GT OR PUSH2 0x3BD JUMPI PUSH1 0x40 MSTORE PUSH1 0xC0 CALLDATASIZE DUP4 CALLDATACOPY JUMP JUMPDEST PUSH32 0x4E487B7100000000000000000000000000000000000000000000000000000000 PUSH1 0x0 MSTORE PUSH1 0x41 PUSH1 0x4 MSTORE PUSH1 0x24 PUSH1 0x0 REVERT JUMPDEST SWAP3 SWAP2 SWAP11 SWAP7 SWAP10 SWAP1 SWAP4 SWAP5 SWAP6 SWAP10 SWAP9 SWAP8 SWAP9 PUSH1 0xA0 MSTORE PUSH1 0xC0 MSTORE PUSH2 0x407 PUSH2 0x398 JUMP JUMPDEST SWAP10 DUP5 ISZERO DUP1 PUSH2 0x1777 JUMPI JUMPDEST ISZERO PUSH2 0x43F JUMPI POP POP POP POP POP POP PUSH1 0xA0 DUP6 ADD MSTORE PUSH1 0xC0 MLOAD PUSH1 0x80 DUP6 ADD MSTORE PUSH1 0x60 DUP5 ADD MSTORE PUSH1 0x40 DUP4 ADD MSTORE PUSH1 0xA0 MLOAD PUSH1 0x20 DUP4 ADD MSTORE DUP2 MSTORE SWAP1 JUMP JUMPDEST PUSH1 0xC0 SWAP12 SWAP10 SWAP5 SWAP7 SWAP6 SWAP9 SWAP12 MLOAD ISZERO DUP1 PUSH2 0x176F JUMPI JUMPDEST PUSH2 0x1746 JUMPI PUSH2 0x485 DUP13 PUSH32 0x30644E72E131A029B85045B68181585D97816A916871CA8D3C208C16D87CFD47 DUP10 DUP2 DUP14 DUP14 MULMOD SWAP3 MULMOD PUSH2 0x30F6 JUMP JUMPDEST SWAP4 PUSH2 0x4D8 PUSH32 0x30644E72E131A029B85045B68181585D97816A916871CA8D3C208C16D87CFD47 DUP9 DUP6 MULMOD PUSH32 0x30644E72E131A029B85045B68181585D97816A916871CA8D3C208C16D87CFD47 PUSH1 0xC0 MLOAD DUP6 MULMOD PUSH2 0x30F6 JUMP JUMPDEST DUP13 PUSH1 0x60 PUSH32 0x30644E72E131A029B85045B68181585D97816A916871CA8D3C208C16D87CFD47 DUP1 PUSH1 0xC0 MLOAD DUP9 MULMOD DUP2 DUP13 DUP9 MULMOD ADDMOD SWAP2 ADD MSTORE PUSH1 0x40 DUP14 ADD MSTORE PUSH2 0x561 PUSH32 0x30644E72E131A029B85045B68181585D97816A916871CA8D3C208C16D87CFD47 DUP12 PUSH1 0xA0 MLOAD MULMOD PUSH32 0x30644E72E131A029B85045B68181585D97816A916871CA8D3C208C16D87CFD47 DUP11 DUP10 MULMOD PUSH2 0x30F6 JUMP JUMPDEST PUSH1 0x80 MSTORE DUP12 PUSH2 0x5B7 PUSH32 0x30644E72E131A029B85045B68181585D97816A916871CA8D3C208C16D87CFD47 DUP10 DUP5 MULMOD PUSH32 0x30644E72E131A029B85045B68181585D97816A916871CA8D3C208C16D87CFD47 PUSH1 0xC0 MLOAD DUP9 MULMOD PUSH2 0x30F6 JUMP JUMPDEST DUP1 PUSH1 0x80 PUSH32 0x30644E72E131A029B85045B68181585D97816A916871CA8D3C208C16D87CFD47 DUP1 PUSH1 0xC0 MLOAD DUP8 MULMOD DUP2 DUP14 DUP12 MULMOD ADDMOD SWAP4 DUP5 PUSH1 0xA0 DUP3 ADD MSTORE ADD MSTORE PUSH1 0x80 MLOAD EQ SWAP1 DUP2 PUSH2 0x1711 JUMPI JUMPDEST POP PUSH2 0x165B JUMPI POP POP POP POP SWAP7 DUP4 SWAP2 DUP7 SWAP8 SWAP9 DUP8 DUP4 SWAP12 PUSH32 0x30644E72E131A029B85045B68181585D97816A916871CA8D3C208C16D87CFD47 DUP8 DUP4 MULMOD PUSH1 0xC0 MLOAD PUSH32 0x30644E72E131A029B85045B68181585D97816A916871CA8D3C208C16D87CFD47 SWAP1 DUP9 MULMOD SWAP1 PUSH2 0x661 SWAP2 PUSH2 0x30F6 JUMP JUMPDEST SWAP9 PUSH1 0x40 DUP7 ADD MLOAD SWAP4 PUSH1 0x60 DUP8 ADD MLOAD SWAP5 PUSH2 0x677 SWAP2 PUSH2 0x30F6 JUMP JUMPDEST SWAP9 PUSH32 0x30644E72E131A029B85045B68181585D97816A916871CA8D3C208C16D87CFD47 SWAP2 MULMOD SWAP2 PUSH32 0x30644E72E131A029B85045B68181585D97816A916871CA8D3C208C16D87CFD47 SWAP2 MULMOD SWAP1 PUSH32 0x30644E72E131A029B85045B68181585D97816A916871CA8D3C208C16D87CFD47 SWAP2 ADDMOD SWAP1 PUSH2 0x6ED SWAP2 PUSH2 0x30F6 JUMP JUMPDEST SWAP4 PUSH1 0x80 DUP4 ADD MLOAD PUSH1 0xA0 DUP5 ADD MLOAD SWAP1 PUSH1 0x80 MLOAD SWAP1 PUSH2 0x706 SWAP2 PUSH2 0x30F6 JUMP JUMPDEST SWAP10 DUP11 SWAP4 DUP7 PUSH1 0xA0 MLOAD SWAP1 PUSH32 0x30644E72E131A029B85045B68181585D97816A916871CA8D3C208C16D87CFD47 SWAP2 MULMOD SWAP2 PUSH32 0x30644E72E131A029B85045B68181585D97816A916871CA8D3C208C16D87CFD47 SWAP2 MULMOD SWAP1 PUSH32 0x30644E72E131A029B85045B68181585D97816A916871CA8D3C208C16D87CFD47 SWAP2 ADDMOD SWAP1 PUSH2 0x783 SWAP2 PUSH2 0x30F6 JUMP JUMPDEST SWAP4 PUSH32 0x30644E72E131A029B85045B68181585D97816A916871CA8D3C208C16D87CFD47 DUP6 DUP1 MULMOD PUSH32 0x30644E72E131A029B85045B68181585D97816A916871CA8D3C208C16D87CFD47 DUP5 DUP1 MULMOD SWAP1 PUSH2 0x7D6 SWAP2 PUSH2 0x30F6 JUMP JUMPDEST SWAP8 PUSH1 0x80 DUP6 ADD MLOAD SWAP10 DUP9 PUSH1 0xA0 DUP8 ADD MLOAD SWAP5 DUP13 DUP13 DUP8 PUSH32 0x30644E72E131A029B85045B68181585D97816A916871CA8D3C208C16D87CFD47 DUP11 DUP14 MULMOD PUSH32 0x30644E72E131A029B85045B68181585D97816A916871CA8D3C208C16D87CFD47 DUP14 DUP13 MULMOD SWAP1 PUSH32 0x30644E72E131A029B85045B68181585D97816A916871CA8D3C208C16D87CFD47 SWAP2 ADDMOD SWAP1 PUSH32 0x30644E72E131A029B85045B68181585D97816A916871CA8D3C208C16D87CFD47 SWAP2 MULMOD SWAP2 PUSH32 0x30644E72E131A029B85045B68181585D97816A916871CA8D3C208C16D87CFD47 SWAP2 MULMOD SWAP1 PUSH2 0x8A5 SWAP2 PUSH2 0x30F6 JUMP JUMPDEST SWAP5 DUP13 DUP11 PUSH32 0x30644E72E131A029B85045B68181585D97816A916871CA8D3C208C16D87CFD47 DUP11 DUP3 MULMOD PUSH32 0x30644E72E131A029B85045B68181585D97816A916871CA8D3C208C16D87CFD47 DUP3 DUP13 MULMOD SWAP1 PUSH32 0x30644E72E131A029B85045B68181585D97816A916871CA8D3C208C16D87CFD47 SWAP2 ADDMOD SWAP1 PUSH32 0x30644E72E131A029B85045B68181585D97816A916871CA8D3C208C16D87CFD47 SWAP2 MULMOD PUSH32 0x30644E72E131A029B85045B68181585D97816A916871CA8D3C208C16D87CFD47 DUP11 DUP4 MULMOD SWAP1 PUSH2 0x966 SWAP2 PUSH2 0x30F6 JUMP JUMPDEST SWAP10 DUP7 DUP13 DUP2 DUP14 DUP14 PUSH1 0xC0 MLOAD PUSH32 0x30644E72E131A029B85045B68181585D97816A916871CA8D3C208C16D87CFD47 SWAP1 DUP13 MULMOD PUSH32 0x30644E72E131A029B85045B68181585D97816A916871CA8D3C208C16D87CFD47 DUP11 DUP11 MULMOD SWAP1 PUSH32 0x30644E72E131A029B85045B68181585D97816A916871CA8D3C208C16D87CFD47 SWAP2 ADDMOD SWAP1 PUSH32 0x30644E72E131A029B85045B68181585D97816A916871CA8D3C208C16D87CFD47 DUP2 DUP7 MULMOD PUSH32 0x30644E72E131A029B85045B68181585D97816A916871CA8D3C208C16D87CFD47 DUP7 DUP4 MULMOD SWAP1 PUSH32 0x30644E72E131A029B85045B68181585D97816A916871CA8D3C208C16D87CFD47 SWAP2 ADDMOD SWAP1 PUSH32 0x30644E72E131A029B85045B68181585D97816A916871CA8D3C208C16D87CFD47 SWAP2 MULMOD PUSH32 0x30644E72E131A029B85045B68181585D97816A916871CA8D3C208C16D87CFD47 DUP6 DUP10 MULMOD SWAP1 PUSH32 0x30644E72E131A029B85045B68181585D97816A916871CA8D3C208C16D87CFD47 SWAP2 ADDMOD SWAP1 PUSH32 0x30644E72E131A029B85045B68181585D97816A916871CA8D3C208C16D87CFD47 SWAP2 MULMOD SWAP2 PUSH32 0x30644E72E131A029B85045B68181585D97816A916871CA8D3C208C16D87CFD47 SWAP2 MULMOD SWAP1 PUSH2 0xB06 SWAP2 PUSH2 0x30F6 JUMP JUMPDEST SWAP4 DUP13 PUSH32 0x30644E72E131A029B85045B68181585D97816A916871CA8D3C208C16D87CFD47 DUP2 DUP5 MULMOD PUSH32 0x30644E72E131A029B85045B68181585D97816A916871CA8D3C208C16D87CFD47 DUP5 DUP4 MULMOD SWAP1 PUSH32 0x30644E72E131A029B85045B68181585D97816A916871CA8D3C208C16D87CFD47 SWAP2 ADDMOD SWAP1 PUSH32 0x30644E72E131A029B85045B68181585D97816A916871CA8D3C208C16D87CFD47 SWAP2 MULMOD SWAP2 PUSH32 0x30644E72E131A029B85045B68181585D97816A916871CA8D3C208C16D87CFD47 SWAP2 MULMOD SWAP1 PUSH32 0x30644E72E131A029B85045B68181585D97816A916871CA8D3C208C16D87CFD47 SWAP2 ADDMOD SWAP1 PUSH32 0x30644E72E131A029B85045B68181585D97816A916871CA8D3C208C16D87CFD47 SWAP2 MULMOD PUSH1 0xC0 MLOAD PUSH32 0x30644E72E131A029B85045B68181585D97816A916871CA8D3C208C16D87CFD47 SWAP1 DUP9 MULMOD PUSH32 0x30644E72E131A029B85045B68181585D97816A916871CA8D3C208C16D87CFD47 DUP7 DUP7 MULMOD SWAP1 PUSH32 0x30644E72E131A029B85045B68181585D97816A916871CA8D3C208C16D87CFD47 SWAP2 ADDMOD PUSH32 0x30644E72E131A029B85045B68181585D97816A916871CA8D3C208C16D87CFD47 SWAP1 DUP14 MULMOD SWAP1 PUSH32 0x30644E72E131A029B85045B68181585D97816A916871CA8D3C208C16D87CFD47 SWAP2 ADDMOD PUSH1 0xA0 DUP3 ADD MSTORE PUSH1 0x80 ADD MSTORE DUP13 DUP11 DUP13 PUSH32 0x30644E72E131A029B85045B68181585D97816A916871CA8D3C208C16D87CFD47 DUP2 DUP1 MULMOD PUSH32 0x30644E72E131A029B85045B68181585D97816A916871CA8D3C208C16D87CFD47 DUP8 DUP1 MULMOD SWAP1 PUSH2 0xD19 SWAP2 PUSH2 0x30F6 JUMP JUMPDEST SWAP6 PUSH32 0x30644E72E131A029B85045B68181585D97816A916871CA8D3C208C16D87CFD47 DUP2 DUP4 MULMOD SWAP2 PUSH32 0x30644E72E131A029B85045B68181585D97816A916871CA8D3C208C16D87CFD47 SWAP2 MULMOD SWAP1 PUSH32 0x30644E72E131A029B85045B68181585D97816A916871CA8D3C208C16D87CFD47 SWAP2 ADDMOD SWAP2 DUP12 PUSH1 0xC0 MLOAD PUSH32 0x30644E72E131A029B85045B68181585D97816A916871CA8D3C208C16D87CFD47 SWAP1 DUP10 MULMOD PUSH32 0x30644E72E131A029B85045B68181585D97816A916871CA8D3C208C16D87CFD47 DUP8 DUP8 MULMOD SWAP1 PUSH32 0x30644E72E131A029B85045B68181585D97816A916871CA8D3C208C16D87CFD47 SWAP2 ADDMOD PUSH32 0x30644E72E131A029B85045B68181585D97816A916871CA8D3C208C16D87CFD47 SWAP1 DUP6 MULMOD PUSH32 0x30644E72E131A029B85045B68181585D97816A916871CA8D3C208C16D87CFD47 DUP11 DUP10 MULMOD SWAP1 PUSH2 0xE49 SWAP2 PUSH2 0x30F6 JUMP JUMPDEST SWAP1 PUSH2 0xE53 SWAP2 PUSH2 0x30F6 JUMP JUMPDEST SWAP11 PUSH32 0x30644E72E131A029B85045B68181585D97816A916871CA8D3C208C16D87CFD47 DUP2 DUP5 MULMOD PUSH32 0x30644E72E131A029B85045B68181585D97816A916871CA8D3C208C16D87CFD47 DUP5 DUP4 MULMOD SWAP1 PUSH32 0x30644E72E131A029B85045B68181585D97816A916871CA8D3C208C16D87CFD47 SWAP2 ADDMOD SWAP1 PUSH32 0x30644E72E131A029B85045B68181585D97816A916871CA8D3C208C16D87CFD47 SWAP2 MULMOD SWAP2 PUSH32 0x30644E72E131A029B85045B68181585D97816A916871CA8D3C208C16D87CFD47 SWAP2 MULMOD SWAP1 PUSH32 0x30644E72E131A029B85045B68181585D97816A916871CA8D3C208C16D87CFD47 SWAP2 ADDMOD SWAP6 PUSH32 0x30644E72E131A029B85045B68181585D97816A916871CA8D3C208C16D87CFD47 SWAP2 MULMOD SWAP4 PUSH1 0xC0 MLOAD PUSH32 0x30644E72E131A029B85045B68181585D97816A916871CA8D3C208C16D87CFD47 SWAP2 MULMOD SWAP2 PUSH32 0x30644E72E131A029B85045B68181585D97816A916871CA8D3C208C16D87CFD47 SWAP2 MULMOD SWAP1 PUSH32 0x30644E72E131A029B85045B68181585D97816A916871CA8D3C208C16D87CFD47 SWAP2 ADDMOD PUSH32 0x30644E72E131A029B85045B68181585D97816A916871CA8D3C208C16D87CFD47 SWAP2 MULMOD SWAP1 PUSH32 0x30644E72E131A029B85045B68181585D97816A916871CA8D3C208C16D87CFD47 SWAP2 ADDMOD SWAP1 PUSH2 0x1010 SWAP2 PUSH2 0x30F6 JUMP JUMPDEST SWAP3 PUSH32 0x30644E72E131A029B85045B68181585D97816A916871CA8D3C208C16D87CFD47 PUSH1 0x2 DUP4 MULMOD PUSH2 0x103F SWAP2 PUSH2 0x30F6 JUMP JUMPDEST SWAP3 DUP10 DUP7 DUP13 PUSH32 0x30644E72E131A029B85045B68181585D97816A916871CA8D3C208C16D87CFD47 DUP2 DUP4 MULMOD SWAP2 PUSH32 0x30644E72E131A029B85045B68181585D97816A916871CA8D3C208C16D87CFD47 SWAP2 MULMOD SWAP1 PUSH32 0x30644E72E131A029B85045B68181585D97816A916871CA8D3C208C16D87CFD47 SWAP2 ADDMOD SWAP1 PUSH32 0x30644E72E131A029B85045B68181585D97816A916871CA8D3C208C16D87CFD47 SWAP2 MULMOD PUSH32 0x30644E72E131A029B85045B68181585D97816A916871CA8D3C208C16D87CFD47 DUP5 DUP12 MULMOD SWAP1 PUSH32 0x30644E72E131A029B85045B68181585D97816A916871CA8D3C208C16D87CFD47 SWAP2 ADDMOD PUSH1 0x2 PUSH32 0x30644E72E131A029B85045B68181585D97816A916871CA8D3C208C16D87CFD47 SWAP2 MULMOD PUSH2 0x1149 SWAP2 PUSH2 0x30F6 JUMP JUMPDEST SWAP3 PUSH32 0x30644E72E131A029B85045B68181585D97816A916871CA8D3C208C16D87CFD47 DUP5 DUP8 MULMOD PUSH32 0x30644E72E131A029B85045B68181585D97816A916871CA8D3C208C16D87CFD47 DUP3 DUP14 MULMOD SWAP1 PUSH2 0x119C SWAP2 PUSH2 0x30F6 JUMP JUMPDEST DUP14 DUP6 DUP14 PUSH32 0x30644E72E131A029B85045B68181585D97816A916871CA8D3C208C16D87CFD47 DUP6 DUP12 MULMOD SWAP2 PUSH32 0x30644E72E131A029B85045B68181585D97816A916871CA8D3C208C16D87CFD47 SWAP2 MULMOD SWAP1 PUSH32 0x30644E72E131A029B85045B68181585D97816A916871CA8D3C208C16D87CFD47 SWAP2 ADDMOD SWAP1 PUSH1 0x20 ADD MSTORE DUP14 MSTORE PUSH2 0x121B SWAP2 PUSH2 0x30F6 JUMP JUMPDEST SWAP8 PUSH32 0x30644E72E131A029B85045B68181585D97816A916871CA8D3C208C16D87CFD47 DUP11 DUP7 MULMOD PUSH32 0x30644E72E131A029B85045B68181585D97816A916871CA8D3C208C16D87CFD47 DUP7 DUP13 MULMOD SWAP1 PUSH32 0x30644E72E131A029B85045B68181585D97816A916871CA8D3C208C16D87CFD47 SWAP2 ADDMOD SWAP1 PUSH32 0x30644E72E131A029B85045B68181585D97816A916871CA8D3C208C16D87CFD47 SWAP2 MULMOD SWAP1 PUSH32 0x30644E72E131A029B85045B68181585D97816A916871CA8D3C208C16D87CFD47 SWAP1 DUP9 MULMOD SWAP1 PUSH32 0x30644E72E131A029B85045B68181585D97816A916871CA8D3C208C16D87CFD47 SWAP2 ADDMOD SWAP1 PUSH2 0x12FF SWAP2 PUSH2 0x30F6 JUMP JUMPDEST SWAP5 PUSH32 0x30644E72E131A029B85045B68181585D97816A916871CA8D3C208C16D87CFD47 DUP7 DUP6 MULMOD PUSH32 0x30644E72E131A029B85045B68181585D97816A916871CA8D3C208C16D87CFD47 DUP9 DUP8 MULMOD SWAP1 PUSH2 0x1352 SWAP2 PUSH2 0x30F6 JUMP JUMPDEST SWAP3 PUSH1 0x40 DUP12 ADD MLOAD SWAP2 PUSH1 0x60 DUP13 ADD MLOAD SWAP5 DUP6 DUP12 PUSH32 0x30644E72E131A029B85045B68181585D97816A916871CA8D3C208C16D87CFD47 DUP2 DUP7 MULMOD PUSH32 0x30644E72E131A029B85045B68181585D97816A916871CA8D3C208C16D87CFD47 DUP7 DUP4 MULMOD SWAP1 PUSH32 0x30644E72E131A029B85045B68181585D97816A916871CA8D3C208C16D87CFD47 SWAP2 ADDMOD SWAP1 PUSH32 0x30644E72E131A029B85045B68181585D97816A916871CA8D3C208C16D87CFD47 SWAP2 MULMOD PUSH32 0x30644E72E131A029B85045B68181585D97816A916871CA8D3C208C16D87CFD47 DUP6 DUP6 MULMOD SWAP1 PUSH32 0x30644E72E131A029B85045B68181585D97816A916871CA8D3C208C16D87CFD47 SWAP2 ADDMOD SWAP1 PUSH32 0x30644E72E131A029B85045B68181585D97816A916871CA8D3C208C16D87CFD47 SWAP2 MULMOD PUSH32 0x30644E72E131A029B85045B68181585D97816A916871CA8D3C208C16D87CFD47 DUP6 DUP8 MULMOD SWAP1 PUSH2 0x148B SWAP2 PUSH2 0x30F6 JUMP JUMPDEST PUSH2 0x1494 SWAP2 PUSH2 0x30F6 JUMP JUMPDEST SWAP10 PUSH32 0x30644E72E131A029B85045B68181585D97816A916871CA8D3C208C16D87CFD47 DUP2 DUP5 MULMOD PUSH32 0x30644E72E131A029B85045B68181585D97816A916871CA8D3C208C16D87CFD47 DUP5 DUP4 MULMOD SWAP1 PUSH32 0x30644E72E131A029B85045B68181585D97816A916871CA8D3C208C16D87CFD47 SWAP2 ADDMOD SWAP1 PUSH32 0x30644E72E131A029B85045B68181585D97816A916871CA8D3C208C16D87CFD47 SWAP2 MULMOD SWAP2 PUSH32 0x30644E72E131A029B85045B68181585D97816A916871CA8D3C208C16D87CFD47 SWAP2 MULMOD SWAP1 PUSH32 0x30644E72E131A029B85045B68181585D97816A916871CA8D3C208C16D87CFD47 SWAP2 ADDMOD SWAP1 PUSH32 0x30644E72E131A029B85045B68181585D97816A916871CA8D3C208C16D87CFD47 SWAP2 MULMOD SWAP2 PUSH32 0x30644E72E131A029B85045B68181585D97816A916871CA8D3C208C16D87CFD47 SWAP2 MULMOD SWAP1 PUSH32 0x30644E72E131A029B85045B68181585D97816A916871CA8D3C208C16D87CFD47 SWAP2 ADDMOD SWAP4 PUSH32 0x30644E72E131A029B85045B68181585D97816A916871CA8D3C208C16D87CFD47 SWAP2 MULMOD SWAP2 PUSH32 0x30644E72E131A029B85045B68181585D97816A916871CA8D3C208C16D87CFD47 SWAP2 MULMOD SWAP1 PUSH32 0x30644E72E131A029B85045B68181585D97816A916871CA8D3C208C16D87CFD47 SWAP2 ADDMOD SWAP1 PUSH2 0x164F SWAP2 PUSH2 0x30F6 JUMP JUMPDEST PUSH1 0x60 DUP5 ADD MSTORE PUSH1 0x40 DUP4 ADD MSTORE JUMP JUMPDEST SWAP5 POP SWAP5 POP SWAP5 SWAP6 SWAP1 SWAP8 SWAP10 DUP8 DUP8 DUP12 SWAP5 PUSH1 0x40 DUP7 ADD MLOAD EQ SWAP5 DUP6 PUSH2 0x16D5 JUMPI JUMPDEST POP POP POP POP POP PUSH2 0x16AE JUMPI POP POP POP POP POP POP PUSH1 0x0 PUSH1 0xA0 DUP3 ADD MSTORE PUSH1 0x0 PUSH1 0x80 DUP3 ADD MSTORE PUSH1 0x0 PUSH1 0x60 DUP3 ADD MSTORE PUSH1 0x1 PUSH1 0x40 DUP3 ADD MSTORE PUSH1 0x0 PUSH1 0x20 DUP3 ADD MSTORE PUSH1 0x1 DUP2 MSTORE SWAP1 JUMP JUMPDEST PUSH2 0x16B7 SWAP6 PUSH2 0x177F JUMP JUMPDEST PUSH1 0xA0 DUP8 ADD MSTORE PUSH1 0x80 DUP7 ADD MSTORE PUSH1 0x60 DUP6 ADD MSTORE PUSH1 0x40 DUP5 ADD MSTORE PUSH1 0x20 DUP4 ADD MSTORE DUP2 MSTORE SWAP1 JUMP JUMPDEST PUSH1 0x60 ADD MLOAD SWAP5 POP PUSH32 0x30644E72E131A029B85045B68181585D97816A916871CA8D3C208C16D87CFD47 SWAP4 DUP5 SWAP3 SWAP2 DUP4 SWAP2 MULMOD SWAP3 MULMOD ADDMOD EQ CODESIZE DUP1 DUP8 DUP8 DUP12 PUSH2 0x1675 JUMP JUMPDEST SWAP1 POP PUSH32 0x30644E72E131A029B85045B68181585D97816A916871CA8D3C208C16D87CFD47 DUP1 DUP11 PUSH1 0xA0 MLOAD MULMOD DUP2 DUP14 DUP11 MULMOD ADDMOD EQ CODESIZE PUSH2 0x5FA JUMP JUMPDEST SWAP7 POP SWAP5 SWAP4 POP SWAP7 SWAP9 POP SWAP5 SWAP1 POP PUSH1 0xA0 DUP8 ADD MSTORE PUSH1 0x80 DUP7 ADD MSTORE PUSH1 0x60 DUP6 ADD MSTORE PUSH1 0x40 DUP5 ADD MSTORE PUSH1 0x20 DUP4 ADD MSTORE DUP2 MSTORE SWAP1 JUMP JUMPDEST POP DUP6 ISZERO PUSH2 0x450 JUMP JUMPDEST POP DUP6 ISZERO PUSH2 0x410 JUMP JUMPDEST SWAP3 SWAP1 SWAP5 SWAP6 SWAP2 PUSH2 0x140 MSTORE PUSH2 0x100 MSTORE DUP4 PUSH32 0x30644E72E131A029B85045B68181585D97816A916871CA8D3C208C16D87CFD47 PUSH1 0x3 DUP3 MULMOD SWAP1 PUSH32 0x30644E72E131A029B85045B68181585D97816A916871CA8D3C208C16D87CFD47 SWAP2 MULMOD DUP3 PUSH32 0x30644E72E131A029B85045B68181585D97816A916871CA8D3C208C16D87CFD47 PUSH1 0x3 DUP3 MULMOD SWAP1 PUSH32 0x30644E72E131A029B85045B68181585D97816A916871CA8D3C208C16D87CFD47 SWAP2 MULMOD SWAP1 PUSH2 0x182A SWAP2 PUSH2 0x30F6 JUMP JUMPDEST DUP6 PUSH2 0x100 MLOAD SWAP1 PUSH32 0x30644E72E131A029B85045B68181585D97816A916871CA8D3C208C16D87CFD47 SWAP2 MULMOD DUP5 PUSH2 0x140 MLOAD SWAP1 PUSH32 0x30644E72E131A029B85045B68181585D97816A916871CA8D3C208C16D87CFD47 SWAP2 MULMOD SWAP1 PUSH2 0x1886 SWAP2 PUSH2 0x30F6 JUMP JUMPDEST PUSH1 0xE0 MSTORE PUSH2 0x100 MLOAD PUSH32 0x30644E72E131A029B85045B68181585D97816A916871CA8D3C208C16D87CFD47 SWAP1 DUP7 MULMOD PUSH2 0x140 MLOAD PUSH32 0x30644E72E131A029B85045B68181585D97816A916871CA8D3C208C16D87CFD47 SWAP1 DUP6 MULMOD SWAP1 PUSH2 0x18E3 SWAP2 PUSH2 0x30F6 JUMP JUMPDEST SWAP5 DUP5 PUSH2 0x100 MLOAD SWAP1 PUSH32 0x30644E72E131A029B85045B68181585D97816A916871CA8D3C208C16D87CFD47 SWAP2 MULMOD DUP8 PUSH2 0x140 MLOAD SWAP1 PUSH32 0x30644E72E131A029B85045B68181585D97816A916871CA8D3C208C16D87CFD47 SWAP2 MULMOD SWAP1 PUSH32 0x30644E72E131A029B85045B68181585D97816A916871CA8D3C208C16D87CFD47 SWAP2 ADDMOD PUSH2 0x140 MLOAD PUSH32 0x30644E72E131A029B85045B68181585D97816A916871CA8D3C208C16D87CFD47 SWAP1 DUP4 MULMOD PUSH2 0x100 MLOAD PUSH32 0x30644E72E131A029B85045B68181585D97816A916871CA8D3C208C16D87CFD47 SWAP1 DUP8 MULMOD SWAP1 PUSH32 0x30644E72E131A029B85045B68181585D97816A916871CA8D3C208C16D87CFD47 SWAP2 ADDMOD SWAP1 PUSH32 0x30644E72E131A029B85045B68181585D97816A916871CA8D3C208C16D87CFD47 SWAP2 MULMOD PUSH1 0xE0 MLOAD PUSH32 0x30644E72E131A029B85045B68181585D97816A916871CA8D3C208C16D87CFD47 SWAP1 DUP9 MULMOD SWAP1 PUSH2 0x1A23 SWAP2 PUSH2 0x30F6 JUMP JUMPDEST SWAP6 DUP5 PUSH32 0x30644E72E131A029B85045B68181585D97816A916871CA8D3C208C16D87CFD47 PUSH1 0x3 DUP5 MULMOD SWAP1 PUSH32 0x30644E72E131A029B85045B68181585D97816A916871CA8D3C208C16D87CFD47 SWAP2 MULMOD DUP3 PUSH32 0x30644E72E131A029B85045B68181585D97816A916871CA8D3C208C16D87CFD47 PUSH1 0x3 DUP9 MULMOD SWAP1 PUSH32 0x30644E72E131A029B85045B68181585D97816A916871CA8D3C208C16D87CFD47 SWAP2 MULMOD SWAP1 PUSH32 0x30644E72E131A029B85045B68181585D97816A916871CA8D3C208C16D87CFD47 SWAP2 ADDMOD DUP6 PUSH32 0x30644E72E131A029B85045B68181585D97816A916871CA8D3C208C16D87CFD47 PUSH1 0x3 DUP6 MULMOD SWAP1 PUSH32 0x30644E72E131A029B85045B68181585D97816A916871CA8D3C208C16D87CFD47 SWAP2 MULMOD DUP4 PUSH32 0x30644E72E131A029B85045B68181585D97816A916871CA8D3C208C16D87CFD47 PUSH1 0x3 DUP10 MULMOD SWAP1 PUSH32 0x30644E72E131A029B85045B68181585D97816A916871CA8D3C208C16D87CFD47 SWAP2 MULMOD SWAP1 PUSH32 0x30644E72E131A029B85045B68181585D97816A916871CA8D3C208C16D87CFD47 SWAP2 ADDMOD SWAP1 PUSH32 0x30644E72E131A029B85045B68181585D97816A916871CA8D3C208C16D87CFD47 SWAP2 MULMOD PUSH32 0x30644E72E131A029B85045B68181585D97816A916871CA8D3C208C16D87CFD47 DUP5 DUP1 MULMOD SWAP1 PUSH2 0x1BE6 SWAP2 PUSH2 0x30F6 JUMP JUMPDEST PUSH32 0x30644E72E131A029B85045B68181585D97816A916871CA8D3C208C16D87CFD47 PUSH1 0x8 DUP10 MULMOD PUSH2 0x1C14 SWAP2 PUSH2 0x30F6 JUMP JUMPDEST DUP1 SWAP8 PUSH1 0xE0 MLOAD PUSH2 0x140 MLOAD PUSH32 0x30644E72E131A029B85045B68181585D97816A916871CA8D3C208C16D87CFD47 SWAP1 DUP7 MULMOD PUSH2 0x100 MLOAD PUSH32 0x30644E72E131A029B85045B68181585D97816A916871CA8D3C208C16D87CFD47 SWAP1 DUP11 MULMOD SWAP1 PUSH32 0x30644E72E131A029B85045B68181585D97816A916871CA8D3C208C16D87CFD47 SWAP2 ADDMOD SWAP1 PUSH32 0x30644E72E131A029B85045B68181585D97816A916871CA8D3C208C16D87CFD47 SWAP2 MULMOD DUP9 PUSH2 0x100 MLOAD SWAP1 PUSH32 0x30644E72E131A029B85045B68181585D97816A916871CA8D3C208C16D87CFD47 SWAP2 MULMOD DUP12 PUSH2 0x140 MLOAD SWAP1 PUSH32 0x30644E72E131A029B85045B68181585D97816A916871CA8D3C208C16D87CFD47 SWAP2 MULMOD SWAP1 PUSH32 0x30644E72E131A029B85045B68181585D97816A916871CA8D3C208C16D87CFD47 SWAP2 ADDMOD PUSH32 0x30644E72E131A029B85045B68181585D97816A916871CA8D3C208C16D87CFD47 SWAP1 DUP6 MULMOD SWAP1 PUSH32 0x30644E72E131A029B85045B68181585D97816A916871CA8D3C208C16D87CFD47 SWAP2 ADDMOD PUSH1 0x8 PUSH32 0x30644E72E131A029B85045B68181585D97816A916871CA8D3C208C16D87CFD47 SWAP2 MULMOD DUP6 DUP9 PUSH32 0x30644E72E131A029B85045B68181585D97816A916871CA8D3C208C16D87CFD47 PUSH1 0x3 DUP9 MULMOD SWAP1 PUSH32 0x30644E72E131A029B85045B68181585D97816A916871CA8D3C208C16D87CFD47 SWAP2 MULMOD DUP7 PUSH32 0x30644E72E131A029B85045B68181585D97816A916871CA8D3C208C16D87CFD47 PUSH1 0x3 DUP13 MULMOD SWAP1 PUSH32 0x30644E72E131A029B85045B68181585D97816A916871CA8D3C208C16D87CFD47 SWAP2 MULMOD SWAP1 PUSH32 0x30644E72E131A029B85045B68181585D97816A916871CA8D3C208C16D87CFD47 SWAP2 ADDMOD SWAP1 PUSH32 0x30644E72E131A029B85045B68181585D97816A916871CA8D3C208C16D87CFD47 SWAP2 MULMOD DUP9 PUSH32 0x30644E72E131A029B85045B68181585D97816A916871CA8D3C208C16D87CFD47 PUSH1 0x3 DUP9 MULMOD SWAP1 PUSH32 0x30644E72E131A029B85045B68181585D97816A916871CA8D3C208C16D87CFD47 SWAP2 MULMOD DUP7 PUSH32 0x30644E72E131A029B85045B68181585D97816A916871CA8D3C208C16D87CFD47 PUSH1 0x3 DUP13 MULMOD SWAP1 PUSH32 0x30644E72E131A029B85045B68181585D97816A916871CA8D3C208C16D87CFD47 SWAP2 MULMOD SWAP1 PUSH32 0x30644E72E131A029B85045B68181585D97816A916871CA8D3C208C16D87CFD47 SWAP2 ADDMOD PUSH32 0x30644E72E131A029B85045B68181585D97816A916871CA8D3C208C16D87CFD47 SWAP1 DUP9 MULMOD SWAP1 PUSH32 0x30644E72E131A029B85045B68181585D97816A916871CA8D3C208C16D87CFD47 SWAP2 ADDMOD SWAP1 PUSH2 0x1F7B SWAP2 PUSH2 0x30F6 JUMP JUMPDEST PUSH2 0x160 MSTORE DUP8 PUSH2 0x100 MLOAD SWAP1 PUSH32 0x30644E72E131A029B85045B68181585D97816A916871CA8D3C208C16D87CFD47 SWAP2 MULMOD DUP11 PUSH2 0x140 MLOAD SWAP1 PUSH32 0x30644E72E131A029B85045B68181585D97816A916871CA8D3C208C16D87CFD47 SWAP2 MULMOD SWAP1 PUSH32 0x30644E72E131A029B85045B68181585D97816A916871CA8D3C208C16D87CFD47 SWAP2 ADDMOD DUP9 PUSH2 0x100 MLOAD SWAP1 PUSH32 0x30644E72E131A029B85045B68181585D97816A916871CA8D3C208C16D87CFD47 SWAP2 MULMOD DUP12 PUSH2 0x140 MLOAD SWAP1 PUSH32 0x30644E72E131A029B85045B68181585D97816A916871CA8D3C208C16D87CFD47 SWAP2 MULMOD SWAP1 PUSH32 0x30644E72E131A029B85045B68181585D97816A916871CA8D3C208C16D87CFD47 SWAP2 ADDMOD SWAP1 PUSH32 0x30644E72E131A029B85045B68181585D97816A916871CA8D3C208C16D87CFD47 SWAP2 MULMOD PUSH1 0xE0 MLOAD PUSH32 0x30644E72E131A029B85045B68181585D97816A916871CA8D3C208C16D87CFD47 SWAP1 DUP1 MULMOD SWAP1 PUSH2 0x20C0 SWAP2 PUSH2 0x30F6 JUMP JUMPDEST PUSH2 0x120 MSTORE PUSH1 0x4 PUSH32 0x30644E72E131A029B85045B68181585D97816A916871CA8D3C208C16D87CFD47 SWAP2 MULMOD SWAP1 PUSH2 0x20F3 SWAP2 PUSH2 0x30F6 JUMP JUMPDEST SWAP1 PUSH2 0x160 MLOAD SWAP1 PUSH1 0xE0 MLOAD PUSH2 0x140 MLOAD PUSH32 0x30644E72E131A029B85045B68181585D97816A916871CA8D3C208C16D87CFD47 SWAP1 DUP7 MULMOD PUSH2 0x100 MLOAD PUSH32 0x30644E72E131A029B85045B68181585D97816A916871CA8D3C208C16D87CFD47 SWAP1 DUP11 MULMOD SWAP1 PUSH32 0x30644E72E131A029B85045B68181585D97816A916871CA8D3C208C16D87CFD47 SWAP2 ADDMOD SWAP1 PUSH32 0x30644E72E131A029B85045B68181585D97816A916871CA8D3C208C16D87CFD47 SWAP2 MULMOD SWAP1 DUP9 PUSH2 0x100 MLOAD SWAP1 PUSH32 0x30644E72E131A029B85045B68181585D97816A916871CA8D3C208C16D87CFD47 SWAP2 MULMOD DUP12 PUSH2 0x140 MLOAD SWAP1 PUSH32 0x30644E72E131A029B85045B68181585D97816A916871CA8D3C208C16D87CFD47 SWAP2 MULMOD SWAP1 PUSH32 0x30644E72E131A029B85045B68181585D97816A916871CA8D3C208C16D87CFD47 SWAP2 ADDMOD PUSH32 0x30644E72E131A029B85045B68181585D97816A916871CA8D3C208C16D87CFD47 SWAP2 MULMOD SWAP1 PUSH32 0x30644E72E131A029B85045B68181585D97816A916871CA8D3C208C16D87CFD47 SWAP2 ADDMOD PUSH1 0x4 PUSH32 0x30644E72E131A029B85045B68181585D97816A916871CA8D3C208C16D87CFD47 SWAP2 MULMOD SWAP1 PUSH2 0x2281 SWAP2 PUSH2 0x30F6 JUMP JUMPDEST SWAP5 DUP1 PUSH32 0x30644E72E131A029B85045B68181585D97816A916871CA8D3C208C16D87CFD47 PUSH1 0x3 DUP6 MULMOD SWAP1 PUSH32 0x30644E72E131A029B85045B68181585D97816A916871CA8D3C208C16D87CFD47 SWAP2 MULMOD DUP4 PUSH32 0x30644E72E131A029B85045B68181585D97816A916871CA8D3C208C16D87CFD47 PUSH1 0x3 DUP5 MULMOD SWAP1 PUSH32 0x30644E72E131A029B85045B68181585D97816A916871CA8D3C208C16D87CFD47 SWAP2 MULMOD SWAP1 PUSH32 0x30644E72E131A029B85045B68181585D97816A916871CA8D3C208C16D87CFD47 SWAP2 ADDMOD PUSH32 0x30644E72E131A029B85045B68181585D97816A916871CA8D3C208C16D87CFD47 SWAP1 DUP8 MULMOD PUSH32 0x30644E72E131A029B85045B68181585D97816A916871CA8D3C208C16D87CFD47 DUP6 DUP5 MULMOD SWAP1 PUSH2 0x238C SWAP2 PUSH2 0x30F6 JUMP JUMPDEST SWAP6 PUSH2 0x140 MLOAD PUSH1 0x8 PUSH32 0x30644E72E131A029B85045B68181585D97816A916871CA8D3C208C16D87CFD47 SWAP2 MULMOD SWAP7 PUSH2 0x100 MLOAD PUSH1 0x8 PUSH32 0x30644E72E131A029B85045B68181585D97816A916871CA8D3C208C16D87CFD47 SWAP2 MULMOD PUSH2 0x100 MLOAD PUSH32 0x30644E72E131A029B85045B68181585D97816A916871CA8D3C208C16D87CFD47 SWAP1 DUP3 MULMOD PUSH2 0x140 MLOAD PUSH32 0x30644E72E131A029B85045B68181585D97816A916871CA8D3C208C16D87CFD47 SWAP1 DUP12 MULMOD SWAP1 PUSH2 0x243A SWAP2 PUSH2 0x30F6 JUMP JUMPDEST SWAP2 PUSH1 0xE0 MLOAD DUP14 DUP13 PUSH2 0x100 MLOAD SWAP1 PUSH32 0x30644E72E131A029B85045B68181585D97816A916871CA8D3C208C16D87CFD47 SWAP2 MULMOD SWAP1 PUSH2 0x140 MLOAD SWAP1 PUSH32 0x30644E72E131A029B85045B68181585D97816A916871CA8D3C208C16D87CFD47 SWAP2 MULMOD SWAP1 PUSH32 0x30644E72E131A029B85045B68181585D97816A916871CA8D3C208C16D87CFD47 SWAP2 ADDMOD SWAP1 PUSH32 0x30644E72E131A029B85045B68181585D97816A916871CA8D3C208C16D87CFD47 SWAP2 MULMOD DUP14 DUP13 PUSH2 0x100 MLOAD SWAP1 PUSH32 0x30644E72E131A029B85045B68181585D97816A916871CA8D3C208C16D87CFD47 SWAP2 MULMOD SWAP1 PUSH2 0x140 MLOAD SWAP1 PUSH32 0x30644E72E131A029B85045B68181585D97816A916871CA8D3C208C16D87CFD47 SWAP2 MULMOD SWAP1 PUSH32 0x30644E72E131A029B85045B68181585D97816A916871CA8D3C208C16D87CFD47 SWAP2 ADDMOD PUSH1 0xE0 MLOAD SWAP1 PUSH32 0x30644E72E131A029B85045B68181585D97816A916871CA8D3C208C16D87CFD47 SWAP2 MULMOD SWAP1 PUSH32 0x30644E72E131A029B85045B68181585D97816A916871CA8D3C208C16D87CFD47 SWAP2 ADDMOD PUSH2 0x140 MLOAD PUSH32 0x30644E72E131A029B85045B68181585D97816A916871CA8D3C208C16D87CFD47 SWAP1 DUP5 MULMOD PUSH2 0x100 MLOAD PUSH32 0x30644E72E131A029B85045B68181585D97816A916871CA8D3C208C16D87CFD47 SWAP1 DUP14 MULMOD SWAP1 PUSH32 0x30644E72E131A029B85045B68181585D97816A916871CA8D3C208C16D87CFD47 SWAP2 ADDMOD SWAP1 PUSH32 0x30644E72E131A029B85045B68181585D97816A916871CA8D3C208C16D87CFD47 SWAP2 MULMOD PUSH2 0x120 MLOAD PUSH32 0x30644E72E131A029B85045B68181585D97816A916871CA8D3C208C16D87CFD47 SWAP1 DUP6 MULMOD SWAP1 PUSH2 0x2665 SWAP2 PUSH2 0x30F6 JUMP JUMPDEST PUSH2 0x266E SWAP2 PUSH2 0x30F6 JUMP JUMPDEST SWAP9 PUSH2 0x120 MLOAD SWAP2 PUSH2 0x140 MLOAD PUSH32 0x30644E72E131A029B85045B68181585D97816A916871CA8D3C208C16D87CFD47 SWAP2 MULMOD SWAP1 PUSH2 0x100 MLOAD PUSH32 0x30644E72E131A029B85045B68181585D97816A916871CA8D3C208C16D87CFD47 SWAP2 MULMOD SWAP1 PUSH32 0x30644E72E131A029B85045B68181585D97816A916871CA8D3C208C16D87CFD47 SWAP2 ADDMOD SWAP1 PUSH32 0x30644E72E131A029B85045B68181585D97816A916871CA8D3C208C16D87CFD47 SWAP2 MULMOD SWAP1 PUSH1 0xE0 MLOAD DUP11 PUSH2 0x100 MLOAD SWAP1 PUSH32 0x30644E72E131A029B85045B68181585D97816A916871CA8D3C208C16D87CFD47 SWAP2 MULMOD DUP14 PUSH2 0x140 MLOAD SWAP1 PUSH32 0x30644E72E131A029B85045B68181585D97816A916871CA8D3C208C16D87CFD47 SWAP2 MULMOD SWAP1 PUSH32 0x30644E72E131A029B85045B68181585D97816A916871CA8D3C208C16D87CFD47 SWAP2 ADDMOD SWAP1 PUSH32 0x30644E72E131A029B85045B68181585D97816A916871CA8D3C208C16D87CFD47 SWAP2 MULMOD DUP11 PUSH2 0x100 MLOAD SWAP1 PUSH32 0x30644E72E131A029B85045B68181585D97816A916871CA8D3C208C16D87CFD47 SWAP2 MULMOD DUP14 PUSH2 0x140 MLOAD SWAP1 PUSH32 0x30644E72E131A029B85045B68181585D97816A916871CA8D3C208C16D87CFD47 SWAP2 MULMOD SWAP1 PUSH32 0x30644E72E131A029B85045B68181585D97816A916871CA8D3C208C16D87CFD47 SWAP2 ADDMOD PUSH1 0xE0 MLOAD SWAP1 PUSH32 0x30644E72E131A029B85045B68181585D97816A916871CA8D3C208C16D87CFD47 SWAP2 MULMOD SWAP1 PUSH32 0x30644E72E131A029B85045B68181585D97816A916871CA8D3C208C16D87CFD47 SWAP2 ADDMOD PUSH32 0x30644E72E131A029B85045B68181585D97816A916871CA8D3C208C16D87CFD47 SWAP2 MULMOD SWAP1 PUSH32 0x30644E72E131A029B85045B68181585D97816A916871CA8D3C208C16D87CFD47 SWAP2 ADDMOD SWAP5 PUSH32 0x30644E72E131A029B85045B68181585D97816A916871CA8D3C208C16D87CFD47 SWAP2 MULMOD SWAP3 DUP2 PUSH32 0x30644E72E131A029B85045B68181585D97816A916871CA8D3C208C16D87CFD47 PUSH1 0x3 DUP4 MULMOD SWAP1 PUSH32 0x30644E72E131A029B85045B68181585D97816A916871CA8D3C208C16D87CFD47 SWAP2 MULMOD SWAP2 PUSH1 0x3 PUSH32 0x30644E72E131A029B85045B68181585D97816A916871CA8D3C208C16D87CFD47 SWAP2 MULMOD SWAP1 PUSH32 0x30644E72E131A029B85045B68181585D97816A916871CA8D3C208C16D87CFD47 SWAP2 MULMOD SWAP1 PUSH32 0x30644E72E131A029B85045B68181585D97816A916871CA8D3C208C16D87CFD47 SWAP2 ADDMOD PUSH32 0x30644E72E131A029B85045B68181585D97816A916871CA8D3C208C16D87CFD47 SWAP2 MULMOD SWAP1 PUSH32 0x30644E72E131A029B85045B68181585D97816A916871CA8D3C208C16D87CFD47 SWAP2 ADDMOD SWAP1 PUSH2 0x29DF SWAP2 PUSH2 0x30F6 JUMP JUMPDEST SWAP2 SWAP3 DUP1 PUSH2 0x100 MLOAD SWAP1 PUSH32 0x30644E72E131A029B85045B68181585D97816A916871CA8D3C208C16D87CFD47 SWAP2 MULMOD DUP7 PUSH2 0x140 MLOAD SWAP1 PUSH32 0x30644E72E131A029B85045B68181585D97816A916871CA8D3C208C16D87CFD47 SWAP2 MULMOD SWAP1 PUSH32 0x30644E72E131A029B85045B68181585D97816A916871CA8D3C208C16D87CFD47 SWAP2 ADDMOD PUSH2 0x160 MLOAD PUSH1 0x2 PUSH32 0x30644E72E131A029B85045B68181585D97816A916871CA8D3C208C16D87CFD47 SWAP2 MULMOD SWAP1 PUSH32 0x30644E72E131A029B85045B68181585D97816A916871CA8D3C208C16D87CFD47 SWAP2 MULMOD PUSH1 0xE0 MLOAD PUSH32 0x30644E72E131A029B85045B68181585D97816A916871CA8D3C208C16D87CFD47 PUSH1 0x2 DUP9 MULMOD SWAP1 PUSH32 0x30644E72E131A029B85045B68181585D97816A916871CA8D3C208C16D87CFD47 SWAP2 MULMOD SWAP1 PUSH2 0x2AFA SWAP2 PUSH2 0x30F6 JUMP JUMPDEST SWAP5 PUSH1 0xE0 MLOAD PUSH2 0x160 MLOAD PUSH1 0x2 PUSH32 0x30644E72E131A029B85045B68181585D97816A916871CA8D3C208C16D87CFD47 SWAP2 MULMOD SWAP1 PUSH32 0x30644E72E131A029B85045B68181585D97816A916871CA8D3C208C16D87CFD47 SWAP2 MULMOD SWAP1 DUP3 PUSH2 0x100 MLOAD SWAP1 PUSH32 0x30644E72E131A029B85045B68181585D97816A916871CA8D3C208C16D87CFD47 SWAP2 MULMOD DUP9 PUSH2 0x140 MLOAD SWAP1 PUSH32 0x30644E72E131A029B85045B68181585D97816A916871CA8D3C208C16D87CFD47 SWAP2 MULMOD SWAP1 PUSH32 0x30644E72E131A029B85045B68181585D97816A916871CA8D3C208C16D87CFD47 SWAP2 ADDMOD SWAP1 PUSH1 0x2 PUSH32 0x30644E72E131A029B85045B68181585D97816A916871CA8D3C208C16D87CFD47 SWAP2 MULMOD SWAP1 PUSH32 0x30644E72E131A029B85045B68181585D97816A916871CA8D3C208C16D87CFD47 SWAP2 MULMOD SWAP1 PUSH32 0x30644E72E131A029B85045B68181585D97816A916871CA8D3C208C16D87CFD47 SWAP2 ADDMOD SWAP5 SWAP6 PUSH1 0xE0 MLOAD DUP3 PUSH2 0x100 MLOAD SWAP1 PUSH32 0x30644E72E131A029B85045B68181585D97816A916871CA8D3C208C16D87CFD47 SWAP2 MULMOD DUP3 PUSH2 0x140 MLOAD SWAP1 PUSH32 0x30644E72E131A029B85045B68181585D97816A916871CA8D3C208C16D87CFD47 SWAP2 MULMOD SWAP1 PUSH32 0x30644E72E131A029B85045B68181585D97816A916871CA8D3C208C16D87CFD47 SWAP2 ADDMOD SWAP1 PUSH32 0x30644E72E131A029B85045B68181585D97816A916871CA8D3C208C16D87CFD47 SWAP2 MULMOD DUP3 PUSH2 0x100 MLOAD SWAP1 PUSH32 0x30644E72E131A029B85045B68181585D97816A916871CA8D3C208C16D87CFD47 SWAP2 MULMOD DUP3 PUSH2 0x140 MLOAD SWAP1 PUSH32 0x30644E72E131A029B85045B68181585D97816A916871CA8D3C208C16D87CFD47 SWAP2 MULMOD SWAP1 PUSH32 0x30644E72E131A029B85045B68181585D97816A916871CA8D3C208C16D87CFD47 SWAP2 ADDMOD PUSH1 0xE0 MLOAD SWAP1 PUSH32 0x30644E72E131A029B85045B68181585D97816A916871CA8D3C208C16D87CFD47 SWAP2 MULMOD SWAP1 PUSH32 0x30644E72E131A029B85045B68181585D97816A916871CA8D3C208C16D87CFD47 SWAP2 ADDMOD DUP3 PUSH2 0x100 MLOAD SWAP1 PUSH32 0x30644E72E131A029B85045B68181585D97816A916871CA8D3C208C16D87CFD47 SWAP2 MULMOD DUP3 PUSH2 0x140 MLOAD SWAP1 PUSH32 0x30644E72E131A029B85045B68181585D97816A916871CA8D3C208C16D87CFD47 SWAP2 MULMOD SWAP1 PUSH32 0x30644E72E131A029B85045B68181585D97816A916871CA8D3C208C16D87CFD47 SWAP2 ADDMOD SWAP1 PUSH32 0x30644E72E131A029B85045B68181585D97816A916871CA8D3C208C16D87CFD47 SWAP2 MULMOD PUSH2 0x120 MLOAD PUSH1 0xE0 MLOAD SWAP1 PUSH32 0x30644E72E131A029B85045B68181585D97816A916871CA8D3C208C16D87CFD47 SWAP2 MULMOD SWAP1 PUSH2 0x2E5F SWAP2 PUSH2 0x30F6 JUMP JUMPDEST PUSH1 0x8 PUSH32 0x30644E72E131A029B85045B68181585D97816A916871CA8D3C208C16D87CFD47 SWAP2 MULMOD SWAP2 PUSH2 0x120 MLOAD DUP2 PUSH2 0x100 MLOAD SWAP1 PUSH32 0x30644E72E131A029B85045B68181585D97816A916871CA8D3C208C16D87CFD47 SWAP2 MULMOD DUP4 PUSH2 0x140 MLOAD SWAP1 PUSH32 0x30644E72E131A029B85045B68181585D97816A916871CA8D3C208C16D87CFD47 SWAP2 MULMOD SWAP1 PUSH32 0x30644E72E131A029B85045B68181585D97816A916871CA8D3C208C16D87CFD47 SWAP2 ADDMOD SWAP1 PUSH32 0x30644E72E131A029B85045B68181585D97816A916871CA8D3C208C16D87CFD47 SWAP2 MULMOD SWAP2 PUSH1 0xE0 MLOAD DUP3 PUSH2 0x100 MLOAD SWAP1 PUSH32 0x30644E72E131A029B85045B68181585D97816A916871CA8D3C208C16D87CFD47 SWAP2 MULMOD DUP3 PUSH2 0x140 MLOAD SWAP1 PUSH32 0x30644E72E131A029B85045B68181585D97816A916871CA8D3C208C16D87CFD47 SWAP2 MULMOD SWAP1 PUSH32 0x30644E72E131A029B85045B68181585D97816A916871CA8D3C208C16D87CFD47 SWAP2 ADDMOD SWAP1 PUSH32 0x30644E72E131A029B85045B68181585D97816A916871CA8D3C208C16D87CFD47 SWAP2 MULMOD SWAP2 PUSH2 0x100 MLOAD SWAP1 PUSH32 0x30644E72E131A029B85045B68181585D97816A916871CA8D3C208C16D87CFD47 SWAP2 MULMOD SWAP1 PUSH2 0x140 MLOAD SWAP1 PUSH32 0x30644E72E131A029B85045B68181585D97816A916871CA8D3C208C16D87CFD47 SWAP2 MULMOD SWAP1 PUSH32 0x30644E72E131A029B85045B68181585D97816A916871CA8D3C208C16D87CFD47 SWAP2 ADDMOD PUSH1 0xE0 MLOAD SWAP1 PUSH32 0x30644E72E131A029B85045B68181585D97816A916871CA8D3C208C16D87CFD47 SWAP2 MULMOD SWAP1 PUSH32 0x30644E72E131A029B85045B68181585D97816A916871CA8D3C208C16D87CFD47 SWAP2 ADDMOD PUSH1 0xE0 MLOAD SWAP1 PUSH32 0x30644E72E131A029B85045B68181585D97816A916871CA8D3C208C16D87CFD47 SWAP2 MULMOD SWAP1 PUSH32 0x30644E72E131A029B85045B68181585D97816A916871CA8D3C208C16D87CFD47 SWAP2 ADDMOD PUSH1 0x8 PUSH32 0x30644E72E131A029B85045B68181585D97816A916871CA8D3C208C16D87CFD47 SWAP2 MULMOD SWAP1 SWAP2 JUMP JUMPDEST PUSH32 0x30644E72E131A029B85045B68181585D97816A916871CA8D3C208C16D87CFD47 SWAP2 DUP3 SUB SWAP1 DUP3 DUP3 GT PUSH2 0x3126 JUMPI ADDMOD SWAP1 JUMP JUMPDEST PUSH32 0x4E487B7100000000000000000000000000000000000000000000000000000000 PUSH1 0x0 MSTORE PUSH1 0x11 PUSH1 0x4 MSTORE PUSH1 0x24 PUSH1 0x0 REVERT INVALID LOG2 PUSH5 0x6970667358 0x22 SLT KECCAK256 0xC6 PUSH4 0xDF28AF21 CALLVALUE 0xD5 0xC7 CALLDATACOPY 0x28 PUSH20 0xB50173FEDAF9ABEA4902BAF77B6260517A7D86E PUSH5 0x736F6C6343 STOP ADDMOD XOR STOP CALLER "},"methodIdentifiers":{"GetFieldModulus()":"55a3e90f","_ECTwistAddJacobian(uint256,uint256,uint256,uint256,uint256,uint256,uint256,uint256,uint256,uint256,uint256,uint256)":"4a863fe0","_ECTwistDoubleJacobian(uint256,uint256,uint256,uint256,uint256,uint256)":"f2664d9a","_ECTwistMulJacobian(uint256,uint256,uint256,uint256,uint256,uint256,uint256)":"5a3c8d36","isOnCurve(uint256,uint256,uint256,uint256)":"7c16f7c0"}}}}}