{
  "_format": "hh-sol-artifact-1",
  "contractName": "DataAnchoringContract",
  "sourceName": "contracts/main/DataAnchoringContract.sol",
  "abi": [
    {
      "inputs": [],
      "stateMutability": "nonpayable",
      "type": "constructor"
    },
    {
      "inputs": [
        {
          "internalType": "uint256[4]",
          "name": "input",
          "type": "uint256[4]"
        }
      ],
      "name": "BNAddFailed",
      "type": "error"
    },
    {
      "inputs": [
        {
          "internalType": "bytes",
          "name": "dst",
          "type": "bytes"
        }
      ],
      "name": "InvalidDSTLength",
      "type": "error"
    },
    {
      "inputs": [
        {
          "internalType": "uint256",
          "name": "x",
          "type": "uint256"
        }
      ],
      "name": "InvalidFieldElement",
      "type": "error"
    },
    {
      "inputs": [
        {
          "internalType": "uint256",
          "name": "noSqrt",
          "type": "uint256"
        }
      ],
      "name": "MapToPointFailed",
      "type": "error"
    },
    {
      "inputs": [
        {
          "internalType": "uint256",
          "name": "base",
          "type": "uint256"
        },
        {
          "internalType": "uint256",
          "name": "exponent",
          "type": "uint256"
        },
        {
          "internalType": "uint256",
          "name": "modulus",
          "type": "uint256"
        }
      ],
      "name": "ModExpFailed",
      "type": "error"
    },
    {
      "anonymous": false,
      "inputs": [
        {
          "indexed": true,
          "internalType": "bytes32",
          "name": "dataHash",
          "type": "bytes32"
        },
        {
          "indexed": false,
          "internalType": "string",
          "name": "cid",
          "type": "string"
        },
        {
          "indexed": false,
          "internalType": "uint256",
          "name": "expiry",
          "type": "uint256"
        },
        {
          "indexed": false,
          "internalType": "string",
          "name": "status",
          "type": "string"
        }
      ],
      "name": "DataAnchored",
      "type": "event"
    },
    {
      "anonymous": false,
      "inputs": [
        {
          "indexed": true,
          "internalType": "bytes32",
          "name": "dataHash",
          "type": "bytes32"
        },
        {
          "indexed": false,
          "internalType": "string",
          "name": "newStatus",
          "type": "string"
        }
      ],
      "name": "DataUpdated",
      "type": "event"
    },
    {
      "inputs": [
        {
          "internalType": "bytes32",
          "name": "dataHash",
          "type": "bytes32"
        },
        {
          "internalType": "string",
          "name": "cid",
          "type": "string"
        },
        {
          "internalType": "uint256",
          "name": "expiry",
          "type": "uint256"
        },
        {
          "internalType": "string",
          "name": "status",
          "type": "string"
        }
      ],
      "name": "anchor",
      "outputs": [],
      "stateMutability": "nonpayable",
      "type": "function"
    },
    {
      "inputs": [
        {
          "internalType": "uint256",
          "name": "",
          "type": "uint256"
        },
        {
          "internalType": "uint256",
          "name": "",
          "type": "uint256"
        }
      ],
      "name": "blsPubKeys",
      "outputs": [
        {
          "internalType": "uint256",
          "name": "",
          "type": "uint256"
        }
      ],
      "stateMutability": "view",
      "type": "function"
    },
    {
      "inputs": [
        {
          "internalType": "bytes32",
          "name": "dataHash",
          "type": "bytes32"
        }
      ],
      "name": "get",
      "outputs": [
        {
          "internalType": "bytes32",
          "name": "dataHash_",
          "type": "bytes32"
        },
        {
          "internalType": "string",
          "name": "cid_",
          "type": "string"
        },
        {
          "internalType": "uint256",
          "name": "expiry_",
          "type": "uint256"
        },
        {
          "internalType": "string",
          "name": "status_",
          "type": "string"
        }
      ],
      "stateMutability": "view",
      "type": "function"
    },
    {
      "inputs": [
        {
          "internalType": "uint256[2]",
          "name": "aggSig",
          "type": "uint256[2]"
        },
        {
          "internalType": "bytes32",
          "name": "dataHash",
          "type": "bytes32"
        },
        {
          "internalType": "string",
          "name": "milestone",
          "type": "string"
        },
        {
          "internalType": "string[]",
          "name": "dids",
          "type": "string[]"
        }
      ],
      "name": "update",
      "outputs": [],
      "stateMutability": "nonpayable",
      "type": "function"
    }
  ],
  "bytecode": "0x6080604052346200009e576200008e62000018620000a3565b600181526200003c60009182602082015260026040820152826060820152620000d9565b620000676200004a620000a3565b6003815282602082015260046040820152826060820152620000d9565b62000071620000a3565b9060058252806020830152600660408301526060820152620000d9565b6040516127579081620001628239f35b600080fd5b60405190608082016001600160401b03811183821017620000c357604052565b634e487b7160e01b600052604160045260246000fd5b6000805490680100000000000000008210156200014d57600192600183018083558310156200013957818052602092602083209060021b0190915b6004811062000124575050505050565b825160ff168282015591830191840162000114565b634e487b7160e01b82526032600452602482fd5b634e487b7160e01b81526041600452602490fdfe6080604052600436101561001257600080fd5b6000803560e01c9081633850ed511461005a575080634de5fa0c146100555780638eaa6ac0146100505763e3dfeffc1461004b57600080fd5b6103c6565b610327565b610260565b346101c45760807ffffffffffffffffffffffffffffffffffffffffffffffffffffffffffffffffc3601126101c45760043567ffffffffffffffff6024358181116101c0576100ad9036906004016101c7565b90604435926064359081116101bc576100ca9036906004016101c7565b8594919415610164577fe18a55b985f840385ab64291d5164d82da1b055135197b9e06882a73317b80739461015e9261010486151561045e565b61010f4282116104c3565b6101528383600361012a8c6000526001602052604060002090565b610135815415610528565b8c81556101468b8b60018401610665565b85600282015501610665565b604051958695866107d1565b0390a280f35b7f08c379a0000000000000000000000000000000000000000000000000000000006080526020608452601260a4527f4441433a207a65726f206461746148617368000000000000000000000000000060c45260646080fd5b8580fd5b8380fd5b80fd5b9181601f840112156101f55782359167ffffffffffffffff83116101f557602083818601950101116101f557565b600080fd5b9060009182548110156102335782805260021b7f290decd9548b62a8d60345a988386fc84ba6bc95484008f6362f93160ef3e563019190565b6024837f4e487b710000000000000000000000000000000000000000000000000000000081526032600452fd5b346101f55760407ffffffffffffffffffffffffffffffffffffffffffffffffffffffffffffffffc3601126101f557600435602435906000548110156101f5576102a9906101fa565b509060048110156101f5576020910154604051908152f35b60005b8381106102d45750506000910152565b81810151838201526020016102c4565b907fffffffffffffffffffffffffffffffffffffffffffffffffffffffffffffffe0601f602093610320815180928187528780880191016102c1565b0116010190565b346101f55760207ffffffffffffffffffffffffffffffffffffffffffffffffffffffffffffffffc3601126101f557600435600052600160205260406000208054610373811515610801565b6103c26002830154610393600361038c600187016108df565b95016108df565b6103af60405195869586526080602087015260808601906102e4565b91604085015283820360608501526102e4565b0390f35b346101f55760a07ffffffffffffffffffffffffffffffffffffffffffffffffffffffffffffffffc3601126101f557366044116101f55767ffffffffffffffff6064358181116101f55761041e9036906004016101c7565b90916084358181116101f557366023820112156101f55780600401359182116101f557602490369260051b0101116101f55761045c91604435610cce565b005b1561046557565b60646040517f08c379a000000000000000000000000000000000000000000000000000000000815260206004820152600e60248201527f4441433a20656d707479204349440000000000000000000000000000000000006044820152fd5b156104ca57565b60646040517f08c379a000000000000000000000000000000000000000000000000000000000815260206004820152601a60248201527f4441433a20657870697279206d757374206265206675747572650000000000006044820152fd5b1561052f57565b60646040517f08c379a000000000000000000000000000000000000000000000000000000000815260206004820152601560248201527f4441433a20616c726561647920616e63686f72656400000000000000000000006044820152fd5b7f4e487b7100000000000000000000000000000000000000000000000000000000600052604160045260246000fd5b90600182811c92168015610605575b60208310146105d657565b7f4e487b7100000000000000000000000000000000000000000000000000000000600052602260045260246000fd5b91607f16916105cb565b90601f811161061d57505050565b6000916000526020600020906020601f850160051c8301941061065b575b601f0160051c01915b82811061065057505050565b818155600101610644565b909250829061063b565b90929167ffffffffffffffff811161078d5761068b8161068584546105bc565b8461060f565b6000601f82116001146106e95781906106da9394956000926106de575b50507fffffffffffffffffffffffffffffffffffffffffffffffffffffffffffffffff8260011b9260031b1c19161790565b9055565b0135905038806106a8565b7fffffffffffffffffffffffffffffffffffffffffffffffffffffffffffffffe082169461071c84600052602060002090565b91805b87811061077557508360019596971061073d575b505050811b019055565b7fffffffffffffffffffffffffffffffffffffffffffffffffffffffffffffffff60f88560031b161c19910135169055388080610733565b9092602060018192868601358155019401910161071f565b61058d565b601f82602094937fffffffffffffffffffffffffffffffffffffffffffffffffffffffffffffffe0938186528686013760008582860101520116010190565b906107eb906107fe96949593606084526060840191610792565b9360208201526040818503910152610792565b90565b1561080857565b60646040517f08c379a000000000000000000000000000000000000000000000000000000000815260206004820152601160248201527f4441433a206e6f7420616e63686f7265640000000000000000000000000000006044820152fd5b6040810190811067ffffffffffffffff82111761078d57604052565b6080810190811067ffffffffffffffff82111761078d57604052565b90601f7fffffffffffffffffffffffffffffffffffffffffffffffffffffffffffffffe0910116810190811067ffffffffffffffff82111761078d57604052565b906040519182600082546108f2816105bc565b908184526020946001916001811690816000146109625750600114610923575b5050506109219250038361089e565b565b600090815285812095935091905b81831061094a5750506109219350820101388080610912565b85548884018501529485019487945091830191610931565b9150506109219593507fffffffffffffffffffffffffffffffffffffffffffffffffffffffffffffff0091501682840152151560051b820101388080610912565b6040519061092182610866565b60405190610180820182811067ffffffffffffffff82111761078d57604052565b604051906109de82610866565b600182527f7c000000000000000000000000000000000000000000000000000000000000006020830152565b908092918237016000815290565b91849392602095928152610a34825180938880850191016102c1565b01918483013701016000815290565b60405190610a5082610866565b600382527f44414300000000000000000000000000000000000000000000000000000000006020830152565b60405190610a8982610882565b6080368337565b60405190610a9d82610866565b6040368337565b604051906020820182811067ffffffffffffffff82111761078d576040526020368337565b60405191906000835b60048210610ae65750505061092182610882565b6001602081928554815201930191019091610ad2565b9060405191610b0a83610866565b826044916044116101f5576004905b828210610b2557505050565b8135815260209182019101610b19565b15610b3c57565b60646040517f08c379a000000000000000000000000000000000000000000000000000000000815260206004820152601660248201527f4441433a20424c5320766572696679206661696c6564000000000000000000006044820152fd5b919091825167ffffffffffffffff811161078d57610bbc8161068584546105bc565b602080601f8311600114610c17575081906106da939495600092610c0c5750507fffffffffffffffffffffffffffffffffffffffffffffffffffffffffffffffff8260011b9260031b1c19161790565b0151905038806106a8565b907fffffffffffffffffffffffffffffffffffffffffffffffffffffffffffffffe0831695610c4b85600052602060002090565b926000905b888210610ca557505083600195969710610c6e57505050811b019055565b01517fffffffffffffffffffffffffffffffffffffffffffffffffffffffffffffffff60f88460031b161c19169055388080610733565b80600185968294968601518155019501930190610c50565b9060206107fe9281815201906102e4565b9181610ce4846000526001602052604060002090565b91610cf183541515610801565b610d4f610cfc6109d1565b610d10836040519586938a60208601610a18565b0392610d427fffffffffffffffffffffffffffffffffffffffffffffffffffffffffffffffe09485810183528261089e565b610d4a610a43565b610e6b565b610d57610a7c565b600080545b808210610e15575050610e1094610dfe610dc995610e0495610db4610dae7f12f9d9ce5e1577cde337d32720563ae30a0fc8c24bfe12db04a281eead2b6cc59b97600397610da936610afc565b6111fe565b50610b35565b610df260405198899788936020850191610a0a565b7f5f76657269666965640000000000000000000000000000000000000000000000815260090190565b0390810185528461089e565b01610b9a565b60405191829182610cbd565b0390a2565b9091610e35600191610e2f610e29866101fa565b50610ac9565b90611179565b920190610d5c565b6080810192916000915b60048310610e5457505050565b600190825181526020809101920192019190610e47565b90610e74610a90565b506040808051610e8381610866565b36903782519260ff84116110e05760ff610e9b611580565b94169382519081610eb4878560209889850195866115f1565b0391610ee67fffffffffffffffffffffffffffffffffffffffffffffffffffffffffffffffe09384810183528261089e565b51902091835185810190610f0c81610f008a868987611691565b0385810183528261089e565b51902095610f186115ac565b936001926001945b6003861061106557505050505050610fc781856060610fce94015277ffffffffffffffffffffffffffffffffffffffffffffffff80601883015116907f30644e72e131a029b85045b68181585d97816a916871ca8d3c208c16d87cfd478092826048838260308901511681780100000000000000000000000000000000000000000000000080960908960151169289610fb76109a3565b878152019a169209088652611382565b9351611382565b91610fd7610a7c565b9284518452818501518285015280518385015201516060830152611023818460808560067ffffffffffffffffffffffffffffffffffffffffffffffffffffffffffffff8305a01fa1590565b61102c57505090565b6110619250519182917f128e3f0800000000000000000000000000000000000000000000000000000000835260048301610e3d565b0390fd5b909192938383879b8b7fffffffffffffffffffffffffffffffffffffffffffffffffffffffffffffffff8a6110c98e6110bd8d8a9f6110a66110ac9161174a565b60ff1690565b9251988993898986019c188c611703565b0389810187528661089e565b0160051b8b01015251902099019493929190610f20565b61106191519182917f26e4f9ba00000000000000000000000000000000000000000000000000000000835260048301610cbd565b1561111b57565b60646040517f08c379a000000000000000000000000000000000000000000000000000000000815260206004820152601260248201527f424c533a20473220616464206661696c656400000000000000000000000000006044820152fd5b61092190929192611188610a7c565b9360405191805183526020810151602084019081526060806040840151936040870194855201519381860194855280516080870152602081015160a0870152604081015160c0870152015160e085015260808461010081600c5afa93518752516020870152516040860152516060850152611114565b6040602092836101809695816112126109b0565b95805187520151828601527f198e9393920d483a7260bfb731fb5d25f1aa493335a9e71297e485b7aef312c2848601527f1800deef121f1e76426a00665e5c4479674322d4f75edadd46debd5cd992f6ed60608601527f275dc4a288d1afb3cbb1ac09187524c7db36395df7be3b99e673b13a075a65ec60808601527f1d9befcd05a5323e6da4d435f3b617cdb3af83285c2df711ef39c01571827f9d60a0860152805160c0860152015160e0840152838101516101008401528051610120840152606081015161014084015201516101608201526112ef610aa4565b93849160087ffffffffffffffffffffffffffffffffffffffffffffffffffffffffffffff8305a01fa915115159190565b7f4e487b7100000000000000000000000000000000000000000000000000000000600052601160045260246000fd5b907f30644e72e131a029b85045b68181585d97816a916871ca8d3c208c16d87cfd4791820391821161137d57565b611320565b9061138b610a90565b917f30644e72e131a029b85045b68181585d97816a916871ca8d3c208c16d87cfd478082101561154e57806004818480090990600191816113cf818386089261134f565b840890828080808078016789af3a83522eb353c98fc6b36d713d5d8d1cc5dffffffa818b81611400818b8d09611fe8565b9a8b920909099581806114128961134f565b98817f183227397098d014dc2822db40c0ac2ecbc0b548b438e5469e10460b6c3e7ea39a8b0899089680090980097f10216f7ba065e00de81ac1e7808072c9dd2b2385cd7b438469602eb24829a9bd098508908360038185818180090908938561147b86611758565b60000b036114f457505050855261149181611886565b906020870152156114c157505b60208401918251918083169116036114b4575050565b6114bd9061134f565b9052565b6040517f396ec7710000000000000000000000000000000000000000000000000000000081526004810191909152602490fd5b91935091508060038184818180090908928461150f85611758565b60000b03611535575050855261152481611886565b906020870152156114c1575061149e565b8193506003925080885281818009090861152481611886565b6040517fd53e941500000000000000000000000000000000000000000000000000000000815260048101839052602490fd5b6040519060c0820182811067ffffffffffffffff82111761078d576040526088825260a0366020840137565b604051906115b982610882565b6060808352366020840137565b6040519060e0820182811067ffffffffffffffff82111761078d5760405260c0808352366020840137565b7fff000000000000000000000000000000000000000000000000000000000000009261163c6020809361162e6004999896828151948592016102c1565b0191828151948592016102c1565b01600081527f60000000000000000000000000000000000000000000000000000000000000006001820152600060028201526116828251809360206003850191016102c1565b019160f81b1660038201520190565b91602293927fff000000000000000000000000000000000000000000000000000000000000009281527f010000000000000000000000000000000000000000000000000000000000000060208201526116f48251809360206021850191016102c1565b019160f81b1660218201520190565b602294939181527fff00000000000000000000000000000000000000000000000000000000000000809360f81b1660208201526116f48251809360206021850191016102c1565b600101908160011161137d57565b6117606115c6565b9060c060206000828286018381528360408801528360608801528560808801527f183227397098d014dc2822db40c0ac2ecbc0b548b438e5469e10460b6c3e7ea3968760a08201527f30644e72e131a029b85045b68181585d97816a916871ca8d3c208c16d87cfd47958691015260055afa92600051931561184a5750507f30644e72e131a029b85045b68181585d97816a916871ca8d3c208c16d87cfd4682146118245781151580611819575b6114c1575060000b90565b50600182141561180e565b50507fffffffffffffffffffffffffffffffffffffffffffffffffffffffffffffffff90565b60649350604051927fc6daf7ab000000000000000000000000000000000000000000000000000000008452600484015260248301526044820152fd5b907f30644e72e131a029b85045b68181585d97816a916871ca8d3c208c16d87cfd478080808080808080808b8180808080808080808080808080808f8180828180808080808080808080809e8180808080858180808080808087819e8280808080808681808080808080809e818080808481808080808080808089819f828080808080808080808080808d819e8280808080808080888180808080809e8180808080808080808981808080809e81808080808080808080808b8180809e81808080808080808080808b8180809e818080808080808080808a818080809e8180808080808087818080808080809e8180808080808681808080808080809e8180808080808681808080808080809e8180808080808681808080808080809e8180808080808080808080808c81809e81808080808080808080808b8180809e8180808080808087818080808080809e81808080808080809781808080808581808080808080808080808b8181800909818c81818009090981808c8181800909818d818180090909098180808c8181800909818d818180090909818c818082818180090991818180090909090980098009800981808781818009099180090980098009800909800980098009800909800980098009800981808c8180828009918180828009918181800909090991800909800980098009800981808088800981808a8009818b8181800909090991800909800980098009098009800980098180808a800981808c8009818d8181800909090991800909800980098009800980090980098009800981808c8181800909918009098009800980098009800980099281808083818180090981848181800909099181808280099181808280099181818009090909099180090980098009800980098009800980098009800981808d818082800991818180090909918009098009800980098180898181800909918009098009800980099281808280099181808280099181818009090909918009098009800980098009800980098180808b8009818c8181800909099180090980098009800980098009800909800980098009800980098009818080808c8009818d818180090909818c81808281818009099181818009090909918009098009800980098009928180808381818009098184818180090909918180828009918180828009918181800909090909918009098009800981808d818082800991818180090909918009098009800980098009800980098009928181800909918009098009800980098009800980098009800992818082800991818180090909918009098009800981808d818180090991800909800980098009800980098009800992818080838009818481818009090991818082818180090991818180090909099180090980098009800981808d81808083800981848181800909099181808281818009099181818009090909918009098009800980098009818080898009818a8181800909099180090980098009928180828009918180828009918181800909090991800909800980098009800980098009800980098009818080808b8009818c81818009090981808c8181800909818d81818009090909918009098009800980099281808280099181818009090991800909800980098009800981808d81808281818009099181808281818009099181818009090909918009098009800980098009800980098180808088800981898181800909098180898181800909818a81818009090909918009098009800909800980098009800980098009928180828009918180828009918181800909090991800909800980098009800980098180808c8009818d8180828009918181800909090991800909800980098009800981808087800981888181800909099180090980098009098009800980098009800980099281808083818180090981848181800909099181808280099181808280099181818009090909099180090980098009800980098009818080808b8181800909818c81818009090981808c8181800909818d818082818180090991818180090909090991800909800980098009800980090980098009800980098009800909800980098009800992818180090991800909800980098009800980098009800980098180808c818082800991818180090909818d8180828181800909918181800909090991800909800980098180888181800909918009098009800992818180090991800909800980098009800980098009800981808d8180808381818009098184818180090909918180828181800909918180828181800909918181800909090909918009098009800980098180808a818180090981808c8181800909818d818180090909099180090980098009800992818080838181800909818481818009090991818082818180090991818082818180090991818180090909090991800909800980098180808c8009818d8181800909099180090980098009800980098180808781818009098180898181800909818a81818009090909918009098009917f30644e72e131a029b85045b68181585d97816a916871ca8d3c208c16d87cfd478380091490565b807f30644e72e131a029b85045b68181585d97816a916871ca8d3c208c16d87cfd47808080808080808881808080809e8180808080808080808981808080809e8180808080808080888180808080809e8180808080808080888180808080809e8181818080808080808781808080809e8180808080808087818080808080809e8180828180808080808080808080809e8180828180808080808080808981809e818080808080808080808080808d819e8280808080808080808080808080809e8082808080808080808080808080809e80828080808080808080808080808d819f828080808080808080808a818080809e8180808080808080808981808080809e8180808080808080808981808080809e8180808080808080808981808080809e8180808080808080808080808080809e80828080808080808080808080808d819f8280808080808080808981808080809e818080808080808080809981808080808581808080808080808080808b8181800909818c81818009090981808c8181800909818d818180090909098180808c8181800909818d818180090909818c818082818180090991818180090909090980098009800981808781818009099180090980098009800909800980098009800909800980098009800981808c8180828009918180828009918181800909090991800909800980098009800981808088800981808a8009818b8181800909090991800909800980098009098009800980098180808a800981808c8009818d8181800909090991800909800980098009800980090980098009800981808c8181800909918009098009800980098009800980099281808083818180090981848181800909099181808280099181808280099181818009090909099180090980098009800980098009800980098009800981808d818082800991818180090909918009098009800980098180898181800909918009098009800980099281808280099181808280099181818009090909918009098009800980098009800980098180808b8009818c8181800909099180090980098009800980098009800909800980098009800980098009818080808c8009818d818180090909818c81808281818009099181818009090909918009098009800980098009928180808381818009098184818180090909918180828009918180828009918181800909090909918009098009800981808d818082800991818180090909918009098009800980098009800980098009928181800909918009098009800980098009800980098009800992818082800991818180090909918009098009800981808d818180090991800909800980098009800980098009800992818080838009818481818009090991818082818180090991818180090909099180090980098009800981808d81808083800981848181800909099181808281818009099181818009090909918009098009800980098009818080898009818a8181800909099180090980098009928180828009918180828009918181800909090991800909800980098009800980098009800980098009818080808b8009818c81818009090981808c8181800909818d81818009090909918009098009800980099281808280099181818009090991800909800980098009800981808d81808281818009099181808281818009099181818009090909918009098009800980098009800980098180808088800981898181800909098180898181800909818a81818009090909918009098009800909800980098009800980098009928180828009918180828009918181800909090991800909800980098009800980098180808c8009818d8180828009918181800909090991800909800980098009800981808087800981888181800909099180090980098009098009800980098009800980099281808083818180090981848181800909099181808280099181808280099181818009090909099180090980098009800980098009818080808b8181800909818c81818009090981808c8181800909818d81808281818009099181818009090909099180090980098009800980098009098009800980098009800980090980098009800980099281818009099180090980098009800980098009800980098009818080808a8009818b81818009090981808b8181800909818c818180090909099180090980098009928181800909918009098009800981808d81818009099180090980098009800980098009800980099281808083818180090981848181800909099181808281818009099181808281818009099181818009090909099180090980098009800981808d8180828181800909918180828181800909918181800909090991800909800980098009818080808b8181800909818c81818009090981808c8181800909818d8180828181800909918181800909090909918009098009800981808087800981888181800909099180090980098009098009800980098009800992818082800991818180090909918009099056fea264697066735822122088b4ccf21da4cc7e62ea2749d52dbfc0e356090d09ad8f5792fd802dd585aa5664736f6c63430008180033",
  "linkReferences": {},
  "deployedLinkReferences": {}
}