{
  "_format": "hh-sol-artifact-1",
  "contractName": "DataAnchoringContract",
  "sourceName": "contracts/main/DataAnchoringContract.sol",
  "abi": [
    {
      "inputs": [],
      "stateMutability": "nonpayable",
      "type": "constructor"
    },
    {
      "inputs": [
        {
          "internalType": "uint256[4]",
          "name": "input",
          "type": "uint256[4]"
        }
      ],
      "name": "BNAddFailed",
      "type": "error"
    },
    {
      "inputs": [
        {
          "internalType": "bytes",
          "name": "dst",
          "type": "bytes"
        }
      ],
      "name": "InvalidDSTLength",
      "type": "error"
    },
    {
      "inputs": [
        {
          "internalType": "uint256",
          "name": "x",
          "type": "uint256"
        }
      ],
      "name": "InvalidFieldElement",
      "type": "error"
    },
    {
      "inputs": [
        {
          "internalType": "uint256",
          "name": "noSqrt",
          "type": "uint256"
        }
      ],
      "name": "MapToPointFailed",
      "type": "error"
    },
    {
      "inputs": [
        {
          "internalType": "uint256",
          "name": "base",
          "type": "uint256"
        },
        {
          "internalType": "uint256",
          "name": "exponent",
          "type": "uint256"
        },
        {
          "internalType": "uint256",
          "name": "modulus",
          "type": "uint256"
        }
      ],
      "name": "ModExpFailed",
      "type": "error"
    },
    {
      "anonymous": false,
      "inputs": [
        {
          "indexed": true,
          "internalType": "bytes32",
          "name": "dataHash",
          "type": "bytes32"
        },
        {
          "indexed": false,
          "internalType": "string",
          "name": "cid",
          "type": "string"
        },
        {
          "indexed": false,
          "internalType": "uint256",
          "name": "expiry",
          "type": "uint256"
        },
        {
          "indexed": false,
          "internalType": "string",
          "name": "status",
          "type": "string"
        }
      ],
      "name": "DataAnchored",
      "type": "event"
    },
    {
      "anonymous": false,
      "inputs": [
        {
          "indexed": true,
          "internalType": "bytes32",
          "name": "dataHash",
          "type": "bytes32"
        },
        {
          "indexed": false,
          "internalType": "string",
          "name": "newStatus",
          "type": "string"
        }
      ],
      "name": "DataUpdated",
      "type": "event"
    },
    {
      "inputs": [
        {
          "internalType": "bytes32",
          "name": "dataHash",
          "type": "bytes32"
        },
        {
          "internalType": "string",
          "name": "cid",
          "type": "string"
        },
        {
          "internalType": "uint256",
          "name": "expiry",
          "type": "uint256"
        },
        {
          "internalType": "string",
          "name": "status",
          "type": "string"
        }
      ],
      "name": "anchor",
      "outputs": [],
      "stateMutability": "nonpayable",
      "type": "function"
    },
    {
      "inputs": [
        {
          "internalType": "uint256",
          "name": "",
          "type": "uint256"
        },
        {
          "internalType": "uint256",
          "name": "",
          "type": "uint256"
        }
      ],
      "name": "blsPubKeys",
      "outputs": [
        {
          "internalType": "uint256",
          "name": "",
          "type": "uint256"
        }
      ],
      "stateMutability": "view",
      "type": "function"
    },
    {
      "inputs": [
        {
          "internalType": "bytes32",
          "name": "dataHash",
          "type": "bytes32"
        }
      ],
      "name": "get",
      "outputs": [
        {
          "internalType": "bytes32",
          "name": "dataHash_",
          "type": "bytes32"
        },
        {
          "internalType": "string",
          "name": "cid_",
          "type": "string"
        },
        {
          "internalType": "uint256",
          "name": "expiry_",
          "type": "uint256"
        },
        {
          "internalType": "string",
          "name": "status_",
          "type": "string"
        }
      ],
      "stateMutability": "view",
      "type": "function"
    },
    {
      "inputs": [
        {
          "internalType": "uint256[2]",
          "name": "aggSig",
          "type": "uint256[2]"
        },
        {
          "internalType": "bytes32",
          "name": "dataHash",
          "type": "bytes32"
        },
        {
          "internalType": "string",
          "name": "milestone",
          "type": "string"
        },
        {
          "internalType": "string[]",
          "name": "dids",
          "type": "string[]"
        }
      ],
      "name": "update",
      "outputs": [],
      "stateMutability": "nonpayable",
      "type": "function"
    }
  ],
  "bytecode": "0x608060405234801561001057600080fd5b5060006040518060800160405280600160ff168152602001600060ff168152602001600260ff168152602001600060ff16815250908060018154018082558091505060019003906000526020600020906004020160009091909190915090600461007b929190610157565b5060006040518060800160405280600360ff168152602001600060ff168152602001600460ff168152602001600060ff1681525090806001815401808255809150506001900390600052602060002090600402016000909190919091509060046100e6929190610157565b5060006040518060800160405280600560ff168152602001600060ff168152602001600660ff168152602001600060ff168152509080600181540180825580915050600190039060005260206000209060040201600090919091909150906004610151929190610157565b506101b9565b826004810192821561018b579160200282015b8281111561018a578251829060ff1690559160200191906001019061016a565b5b509050610198919061019c565b5090565b5b808211156101b557600081600090555060010161019d565b5090565b613908806101c86000396000f3fe608060405234801561001057600080fd5b506004361061004c5760003560e01c80633850ed51146100515780634de5fa0c1461006d5780638eaa6ac01461009d578063e3dfeffc146100d0575b600080fd5b61006b6004803603810190610066919061290b565b6100ec565b005b610087600480360381019061008291906129b2565b61029c565b6040516100949190612a01565b60405180910390f35b6100b760048036038101906100b29190612a1c565b6102d4565b6040516100c79493929190612ae8565b60405180910390f35b6100ea60048036038101906100e59190612bb3565b610476565b005b6000801b8603610131576040517f08c379a000000000000000000000000000000000000000000000000000000000815260040161012890612ca6565b60405180910390fd5b60008585905011610177576040517f08c379a000000000000000000000000000000000000000000000000000000000815260040161016e90612d12565b60405180910390fd5b4283116101b9576040517f08c379a00000000000000000000000000000000000000000000000000000000081526004016101b090612d7e565b60405180910390fd5b60006001600088815260200190815260200160002090506000801b816000015414610219576040517f08c379a000000000000000000000000000000000000000000000000000000000815260040161021090612dea565b60405180910390fd5b8681600001819055508585826001019182610235929190613050565b508381600201819055508282826003019182610252929190613050565b50867fe18a55b985f840385ab64291d5164d82da1b055135197b9e06882a73317b8073878787878760405161028b95949392919061315c565b60405180910390a250505050505050565b600082815481106102ac57600080fd5b906000526020600020906004020181600481106102c857600080fd5b01600091509150505481565b600060606000606060006001600087815260200190815260200160002090506000801b81600001540361033c576040517f08c379a0000000000000000000000000000000000000000000000000000000008152600401610333906131f1565b60405180910390fd5b80600001548160010182600201548360030182805461035a90612e73565b80601f016020809104026020016040519081016040528092919081815260200182805461038690612e73565b80156103d35780601f106103a8576101008083540402835291602001916103d3565b820191906000526020600020905b8154815290600101906020018083116103b657829003601f168201915b505050505092508080546103e690612e73565b80601f016020809104026020016040519081016040528092919081815260200182805461041290612e73565b801561045f5780601f106104345761010080835404028352916020019161045f565b820191906000526020600020905b81548152906001019060200180831161044257829003601f168201915b505050505090509450945094509450509193509193565b60006001600087815260200190815260200160002090506000801b8160000154036104d6576040517f08c379a00000000000000000000000000000000000000000000000000000000081526004016104cd906131f1565b60405180910390fd5b6000866040518060400160405280600181526020017f7c000000000000000000000000000000000000000000000000000000000000008152508787604051602001610524949392919061329e565b604051602081830303815290604052905060006105766040518060400160405280600381526020017f44414300000000000000000000000000000000000000000000000000000000008152508361070c565b90506105806127ca565b60005b600080549050811015610606576105f782600083815481106105a8576105a76132d5565b5b90600052602060002090600402016004806020026040519081016040528092919082600480156105ed576020028201915b8154815260200190600101908083116105d9575b50505050506108ae565b91508080600101915050610583565b50600061064b8b6002806020026040519081016040528092919082600260200280828437600081840152601f19601f8201169050808301925050505050508385610979565b5090508061068e576040517f08c379a000000000000000000000000000000000000000000000000000000000815260040161068590613350565b60405180910390fd5b600089896040516020016106a39291906133ec565b6040516020818303038152906040529050808660030190816106c59190613410565b508a7f12f9d9ce5e1577cde337d32720563ae30a0fc8c24bfe12db04a281eead2b6cc5826040516106f691906134e2565b60405180910390a2505050505050505050505050565b6107146127ec565b60006107208484610b54565b905060006107458260006002811061073b5761073a6132d5565b5b6020020151610ce5565b9050600061076a836001600281106107605761075f6132d5565b5b6020020151610ce5565b90506107746127ca565b82600060028110610788576107876132d5565b5b6020020151816000600481106107a1576107a06132d5565b5b602002018181525050826001600281106107be576107bd6132d5565b5b6020020151816001600481106107d7576107d66132d5565b5b602002018181525050816000600281106107f4576107f36132d5565b5b60200201518160026004811061080d5761080c6132d5565b5b6020020181815250508160016002811061082a576108296132d5565b5b602002015181600360048110610843576108426132d5565b5b602002018181525050600060408460808460066107d05a03fa9050806108a057816040517f128e3f0800000000000000000000000000000000000000000000000000000000815260040161089791906135af565b60405180910390fd5b839550505050505092915050565b6108b66127ca565b60006040518451815260208501516020820152604085015160408201526060850151606082015283516080820152602084015160a0820152604084015160c0820152606084015160e082015260808161010083600c5afa9150805183526020810151602084015260408101516040840152606081015160608401525080610972576040517f08c379a000000000000000000000000000000000000000000000000000000000815260040161096990613616565b60405180910390fd5b5092915050565b60008060006040518061018001604052808760006002811061099e5761099d6132d5565b5b60200201518152602001876001600281106109bc576109bb6132d5565b5b602002015181526020017f198e9393920d483a7260bfb731fb5d25f1aa493335a9e71297e485b7aef312c281526020017f1800deef121f1e76426a00665e5c4479674322d4f75edadd46debd5cd992f6ed81526020017f275dc4a288d1afb3cbb1ac09187524c7db36395df7be3b99e673b13a075a65ec81526020017f1d9befcd05a5323e6da4d435f3b617cdb3af83285c2df711ef39c01571827f9d815260200185600060028110610a7257610a716132d5565b5b6020020151815260200185600160028110610a9057610a8f6132d5565b5b6020020151815260200186600160048110610aae57610aad6132d5565b5b6020020151815260200186600060048110610acc57610acb6132d5565b5b6020020151815260200186600360048110610aea57610ae96132d5565b5b6020020151815260200186600260048110610b0857610b076132d5565b5b60200201518152509050610b1a61280e565b6020816101808460086107d05a03fa9250600081600060018110610b4157610b406132d5565b5b6020020151141593505050935093915050565b610b5c6127ec565b6000610b6884846113e0565b90506000806000806018850177ffffffffffffffffffffffffffffffffffffffffffffffff815116935060308601905077ffffffffffffffffffffffffffffffffffffffffffffffff81511694507f30644e72e131a029b85045b68181585d97816a916871ca8d3c208c16d87cfd47857f30644e72e131a029b85045b68181585d97816a916871ca8d3c208c16d87cfd477801000000000000000000000000000000000000000000000000870908925060488601905077ffffffffffffffffffffffffffffffffffffffffffffffff815116935060608601905077ffffffffffffffffffffffffffffffffffffffffffffffff81511694507f30644e72e131a029b85045b68181585d97816a916871ca8d3c208c16d87cfd47857f30644e72e131a029b85045b68181585d97816a916871ca8d3c208c16d87cfd4778010000000000000000000000000000000000000000000000008709089150506040518060400160405280838152602001828152509550505050505092915050565b610ced6127ec565b7f30644e72e131a029b85045b68181585d97816a916871ca8d3c208c16d87cfd478210610d5157816040517fd53e9415000000000000000000000000000000000000000000000000000000008152600401610d489190612a01565b60405180910390fd5b60007f30644e72e131a029b85045b68181585d97816a916871ca8d3c208c16d87cfd4780610d8257610d81613636565b5b60047f30644e72e131a029b85045b68181585d97816a916871ca8d3c208c16d87cfd4780610db357610db2613636565b5b85860909905060007f30644e72e131a029b85045b68181585d97816a916871ca8d3c208c16d87cfd4780610dea57610de9613636565b5b8260010890507f30644e72e131a029b85045b68181585d97816a916871ca8d3c208c16d87cfd4780610e1f57610e1e613636565b5b827f30644e72e131a029b85045b68181585d97816a916871ca8d3c208c16d87cfd47610e4b9190613694565b60010891506000610e8c7f30644e72e131a029b85045b68181585d97816a916871ca8d3c208c16d87cfd4780610e8457610e83613636565b5b8385096115e2565b905060007f30644e72e131a029b85045b68181585d97816a916871ca8d3c208c16d87cfd4780610ebf57610ebe613636565b5b78016789af3a83522eb353c98fc6b36d713d5d8d1cc5dffffffa7f30644e72e131a029b85045b68181585d97816a916871ca8d3c208c16d87cfd4780610f0857610f07613636565b5b847f30644e72e131a029b85045b68181585d97816a916871ca8d3c208c16d87cfd4780610f3857610f37613636565b5b888b090909905060007f30644e72e131a029b85045b68181585d97816a916871ca8d3c208c16d87cfd4780610f7057610f6f613636565b5b827f30644e72e131a029b85045b68181585d97816a916871ca8d3c208c16d87cfd47610f9c9190613694565b7f183227397098d014dc2822db40c0ac2ecbc0b548b438e5469e10460b6c3e7ea308905060007f30644e72e131a029b85045b68181585d97816a916871ca8d3c208c16d87cfd4780610ff157610ff0613636565b5b837f183227397098d014dc2822db40c0ac2ecbc0b548b438e5469e10460b6c3e7ea308905060007f30644e72e131a029b85045b68181585d97816a916871ca8d3c208c16d87cfd478061104757611046613636565b5b868709905060007f30644e72e131a029b85045b68181585d97816a916871ca8d3c208c16d87cfd478061107d5761107c613636565b5b868309905060007f30644e72e131a029b85045b68181585d97816a916871ca8d3c208c16d87cfd47806110b3576110b2613636565b5b7f30644e72e131a029b85045b68181585d97816a916871ca8d3c208c16d87cfd47806110e2576110e1613636565b5b7f30644e72e131a029b85045b68181585d97816a916871ca8d3c208c16d87cfd478061111157611110613636565b5b8485097f10216f7ba065e00de81ac1e7808072c9dd2b2385cd7b438469602eb24829a9bd096001089050600080600161115161114c896115f4565b611692565b60000b036111f357868c60006002811061116e5761116d6132d5565b5b602002018181525050611180876115f4565b905061118b8161175a565b8d60016002811061119f5761119e6132d5565b5b60200201819450828152505050816111ee57806040517f396ec7710000000000000000000000000000000000000000000000000000000081526004016111e59190612a01565b60405180910390fd5b61133f565b6001611206611201886115f4565b611692565b60000b036112a857858c600060028110611223576112226132d5565b5b602002018181525050611235866115f4565b90506112408161175a565b8d600160028110611254576112536132d5565b5b60200201819450828152505050816112a357806040517f396ec77100000000000000000000000000000000000000000000000000000000815260040161129a9190612a01565b60405180910390fd5b61133e565b828c6000600281106112bd576112bc6132d5565b5b6020020181815250506112cf836115f4565b90506112da8161175a565b8d6001600281106112ee576112ed6132d5565b5b602002018194508281525050508161133d57806040517f396ec7710000000000000000000000000000000000000000000000000000000081526004016113349190612a01565b60405180910390fd5b5b5b6113608c600160028110611356576113556132d5565b5b60200201516117a3565b6113698e6117a3565b146113d0578b600160028110611382576113816132d5565b5b60200201517f30644e72e131a029b85045b68181585d97816a916871ca8d3c208c16d87cfd476113b29190613694565b8c6001600281106113c6576113c56132d5565b5b6020020181815250505b5050505050505050505050919050565b606060008351905060ff81111561142e57836040517f26e4f9ba0000000000000000000000000000000000000000000000000000000081526004016114259190613712565b60405180910390fd5b6000608867ffffffffffffffff81111561144b5761144a612e15565b5b6040519080825280601f01601f19166020018201604052801561147d5781602001600182028036833780820191505090505b509050600081856000606060008a886040516020016114a29796959493929190613777565b6040516020818303038152906040529050600081805190602001209050600081600189876040516020016114d994939291906137ec565b60405160208183030381529060405290506000818051906020012090506000606067ffffffffffffffff81111561151357611512612e15565b5b6040519080825280601f01601f1916602001820160405280156115455781602001600182028036833780820191505090505b5090506000600390506000600190505b818110156115bd5783861881600161156d9190613836565b8d8b60405160200161158294939291906137ec565b604051602081830303815290604052945082602001600182036020028101905084815250848051906020012093508080600101915050611555565b5081602001600182036020028101905083815250819850505050505050505092915050565b60006115ed826117b9565b9050919050565b60007f30644e72e131a029b85045b68181585d97816a916871ca8d3c208c16d87cfd478061162557611624613636565b5b60037f30644e72e131a029b85045b68181585d97816a916871ca8d3c208c16d87cfd478061165657611655613636565b5b847f30644e72e131a029b85045b68181585d97816a916871ca8d3c208c16d87cfd478061168657611685613636565b5b86870909089050919050565b60008061169e83611f13565b905060017f30644e72e131a029b85045b68181585d97816a916871ca8d3c208c16d87cfd476116cd9190613694565b81036116fc577fffffffffffffffffffffffffffffffffffffffffffffffffffffffffffffffff915050611755565b6000811415801561170e575060018114155b1561175057826040517f396ec7710000000000000000000000000000000000000000000000000000000081526004016117479190612a01565b60405180910390fd5b809150505b919050565b60008061176683612082565b9150827f30644e72e131a029b85045b68181585d97816a916871ca8d3c208c16d87cfd478061179857611797613636565b5b838409149050915091565b60006002826117b2919061386a565b9050919050565b60007f30644e72e131a029b85045b68181585d97816a916871ca8d3c208c16d87cfd478083840991508083830981838209828283098385830984848309858484098684850997508684840987858409945087898a09985087898a09985087898a09985087898a09985087898a09985087878a09985087898a09985087898a09985087898a099850878a8a09985087898a09985087898a09985087898a09985087898a099850878a8a09985087898a09985087898a09985087898a09985087898a09985087898a09985087848a09985087898a09985087898a09985087898a09985087898a09985087898a09985087848a09985087898a09985087898a09985087898a099850878a8a09985087898a09985087898a09985087898a09985087898a09985087848a09985087898a09985087898a09985087898a09985087898a09985087898a099850878a8a09985087898a09985087898a09985087898a09985087898a09985087878a09985087898a09985087898a09985087898a09985087898a09985087898a09985087898a09985087898a09985087818a09985087898a09985087898a09985087898a09985087898a09985087898a09985087898a09985087898a09985087898a09985087898a09985087898a09985087868a09985087898a09985087898a09985087898a09985087898a09985087878a09985087898a09985087898a09985087898a09985087898a09985087848a09985087898a09985087898a09985087898a09985087898a09985087898a09985087898a09985087898a09985087868a09985087898a09985087898a09985087898a09985087898a09985087898a09985087898a099850878a8a09985087898a09985087898a09985087898a09985087898a09985087898a09985087898a09985087898a09985087828a09985087898a09985087898a09985087898a09985087898a09985087898a09985087818a09985087898a09985087898a09985087898a09985087868a09985087898a09985087898a09985087898a09985087898a09985087898a09985087898a09985087898a09985087898a09985087878a09985087898a09985087898a09985087898a09985087898a09985087898a09985087898a09985087898a09985087898a09985087898a09985087868a09985087898a09985087898a09985087898a09985087878a09985087898a09985087898a09985087898a09985087898a09985087898a09985087898a09985087898a09985087898a09985087828a09985087898a09985087898a09985087898a09985087898a09985087828a09985087898a09985087898a09985087898a09985087898a09985087898a09985087868a09985087898a09985087898a09985087898a09985087848a09985087898a09985087898a09985087898a09985087898a09985087898a09985087898a09985087898a09985087898a09985087898a09985087898a09985087828a09985087898a09985087898a09985087898a09985087898a09985087868a09985087898a09985087898a09985087898a09985087898a09985087898a09985087838a09985087898a09985087898a09985087898a09985087898a09985087898a09985087898a09985087898a09985087828a09985087898a09985087898a099850878a8a09985087898a09985087898a09985087898a09985087898a09985087898a09985087898a09985087898a09985087848a09985087898a09985087898a09985087898a09985087898a09985087898a09985087898a09985087848a09985087898a09985087898a09985087898a09985087898a09985087898a09985087868a09985087898a09985087898a099850878a8a09985087898a09985087898a09985087898a09985087898a09985087898a09985087898a09985087898a09985087818a09985087898a09985087898a09985087898a09985087898a09985087898a09985087898a09985087858a09985087898a09985087898a09985087898a09985087898a09985087898a099850878a8a09985087898a09985087898a09985087898a09985087898a09985087898a09985087898a099850878a8a09985087898a09985087898a09985087898a09985087898a09985087898a09985087878a09985087898a09985087898a09985087898a09985087898a09985087898a09985087898a09985087898a09985087898a09985087898a09985087828a09985087898a09985087898a09985087898a09985087878a09985087898a09985087898a09985087898a09985087878a09985087898a09985087898a09985087898a09985087898a09985087898a09985087898a09985087898a09985087898a09985087858a09985087898a09985087898a09985087898a09985087898a09985087838a09985087898a09985087898a09985087898a09985087898a09985087858a09985087898a09985087898a09985087898a09985087868a09985087898a09985087898a099850878a8a09985087898a09985087898a09985087898a09985087898a09985087898a09985087898a09985087868a0998505050505050505050919050565b60008060c067ffffffffffffffff811115611f3157611f30612e15565b5b6040519080825280601f01601f191660200182016040528015611f635781602001600182028036833780820191505090505b5090506000602082016020815260208101905060208152602081019050602081526020810190508481526020810190507f183227397098d014dc2822db40c0ac2ecbc0b548b438e5469e10460b6c3e7ea381526020810190507f30644e72e131a029b85045b68181585d97816a916871ca8d3c208c16d87cfd4781526020600060c06020860160055afa91506000519350508061207b57837f183227397098d014dc2822db40c0ac2ecbc0b548b438e5469e10460b6c3e7ea37f30644e72e131a029b85045b68181585d97816a916871ca8d3c208c16d87cfd476040517fc6daf7ab0000000000000000000000000000000000000000000000000000000081526004016120729392919061389b565b60405180910390fd5b5050919050565b60007f30644e72e131a029b85045b68181585d97816a916871ca8d3c208c16d87cfd478083840991508083830981838209828283098385830984848309858484098684850997508684840987858409945087898a09985087898a09985087898a09985087898a09985087898a09985087878a09985087898a09985087898a09985087898a099850878a8a09985087898a09985087898a09985087898a09985087898a099850878a8a09985087898a09985087898a09985087898a09985087898a09985087898a09985087848a09985087898a09985087898a09985087898a09985087898a09985087898a09985087848a09985087898a09985087898a09985087898a099850878a8a09985087898a09985087898a09985087898a09985087898a09985087848a09985087898a09985087898a09985087898a09985087898a09985087898a099850878a8a09985087898a09985087898a09985087898a09985087898a09985087878a09985087898a09985087898a09985087898a09985087898a09985087898a09985087898a09985087898a09985087818a09985087898a09985087898a09985087898a09985087898a09985087898a09985087898a09985087898a09985087898a09985087898a09985087898a09985087868a09985087898a09985087898a09985087898a09985087898a09985087878a09985087898a09985087898a09985087898a09985087898a09985087848a09985087898a09985087898a09985087898a09985087898a09985087898a09985087898a09985087898a09985087868a09985087898a09985087898a09985087898a09985087898a09985087898a09985087898a099850878a8a09985087898a09985087898a09985087898a09985087898a09985087898a09985087898a09985087898a09985087828a09985087898a09985087898a09985087898a09985087898a09985087898a09985087818a09985087898a09985087898a09985087898a09985087868a09985087898a09985087898a09985087898a09985087898a09985087898a09985087898a09985087898a09985087898a09985087878a09985087898a09985087898a09985087898a09985087898a09985087898a09985087898a09985087898a09985087898a09985087898a09985087868a09985087898a09985087898a09985087898a09985087878a09985087898a09985087898a09985087898a09985087898a09985087898a09985087898a09985087898a09985087898a09985087828a09985087898a09985087898a09985087898a09985087898a09985087828a09985087898a09985087898a09985087898a09985087898a09985087898a09985087868a09985087898a09985087898a09985087898a09985087848a09985087898a09985087898a09985087898a09985087898a09985087898a09985087898a09985087898a09985087898a09985087898a09985087898a09985087828a09985087898a09985087898a09985087898a09985087898a09985087868a09985087898a09985087898a09985087898a09985087898a09985087898a09985087838a09985087898a09985087898a09985087898a09985087898a09985087898a09985087898a09985087898a09985087828a09985087898a09985087898a099850878a8a09985087898a09985087898a09985087898a09985087898a09985087898a09985087898a09985087898a09985087848a09985087898a09985087898a09985087898a09985087898a09985087898a09985087898a09985087848a09985087898a09985087898a09985087898a09985087898a09985087898a09985087868a09985087898a09985087898a099850878a8a09985087898a09985087898a09985087898a09985087898a09985087898a09985087898a09985087898a09985087818a09985087898a09985087898a09985087898a09985087898a09985087898a09985087898a09985087858a09985087898a09985087898a09985087898a09985087898a09985087898a099850878a8a09985087898a09985087898a09985087898a09985087898a09985087898a09985087898a099850878a8a09985087898a09985087898a09985087898a09985087898a09985087898a09985087878a09985087898a09985087898a09985087898a09985087898a09985087898a09985087898a09985087898a09985087898a09985087898a09985087828a09985087898a09985087898a09985087898a09985087878a09985087898a09985087898a09985087898a09985087878a09985087898a09985087898a09985087898a09985087898a09985087898a09985087898a09985087898a09985087898a09985087858a09985087898a09985087898a09985087898a09985087898a09985087838a09985087898a09985087898a09985087898a09985087898a09985087858a09985087898a09985087898a09985087898a09985087868a09985087898a09985087898a09985087898a09985087898a09985087898a09985087838a09985087898a0998505050505050505050919050565b6040518060800160405280600490602082028036833780820191505090505090565b6040518060400160405280600290602082028036833780820191505090505090565b6040518060200160405280600190602082028036833780820191505090505090565b600080fd5b600080fd5b6000819050919050565b61284d8161283a565b811461285857600080fd5b50565b60008135905061286a81612844565b92915050565b600080fd5b600080fd5b600080fd5b60008083601f84011261289557612894612870565b5b8235905067ffffffffffffffff8111156128b2576128b1612875565b5b6020830191508360018202830111156128ce576128cd61287a565b5b9250929050565b6000819050919050565b6128e8816128d5565b81146128f357600080fd5b50565b600081359050612905816128df565b92915050565b6000806000806000806080878903121561292857612927612830565b5b600061293689828a0161285b565b965050602087013567ffffffffffffffff81111561295757612956612835565b5b61296389828a0161287f565b9550955050604061297689828a016128f6565b935050606087013567ffffffffffffffff81111561299757612996612835565b5b6129a389828a0161287f565b92509250509295509295509295565b600080604083850312156129c9576129c8612830565b5b60006129d7858286016128f6565b92505060206129e8858286016128f6565b9150509250929050565b6129fb816128d5565b82525050565b6000602082019050612a1660008301846129f2565b92915050565b600060208284031215612a3257612a31612830565b5b6000612a408482850161285b565b91505092915050565b612a528161283a565b82525050565b600081519050919050565b600082825260208201905092915050565b60005b83811015612a92578082015181840152602081019050612a77565b60008484015250505050565b6000601f19601f8301169050919050565b6000612aba82612a58565b612ac48185612a63565b9350612ad4818560208601612a74565b612add81612a9e565b840191505092915050565b6000608082019050612afd6000830187612a49565b8181036020830152612b0f8186612aaf565b9050612b1e60408301856129f2565b8181036060830152612b308184612aaf565b905095945050505050565b600081905082602060020282011115612b5757612b5661287a565b5b92915050565b60008083601f840112612b7357612b72612870565b5b8235905067ffffffffffffffff811115612b9057612b8f612875565b5b602083019150836020820283011115612bac57612bab61287a565b5b9250929050565b60008060008060008060a08789031215612bd057612bcf612830565b5b6000612bde89828a01612b3b565b9650506040612bef89828a0161285b565b955050606087013567ffffffffffffffff811115612c1057612c0f612835565b5b612c1c89828a0161287f565b9450945050608087013567ffffffffffffffff811115612c3f57612c3e612835565b5b612c4b89828a01612b5d565b92509250509295509295509295565b7f4441433a207a65726f2064617461486173680000000000000000000000000000600082015250565b6000612c90601283612a63565b9150612c9b82612c5a565b602082019050919050565b60006020820190508181036000830152612cbf81612c83565b9050919050565b7f4441433a20656d70747920434944000000000000000000000000000000000000600082015250565b6000612cfc600e83612a63565b9150612d0782612cc6565b602082019050919050565b60006020820190508181036000830152612d2b81612cef565b9050919050565b7f4441433a20657870697279206d75737420626520667574757265000000000000600082015250565b6000612d68601a83612a63565b9150612d7382612d32565b602082019050919050565b60006020820190508181036000830152612d9781612d5b565b9050919050565b7f4441433a20616c726561647920616e63686f7265640000000000000000000000600082015250565b6000612dd4601583612a63565b9150612ddf82612d9e565b602082019050919050565b60006020820190508181036000830152612e0381612dc7565b9050919050565b600082905092915050565b7f4e487b7100000000000000000000000000000000000000000000000000000000600052604160045260246000fd5b7f4e487b7100000000000000000000000000000000000000000000000000000000600052602260045260246000fd5b60006002820490506001821680612e8b57607f821691505b602082108103612e9e57612e9d612e44565b5b50919050565b60008190508160005260206000209050919050565b60006020601f8301049050919050565b600082821b905092915050565b600060088302612f067fffffffffffffffffffffffffffffffffffffffffffffffffffffffffffffffff82612ec9565b612f108683612ec9565b95508019841693508086168417925050509392505050565b6000819050919050565b6000612f4d612f48612f43846128d5565b612f28565b6128d5565b9050919050565b6000819050919050565b612f6783612f32565b612f7b612f7382612f54565b848454612ed6565b825550505050565b600090565b612f90612f83565b612f9b818484612f5e565b505050565b5b81811015612fbf57612fb4600082612f88565b600181019050612fa1565b5050565b601f82111561300457612fd581612ea4565b612fde84612eb9565b81016020851015612fed578190505b613001612ff985612eb9565b830182612fa0565b50505b505050565b600082821c905092915050565b600061302760001984600802613009565b1980831691505092915050565b60006130408383613016565b9150826002028217905092915050565b61305a8383612e0a565b67ffffffffffffffff81111561307357613072612e15565b5b61307d8254612e73565b613088828285612fc3565b6000601f8311600181146130b757600084156130a5578287013590505b6130af8582613034565b865550613117565b601f1984166130c586612ea4565b60005b828110156130ed578489013582556001820191506020850194506020810190506130c8565b8683101561310a5784890135613106601f891682613016565b8355505b6001600288020188555050505b50505050505050565b82818337600083830152505050565b600061313b8385612a63565b9350613148838584613120565b61315183612a9e565b840190509392505050565b6000606082019050818103600083015261317781878961312f565b905061318660208301866129f2565b818103604083015261319981848661312f565b90509695505050505050565b7f4441433a206e6f7420616e63686f726564000000000000000000000000000000600082015250565b60006131db601183612a63565b91506131e6826131a5565b602082019050919050565b6000602082019050818103600083015261320a816131ce565b9050919050565b6000819050919050565b61322c6132278261283a565b613211565b82525050565b600081519050919050565b600081905092915050565b600061325382613232565b61325d818561323d565b935061326d818560208601612a74565b80840191505092915050565b6000613285838561323d565b9350613292838584613120565b82840190509392505050565b60006132aa828761321b565b6020820191506132ba8286613248565b91506132c7828486613279565b915081905095945050505050565b7f4e487b7100000000000000000000000000000000000000000000000000000000600052603260045260246000fd5b7f4441433a20424c5320766572696679206661696c656400000000000000000000600082015250565b600061333a601683612a63565b915061334582613304565b602082019050919050565b600060208201905081810360008301526133698161332d565b9050919050565b600081905092915050565b60006133878385613370565b9350613394838584613120565b82840190509392505050565b7f5f76657269666965640000000000000000000000000000000000000000000000600082015250565b60006133d6600983613370565b91506133e1826133a0565b600982019050919050565b60006133f982848661337b565b9150613404826133c9565b91508190509392505050565b61341982612a58565b67ffffffffffffffff81111561343257613431612e15565b5b61343c8254612e73565b613447828285612fc3565b600060209050601f83116001811461347a5760008415613468578287015190505b6134728582613034565b8655506134da565b601f19841661348886612ea4565b60005b828110156134b05784890151825560018201915060208501945060208101905061348b565b868310156134cd57848901516134c9601f891682613016565b8355505b6001600288020188555050505b505050505050565b600060208201905081810360008301526134fc8184612aaf565b905092915050565b600060049050919050565b600081905092915050565b6000819050919050565b61352d816128d5565b82525050565b600061353f8383613524565b60208301905092915050565b6000602082019050919050565b61356181613504565b61356b818461350f565b92506135768261351a565b8060005b838110156135a757815161358e8782613533565b96506135998361354b565b92505060018101905061357a565b505050505050565b60006080820190506135c46000830184613558565b92915050565b7f424c533a20473220616464206661696c65640000000000000000000000000000600082015250565b6000613600601283612a63565b915061360b826135ca565b602082019050919050565b6000602082019050818103600083015261362f816135f3565b9050919050565b7f4e487b7100000000000000000000000000000000000000000000000000000000600052601260045260246000fd5b7f4e487b7100000000000000000000000000000000000000000000000000000000600052601160045260246000fd5b600061369f826128d5565b91506136aa836128d5565b92508282039050818111156136c2576136c1613665565b5b92915050565b600082825260208201905092915050565b60006136e482613232565b6136ee81856136c8565b93506136fe818560208601612a74565b61370781612a9e565b840191505092915050565b6000602082019050818103600083015261372c81846136d9565b905092915050565b600060ff82169050919050565b60008160f81b9050919050565b600061375982613741565b9050919050565b61377161376c82613734565b61374e565b82525050565b6000613783828a613248565b915061378f8289613248565b915061379b8288613760565b6001820191506137ab8287613760565b6001820191506137bb8286613760565b6001820191506137cb8285613248565b91506137d78284613760565b60018201915081905098975050505050505050565b60006137f8828761321b565b6020820191506138088286613760565b6001820191506138188285613248565b91506138248284613760565b60018201915081905095945050505050565b6000613841826128d5565b915061384c836128d5565b925082820190508082111561386457613863613665565b5b92915050565b6000613875826128d5565b9150613880836128d5565b9250826138905761388f613636565b5b828206905092915050565b60006060820190506138b060008301866129f2565b6138bd60208301856129f2565b6138ca60408301846129f2565b94935050505056fea2646970667358221220f57be2e5445e0582798ef7c47cde0b659cd2c1e8800311bc45d19dcba663a7d664736f6c634300081c0033",
  "linkReferences": {},
  "deployedLinkReferences": {}
}