{
  "_format": "hh-sol-artifact-1",
  "contractName": "DataAnchoringContract",
  "sourceName": "contracts/main/DataAnchoringContract.sol",
  "abi": [
    {
      "inputs": [
        {
          "internalType": "uint256[4]",
          "name": "input",
          "type": "uint256[4]"
        }
      ],
      "name": "BNAddFailed",
      "type": "error"
    },
    {
      "inputs": [
        {
          "internalType": "bytes",
          "name": "dst",
          "type": "bytes"
        }
      ],
      "name": "InvalidDSTLength",
      "type": "error"
    },
    {
      "inputs": [
        {
          "internalType": "uint256",
          "name": "x",
          "type": "uint256"
        }
      ],
      "name": "InvalidFieldElement",
      "type": "error"
    },
    {
      "inputs": [
        {
          "internalType": "uint256",
          "name": "noSqrt",
          "type": "uint256"
        }
      ],
      "name": "MapToPointFailed",
      "type": "error"
    },
    {
      "inputs": [
        {
          "internalType": "uint256",
          "name": "base",
          "type": "uint256"
        },
        {
          "internalType": "uint256",
          "name": "exponent",
          "type": "uint256"
        },
        {
          "internalType": "uint256",
          "name": "modulus",
          "type": "uint256"
        }
      ],
      "name": "ModExpFailed",
      "type": "error"
    },
    {
      "anonymous": false,
      "inputs": [
        {
          "indexed": false,
          "internalType": "bytes32",
          "name": "dataHash",
          "type": "bytes32"
        },
        {
          "indexed": false,
          "internalType": "string",
          "name": "cid",
          "type": "string"
        },
        {
          "indexed": false,
          "internalType": "uint256",
          "name": "expiry",
          "type": "uint256"
        },
        {
          "indexed": false,
          "internalType": "string",
          "name": "status",
          "type": "string"
        }
      ],
      "name": "DataAnchored",
      "type": "event"
    },
    {
      "anonymous": false,
      "inputs": [
        {
          "indexed": false,
          "internalType": "bytes32",
          "name": "dataHash",
          "type": "bytes32"
        },
        {
          "indexed": false,
          "internalType": "string",
          "name": "newStatus",
          "type": "string"
        }
      ],
      "name": "DataUpdated",
      "type": "event"
    },
    {
      "inputs": [
        {
          "internalType": "bytes32",
          "name": "dataHash",
          "type": "bytes32"
        },
        {
          "internalType": "string",
          "name": "cid",
          "type": "string"
        },
        {
          "internalType": "uint256",
          "name": "expiry",
          "type": "uint256"
        },
        {
          "internalType": "string",
          "name": "status",
          "type": "string"
        }
      ],
      "name": "anchor",
      "outputs": [],
      "stateMutability": "nonpayable",
      "type": "function"
    },
    {
      "inputs": [
        {
          "internalType": "bytes32",
          "name": "dataHash",
          "type": "bytes32"
        }
      ],
      "name": "get",
      "outputs": [
        {
          "internalType": "bytes32",
          "name": "dataHash_",
          "type": "bytes32"
        },
        {
          "internalType": "string",
          "name": "cid_",
          "type": "string"
        },
        {
          "internalType": "uint256",
          "name": "expiry_",
          "type": "uint256"
        },
        {
          "internalType": "string",
          "name": "status_",
          "type": "string"
        }
      ],
      "stateMutability": "view",
      "type": "function"
    },
    {
      "inputs": [
        {
          "internalType": "uint256[2]",
          "name": "aggSig",
          "type": "uint256[2]"
        },
        {
          "internalType": "bytes32",
          "name": "dataHash",
          "type": "bytes32"
        },
        {
          "internalType": "string",
          "name": "milestone",
          "type": "string"
        },
        {
          "internalType": "string[]",
          "name": "dids",
          "type": "string[]"
        },
        {
          "internalType": "uint8",
          "name": "pksMask",
          "type": "uint8"
        }
      ],
      "name": "update",
      "outputs": [],
      "stateMutability": "nonpayable",
      "type": "function"
    }
  ],
  "bytecode": "0x608034620003b95760a08101906001600160401b03821181831017620003a35760409182526200002e620003be565b907f0febc527fc610e05784552f398809fed7b36fb242e8d780f82968000b861154d82526020917f2d9b0820eaadca6c70bf7c0696eb6895c544a8ed7281129e93fcb6917c676727838201527f27575aec04b577018dfebc1b9f25e97cefbbc3c8c2d3aeb1f8d45ed464e70450848201526060907f2452213c3c8b58668d5268980fb7fe1d912a74cfaca609a30bdab68896ea57b4828201528252620000d3620003be565b7f2455d2a03728b500c4cc0ad271911e4bc8dd42633ac5bd7438af0a2a80a3f12c81527f2db4731fcbe3dda6e39fc20728f18e8631bc55419f7ea88d0392d259ef48045b848201527f2e9c1e51795148332cecab28e17c895123ba22a5ba56c1389af86ecce718c514858201527f0f1d27edf7bdc1bf49fa69878aed52a52431263840bf1780b6c1edb8cb91fa3f828201528383015262000173620003be565b7f15aa22779ac75bcf9f2136febade4e3b0007c31c9f6f1cfc03bdbea89386b24881527f0a22035c14940c675e9522932e4258941312afb004169ae6894d3478edc307f3848201527f16d89a57ad3871d717a8e73e0b74fe6deb64c9942090441a258827c1e873618b858201527f077d884f73738abc1ac46af75e3e7d234cacc09df571bdd04de53becd04da9f5828201528483015262000213620003be565b7f0b67e6f405e955a705552cc20c5843788dc1181a9f7b8feed46eb9fbfc79153681527f2dbd0a425af318a1c89601f956003df338c766dfa98c14175f19da7dcc775c8c848201527f2a1188f241747a55cae36b5bca25b031d0a839b1dac8308259c33edb65eb6e94858201527f170c2f98625e5d1a5222e2b99e25e433b9c43bc158278440ac1c0dabc19bd80882820152818301527f1258bb75e0970e7fdb7f9e16afe3d876ee996ce9f026f736f002f133ab0d8b44620002d4620003be565b917f1694aac85acd836afa535ba41366e1897a03a2948ab1514049f8e67efd585f9c83527f2dcb07e629ce8de88cbac1ee7640f3bcd074db30cb1eff4fa2275ee623d3300b858401527f1d8bb91d1944398523f23eb77f4512cd2bcd85cc378ff81b8f0f32a342fed51a868401528201526080820152906000916000905b600582106200036a578451612f129081620003df8239f35b82815160005b600481106200038e5750506004906001920194019101909262000352565b81518782015585929091019060010162000370565b634e487b7160e01b600052604160045260246000fd5b600080fd5b60405190608082016001600160401b03811183821017620003a35760405256fe6080604052600436101561001257600080fd5b6000803560e01c9081633850ed511461004a575080638eaa6ac0146100455763d40dc4c11461004057600080fd5b6102ff565b610250565b346101b45760807ffffffffffffffffffffffffffffffffffffffffffffffffffffffffffffffffc3601126101b45767ffffffffffffffff6004356024358281116101b05761009d9036906004016101b7565b604492919235936064359081116101ac576100bc9036906004016101b7565b908315610154577fe18a55b985f840385ab64291d5164d82da1b055135197b9e06882a73317b807395836100f461014e95151561039f565b6100ff428311610404565b6101428484600361011a8a6000526014602052604060002090565b610125815415610469565b8a8155610136868d600184016105a6565b866002820155016105a6565b60405196879687610712565b0390a180f35b7f08c379a0000000000000000000000000000000000000000000000000000000006080526020608452601260a4527f4441433a207a65726f206461746148617368000000000000000000000000000060c45260646080fd5b8580fd5b8380fd5b80fd5b9181601f840112156101e55782359167ffffffffffffffff83116101e557602083818601950101116101e557565b600080fd5b60005b8381106101fd5750506000910152565b81810151838201526020016101ed565b907fffffffffffffffffffffffffffffffffffffffffffffffffffffffffffffffe0601f602093610249815180928187528780880191016101ea565b0116010190565b346101e55760207ffffffffffffffffffffffffffffffffffffffffffffffffffffffffffffffffc3601126101e55760043560005260146020526040600020805461029c811515610747565b6102eb60028301546102bc60036102b560018701610841565b9501610841565b6102d8604051958695865260806020870152608086019061020d565b916040850152838203606085015261020d565b0390f35b60a4359060ff821682036101e557565b346101e55760c07ffffffffffffffffffffffffffffffffffffffffffffffffffffffffffffffffc3601126101e557366044116101e55767ffffffffffffffff6064358181116101e5576103579036906004016101b7565b916084358181116101e557366023820112156101e55780600401359182116101e557602490369260051b0101116101e55761039d916103946102ef565b91604435610bde565b005b156103a657565b60646040517f08c379a000000000000000000000000000000000000000000000000000000000815260206004820152600e60248201527f4441433a20656d707479204349440000000000000000000000000000000000006044820152fd5b1561040b57565b60646040517f08c379a000000000000000000000000000000000000000000000000000000000815260206004820152601a60248201527f4441433a20657870697279206d757374206265206675747572650000000000006044820152fd5b1561047057565b60646040517f08c379a000000000000000000000000000000000000000000000000000000000815260206004820152601560248201527f4441433a20616c726561647920616e63686f72656400000000000000000000006044820152fd5b7f4e487b7100000000000000000000000000000000000000000000000000000000600052604160045260246000fd5b90600182811c92168015610546575b602083101461051757565b7f4e487b7100000000000000000000000000000000000000000000000000000000600052602260045260246000fd5b91607f169161050c565b90601f811161055e57505050565b6000916000526020600020906020601f850160051c8301941061059c575b601f0160051c01915b82811061059157505050565b818155600101610585565b909250829061057c565b90929167ffffffffffffffff81116106ce576105cc816105c684546104fd565b84610550565b6000601f821160011461062a57819061061b93949560009261061f575b50507fffffffffffffffffffffffffffffffffffffffffffffffffffffffffffffffff8260011b9260031b1c19161790565b9055565b0135905038806105e9565b7fffffffffffffffffffffffffffffffffffffffffffffffffffffffffffffffe082169461065d84600052602060002090565b91805b8781106106b657508360019596971061067e575b505050811b019055565b7fffffffffffffffffffffffffffffffffffffffffffffffffffffffffffffffff60f88560031b161c19910135169055388080610674565b90926020600181928686013581550194019101610660565b6104ce565b601f82602094937fffffffffffffffffffffffffffffffffffffffffffffffffffffffffffffffe0938186528686013760008582860101520116010190565b91610744969495936107319284526080602085015260808401916106d3565b93604082015260608185039101526106d3565b90565b1561074e57565b60646040517f08c379a000000000000000000000000000000000000000000000000000000000815260206004820152601160248201527f4441433a206e6f7420616e63686f7265640000000000000000000000000000006044820152fd5b6040810190811067ffffffffffffffff8211176106ce57604052565b6080810190811067ffffffffffffffff8211176106ce57604052565b60c0810190811067ffffffffffffffff8211176106ce57604052565b90601f7fffffffffffffffffffffffffffffffffffffffffffffffffffffffffffffffe0910116810190811067ffffffffffffffff8211176106ce57604052565b90604051918260008254610854816104fd565b908184526020946001916001811690816000146108c45750600114610885575b50505061088392500383610800565b565b600090815285812095935091905b8183106108ac5750506108839350820101388080610874565b85548884018501529485019487945091830191610893565b9150506108839593507fffffffffffffffffffffffffffffffffffffffffffffffffffffffffffffff0091501682840152151560051b820101388080610874565b60405190610883826107ac565b60405190610180820182811067ffffffffffffffff8211176106ce57604052565b908092918237016000815290565b9184939260209592815261095d825180938880850191016101ea565b01918483013701016000815290565b60405190610979826107ac565b600382527f44414300000000000000000000000000000000000000000000000000000000006020830152565b604051906109b2826107c8565b6080368337565b604051906109c6826107ac565b6040368337565b604051906020820182811067ffffffffffffffff8211176106ce576040526020368337565b604051906109ff826107e4565b60c0368337565b9060405191610a14836107ac565b826044916044116101e5576004905b828210610a2f57505050565b8135815260209182019101610a23565b15610a4657565b60646040517f08c379a000000000000000000000000000000000000000000000000000000000815260206004820152601660248201527f4441433a20424c5320766572696679206661696c6564000000000000000000006044820152fd5b919091825167ffffffffffffffff81116106ce57610ac6816105c684546104fd565b602080601f8311600114610b215750819061061b939495600092610b165750507fffffffffffffffffffffffffffffffffffffffffffffffffffffffffffffffff8260011b9260031b1c19161790565b0151905038806105e9565b907fffffffffffffffffffffffffffffffffffffffffffffffffffffffffffffffe0831695610b5585600052602060002090565b926000905b888210610baf57505083600195969710610b7857505050811b019055565b01517fffffffffffffffffffffffffffffffffffffffffffffffffffffffffffffffff60f88460031b161c19169055388080610674565b80600185968294968601518155019501930190610b5a565b60409061074493928152816020820152019061020d565b90610d34906003610cf994610d2e7f12f9d9ce5e1577cde337d32720563ae30a0fc8c24bfe12db04a281eead2b6cc597866000526014602052604060002092610c2984541515610747565b610ce4610cde60405193610c3c856107ac565b600185527f7c000000000000000000000000000000000000000000000000000000000000006020860152610ccf610cc08c610c81878d6040519a8b9460208601610941565b0396610cb37fffffffffffffffffffffffffffffffffffffffffffffffffffffffffffffffe098898101835282610800565b610cbb61096c565b610d76565b91610cc96109a5565b506110b7565b50610cd936610a06565b611198565b50610a3f565b610d22604051998a9788936020850191610933565b7f5f76657269666965640000000000000000000000000000000000000000000000815260090190565b03908101855284610800565b01610aa4565b610d4360405192839283610bc7565b0390a1565b6080810192916000915b60048310610d5f57505050565b600190825181526020809101920192019190610d52565b90610d7f6109b9565b506040808051610d8e816107ac565b36903782519260ff8411610feb5760ff610da6611663565b94169382519081610dbf878560209889850195866116c3565b0391610df17fffffffffffffffffffffffffffffffffffffffffffffffffffffffffffffffe093848101835282610800565b51902091835185810190610e1781610e0b8a868987611763565b03858101835282610800565b51902095610e2361167e565b936001926001945b60038610610f7057505050505050610ed281856060610ed994015277ffffffffffffffffffffffffffffffffffffffffffffffff80601883015116907f30644e72e131a029b85045b68181585d97816a916871ca8d3c208c16d87cfd478092826048838260308901511681780100000000000000000000000000000000000000000000000080960908960151169289610ec2610905565b878152019a1692090886526112e8565b93516112e8565b91610ee26109a5565b9284518452818501518285015280518385015201516060830152610f2e818460808560067ffffffffffffffffffffffffffffffffffffffffffffffffffffffffffffff8305a01fa1590565b610f3757505090565b610f6c9250519182917f128e3f0800000000000000000000000000000000000000000000000000000000835260048301610d48565b0390fd5b909192938383879b8b7fffffffffffffffffffffffffffffffffffffffffffffffffffffffffffffffff8a610fd48e610fc88d8a9f610fb1610fb79161181c565b60ff1690565b9251988993898986019c188c6117d5565b03898101875286610800565b0160051b8b01015251902099019493929190610e2b565b610f6c91519182917f26e4f9ba00000000000000000000000000000000000000000000000000000000835260048301611652565b7f4e487b7100000000000000000000000000000000000000000000000000000000600052601160045260246000fd5b60ff1660ff811461105f5760010190565b61101f565b60058110156110765760021b90600090565b7f4e487b7100000000000000000000000000000000000000000000000000000000600052603260045260246000fd5b60ff60019116019060ff821161105f57565b6110bf6109a5565b6000805b60ff808216600581101561118e576001901b8516166110eb575b6110e69061104e565b6110c3565b906111866110e69184516020860180519061117760408901938885519460608c0195865161111884611064565b50549161113e61113461112a87611064565b5060010190600090565b90549060031b1c90565b936111716111346111676111616111346111578b611064565b5060020190600090565b98611064565b5060030190600090565b9661151c565b909295919452525285526110a5565b9190506110dd565b5050509291509190565b6040602092836101809695816111ac610912565b95805187520151828601527f198e9393920d483a7260bfb731fb5d25f1aa493335a9e71297e485b7aef312c2848601527f1800deef121f1e76426a00665e5c4479674322d4f75edadd46debd5cd992f6ed60608601527f275dc4a288d1afb3cbb1ac09187524c7db36395df7be3b99e673b13a075a65ec60808601527f1d9befcd05a5323e6da4d435f3b617cdb3af83285c2df711ef39c01571827f9d60a0860152805160c0860152015160e0840152838101516101008401528051610120840152606081015161014084015201516101608201526112896109cd565b93849160087ffffffffffffffffffffffffffffffffffffffffffffffffffffffffffffff8305a01fa915115159190565b907f30644e72e131a029b85045b68181585d97816a916871ca8d3c208c16d87cfd4791820391821161105f57565b906112f16109b9565b917f30644e72e131a029b85045b68181585d97816a916871ca8d3c208c16d87cfd47808210156114b4578060048184800909906001918161133581838608926112ba565b840890828080808078016789af3a83522eb353c98fc6b36d713d5d8d1cc5dffffffa818b81611366818b8d09612427565b9a8b92090909958180611378896112ba565b98817f183227397098d014dc2822db40c0ac2ecbc0b548b438e5469e10460b6c3e7ea39a8b0899089680090980097f10216f7ba065e00de81ac1e7808072c9dd2b2385cd7b438469602eb24829a9bd09850890836003818581818009090893856113e18661182a565b60000b0361145a5750505085526113f781611958565b9060208701521561142757505b602084019182519180831691160361141a575050565b611423906112ba565b9052565b6040517f396ec7710000000000000000000000000000000000000000000000000000000081526004810191909152602490fd5b9193509150806003818481818009090892846114758561182a565b60000b0361149b575050855261148a81611958565b906020870152156114275750611404565b8193506003925080885281818009090861148a81611958565b6040517fd53e941500000000000000000000000000000000000000000000000000000000815260048101839052602490fd5b156114ed57565b7f4e487b7100000000000000000000000000000000000000000000000000000000600052600160045260246000fd5b97949796959680158061164a575b80611642575b8061163a575b156115905750505050801580611588575b80611580575b80611578575b1561155f575b93929190565b61157361156e848688856120ba565b6114e6565b611559565b508215611553565b50831561154d565b508415611547565b849895989796971580611632575b8061162a575b80611622575b61160a5791611602979593916115df9795936115cb61156e858585856120ba565b6115da61156e898989896120ba565b612166565b8051906020810151604082015160608301519160a060808501519401519461234f565b929391929091565b93509693509450925061155961156e848688856120ba565b5087156115aa565b5086156115a4565b50851561159e565b508315611536565b508215611530565b50811561152a565b90602061074492818152019061020d565b60405190611670826107e4565b6088825260a0366020840137565b6040519061168b826107c8565b6060808352366020840137565b6040519060e0820182811067ffffffffffffffff8211176106ce5760405260c0808352366020840137565b7fff000000000000000000000000000000000000000000000000000000000000009261170e602080936117006004999896828151948592016101ea565b0191828151948592016101ea565b01600081527f60000000000000000000000000000000000000000000000000000000000000006001820152600060028201526117548251809360206003850191016101ea565b019160f81b1660038201520190565b91602293927fff000000000000000000000000000000000000000000000000000000000000009281527f010000000000000000000000000000000000000000000000000000000000000060208201526117c68251809360206021850191016101ea565b019160f81b1660218201520190565b602294939181527fff00000000000000000000000000000000000000000000000000000000000000809360f81b1660208201526117c68251809360206021850191016101ea565b600101908160011161105f57565b611832611698565b9060c060206000828286018381528360408801528360608801528560808801527f183227397098d014dc2822db40c0ac2ecbc0b548b438e5469e10460b6c3e7ea3968760a08201527f30644e72e131a029b85045b68181585d97816a916871ca8d3c208c16d87cfd47958691015260055afa92600051931561191c5750507f30644e72e131a029b85045b68181585d97816a916871ca8d3c208c16d87cfd4682146118f657811515806118eb575b611427575060000b90565b5060018214156118e0565b50507fffffffffffffffffffffffffffffffffffffffffffffffffffffffffffffffff90565b60649350604051927fc6daf7ab000000000000000000000000000000000000000000000000000000008452600484015260248301526044820152fd5b907f30644e72e131a029b85045b68181585d97816a916871ca8d3c208c16d87cfd478080808080808080808b8180808080808080808080808080808f8180828180808080808080808080809e8180808080858180808080808087819e8280808080808681808080808080809e818080808481808080808080808089819f828080808080808080808080808d819e8280808080808080888180808080809e8180808080808080808981808080809e81808080808080808080808b8180809e81808080808080808080808b8180809e818080808080808080808a818080809e8180808080808087818080808080809e8180808080808681808080808080809e8180808080808681808080808080809e8180808080808681808080808080809e8180808080808080808080808c81809e81808080808080808080808b8180809e8180808080808087818080808080809e81808080808080809781808080808581808080808080808080808b8181800909818c81818009090981808c8181800909818d818180090909098180808c8181800909818d818180090909818c818082818180090991818180090909090980098009800981808781818009099180090980098009800909800980098009800909800980098009800981808c8180828009918180828009918181800909090991800909800980098009800981808088800981808a8009818b8181800909090991800909800980098009098009800980098180808a800981808c8009818d8181800909090991800909800980098009800980090980098009800981808c8181800909918009098009800980098009800980099281808083818180090981848181800909099181808280099181808280099181818009090909099180090980098009800980098009800980098009800981808d818082800991818180090909918009098009800980098180898181800909918009098009800980099281808280099181808280099181818009090909918009098009800980098009800980098180808b8009818c8181800909099180090980098009800980098009800909800980098009800980098009818080808c8009818d818180090909818c81808281818009099181818009090909918009098009800980098009928180808381818009098184818180090909918180828009918180828009918181800909090909918009098009800981808d818082800991818180090909918009098009800980098009800980098009928181800909918009098009800980098009800980098009800992818082800991818180090909918009098009800981808d818180090991800909800980098009800980098009800992818080838009818481818009090991818082818180090991818180090909099180090980098009800981808d81808083800981848181800909099181808281818009099181818009090909918009098009800980098009818080898009818a8181800909099180090980098009928180828009918180828009918181800909090991800909800980098009800980098009800980098009818080808b8009818c81818009090981808c8181800909818d81818009090909918009098009800980099281808280099181818009090991800909800980098009800981808d81808281818009099181808281818009099181818009090909918009098009800980098009800980098180808088800981898181800909098180898181800909818a81818009090909918009098009800909800980098009800980098009928180828009918180828009918181800909090991800909800980098009800980098180808c8009818d8180828009918181800909090991800909800980098009800981808087800981888181800909099180090980098009098009800980098009800980099281808083818180090981848181800909099181808280099181808280099181818009090909099180090980098009800980098009818080808b8181800909818c81818009090981808c8181800909818d818082818180090991818180090909090991800909800980098009800980090980098009800980098009800909800980098009800992818180090991800909800980098009800980098009800980098180808c818082800991818180090909818d8180828181800909918181800909090991800909800980098180888181800909918009098009800992818180090991800909800980098009800980098009800981808d8180808381818009098184818180090909918180828181800909918180828181800909918181800909090909918009098009800980098180808a818180090981808c8181800909818d818180090909099180090980098009800992818080838181800909818481818009090991818082818180090991818082818180090991818180090909090991800909800980098180808c8009818d8181800909099180090980098009800980098180808781818009098180898181800909818a81818009090909918009098009917f30644e72e131a029b85045b68181585d97816a916871ca8d3c208c16d87cfd478380091490565b6121026120ed7f054fb1321278f57b36922d1d65a0ed99e1cca4ac0e95daea09b8a53ab3dbc4629561210a958181612ba8565b9390926120fc82828181612ba8565b90612ba8565b929091612bee565b91907f30644e72e131a029b85045b68181585d97816a916871ca8d3c208c16d87cfd479182910815918261213d57505090565b7f2fcd3ac2a640a154eb23960892a85a68f031ca0c8344b23a577dcf1052b9e775919250081590565b94979697959192939561218261217a6109f2565b998a94612b60565b9790966121a86121928888612b60565b9490936060880195865260408801948552612b60565b9790966121b58684612b60565b608060a08a9993990199828b5201978089528a149081612345575b506122cb575050505050505050604086019283519460608801958651916121f693612bee565b608088019283519460a08a019586519161220f93612bee565b61221b81838181612ba8565b838388959395518a5161222f918589612ba8565b9361223b939197612ba8565b9890976122488a8a612b60565b909252528b878961225b888a8181612ba8565b61226491612b60565b61226e9391612bee565b6122788488612eab565b9161228293612bee565b81819661228f9396612ba8565b9091602001528c526122a093612bee565b916122aa93612ba8565b91909284518651916122bb93612ba8565b916122c593612bee565b90925252565b9397509397509397869b9a9b999195995114908161233a575b5061231b575050505050505050600060a0820152600060808201526000606082015260016040820152600060208201526001815290565b61232493612c30565b9092969397919498525252526020830152815290565b9050865114386122e4565b90508a14386121d0565b95939195949092947f30644e72e131a029b85045b68181585d97816a916871ca8d3c208c16d87cfd479260405160208152602080820152602060408201528480838009818680090860608201527f30644e72e131a029b85045b68181585d97816a916871ca8d3c208c16d87cfd4560808201528460a082015260208160c08160057ffffffffffffffffffffffffffffffffffffffffffffffffffffffffffffff8305a01fa905190156101e55784818193099309830392831161105f5782826124239561241b93612ba8565b959096612ba8565b9091565b807f30644e72e131a029b85045b68181585d97816a916871ca8d3c208c16d87cfd47808080808080808881808080809e8180808080808080808981808080809e8180808080808080888180808080809e8180808080808080888180808080809e8181818080808080808781808080809e8180808080808087818080808080809e8180828180808080808080808080809e8180828180808080808080808981809e818080808080808080808080808d819e8280808080808080808080808080809e8082808080808080808080808080809e80828080808080808080808080808d819f828080808080808080808a818080809e8180808080808080808981808080809e8180808080808080808981808080809e8180808080808080808981808080809e8180808080808080808080808080809e80828080808080808080808080808d819f8280808080808080808981808080809e818080808080808080809981808080808581808080808080808080808b8181800909818c81818009090981808c8181800909818d818180090909098180808c8181800909818d818180090909818c818082818180090991818180090909090980098009800981808781818009099180090980098009800909800980098009800909800980098009800981808c8180828009918180828009918181800909090991800909800980098009800981808088800981808a8009818b8181800909090991800909800980098009098009800980098180808a800981808c8009818d8181800909090991800909800980098009800980090980098009800981808c8181800909918009098009800980098009800980099281808083818180090981848181800909099181808280099181808280099181818009090909099180090980098009800980098009800980098009800981808d818082800991818180090909918009098009800980098180898181800909918009098009800980099281808280099181808280099181818009090909918009098009800980098009800980098180808b8009818c8181800909099180090980098009800980098009800909800980098009800980098009818080808c8009818d818180090909818c81808281818009099181818009090909918009098009800980098009928180808381818009098184818180090909918180828009918180828009918181800909090909918009098009800981808d818082800991818180090909918009098009800980098009800980098009928181800909918009098009800980098009800980098009800992818082800991818180090909918009098009800981808d818180090991800909800980098009800980098009800992818080838009818481818009090991818082818180090991818180090909099180090980098009800981808d81808083800981848181800909099181808281818009099181818009090909918009098009800980098009818080898009818a8181800909099180090980098009928180828009918180828009918181800909090991800909800980098009800980098009800980098009818080808b8009818c81818009090981808c8181800909818d81818009090909918009098009800980099281808280099181818009090991800909800980098009800981808d81808281818009099181808281818009099181818009090909918009098009800980098009800980098180808088800981898181800909098180898181800909818a81818009090909918009098009800909800980098009800980098009928180828009918180828009918181800909090991800909800980098009800980098180808c8009818d8180828009918181800909090991800909800980098009800981808087800981888181800909099180090980098009098009800980098009800980099281808083818180090981848181800909099181808280099181808280099181818009090909099180090980098009800980098009818080808b8181800909818c81818009090981808c8181800909818d81808281818009099181818009090909099180090980098009800980098009098009800980098009800980090980098009800980099281818009099180090980098009800980098009800980098009818080808a8009818b81818009090981808b8181800909818c818180090909099180090980098009928181800909918009098009800981808d81818009099180090980098009800980098009800980099281808083818180090981848181800909099181808281818009099181808281818009099181818009090909099180090980098009800981808d8180828181800909918180828181800909918181800909090991800909800980098009818080808b8181800909818c81818009090981808c8181800909818d81808281818009099181818009090909099180090980098009818080878009818881818009090991800909800980090980098009800980098009928180828009918181800909099180090990565b9190917f30644e72e131a029b85045b68181585d97816a916871ca8d3c208c16d87cfd47908160008509820382811161105f5760008360018180948183880908970992090890565b909392917f30644e72e131a029b85045b68181585d97816a916871ca8d3c208c16d87cfd479283818709840384811161105f578285809492818094880908970992090890565b939290937f30644e72e131a029b85045b68181585d97816a916871ca8d3c208c16d87cfd479283039183831161105f5783039183831161105f57839108930890565b92938291857f30644e72e131a029b85045b68181585d97816a916871ca8d3c208c16d87cfd476003830982877f30644e72e131a029b85045b68181585d97816a916871ca8d3c208c16d87cfd476003820992612c8b93612ba8565b9096612c978387612b60565b612ca7819b839984988496612ba8565b612cb19391612ba8565b939097612cc0848b8181612ba8565b7f30644e72e131a029b85045b68181585d97816a916871ca8d3c208c16d87cfd4760088809907f30644e72e131a029b85045b68181585d97816a916871ca8d3c208c16d87cfd4760088d0990612d1593612bee565b99819b8b979296612d28878b8181612ba8565b99819f7f30644e72e131a029b85045b68181585d97816a916871ca8d3c208c16d87cfd4760048d979498099260047f30644e72e131a029b85045b68181585d97816a916871ca8d3c208c16d87cfd47910992612d8393612bee565b612d8d9391612ba8565b9390947f30644e72e131a029b85045b68181585d97816a916871ca8d3c208c16d87cfd4760088209917f30644e72e131a029b85045b68181585d97816a916871ca8d3c208c16d87cfd476008820992612de593612ba8565b612def9391612ba8565b91612df993612bee565b96909760027f30644e72e131a029b85045b68181585d97816a916871ca8d3c208c16d87cfd4791099260027f30644e72e131a029b85045b68181585d97816a916871ca8d3c208c16d87cfd47910992612e5193612ba8565b969097612e5d93612ba8565b60087f30644e72e131a029b85045b68181585d97816a916871ca8d3c208c16d87cfd4791099060087f30644e72e131a029b85045b68181585d97816a916871ca8d3c208c16d87cfd47910991565b600280919392937f30644e72e131a029b85045b68181585d97816a916871ca8d3c208c16d87cfd479283910993099056fea2646970667358221220dc5f296fd31d3780ebf731c8326fe9857b1a7e46df711f3bfa6e1d960095cbc064736f6c63430008180033",
  "linkReferences": {},
  "deployedLinkReferences": {}
}