{
  "_format": "hh-sol-artifact-1",
  "contractName": "AgentGovernanceContract",
  "sourceName": "contracts/main/AgentGovernanceContract.sol",
  "abi": [
    {
      "inputs": [
        {
          "internalType": "uint256[4]",
          "name": "input",
          "type": "uint256[4]"
        }
      ],
      "name": "BNAddFailed",
      "type": "error"
    },
    {
      "inputs": [
        {
          "internalType": "bytes",
          "name": "dst",
          "type": "bytes"
        }
      ],
      "name": "InvalidDSTLength",
      "type": "error"
    },
    {
      "inputs": [
        {
          "internalType": "uint256",
          "name": "x",
          "type": "uint256"
        }
      ],
      "name": "InvalidFieldElement",
      "type": "error"
    },
    {
      "inputs": [
        {
          "internalType": "uint256",
          "name": "noSqrt",
          "type": "uint256"
        }
      ],
      "name": "MapToPointFailed",
      "type": "error"
    },
    {
      "inputs": [
        {
          "internalType": "uint256",
          "name": "base",
          "type": "uint256"
        },
        {
          "internalType": "uint256",
          "name": "exponent",
          "type": "uint256"
        },
        {
          "internalType": "uint256",
          "name": "modulus",
          "type": "uint256"
        }
      ],
      "name": "ModExpFailed",
      "type": "error"
    },
    {
      "anonymous": false,
      "inputs": [
        {
          "indexed": true,
          "internalType": "string",
          "name": "DID",
          "type": "string"
        },
        {
          "indexed": true,
          "internalType": "bytes32",
          "name": "documentHash",
          "type": "bytes32"
        }
      ],
      "name": "DIDCreated",
      "type": "event"
    },
    {
      "anonymous": false,
      "inputs": [
        {
          "indexed": true,
          "internalType": "string",
          "name": "DID",
          "type": "string"
        },
        {
          "indexed": true,
          "internalType": "bytes32",
          "name": "newDocumentHash",
          "type": "bytes32"
        }
      ],
      "name": "DIDDocumentUpdated",
      "type": "event"
    },
    {
      "anonymous": false,
      "inputs": [
        {
          "indexed": true,
          "internalType": "string",
          "name": "DID",
          "type": "string"
        }
      ],
      "name": "DIDRevoked",
      "type": "event"
    },
    {
      "inputs": [],
      "name": "DID_PREFIX",
      "outputs": [
        {
          "internalType": "string",
          "name": "",
          "type": "string"
        }
      ],
      "stateMutability": "view",
      "type": "function"
    },
    {
      "inputs": [],
      "name": "DST_REVOKE",
      "outputs": [
        {
          "internalType": "bytes32",
          "name": "",
          "type": "bytes32"
        }
      ],
      "stateMutability": "view",
      "type": "function"
    },
    {
      "inputs": [],
      "name": "DST_UPDATE",
      "outputs": [
        {
          "internalType": "bytes32",
          "name": "",
          "type": "bytes32"
        }
      ],
      "stateMutability": "view",
      "type": "function"
    },
    {
      "inputs": [],
      "name": "EXPECTED_DID_LENGTH",
      "outputs": [
        {
          "internalType": "uint256",
          "name": "",
          "type": "uint256"
        }
      ],
      "stateMutability": "view",
      "type": "function"
    },
    {
      "inputs": [],
      "name": "PREFIX_LENGTH",
      "outputs": [
        {
          "internalType": "uint256",
          "name": "",
          "type": "uint256"
        }
      ],
      "stateMutability": "view",
      "type": "function"
    },
    {
      "inputs": [
        {
          "internalType": "string",
          "name": "",
          "type": "string"
        }
      ],
      "name": "nonces",
      "outputs": [
        {
          "internalType": "uint256",
          "name": "",
          "type": "uint256"
        }
      ],
      "stateMutability": "view",
      "type": "function"
    },
    {
      "inputs": [
        {
          "internalType": "string",
          "name": "DID",
          "type": "string"
        },
        {
          "internalType": "bytes32",
          "name": "documentHash",
          "type": "bytes32"
        },
        {
          "internalType": "string",
          "name": "cid",
          "type": "string"
        },
        {
          "internalType": "uint8",
          "name": "_requiredSigsForCapUpdate",
          "type": "uint8"
        }
      ],
      "name": "register",
      "outputs": [
        {
          "internalType": "bool",
          "name": "success",
          "type": "bool"
        }
      ],
      "stateMutability": "nonpayable",
      "type": "function"
    },
    {
      "inputs": [
        {
          "internalType": "string",
          "name": "DID",
          "type": "string"
        }
      ],
      "name": "resolve",
      "outputs": [
        {
          "internalType": "bytes32",
          "name": "documentHash",
          "type": "bytes32"
        },
        {
          "internalType": "string",
          "name": "cid",
          "type": "string"
        }
      ],
      "stateMutability": "view",
      "type": "function"
    },
    {
      "inputs": [
        {
          "internalType": "string",
          "name": "DID",
          "type": "string"
        },
        {
          "internalType": "uint256[2]",
          "name": "aggSig",
          "type": "uint256[2]"
        },
        {
          "internalType": "uint8",
          "name": "pksMask",
          "type": "uint8"
        }
      ],
      "name": "revoke",
      "outputs": [
        {
          "internalType": "bool",
          "name": "success",
          "type": "bool"
        }
      ],
      "stateMutability": "nonpayable",
      "type": "function"
    },
    {
      "inputs": [
        {
          "internalType": "string",
          "name": "DID",
          "type": "string"
        },
        {
          "internalType": "bytes32",
          "name": "newDocumentHash",
          "type": "bytes32"
        },
        {
          "internalType": "uint256[2]",
          "name": "aggSig",
          "type": "uint256[2]"
        },
        {
          "internalType": "uint8",
          "name": "pksMask",
          "type": "uint8"
        }
      ],
      "name": "update",
      "outputs": [
        {
          "internalType": "bool",
          "name": "success",
          "type": "bool"
        }
      ],
      "stateMutability": "nonpayable",
      "type": "function"
    }
  ],
  "bytecode": "0x608034620001ab5760a08101906001600160401b03821181831017620001955760409182526200002e620001b0565b907960a51abaa3f2764436fd165edbc5741ce715f2f37489d1da8b3380835279b1b1a5191b8c7c2f06f77fd65a84918fc334f328cc2c31a00087602093818582015279ad88a2a26025738de27aadf7736b8c6060b63ec5e4992cb5cad68087830152793838b27da13d61bfa3b0a38a7ee573b88bf71c95011d67d3308b9260609284848201528652620000c0620001b0565b85815281888201528289820152848482015287870152620000e0620001b0565b8581528188820152828982015284848201528887015262000100620001b0565b8581528188820152828982015284848201528387015262000120620001b0565b94855286850152868401528201526080820152906000916000905b60058210620001535784516138029081620001d18239f35b82815160005b6004811062000177575050600490600192019401910190926200013b565b81516001600160d01b03168782015585929091019060010162000159565b634e487b7160e01b600052604160045260246000fd5b600080fd5b60405190608082016001600160401b03811183821017620001955760405256fe6080604052600436101561001257600080fd5b6000803560e01c9081632418833f146100ba57508063356b9454146100b5578063461a4478146100b057806346f3c1ed146100ab5780634c0d9781146100a657806388b57e95146100a15780639d9dcabc1461009c578063b24fce8814610097578063c76cd403146100925763e714023d1461008d57600080fd5b610acf565b610a95565b610a24565b610881565b6107f6565b6107a8565b6105b4565b6103b4565b6100f6565b346100f357807ffffffffffffffffffffffffffffffffffffffffffffffffffffffffffffffffc3601126100f357600a60805260206080f35b80fd5b3461014f5760007ffffffffffffffffffffffffffffffffffffffffffffffffffffffffffffffffc36011261014f5760206040517f283b208957fe4fa6f6029daabcfeddad5c9b5d110a38b1816631f64e563f85848152f35b600080fd5b7f4e487b7100000000000000000000000000000000000000000000000000000000600052604160045260246000fd5b60e0810190811067ffffffffffffffff82111761019f57604052565b610154565b6040810190811067ffffffffffffffff82111761019f57604052565b6080810190811067ffffffffffffffff82111761019f57604052565b60c0810190811067ffffffffffffffff82111761019f57604052565b90601f7fffffffffffffffffffffffffffffffffffffffffffffffffffffffffffffffe0910116810190811067ffffffffffffffff82111761019f57604052565b6040519061024682610183565b565b60405190610246826101a4565b60405190610180820182811067ffffffffffffffff82111761019f57604052565b81601f8201121561014f5780359067ffffffffffffffff821161019f57604051926102c960207fffffffffffffffffffffffffffffffffffffffffffffffffffffffffffffffe0601f86011601856101f8565b8284526020838301011161014f57816000926020809301838601378301015290565b60207ffffffffffffffffffffffffffffffffffffffffffffffffffffffffffffffffc82011261014f576004359067ffffffffffffffff821161014f5761033491600401610276565b90565b60005b83811061034a5750506000910152565b818101518382015260200161033a565b907fffffffffffffffffffffffffffffffffffffffffffffffffffffffffffffffe0601f60209361039681518092818752878088019101610337565b0116010190565b60409061033493928152816020820152019061035a565b3461014f576103c2366102eb565b6103d760ff6103d0836109b2565b5416610b28565b60ff60046103e4836109d8565b0154169060028210156104e1576103fe6104039215610b97565b6109d8565b6005600282015491019060405191826000825461041f81610bfc565b908184526020946001916001811690816000146104a05750600114610461575b50505061044e925003836101f8565b61045d6040519283928361039d565b0390f35b600090815285812095935091905b81831061048857505061044e935082010138808061043f565b8554888401850152948501948794509183019161046f565b91505061044e9593507fffffffffffffffffffffffffffffffffffffffffffffffffffffffffffffff0091501682840152151560051b82010138808061043f565b7f4e487b7100000000000000000000000000000000000000000000000000000000600052602160045260246000fd5b806043121561014f5760405190610526826101a4565b8160649160641161014f576024905b8282106105425750505090565b8135815260209182019101610535565b806063121561014f5760405190610568826101a4565b8160849160841161014f576044905b8282106105845750505090565b8135815260209182019101610577565b6064359060ff8216820361014f57565b6084359060ff8216820361014f57565b3461014f5760807ffffffffffffffffffffffffffffffffffffffffffffffffffffffffffffffffc36011261014f5760043567ffffffffffffffff811161014f57610603903690600401610276565b61060c36610510565b90610615610594565b61062360ff6103d0846109b2565b60ff6004610630846109d8565b0154169260028410156104e15761064a61073d9415610b97565b6106f46106ee610659856109d8565b936106e960018601946106c86106b987546106ac8b61068060405193849260208401610c4f565b037fffffffffffffffffffffffffffffffffffffffffffffffffffffffffffffffe081018352826101f8565b6106b4610ce7565b6114d4565b936106c2610d20565b5061179f565b6106e26106dc60068b969496015460ff1690565b60ff1690565b1115610d81565b611880565b50610de6565b6107266004830160017fffffffffffffffffffffffffffffffffffffffffffffffffffffffffffffff00825416179055565b6107308154610ea8565b9055600342910155610ed5565b604051907f8d5d0f9333534da02ef5f341fe3f88a64f03b3d4ca4aef5bfdb6e3d5cdece101600080a260018152602090f35b6040519061077c826101a4565b600d82527f6469643a626c6f636b6132613a000000000000000000000000000000000000006020830152565b3461014f5760007ffffffffffffffffffffffffffffffffffffffffffffffffffffffffffffffffc36011261014f5761045d6107e261076f565b60405191829160208352602083019061035a565b3461014f5760807ffffffffffffffffffffffffffffffffffffffffffffffffffffffffffffffffc36011261014f5767ffffffffffffffff60043581811161014f57610846903690600401610276565b9060443590811161014f57602091610865610877923690600401610276565b61086d610594565b916024359061132b565b6040519015158152f35b3461014f5760a07ffffffffffffffffffffffffffffffffffffffffffffffffffffffffffffffffc36011261014f5760043567ffffffffffffffff811161014f576108d0903690600401610276565b602435906108dd36610552565b906108e66105a4565b916108f560ff6103d0846109b2565b60ff6004610902846109d8565b0154169260028410156104e15761091c61097f9415610b97565b610730610928846109d8565b926109746106ee60018601946106e98654946109606106b98d6109588d6106808b60405194859360208501610c9c565b6106b461143e565b6106e26106dc60068d969496015460ff1690565b866002850155610ea8565b90604051917ffbccb49fcba0db7422ed2970ae7e545a0133b0d0343c5cd282b5a877ef95c487600080a360018152602090f35b60206109cb918160405193828580945193849201610337565b8101601581520301902090565b60206109f1918160405193828580945193849201610337565b8101601481520301902090565b6020610a17918160405193828580945193849201610337565b8101601681520301902090565b3461014f576020610a3c610a37366102eb565b6109fe565b54604051908152f35b7f4e487b7100000000000000000000000000000000000000000000000000000000600052601160045260246000fd5b9060018201809211610a8257565b610a45565b6001019081600111610a8257565b3461014f5760007ffffffffffffffffffffffffffffffffffffffffffffffffffffffffffffffffc36011261014f57602060405160148152f35b3461014f5760007ffffffffffffffffffffffffffffffffffffffffffffffffffffffffffffffffc36011261014f5760206040517f6688844a85e8870f0474f90aa6d22975f9e2e6d3485e6abb706be219ab7cd70b8152f35b15610b2f57565b60646040517f08c379a000000000000000000000000000000000000000000000000000000000815260206004820152601760248201527f4147433a20444944206e6f7420726567697374657265640000000000000000006044820152fd5b600211156104e157565b15610b9e57565b60646040517f08c379a000000000000000000000000000000000000000000000000000000000815260206004820152601360248201527f4147433a20444944206e6f7420616374697665000000000000000000000000006044820152fd5b90600182811c92168015610c45575b6020831014610c1657565b7f4e487b7100000000000000000000000000000000000000000000000000000000600052602260045260246000fd5b91607f1691610c0b565b90606092917f6688844a85e8870f0474f90aa6d22975f9e2e6d3485e6abb706be219ab7cd70b8152610c8a8251809360208085019101610337565b01906000602083015260408201520190565b90606093917f283b208957fe4fa6f6029daabcfeddad5c9b5d110a38b1816631f64e563f85848152610cd78251809360208085019101610337565b0191602083015260408201520190565b60405190610cf4826101a4565b600a82527f4147432d7265766f6b65000000000000000000000000000000000000000000006020830152565b60405190610d2d826101c0565b6080368337565b60405190610d41826101a4565b6040368337565b604051906020820182811067ffffffffffffffff82111761019f576040526020368337565b60405190610d7a826101dc565b60c0368337565b15610d8857565b60646040517f08c379a000000000000000000000000000000000000000000000000000000000815260206004820152601760248201527f4147433a206e6f7420656e6f756768207369676e6572730000000000000000006044820152fd5b15610ded57565b60846040517f08c379a000000000000000000000000000000000000000000000000000000000815260206004820152602c60248201527f4147433a20616767726567617465207369676e6174757265207665726966696360448201527f6174696f6e206661696c656400000000000000000000000000000000000000006064820152fd5b9060028110156104e15760ff7fffffffffffffffffffffffffffffffffffffffffffffffffffffffffffffff008354169116179055565b7fffffffffffffffffffffffffffffffffffffffffffffffffffffffffffffffff8114610a825760010190565b610eed90602060405192828480945193849201610337565b810103902090565b15610efc57565b60646040517f08c379a000000000000000000000000000000000000000000000000000000000815260206004820152601b60248201527f4147433a2044494420616c7265616479207265676973746572656400000000006044820152fd5b15610f6157565b60846040517f08c379a000000000000000000000000000000000000000000000000000000000815260206004820152602960248201527f4147433a20726571756972656453696773466f72436170557064617465206d7560448201527f7374206265203e203000000000000000000000000000000000000000000000006064820152fd5b90601f8111610ff357505050565b6000916000526020600020906020601f850160051c83019410611031575b601f0160051c01915b82811061102657505050565b81815560010161101a565b9092508290611011565b919091825167ffffffffffffffff811161019f576110638161105d8454610bfc565b84610fe5565b602080601f83116001146110c3575081906110b49394956000926110b8575b50507fffffffffffffffffffffffffffffffffffffffffffffffffffffffffffffffff8260011b9260031b1c19161790565b9055565b015190503880611082565b907fffffffffffffffffffffffffffffffffffffffffffffffffffffffffffffffe08316956110f785600052602060002090565b926000905b8882106111525750508360019596971061111b575b505050811b019055565b01517fffffffffffffffffffffffffffffffffffffffffffffffffffffffffffffffff60f88460031b161c19169055388080611111565b806001859682949686015181550195019301906110fc565b919091825192835167ffffffffffffffff811161019f576111958161118f8554610bfc565b85610fe5565b602080601f831160011461127357506006926111f0836112449460c094610246999a6000926110b85750507fffffffffffffffffffffffffffffffffffffffffffffffffffffffffffffffff8260011b9260031b1c19161790565b85555b60208101516001860155604081015160028601556060810151600386015561122b608082015161122281610b8d565b60048701610e71565b61123c60a08201516005870161103b565b015160ff1690565b91019060ff167fffffffffffffffffffffffffffffffffffffffffffffffffffffffffffffff00825416179055565b907fffffffffffffffffffffffffffffffffffffffffffffffffffffffffffffffe08316966112a786600052602060002090565b926000905b8982106113135750508360c09360069693600193611244976102469b9c106112dc575b505050811b0185556111f3565b01517fffffffffffffffffffffffffffffffffffffffffffffffffffffffffffffffff60f88460031b161c191690553880806112cf565b806001859682949686015181550195019301906112ac565b909261133d611339836119b3565b1590565b6114355761140b926113af6113bd9261136a61136561133961135e886109b2565b5460ff1690565b610ef5565b61137860ff82161515610f5a565b611380610239565b92858452600160208501528760408501524260608501526000608085015260a084015260c083019060ff169052565b6113b8836109d8565b61116a565b6113f46113c9826109b2565b60017fffffffffffffffffffffffffffffffffffffffffffffffffffffffffffffff00825416179055565b611406611400826109fe565b60019055565b610ed5565b7f64b17621560acdf371cc9090466395c4edacecc3acc35947973db19d2fb2cf14600080a3600190565b50505050600090565b6040519061144b826101a4565b600a82527f4147432d757064617465000000000000000000000000000000000000000000006020830152565b7f4e487b7100000000000000000000000000000000000000000000000000000000600052603260045260246000fd5b6080810192916000915b600483106114bd57505050565b6001908251815260208091019201920191906114b0565b906114dd610d34565b5060408080516114ec816101a4565b36903782519260ff84116117435760ff611504611f72565b9416938251908161151d87856020988985019586611fc1565b039161154f7fffffffffffffffffffffffffffffffffffffffffffffffffffffffffffffffe0938481018352826101f8565b51902091835185810190611575816115698a868987612061565b038581018352826101f8565b51902095611581611f8d565b936001926001945b600386106116ce575050505050506116308185606061163794015277ffffffffffffffffffffffffffffffffffffffffffffffff80601883015116907f30644e72e131a029b85045b68181585d97816a916871ca8d3c208c16d87cfd478092826048838260308901511681780100000000000000000000000000000000000000000000000080960908960151169289611620610248565b878152019a169209088652611bf7565b9351611bf7565b91611640610d20565b928451845281850151828501528051838501520151606083015261168c818460808560067ffffffffffffffffffffffffffffffffffffffffffffffffffffffffffffff8305a01fa1590565b61169557505090565b6116ca9250519182917f128e3f08000000000000000000000000000000000000000000000000000000008352600483016114a6565b0390fd5b909192938383879b8b7fffffffffffffffffffffffffffffffffffffffffffffffffffffffffffffffff8a61172c8e6117208d8a9f6106dc61170f91610a87565b9251988993898986019c188c6120d3565b038981018752866101f8565b0160051b8b01015251902099019493929190611589565b6116ca91519182917f26e4f9ba00000000000000000000000000000000000000000000000000000000835260048301611f61565b60ff1660ff8114610a825760010190565b600581101561179a5760021b90600090565b611477565b6117a7610d20565b6000805b60ff8082166005811015611876576001901b8516166117d3575b6117ce90611777565b6117ab565b9061186e6117ce9184516020860180519061185f60408901938885519460608c0195865161180084611788565b50549161182661181c61181287611788565b5060010190600090565b90549060031b1c90565b9361185961181c61184f61184961181c61183f8b611788565b5060020190600090565b98611788565b5060030190600090565b96611e2b565b90929591945252528552610a74565b9190506117c5565b5050509291509190565b604060209283610180969581611894610255565b95805187520151828601527f198e9393920d483a7260bfb731fb5d25f1aa493335a9e71297e485b7aef312c2848601527f1800deef121f1e76426a00665e5c4479674322d4f75edadd46debd5cd992f6ed60608601527f275dc4a288d1afb3cbb1ac09187524c7db36395df7be3b99e673b13a075a65ec60808601527f1d9befcd05a5323e6da4d435f3b617cdb3af83285c2df711ef39c01571827f9d60a0860152805160c0860152015160e084015283810151610100840152805161012084015260608101516101408401520151610160820152611971610d48565b93849160087ffffffffffffffffffffffffffffffffffffffffffffffffffffffffffffff8305a01fa915115159190565b90815181101561179a570160200190565b6119bb61076f565b6014825103611ad65760005b600a8110611b74575050600a5b8151811015611b6d57611a38611a136119ed83856119a2565b517fff000000000000000000000000000000000000000000000000000000000000001690565b7fff000000000000000000000000000000000000000000000000000000000000001690565b7f30000000000000000000000000000000000000000000000000000000000000008110159081611b42575b7f610000000000000000000000000000000000000000000000000000000000000081101580611b18575b7f41000000000000000000000000000000000000000000000000000000000000008210159182611aed575b508215611ae5575b508115611add575b5015611ad6576001016119d4565b5050600090565b905038611ac8565b915038611ac0565b7f46000000000000000000000000000000000000000000000000000000000000001015915038611ab8565b507f6600000000000000000000000000000000000000000000000000000000000000811115611a8d565b7f39000000000000000000000000000000000000000000000000000000000000008111159150611a63565b5050600190565b611b816119ed82856119a2565b7fff00000000000000000000000000000000000000000000000000000000000000611bb2611a136119ed85876119a2565b911603611bc1576001016119c7565b505050600090565b907f30644e72e131a029b85045b68181585d97816a916871ca8d3c208c16d87cfd47918203918211610a8257565b90611c00610d34565b917f30644e72e131a029b85045b68181585d97816a916871ca8d3c208c16d87cfd4780821015611dc35780600481848009099060019181611c448183860892611bc9565b840890828080808078016789af3a83522eb353c98fc6b36d713d5d8d1cc5dffffffa818b81611c75818b8d09612d17565b9a8b92090909958180611c8789611bc9565b98817f183227397098d014dc2822db40c0ac2ecbc0b548b438e5469e10460b6c3e7ea39a8b0899089680090980097f10216f7ba065e00de81ac1e7808072c9dd2b2385cd7b438469602eb24829a9bd0985089083600381858181800909089385611cf08661211a565b60000b03611d69575050508552611d0681612248565b90602087015215611d3657505b6020840191825191808316911603611d29575050565b611d3290611bc9565b9052565b6040517f396ec7710000000000000000000000000000000000000000000000000000000081526004810191909152602490fd5b919350915080600381848181800909089284611d848561211a565b60000b03611daa5750508552611d9981612248565b90602087015215611d365750611d13565b81935060039250808852818180090908611d9981612248565b6040517fd53e941500000000000000000000000000000000000000000000000000000000815260048101839052602490fd5b15611dfc57565b7f4e487b7100000000000000000000000000000000000000000000000000000000600052600160045260246000fd5b979497969596801580611f59575b80611f51575b80611f49575b15611e9f5750505050801580611e97575b80611e8f575b80611e87575b15611e6e575b93929190565b611e82611e7d848688856129aa565b611df5565b611e68565b508215611e62565b508315611e5c565b508415611e56565b849895989796971580611f41575b80611f39575b80611f31575b611f195791611f1197959391611eee979593611eda611e7d858585856129aa565b611ee9611e7d898989896129aa565b612a56565b8051906020810151604082015160608301519160a0608085015194015194612c3f565b929391929091565b935096935094509250611e68611e7d848688856129aa565b508715611eb9565b508615611eb3565b508515611ead565b508315611e45565b508215611e3f565b508115611e39565b90602061033492818152019061035a565b60405190611f7f826101dc565b6088825260a0366020840137565b60405190611f9a826101c0565b6060808352366020840137565b60405190611fb482610183565b60c0808352366020840137565b7fff000000000000000000000000000000000000000000000000000000000000009261200c60208093611ffe600499989682815194859201610337565b019182815194859201610337565b01600081527f6000000000000000000000000000000000000000000000000000000000000000600182015260006002820152612052825180936020600385019101610337565b019160f81b1660038201520190565b91602293927fff000000000000000000000000000000000000000000000000000000000000009281527f010000000000000000000000000000000000000000000000000000000000000060208201526120c4825180936020602185019101610337565b019160f81b1660218201520190565b602294939181527fff00000000000000000000000000000000000000000000000000000000000000809360f81b1660208201526120c4825180936020602185019101610337565b612122611fa7565b9060c060206000828286018381528360408801528360608801528560808801527f183227397098d014dc2822db40c0ac2ecbc0b548b438e5469e10460b6c3e7ea3968760a08201527f30644e72e131a029b85045b68181585d97816a916871ca8d3c208c16d87cfd47958691015260055afa92600051931561220c5750507f30644e72e131a029b85045b68181585d97816a916871ca8d3c208c16d87cfd4682146121e657811515806121db575b611d36575060000b90565b5060018214156121d0565b50507fffffffffffffffffffffffffffffffffffffffffffffffffffffffffffffffff90565b60649350604051927fc6daf7ab000000000000000000000000000000000000000000000000000000008452600484015260248301526044820152fd5b907f30644e72e131a029b85045b68181585d97816a916871ca8d3c208c16d87cfd478080808080808080808b8180808080808080808080808080808f8180828180808080808080808080809e8180808080858180808080808087819e8280808080808681808080808080809e818080808481808080808080808089819f828080808080808080808080808d819e8280808080808080888180808080809e8180808080808080808981808080809e81808080808080808080808b8180809e81808080808080808080808b8180809e818080808080808080808a818080809e8180808080808087818080808080809e8180808080808681808080808080809e8180808080808681808080808080809e8180808080808681808080808080809e8180808080808080808080808c81809e81808080808080808080808b8180809e8180808080808087818080808080809e81808080808080809781808080808581808080808080808080808b8181800909818c81818009090981808c8181800909818d818180090909098180808c8181800909818d818180090909818c818082818180090991818180090909090980098009800981808781818009099180090980098009800909800980098009800909800980098009800981808c8180828009918180828009918181800909090991800909800980098009800981808088800981808a8009818b8181800909090991800909800980098009098009800980098180808a800981808c8009818d8181800909090991800909800980098009800980090980098009800981808c8181800909918009098009800980098009800980099281808083818180090981848181800909099181808280099181808280099181818009090909099180090980098009800980098009800980098009800981808d818082800991818180090909918009098009800980098180898181800909918009098009800980099281808280099181808280099181818009090909918009098009800980098009800980098180808b8009818c8181800909099180090980098009800980098009800909800980098009800980098009818080808c8009818d818180090909818c81808281818009099181818009090909918009098009800980098009928180808381818009098184818180090909918180828009918180828009918181800909090909918009098009800981808d818082800991818180090909918009098009800980098009800980098009928181800909918009098009800980098009800980098009800992818082800991818180090909918009098009800981808d818180090991800909800980098009800980098009800992818080838009818481818009090991818082818180090991818180090909099180090980098009800981808d81808083800981848181800909099181808281818009099181818009090909918009098009800980098009818080898009818a8181800909099180090980098009928180828009918180828009918181800909090991800909800980098009800980098009800980098009818080808b8009818c81818009090981808c8181800909818d81818009090909918009098009800980099281808280099181818009090991800909800980098009800981808d81808281818009099181808281818009099181818009090909918009098009800980098009800980098180808088800981898181800909098180898181800909818a81818009090909918009098009800909800980098009800980098009928180828009918180828009918181800909090991800909800980098009800980098180808c8009818d8180828009918181800909090991800909800980098009800981808087800981888181800909099180090980098009098009800980098009800980099281808083818180090981848181800909099181808280099181808280099181818009090909099180090980098009800980098009818080808b8181800909818c81818009090981808c8181800909818d818082818180090991818180090909090991800909800980098009800980090980098009800980098009800909800980098009800992818180090991800909800980098009800980098009800980098180808c818082800991818180090909818d8180828181800909918181800909090991800909800980098180888181800909918009098009800992818180090991800909800980098009800980098009800981808d8180808381818009098184818180090909918180828181800909918180828181800909918181800909090909918009098009800980098180808a818180090981808c8181800909818d818180090909099180090980098009800992818080838181800909818481818009090991818082818180090991818082818180090991818180090909090991800909800980098180808c8009818d8181800909099180090980098009800980098180808781818009098180898181800909818a81818009090909918009098009917f30644e72e131a029b85045b68181585d97816a916871ca8d3c208c16d87cfd478380091490565b6129f26129dd7f054fb1321278f57b36922d1d65a0ed99e1cca4ac0e95daea09b8a53ab3dbc462956129fa958181613498565b9390926129ec82828181613498565b90613498565b9290916134de565b91907f30644e72e131a029b85045b68181585d97816a916871ca8d3c208c16d87cfd4791829108159182612a2d57505090565b7f2fcd3ac2a640a154eb23960892a85a68f031ca0c8344b23a577dcf1052b9e775919250081590565b949796979591929395612a72612a6a610d6d565b998a94613450565b979096612a98612a828888613450565b9490936060880195865260408801948552613450565b979096612aa58684613450565b608060a08a9993990199828b5201978089528a149081612c35575b50612bbb57505050505050505060408601928351946060880195865191612ae6936134de565b608088019283519460a08a0195865191612aff936134de565b612b0b81838181613498565b838388959395518a51612b1f918589613498565b93612b2b939197613498565b989097612b388a8a613450565b909252528b8789612b4b888a8181613498565b612b5491613450565b612b5e93916134de565b612b68848861379b565b91612b72936134de565b818196612b7f9396613498565b9091602001528c52612b90936134de565b91612b9a93613498565b9190928451865191612bab93613498565b91612bb5936134de565b90925252565b9397509397509397869b9a9b9991959951149081612c2a575b50612c0b575050505050505050600060a0820152600060808201526000606082015260016040820152600060208201526001815290565b612c1493613520565b9092969397919498525252526020830152815290565b905086511438612bd4565b90508a1438612ac0565b95939195949092947f30644e72e131a029b85045b68181585d97816a916871ca8d3c208c16d87cfd479260405160208152602080820152602060408201528480838009818680090860608201527f30644e72e131a029b85045b68181585d97816a916871ca8d3c208c16d87cfd4560808201528460a082015260208160c08160057ffffffffffffffffffffffffffffffffffffffffffffffffffffffffffffff8305a01fa9051901561014f57848181930993098303928311610a82578282612d1395612d0b93613498565b959096613498565b9091565b807f30644e72e131a029b85045b68181585d97816a916871ca8d3c208c16d87cfd47808080808080808881808080809e8180808080808080808981808080809e8180808080808080888180808080809e8180808080808080888180808080809e8181818080808080808781808080809e8180808080808087818080808080809e8180828180808080808080808080809e8180828180808080808080808981809e818080808080808080808080808d819e8280808080808080808080808080809e8082808080808080808080808080809e80828080808080808080808080808d819f828080808080808080808a818080809e8180808080808080808981808080809e8180808080808080808981808080809e8180808080808080808981808080809e8180808080808080808080808080809e80828080808080808080808080808d819f8280808080808080808981808080809e818080808080808080809981808080808581808080808080808080808b8181800909818c81818009090981808c8181800909818d818180090909098180808c8181800909818d818180090909818c818082818180090991818180090909090980098009800981808781818009099180090980098009800909800980098009800909800980098009800981808c8180828009918180828009918181800909090991800909800980098009800981808088800981808a8009818b8181800909090991800909800980098009098009800980098180808a800981808c8009818d8181800909090991800909800980098009800980090980098009800981808c8181800909918009098009800980098009800980099281808083818180090981848181800909099181808280099181808280099181818009090909099180090980098009800980098009800980098009800981808d818082800991818180090909918009098009800980098180898181800909918009098009800980099281808280099181808280099181818009090909918009098009800980098009800980098180808b8009818c8181800909099180090980098009800980098009800909800980098009800980098009818080808c8009818d818180090909818c81808281818009099181818009090909918009098009800980098009928180808381818009098184818180090909918180828009918180828009918181800909090909918009098009800981808d818082800991818180090909918009098009800980098009800980098009928181800909918009098009800980098009800980098009800992818082800991818180090909918009098009800981808d818180090991800909800980098009800980098009800992818080838009818481818009090991818082818180090991818180090909099180090980098009800981808d81808083800981848181800909099181808281818009099181818009090909918009098009800980098009818080898009818a8181800909099180090980098009928180828009918180828009918181800909090991800909800980098009800980098009800980098009818080808b8009818c81818009090981808c8181800909818d81818009090909918009098009800980099281808280099181818009090991800909800980098009800981808d81808281818009099181808281818009099181818009090909918009098009800980098009800980098180808088800981898181800909098180898181800909818a81818009090909918009098009800909800980098009800980098009928180828009918180828009918181800909090991800909800980098009800980098180808c8009818d8180828009918181800909090991800909800980098009800981808087800981888181800909099180090980098009098009800980098009800980099281808083818180090981848181800909099181808280099181808280099181818009090909099180090980098009800980098009818080808b8181800909818c81818009090981808c8181800909818d81808281818009099181818009090909099180090980098009800980098009098009800980098009800980090980098009800980099281818009099180090980098009800980098009800980098009818080808a8009818b81818009090981808b8181800909818c818180090909099180090980098009928181800909918009098009800981808d81818009099180090980098009800980098009800980099281808083818180090981848181800909099181808281818009099181808281818009099181818009090909099180090980098009800981808d8180828181800909918180828181800909918181800909090991800909800980098009818080808b8181800909818c81818009090981808c8181800909818d81808281818009099181818009090909099180090980098009818080878009818881818009090991800909800980090980098009800980098009928180828009918181800909099180090990565b9190917f30644e72e131a029b85045b68181585d97816a916871ca8d3c208c16d87cfd479081600085098203828111610a825760008360018180948183880908970992090890565b909392917f30644e72e131a029b85045b68181585d97816a916871ca8d3c208c16d87cfd4792838187098403848111610a82578285809492818094880908970992090890565b939290937f30644e72e131a029b85045b68181585d97816a916871ca8d3c208c16d87cfd4792830391838311610a8257830391838311610a8257839108930890565b92938291857f30644e72e131a029b85045b68181585d97816a916871ca8d3c208c16d87cfd476003830982877f30644e72e131a029b85045b68181585d97816a916871ca8d3c208c16d87cfd47600382099261357b93613498565b90966135878387613450565b613597819b839984988496613498565b6135a19391613498565b9390976135b0848b8181613498565b7f30644e72e131a029b85045b68181585d97816a916871ca8d3c208c16d87cfd4760088809907f30644e72e131a029b85045b68181585d97816a916871ca8d3c208c16d87cfd4760088d0990613605936134de565b99819b8b979296613618878b8181613498565b99819f7f30644e72e131a029b85045b68181585d97816a916871ca8d3c208c16d87cfd4760048d979498099260047f30644e72e131a029b85045b68181585d97816a916871ca8d3c208c16d87cfd47910992613673936134de565b61367d9391613498565b9390947f30644e72e131a029b85045b68181585d97816a916871ca8d3c208c16d87cfd4760088209917f30644e72e131a029b85045b68181585d97816a916871ca8d3c208c16d87cfd4760088209926136d593613498565b6136df9391613498565b916136e9936134de565b96909760027f30644e72e131a029b85045b68181585d97816a916871ca8d3c208c16d87cfd4791099260027f30644e72e131a029b85045b68181585d97816a916871ca8d3c208c16d87cfd4791099261374193613498565b96909761374d93613498565b60087f30644e72e131a029b85045b68181585d97816a916871ca8d3c208c16d87cfd4791099060087f30644e72e131a029b85045b68181585d97816a916871ca8d3c208c16d87cfd47910991565b600280919392937f30644e72e131a029b85045b68181585d97816a916871ca8d3c208c16d87cfd479283910993099056fea26469706673582212202ddc88dc687dfc6128422793574bcf128cd16a26b40522770723d9991dd70ac264736f6c63430008180033",
  "linkReferences": {},
  "deployedLinkReferences": {}
}