{
  "_format": "hh-sol-artifact-1",
  "contractName": "AgentGovernanceContract",
  "sourceName": "contracts/main/AgentGovernanceContract.sol",
  "abi": [
    {
      "inputs": [
        {
          "internalType": "uint256[4]",
          "name": "input",
          "type": "uint256[4]"
        }
      ],
      "name": "BNAddFailed",
      "type": "error"
    },
    {
      "inputs": [
        {
          "internalType": "bytes",
          "name": "dst",
          "type": "bytes"
        }
      ],
      "name": "InvalidDSTLength",
      "type": "error"
    },
    {
      "inputs": [
        {
          "internalType": "uint256",
          "name": "x",
          "type": "uint256"
        }
      ],
      "name": "InvalidFieldElement",
      "type": "error"
    },
    {
      "inputs": [
        {
          "internalType": "uint256",
          "name": "noSqrt",
          "type": "uint256"
        }
      ],
      "name": "MapToPointFailed",
      "type": "error"
    },
    {
      "inputs": [
        {
          "internalType": "uint256",
          "name": "base",
          "type": "uint256"
        },
        {
          "internalType": "uint256",
          "name": "exponent",
          "type": "uint256"
        },
        {
          "internalType": "uint256",
          "name": "modulus",
          "type": "uint256"
        }
      ],
      "name": "ModExpFailed",
      "type": "error"
    },
    {
      "anonymous": false,
      "inputs": [
        {
          "indexed": true,
          "internalType": "string",
          "name": "DID",
          "type": "string"
        },
        {
          "indexed": true,
          "internalType": "bytes32",
          "name": "documentHash",
          "type": "bytes32"
        }
      ],
      "name": "DIDCreated",
      "type": "event"
    },
    {
      "anonymous": false,
      "inputs": [
        {
          "indexed": true,
          "internalType": "string",
          "name": "DID",
          "type": "string"
        },
        {
          "indexed": true,
          "internalType": "bytes32",
          "name": "newDocumentHash",
          "type": "bytes32"
        }
      ],
      "name": "DIDDocumentUpdated",
      "type": "event"
    },
    {
      "anonymous": false,
      "inputs": [
        {
          "indexed": true,
          "internalType": "string",
          "name": "DID",
          "type": "string"
        }
      ],
      "name": "DIDRevoked",
      "type": "event"
    },
    {
      "inputs": [],
      "name": "DID_PREFIX",
      "outputs": [
        {
          "internalType": "string",
          "name": "",
          "type": "string"
        }
      ],
      "stateMutability": "view",
      "type": "function"
    },
    {
      "inputs": [],
      "name": "DST_REVOKE",
      "outputs": [
        {
          "internalType": "bytes32",
          "name": "",
          "type": "bytes32"
        }
      ],
      "stateMutability": "view",
      "type": "function"
    },
    {
      "inputs": [],
      "name": "DST_UPDATE",
      "outputs": [
        {
          "internalType": "bytes32",
          "name": "",
          "type": "bytes32"
        }
      ],
      "stateMutability": "view",
      "type": "function"
    },
    {
      "inputs": [],
      "name": "EXPECTED_DID_LENGTH",
      "outputs": [
        {
          "internalType": "uint256",
          "name": "",
          "type": "uint256"
        }
      ],
      "stateMutability": "view",
      "type": "function"
    },
    {
      "inputs": [],
      "name": "PREFIX_LENGTH",
      "outputs": [
        {
          "internalType": "uint256",
          "name": "",
          "type": "uint256"
        }
      ],
      "stateMutability": "view",
      "type": "function"
    },
    {
      "inputs": [
        {
          "internalType": "string",
          "name": "DID",
          "type": "string"
        },
        {
          "internalType": "bytes32",
          "name": "documentHash",
          "type": "bytes32"
        },
        {
          "internalType": "string",
          "name": "cid",
          "type": "string"
        },
        {
          "internalType": "uint8",
          "name": "_requiredSigsForCapUpdate",
          "type": "uint8"
        }
      ],
      "name": "register",
      "outputs": [
        {
          "internalType": "bool",
          "name": "success",
          "type": "bool"
        }
      ],
      "stateMutability": "nonpayable",
      "type": "function"
    },
    {
      "inputs": [
        {
          "internalType": "string",
          "name": "DID",
          "type": "string"
        }
      ],
      "name": "resolve",
      "outputs": [
        {
          "internalType": "bytes32",
          "name": "documentHash",
          "type": "bytes32"
        },
        {
          "internalType": "string",
          "name": "cid",
          "type": "string"
        }
      ],
      "stateMutability": "view",
      "type": "function"
    },
    {
      "inputs": [
        {
          "internalType": "string",
          "name": "DID",
          "type": "string"
        },
        {
          "internalType": "uint256[2]",
          "name": "aggSig",
          "type": "uint256[2]"
        },
        {
          "internalType": "uint8",
          "name": "pksMask",
          "type": "uint8"
        }
      ],
      "name": "revoke",
      "outputs": [
        {
          "internalType": "bool",
          "name": "success",
          "type": "bool"
        }
      ],
      "stateMutability": "nonpayable",
      "type": "function"
    },
    {
      "inputs": [
        {
          "internalType": "string",
          "name": "DID",
          "type": "string"
        },
        {
          "internalType": "bytes32",
          "name": "newDocumentHash",
          "type": "bytes32"
        },
        {
          "internalType": "uint256[2]",
          "name": "aggSig",
          "type": "uint256[2]"
        },
        {
          "internalType": "uint8",
          "name": "pksMask",
          "type": "uint8"
        }
      ],
      "name": "update",
      "outputs": [
        {
          "internalType": "bool",
          "name": "success",
          "type": "bool"
        }
      ],
      "stateMutability": "nonpayable",
      "type": "function"
    }
  ],
  "bytecode": "0x608034620003b95760a08101906001600160401b03821181831017620003a35760409182526200002e620003be565b907f0febc527fc610e05784552f398809fed7b36fb242e8d780f82968000b861154d82526020917f2d9b0820eaadca6c70bf7c0696eb6895c544a8ed7281129e93fcb6917c676727838201527f27575aec04b577018dfebc1b9f25e97cefbbc3c8c2d3aeb1f8d45ed464e70450848201526060907f2452213c3c8b58668d5268980fb7fe1d912a74cfaca609a30bdab68896ea57b4828201528252620000d3620003be565b7f2455d2a03728b500c4cc0ad271911e4bc8dd42633ac5bd7438af0a2a80a3f12c81527f2db4731fcbe3dda6e39fc20728f18e8631bc55419f7ea88d0392d259ef48045b848201527f2e9c1e51795148332cecab28e17c895123ba22a5ba56c1389af86ecce718c514858201527f0f1d27edf7bdc1bf49fa69878aed52a52431263840bf1780b6c1edb8cb91fa3f828201528383015262000173620003be565b7f15aa22779ac75bcf9f2136febade4e3b0007c31c9f6f1cfc03bdbea89386b24881527f0a22035c14940c675e9522932e4258941312afb004169ae6894d3478edc307f3848201527f16d89a57ad3871d717a8e73e0b74fe6deb64c9942090441a258827c1e873618b858201527f077d884f73738abc1ac46af75e3e7d234cacc09df571bdd04de53becd04da9f5828201528483015262000213620003be565b7f0b67e6f405e955a705552cc20c5843788dc1181a9f7b8feed46eb9fbfc79153681527f2dbd0a425af318a1c89601f956003df338c766dfa98c14175f19da7dcc775c8c848201527f2a1188f241747a55cae36b5bca25b031d0a839b1dac8308259c33edb65eb6e94858201527f170c2f98625e5d1a5222e2b99e25e433b9c43bc158278440ac1c0dabc19bd80882820152818301527f1258bb75e0970e7fdb7f9e16afe3d876ee996ce9f026f736f002f133ab0d8b44620002d4620003be565b917f1694aac85acd836afa535ba41366e1897a03a2948ab1514049f8e67efd585f9c83527f2dcb07e629ce8de88cbac1ee7640f3bcd074db30cb1eff4fa2275ee623d3300b858401527f1d8bb91d1944398523f23eb77f4512cd2bcd85cc378ff81b8f0f32a342fed51a868401528201526080820152906000916000905b600582106200036a57845161371d9081620003df8239f35b82815160005b600481106200038e5750506004906001920194019101909262000352565b81518782015585929091019060010162000370565b634e487b7160e01b600052604160045260246000fd5b600080fd5b60405190608082016001600160401b03811183821017620003a35760405256fe6080604052600436101561001257600080fd5b6000803560e01c9081632418833f146100aa57508063356b9454146100a5578063461a4478146100a057806346f3c1ed1461009b5780634c0d97811461009657806388b57e95146100915780639d9dcabc1461008c578063c76cd403146100875763e714023d1461008257600080fd5b610b52565b610b18565b610972565b6107ff565b6107b1565b610598565b61035b565b6100e6565b346100e357807ffffffffffffffffffffffffffffffffffffffffffffffffffffffffffffffffc3601126100e357600d60805260206080f35b80fd5b3461013f5760007ffffffffffffffffffffffffffffffffffffffffffffffffffffffffffffffffc36011261013f5760206040517f283b208957fe4fa6f6029daabcfeddad5c9b5d110a38b1816631f64e563f85848152f35b600080fd5b7f4e487b7100000000000000000000000000000000000000000000000000000000600052604160045260246000fd5b60e0810190811067ffffffffffffffff82111761018f57604052565b610144565b6040810190811067ffffffffffffffff82111761018f57604052565b6080810190811067ffffffffffffffff82111761018f57604052565b60c0810190811067ffffffffffffffff82111761018f57604052565b90601f7fffffffffffffffffffffffffffffffffffffffffffffffffffffffffffffffe0910116810190811067ffffffffffffffff82111761018f57604052565b6040519061023682610173565b565b6040519061023682610194565b60405190610180820182811067ffffffffffffffff82111761018f57604052565b81601f8201121561013f5780359067ffffffffffffffff821161018f57604051926102b960207fffffffffffffffffffffffffffffffffffffffffffffffffffffffffffffffe0601f86011601856101e8565b8284526020838301011161013f57816000926020809301838601378301015290565b60005b8381106102ee5750506000910152565b81810151838201526020016102de565b907fffffffffffffffffffffffffffffffffffffffffffffffffffffffffffffffe0601f60209361033a815180928187528780880191016102db565b0116010190565b6040906103589392815281602082015201906102fe565b90565b3461013f576020807ffffffffffffffffffffffffffffffffffffffffffffffffffffffffffffffffc36011261013f5760043567ffffffffffffffff811161013f576103ab903690600401610266565b6103c060ff6103b983610bab565b5416610bf7565b60ff60046103cd83610bd1565b0154169060028210156104c5576103e76103ec9215610c66565b610bd1565b600560028201549101916040518093600090805461040981610ccb565b808552916001918083169081156104845750600114610445575b505050610432925003836101e8565b61044160405192839283610341565b0390f35b600090815285812095935091905b81831061046c5750506104329350820101388080610423565b85548884018501529485019487945091830191610453565b9150506104329593507fffffffffffffffffffffffffffffffffffffffffffffffffffffffffffffff0091501682840152151560051b820101388080610423565b7f4e487b7100000000000000000000000000000000000000000000000000000000600052602160045260246000fd5b806043121561013f576040519061050a82610194565b8160649160641161013f576024905b8282106105265750505090565b8135815260209182019101610519565b806063121561013f576040519061054c82610194565b8160849160841161013f576044905b8282106105685750505090565b813581526020918201910161055b565b6064359060ff8216820361013f57565b6084359060ff8216820361013f57565b3461013f5760807ffffffffffffffffffffffffffffffffffffffffffffffffffffffffffffffffc36011261013f5760043567ffffffffffffffff811161013f576105e7903690600401610266565b6105f0366104f4565b906105f9610578565b61060760ff6103b984610bab565b60ff600461061484610bd1565b0154169260028410156104c55761062e6107469415610c66565b6106fd6106f761063d85610bd1565b936106f260018601946106d16106cb87546106908b61066460405193849260208401610d1e565b037fffffffffffffffffffffffffffffffffffffffffffffffffffffffffffffffe081018352826101e8565b60405161069c81610194565b600a81527f4147432d7265766f6b65000000000000000000000000000000000000000000006020820152611483565b9361173d565b6106eb6106e560068b969496015460ff1690565b60ff1690565b1115610db6565b611800565b50610e1b565b61072f6004830160017fffffffffffffffffffffffffffffffffffffffffffffffffffffffffffffff00825416179055565b6107398154610edd565b9055600342910155610f0a565b604051907f8d5d0f9333534da02ef5f341fe3f88a64f03b3d4ca4aef5bfdb6e3d5cdece101600080a260018152602090f35b6040519061078582610194565b600d82527f6469643a626c6f636b6132613a000000000000000000000000000000000000006020830152565b3461013f5760007ffffffffffffffffffffffffffffffffffffffffffffffffffffffffffffffffc36011261013f576104416107eb610778565b6040519182916020835260208301906102fe565b3461013f5760807ffffffffffffffffffffffffffffffffffffffffffffffffffffffffffffffffc36011261013f5767ffffffffffffffff60043581811161013f5761084f903690600401610266565b906024359160443591821161013f5761090361087261093f933690600401610266565b6108f561087d610578565b61088e61088986611933565b610f2a565b6108b06108ab6108a76108a088610bab565b5460ff1690565b1590565b610f8f565b6108be60ff82161515610ff4565b6108c6610229565b92858452600160208501528760408501524260608501526000608085015260a084015260c083019060ff169052565b6108fe83610bd1565b611204565b61093a61090f82610bab565b60017fffffffffffffffffffffffffffffffffffffffffffffffffffffffffffffff00825416179055565b610f0a565b90604051917f64b17621560acdf371cc9090466395c4edacecc3acc35947973db19d2fb2cf14600080a360018152602090f35b3461013f5760a07ffffffffffffffffffffffffffffffffffffffffffffffffffffffffffffffffc36011261013f5760043567ffffffffffffffff811161013f576109c1903690600401610266565b602435906109ce36610536565b906109d7610588565b916109e660ff6103b984610bab565b60ff60046109f384610bd1565b0154169260028410156104c557610a0d610aa39415610c66565b610739610a1984610bd1565b92610a986106f760018601946106f2865494610a846106cb8d610a498d6106648b60405194859360208501610d6b565b604051610a5581610194565b600a81527f4147432d757064617465000000000000000000000000000000000000000000006020820152611483565b6106eb6106e560068d969496015460ff1690565b866002850155610edd565b90604051917ffbccb49fcba0db7422ed2970ae7e545a0133b0d0343c5cd282b5a877ef95c487600080a360018152602090f35b7f4e487b7100000000000000000000000000000000000000000000000000000000600052601160045260246000fd5b6001019081600111610b1357565b610ad6565b3461013f5760007ffffffffffffffffffffffffffffffffffffffffffffffffffffffffffffffffc36011261013f57602060405160178152f35b3461013f5760007ffffffffffffffffffffffffffffffffffffffffffffffffffffffffffffffffc36011261013f5760206040517f6688844a85e8870f0474f90aa6d22975f9e2e6d3485e6abb706be219ab7cd70b8152f35b6020610bc49181604051938285809451938492016102db565b8101601581520301902090565b6020610bea9181604051938285809451938492016102db565b8101601481520301902090565b15610bfe57565b60646040517f08c379a000000000000000000000000000000000000000000000000000000000815260206004820152601760248201527f4147433a20444944206e6f7420726567697374657265640000000000000000006044820152fd5b600211156104c557565b15610c6d57565b60646040517f08c379a000000000000000000000000000000000000000000000000000000000815260206004820152601360248201527f4147433a20444944206e6f7420616374697665000000000000000000000000006044820152fd5b90600182811c92168015610d14575b6020831014610ce557565b7f4e487b7100000000000000000000000000000000000000000000000000000000600052602260045260246000fd5b91607f1691610cda565b90606092917f6688844a85e8870f0474f90aa6d22975f9e2e6d3485e6abb706be219ab7cd70b8152610d5982518093602080850191016102db565b01906000602083015260408201520190565b90606093917f283b208957fe4fa6f6029daabcfeddad5c9b5d110a38b1816631f64e563f85848152610da682518093602080850191016102db565b0191602083015260408201520190565b15610dbd57565b60646040517f08c379a000000000000000000000000000000000000000000000000000000000815260206004820152601760248201527f4147433a206e6f7420656e6f756768207369676e6572730000000000000000006044820152fd5b15610e2257565b60846040517f08c379a000000000000000000000000000000000000000000000000000000000815260206004820152602c60248201527f4147433a20616767726567617465207369676e6174757265207665726966696360448201527f6174696f6e206661696c656400000000000000000000000000000000000000006064820152fd5b9060028110156104c55760ff7fffffffffffffffffffffffffffffffffffffffffffffffffffffffffffffff008354169116179055565b7fffffffffffffffffffffffffffffffffffffffffffffffffffffffffffffffff8114610b135760010190565b610f22906020604051928284809451938492016102db565b810103902090565b15610f3157565b60646040517f08c379a000000000000000000000000000000000000000000000000000000000815260206004820152601760248201527f4147433a20496e76616c69642044494420666f726d61740000000000000000006044820152fd5b15610f9657565b60646040517f08c379a000000000000000000000000000000000000000000000000000000000815260206004820152601b60248201527f4147433a2044494420616c7265616479207265676973746572656400000000006044820152fd5b15610ffb57565b60846040517f08c379a000000000000000000000000000000000000000000000000000000000815260206004820152602960248201527f4147433a20726571756972656453696773466f72436170557064617465206d7560448201527f7374206265203e203000000000000000000000000000000000000000000000006064820152fd5b90601f811161108d57505050565b6000916000526020600020906020601f850160051c830194106110cb575b601f0160051c01915b8281106110c057505050565b8181556001016110b4565b90925082906110ab565b919091825167ffffffffffffffff811161018f576110fd816110f78454610ccb565b8461107f565b602080601f831160011461115d5750819061114e939495600092611152575b50507fffffffffffffffffffffffffffffffffffffffffffffffffffffffffffffffff8260011b9260031b1c19161790565b9055565b01519050388061111c565b907fffffffffffffffffffffffffffffffffffffffffffffffffffffffffffffffe083169561119185600052602060002090565b926000905b8882106111ec575050836001959697106111b5575b505050811b019055565b01517fffffffffffffffffffffffffffffffffffffffffffffffffffffffffffffffff60f88460031b161c191690553880806111ab565b80600185968294968601518155019501930190611196565b919091825192835167ffffffffffffffff811161018f5761122f816112298554610ccb565b8561107f565b602080601f831160011461130d575060069261128a836112de9460c094610236999a6000926111525750507fffffffffffffffffffffffffffffffffffffffffffffffffffffffffffffffff8260011b9260031b1c19161790565b85555b6020810151600186015560408101516002860155606081015160038601556112c560808201516112bc81610c5c565b60048701610ea6565b6112d660a0820151600587016110d5565b015160ff1690565b91019060ff167fffffffffffffffffffffffffffffffffffffffffffffffffffffffffffffff00825416179055565b907fffffffffffffffffffffffffffffffffffffffffffffffffffffffffffffffe083169661134186600052602060002090565b926000905b8982106113ad5750508360c093600696936001936112de976102369b9c10611376575b505050811b01855561128d565b01517fffffffffffffffffffffffffffffffffffffffffffffffffffffffffffffffff60f88460031b161c19169055388080611369565b80600185968294968601518155019501930190611346565b604051906113d282610194565b6040368337565b604051906113e6826101b0565b6080368337565b604051906020820182811067ffffffffffffffff82111761018f576040526020368337565b6040519061141f826101cc565b60c0368337565b7f4e487b7100000000000000000000000000000000000000000000000000000000600052603260045260246000fd5b6080810192916000915b6004831061146c57505050565b60019082518152602080910192019201919061145f565b9061148c6113c5565b50604080805161149b81610194565b36903782519260ff84116116f25760ff6114b3611e8d565b941693825190816114cc87856020988985019586611edc565b03916114fe7fffffffffffffffffffffffffffffffffffffffffffffffffffffffffffffffe0938481018352826101e8565b51902091835185810190611524816115188a868987611f7c565b038581018352826101e8565b51902095611530611ea8565b936001926001945b6003861061167d575050505050506115df818560606115e694015277ffffffffffffffffffffffffffffffffffffffffffffffff80601883015116907f30644e72e131a029b85045b68181585d97816a916871ca8d3c208c16d87cfd4780928260488382603089015116817801000000000000000000000000000000000000000000000000809609089601511692896115cf610238565b878152019a169209088652611b12565b9351611b12565b916115ef6113d9565b928451845281850151828501528051838501520151606083015261163b818460808560067ffffffffffffffffffffffffffffffffffffffffffffffffffffffffffffff8305a01fa1590565b61164457505090565b6116799250519182917f128e3f0800000000000000000000000000000000000000000000000000000000835260048301611455565b0390fd5b909192938383879b8b7fffffffffffffffffffffffffffffffffffffffffffffffffffffffffffffffff8a6116db8e6116cf8d8a9f6106e56116be91610b05565b9251988993898986019c188c611fee565b038981018752866101e8565b0160051b8b01015251902099019493929190611538565b61167991519182917f26e4f9ba00000000000000000000000000000000000000000000000000000000835260048301611e7c565b60058110156117385760021b90600090565b611426565b6117456113d9565b9160009060005b60ff80821660058110156117f8576001901b851616611771575b60010160ff1661174c565b9160016117ef60ff9261178386611726565b508880516117e0602083019182519460408501956060875196019586518354916117bd6117b38660010190600090565b90549060031b1c90565b936117da6117b36117d060028901600083565b9760030190600090565b96611d46565b90929591945252528852610edd565b93915050611766565b505050909150565b604060209283610180969581611814610245565b95805187520151828601527f198e9393920d483a7260bfb731fb5d25f1aa493335a9e71297e485b7aef312c2848601527f1800deef121f1e76426a00665e5c4479674322d4f75edadd46debd5cd992f6ed60608601527f275dc4a288d1afb3cbb1ac09187524c7db36395df7be3b99e673b13a075a65ec60808601527f1d9befcd05a5323e6da4d435f3b617cdb3af83285c2df711ef39c01571827f9d60a0860152805160c0860152015160e0840152838101516101008401528051610120840152606081015161014084015201516101608201526118f16113ed565b93849160087ffffffffffffffffffffffffffffffffffffffffffffffffffffffffffffff8305a01fa915115159190565b908151811015611738570160200190565b61193b610778565b60178251036119f85760005b600d8110611a8f575050600d5b8151811015611a88576119b861199361196d8385611922565b517fff000000000000000000000000000000000000000000000000000000000000001690565b7fff000000000000000000000000000000000000000000000000000000000000001690565b7f30000000000000000000000000000000000000000000000000000000000000008110159081611a5d575b81156119ff575b50156119f857600101611954565b5050600090565b7f6100000000000000000000000000000000000000000000000000000000000000811015915081611a32575b50386119ea565b7f66000000000000000000000000000000000000000000000000000000000000009150111538611a2b565b7f390000000000000000000000000000000000000000000000000000000000000081111591506119e3565b5050600190565b611a9c61196d8285611922565b7fff00000000000000000000000000000000000000000000000000000000000000611acd61199361196d8587611922565b911603611adc57600101611947565b505050600090565b907f30644e72e131a029b85045b68181585d97816a916871ca8d3c208c16d87cfd47918203918211610b1357565b90611b1b6113c5565b917f30644e72e131a029b85045b68181585d97816a916871ca8d3c208c16d87cfd4780821015611cde5780600481848009099060019181611b5f8183860892611ae4565b840890828080808078016789af3a83522eb353c98fc6b36d713d5d8d1cc5dffffffa818b81611b90818b8d09612c32565b9a8b92090909958180611ba289611ae4565b98817f183227397098d014dc2822db40c0ac2ecbc0b548b438e5469e10460b6c3e7ea39a8b0899089680090980097f10216f7ba065e00de81ac1e7808072c9dd2b2385cd7b438469602eb24829a9bd0985089083600381858181800909089385611c0b86612035565b60000b03611c84575050508552611c2181612163565b90602087015215611c5157505b6020840191825191808316911603611c44575050565b611c4d90611ae4565b9052565b6040517f396ec7710000000000000000000000000000000000000000000000000000000081526004810191909152602490fd5b919350915080600381848181800909089284611c9f85612035565b60000b03611cc55750508552611cb481612163565b90602087015215611c515750611c2e565b81935060039250808852818180090908611cb481612163565b6040517fd53e941500000000000000000000000000000000000000000000000000000000815260048101839052602490fd5b15611d1757565b7f4e487b7100000000000000000000000000000000000000000000000000000000600052600160045260246000fd5b979497969596801580611e74575b80611e6c575b80611e64575b15611dba5750505050801580611db2575b80611daa575b80611da2575b15611d89575b93929190565b611d9d611d98848688856128c5565b611d10565b611d83565b508215611d7d565b508315611d77565b508415611d71565b849895989796971580611e5c575b80611e54575b80611e4c575b611e345791611e2c97959391611e09979593611df5611d98858585856128c5565b611e04611d98898989896128c5565b612971565b8051906020810151604082015160608301519160a0608085015194015194612b5a565b929391929091565b935096935094509250611d83611d98848688856128c5565b508715611dd4565b508615611dce565b508515611dc8565b508315611d60565b508215611d5a565b508115611d54565b9060206103589281815201906102fe565b60405190611e9a826101cc565b6088825260a0366020840137565b60405190611eb5826101b0565b6060808352366020840137565b60405190611ecf82610173565b60c0808352366020840137565b7fff0000000000000000000000000000000000000000000000000000000000000092611f2760208093611f196004999896828151948592016102db565b0191828151948592016102db565b01600081527f6000000000000000000000000000000000000000000000000000000000000000600182015260006002820152611f6d8251809360206003850191016102db565b019160f81b1660038201520190565b91602293927fff000000000000000000000000000000000000000000000000000000000000009281527f01000000000000000000000000000000000000000000000000000000000000006020820152611fdf8251809360206021850191016102db565b019160f81b1660218201520190565b602294939181527fff00000000000000000000000000000000000000000000000000000000000000809360f81b166020820152611fdf8251809360206021850191016102db565b61203d611ec2565b9060c060206000828286018381528360408801528360608801528560808801527f183227397098d014dc2822db40c0ac2ecbc0b548b438e5469e10460b6c3e7ea3968760a08201527f30644e72e131a029b85045b68181585d97816a916871ca8d3c208c16d87cfd47958691015260055afa9260005193156121275750507f30644e72e131a029b85045b68181585d97816a916871ca8d3c208c16d87cfd46821461210157811515806120f6575b611c51575060000b90565b5060018214156120eb565b50507fffffffffffffffffffffffffffffffffffffffffffffffffffffffffffffffff90565b60649350604051927fc6daf7ab000000000000000000000000000000000000000000000000000000008452600484015260248301526044820152fd5b907f30644e72e131a029b85045b68181585d97816a916871ca8d3c208c16d87cfd478080808080808080808b8180808080808080808080808080808f8180828180808080808080808080809e8180808080858180808080808087819e8280808080808681808080808080809e818080808481808080808080808089819f828080808080808080808080808d819e8280808080808080888180808080809e8180808080808080808981808080809e81808080808080808080808b8180809e81808080808080808080808b8180809e818080808080808080808a818080809e8180808080808087818080808080809e8180808080808681808080808080809e8180808080808681808080808080809e8180808080808681808080808080809e8180808080808080808080808c81809e81808080808080808080808b8180809e8180808080808087818080808080809e81808080808080809781808080808581808080808080808080808b8181800909818c81818009090981808c8181800909818d818180090909098180808c8181800909818d818180090909818c818082818180090991818180090909090980098009800981808781818009099180090980098009800909800980098009800909800980098009800981808c8180828009918180828009918181800909090991800909800980098009800981808088800981808a8009818b8181800909090991800909800980098009098009800980098180808a800981808c8009818d8181800909090991800909800980098009800980090980098009800981808c8181800909918009098009800980098009800980099281808083818180090981848181800909099181808280099181808280099181818009090909099180090980098009800980098009800980098009800981808d818082800991818180090909918009098009800980098180898181800909918009098009800980099281808280099181808280099181818009090909918009098009800980098009800980098180808b8009818c8181800909099180090980098009800980098009800909800980098009800980098009818080808c8009818d818180090909818c81808281818009099181818009090909918009098009800980098009928180808381818009098184818180090909918180828009918180828009918181800909090909918009098009800981808d818082800991818180090909918009098009800980098009800980098009928181800909918009098009800980098009800980098009800992818082800991818180090909918009098009800981808d818180090991800909800980098009800980098009800992818080838009818481818009090991818082818180090991818180090909099180090980098009800981808d81808083800981848181800909099181808281818009099181818009090909918009098009800980098009818080898009818a8181800909099180090980098009928180828009918180828009918181800909090991800909800980098009800980098009800980098009818080808b8009818c81818009090981808c8181800909818d81818009090909918009098009800980099281808280099181818009090991800909800980098009800981808d81808281818009099181808281818009099181818009090909918009098009800980098009800980098180808088800981898181800909098180898181800909818a81818009090909918009098009800909800980098009800980098009928180828009918180828009918181800909090991800909800980098009800980098180808c8009818d8180828009918181800909090991800909800980098009800981808087800981888181800909099180090980098009098009800980098009800980099281808083818180090981848181800909099181808280099181808280099181818009090909099180090980098009800980098009818080808b8181800909818c81818009090981808c8181800909818d818082818180090991818180090909090991800909800980098009800980090980098009800980098009800909800980098009800992818180090991800909800980098009800980098009800980098180808c818082800991818180090909818d8180828181800909918181800909090991800909800980098180888181800909918009098009800992818180090991800909800980098009800980098009800981808d8180808381818009098184818180090909918180828181800909918180828181800909918181800909090909918009098009800980098180808a818180090981808c8181800909818d818180090909099180090980098009800992818080838181800909818481818009090991818082818180090991818082818180090991818180090909090991800909800980098180808c8009818d8181800909099180090980098009800980098180808781818009098180898181800909818a81818009090909918009098009917f30644e72e131a029b85045b68181585d97816a916871ca8d3c208c16d87cfd478380091490565b61290d6128f87f054fb1321278f57b36922d1d65a0ed99e1cca4ac0e95daea09b8a53ab3dbc462956129159581816133b3565b939092612907828281816133b3565b906133b3565b9290916133f9565b91907f30644e72e131a029b85045b68181585d97816a916871ca8d3c208c16d87cfd479182910815918261294857505090565b7f2fcd3ac2a640a154eb23960892a85a68f031ca0c8344b23a577dcf1052b9e775919250081590565b94979697959192939561298d612985611412565b998a9461336b565b9790966129b361299d888861336b565b949093606088019586526040880194855261336b565b9790966129c0868461336b565b608060a08a9993990199828b5201978089528a149081612b50575b50612ad657505050505050505060408601928351946060880195865191612a01936133f9565b608088019283519460a08a0195865191612a1a936133f9565b612a26818381816133b3565b838388959395518a51612a3a9185896133b3565b93612a469391976133b3565b989097612a538a8a61336b565b909252528b8789612a66888a81816133b3565b612a6f9161336b565b612a7993916133f9565b612a8384886136b6565b91612a8d936133f9565b818196612a9a93966133b3565b9091602001528c52612aab936133f9565b91612ab5936133b3565b9190928451865191612ac6936133b3565b91612ad0936133f9565b90925252565b9397509397509397869b9a9b9991959951149081612b45575b50612b26575050505050505050600060a0820152600060808201526000606082015260016040820152600060208201526001815290565b612b2f9361343b565b9092969397919498525252526020830152815290565b905086511438612aef565b90508a14386129db565b95939195949092947f30644e72e131a029b85045b68181585d97816a916871ca8d3c208c16d87cfd479260405160208152602080820152602060408201528480838009818680090860608201527f30644e72e131a029b85045b68181585d97816a916871ca8d3c208c16d87cfd4560808201528460a082015260208160c08160057ffffffffffffffffffffffffffffffffffffffffffffffffffffffffffffff8305a01fa9051901561013f57848181930993098303928311610b13578282612c2e95612c26936133b3565b9590966133b3565b9091565b807f30644e72e131a029b85045b68181585d97816a916871ca8d3c208c16d87cfd47808080808080808881808080809e8180808080808080808981808080809e8180808080808080888180808080809e8180808080808080888180808080809e8181818080808080808781808080809e8180808080808087818080808080809e8180828180808080808080808080809e8180828180808080808080808981809e818080808080808080808080808d819e8280808080808080808080808080809e8082808080808080808080808080809e80828080808080808080808080808d819f828080808080808080808a818080809e8180808080808080808981808080809e8180808080808080808981808080809e8180808080808080808981808080809e8180808080808080808080808080809e80828080808080808080808080808d819f8280808080808080808981808080809e818080808080808080809981808080808581808080808080808080808b8181800909818c81818009090981808c8181800909818d818180090909098180808c8181800909818d818180090909818c818082818180090991818180090909090980098009800981808781818009099180090980098009800909800980098009800909800980098009800981808c8180828009918180828009918181800909090991800909800980098009800981808088800981808a8009818b8181800909090991800909800980098009098009800980098180808a800981808c8009818d8181800909090991800909800980098009800980090980098009800981808c8181800909918009098009800980098009800980099281808083818180090981848181800909099181808280099181808280099181818009090909099180090980098009800980098009800980098009800981808d818082800991818180090909918009098009800980098180898181800909918009098009800980099281808280099181808280099181818009090909918009098009800980098009800980098180808b8009818c8181800909099180090980098009800980098009800909800980098009800980098009818080808c8009818d818180090909818c81808281818009099181818009090909918009098009800980098009928180808381818009098184818180090909918180828009918180828009918181800909090909918009098009800981808d818082800991818180090909918009098009800980098009800980098009928181800909918009098009800980098009800980098009800992818082800991818180090909918009098009800981808d818180090991800909800980098009800980098009800992818080838009818481818009090991818082818180090991818180090909099180090980098009800981808d81808083800981848181800909099181808281818009099181818009090909918009098009800980098009818080898009818a8181800909099180090980098009928180828009918180828009918181800909090991800909800980098009800980098009800980098009818080808b8009818c81818009090981808c8181800909818d81818009090909918009098009800980099281808280099181818009090991800909800980098009800981808d81808281818009099181808281818009099181818009090909918009098009800980098009800980098180808088800981898181800909098180898181800909818a81818009090909918009098009800909800980098009800980098009928180828009918180828009918181800909090991800909800980098009800980098180808c8009818d8180828009918181800909090991800909800980098009800981808087800981888181800909099180090980098009098009800980098009800980099281808083818180090981848181800909099181808280099181808280099181818009090909099180090980098009800980098009818080808b8181800909818c81818009090981808c8181800909818d81808281818009099181818009090909099180090980098009800980098009098009800980098009800980090980098009800980099281818009099180090980098009800980098009800980098009818080808a8009818b81818009090981808b8181800909818c818180090909099180090980098009928181800909918009098009800981808d81818009099180090980098009800980098009800980099281808083818180090981848181800909099181808281818009099181808281818009099181818009090909099180090980098009800981808d8180828181800909918180828181800909918181800909090991800909800980098009818080808b8181800909818c81818009090981808c8181800909818d81808281818009099181818009090909099180090980098009818080878009818881818009090991800909800980090980098009800980098009928180828009918181800909099180090990565b9190917f30644e72e131a029b85045b68181585d97816a916871ca8d3c208c16d87cfd479081600085098203828111610b135760008360018180948183880908970992090890565b909392917f30644e72e131a029b85045b68181585d97816a916871ca8d3c208c16d87cfd4792838187098403848111610b13578285809492818094880908970992090890565b939290937f30644e72e131a029b85045b68181585d97816a916871ca8d3c208c16d87cfd4792830391838311610b1357830391838311610b1357839108930890565b92938291857f30644e72e131a029b85045b68181585d97816a916871ca8d3c208c16d87cfd476003830982877f30644e72e131a029b85045b68181585d97816a916871ca8d3c208c16d87cfd476003820992613496936133b3565b90966134a2838761336b565b6134b2819b8399849884966133b3565b6134bc93916133b3565b9390976134cb848b81816133b3565b7f30644e72e131a029b85045b68181585d97816a916871ca8d3c208c16d87cfd4760088809907f30644e72e131a029b85045b68181585d97816a916871ca8d3c208c16d87cfd4760088d0990613520936133f9565b99819b8b979296613533878b81816133b3565b99819f7f30644e72e131a029b85045b68181585d97816a916871ca8d3c208c16d87cfd4760048d979498099260047f30644e72e131a029b85045b68181585d97816a916871ca8d3c208c16d87cfd4791099261358e936133f9565b61359893916133b3565b9390947f30644e72e131a029b85045b68181585d97816a916871ca8d3c208c16d87cfd4760088209917f30644e72e131a029b85045b68181585d97816a916871ca8d3c208c16d87cfd4760088209926135f0936133b3565b6135fa93916133b3565b91613604936133f9565b96909760027f30644e72e131a029b85045b68181585d97816a916871ca8d3c208c16d87cfd4791099260027f30644e72e131a029b85045b68181585d97816a916871ca8d3c208c16d87cfd4791099261365c936133b3565b969097613668936133b3565b60087f30644e72e131a029b85045b68181585d97816a916871ca8d3c208c16d87cfd4791099060087f30644e72e131a029b85045b68181585d97816a916871ca8d3c208c16d87cfd47910991565b600280919392937f30644e72e131a029b85045b68181585d97816a916871ca8d3c208c16d87cfd479283910993099056fea264697066735822122021e46bdadf55ecb6e91cfb1659b2bc0d0b37c1ccbe5cab9f7eae69fb88b9e4db64736f6c63430008180033",
  "linkReferences": {},
  "deployedLinkReferences": {}
}