{
  "_format": "hh-sol-artifact-1",
  "contractName": "AgentGovernanceContract",
  "sourceName": "contracts/main/AgentGovernanceContract.sol",
  "abi": [
    {
      "inputs": [
        {
          "internalType": "uint256[4][5]",
          "name": "initialPubKeys",
          "type": "uint256[4][5]"
        }
      ],
      "stateMutability": "nonpayable",
      "type": "constructor"
    },
    {
      "inputs": [
        {
          "internalType": "uint256[4]",
          "name": "input",
          "type": "uint256[4]"
        }
      ],
      "name": "BNAddFailed",
      "type": "error"
    },
    {
      "inputs": [
        {
          "internalType": "bytes",
          "name": "dst",
          "type": "bytes"
        }
      ],
      "name": "InvalidDSTLength",
      "type": "error"
    },
    {
      "inputs": [
        {
          "internalType": "uint256",
          "name": "x",
          "type": "uint256"
        }
      ],
      "name": "InvalidFieldElement",
      "type": "error"
    },
    {
      "inputs": [
        {
          "internalType": "uint256",
          "name": "noSqrt",
          "type": "uint256"
        }
      ],
      "name": "MapToPointFailed",
      "type": "error"
    },
    {
      "inputs": [
        {
          "internalType": "uint256",
          "name": "base",
          "type": "uint256"
        },
        {
          "internalType": "uint256",
          "name": "exponent",
          "type": "uint256"
        },
        {
          "internalType": "uint256",
          "name": "modulus",
          "type": "uint256"
        }
      ],
      "name": "ModExpFailed",
      "type": "error"
    },
    {
      "anonymous": false,
      "inputs": [
        {
          "indexed": true,
          "internalType": "string",
          "name": "DID",
          "type": "string"
        },
        {
          "indexed": true,
          "internalType": "bytes32",
          "name": "documentHash",
          "type": "bytes32"
        }
      ],
      "name": "DIDCreated",
      "type": "event"
    },
    {
      "anonymous": false,
      "inputs": [
        {
          "indexed": true,
          "internalType": "string",
          "name": "DID",
          "type": "string"
        },
        {
          "indexed": true,
          "internalType": "bytes32",
          "name": "newDocumentHash",
          "type": "bytes32"
        }
      ],
      "name": "DIDDocumentUpdated",
      "type": "event"
    },
    {
      "anonymous": false,
      "inputs": [
        {
          "indexed": true,
          "internalType": "string",
          "name": "DID",
          "type": "string"
        }
      ],
      "name": "DIDRevoked",
      "type": "event"
    },
    {
      "inputs": [],
      "name": "DID_PREFIX",
      "outputs": [
        {
          "internalType": "string",
          "name": "",
          "type": "string"
        }
      ],
      "stateMutability": "view",
      "type": "function"
    },
    {
      "inputs": [],
      "name": "DST_REVOKE",
      "outputs": [
        {
          "internalType": "bytes32",
          "name": "",
          "type": "bytes32"
        }
      ],
      "stateMutability": "view",
      "type": "function"
    },
    {
      "inputs": [],
      "name": "DST_UPDATE",
      "outputs": [
        {
          "internalType": "bytes32",
          "name": "",
          "type": "bytes32"
        }
      ],
      "stateMutability": "view",
      "type": "function"
    },
    {
      "inputs": [],
      "name": "EXPECTED_DID_LENGTH",
      "outputs": [
        {
          "internalType": "uint256",
          "name": "",
          "type": "uint256"
        }
      ],
      "stateMutability": "view",
      "type": "function"
    },
    {
      "inputs": [],
      "name": "PREFIX_LENGTH",
      "outputs": [
        {
          "internalType": "uint256",
          "name": "",
          "type": "uint256"
        }
      ],
      "stateMutability": "view",
      "type": "function"
    },
    {
      "inputs": [
        {
          "internalType": "string",
          "name": "",
          "type": "string"
        }
      ],
      "name": "_didEntries",
      "outputs": [
        {
          "internalType": "string",
          "name": "DID",
          "type": "string"
        },
        {
          "internalType": "uint256",
          "name": "version",
          "type": "uint256"
        },
        {
          "internalType": "bytes32",
          "name": "currentDocumentHash",
          "type": "bytes32"
        },
        {
          "internalType": "uint256",
          "name": "timestamp",
          "type": "uint256"
        },
        {
          "internalType": "enum AgentGovernanceContract.DIDLifecycleState",
          "name": "currentState",
          "type": "uint8"
        },
        {
          "internalType": "string",
          "name": "cid",
          "type": "string"
        },
        {
          "internalType": "uint8",
          "name": "requiredSigsForUpdate",
          "type": "uint8"
        }
      ],
      "stateMutability": "view",
      "type": "function"
    },
    {
      "inputs": [
        {
          "internalType": "string",
          "name": "",
          "type": "string"
        }
      ],
      "name": "_isDIDRegistered",
      "outputs": [
        {
          "internalType": "bool",
          "name": "",
          "type": "bool"
        }
      ],
      "stateMutability": "view",
      "type": "function"
    },
    {
      "inputs": [
        {
          "internalType": "string",
          "name": "",
          "type": "string"
        }
      ],
      "name": "nonces",
      "outputs": [
        {
          "internalType": "uint256",
          "name": "",
          "type": "uint256"
        }
      ],
      "stateMutability": "view",
      "type": "function"
    },
    {
      "inputs": [
        {
          "internalType": "string",
          "name": "DID",
          "type": "string"
        },
        {
          "internalType": "bytes32",
          "name": "documentHash",
          "type": "bytes32"
        },
        {
          "internalType": "string",
          "name": "cid",
          "type": "string"
        },
        {
          "internalType": "uint8",
          "name": "_requiredSigsForCapUpdate",
          "type": "uint8"
        }
      ],
      "name": "register",
      "outputs": [
        {
          "internalType": "bool",
          "name": "success",
          "type": "bool"
        }
      ],
      "stateMutability": "nonpayable",
      "type": "function"
    },
    {
      "inputs": [
        {
          "internalType": "string",
          "name": "DID",
          "type": "string"
        }
      ],
      "name": "resolve",
      "outputs": [
        {
          "internalType": "bytes32",
          "name": "documentHash",
          "type": "bytes32"
        },
        {
          "internalType": "string",
          "name": "cid",
          "type": "string"
        }
      ],
      "stateMutability": "view",
      "type": "function"
    },
    {
      "inputs": [
        {
          "internalType": "string",
          "name": "DID",
          "type": "string"
        },
        {
          "internalType": "uint256[2]",
          "name": "aggSig",
          "type": "uint256[2]"
        },
        {
          "internalType": "uint8",
          "name": "pksMask",
          "type": "uint8"
        }
      ],
      "name": "revoke",
      "outputs": [
        {
          "internalType": "bool",
          "name": "success",
          "type": "bool"
        }
      ],
      "stateMutability": "nonpayable",
      "type": "function"
    },
    {
      "inputs": [
        {
          "internalType": "string",
          "name": "DID",
          "type": "string"
        },
        {
          "internalType": "bytes32",
          "name": "newDocumentHash",
          "type": "bytes32"
        },
        {
          "internalType": "uint256[2]",
          "name": "aggSig",
          "type": "uint256[2]"
        },
        {
          "internalType": "uint8",
          "name": "pksMask",
          "type": "uint8"
        }
      ],
      "name": "update",
      "outputs": [
        {
          "internalType": "bool",
          "name": "success",
          "type": "bool"
        }
      ],
      "stateMutability": "nonpayable",
      "type": "function"
    }
  ],
  "bytecode": "0x6080346200013857601f62003a4738819003828101601f1916840193916001600160401b039190828611848710176200015257819060409687528439820190610280918284820312620001385780601f85011215620001385785519460a08601868110848211176200015257875285938501948286116200013857935b858510620000db5787600080895b60058210620000a25783516138de9081620001698239f35b805160005b60048110620000c657505060046020600192019301910190916200008a565b600190602083519301928187015501620000a7565b828286011215620001385787516080808201828110878211176200013d578a5281908701858111620001385787915b81831062000127575050508160209160809352019401936200007c565b82518152602092830192016200010a565b600080fd5b60246000634e487b7160e01b81526041600452fd5b634e487b7160e01b600052604160045260246000fdfe6080604052600436101561001257600080fd5b60003560e01c806308d2a651146100d75780632418833f146100d2578063356b9454146100cd578063461a4478146100c857806346f3c1ed146100c357806347f30bd5146100be5780634c0d9781146100b957806388b57e95146100b45780639d9dcabc146100af578063b24fce88146100aa578063c76cd403146100a55763e714023d146100a057600080fd5b610d2b565b610cf1565b610c80565b610b23565b61099e565b610950565b6108f1565b61073c565b61061c565b6105c3565b610589565b6104ea565b7f4e487b7100000000000000000000000000000000000000000000000000000000600052604160045260246000fd5b60e0810190811067ffffffffffffffff82111761012757604052565b6100dc565b6040810190811067ffffffffffffffff82111761012757604052565b6080810190811067ffffffffffffffff82111761012757604052565b60c0810190811067ffffffffffffffff82111761012757604052565b90601f7fffffffffffffffffffffffffffffffffffffffffffffffffffffffffffffffe0910116810190811067ffffffffffffffff82111761012757604052565b604051906101ce8261010b565b565b604051906101ce8261012c565b60405190610180820182811067ffffffffffffffff82111761012757604052565b81601f820112156102735780359067ffffffffffffffff8211610127576040519261025160207fffffffffffffffffffffffffffffffffffffffffffffffffffffffffffffffe0601f8601160185610180565b8284526020838301011161027357816000926020809301838601378301015290565b600080fd5b60207ffffffffffffffffffffffffffffffffffffffffffffffffffffffffffffffffc820112610273576004359067ffffffffffffffff8211610273576102c1916004016101fe565b90565b60005b8381106102d75750506000910152565b81810151838201526020016102c7565b60206103009181604051938285809451938492016102c4565b8101601481520301902090565b60206103269181604051938285809451938492016102c4565b8101601581520301902090565b602061034c9181604051938285809451938492016102c4565b8101601681520301902090565b90600182811c921680156103a2575b602083101461037357565b7f4e487b7100000000000000000000000000000000000000000000000000000000600052602260045260246000fd5b91607f1691610368565b906040519182600082546103bf81610359565b9081845260209460019160018116908160001461042d57506001146103ee575b5050506101ce92500383610180565b600090815285812095935091905b8183106104155750506101ce93508201013880806103df565b855488840185015294850194879450918301916103fc565b9150506101ce9593507fffffffffffffffffffffffffffffffffffffffffffffffffffffffffffffff0091501682840152151560051b8201013880806103df565b907fffffffffffffffffffffffffffffffffffffffffffffffffffffffffffffffe0601f6020936104aa815180928187528780880191016102c4565b0116010190565b600211156104bb57565b7f4e487b7100000000000000000000000000000000000000000000000000000000600052602160045260246000fd5b34610273576105006104fb36610278565b6102e7565b610509816103ac565b90600181015460028201549060038301549060ff6004850154169160ff6006610534600588016103ac565b960154169361054e6040519760e0895260e089019061046e565b9260208801526040870152606086015260028210156104bb57849361057f92608086015284820360a086015261046e565b9060c08301520390f35b346102735760007ffffffffffffffffffffffffffffffffffffffffffffffffffffffffffffffffc360112610273576020604051600d8152f35b346102735760007ffffffffffffffffffffffffffffffffffffffffffffffffffffffffffffffffc3601126102735760206040517f283b208957fe4fa6f6029daabcfeddad5c9b5d110a38b1816631f64e563f85848152f35b346102735761062a36610278565b61063f60ff6106388361030d565b5416610d84565b60ff600461064c836102e7565b0154169060028210156104bb576104fb6106669215610de9565b6106776005600283015492016103ac565b90610694604051928392835260406020840152604083019061046e565b0390f35b806043121561027357604051906106ae8261012c565b81606491606411610273576024905b8282106106ca5750505090565b81358152602091820191016106bd565b806063121561027357604051906106f08261012c565b81608491608411610273576044905b82821061070c5750505090565b81358152602091820191016106ff565b6064359060ff8216820361027357565b6084359060ff8216820361027357565b346102735760807ffffffffffffffffffffffffffffffffffffffffffffffffffffffffffffffffc3601126102735760043567ffffffffffffffff81116102735761078b9036906004016101fe565b61079436610698565b9061079d61071c565b6107ab60ff6106388461030d565b60ff60046107b8846102e7565b0154169260028410156104bb576107d26108bf9415610de9565b6108766108706107e1856102e7565b9361086b600186019461084a61083b875461082e60608c60405193816108118693518092602080870191016102c4565b820190600060208301526040820152036040810184520182610180565b610836610e71565b6115b0565b93610844610eaa565b5061187b565b61086461085e60068b969496015460ff1690565b60ff1690565b1115610f0b565b61195c565b50610f70565b6108a86004830160017fffffffffffffffffffffffffffffffffffffffffffffffffffffffffffffff00825416179055565b6108b28154611032565b905560034291015561105f565b604051907f8d5d0f9333534da02ef5f341fe3f88a64f03b3d4ca4aef5bfdb6e3d5cdece101600080a260018152602090f35b3461027357602060ff61090b61090636610278565b61030d565b54166040519015158152f35b604051906109248261012c565b600d82527f6469643a626c6f636b6132613a000000000000000000000000000000000000006020830152565b346102735760007ffffffffffffffffffffffffffffffffffffffffffffffffffffffffffffffffc3601126102735761069461098a610917565b60405191829160208352602083019061046e565b346102735760807ffffffffffffffffffffffffffffffffffffffffffffffffffffffffffffffffc3601126102735767ffffffffffffffff600435818111610273576109ee9036906004016101fe565b906024359160443591821161027357610aa2610a11610af09336906004016101fe565b610a94610a1c61071c565b610a2d610a2886611a8f565b61107f565b610a4f610a4a610a46610a3f8861030d565b5460ff1690565b1590565b6110e4565b610a5d60ff82161515611149565b610a656101c1565b92858452600160208501528760408501524260608501526000608085015260a084015260c083019060ff169052565b610a9d836102e7565b611359565b610ad9610aae8261030d565b60017fffffffffffffffffffffffffffffffffffffffffffffffffffffffffffffff00825416179055565b610aeb610ae582610333565b60019055565b61105f565b90604051917f64b17621560acdf371cc9090466395c4edacecc3acc35947973db19d2fb2cf14600080a360018152602090f35b346102735760a07ffffffffffffffffffffffffffffffffffffffffffffffffffffffffffffffffc3601126102735760043567ffffffffffffffff811161027357610b729036906004016101fe565b60243590610b7f366106da565b90610b8861072c565b91610b9760ff6106388461030d565b60ff6004610ba4846102e7565b0154169260028410156104bb57610bbe610c4d9415610de9565b6108b2610bca846102e7565b92610c42610870600186019461086b865494610c2e61083b8d610c268d610bfa8b60405194859360208501610e4e565b037fffffffffffffffffffffffffffffffffffffffffffffffffffffffffffffffe08101835282610180565b61083661151a565b61086461085e60068d969496015460ff1690565b866002850155611032565b90604051917ffbccb49fcba0db7422ed2970ae7e545a0133b0d0343c5cd282b5a877ef95c487600080a360018152602090f35b34610273576020610c98610c9336610278565b610333565b54604051908152f35b7f4e487b7100000000000000000000000000000000000000000000000000000000600052601160045260246000fd5b9060018201809211610cde57565b610ca1565b6001019081600111610cde57565b346102735760007ffffffffffffffffffffffffffffffffffffffffffffffffffffffffffffffffc36011261027357602060405160178152f35b346102735760007ffffffffffffffffffffffffffffffffffffffffffffffffffffffffffffffffc3601126102735760206040517f6688844a85e8870f0474f90aa6d22975f9e2e6d3485e6abb706be219ab7cd70b8152f35b15610d8b57565b60646040517f08c379a000000000000000000000000000000000000000000000000000000000815260206004820152601760248201527f4147433a20444944206e6f7420726567697374657265640000000000000000006044820152fd5b15610df057565b60646040517f08c379a000000000000000000000000000000000000000000000000000000000815260206004820152601360248201527f4147433a20444944206e6f7420616374697665000000000000000000000000006044820152fd5b602090610e6460409593828151948592016102c4565b0191825260208201520190565b60405190610e7e8261012c565b600a82527f4147432d7265766f6b65000000000000000000000000000000000000000000006020830152565b60405190610eb782610148565b6080368337565b60405190610ecb8261012c565b6040368337565b604051906020820182811067ffffffffffffffff821117610127576040526020368337565b60405190610f0482610164565b60c0368337565b15610f1257565b60646040517f08c379a000000000000000000000000000000000000000000000000000000000815260206004820152601760248201527f4147433a206e6f7420656e6f756768207369676e6572730000000000000000006044820152fd5b15610f7757565b60846040517f08c379a000000000000000000000000000000000000000000000000000000000815260206004820152602c60248201527f4147433a20616767726567617465207369676e6174757265207665726966696360448201527f6174696f6e206661696c656400000000000000000000000000000000000000006064820152fd5b9060028110156104bb5760ff7fffffffffffffffffffffffffffffffffffffffffffffffffffffffffffffff008354169116179055565b7fffffffffffffffffffffffffffffffffffffffffffffffffffffffffffffffff8114610cde5760010190565b611077906020604051928284809451938492016102c4565b810103902090565b1561108657565b60646040517f08c379a000000000000000000000000000000000000000000000000000000000815260206004820152601760248201527f4147433a20496e76616c69642044494420666f726d61740000000000000000006044820152fd5b156110eb57565b60646040517f08c379a000000000000000000000000000000000000000000000000000000000815260206004820152601b60248201527f4147433a2044494420616c7265616479207265676973746572656400000000006044820152fd5b1561115057565b60846040517f08c379a000000000000000000000000000000000000000000000000000000000815260206004820152602960248201527f4147433a20726571756972656453696773466f72436170557064617465206d7560448201527f7374206265203e203000000000000000000000000000000000000000000000006064820152fd5b90601f81116111e257505050565b6000916000526020600020906020601f850160051c83019410611220575b601f0160051c01915b82811061121557505050565b818155600101611209565b9092508290611200565b919091825167ffffffffffffffff8111610127576112528161124c8454610359565b846111d4565b602080601f83116001146112b2575081906112a39394956000926112a7575b50507fffffffffffffffffffffffffffffffffffffffffffffffffffffffffffffffff8260011b9260031b1c19161790565b9055565b015190503880611271565b907fffffffffffffffffffffffffffffffffffffffffffffffffffffffffffffffe08316956112e685600052602060002090565b926000905b8882106113415750508360019596971061130a575b505050811b019055565b01517fffffffffffffffffffffffffffffffffffffffffffffffffffffffffffffffff60f88460031b161c19169055388080611300565b806001859682949686015181550195019301906112eb565b919091825192835167ffffffffffffffff8111610127576113848161137e8554610359565b856111d4565b602080601f831160011461146257506006926113df836114339460c0946101ce999a6000926112a75750507fffffffffffffffffffffffffffffffffffffffffffffffffffffffffffffffff8260011b9260031b1c19161790565b85555b60208101516001860155604081015160028601556060810151600386015561141a6080820151611411816104b1565b60048701610ffb565b61142b60a08201516005870161122a565b015160ff1690565b91019060ff167fffffffffffffffffffffffffffffffffffffffffffffffffffffffffffffff00825416179055565b907fffffffffffffffffffffffffffffffffffffffffffffffffffffffffffffffe083169661149686600052602060002090565b926000905b8982106115025750508360c09360069693600193611433976101ce9b9c106114cb575b505050811b0185556113e2565b01517fffffffffffffffffffffffffffffffffffffffffffffffffffffffffffffffff60f88460031b161c191690553880806114be565b8060018596829496860151815501950193019061149b565b604051906115278261012c565b600a82527f4147432d757064617465000000000000000000000000000000000000000000006020830152565b7f4e487b7100000000000000000000000000000000000000000000000000000000600052603260045260246000fd5b6080810192916000915b6004831061159957505050565b60019082518152602080910192019201919061158c565b906115b9610ebe565b5060408080516115c88161012c565b36903782519260ff841161181f5760ff6115e061204e565b941693825190816115f98785602098898501958661209d565b039161162b7fffffffffffffffffffffffffffffffffffffffffffffffffffffffffffffffe093848101835282610180565b51902091835185810190611651816116458a86898761213d565b03858101835282610180565b5190209561165d612069565b936001926001945b600386106117aa5750505050505061170c8185606061171394015277ffffffffffffffffffffffffffffffffffffffffffffffff80601883015116907f30644e72e131a029b85045b68181585d97816a916871ca8d3c208c16d87cfd4780928260488382603089015116817801000000000000000000000000000000000000000000000000809609089601511692896116fc6101d0565b878152019a169209088652611cd3565b9351611cd3565b9161171c610eaa565b9284518452818501518285015280518385015201516060830152611768818460808560067ffffffffffffffffffffffffffffffffffffffffffffffffffffffffffffff8305a01fa1590565b61177157505090565b6117a69250519182917f128e3f0800000000000000000000000000000000000000000000000000000000835260048301611582565b0390fd5b909192938383879b8b7fffffffffffffffffffffffffffffffffffffffffffffffffffffffffffffffff8a6118088e6117fc8d8a9f61085e6117eb91610ce3565b9251988993898986019c188c6121af565b03898101875286610180565b0160051b8b01015251902099019493929190611665565b6117a691519182917f26e4f9ba0000000000000000000000000000000000000000000000000000000083526004830161203d565b60ff1660ff8114610cde5760010190565b60058110156118765760021b90600090565b611553565b611883610eaa565b6000805b60ff8082166005811015611952576001901b8516166118af575b6118aa90611853565b611887565b9061194a6118aa9184516020860180519061193b60408901938885519460608c019586516118dc84611864565b5054916119026118f86118ee87611864565b5060010190600090565b90549060031b1c90565b936119356118f861192b6119256118f861191b8b611864565b5060020190600090565b98611864565b5060030190600090565b96611f07565b90929591945252528552610cd0565b9190506118a1565b5050509291509190565b6040602092836101809695816119706101dd565b95805187520151828601527f198e9393920d483a7260bfb731fb5d25f1aa493335a9e71297e485b7aef312c2848601527f1800deef121f1e76426a00665e5c4479674322d4f75edadd46debd5cd992f6ed60608601527f275dc4a288d1afb3cbb1ac09187524c7db36395df7be3b99e673b13a075a65ec60808601527f1d9befcd05a5323e6da4d435f3b617cdb3af83285c2df711ef39c01571827f9d60a0860152805160c0860152015160e084015283810151610100840152805161012084015260608101516101408401520151610160820152611a4d610ed2565b93849160087ffffffffffffffffffffffffffffffffffffffffffffffffffffffffffffff8305a01fa915115159190565b908151811015611876570160200190565b611a97610917565b6017825103611bb25760005b600d8110611c50575050600d5b8151811015611c4957611b14611aef611ac98385611a7e565b517fff000000000000000000000000000000000000000000000000000000000000001690565b7fff000000000000000000000000000000000000000000000000000000000000001690565b7f30000000000000000000000000000000000000000000000000000000000000008110159081611c1e575b7f610000000000000000000000000000000000000000000000000000000000000081101580611bf4575b7f41000000000000000000000000000000000000000000000000000000000000008210159182611bc9575b508215611bc1575b508115611bb9575b5015611bb257600101611ab0565b5050600090565b905038611ba4565b915038611b9c565b7f46000000000000000000000000000000000000000000000000000000000000001015915038611b94565b507f6600000000000000000000000000000000000000000000000000000000000000811115611b69565b7f39000000000000000000000000000000000000000000000000000000000000008111159150611b3f565b5050600190565b611c5d611ac98285611a7e565b7fff00000000000000000000000000000000000000000000000000000000000000611c8e611aef611ac98587611a7e565b911603611c9d57600101611aa3565b505050600090565b907f30644e72e131a029b85045b68181585d97816a916871ca8d3c208c16d87cfd47918203918211610cde57565b90611cdc610ebe565b917f30644e72e131a029b85045b68181585d97816a916871ca8d3c208c16d87cfd4780821015611e9f5780600481848009099060019181611d208183860892611ca5565b840890828080808078016789af3a83522eb353c98fc6b36d713d5d8d1cc5dffffffa818b81611d51818b8d09612df3565b9a8b92090909958180611d6389611ca5565b98817f183227397098d014dc2822db40c0ac2ecbc0b548b438e5469e10460b6c3e7ea39a8b0899089680090980097f10216f7ba065e00de81ac1e7808072c9dd2b2385cd7b438469602eb24829a9bd0985089083600381858181800909089385611dcc866121f6565b60000b03611e45575050508552611de281612324565b90602087015215611e1257505b6020840191825191808316911603611e05575050565b611e0e90611ca5565b9052565b6040517f396ec7710000000000000000000000000000000000000000000000000000000081526004810191909152602490fd5b919350915080600381848181800909089284611e60856121f6565b60000b03611e865750508552611e7581612324565b90602087015215611e125750611def565b81935060039250808852818180090908611e7581612324565b6040517fd53e941500000000000000000000000000000000000000000000000000000000815260048101839052602490fd5b15611ed857565b7f4e487b7100000000000000000000000000000000000000000000000000000000600052600160045260246000fd5b979497969596801580612035575b8061202d575b80612025575b15611f7b5750505050801580611f73575b80611f6b575b80611f63575b15611f4a575b93929190565b611f5e611f5984868885612a86565b611ed1565b611f44565b508215611f3e565b508315611f38565b508415611f32565b84989598979697158061201d575b80612015575b8061200d575b611ff55791611fed97959391611fca979593611fb6611f5985858585612a86565b611fc5611f5989898989612a86565b612b32565b8051906020810151604082015160608301519160a0608085015194015194612d1b565b929391929091565b935096935094509250611f44611f5984868885612a86565b508715611f95565b508615611f8f565b508515611f89565b508315611f21565b508215611f1b565b508115611f15565b9060206102c192818152019061046e565b6040519061205b82610164565b6088825260a0366020840137565b6040519061207682610148565b6060808352366020840137565b604051906120908261010b565b60c0808352366020840137565b7fff00000000000000000000000000000000000000000000000000000000000000926120e8602080936120da6004999896828151948592016102c4565b0191828151948592016102c4565b01600081527f600000000000000000000000000000000000000000000000000000000000000060018201526000600282015261212e8251809360206003850191016102c4565b019160f81b1660038201520190565b91602293927fff000000000000000000000000000000000000000000000000000000000000009281527f010000000000000000000000000000000000000000000000000000000000000060208201526121a08251809360206021850191016102c4565b019160f81b1660218201520190565b602294939181527fff00000000000000000000000000000000000000000000000000000000000000809360f81b1660208201526121a08251809360206021850191016102c4565b6121fe612083565b9060c060206000828286018381528360408801528360608801528560808801527f183227397098d014dc2822db40c0ac2ecbc0b548b438e5469e10460b6c3e7ea3968760a08201527f30644e72e131a029b85045b68181585d97816a916871ca8d3c208c16d87cfd47958691015260055afa9260005193156122e85750507f30644e72e131a029b85045b68181585d97816a916871ca8d3c208c16d87cfd4682146122c257811515806122b7575b611e12575060000b90565b5060018214156122ac565b50507fffffffffffffffffffffffffffffffffffffffffffffffffffffffffffffffff90565b60649350604051927fc6daf7ab000000000000000000000000000000000000000000000000000000008452600484015260248301526044820152fd5b907f30644e72e131a029b85045b68181585d97816a916871ca8d3c208c16d87cfd478080808080808080808b8180808080808080808080808080808f8180828180808080808080808080809e8180808080858180808080808087819e8280808080808681808080808080809e818080808481808080808080808089819f828080808080808080808080808d819e8280808080808080888180808080809e8180808080808080808981808080809e81808080808080808080808b8180809e81808080808080808080808b8180809e818080808080808080808a818080809e8180808080808087818080808080809e8180808080808681808080808080809e8180808080808681808080808080809e8180808080808681808080808080809e8180808080808080808080808c81809e81808080808080808080808b8180809e8180808080808087818080808080809e81808080808080809781808080808581808080808080808080808b8181800909818c81818009090981808c8181800909818d818180090909098180808c8181800909818d818180090909818c818082818180090991818180090909090980098009800981808781818009099180090980098009800909800980098009800909800980098009800981808c8180828009918180828009918181800909090991800909800980098009800981808088800981808a8009818b8181800909090991800909800980098009098009800980098180808a800981808c8009818d8181800909090991800909800980098009800980090980098009800981808c8181800909918009098009800980098009800980099281808083818180090981848181800909099181808280099181808280099181818009090909099180090980098009800980098009800980098009800981808d818082800991818180090909918009098009800980098180898181800909918009098009800980099281808280099181808280099181818009090909918009098009800980098009800980098180808b8009818c8181800909099180090980098009800980098009800909800980098009800980098009818080808c8009818d818180090909818c81808281818009099181818009090909918009098009800980098009928180808381818009098184818180090909918180828009918180828009918181800909090909918009098009800981808d818082800991818180090909918009098009800980098009800980098009928181800909918009098009800980098009800980098009800992818082800991818180090909918009098009800981808d818180090991800909800980098009800980098009800992818080838009818481818009090991818082818180090991818180090909099180090980098009800981808d81808083800981848181800909099181808281818009099181818009090909918009098009800980098009818080898009818a8181800909099180090980098009928180828009918180828009918181800909090991800909800980098009800980098009800980098009818080808b8009818c81818009090981808c8181800909818d81818009090909918009098009800980099281808280099181818009090991800909800980098009800981808d81808281818009099181808281818009099181818009090909918009098009800980098009800980098180808088800981898181800909098180898181800909818a81818009090909918009098009800909800980098009800980098009928180828009918180828009918181800909090991800909800980098009800980098180808c8009818d8180828009918181800909090991800909800980098009800981808087800981888181800909099180090980098009098009800980098009800980099281808083818180090981848181800909099181808280099181808280099181818009090909099180090980098009800980098009818080808b8181800909818c81818009090981808c8181800909818d818082818180090991818180090909090991800909800980098009800980090980098009800980098009800909800980098009800992818180090991800909800980098009800980098009800980098180808c818082800991818180090909818d8180828181800909918181800909090991800909800980098180888181800909918009098009800992818180090991800909800980098009800980098009800981808d8180808381818009098184818180090909918180828181800909918180828181800909918181800909090909918009098009800980098180808a818180090981808c8181800909818d818180090909099180090980098009800992818080838181800909818481818009090991818082818180090991818082818180090991818180090909090991800909800980098180808c8009818d8181800909099180090980098009800980098180808781818009098180898181800909818a81818009090909918009098009917f30644e72e131a029b85045b68181585d97816a916871ca8d3c208c16d87cfd478380091490565b612ace612ab97f054fb1321278f57b36922d1d65a0ed99e1cca4ac0e95daea09b8a53ab3dbc46295612ad6958181613574565b939092612ac882828181613574565b90613574565b9290916135ba565b91907f30644e72e131a029b85045b68181585d97816a916871ca8d3c208c16d87cfd4791829108159182612b0957505090565b7f2fcd3ac2a640a154eb23960892a85a68f031ca0c8344b23a577dcf1052b9e775919250081590565b949796979591929395612b4e612b46610ef7565b998a9461352c565b979096612b74612b5e888861352c565b949093606088019586526040880194855261352c565b979096612b81868461352c565b608060a08a9993990199828b5201978089528a149081612d11575b50612c9757505050505050505060408601928351946060880195865191612bc2936135ba565b608088019283519460a08a0195865191612bdb936135ba565b612be781838181613574565b838388959395518a51612bfb918589613574565b93612c07939197613574565b989097612c148a8a61352c565b909252528b8789612c27888a8181613574565b612c309161352c565b612c3a93916135ba565b612c448488613877565b91612c4e936135ba565b818196612c5b9396613574565b9091602001528c52612c6c936135ba565b91612c7693613574565b9190928451865191612c8793613574565b91612c91936135ba565b90925252565b9397509397509397869b9a9b9991959951149081612d06575b50612ce7575050505050505050600060a0820152600060808201526000606082015260016040820152600060208201526001815290565b612cf0936135fc565b9092969397919498525252526020830152815290565b905086511438612cb0565b90508a1438612b9c565b95939195949092947f30644e72e131a029b85045b68181585d97816a916871ca8d3c208c16d87cfd479260405160208152602080820152602060408201528480838009818680090860608201527f30644e72e131a029b85045b68181585d97816a916871ca8d3c208c16d87cfd4560808201528460a082015260208160c08160057ffffffffffffffffffffffffffffffffffffffffffffffffffffffffffffff8305a01fa9051901561027357848181930993098303928311610cde578282612def95612de793613574565b959096613574565b9091565b807f30644e72e131a029b85045b68181585d97816a916871ca8d3c208c16d87cfd47808080808080808881808080809e8180808080808080808981808080809e8180808080808080888180808080809e8180808080808080888180808080809e8181818080808080808781808080809e8180808080808087818080808080809e8180828180808080808080808080809e8180828180808080808080808981809e818080808080808080808080808d819e8280808080808080808080808080809e8082808080808080808080808080809e80828080808080808080808080808d819f828080808080808080808a818080809e8180808080808080808981808080809e8180808080808080808981808080809e8180808080808080808981808080809e8180808080808080808080808080809e80828080808080808080808080808d819f8280808080808080808981808080809e818080808080808080809981808080808581808080808080808080808b8181800909818c81818009090981808c8181800909818d818180090909098180808c8181800909818d818180090909818c818082818180090991818180090909090980098009800981808781818009099180090980098009800909800980098009800909800980098009800981808c8180828009918180828009918181800909090991800909800980098009800981808088800981808a8009818b8181800909090991800909800980098009098009800980098180808a800981808c8009818d8181800909090991800909800980098009800980090980098009800981808c8181800909918009098009800980098009800980099281808083818180090981848181800909099181808280099181808280099181818009090909099180090980098009800980098009800980098009800981808d818082800991818180090909918009098009800980098180898181800909918009098009800980099281808280099181808280099181818009090909918009098009800980098009800980098180808b8009818c8181800909099180090980098009800980098009800909800980098009800980098009818080808c8009818d818180090909818c81808281818009099181818009090909918009098009800980098009928180808381818009098184818180090909918180828009918180828009918181800909090909918009098009800981808d818082800991818180090909918009098009800980098009800980098009928181800909918009098009800980098009800980098009800992818082800991818180090909918009098009800981808d818180090991800909800980098009800980098009800992818080838009818481818009090991818082818180090991818180090909099180090980098009800981808d81808083800981848181800909099181808281818009099181818009090909918009098009800980098009818080898009818a8181800909099180090980098009928180828009918180828009918181800909090991800909800980098009800980098009800980098009818080808b8009818c81818009090981808c8181800909818d81818009090909918009098009800980099281808280099181818009090991800909800980098009800981808d81808281818009099181808281818009099181818009090909918009098009800980098009800980098180808088800981898181800909098180898181800909818a81818009090909918009098009800909800980098009800980098009928180828009918180828009918181800909090991800909800980098009800980098180808c8009818d8180828009918181800909090991800909800980098009800981808087800981888181800909099180090980098009098009800980098009800980099281808083818180090981848181800909099181808280099181808280099181818009090909099180090980098009800980098009818080808b8181800909818c81818009090981808c8181800909818d81808281818009099181818009090909099180090980098009800980098009098009800980098009800980090980098009800980099281818009099180090980098009800980098009800980098009818080808a8009818b81818009090981808b8181800909818c818180090909099180090980098009928181800909918009098009800981808d81818009099180090980098009800980098009800980099281808083818180090981848181800909099181808281818009099181808281818009099181818009090909099180090980098009800981808d8180828181800909918180828181800909918181800909090991800909800980098009818080808b8181800909818c81818009090981808c8181800909818d81808281818009099181818009090909099180090980098009818080878009818881818009090991800909800980090980098009800980098009928180828009918181800909099180090990565b9190917f30644e72e131a029b85045b68181585d97816a916871ca8d3c208c16d87cfd479081600085098203828111610cde5760008360018180948183880908970992090890565b909392917f30644e72e131a029b85045b68181585d97816a916871ca8d3c208c16d87cfd4792838187098403848111610cde578285809492818094880908970992090890565b939290937f30644e72e131a029b85045b68181585d97816a916871ca8d3c208c16d87cfd4792830391838311610cde57830391838311610cde57839108930890565b92938291857f30644e72e131a029b85045b68181585d97816a916871ca8d3c208c16d87cfd476003830982877f30644e72e131a029b85045b68181585d97816a916871ca8d3c208c16d87cfd47600382099261365793613574565b9096613663838761352c565b613673819b839984988496613574565b61367d9391613574565b93909761368c848b8181613574565b7f30644e72e131a029b85045b68181585d97816a916871ca8d3c208c16d87cfd4760088809907f30644e72e131a029b85045b68181585d97816a916871ca8d3c208c16d87cfd4760088d09906136e1936135ba565b99819b8b9792966136f4878b8181613574565b99819f7f30644e72e131a029b85045b68181585d97816a916871ca8d3c208c16d87cfd4760048d979498099260047f30644e72e131a029b85045b68181585d97816a916871ca8d3c208c16d87cfd4791099261374f936135ba565b6137599391613574565b9390947f30644e72e131a029b85045b68181585d97816a916871ca8d3c208c16d87cfd4760088209917f30644e72e131a029b85045b68181585d97816a916871ca8d3c208c16d87cfd4760088209926137b193613574565b6137bb9391613574565b916137c5936135ba565b96909760027f30644e72e131a029b85045b68181585d97816a916871ca8d3c208c16d87cfd4791099260027f30644e72e131a029b85045b68181585d97816a916871ca8d3c208c16d87cfd4791099261381d93613574565b96909761382993613574565b60087f30644e72e131a029b85045b68181585d97816a916871ca8d3c208c16d87cfd4791099060087f30644e72e131a029b85045b68181585d97816a916871ca8d3c208c16d87cfd47910991565b600280919392937f30644e72e131a029b85045b68181585d97816a916871ca8d3c208c16d87cfd479283910993099056fea2646970667358221220233eb302558bf4adf6c178ac8fb971f973f9621a994914527dafad4c12283aa064736f6c63430008180033",
  "linkReferences": {},
  "deployedLinkReferences": {}
}