{
  "_format": "hh-sol-artifact-1",
  "contractName": "AgentGovernanceContract",
  "sourceName": "contracts/main/AgentGovernanceContract.sol",
  "abi": [
    {
      "inputs": [
        {
          "internalType": "uint256[4]",
          "name": "input",
          "type": "uint256[4]"
        }
      ],
      "name": "BNAddFailed",
      "type": "error"
    },
    {
      "inputs": [
        {
          "internalType": "bytes",
          "name": "dst",
          "type": "bytes"
        }
      ],
      "name": "InvalidDSTLength",
      "type": "error"
    },
    {
      "inputs": [
        {
          "internalType": "uint256",
          "name": "x",
          "type": "uint256"
        }
      ],
      "name": "InvalidFieldElement",
      "type": "error"
    },
    {
      "inputs": [
        {
          "internalType": "uint256",
          "name": "noSqrt",
          "type": "uint256"
        }
      ],
      "name": "MapToPointFailed",
      "type": "error"
    },
    {
      "inputs": [
        {
          "internalType": "uint256",
          "name": "base",
          "type": "uint256"
        },
        {
          "internalType": "uint256",
          "name": "exponent",
          "type": "uint256"
        },
        {
          "internalType": "uint256",
          "name": "modulus",
          "type": "uint256"
        }
      ],
      "name": "ModExpFailed",
      "type": "error"
    },
    {
      "anonymous": false,
      "inputs": [
        {
          "indexed": true,
          "internalType": "string",
          "name": "DID",
          "type": "string"
        },
        {
          "indexed": true,
          "internalType": "bytes32",
          "name": "documentHash",
          "type": "bytes32"
        },
        {
          "indexed": false,
          "internalType": "address[]",
          "name": "controllers",
          "type": "address[]"
        }
      ],
      "name": "DIDCreated",
      "type": "event"
    },
    {
      "anonymous": false,
      "inputs": [
        {
          "indexed": true,
          "internalType": "string",
          "name": "DID",
          "type": "string"
        },
        {
          "indexed": true,
          "internalType": "bytes32",
          "name": "newDocumentHash",
          "type": "bytes32"
        }
      ],
      "name": "DIDDocumentUpdated",
      "type": "event"
    },
    {
      "anonymous": false,
      "inputs": [
        {
          "indexed": true,
          "internalType": "string",
          "name": "DID",
          "type": "string"
        }
      ],
      "name": "DIDRevoked",
      "type": "event"
    },
    {
      "inputs": [
        {
          "internalType": "string",
          "name": "",
          "type": "string"
        }
      ],
      "name": "nonces",
      "outputs": [
        {
          "internalType": "uint256",
          "name": "",
          "type": "uint256"
        }
      ],
      "stateMutability": "view",
      "type": "function"
    },
    {
      "inputs": [
        {
          "internalType": "string",
          "name": "DID",
          "type": "string"
        },
        {
          "internalType": "bytes32",
          "name": "documentHash",
          "type": "bytes32"
        },
        {
          "internalType": "address[]",
          "name": "controllers",
          "type": "address[]"
        },
        {
          "internalType": "uint256[4][]",
          "name": "blsPubKeys",
          "type": "uint256[4][]"
        },
        {
          "internalType": "uint8",
          "name": "_requiredSigsForCapUpdate",
          "type": "uint8"
        }
      ],
      "name": "register",
      "outputs": [
        {
          "internalType": "bool",
          "name": "success",
          "type": "bool"
        }
      ],
      "stateMutability": "nonpayable",
      "type": "function"
    },
    {
      "inputs": [
        {
          "internalType": "string",
          "name": "DID",
          "type": "string"
        }
      ],
      "name": "resolve",
      "outputs": [
        {
          "internalType": "bytes32",
          "name": "documentHash",
          "type": "bytes32"
        }
      ],
      "stateMutability": "view",
      "type": "function"
    },
    {
      "inputs": [
        {
          "internalType": "string",
          "name": "DID",
          "type": "string"
        },
        {
          "internalType": "uint256[2]",
          "name": "aggSig",
          "type": "uint256[2]"
        },
        {
          "internalType": "uint256",
          "name": "controllerMask",
          "type": "uint256"
        }
      ],
      "name": "revoke",
      "outputs": [
        {
          "internalType": "bool",
          "name": "success",
          "type": "bool"
        }
      ],
      "stateMutability": "nonpayable",
      "type": "function"
    },
    {
      "inputs": [
        {
          "internalType": "string",
          "name": "DID",
          "type": "string"
        },
        {
          "internalType": "bytes32",
          "name": "newDocumentHash",
          "type": "bytes32"
        },
        {
          "internalType": "uint256[2]",
          "name": "aggSig",
          "type": "uint256[2]"
        },
        {
          "internalType": "uint256",
          "name": "controllerMask",
          "type": "uint256"
        }
      ],
      "name": "update",
      "outputs": [
        {
          "internalType": "bool",
          "name": "success",
          "type": "bool"
        }
      ],
      "stateMutability": "nonpayable",
      "type": "function"
    }
  ],
  "bytecode": "0x6080604052348015600f57600080fd5b50614b258061001f6000396000f3fe608060405234801561001057600080fd5b50600436106100575760003560e01c806315dc2dc11461005c578063461a44781461008c578063a1c565c2146100bc578063b24fce88146100ec578063ba7f7e151461011c575b600080fd5b61007660048036038101906100719190613850565b61014c565b60405161008391906138ee565b60405180910390f35b6100a660048036038101906100a19190613909565b6105a1565b6040516100b39190613961565b60405180910390f35b6100d660048036038101906100d19190613c4a565b6106d0565b6040516100e391906138ee565b60405180910390f35b61010660048036038101906101019190613909565b610a92565b6040516101139190613d28565b60405180910390f35b61013660048036038101906101319190613d43565b610ac0565b60405161014391906138ee565b60405180910390f35b60008460018160405161015f9190613e23565b908152602001604051809103902060009054906101000a900460ff166101ba576040517f08c379a00000000000000000000000000000000000000000000000000000000081526004016101b190613e97565b60405180910390fd5b85600060018111156101cf576101ce613eb7565b5b6000826040516101df9190613e23565b908152602001604051809103902060040160009054906101000a900460ff1660018111156102105761020f613eb7565b5b14610250576040517f08c379a000000000000000000000000000000000000000000000000000000000815260040161024790613f32565b60405180910390fd5b600080886040516102619190613e23565b9081526020016040518091039020905060006040518060400160405280600381526020017f414743000000000000000000000000000000000000000000000000000000000081525080519060200120898960028c6040516102c29190613e23565b9081526020016040518091039020546040516020016102e49493929190613f94565b604051602081830303815290604052905060006103366040518060400160405280600381526020017f414743000000000000000000000000000000000000000000000000000000000081525083610f9b565b9050610340613487565b6000805b856005018054905081101561044257600180828c901c160361043557610424836003600089600501858154811061037e5761037d613fde565b5b9060005260206000200160009054906101000a900473ffffffffffffffffffffffffffffffffffffffff1673ffffffffffffffffffffffffffffffffffffffff1673ffffffffffffffffffffffffffffffffffffffff16815260200190815260200160002060048060200260405190810160405280929190826004801561041a576020028201915b815481526020019060010190808311610406575b505050505061113d565b925081806104319061403c565b9250505b8080600101915050610344565b508460060160009054906101000a900460ff1660ff1681101561049a576040517f08c379a0000000000000000000000000000000000000000000000000000000008152600401610491906140d0565b60405180910390fd5b60006104a78b8486611208565b509050806104ea576040517f08c379a00000000000000000000000000000000000000000000000000000000081526004016104e19061413c565b60405180910390fd5b8b86600201819055508560010160008154809291906105089061403c565b919050555042866003018190555060028d6040516105269190613e23565b908152602001604051809103902060008154809291906105459061403c565b91905055508b8d6040516105599190613e23565b60405180910390207ffbccb49fcba0db7422ed2970ae7e545a0133b0d0343c5cd282b5a877ef95c48760405160405180910390a3600198505050505050505050949350505050565b6000816001816040516105b49190613e23565b908152602001604051809103902060009054906101000a900460ff1661060f576040517f08c379a000000000000000000000000000000000000000000000000000000000815260040161060690613e97565b60405180910390fd5b826000600181111561062457610623613eb7565b5b6000826040516106349190613e23565b908152602001604051809103902060040160009054906101000a900460ff16600181111561066557610664613eb7565b5b146106a5576040517f08c379a000000000000000000000000000000000000000000000000000000000815260040161069c90613f32565b60405180910390fd5b6000846040516106b59190613e23565b90815260200160405180910390206002015492505050919050565b60006106db866113e3565b6106e85760009050610a89565b600084511161072c576040517f08c379a0000000000000000000000000000000000000000000000000000000008152600401610723906141ce565b60405180910390fd5b60008260ff16118015610743575083518260ff1611155b610782576040517f08c379a000000000000000000000000000000000000000000000000000000000815260040161077990614260565b60405180910390fd5b6001866040516107929190613e23565b908152602001604051809103902060009054906101000a900460ff16156107ee576040517f08c379a00000000000000000000000000000000000000000000000000000000081526004016107e5906142cc565b60405180910390fd5b8351835114610832576040517f08c379a000000000000000000000000000000000000000000000000000000000815260040161082990614338565b60405180910390fd5b60005b84518110156108ce5783818151811061085157610850613fde565b5b6020026020010151600360008784815181106108705761086f613fde565b5b602002602001015173ffffffffffffffffffffffffffffffffffffffff1673ffffffffffffffffffffffffffffffffffffffff1681526020019081526020016000209060046108c09291906134a9565b508080600101915050610835565b506040518060e00160405280878152602001600181526020018681526020014281526020016000600181111561090757610906613eb7565b5b81526020018581526020018360ff168152506000876040516109299190613e23565b9081526020016040518091039020600082015181600001908161094c9190614564565b5060208201518160010155604082015181600201556060820151816003015560808201518160040160006101000a81548160ff0219169083600181111561099657610995613eb7565b5b021790555060a08201518160050190805190602001906109b79291906134e9565b5060c08201518160060160006101000a81548160ff021916908360ff160217905550905050600180876040516109ed9190613e23565b908152602001604051809103902060006101000a81548160ff0219169083151502179055506001600287604051610a249190613e23565b9081526020016040518091039020819055508486604051610a459190613e23565b60405180910390207fd50fa4b65ea0bac711bbacd62faf13a559c9b0a21680ccc9e2337c7feca46ed886604051610a7c91906146f4565b60405180910390a3600190505b95945050505050565b6002818051602081018201805184825260208301602085012081835280955050505050506000915090505481565b600083600181604051610ad39190613e23565b908152602001604051809103902060009054906101000a900460ff16610b2e576040517f08c379a0000000000000000000000000000000000000000000000000000000008152600401610b2590613e97565b60405180910390fd5b8460006001811115610b4357610b42613eb7565b5b600082604051610b539190613e23565b908152602001604051809103902060040160009054906101000a900460ff166001811115610b8457610b83613eb7565b5b14610bc4576040517f08c379a0000000000000000000000000000000000000000000000000000000008152600401610bbb90613f32565b60405180910390fd5b60008087604051610bd59190613e23565b9081526020016040518091039020905060006040518060400160405280600381526020017f414743000000000000000000000000000000000000000000000000000000000081525080519060200120886000801b60028b604051610c399190613e23565b908152602001604051809103902054604051602001610c5b9493929190613f94565b60405160208183030381529060405290506000610cad6040518060400160405280600381526020017f414743000000000000000000000000000000000000000000000000000000000081525083610f9b565b9050610cb7613487565b6000805b8560050180549050811015610db957600180828c901c1603610dac57610d9b8360036000896005018581548110610cf557610cf4613fde565b5b9060005260206000200160009054906101000a900473ffffffffffffffffffffffffffffffffffffffff1673ffffffffffffffffffffffffffffffffffffffff1673ffffffffffffffffffffffffffffffffffffffff168152602001908152602001600020600480602002604051908101604052809291908260048015610d91576020028201915b815481526020019060010190808311610d7d575b505050505061113d565b92508180610da89061403c565b9250505b8080600101915050610cbb565b508460060160009054906101000a900460ff1660ff16811015610e11576040517f08c379a0000000000000000000000000000000000000000000000000000000008152600401610e08906140d0565b60405180910390fd5b6000610e1e8b8486611208565b50905080610e61576040517f08c379a0000000000000000000000000000000000000000000000000000000008152600401610e589061413c565b60405180910390fd5b600160008d604051610e739190613e23565b908152602001604051809103902060040160006101000a81548160ff02191690836001811115610ea657610ea5613eb7565b5b02179055504267ffffffffffffffff1660008d604051610ec69190613e23565b90815260200160405180910390206003018190555060008c604051610eeb9190613e23565b90815260200160405180910390206001016000815480929190610f0d9061403c565b919050555060028c604051610f229190613e23565b90815260200160405180910390206000815480929190610f419061403c565b91905055508b604051610f549190613e23565b60405180910390207f8d5d0f9333534da02ef5f341fe3f88a64f03b3d4ca4aef5bfdb6e3d5cdece10160405160405180910390a26001985050505050505050509392505050565b610fa3613573565b6000610faf8484611811565b90506000610fd482600060028110610fca57610fc9613fde565b5b60200201516119a2565b90506000610ff983600160028110610fef57610fee613fde565b5b60200201516119a2565b9050611003613487565b8260006002811061101757611016613fde565b5b6020020151816000600481106110305761102f613fde565b5b6020020181815250508260016002811061104d5761104c613fde565b5b60200201518160016004811061106657611065613fde565b5b6020020181815250508160006002811061108357611082613fde565b5b60200201518160026004811061109c5761109b613fde565b5b602002018181525050816001600281106110b9576110b8613fde565b5b6020020151816003600481106110d2576110d1613fde565b5b602002018181525050600060408460808460066107d05a03fa90508061112f57816040517f128e3f0800000000000000000000000000000000000000000000000000000000815260040161112691906147c1565b60405180910390fd5b839550505050505092915050565b611145613487565b60006040518451815260208501516020820152604085015160408201526060850151606082015283516080820152602084015160a0820152604084015160c0820152606084015160e082015260808161010083600c5afa9150805183526020810151602084015260408101516040840152606081015160608401525080611201576040517f08c379a00000000000000000000000000000000000000000000000000000000081526004016111f890614828565b60405180910390fd5b5092915050565b60008060006040518061018001604052808760006002811061122d5761122c613fde565b5b602002015181526020018760016002811061124b5761124a613fde565b5b602002015181526020017f198e9393920d483a7260bfb731fb5d25f1aa493335a9e71297e485b7aef312c281526020017f1800deef121f1e76426a00665e5c4479674322d4f75edadd46debd5cd992f6ed81526020017f275dc4a288d1afb3cbb1ac09187524c7db36395df7be3b99e673b13a075a65ec81526020017f1d9befcd05a5323e6da4d435f3b617cdb3af83285c2df711ef39c01571827f9d81526020018560006002811061130157611300613fde565b5b602002015181526020018560016002811061131f5761131e613fde565b5b602002015181526020018660016004811061133d5761133c613fde565b5b602002015181526020018660006004811061135b5761135a613fde565b5b602002015181526020018660036004811061137957611378613fde565b5b602002015181526020018660026004811061139757611396613fde565b5b602002015181525090506113a9613595565b6020816101808460086107d05a03fa92506000816000600181106113d0576113cf613fde565b5b6020020151141593505050935093915050565b6000808290506005600d6113f79190614848565b81511461140857600091505061180c565b60006040518060400160405280600d81526020017f6469643a626c6f636b6132613a00000000000000000000000000000000000000815250905060005b600d8110156114ec5781818151811061146157611460613fde565b5b602001015160f81c60f81b7effffffffffffffffffffffffffffffffffffffffffffffffffffffffffffff19168382815181106114a1576114a0613fde565b5b602001015160f81c60f81b7effffffffffffffffffffffffffffffffffffffffffffffffffffffffffffff1916146114df576000935050505061180c565b8080600101915050611445565b506000600d90505b6005600d6115029190614848565b81101561180457600083828151811061151e5761151d613fde565b5b602001015160f81c60f81b90507f300000000000000000000000000000000000000000000000000000000000000060f81c60f81b7effffffffffffffffffffffffffffffffffffffffffffffffffffffffffffff1916817effffffffffffffffffffffffffffffffffffffffffffffffffffffffffffff19161015801561160f57507f390000000000000000000000000000000000000000000000000000000000000060f81c60f81b7effffffffffffffffffffffffffffffffffffffffffffffffffffffffffffff1916817effffffffffffffffffffffffffffffffffffffffffffffffffffffffffffff191611155b806116fa57507f610000000000000000000000000000000000000000000000000000000000000060f81c60f81b7effffffffffffffffffffffffffffffffffffffffffffffffffffffffffffff1916817effffffffffffffffffffffffffffffffffffffffffffffffffffffffffffff1916101580156116f957507f660000000000000000000000000000000000000000000000000000000000000060f81c60f81b7effffffffffffffffffffffffffffffffffffffffffffffffffffffffffffff1916817effffffffffffffffffffffffffffffffffffffffffffffffffffffffffffff191611155b5b806117e557507f410000000000000000000000000000000000000000000000000000000000000060f81c60f81b7effffffffffffffffffffffffffffffffffffffffffffffffffffffffffffff1916817effffffffffffffffffffffffffffffffffffffffffffffffffffffffffffff1916101580156117e457507f460000000000000000000000000000000000000000000000000000000000000060f81c60f81b7effffffffffffffffffffffffffffffffffffffffffffffffffffffffffffff1916817effffffffffffffffffffffffffffffffffffffffffffffffffffffffffffff191611155b5b6117f657600094505050505061180c565b5080806001019150506114f4565b506001925050505b919050565b611819613573565b6000611825848461209d565b90506000806000806018850177ffffffffffffffffffffffffffffffffffffffffffffffff815116935060308601905077ffffffffffffffffffffffffffffffffffffffffffffffff81511694507f30644e72e131a029b85045b68181585d97816a916871ca8d3c208c16d87cfd47857f30644e72e131a029b85045b68181585d97816a916871ca8d3c208c16d87cfd477801000000000000000000000000000000000000000000000000870908925060488601905077ffffffffffffffffffffffffffffffffffffffffffffffff815116935060608601905077ffffffffffffffffffffffffffffffffffffffffffffffff81511694507f30644e72e131a029b85045b68181585d97816a916871ca8d3c208c16d87cfd47857f30644e72e131a029b85045b68181585d97816a916871ca8d3c208c16d87cfd4778010000000000000000000000000000000000000000000000008709089150506040518060400160405280838152602001828152509550505050505092915050565b6119aa613573565b7f30644e72e131a029b85045b68181585d97816a916871ca8d3c208c16d87cfd478210611a0e57816040517fd53e9415000000000000000000000000000000000000000000000000000000008152600401611a059190613d28565b60405180910390fd5b60007f30644e72e131a029b85045b68181585d97816a916871ca8d3c208c16d87cfd4780611a3f57611a3e61487c565b5b60047f30644e72e131a029b85045b68181585d97816a916871ca8d3c208c16d87cfd4780611a7057611a6f61487c565b5b85860909905060007f30644e72e131a029b85045b68181585d97816a916871ca8d3c208c16d87cfd4780611aa757611aa661487c565b5b8260010890507f30644e72e131a029b85045b68181585d97816a916871ca8d3c208c16d87cfd4780611adc57611adb61487c565b5b827f30644e72e131a029b85045b68181585d97816a916871ca8d3c208c16d87cfd47611b0891906148ab565b60010891506000611b497f30644e72e131a029b85045b68181585d97816a916871ca8d3c208c16d87cfd4780611b4157611b4061487c565b5b83850961229f565b905060007f30644e72e131a029b85045b68181585d97816a916871ca8d3c208c16d87cfd4780611b7c57611b7b61487c565b5b78016789af3a83522eb353c98fc6b36d713d5d8d1cc5dffffffa7f30644e72e131a029b85045b68181585d97816a916871ca8d3c208c16d87cfd4780611bc557611bc461487c565b5b847f30644e72e131a029b85045b68181585d97816a916871ca8d3c208c16d87cfd4780611bf557611bf461487c565b5b888b090909905060007f30644e72e131a029b85045b68181585d97816a916871ca8d3c208c16d87cfd4780611c2d57611c2c61487c565b5b827f30644e72e131a029b85045b68181585d97816a916871ca8d3c208c16d87cfd47611c5991906148ab565b7f183227397098d014dc2822db40c0ac2ecbc0b548b438e5469e10460b6c3e7ea308905060007f30644e72e131a029b85045b68181585d97816a916871ca8d3c208c16d87cfd4780611cae57611cad61487c565b5b837f183227397098d014dc2822db40c0ac2ecbc0b548b438e5469e10460b6c3e7ea308905060007f30644e72e131a029b85045b68181585d97816a916871ca8d3c208c16d87cfd4780611d0457611d0361487c565b5b868709905060007f30644e72e131a029b85045b68181585d97816a916871ca8d3c208c16d87cfd4780611d3a57611d3961487c565b5b868309905060007f30644e72e131a029b85045b68181585d97816a916871ca8d3c208c16d87cfd4780611d7057611d6f61487c565b5b7f30644e72e131a029b85045b68181585d97816a916871ca8d3c208c16d87cfd4780611d9f57611d9e61487c565b5b7f30644e72e131a029b85045b68181585d97816a916871ca8d3c208c16d87cfd4780611dce57611dcd61487c565b5b8485097f10216f7ba065e00de81ac1e7808072c9dd2b2385cd7b438469602eb24829a9bd0960010890506000806001611e0e611e09896122b1565b61234f565b60000b03611eb057868c600060028110611e2b57611e2a613fde565b5b602002018181525050611e3d876122b1565b9050611e4881612417565b8d600160028110611e5c57611e5b613fde565b5b6020020181945082815250505081611eab57806040517f396ec771000000000000000000000000000000000000000000000000000000008152600401611ea29190613d28565b60405180910390fd5b611ffc565b6001611ec3611ebe886122b1565b61234f565b60000b03611f6557858c600060028110611ee057611edf613fde565b5b602002018181525050611ef2866122b1565b9050611efd81612417565b8d600160028110611f1157611f10613fde565b5b6020020181945082815250505081611f6057806040517f396ec771000000000000000000000000000000000000000000000000000000008152600401611f579190613d28565b60405180910390fd5b611ffb565b828c600060028110611f7a57611f79613fde565b5b602002018181525050611f8c836122b1565b9050611f9781612417565b8d600160028110611fab57611faa613fde565b5b6020020181945082815250505081611ffa57806040517f396ec771000000000000000000000000000000000000000000000000000000008152600401611ff19190613d28565b60405180910390fd5b5b5b61201d8c60016002811061201357612012613fde565b5b6020020151612460565b6120268e612460565b1461208d578b60016002811061203f5761203e613fde565b5b60200201517f30644e72e131a029b85045b68181585d97816a916871ca8d3c208c16d87cfd4761206f91906148ab565b8c60016002811061208357612082613fde565b5b6020020181815250505b5050505050505050505050919050565b606060008351905060ff8111156120eb57836040517f26e4f9ba0000000000000000000000000000000000000000000000000000000081526004016120e29190614934565b60405180910390fd5b6000608867ffffffffffffffff81111561210857612107613603565b5b6040519080825280601f01601f19166020018201604052801561213a5781602001600182028036833780820191505090505b509050600081856000606060008a8860405160200161215f97969594939291906149c8565b6040516020818303038152906040529050600081805190602001209050600081600189876040516020016121969493929190614a3d565b60405160208183030381529060405290506000818051906020012090506000606067ffffffffffffffff8111156121d0576121cf613603565b5b6040519080825280601f01601f1916602001820160405280156122025781602001600182028036833780820191505090505b5090506000600390506000600190505b8181101561227a5783861881600161222a9190614848565b8d8b60405160200161223f9493929190614a3d565b604051602081830303815290604052945082602001600182036020028101905084815250848051906020012093508080600101915050612212565b5081602001600182036020028101905083815250819850505050505050505092915050565b60006122aa82612476565b9050919050565b60007f30644e72e131a029b85045b68181585d97816a916871ca8d3c208c16d87cfd47806122e2576122e161487c565b5b60037f30644e72e131a029b85045b68181585d97816a916871ca8d3c208c16d87cfd47806123135761231261487c565b5b847f30644e72e131a029b85045b68181585d97816a916871ca8d3c208c16d87cfd47806123435761234261487c565b5b86870909089050919050565b60008061235b83612bd0565b905060017f30644e72e131a029b85045b68181585d97816a916871ca8d3c208c16d87cfd4761238a91906148ab565b81036123b9577fffffffffffffffffffffffffffffffffffffffffffffffffffffffffffffffff915050612412565b600081141580156123cb575060018114155b1561240d57826040517f396ec7710000000000000000000000000000000000000000000000000000000081526004016124049190613d28565b60405180910390fd5b809150505b919050565b60008061242383612d3f565b9150827f30644e72e131a029b85045b68181585d97816a916871ca8d3c208c16d87cfd47806124555761245461487c565b5b838409149050915091565b600060028261246f9190614a87565b9050919050565b60007f30644e72e131a029b85045b68181585d97816a916871ca8d3c208c16d87cfd478083840991508083830981838209828283098385830984848309858484098684850997508684840987858409945087898a09985087898a09985087898a09985087898a09985087898a09985087878a09985087898a09985087898a09985087898a099850878a8a09985087898a09985087898a09985087898a09985087898a099850878a8a09985087898a09985087898a09985087898a09985087898a09985087898a09985087848a09985087898a09985087898a09985087898a09985087898a09985087898a09985087848a09985087898a09985087898a09985087898a099850878a8a09985087898a09985087898a09985087898a09985087898a09985087848a09985087898a09985087898a09985087898a09985087898a09985087898a099850878a8a09985087898a09985087898a09985087898a09985087898a09985087878a09985087898a09985087898a09985087898a09985087898a09985087898a09985087898a09985087898a09985087818a09985087898a09985087898a09985087898a09985087898a09985087898a09985087898a09985087898a09985087898a09985087898a09985087898a09985087868a09985087898a09985087898a09985087898a09985087898a09985087878a09985087898a09985087898a09985087898a09985087898a09985087848a09985087898a09985087898a09985087898a09985087898a09985087898a09985087898a09985087898a09985087868a09985087898a09985087898a09985087898a09985087898a09985087898a09985087898a099850878a8a09985087898a09985087898a09985087898a09985087898a09985087898a09985087898a09985087898a09985087828a09985087898a09985087898a09985087898a09985087898a09985087898a09985087818a09985087898a09985087898a09985087898a09985087868a09985087898a09985087898a09985087898a09985087898a09985087898a09985087898a09985087898a09985087898a09985087878a09985087898a09985087898a09985087898a09985087898a09985087898a09985087898a09985087898a09985087898a09985087898a09985087868a09985087898a09985087898a09985087898a09985087878a09985087898a09985087898a09985087898a09985087898a09985087898a09985087898a09985087898a09985087898a09985087828a09985087898a09985087898a09985087898a09985087898a09985087828a09985087898a09985087898a09985087898a09985087898a09985087898a09985087868a09985087898a09985087898a09985087898a09985087848a09985087898a09985087898a09985087898a09985087898a09985087898a09985087898a09985087898a09985087898a09985087898a09985087898a09985087828a09985087898a09985087898a09985087898a09985087898a09985087868a09985087898a09985087898a09985087898a09985087898a09985087898a09985087838a09985087898a09985087898a09985087898a09985087898a09985087898a09985087898a09985087898a09985087828a09985087898a09985087898a099850878a8a09985087898a09985087898a09985087898a09985087898a09985087898a09985087898a09985087898a09985087848a09985087898a09985087898a09985087898a09985087898a09985087898a09985087898a09985087848a09985087898a09985087898a09985087898a09985087898a09985087898a09985087868a09985087898a09985087898a099850878a8a09985087898a09985087898a09985087898a09985087898a09985087898a09985087898a09985087898a09985087818a09985087898a09985087898a09985087898a09985087898a09985087898a09985087898a09985087858a09985087898a09985087898a09985087898a09985087898a09985087898a099850878a8a09985087898a09985087898a09985087898a09985087898a09985087898a09985087898a099850878a8a09985087898a09985087898a09985087898a09985087898a09985087898a09985087878a09985087898a09985087898a09985087898a09985087898a09985087898a09985087898a09985087898a09985087898a09985087898a09985087828a09985087898a09985087898a09985087898a09985087878a09985087898a09985087898a09985087898a09985087878a09985087898a09985087898a09985087898a09985087898a09985087898a09985087898a09985087898a09985087898a09985087858a09985087898a09985087898a09985087898a09985087898a09985087838a09985087898a09985087898a09985087898a09985087898a09985087858a09985087898a09985087898a09985087898a09985087868a09985087898a09985087898a099850878a8a09985087898a09985087898a09985087898a09985087898a09985087898a09985087898a09985087868a0998505050505050505050919050565b60008060c067ffffffffffffffff811115612bee57612bed613603565b5b6040519080825280601f01601f191660200182016040528015612c205781602001600182028036833780820191505090505b5090506000602082016020815260208101905060208152602081019050602081526020810190508481526020810190507f183227397098d014dc2822db40c0ac2ecbc0b548b438e5469e10460b6c3e7ea381526020810190507f30644e72e131a029b85045b68181585d97816a916871ca8d3c208c16d87cfd4781526020600060c06020860160055afa915060005193505080612d3857837f183227397098d014dc2822db40c0ac2ecbc0b548b438e5469e10460b6c3e7ea37f30644e72e131a029b85045b68181585d97816a916871ca8d3c208c16d87cfd476040517fc6daf7ab000000000000000000000000000000000000000000000000000000008152600401612d2f93929190614ab8565b60405180910390fd5b5050919050565b60007f30644e72e131a029b85045b68181585d97816a916871ca8d3c208c16d87cfd478083840991508083830981838209828283098385830984848309858484098684850997508684840987858409945087898a09985087898a09985087898a09985087898a09985087898a09985087878a09985087898a09985087898a09985087898a099850878a8a09985087898a09985087898a09985087898a09985087898a099850878a8a09985087898a09985087898a09985087898a09985087898a09985087898a09985087848a09985087898a09985087898a09985087898a09985087898a09985087898a09985087848a09985087898a09985087898a09985087898a099850878a8a09985087898a09985087898a09985087898a09985087898a09985087848a09985087898a09985087898a09985087898a09985087898a09985087898a099850878a8a09985087898a09985087898a09985087898a09985087898a09985087878a09985087898a09985087898a09985087898a09985087898a09985087898a09985087898a09985087898a09985087818a09985087898a09985087898a09985087898a09985087898a09985087898a09985087898a09985087898a09985087898a09985087898a09985087898a09985087868a09985087898a09985087898a09985087898a09985087898a09985087878a09985087898a09985087898a09985087898a09985087898a09985087848a09985087898a09985087898a09985087898a09985087898a09985087898a09985087898a09985087898a09985087868a09985087898a09985087898a09985087898a09985087898a09985087898a09985087898a099850878a8a09985087898a09985087898a09985087898a09985087898a09985087898a09985087898a09985087898a09985087828a09985087898a09985087898a09985087898a09985087898a09985087898a09985087818a09985087898a09985087898a09985087898a09985087868a09985087898a09985087898a09985087898a09985087898a09985087898a09985087898a09985087898a09985087898a09985087878a09985087898a09985087898a09985087898a09985087898a09985087898a09985087898a09985087898a09985087898a09985087898a09985087868a09985087898a09985087898a09985087898a09985087878a09985087898a09985087898a09985087898a09985087898a09985087898a09985087898a09985087898a09985087898a09985087828a09985087898a09985087898a09985087898a09985087898a09985087828a09985087898a09985087898a09985087898a09985087898a09985087898a09985087868a09985087898a09985087898a09985087898a09985087848a09985087898a09985087898a09985087898a09985087898a09985087898a09985087898a09985087898a09985087898a09985087898a09985087898a09985087828a09985087898a09985087898a09985087898a09985087898a09985087868a09985087898a09985087898a09985087898a09985087898a09985087898a09985087838a09985087898a09985087898a09985087898a09985087898a09985087898a09985087898a09985087898a09985087828a09985087898a09985087898a099850878a8a09985087898a09985087898a09985087898a09985087898a09985087898a09985087898a09985087898a09985087848a09985087898a09985087898a09985087898a09985087898a09985087898a09985087898a09985087848a09985087898a09985087898a09985087898a09985087898a09985087898a09985087868a09985087898a09985087898a099850878a8a09985087898a09985087898a09985087898a09985087898a09985087898a09985087898a09985087898a09985087818a09985087898a09985087898a09985087898a09985087898a09985087898a09985087898a09985087858a09985087898a09985087898a09985087898a09985087898a09985087898a099850878a8a09985087898a09985087898a09985087898a09985087898a09985087898a09985087898a099850878a8a09985087898a09985087898a09985087898a09985087898a09985087898a09985087878a09985087898a09985087898a09985087898a09985087898a09985087898a09985087898a09985087898a09985087898a09985087898a09985087828a09985087898a09985087898a09985087898a09985087878a09985087898a09985087898a09985087898a09985087878a09985087898a09985087898a09985087898a09985087898a09985087898a09985087898a09985087898a09985087898a09985087858a09985087898a09985087898a09985087898a09985087898a09985087838a09985087898a09985087898a09985087898a09985087898a09985087858a09985087898a09985087898a09985087898a09985087868a09985087898a09985087898a09985087898a09985087898a09985087898a09985087838a09985087898a0998505050505050505050919050565b6040518060800160405280600490602082028036833780820191505090505090565b82600481019282156134d8579160200282015b828111156134d75782518255916020019190600101906134bc565b5b5090506134e591906135b7565b5090565b828054828255906000526020600020908101928215613562579160200282015b828111156135615782518260006101000a81548173ffffffffffffffffffffffffffffffffffffffff021916908373ffffffffffffffffffffffffffffffffffffffff16021790555091602001919060010190613509565b5b50905061356f91906135b7565b5090565b6040518060400160405280600290602082028036833780820191505090505090565b6040518060200160405280600190602082028036833780820191505090505090565b5b808211156135d05760008160009055506001016135b8565b5090565b6000604051905090565b600080fd5b600080fd5b600080fd5b600080fd5b6000601f19601f8301169050919050565b7f4e487b7100000000000000000000000000000000000000000000000000000000600052604160045260246000fd5b61363b826135f2565b810181811067ffffffffffffffff8211171561365a57613659613603565b5b80604052505050565b600061366d6135d4565b90506136798282613632565b919050565b600067ffffffffffffffff82111561369957613698613603565b5b6136a2826135f2565b9050602081019050919050565b82818337600083830152505050565b60006136d16136cc8461367e565b613663565b9050828152602081018484840111156136ed576136ec6135ed565b5b6136f88482856136af565b509392505050565b600082601f830112613715576137146135e8565b5b81356137258482602086016136be565b91505092915050565b6000819050919050565b6137418161372e565b811461374c57600080fd5b50565b60008135905061375e81613738565b92915050565b600067ffffffffffffffff82111561377f5761377e613603565b5b602082029050919050565b600080fd5b6000819050919050565b6137a28161378f565b81146137ad57600080fd5b50565b6000813590506137bf81613799565b92915050565b60006137d86137d384613764565b613663565b905080602084028301858111156137f2576137f161378a565b5b835b8181101561381b578061380788826137b0565b8452602084019350506020810190506137f4565b5050509392505050565b600082601f83011261383a576138396135e8565b5b60026138478482856137c5565b91505092915050565b60008060008060a0858703121561386a576138696135de565b5b600085013567ffffffffffffffff811115613888576138876135e3565b5b61389487828801613700565b94505060206138a58782880161374f565b93505060406138b687828801613825565b92505060806138c7878288016137b0565b91505092959194509250565b60008115159050919050565b6138e8816138d3565b82525050565b600060208201905061390360008301846138df565b92915050565b60006020828403121561391f5761391e6135de565b5b600082013567ffffffffffffffff81111561393d5761393c6135e3565b5b61394984828501613700565b91505092915050565b61395b8161372e565b82525050565b60006020820190506139766000830184613952565b92915050565b600067ffffffffffffffff82111561399757613996613603565b5b602082029050602081019050919050565b600073ffffffffffffffffffffffffffffffffffffffff82169050919050565b60006139d3826139a8565b9050919050565b6139e3816139c8565b81146139ee57600080fd5b50565b600081359050613a00816139da565b92915050565b6000613a19613a148461397c565b613663565b90508083825260208201905060208402830185811115613a3c57613a3b61378a565b5b835b81811015613a655780613a5188826139f1565b845260208401935050602081019050613a3e565b5050509392505050565b600082601f830112613a8457613a836135e8565b5b8135613a94848260208601613a06565b91505092915050565b600067ffffffffffffffff821115613ab857613ab7613603565b5b602082029050602081019050919050565b600067ffffffffffffffff821115613ae457613ae3613603565b5b602082029050919050565b6000613b02613afd84613ac9565b613663565b90508060208402830185811115613b1c57613b1b61378a565b5b835b81811015613b455780613b3188826137b0565b845260208401935050602081019050613b1e565b5050509392505050565b600082601f830112613b6457613b636135e8565b5b6004613b71848285613aef565b91505092915050565b6000613b8d613b8884613a9d565b613663565b90508083825260208201905060808402830185811115613bb057613baf61378a565b5b835b81811015613bd95780613bc58882613b4f565b845260208401935050608081019050613bb2565b5050509392505050565b600082601f830112613bf857613bf76135e8565b5b8135613c08848260208601613b7a565b91505092915050565b600060ff82169050919050565b613c2781613c11565b8114613c3257600080fd5b50565b600081359050613c4481613c1e565b92915050565b600080600080600060a08688031215613c6657613c656135de565b5b600086013567ffffffffffffffff811115613c8457613c836135e3565b5b613c9088828901613700565b9550506020613ca18882890161374f565b945050604086013567ffffffffffffffff811115613cc257613cc16135e3565b5b613cce88828901613a6f565b935050606086013567ffffffffffffffff811115613cef57613cee6135e3565b5b613cfb88828901613be3565b9250506080613d0c88828901613c35565b9150509295509295909350565b613d228161378f565b82525050565b6000602082019050613d3d6000830184613d19565b92915050565b600080600060808486031215613d5c57613d5b6135de565b5b600084013567ffffffffffffffff811115613d7a57613d796135e3565b5b613d8686828701613700565b9350506020613d9786828701613825565b9250506060613da8868287016137b0565b9150509250925092565b600081519050919050565b600081905092915050565b60005b83811015613de6578082015181840152602081019050613dcb565b60008484015250505050565b6000613dfd82613db2565b613e078185613dbd565b9350613e17818560208601613dc8565b80840191505092915050565b6000613e2f8284613df2565b915081905092915050565b600082825260208201905092915050565b7f4147433a20444944206e6f742072656769737465726564000000000000000000600082015250565b6000613e81601783613e3a565b9150613e8c82613e4b565b602082019050919050565b60006020820190508181036000830152613eb081613e74565b9050919050565b7f4e487b7100000000000000000000000000000000000000000000000000000000600052602160045260246000fd5b7f4147433a20444944206e6f742061637469766500000000000000000000000000600082015250565b6000613f1c601383613e3a565b9150613f2782613ee6565b602082019050919050565b60006020820190508181036000830152613f4b81613f0f565b9050919050565b6000819050919050565b613f6d613f688261372e565b613f52565b82525050565b6000819050919050565b613f8e613f898261378f565b613f73565b82525050565b6000613fa08287613f5c565b602082019150613fb08286613df2565b9150613fbc8285613f5c565b602082019150613fcc8284613f7d565b60208201915081905095945050505050565b7f4e487b7100000000000000000000000000000000000000000000000000000000600052603260045260246000fd5b7f4e487b7100000000000000000000000000000000000000000000000000000000600052601160045260246000fd5b60006140478261378f565b91507fffffffffffffffffffffffffffffffffffffffffffffffffffffffffffffffff82036140795761407861400d565b5b600182019050919050565b7f4147433a206e6f7420656e6f756768207369676e657273000000000000000000600082015250565b60006140ba601783613e3a565b91506140c582614084565b602082019050919050565b600060208201905081810360008301526140e9816140ad565b9050919050565b7f4147433a206167672d73696720766572696679206661696c0000000000000000600082015250565b6000614126601883613e3a565b9150614131826140f0565b602082019050919050565b6000602082019050818103600083015261415581614119565b9050919050565b7f4147433a20436f6e74726f6c6c657273206c6973742063616e6e6f742062652060008201527f656d707479000000000000000000000000000000000000000000000000000000602082015250565b60006141b8602583613e3a565b91506141c38261415c565b604082019050919050565b600060208201905081810360008301526141e7816141ab565b9050919050565b7f4147433a20496e76616c6964207265717569726564207369676e61747572657360008201527f20636f756e740000000000000000000000000000000000000000000000000000602082015250565b600061424a602683613e3a565b9150614255826141ee565b604082019050919050565b600060208201905081810360008301526142798161423d565b9050919050565b7f4147433a2044494420616c726561647920726567697374657265640000000000600082015250565b60006142b6601b83613e3a565b91506142c182614280565b602082019050919050565b600060208201905081810360008301526142e5816142a9565b9050919050565b7f4147433a207075626b6579206c656e677468206d69736d617463680000000000600082015250565b6000614322601b83613e3a565b915061432d826142ec565b602082019050919050565b6000602082019050818103600083015261435181614315565b9050919050565b7f4e487b7100000000000000000000000000000000000000000000000000000000600052602260045260246000fd5b6000600282049050600182168061439f57607f821691505b6020821081036143b2576143b1614358565b5b50919050565b60008190508160005260206000209050919050565b60006020601f8301049050919050565b600082821b905092915050565b60006008830261441a7fffffffffffffffffffffffffffffffffffffffffffffffffffffffffffffffff826143dd565b61442486836143dd565b95508019841693508086168417925050509392505050565b6000819050919050565b600061446161445c6144578461378f565b61443c565b61378f565b9050919050565b6000819050919050565b61447b83614446565b61448f61448782614468565b8484546143ea565b825550505050565b600090565b6144a4614497565b6144af818484614472565b505050565b5b818110156144d3576144c860008261449c565b6001810190506144b5565b5050565b601f821115614518576144e9816143b8565b6144f2846143cd565b81016020851015614501578190505b61451561450d856143cd565b8301826144b4565b50505b505050565b600082821c905092915050565b600061453b6000198460080261451d565b1980831691505092915050565b6000614554838361452a565b9150826002028217905092915050565b61456d82613db2565b67ffffffffffffffff81111561458657614585613603565b5b6145908254614387565b61459b8282856144d7565b600060209050601f8311600181146145ce57600084156145bc578287015190505b6145c68582614548565b86555061462e565b601f1984166145dc866143b8565b60005b82811015614604578489015182556001820191506020850194506020810190506145df565b86831015614621578489015161461d601f89168261452a565b8355505b6001600288020188555050505b505050505050565b600081519050919050565b600082825260208201905092915050565b6000819050602082019050919050565b61466b816139c8565b82525050565b600061467d8383614662565b60208301905092915050565b6000602082019050919050565b60006146a182614636565b6146ab8185614641565b93506146b683614652565b8060005b838110156146e75781516146ce8882614671565b97506146d983614689565b9250506001810190506146ba565b5085935050505092915050565b6000602082019050818103600083015261470e8184614696565b905092915050565b600060049050919050565b600081905092915050565b6000819050919050565b61473f8161378f565b82525050565b60006147518383614736565b60208301905092915050565b6000602082019050919050565b61477381614716565b61477d8184614721565b92506147888261472c565b8060005b838110156147b95781516147a08782614745565b96506147ab8361475d565b92505060018101905061478c565b505050505050565b60006080820190506147d6600083018461476a565b92915050565b7f424c533a20473220616464206661696c65640000000000000000000000000000600082015250565b6000614812601283613e3a565b915061481d826147dc565b602082019050919050565b6000602082019050818103600083015261484181614805565b9050919050565b60006148538261378f565b915061485e8361378f565b92508282019050808211156148765761487561400d565b5b92915050565b7f4e487b7100000000000000000000000000000000000000000000000000000000600052601260045260246000fd5b60006148b68261378f565b91506148c18361378f565b92508282039050818111156148d9576148d861400d565b5b92915050565b600081519050919050565b600082825260208201905092915050565b6000614906826148df565b61491081856148ea565b9350614920818560208601613dc8565b614929816135f2565b840191505092915050565b6000602082019050818103600083015261494e81846148fb565b905092915050565b600081905092915050565b600061496c826148df565b6149768185614956565b9350614986818560208601613dc8565b80840191505092915050565b60008160f81b9050919050565b60006149aa82614992565b9050919050565b6149c26149bd82613c11565b61499f565b82525050565b60006149d4828a614961565b91506149e08289614961565b91506149ec82886149b1565b6001820191506149fc82876149b1565b600182019150614a0c82866149b1565b600182019150614a1c8285614961565b9150614a2882846149b1565b60018201915081905098975050505050505050565b6000614a498287613f5c565b602082019150614a5982866149b1565b600182019150614a698285614961565b9150614a7582846149b1565b60018201915081905095945050505050565b6000614a928261378f565b9150614a9d8361378f565b925082614aad57614aac61487c565b5b828206905092915050565b6000606082019050614acd6000830186613d19565b614ada6020830185613d19565b614ae76040830184613d19565b94935050505056fea26469706673582212202ca4a67ab13543ea79356acf1afd13928ac7c0b3e1faa05b85d30b7c7310ba6d64736f6c634300081c0033",
  "linkReferences": {},
  "deployedLinkReferences": {}
}