{
  "_format": "hh-sol-artifact-1",
  "contractName": "DIDAttributePolicyLogic",
  "sourceName": "contracts/lib/DIDAttributePolicyLogic.sol",
  "abi": [
    {
      "inputs": [
        {
          "components": [
            {
              "internalType": "string",
              "name": "name",
              "type": "string"
            },
            {
              "internalType": "string[]",
              "name": "values",
              "type": "string[]"
            }
          ],
          "internalType": "struct DIDAttributePolicyLogic.Attribute[]",
          "name": "context",
          "type": "tuple[]"
        },
        {
          "components": [
            {
              "internalType": "string",
              "name": "attributeName",
              "type": "string"
            },
            {
              "internalType": "string",
              "name": "expectedValue",
              "type": "string"
            }
          ],
          "internalType": "struct DIDAttributePolicyLogic.AttributeRequirement",
          "name": "requirement",
          "type": "tuple"
        }
      ],
      "name": "evaluate",
      "outputs": [
        {
          "internalType": "bool",
          "name": "granted",
          "type": "bool"
        }
      ],
      "stateMutability": "pure",
      "type": "function"
    }
  ],
  "bytecode": "0x6080806040523461001a576103809081610020823930815050f35b600080fdfe6080604052600436101561001257600080fd5b6000803560e01c630552ef921461002857600080fd5b7ffffffffffffffffffffffffffffffffffffffffffffffffffffffffffffffffc6040813601126100c5576004359167ffffffffffffffff908184116100c257366023850112156100c2578360040135928284116100c5573660248560051b870101116100c5576024359283116100c55760409083360301126100c25760206100b860048401856024880161022e565b6040519015158152f35b80fd5b5080fd5b919081101561010e5760051b810135907fffffffffffffffffffffffffffffffffffffffffffffffffffffffffffffffc181360301821215610109570190565b600080fd5b7f4e487b7100000000000000000000000000000000000000000000000000000000600052603260045260246000fd5b9035907fffffffffffffffffffffffffffffffffffffffffffffffffffffffffffffffe181360301821215610109570180359067ffffffffffffffff82116101095760200191813603831361010957565b92919267ffffffffffffffff918281116101ff5760405192601f82017fffffffffffffffffffffffffffffffffffffffffffffffffffffffffffffffe0908116603f01168401908111848210176101ff57604052829481845281830111610109578281602093846000960137010152565b7f4e487b7100000000000000000000000000000000000000000000000000000000600052604160045260246000fd5b909160005b8381106102435750505050600090565b61026161025a6102548387876100c9565b8061013d565b369161018e565b805160208092012061027661025a858061013d565b8281519101201461028b575b50600101610233565b6102968286866100c9565b81810135907fffffffffffffffffffffffffffffffffffffffffffffffffffffffffffffffe18136030182121561010957019081359167ffffffffffffffff83116101095781810190600584811b360383136101095760005b858110610300575050505050610282565b61031361025a8683851b8601018661013d565b85815191012061032861025a878b018b61013d565b8681519101201461033b576001016102ef565b5050505050505050505060019056fea2646970667358221220b48f4b7c29735be49e2de4c5b73b5ad9be08ab2b136677a157e645d71da1309464736f6c63430008180033",
  "linkReferences": {},
  "deployedLinkReferences": {}
}