{
  "_format": "hh-sol-artifact-1",
  "contractName": "DIDAttributePolicyLogic",
  "sourceName": "contracts/lib/DIDAttributePolicyLogic.sol",
  "abi": [
    {
      "inputs": [
        {
          "components": [
            {
              "internalType": "string",
              "name": "name",
              "type": "string"
            },
            {
              "internalType": "string[]",
              "name": "values",
              "type": "string[]"
            }
          ],
          "internalType": "struct DIDAttributePolicyLogic.Attribute[]",
          "name": "context",
          "type": "tuple[]"
        },
        {
          "components": [
            {
              "internalType": "string",
              "name": "attributeName",
              "type": "string"
            },
            {
              "internalType": "string",
              "name": "expectedValue",
              "type": "string"
            }
          ],
          "internalType": "struct DIDAttributePolicyLogic.AttributeRequirement",
          "name": "requirement",
          "type": "tuple"
        }
      ],
      "name": "evaluate",
      "outputs": [
        {
          "internalType": "bool",
          "name": "granted",
          "type": "bool"
        }
      ],
      "stateMutability": "pure",
      "type": "function"
    }
  ],
  "bytecode": "0x6104d8610052600b82828239805160001a6073146045577f4e487b7100000000000000000000000000000000000000000000000000000000600052600060045260246000fd5b30600052607381538281f3fe73000000000000000000000000000000000000000030146080604052600436106100355760003560e01c80630552ef921461003a575b600080fd5b610054600480360381019061004f919061026c565b61006a565b6040516100619190610303565b60405180910390f35b600080600090505b848490508110156101cc5782806000019061008d919061032d565b60405161009b9291906103cf565b60405180910390208585838181106100b6576100b56103e8565b5b90506020028101906100c89190610417565b80600001906100d7919061032d565b6040516100e59291906103cf565b6040518091039020036101bf57366000868684818110610108576101076103e8565b5b905060200281019061011a9190610417565b8060200190610129919061043f565b9150915060005b828290508110156101bb5785806020019061014b919061032d565b6040516101599291906103cf565b6040518091039020838383818110610174576101736103e8565b5b9050602002810190610186919061032d565b6040516101949291906103cf565b6040518091039020036101ae5760019450505050506101d2565b8080600101915050610130565b5050505b8080600101915050610072565b50600090505b9392505050565b600080fd5b600080fd5b600080fd5b600080fd5b600080fd5b60008083601f840112610208576102076101e3565b5b8235905067ffffffffffffffff811115610225576102246101e8565b5b602083019150836020820283011115610241576102406101ed565b5b9250929050565b600080fd5b60006040828403121561026357610262610248565b5b81905092915050565b600080600060408486031215610285576102846101d9565b5b600084013567ffffffffffffffff8111156102a3576102a26101de565b5b6102af868287016101f2565b9350935050602084013567ffffffffffffffff8111156102d2576102d16101de565b5b6102de8682870161024d565b9150509250925092565b60008115159050919050565b6102fd816102e8565b82525050565b600060208201905061031860008301846102f4565b92915050565b600080fd5b600080fd5b600080fd5b6000808335600160200384360303811261034a5761034961031e565b5b80840192508235915067ffffffffffffffff82111561036c5761036b610323565b5b60208301925060018202360383131561038857610387610328565b5b509250929050565b600081905092915050565b82818337600083830152505050565b60006103b68385610390565b93506103c383858461039b565b82840190509392505050565b60006103dc8284866103aa565b91508190509392505050565b7f4e487b7100000000000000000000000000000000000000000000000000000000600052603260045260246000fd5b6000823560016040038336030381126104335761043261031e565b5b80830191505092915050565b6000808335600160200384360303811261045c5761045b61031e565b5b80840192508235915067ffffffffffffffff82111561047e5761047d610323565b5b60208301925060208202360383131561049a57610499610328565b5b50925092905056fea26469706673582212204d5a6f5c2acbe8c3e7e6188f181bb53ce1a79520c926d1022f0d6ef7d15823ca64736f6c634300081c0033",
  "linkReferences": {},
  "deployedLinkReferences": {}
}