{
  "_format": "hh-sol-artifact-1",
  "contractName": "InteractionLogicContract",
  "sourceName": "contracts/main/InteractionLogicContract.sol",
  "abi": [
    {
      "inputs": [
        {
          "internalType": "address[]",
          "name": "_ctrls",
          "type": "address[]"
        },
        {
          "internalType": "uint256[4][]",
          "name": "_blsPks",
          "type": "uint256[4][]"
        },
        {
          "internalType": "uint8",
          "name": "_k",
          "type": "uint8"
        }
      ],
      "stateMutability": "nonpayable",
      "type": "constructor"
    },
    {
      "inputs": [
        {
          "internalType": "uint256[4]",
          "name": "input",
          "type": "uint256[4]"
        }
      ],
      "name": "BNAddFailed",
      "type": "error"
    },
    {
      "inputs": [
        {
          "internalType": "bytes",
          "name": "dst",
          "type": "bytes"
        }
      ],
      "name": "InvalidDSTLength",
      "type": "error"
    },
    {
      "inputs": [
        {
          "internalType": "uint256",
          "name": "x",
          "type": "uint256"
        }
      ],
      "name": "InvalidFieldElement",
      "type": "error"
    },
    {
      "inputs": [
        {
          "internalType": "uint256",
          "name": "noSqrt",
          "type": "uint256"
        }
      ],
      "name": "MapToPointFailed",
      "type": "error"
    },
    {
      "inputs": [
        {
          "internalType": "uint256",
          "name": "base",
          "type": "uint256"
        },
        {
          "internalType": "uint256",
          "name": "exponent",
          "type": "uint256"
        },
        {
          "internalType": "uint256",
          "name": "modulus",
          "type": "uint256"
        }
      ],
      "name": "ModExpFailed",
      "type": "error"
    },
    {
      "anonymous": false,
      "inputs": [
        {
          "indexed": true,
          "internalType": "enum InteractionLogicContract.State",
          "name": "from",
          "type": "uint8"
        },
        {
          "indexed": true,
          "internalType": "enum InteractionLogicContract.WorkflowEvent",
          "name": "eventId",
          "type": "uint8"
        },
        {
          "indexed": true,
          "internalType": "enum InteractionLogicContract.State",
          "name": "to",
          "type": "uint8"
        },
        {
          "indexed": false,
          "internalType": "uint256",
          "name": "timestamp",
          "type": "uint256"
        }
      ],
      "name": "TransitionExecuted",
      "type": "event"
    },
    {
      "inputs": [
        {
          "internalType": "enum InteractionLogicContract.WorkflowEvent",
          "name": "eventId",
          "type": "uint8"
        },
        {
          "internalType": "uint256[2]",
          "name": "aggSig",
          "type": "uint256[2]"
        },
        {
          "internalType": "uint256",
          "name": "ctrlMask",
          "type": "uint256"
        }
      ],
      "name": "transition",
      "outputs": [
        {
          "internalType": "bool",
          "name": "",
          "type": "bool"
        }
      ],
      "stateMutability": "nonpayable",
      "type": "function"
    }
  ],
  "bytecode": "0x608060405234801561001057600080fd5b50604051613a94380380613a9483398181016040528101906100329190610865565b81518351148015610046575060008160ff16115b8015610056575082518160ff1611155b610095576040517f08c379a000000000000000000000000000000000000000000000000000000000815260040161008c9061094d565b60405180910390fd5b82600190805190602001906100ab929190610332565b5081600290805190602001906100c29291906103bc565b5080600360006101000a81548160ff021916908360ff16021790555060008060006101000a81548160ff021916908360028111156101035761010261096d565b5b02179055506040518060800160405280600060028111156101275761012661096d565b5b8152602001600160028111156101405761013f61096d565b5b8152602001600060018111156101595761015861096d565b5b8152602001600081525060056000600281106101785761017761099c565b5b6002020160008201518160000160006101000a81548160ff021916908360028111156101a7576101a661096d565b5b021790555060208201518160000160016101000a81548160ff021916908360028111156101d7576101d661096d565b5b021790555060408201518160000160026101000a81548160ff021916908360018111156102075761020661096d565b5b0217905550606082015181600101559050506040518060800160405280600160028111156102385761023761096d565b5b81526020016002808111156102505761024f61096d565b5b81526020016001808111156102685761026761096d565b5b81526020016203f48081525060056001600281106102895761028861099c565b5b6002020160008201518160000160006101000a81548160ff021916908360028111156102b8576102b761096d565b5b021790555060208201518160000160016101000a81548160ff021916908360028111156102e8576102e761096d565b5b021790555060408201518160000160026101000a81548160ff021916908360018111156103185761031761096d565b5b0217905550606082015181600101559050505050506109cb565b8280548282559060005260206000209081019282156103ab579160200282015b828111156103aa5782518260006101000a81548173ffffffffffffffffffffffffffffffffffffffff021916908373ffffffffffffffffffffffffffffffffffffffff16021790555091602001919060010190610352565b5b5090506103b8919061041a565b5090565b828054828255906000526020600020906004028101928215610409579160200282015b82811115610408578251829060046103f8929190610437565b50916020019190600401906103df565b5b5090506104169190610477565b5090565b5b8082111561043357600081600090555060010161041b565b5090565b8260048101928215610466579160200282015b8281111561046557825182559160200191906001019061044a565b5b509050610473919061041a565b5090565b5b80821115610497576000818161048e919061049b565b50600401610478565b5090565b5060008155600101600081556001016000815560010160009055565b6000604051905090565b600080fd5b600080fd5b600080fd5b6000601f19601f8301169050919050565b7f4e487b7100000000000000000000000000000000000000000000000000000000600052604160045260246000fd5b610519826104d0565b810181811067ffffffffffffffff82111715610538576105376104e1565b5b80604052505050565b600061054b6104b7565b90506105578282610510565b919050565b600067ffffffffffffffff821115610577576105766104e1565b5b602082029050602081019050919050565b600080fd5b600073ffffffffffffffffffffffffffffffffffffffff82169050919050565b60006105b88261058d565b9050919050565b6105c8816105ad565b81146105d357600080fd5b50565b6000815190506105e5816105bf565b92915050565b60006105fe6105f98461055c565b610541565b9050808382526020820190506020840283018581111561062157610620610588565b5b835b8181101561064a578061063688826105d6565b845260208401935050602081019050610623565b5050509392505050565b600082601f830112610669576106686104cb565b5b81516106798482602086016105eb565b91505092915050565b600067ffffffffffffffff82111561069d5761069c6104e1565b5b602082029050602081019050919050565b600067ffffffffffffffff8211156106c9576106c86104e1565b5b602082029050919050565b6000819050919050565b6106e7816106d4565b81146106f257600080fd5b50565b600081519050610704816106de565b92915050565b600061071d610718846106ae565b610541565b9050806020840283018581111561073757610736610588565b5b835b81811015610760578061074c88826106f5565b845260208401935050602081019050610739565b5050509392505050565b600082601f83011261077f5761077e6104cb565b5b600461078c84828561070a565b91505092915050565b60006107a86107a384610682565b610541565b905080838252602082019050608084028301858111156107cb576107ca610588565b5b835b818110156107f457806107e0888261076a565b8452602084019350506080810190506107cd565b5050509392505050565b600082601f830112610813576108126104cb565b5b8151610823848260208601610795565b91505092915050565b600060ff82169050919050565b6108428161082c565b811461084d57600080fd5b50565b60008151905061085f81610839565b92915050565b60008060006060848603121561087e5761087d6104c1565b5b600084015167ffffffffffffffff81111561089c5761089b6104c6565b5b6108a886828701610654565b935050602084015167ffffffffffffffff8111156108c9576108c86104c6565b5b6108d5868287016107fe565b92505060406108e686828701610850565b9150509250925092565b600082825260208201905092915050565b7f494c433a2062616420636f6e74726f6c6c657220736574000000000000000000600082015250565b60006109376017836108f0565b915061094282610901565b602082019050919050565b600060208201905081810360008301526109668161092a565b9050919050565b7f4e487b7100000000000000000000000000000000000000000000000000000000600052602160045260246000fd5b7f4e487b7100000000000000000000000000000000000000000000000000000000600052603260045260246000fd5b6130ba806109da6000396000f3fe608060405234801561001057600080fd5b506004361061002b5760003560e01c8063b099c57914610030575b600080fd5b61004a60048036038101906100459190612828565b610060565b6040516100579190612896565b60405180910390f35b60008061006e6000866101af565b905042816060015161008091906128e0565b4211156100c2576040517f08c379a00000000000000000000000000000000000000000000000000000000081526004016100b990612971565b60405180910390fd5b6100cd8585856103b3565b60008060009054906101000a900460ff16905081602001516000806101000a81548160ff0219169083600281111561010857610107612991565b5b021790555060046000815480929190610120906129c0565b919050555060008054906101000a900460ff16600281111561014557610144612991565b5b86600181111561015857610157612991565b5b82600281111561016b5761016a612991565b5b7f14c3a4466e05bd7809a98869d81133e298248a0703eb7c2b2825b623650360144260405161019a9190612a17565b60405180910390a46001925050509392505050565b6101b76126dd565b60005b60028160ff161015610371578360028111156101d9576101d8612991565b5b60058260ff16600281106101f0576101ef612a32565b5b6002020160000160009054906101000a900460ff16600281111561021757610216612991565b5b148015610272575082600181111561023257610231612991565b5b60058260ff166002811061024957610248612a32565b5b6002020160000160029054906101000a900460ff1660018111156102705761026f612991565b5b145b156103605760058160ff166002811061028e5761028d612a32565b5b600202016040518060800160405290816000820160009054906101000a900460ff1660028111156102c2576102c1612991565b5b60028111156102d4576102d3612991565b5b81526020016000820160019054906101000a900460ff1660028111156102fd576102fc612991565b5b600281111561030f5761030e612991565b5b81526020016000820160029054906101000a900460ff16600181111561033857610337612991565b5b600181111561034a57610349612991565b5b81526020016001820154815250509150506103ad565b8061036a90612a6e565b90506101ba565b506040517f08c379a00000000000000000000000000000000000000000000000000000000081526004016103a490612ae3565b60405180910390fd5b92915050565b60006040518060400160405280600381526020017f494c4300000000000000000000000000000000000000000000000000000000008152508051906020012060008054906101000a900460ff16600281111561041257610411612991565b5b85600181111561042557610424612991565b5b60045460405160200161043b9493929190612b85565b6040516020818303038152906040529050600061048d6040518060400160405280600381526020017f494c4300000000000000000000000000000000000000000000000000000000008152508361061f565b905061049761273b565b6000805b600180549050811015610538576001808288901c160361052d5761051c83600283815481106104cd576104cc612a32565b5b9060005260206000209060040201600480602002604051908101604052809291908260048015610512576020028201915b8154815260200190600101908083116104fe575b50505050506107c1565b92508180610529906129c0565b9250505b80600101905061049b565b50600360009054906101000a900460ff1660ff1681101561058e576040517f08c379a000000000000000000000000000000000000000000000000000000000815260040161058590612c1f565b60405180910390fd5b60006105d2876002806020026040519081016040528092919082600260200280828437600081840152601f19601f820116905080830192505050505050848661088c565b50905080610615576040517f08c379a000000000000000000000000000000000000000000000000000000000815260040161060c90612c8b565b60405180910390fd5b5050505050505050565b61062761275d565b60006106338484610a67565b905060006106588260006002811061064e5761064d612a32565b5b6020020151610bf8565b9050600061067d8360016002811061067357610672612a32565b5b6020020151610bf8565b905061068761273b565b8260006002811061069b5761069a612a32565b5b6020020151816000600481106106b4576106b3612a32565b5b602002018181525050826001600281106106d1576106d0612a32565b5b6020020151816001600481106106ea576106e9612a32565b5b6020020181815250508160006002811061070757610706612a32565b5b6020020151816002600481106107205761071f612a32565b5b6020020181815250508160016002811061073d5761073c612a32565b5b60200201518160036004811061075657610755612a32565b5b602002018181525050600060408460808460066107d05a03fa9050806107b357816040517f128e3f080000000000000000000000000000000000000000000000000000000081526004016107aa9190612d56565b60405180910390fd5b839550505050505092915050565b6107c961273b565b60006040518451815260208501516020820152604085015160408201526060850151606082015283516080820152602084015160a0820152604084015160c0820152606084015160e082015260808161010083600c5afa9150805183526020810151602084015260408101516040840152606081015160608401525080610885576040517f08c379a000000000000000000000000000000000000000000000000000000000815260040161087c90612dbd565b60405180910390fd5b5092915050565b6000806000604051806101800160405280876000600281106108b1576108b0612a32565b5b60200201518152602001876001600281106108cf576108ce612a32565b5b602002015181526020017f198e9393920d483a7260bfb731fb5d25f1aa493335a9e71297e485b7aef312c281526020017f1800deef121f1e76426a00665e5c4479674322d4f75edadd46debd5cd992f6ed81526020017f275dc4a288d1afb3cbb1ac09187524c7db36395df7be3b99e673b13a075a65ec81526020017f1d9befcd05a5323e6da4d435f3b617cdb3af83285c2df711ef39c01571827f9d81526020018560006002811061098557610984612a32565b5b60200201518152602001856001600281106109a3576109a2612a32565b5b60200201518152602001866001600481106109c1576109c0612a32565b5b60200201518152602001866000600481106109df576109de612a32565b5b60200201518152602001866003600481106109fd576109fc612a32565b5b6020020151815260200186600260048110610a1b57610a1a612a32565b5b60200201518152509050610a2d61277f565b6020816101808460086107d05a03fa9250600081600060018110610a5457610a53612a32565b5b6020020151141593505050935093915050565b610a6f61275d565b6000610a7b84846112f3565b90506000806000806018850177ffffffffffffffffffffffffffffffffffffffffffffffff815116935060308601905077ffffffffffffffffffffffffffffffffffffffffffffffff81511694507f30644e72e131a029b85045b68181585d97816a916871ca8d3c208c16d87cfd47857f30644e72e131a029b85045b68181585d97816a916871ca8d3c208c16d87cfd477801000000000000000000000000000000000000000000000000870908925060488601905077ffffffffffffffffffffffffffffffffffffffffffffffff815116935060608601905077ffffffffffffffffffffffffffffffffffffffffffffffff81511694507f30644e72e131a029b85045b68181585d97816a916871ca8d3c208c16d87cfd47857f30644e72e131a029b85045b68181585d97816a916871ca8d3c208c16d87cfd4778010000000000000000000000000000000000000000000000008709089150506040518060400160405280838152602001828152509550505050505092915050565b610c0061275d565b7f30644e72e131a029b85045b68181585d97816a916871ca8d3c208c16d87cfd478210610c6457816040517fd53e9415000000000000000000000000000000000000000000000000000000008152600401610c5b9190612a17565b60405180910390fd5b60007f30644e72e131a029b85045b68181585d97816a916871ca8d3c208c16d87cfd4780610c9557610c94612ddd565b5b60047f30644e72e131a029b85045b68181585d97816a916871ca8d3c208c16d87cfd4780610cc657610cc5612ddd565b5b85860909905060007f30644e72e131a029b85045b68181585d97816a916871ca8d3c208c16d87cfd4780610cfd57610cfc612ddd565b5b8260010890507f30644e72e131a029b85045b68181585d97816a916871ca8d3c208c16d87cfd4780610d3257610d31612ddd565b5b827f30644e72e131a029b85045b68181585d97816a916871ca8d3c208c16d87cfd47610d5e9190612e0c565b60010891506000610d9f7f30644e72e131a029b85045b68181585d97816a916871ca8d3c208c16d87cfd4780610d9757610d96612ddd565b5b8385096114f5565b905060007f30644e72e131a029b85045b68181585d97816a916871ca8d3c208c16d87cfd4780610dd257610dd1612ddd565b5b78016789af3a83522eb353c98fc6b36d713d5d8d1cc5dffffffa7f30644e72e131a029b85045b68181585d97816a916871ca8d3c208c16d87cfd4780610e1b57610e1a612ddd565b5b847f30644e72e131a029b85045b68181585d97816a916871ca8d3c208c16d87cfd4780610e4b57610e4a612ddd565b5b888b090909905060007f30644e72e131a029b85045b68181585d97816a916871ca8d3c208c16d87cfd4780610e8357610e82612ddd565b5b827f30644e72e131a029b85045b68181585d97816a916871ca8d3c208c16d87cfd47610eaf9190612e0c565b7f183227397098d014dc2822db40c0ac2ecbc0b548b438e5469e10460b6c3e7ea308905060007f30644e72e131a029b85045b68181585d97816a916871ca8d3c208c16d87cfd4780610f0457610f03612ddd565b5b837f183227397098d014dc2822db40c0ac2ecbc0b548b438e5469e10460b6c3e7ea308905060007f30644e72e131a029b85045b68181585d97816a916871ca8d3c208c16d87cfd4780610f5a57610f59612ddd565b5b868709905060007f30644e72e131a029b85045b68181585d97816a916871ca8d3c208c16d87cfd4780610f9057610f8f612ddd565b5b868309905060007f30644e72e131a029b85045b68181585d97816a916871ca8d3c208c16d87cfd4780610fc657610fc5612ddd565b5b7f30644e72e131a029b85045b68181585d97816a916871ca8d3c208c16d87cfd4780610ff557610ff4612ddd565b5b7f30644e72e131a029b85045b68181585d97816a916871ca8d3c208c16d87cfd478061102457611023612ddd565b5b8485097f10216f7ba065e00de81ac1e7808072c9dd2b2385cd7b438469602eb24829a9bd096001089050600080600161106461105f89611507565b6115a5565b60000b0361110657868c60006002811061108157611080612a32565b5b60200201818152505061109387611507565b905061109e8161166d565b8d6001600281106110b2576110b1612a32565b5b602002018194508281525050508161110157806040517f396ec7710000000000000000000000000000000000000000000000000000000081526004016110f89190612a17565b60405180910390fd5b611252565b600161111961111488611507565b6115a5565b60000b036111bb57858c60006002811061113657611135612a32565b5b60200201818152505061114886611507565b90506111538161166d565b8d60016002811061116757611166612a32565b5b60200201819450828152505050816111b657806040517f396ec7710000000000000000000000000000000000000000000000000000000081526004016111ad9190612a17565b60405180910390fd5b611251565b828c6000600281106111d0576111cf612a32565b5b6020020181815250506111e283611507565b90506111ed8161166d565b8d60016002811061120157611200612a32565b5b602002018194508281525050508161125057806040517f396ec7710000000000000000000000000000000000000000000000000000000081526004016112479190612a17565b60405180910390fd5b5b5b6112738c60016002811061126957611268612a32565b5b60200201516116b6565b61127c8e6116b6565b146112e3578b60016002811061129557611294612a32565b5b60200201517f30644e72e131a029b85045b68181585d97816a916871ca8d3c208c16d87cfd476112c59190612e0c565b8c6001600281106112d9576112d8612a32565b5b6020020181815250505b5050505050505050505050919050565b606060008351905060ff81111561134157836040517f26e4f9ba0000000000000000000000000000000000000000000000000000000081526004016113389190612ed0565b60405180910390fd5b6000608867ffffffffffffffff81111561135e5761135d612ef2565b5b6040519080825280601f01601f1916602001820160405280156113905781602001600182028036833780820191505090505b509050600081856000606060008a886040516020016113b59796959493929190612f5d565b6040516020818303038152906040529050600081805190602001209050600081600189876040516020016113ec9493929190612fd2565b60405160208183030381529060405290506000818051906020012090506000606067ffffffffffffffff81111561142657611425612ef2565b5b6040519080825280601f01601f1916602001820160405280156114585781602001600182028036833780820191505090505b5090506000600390506000600190505b818110156114d05783861881600161148091906128e0565b8d8b6040516020016114959493929190612fd2565b604051602081830303815290604052945082602001600182036020028101905084815250848051906020012093508080600101915050611468565b5081602001600182036020028101905083815250819850505050505050505092915050565b6000611500826116cc565b9050919050565b60007f30644e72e131a029b85045b68181585d97816a916871ca8d3c208c16d87cfd478061153857611537612ddd565b5b60037f30644e72e131a029b85045b68181585d97816a916871ca8d3c208c16d87cfd478061156957611568612ddd565b5b847f30644e72e131a029b85045b68181585d97816a916871ca8d3c208c16d87cfd478061159957611598612ddd565b5b86870909089050919050565b6000806115b183611e26565b905060017f30644e72e131a029b85045b68181585d97816a916871ca8d3c208c16d87cfd476115e09190612e0c565b810361160f577fffffffffffffffffffffffffffffffffffffffffffffffffffffffffffffffff915050611668565b60008114158015611621575060018114155b1561166357826040517f396ec77100000000000000000000000000000000000000000000000000000000815260040161165a9190612a17565b60405180910390fd5b809150505b919050565b60008061167983611f95565b9150827f30644e72e131a029b85045b68181585d97816a916871ca8d3c208c16d87cfd47806116ab576116aa612ddd565b5b838409149050915091565b60006002826116c5919061301c565b9050919050565b60007f30644e72e131a029b85045b68181585d97816a916871ca8d3c208c16d87cfd478083840991508083830981838209828283098385830984848309858484098684850997508684840987858409945087898a09985087898a09985087898a09985087898a09985087898a09985087878a09985087898a09985087898a09985087898a099850878a8a09985087898a09985087898a09985087898a09985087898a099850878a8a09985087898a09985087898a09985087898a09985087898a09985087898a09985087848a09985087898a09985087898a09985087898a09985087898a09985087898a09985087848a09985087898a09985087898a09985087898a099850878a8a09985087898a09985087898a09985087898a09985087898a09985087848a09985087898a09985087898a09985087898a09985087898a09985087898a099850878a8a09985087898a09985087898a09985087898a09985087898a09985087878a09985087898a09985087898a09985087898a09985087898a09985087898a09985087898a09985087898a09985087818a09985087898a09985087898a09985087898a09985087898a09985087898a09985087898a09985087898a09985087898a09985087898a09985087898a09985087868a09985087898a09985087898a09985087898a09985087898a09985087878a09985087898a09985087898a09985087898a09985087898a09985087848a09985087898a09985087898a09985087898a09985087898a09985087898a09985087898a09985087898a09985087868a09985087898a09985087898a09985087898a09985087898a09985087898a09985087898a099850878a8a09985087898a09985087898a09985087898a09985087898a09985087898a09985087898a09985087898a09985087828a09985087898a09985087898a09985087898a09985087898a09985087898a09985087818a09985087898a09985087898a09985087898a09985087868a09985087898a09985087898a09985087898a09985087898a09985087898a09985087898a09985087898a09985087898a09985087878a09985087898a09985087898a09985087898a09985087898a09985087898a09985087898a09985087898a09985087898a09985087898a09985087868a09985087898a09985087898a09985087898a09985087878a09985087898a09985087898a09985087898a09985087898a09985087898a09985087898a09985087898a09985087898a09985087828a09985087898a09985087898a09985087898a09985087898a09985087828a09985087898a09985087898a09985087898a09985087898a09985087898a09985087868a09985087898a09985087898a09985087898a09985087848a09985087898a09985087898a09985087898a09985087898a09985087898a09985087898a09985087898a09985087898a09985087898a09985087898a09985087828a09985087898a09985087898a09985087898a09985087898a09985087868a09985087898a09985087898a09985087898a09985087898a09985087898a09985087838a09985087898a09985087898a09985087898a09985087898a09985087898a09985087898a09985087898a09985087828a09985087898a09985087898a099850878a8a09985087898a09985087898a09985087898a09985087898a09985087898a09985087898a09985087898a09985087848a09985087898a09985087898a09985087898a09985087898a09985087898a09985087898a09985087848a09985087898a09985087898a09985087898a09985087898a09985087898a09985087868a09985087898a09985087898a099850878a8a09985087898a09985087898a09985087898a09985087898a09985087898a09985087898a09985087898a09985087818a09985087898a09985087898a09985087898a09985087898a09985087898a09985087898a09985087858a09985087898a09985087898a09985087898a09985087898a09985087898a099850878a8a09985087898a09985087898a09985087898a09985087898a09985087898a09985087898a099850878a8a09985087898a09985087898a09985087898a09985087898a09985087898a09985087878a09985087898a09985087898a09985087898a09985087898a09985087898a09985087898a09985087898a09985087898a09985087898a09985087828a09985087898a09985087898a09985087898a09985087878a09985087898a09985087898a09985087898a09985087878a09985087898a09985087898a09985087898a09985087898a09985087898a09985087898a09985087898a09985087898a09985087858a09985087898a09985087898a09985087898a09985087898a09985087838a09985087898a09985087898a09985087898a09985087898a09985087858a09985087898a09985087898a09985087898a09985087868a09985087898a09985087898a099850878a8a09985087898a09985087898a09985087898a09985087898a09985087898a09985087898a09985087868a0998505050505050505050919050565b60008060c067ffffffffffffffff811115611e4457611e43612ef2565b5b6040519080825280601f01601f191660200182016040528015611e765781602001600182028036833780820191505090505b5090506000602082016020815260208101905060208152602081019050602081526020810190508481526020810190507f183227397098d014dc2822db40c0ac2ecbc0b548b438e5469e10460b6c3e7ea381526020810190507f30644e72e131a029b85045b68181585d97816a916871ca8d3c208c16d87cfd4781526020600060c06020860160055afa915060005193505080611f8e57837f183227397098d014dc2822db40c0ac2ecbc0b548b438e5469e10460b6c3e7ea37f30644e72e131a029b85045b68181585d97816a916871ca8d3c208c16d87cfd476040517fc6daf7ab000000000000000000000000000000000000000000000000000000008152600401611f859392919061304d565b60405180910390fd5b5050919050565b60007f30644e72e131a029b85045b68181585d97816a916871ca8d3c208c16d87cfd478083840991508083830981838209828283098385830984848309858484098684850997508684840987858409945087898a09985087898a09985087898a09985087898a09985087898a09985087878a09985087898a09985087898a09985087898a099850878a8a09985087898a09985087898a09985087898a09985087898a099850878a8a09985087898a09985087898a09985087898a09985087898a09985087898a09985087848a09985087898a09985087898a09985087898a09985087898a09985087898a09985087848a09985087898a09985087898a09985087898a099850878a8a09985087898a09985087898a09985087898a09985087898a09985087848a09985087898a09985087898a09985087898a09985087898a09985087898a099850878a8a09985087898a09985087898a09985087898a09985087898a09985087878a09985087898a09985087898a09985087898a09985087898a09985087898a09985087898a09985087898a09985087818a09985087898a09985087898a09985087898a09985087898a09985087898a09985087898a09985087898a09985087898a09985087898a09985087898a09985087868a09985087898a09985087898a09985087898a09985087898a09985087878a09985087898a09985087898a09985087898a09985087898a09985087848a09985087898a09985087898a09985087898a09985087898a09985087898a09985087898a09985087898a09985087868a09985087898a09985087898a09985087898a09985087898a09985087898a09985087898a099850878a8a09985087898a09985087898a09985087898a09985087898a09985087898a09985087898a09985087898a09985087828a09985087898a09985087898a09985087898a09985087898a09985087898a09985087818a09985087898a09985087898a09985087898a09985087868a09985087898a09985087898a09985087898a09985087898a09985087898a09985087898a09985087898a09985087898a09985087878a09985087898a09985087898a09985087898a09985087898a09985087898a09985087898a09985087898a09985087898a09985087898a09985087868a09985087898a09985087898a09985087898a09985087878a09985087898a09985087898a09985087898a09985087898a09985087898a09985087898a09985087898a09985087898a09985087828a09985087898a09985087898a09985087898a09985087898a09985087828a09985087898a09985087898a09985087898a09985087898a09985087898a09985087868a09985087898a09985087898a09985087898a09985087848a09985087898a09985087898a09985087898a09985087898a09985087898a09985087898a09985087898a09985087898a09985087898a09985087898a09985087828a09985087898a09985087898a09985087898a09985087898a09985087868a09985087898a09985087898a09985087898a09985087898a09985087898a09985087838a09985087898a09985087898a09985087898a09985087898a09985087898a09985087898a09985087898a09985087828a09985087898a09985087898a099850878a8a09985087898a09985087898a09985087898a09985087898a09985087898a09985087898a09985087898a09985087848a09985087898a09985087898a09985087898a09985087898a09985087898a09985087898a09985087848a09985087898a09985087898a09985087898a09985087898a09985087898a09985087868a09985087898a09985087898a099850878a8a09985087898a09985087898a09985087898a09985087898a09985087898a09985087898a09985087898a09985087818a09985087898a09985087898a09985087898a09985087898a09985087898a09985087898a09985087858a09985087898a09985087898a09985087898a09985087898a09985087898a099850878a8a09985087898a09985087898a09985087898a09985087898a09985087898a09985087898a099850878a8a09985087898a09985087898a09985087898a09985087898a09985087898a09985087878a09985087898a09985087898a09985087898a09985087898a09985087898a09985087898a09985087898a09985087898a09985087898a09985087828a09985087898a09985087898a09985087898a09985087878a09985087898a09985087898a09985087898a09985087878a09985087898a09985087898a09985087898a09985087898a09985087898a09985087898a09985087898a09985087898a09985087858a09985087898a09985087898a09985087898a09985087898a09985087838a09985087898a09985087898a09985087898a09985087898a09985087858a09985087898a09985087898a09985087898a09985087868a09985087898a09985087898a09985087898a09985087898a09985087898a09985087838a09985087898a0998505050505050505050919050565b6040518060800160405280600060028111156126fc576126fb612991565b5b81526020016000600281111561271557612714612991565b5b81526020016000600181111561272e5761272d612991565b5b8152602001600081525090565b6040518060800160405280600490602082028036833780820191505090505090565b6040518060400160405280600290602082028036833780820191505090505090565b6040518060200160405280600190602082028036833780820191505090505090565b600080fd5b600281106127b357600080fd5b50565b6000813590506127c5816127a6565b92915050565b600080fd5b6000819050826020600202820111156127ec576127eb6127cb565b5b92915050565b6000819050919050565b612805816127f2565b811461281057600080fd5b50565b600081359050612822816127fc565b92915050565b600080600060808486031215612841576128406127a1565b5b600061284f868287016127b6565b9350506020612860868287016127d0565b925050606061287186828701612813565b9150509250925092565b60008115159050919050565b6128908161287b565b82525050565b60006020820190506128ab6000830184612887565b92915050565b7f4e487b7100000000000000000000000000000000000000000000000000000000600052601160045260246000fd5b60006128eb826127f2565b91506128f6836127f2565b925082820190508082111561290e5761290d6128b1565b5b92915050565b600082825260208201905092915050565b7f494c433a20646561646c696e6520706173736564000000000000000000000000600082015250565b600061295b601483612914565b915061296682612925565b602082019050919050565b6000602082019050818103600083015261298a8161294e565b9050919050565b7f4e487b7100000000000000000000000000000000000000000000000000000000600052602160045260246000fd5b60006129cb826127f2565b91507fffffffffffffffffffffffffffffffffffffffffffffffffffffffffffffffff82036129fd576129fc6128b1565b5b600182019050919050565b612a11816127f2565b82525050565b6000602082019050612a2c6000830184612a08565b92915050565b7f4e487b7100000000000000000000000000000000000000000000000000000000600052603260045260246000fd5b600060ff82169050919050565b6000612a7982612a61565b915060ff8203612a8c57612a8b6128b1565b5b600182019050919050565b7f494c433a20696e76616c6964207472616e736974696f6e000000000000000000600082015250565b6000612acd601783612914565b9150612ad882612a97565b602082019050919050565b60006020820190508181036000830152612afc81612ac0565b9050919050565b6000819050919050565b6000819050919050565b612b28612b2382612b03565b612b0d565b82525050565b60008160f81b9050919050565b6000612b4682612b2e565b9050919050565b612b5e612b5982612a61565b612b3b565b82525050565b6000819050919050565b612b7f612b7a826127f2565b612b64565b82525050565b6000612b918287612b17565b602082019150612ba18286612b4d565b600182019150612bb18285612b4d565b600182019150612bc18284612b6e565b60208201915081905095945050505050565b7f494c433a207369672071756f72756d206661696c000000000000000000000000600082015250565b6000612c09601483612914565b9150612c1482612bd3565b602082019050919050565b60006020820190508181036000830152612c3881612bfc565b9050919050565b7f494c433a2073696720766572696679206661696c000000000000000000000000600082015250565b6000612c75601483612914565b9150612c8082612c3f565b602082019050919050565b60006020820190508181036000830152612ca481612c68565b9050919050565b600060049050919050565b600081905092915050565b6000819050919050565b612cd4816127f2565b82525050565b6000612ce68383612ccb565b60208301905092915050565b6000602082019050919050565b612d0881612cab565b612d128184612cb6565b9250612d1d82612cc1565b8060005b83811015612d4e578151612d358782612cda565b9650612d4083612cf2565b925050600181019050612d21565b505050505050565b6000608082019050612d6b6000830184612cff565b92915050565b7f424c533a20473220616464206661696c65640000000000000000000000000000600082015250565b6000612da7601283612914565b9150612db282612d71565b602082019050919050565b60006020820190508181036000830152612dd681612d9a565b9050919050565b7f4e487b7100000000000000000000000000000000000000000000000000000000600052601260045260246000fd5b6000612e17826127f2565b9150612e22836127f2565b9250828203905081811115612e3a57612e396128b1565b5b92915050565b600081519050919050565b600082825260208201905092915050565b60005b83811015612e7a578082015181840152602081019050612e5f565b60008484015250505050565b6000601f19601f8301169050919050565b6000612ea282612e40565b612eac8185612e4b565b9350612ebc818560208601612e5c565b612ec581612e86565b840191505092915050565b60006020820190508181036000830152612eea8184612e97565b905092915050565b7f4e487b7100000000000000000000000000000000000000000000000000000000600052604160045260246000fd5b600081905092915050565b6000612f3782612e40565b612f418185612f21565b9350612f51818560208601612e5c565b80840191505092915050565b6000612f69828a612f2c565b9150612f758289612f2c565b9150612f818288612b4d565b600182019150612f918287612b4d565b600182019150612fa18286612b4d565b600182019150612fb18285612f2c565b9150612fbd8284612b4d565b60018201915081905098975050505050505050565b6000612fde8287612b17565b602082019150612fee8286612b4d565b600182019150612ffe8285612f2c565b915061300a8284612b4d565b60018201915081905095945050505050565b6000613027826127f2565b9150613032836127f2565b92508261304257613041612ddd565b5b828206905092915050565b60006060820190506130626000830186612a08565b61306f6020830185612a08565b61307c6040830184612a08565b94935050505056fea26469706673582212200fcd4d8ee94eb8d9eecad354390c3fb6069e98ab36fb747ab7fb66c610e06eff64736f6c634300081c0033",
  "linkReferences": {},
  "deployedLinkReferences": {}
}