{
  "_format": "hh-sol-artifact-1",
  "contractName": "InteractionLogicContract",
  "sourceName": "contracts/main/InteractionLogicContract.sol",
  "abi": [
    {
      "inputs": [
        {
          "internalType": "uint256[4][5]",
          "name": "_blsPks",
          "type": "uint256[4][5]"
        },
        {
          "internalType": "uint8",
          "name": "_k",
          "type": "uint8"
        }
      ],
      "stateMutability": "nonpayable",
      "type": "constructor"
    },
    {
      "inputs": [
        {
          "internalType": "uint256[4]",
          "name": "input",
          "type": "uint256[4]"
        }
      ],
      "name": "BNAddFailed",
      "type": "error"
    },
    {
      "inputs": [
        {
          "internalType": "bytes",
          "name": "dst",
          "type": "bytes"
        }
      ],
      "name": "InvalidDSTLength",
      "type": "error"
    },
    {
      "inputs": [
        {
          "internalType": "uint256",
          "name": "x",
          "type": "uint256"
        }
      ],
      "name": "InvalidFieldElement",
      "type": "error"
    },
    {
      "inputs": [
        {
          "internalType": "uint256",
          "name": "noSqrt",
          "type": "uint256"
        }
      ],
      "name": "MapToPointFailed",
      "type": "error"
    },
    {
      "inputs": [
        {
          "internalType": "uint256",
          "name": "base",
          "type": "uint256"
        },
        {
          "internalType": "uint256",
          "name": "exponent",
          "type": "uint256"
        },
        {
          "internalType": "uint256",
          "name": "modulus",
          "type": "uint256"
        }
      ],
      "name": "ModExpFailed",
      "type": "error"
    },
    {
      "anonymous": false,
      "inputs": [
        {
          "indexed": true,
          "internalType": "enum InteractionLogicContract.State",
          "name": "from",
          "type": "uint8"
        },
        {
          "indexed": true,
          "internalType": "enum InteractionLogicContract.WorkflowEvent",
          "name": "eventId",
          "type": "uint8"
        },
        {
          "indexed": true,
          "internalType": "enum InteractionLogicContract.State",
          "name": "to",
          "type": "uint8"
        },
        {
          "indexed": false,
          "internalType": "uint256",
          "name": "timestamp",
          "type": "uint256"
        }
      ],
      "name": "TransitionExecuted",
      "type": "event"
    },
    {
      "inputs": [
        {
          "internalType": "enum InteractionLogicContract.WorkflowEvent",
          "name": "eventId",
          "type": "uint8"
        },
        {
          "internalType": "uint256[2]",
          "name": "aggSig",
          "type": "uint256[2]"
        },
        {
          "internalType": "uint8",
          "name": "pksMask",
          "type": "uint8"
        }
      ],
      "name": "transition",
      "outputs": [
        {
          "internalType": "bool",
          "name": "",
          "type": "bool"
        }
      ],
      "stateMutability": "nonpayable",
      "type": "function"
    }
  ],
  "bytecode": "0x6080346200016f5762002ba680380391601f8019601f85011682019360018060401b039383861085871117620001c7578190604096875284398201906102a0838303126200016f5781601f840112156200016f5784519360a0850190811185821017620001c7578552836102808401938385116200016f57905b848210620001745750505050519060ff82168092036200016f576001906000905b60058210620001365750505060ff1990816015541617601555600054166000554260175560006060620000cc620001dd565b828152600160208201528284820152015260606201020162ffffff19610100816018541617601855600060195562000103620001dd565b60018152600260208201526001858201526203f4809384910152601a541617601a55601b55516129a89081620001fe8239f35b805160005b600481106200015a57505060046020600192019301910190916200009a565b6001906020835193019281870155016200013b565b600080fd5b8383830112156200016f5762000189620001dd565b80608084018681116200016f5784915b818310620001b65750505081602091608093520191019062000079565b825181526020928301920162000199565b634e487b7160e01b600052604160045260246000fd5b60405190608082016001600160401b03811183821017620001c75760405256fe6080604052600436101561001257600080fd5b6000803560e01c63337e906a1461002857600080fd5b346101645760807ffffffffffffffffffffffffffffffffffffffffffffffffffffffffffffffffc36011261016457600435600281101561016057366064116101605760643560ff8116810361015c5760ff835416926100888385610481565b91606083015180610126575b5060206100d2936100a86100b8938761073f565b01516100b381610238565b610247565b6100cb6100c660165461027f565b601655565b5460ff1690565b916100dc81610238565b6100e5826102ac565b6100ee83610238565b6040514281527f14c3a4466e05bd7809a98869d81133e298248a0703eb7c2b2825b6236503601490602090a460405160018152602090f35b90601754918201809211610157576100d2936100a860209261014d6100b8954211156101a4565b9350509350610094565b610167565b8280fd5b5080fd5b80fd5b7f4e487b7100000000000000000000000000000000000000000000000000000000600052601160045260246000fd5b600101908160011161015757565b156101ab57565b60646040517f08c379a000000000000000000000000000000000000000000000000000000000815260206004820152601460248201527f494c433a20646561646c696e65207061737365640000000000000000000000006044820152fd5b7f4e487b7100000000000000000000000000000000000000000000000000000000600052602160045260246000fd5b6003111561024257565b610209565b60038110156102425760ff7fffffffffffffffffffffffffffffffffffffffffffffffffffffffffffffff0060005416911617600055565b7fffffffffffffffffffffffffffffffffffffffffffffffffffffffffffffffff81146101575760010190565b6002111561024257565b7f4e487b7100000000000000000000000000000000000000000000000000000000600052604160045260246000fd5b6080810190811067ffffffffffffffff82111761030157604052565b6102b6565b6040810190811067ffffffffffffffff82111761030157604052565b60c0810190811067ffffffffffffffff82111761030157604052565b6060810190811067ffffffffffffffff82111761030157604052565b90601f7fffffffffffffffffffffffffffffffffffffffffffffffffffffffffffffffe0910116810190811067ffffffffffffffff82111761030157604052565b604051906103a882610306565b565b60405190610180820182811067ffffffffffffffff82111761030157604052565b60ff1660ff81146101575760010190565b7f4e487b7100000000000000000000000000000000000000000000000000000000600052603260045260246000fd5b60028110156104205760011b60180190600090565b6103dc565b60038210156102425752565b9060405161043e816102e5565b809260ff815461045082821685610425565b610462828260081c1660208601610425565b60101c1660028110156102425760609160019160408501520154910152565b9060006060604051610492816102e5565b828152826020820152826040820152015260005b600260ff821610610514576040517f08c379a000000000000000000000000000000000000000000000000000000000815260206004820152601760248201527f494c433a20696e76616c6964207472616e736974696f6e0000000000000000006044820152606490fd5b0390fd5b826105296105218361040b565b505460ff1690565b61053282610238565b61053b81610238565b148061056c575b6105545761054f906103cb565b6104a6565b6105699250610563915061040b565b50610431565b90565b508161058561057a8361040b565b505460101c60ff1690565b61058e826102ac565b610597816102ac565b14610542565b604051906105aa82610306565b600382527f494c4300000000000000000000000000000000000000000000000000000000006020830152565b604051906105e3826102e5565b6080368337565b604051906105f782610306565b6040368337565b604051906020820182811067ffffffffffffffff821117610301576040526020368337565b6040519061063082610322565b60c0368337565b1561063e57565b60646040517f08c379a000000000000000000000000000000000000000000000000000000000815260206004820152601460248201527f494c433a207369672071756f72756d206661696c0000000000000000000000006044820152fd5b90604051916106aa83610306565b826064916064116106d5576024905b8282106106c557505050565b81358152602091820191016106b9565b600080fd5b156106e157565b60646040517f08c379a000000000000000000000000000000000000000000000000000000000815260206004820152601460248201527f494c433a2073696720766572696679206661696c0000000000000000000000006044820152fd5b60005491600360ff84161015610242576002821015610242576107f76107d46107c5610805946103a89660165490604051927fff00000000000000000000000000000000000000000000000000000000000000809260f81b16602085015260f81b1660218301526022820152602281526107b88161033e565b6107c061059d565b610839565b926107ce6105d6565b50610aff565b60ff6107ee6107e860159594955460ff1690565b60ff1690565b91161015610637565b6108003661069c565b610be0565b506106da565b6080810192916000915b6004831061082257505050565b600190825181526020809101920192019190610815565b906108426105ea565b50604080805161085181610306565b36903782519260ff8411610aa45760ff610869611107565b9416938251908161088287856020988985019586611167565b03916108b47fffffffffffffffffffffffffffffffffffffffffffffffffffffffffffffffe09384810183528261035a565b519020918351858101906108da816108ce8a868987611207565b0385810183528261035a565b519020956108e6611122565b936001926001945b60038610610a2f575050505050506109958185606061099c94015277ffffffffffffffffffffffffffffffffffffffffffffffff80601883015116907f30644e72e131a029b85045b68181585d97816a916871ca8d3c208c16d87cfd47809282604883826030890151168178010000000000000000000000000000000000000000000000008096090896015116928961098561039b565b878152019a169209088652610d30565b9351610d30565b916109a56105d6565b92845184528185015182850152805183850152015160608301526109f1818460808560067ffffffffffffffffffffffffffffffffffffffffffffffffffffffffffffff8305a01fa1590565b6109fa57505090565b6105109250519182917f128e3f080000000000000000000000000000000000000000000000000000000083526004830161080b565b909192938383879b8b7fffffffffffffffffffffffffffffffffffffffffffffffffffffffffffffffff8a610a8d8e610a818d8a9f6107e8610a7091610196565b9251988993898986019c188c611279565b0389810187528661035a565b0160051b8b010152519020990194939291906108ee565b61051091519182917f26e4f9ba000000000000000000000000000000000000000000000000000000008352600483016110bd565b60058110156104205760021b60010190600090565b60ff60019116019060ff821161015757565b610b076105d6565b6000805b60ff8082166005811015610bd6576001901b851616610b33575b610b2e906103cb565b610b0b565b90610bce610b2e91845160208601805190610bbf60408901938885519460608c01958651610b6084610ad8565b505491610b86610b7c610b7287610ad8565b5060010190600090565b90549060031b1c90565b93610bb9610b7c610baf610ba9610b7c610b9f8b610ad8565b5060020190600090565b98610ad8565b5060030190600090565b96610f64565b90929591945252528552610aed565b919050610b25565b5050509291509190565b604060209283610180969581610bf46103aa565b95805187520151828601527f198e9393920d483a7260bfb731fb5d25f1aa493335a9e71297e485b7aef312c2848601527f1800deef121f1e76426a00665e5c4479674322d4f75edadd46debd5cd992f6ed60608601527f275dc4a288d1afb3cbb1ac09187524c7db36395df7be3b99e673b13a075a65ec60808601527f1d9befcd05a5323e6da4d435f3b617cdb3af83285c2df711ef39c01571827f9d60a0860152805160c0860152015160e084015283810151610100840152805161012084015260608101516101408401520151610160820152610cd16105fe565b93849160087ffffffffffffffffffffffffffffffffffffffffffffffffffffffffffffff8305a01fa915115159190565b907f30644e72e131a029b85045b68181585d97816a916871ca8d3c208c16d87cfd4791820391821161015757565b90610d396105ea565b917f30644e72e131a029b85045b68181585d97816a916871ca8d3c208c16d87cfd4780821015610efc5780600481848009099060019181610d7d8183860892610d02565b840890828080808078016789af3a83522eb353c98fc6b36d713d5d8d1cc5dffffffa818b81610dae818b8d09611ebd565b9a8b92090909958180610dc089610d02565b98817f183227397098d014dc2822db40c0ac2ecbc0b548b438e5469e10460b6c3e7ea39a8b0899089680090980097f10216f7ba065e00de81ac1e7808072c9dd2b2385cd7b438469602eb24829a9bd0985089083600381858181800909089385610e29866112c0565b60000b03610ea2575050508552610e3f816113ee565b90602087015215610e6f57505b6020840191825191808316911603610e62575050565b610e6b90610d02565b9052565b6040517f396ec7710000000000000000000000000000000000000000000000000000000081526004810191909152602490fd5b919350915080600381848181800909089284610ebd856112c0565b60000b03610ee35750508552610ed2816113ee565b90602087015215610e6f5750610e4c565b81935060039250808852818180090908610ed2816113ee565b6040517fd53e941500000000000000000000000000000000000000000000000000000000815260048101839052602490fd5b15610f3557565b7f4e487b7100000000000000000000000000000000000000000000000000000000600052600160045260246000fd5b979497969596801580611092575b8061108a575b80611082575b15610fd85750505050801580610fd0575b80610fc8575b80610fc0575b15610fa7575b93929190565b610fbb610fb684868885611b50565b610f2e565b610fa1565b508215610f9b565b508315610f95565b508415610f8f565b84989598979697158061107a575b80611072575b8061106a575b611052579161104a97959391611027979593611013610fb685858585611b50565b611022610fb689898989611b50565b611bfc565b8051906020810151604082015160608301519160a0608085015194015194611de5565b929391929091565b935096935094509250610fa1610fb684868885611b50565b508715610ff2565b508615610fec565b508515610fe6565b508315610f7e565b508215610f78565b508115610f72565b60005b8381106110ad5750506000910152565b818101518382015260200161109d565b7fffffffffffffffffffffffffffffffffffffffffffffffffffffffffffffffe0601f60409360208452611100815180928160208801526020888801910161109a565b0116010190565b6040519061111482610322565b6088825260a0366020840137565b6040519061112f826102e5565b6060808352366020840137565b6040519060e0820182811067ffffffffffffffff8211176103015760405260c0808352366020840137565b7fff00000000000000000000000000000000000000000000000000000000000000926111b2602080936111a460049998968281519485920161109a565b01918281519485920161109a565b01600081527f60000000000000000000000000000000000000000000000000000000000000006001820152600060028201526111f882518093602060038501910161109a565b019160f81b1660038201520190565b91602293927fff000000000000000000000000000000000000000000000000000000000000009281527f0100000000000000000000000000000000000000000000000000000000000000602082015261126a82518093602060218501910161109a565b019160f81b1660218201520190565b602294939181527fff00000000000000000000000000000000000000000000000000000000000000809360f81b16602082015261126a82518093602060218501910161109a565b6112c861113c565b9060c060206000828286018381528360408801528360608801528560808801527f183227397098d014dc2822db40c0ac2ecbc0b548b438e5469e10460b6c3e7ea3968760a08201527f30644e72e131a029b85045b68181585d97816a916871ca8d3c208c16d87cfd47958691015260055afa9260005193156113b25750507f30644e72e131a029b85045b68181585d97816a916871ca8d3c208c16d87cfd46821461138c5781151580611381575b610e6f575060000b90565b506001821415611376565b50507fffffffffffffffffffffffffffffffffffffffffffffffffffffffffffffffff90565b60649350604051927fc6daf7ab000000000000000000000000000000000000000000000000000000008452600484015260248301526044820152fd5b907f30644e72e131a029b85045b68181585d97816a916871ca8d3c208c16d87cfd478080808080808080808b8180808080808080808080808080808f8180828180808080808080808080809e8180808080858180808080808087819e8280808080808681808080808080809e818080808481808080808080808089819f828080808080808080808080808d819e8280808080808080888180808080809e8180808080808080808981808080809e81808080808080808080808b8180809e81808080808080808080808b8180809e818080808080808080808a818080809e8180808080808087818080808080809e8180808080808681808080808080809e8180808080808681808080808080809e8180808080808681808080808080809e8180808080808080808080808c81809e81808080808080808080808b8180809e8180808080808087818080808080809e81808080808080809781808080808581808080808080808080808b8181800909818c81818009090981808c8181800909818d818180090909098180808c8181800909818d818180090909818c818082818180090991818180090909090980098009800981808781818009099180090980098009800909800980098009800909800980098009800981808c8180828009918180828009918181800909090991800909800980098009800981808088800981808a8009818b8181800909090991800909800980098009098009800980098180808a800981808c8009818d8181800909090991800909800980098009800980090980098009800981808c8181800909918009098009800980098009800980099281808083818180090981848181800909099181808280099181808280099181818009090909099180090980098009800980098009800980098009800981808d818082800991818180090909918009098009800980098180898181800909918009098009800980099281808280099181808280099181818009090909918009098009800980098009800980098180808b8009818c8181800909099180090980098009800980098009800909800980098009800980098009818080808c8009818d818180090909818c81808281818009099181818009090909918009098009800980098009928180808381818009098184818180090909918180828009918180828009918181800909090909918009098009800981808d818082800991818180090909918009098009800980098009800980098009928181800909918009098009800980098009800980098009800992818082800991818180090909918009098009800981808d818180090991800909800980098009800980098009800992818080838009818481818009090991818082818180090991818180090909099180090980098009800981808d81808083800981848181800909099181808281818009099181818009090909918009098009800980098009818080898009818a8181800909099180090980098009928180828009918180828009918181800909090991800909800980098009800980098009800980098009818080808b8009818c81818009090981808c8181800909818d81818009090909918009098009800980099281808280099181818009090991800909800980098009800981808d81808281818009099181808281818009099181818009090909918009098009800980098009800980098180808088800981898181800909098180898181800909818a81818009090909918009098009800909800980098009800980098009928180828009918180828009918181800909090991800909800980098009800980098180808c8009818d8180828009918181800909090991800909800980098009800981808087800981888181800909099180090980098009098009800980098009800980099281808083818180090981848181800909099181808280099181808280099181818009090909099180090980098009800980098009818080808b8181800909818c81818009090981808c8181800909818d818082818180090991818180090909090991800909800980098009800980090980098009800980098009800909800980098009800992818180090991800909800980098009800980098009800980098180808c818082800991818180090909818d8180828181800909918181800909090991800909800980098180888181800909918009098009800992818180090991800909800980098009800980098009800981808d8180808381818009098184818180090909918180828181800909918180828181800909918181800909090909918009098009800980098180808a818180090981808c8181800909818d818180090909099180090980098009800992818080838181800909818481818009090991818082818180090991818082818180090991818180090909090991800909800980098180808c8009818d8181800909099180090980098009800980098180808781818009098180898181800909818a81818009090909918009098009917f30644e72e131a029b85045b68181585d97816a916871ca8d3c208c16d87cfd478380091490565b611b98611b837f054fb1321278f57b36922d1d65a0ed99e1cca4ac0e95daea09b8a53ab3dbc46295611ba095818161263e565b939092611b928282818161263e565b9061263e565b929091612684565b91907f30644e72e131a029b85045b68181585d97816a916871ca8d3c208c16d87cfd4791829108159182611bd357505090565b7f2fcd3ac2a640a154eb23960892a85a68f031ca0c8344b23a577dcf1052b9e775919250081590565b949796979591929395611c18611c10610623565b998a946125f6565b979096611c3e611c2888886125f6565b94909360608801958652604088019485526125f6565b979096611c4b86846125f6565b608060a08a9993990199828b5201978089528a149081611ddb575b50611d6157505050505050505060408601928351946060880195865191611c8c93612684565b608088019283519460a08a0195865191611ca593612684565b611cb18183818161263e565b838388959395518a51611cc591858961263e565b93611cd193919761263e565b989097611cde8a8a6125f6565b909252528b8789611cf1888a818161263e565b611cfa916125f6565b611d049391612684565b611d0e8488612941565b91611d1893612684565b818196611d25939661263e565b9091602001528c52611d3693612684565b91611d409361263e565b9190928451865191611d519361263e565b91611d5b93612684565b90925252565b9397509397509397869b9a9b9991959951149081611dd0575b50611db1575050505050505050600060a0820152600060808201526000606082015260016040820152600060208201526001815290565b611dba936126c6565b9092969397919498525252526020830152815290565b905086511438611d7a565b90508a1438611c66565b95939195949092947f30644e72e131a029b85045b68181585d97816a916871ca8d3c208c16d87cfd479260405160208152602080820152602060408201528480838009818680090860608201527f30644e72e131a029b85045b68181585d97816a916871ca8d3c208c16d87cfd4560808201528460a082015260208160c08160057ffffffffffffffffffffffffffffffffffffffffffffffffffffffffffffff8305a01fa905190156106d557848181930993098303928311610157578282611eb995611eb19361263e565b95909661263e565b9091565b807f30644e72e131a029b85045b68181585d97816a916871ca8d3c208c16d87cfd47808080808080808881808080809e8180808080808080808981808080809e8180808080808080888180808080809e8180808080808080888180808080809e8181818080808080808781808080809e8180808080808087818080808080809e8180828180808080808080808080809e8180828180808080808080808981809e818080808080808080808080808d819e8280808080808080808080808080809e8082808080808080808080808080809e80828080808080808080808080808d819f828080808080808080808a818080809e8180808080808080808981808080809e8180808080808080808981808080809e8180808080808080808981808080809e8180808080808080808080808080809e80828080808080808080808080808d819f8280808080808080808981808080809e818080808080808080809981808080808581808080808080808080808b8181800909818c81818009090981808c8181800909818d818180090909098180808c8181800909818d818180090909818c818082818180090991818180090909090980098009800981808781818009099180090980098009800909800980098009800909800980098009800981808c8180828009918180828009918181800909090991800909800980098009800981808088800981808a8009818b8181800909090991800909800980098009098009800980098180808a800981808c8009818d8181800909090991800909800980098009800980090980098009800981808c8181800909918009098009800980098009800980099281808083818180090981848181800909099181808280099181808280099181818009090909099180090980098009800980098009800980098009800981808d818082800991818180090909918009098009800980098180898181800909918009098009800980099281808280099181808280099181818009090909918009098009800980098009800980098180808b8009818c8181800909099180090980098009800980098009800909800980098009800980098009818080808c8009818d818180090909818c81808281818009099181818009090909918009098009800980098009928180808381818009098184818180090909918180828009918180828009918181800909090909918009098009800981808d818082800991818180090909918009098009800980098009800980098009928181800909918009098009800980098009800980098009800992818082800991818180090909918009098009800981808d818180090991800909800980098009800980098009800992818080838009818481818009090991818082818180090991818180090909099180090980098009800981808d81808083800981848181800909099181808281818009099181818009090909918009098009800980098009818080898009818a8181800909099180090980098009928180828009918180828009918181800909090991800909800980098009800980098009800980098009818080808b8009818c81818009090981808c8181800909818d81818009090909918009098009800980099281808280099181818009090991800909800980098009800981808d81808281818009099181808281818009099181818009090909918009098009800980098009800980098180808088800981898181800909098180898181800909818a81818009090909918009098009800909800980098009800980098009928180828009918180828009918181800909090991800909800980098009800980098180808c8009818d8180828009918181800909090991800909800980098009800981808087800981888181800909099180090980098009098009800980098009800980099281808083818180090981848181800909099181808280099181808280099181818009090909099180090980098009800980098009818080808b8181800909818c81818009090981808c8181800909818d81808281818009099181818009090909099180090980098009800980098009098009800980098009800980090980098009800980099281818009099180090980098009800980098009800980098009818080808a8009818b81818009090981808b8181800909818c818180090909099180090980098009928181800909918009098009800981808d81818009099180090980098009800980098009800980099281808083818180090981848181800909099181808281818009099181808281818009099181818009090909099180090980098009800981808d8180828181800909918180828181800909918181800909090991800909800980098009818080808b8181800909818c81818009090981808c8181800909818d81808281818009099181818009090909099180090980098009818080878009818881818009090991800909800980090980098009800980098009928180828009918181800909099180090990565b9190917f30644e72e131a029b85045b68181585d97816a916871ca8d3c208c16d87cfd4790816000850982038281116101575760008360018180948183880908970992090890565b909392917f30644e72e131a029b85045b68181585d97816a916871ca8d3c208c16d87cfd4792838187098403848111610157578285809492818094880908970992090890565b939290937f30644e72e131a029b85045b68181585d97816a916871ca8d3c208c16d87cfd47928303918383116101575783039183831161015757839108930890565b92938291857f30644e72e131a029b85045b68181585d97816a916871ca8d3c208c16d87cfd476003830982877f30644e72e131a029b85045b68181585d97816a916871ca8d3c208c16d87cfd4760038209926127219361263e565b909661272d83876125f6565b61273d819b83998498849661263e565b612747939161263e565b939097612756848b818161263e565b7f30644e72e131a029b85045b68181585d97816a916871ca8d3c208c16d87cfd4760088809907f30644e72e131a029b85045b68181585d97816a916871ca8d3c208c16d87cfd4760088d09906127ab93612684565b99819b8b9792966127be878b818161263e565b99819f7f30644e72e131a029b85045b68181585d97816a916871ca8d3c208c16d87cfd4760048d979498099260047f30644e72e131a029b85045b68181585d97816a916871ca8d3c208c16d87cfd4791099261281993612684565b612823939161263e565b9390947f30644e72e131a029b85045b68181585d97816a916871ca8d3c208c16d87cfd4760088209917f30644e72e131a029b85045b68181585d97816a916871ca8d3c208c16d87cfd47600882099261287b9361263e565b612885939161263e565b9161288f93612684565b96909760027f30644e72e131a029b85045b68181585d97816a916871ca8d3c208c16d87cfd4791099260027f30644e72e131a029b85045b68181585d97816a916871ca8d3c208c16d87cfd479109926128e79361263e565b9690976128f39361263e565b60087f30644e72e131a029b85045b68181585d97816a916871ca8d3c208c16d87cfd4791099060087f30644e72e131a029b85045b68181585d97816a916871ca8d3c208c16d87cfd47910991565b600280919392937f30644e72e131a029b85045b68181585d97816a916871ca8d3c208c16d87cfd479283910993099056fea2646970667358221220f5e309292cb13a45423bbf61b6f5c30694a781a82d625bbe2ecd913e43cbe9bc64736f6c63430008180033",
  "linkReferences": {},
  "deployedLinkReferences": {}
}