{
  "_format": "hh-sol-artifact-1",
  "contractName": "InteractionLogicContract",
  "sourceName": "contracts/main/InteractionLogicContract.sol",
  "abi": [
    {
      "inputs": [
        {
          "internalType": "address[]",
          "name": "_ctrls",
          "type": "address[]"
        },
        {
          "internalType": "uint256[4][]",
          "name": "_blsPks",
          "type": "uint256[4][]"
        },
        {
          "internalType": "uint8",
          "name": "_k",
          "type": "uint8"
        }
      ],
      "stateMutability": "nonpayable",
      "type": "constructor"
    },
    {
      "inputs": [
        {
          "internalType": "uint256[4]",
          "name": "input",
          "type": "uint256[4]"
        }
      ],
      "name": "BNAddFailed",
      "type": "error"
    },
    {
      "inputs": [
        {
          "internalType": "bytes",
          "name": "dst",
          "type": "bytes"
        }
      ],
      "name": "InvalidDSTLength",
      "type": "error"
    },
    {
      "inputs": [
        {
          "internalType": "uint256",
          "name": "x",
          "type": "uint256"
        }
      ],
      "name": "InvalidFieldElement",
      "type": "error"
    },
    {
      "inputs": [
        {
          "internalType": "uint256",
          "name": "noSqrt",
          "type": "uint256"
        }
      ],
      "name": "MapToPointFailed",
      "type": "error"
    },
    {
      "inputs": [
        {
          "internalType": "uint256",
          "name": "base",
          "type": "uint256"
        },
        {
          "internalType": "uint256",
          "name": "exponent",
          "type": "uint256"
        },
        {
          "internalType": "uint256",
          "name": "modulus",
          "type": "uint256"
        }
      ],
      "name": "ModExpFailed",
      "type": "error"
    },
    {
      "anonymous": false,
      "inputs": [
        {
          "indexed": true,
          "internalType": "enum InteractionLogicContract.State",
          "name": "from",
          "type": "uint8"
        },
        {
          "indexed": true,
          "internalType": "enum InteractionLogicContract.WorkflowEvent",
          "name": "eventId",
          "type": "uint8"
        },
        {
          "indexed": true,
          "internalType": "enum InteractionLogicContract.State",
          "name": "to",
          "type": "uint8"
        },
        {
          "indexed": false,
          "internalType": "uint256",
          "name": "timestamp",
          "type": "uint256"
        }
      ],
      "name": "TransitionExecuted",
      "type": "event"
    },
    {
      "inputs": [
        {
          "internalType": "enum InteractionLogicContract.WorkflowEvent",
          "name": "eventId",
          "type": "uint8"
        },
        {
          "internalType": "uint256[2]",
          "name": "aggSig",
          "type": "uint256[2]"
        },
        {
          "internalType": "uint256",
          "name": "ctrlMask",
          "type": "uint256"
        }
      ],
      "name": "transition",
      "outputs": [
        {
          "internalType": "bool",
          "name": "",
          "type": "bool"
        }
      ],
      "stateMutability": "nonpayable",
      "type": "function"
    }
  ],
  "bytecode": "0x604060808152346200038e576200264c803803806200001e8162000438565b9283398101906060818303126200038e5780516001600160401b0392908381116200038e57820190601f9181601f820112156200038e57805192602094620000706200006a866200045e565b62000438565b9286848781520187819760051b830101918683116200038e578801905b828210620003f757505050858101518781116200038e5781019380601f860112156200038e57845194620000c56200006a876200045e565b938885888152019089829860071b840101928484116200038e57908a8d969594939201915b8383106200039357505050505001519160ff83168093036200038e57805182518114908162000383575b8162000377575b50156200033357519586116200031d5768010000000000000000908187116200031d576001948554888755808910620002fd575b5096600097868952878920878a5b848110620002e157505050505051908111620002cd57600292835482855580831062000252575b5083875285872087915b8383106200021b57896060620102018b8b8b8b8b60ff199081600354161760035584541684558386620001c062000418565b8281528486820152828a820152015262ffffff1993610100856005541617600555600655620001ee62000418565b92828452830152858201526203f48093849101526007541617600755600855516121bc9081620004908239f35b868882518b5b600481106200023d57505060049192019201920191906200018e565b8151868201558a938c93909201910162000221565b6001600160fe1b038181168203620002b95783168303620002a55784885286882090851b81019083861b015b8181106200028d575062000184565b806200029e60048093018262000476565b016200027e565b634e487b7160e01b88526011600452602488fd5b634e487b7160e01b89526011600452602489fd5b634e487b7160e01b86526041600452602486fd5b83516001600160a01b031683820155928a01928991016200015d565b6200031690876000528989600020918201910162000476565b386200014f565b634e487b7160e01b600052604160045260246000fd5b875162461bcd60e51b815260048101879052601760248201527f494c433a2062616420636f6e74726f6c6c6572207365740000000000000000006044820152606490fd5b9050831115386200011b565b841515915062000114565b600080fd5b909192938095965082840112156200038e57620003af62000418565b80608085018781116200038e57918d9286949294905b808210620003e357505081528e9796959460800193925001620000ea565b81518652948401948f9490910190620003c5565b81516001600160a01b03811681036200038e5781529088019088016200008d565b60405190608082016001600160401b038111838210176200031d57604052565b6040519190601f01601f191682016001600160401b038111838210176200031d57604052565b6001600160401b0381116200031d5760051b60200190565b81811062000482575050565b600081556001016200047656fe6080604052600436101561001257600080fd5b6000803560e01c63b099c5791461002857600080fd5b346101905760807ffffffffffffffffffffffffffffffffffffffffffffffffffffffffffffffffc36011261019057600435600281101561018c573660641161018c5761007481610410565b916060830151428101809111610187574211610129576100d59061009a6064358461071b565b6100bb60206100aa835460ff1690565b9501516100b6816101ff565b61020e565b6100ce6100c9600454610246565b600455565b5460ff1690565b916100df816101ff565b6100e882610273565b6100f1836101ff565b6040514281527f14c3a4466e05bd7809a98869d81133e298248a0703eb7c2b2825b6236503601490602090a460405160018152602090f35b60646040517f08c379a000000000000000000000000000000000000000000000000000000000815260206004820152601460248201527f494c433a20646561646c696e65207061737365640000000000000000000000006044820152fd5b610193565b5080fd5b80fd5b7f4e487b7100000000000000000000000000000000000000000000000000000000600052601160045260246000fd5b600101908160011161018757565b7f4e487b7100000000000000000000000000000000000000000000000000000000600052602160045260246000fd5b6003111561020957565b6101d0565b60038110156102095760ff7fffffffffffffffffffffffffffffffffffffffffffffffffffffffffffffff0060005416911617600055565b7fffffffffffffffffffffffffffffffffffffffffffffffffffffffffffffffff81146101875760010190565b6002111561020957565b7f4e487b7100000000000000000000000000000000000000000000000000000000600052604160045260246000fd5b6080810190811067ffffffffffffffff8211176102c857604052565b61027d565b6040810190811067ffffffffffffffff8211176102c857604052565b90601f7fffffffffffffffffffffffffffffffffffffffffffffffffffffffffffffffe0910116810190811067ffffffffffffffff8211176102c857604052565b60405190610337826102cd565b565b60405190610180820182811067ffffffffffffffff8211176102c857604052565b60ff1660ff81146101875760010190565b7f4e487b7100000000000000000000000000000000000000000000000000000000600052603260045260246000fd5b60028110156103af5760011b60050190600090565b61036b565b60038210156102095752565b906040516103cd816102ac565b809260ff81546103df828216856103b4565b6103f1828260081c16602086016103b4565b60101c1660028110156102095760609160019160408501520154910152565b60006060604051610420816102ac565b828152826020820152826040820152015260005b600260ff8216106104a2576040517f08c379a000000000000000000000000000000000000000000000000000000000815260206004820152601760248201527f494c433a20696e76616c6964207472616e736974696f6e0000000000000000006044820152606490fd5b0390fd5b6104b66104ae8261039a565b505460ff1690565b6104bf816101ff565b15806104ef575b6104d8576104d39061035a565b610434565b6104ec91506104e69061039a565b506103c0565b90565b50816105086104fd8361039a565b505460101c60ff1690565b61051182610273565b61051a81610273565b146104c6565b6040519061052d826102cd565b600382527f494c4300000000000000000000000000000000000000000000000000000000006020830152565b60405190610566826102ac565b6080368337565b6040519061057a826102cd565b6040368337565b604051906020820182811067ffffffffffffffff8211176102c8576040526020368337565b6002548110156103af57600260005260021b7f405787fa12a823e0f2b7631cc41b3ba8828b3321ca811111fa75cd3aa3bb5ace0190600090565b60405191906000835b600482106105fd57505050610337826102ac565b60016020819285548152019301910190916105e9565b1561061a57565b60646040517f08c379a000000000000000000000000000000000000000000000000000000000815260206004820152601460248201527f494c433a207369672071756f72756d206661696c0000000000000000000000006044820152fd5b9060405191610686836102cd565b826064916064116106b1576024905b8282106106a157505050565b8135815260209182019101610695565b600080fd5b156106bd57565b60646040517f08c379a000000000000000000000000000000000000000000000000000000000815260206004820152601460248201527f494c433a2073696720766572696679206661696c0000000000000000000000006044820152fd5b6107e0906107d361072a610520565b602081519101206107a761074060005460ff1690565b9361074a856101ff565b61075381610273565b600454906040519586946020860192604294929184527fff00000000000000000000000000000000000000000000000000000000000000809260f81b16602085015260f81b16602183015260228201520190565b037fffffffffffffffffffffffffffffffffffffffffffffffffffffffffffffffe081018352826102e9565b6107db610520565b6108af565b906107e9610559565b906000906000600191600154915b82811061083e5750505050916108389161082a6103379461082361081d60035460ff1690565b60ff1690565b1115610613565b61083336610678565b610c38565b506106b6565b838083831c1614610851575b83016107f7565b9394610879610873859261086d610867896105a6565b506105e0565b90610bb3565b96610246565b94905061084a565b6080810192916000915b6004831061089857505050565b60019082518152602080910192019201919061088b565b906108b861056d565b5060408080516108c7816102cd565b36903782519260ff8411610b1a5760ff6108df610ff3565b941693825190816108f887856020988985019586611064565b039161092a7fffffffffffffffffffffffffffffffffffffffffffffffffffffffffffffffe0938481018352826102e9565b51902091835185810190610950816109448a868987611104565b038581018352826102e9565b5190209561095c61101f565b936001926001945b60038610610aa557505050505050610a0b81856060610a1294015277ffffffffffffffffffffffffffffffffffffffffffffffff80601883015116907f30644e72e131a029b85045b68181585d97816a916871ca8d3c208c16d87cfd4780928260488382603089015116817801000000000000000000000000000000000000000000000000809609089601511692896109fb61032a565b878152019a169209088652610d88565b9351610d88565b91610a1b610559565b9284518452818501518285015280518385015201516060830152610a67818460808560067ffffffffffffffffffffffffffffffffffffffffffffffffffffffffffffff8305a01fa1590565b610a7057505090565b61049e9250519182917f128e3f0800000000000000000000000000000000000000000000000000000000835260048301610881565b909192938383879b8b7fffffffffffffffffffffffffffffffffffffffffffffffffffffffffffffffff8a610b038e610af78d8a9f61081d610ae6916101c2565b9251988993898986019c188c611176565b038981018752866102e9565b0160051b8b01015251902099019493929190610964565b61049e91519182917f26e4f9ba00000000000000000000000000000000000000000000000000000000835260048301610fa9565b15610b5557565b60646040517f08c379a000000000000000000000000000000000000000000000000000000000815260206004820152601260248201527f424c533a20473220616464206661696c656400000000000000000000000000006044820152fd5b61033790929192610bc2610559565b9360405191805183526020810151602084019081526060806040840151936040870194855201519381860194855280516080870152602081015160a0870152604081015160c0870152015160e085015260808461010081600c5afa93518752516020870152516040860152516060850152610b4e565b604060209283610180969581610c4c610339565b95805187520151828601527f198e9393920d483a7260bfb731fb5d25f1aa493335a9e71297e485b7aef312c2848601527f1800deef121f1e76426a00665e5c4479674322d4f75edadd46debd5cd992f6ed60608601527f275dc4a288d1afb3cbb1ac09187524c7db36395df7be3b99e673b13a075a65ec60808601527f1d9befcd05a5323e6da4d435f3b617cdb3af83285c2df711ef39c01571827f9d60a0860152805160c0860152015160e084015283810151610100840152805161012084015260608101516101408401520151610160820152610d29610581565b93849160087ffffffffffffffffffffffffffffffffffffffffffffffffffffffffffffff8305a01fa915115159190565b907f30644e72e131a029b85045b68181585d97816a916871ca8d3c208c16d87cfd4791820391821161018757565b90610d9161056d565b917f30644e72e131a029b85045b68181585d97816a916871ca8d3c208c16d87cfd4780821015610f545780600481848009099060019181610dd58183860892610d5a565b840890828080808078016789af3a83522eb353c98fc6b36d713d5d8d1cc5dffffffa818b81610e06818b8d09611a4d565b9a8b92090909958180610e1889610d5a565b98817f183227397098d014dc2822db40c0ac2ecbc0b548b438e5469e10460b6c3e7ea39a8b0899089680090980097f10216f7ba065e00de81ac1e7808072c9dd2b2385cd7b438469602eb24829a9bd0985089083600381858181800909089385610e81866111bd565b60000b03610efa575050508552610e97816112eb565b90602087015215610ec757505b6020840191825191808316911603610eba575050565b610ec390610d5a565b9052565b6040517f396ec7710000000000000000000000000000000000000000000000000000000081526004810191909152602490fd5b919350915080600381848181800909089284610f15856111bd565b60000b03610f3b5750508552610f2a816112eb565b90602087015215610ec75750610ea4565b81935060039250808852818180090908610f2a816112eb565b6040517fd53e941500000000000000000000000000000000000000000000000000000000815260048101839052602490fd5b60005b838110610f995750506000910152565b8181015183820152602001610f89565b7fffffffffffffffffffffffffffffffffffffffffffffffffffffffffffffffe0601f60409360208452610fec8151809281602088015260208888019101610f86565b0116010190565b6040519060c0820182811067ffffffffffffffff8211176102c8576040526088825260a0366020840137565b6040519061102c826102ac565b6060808352366020840137565b6040519060e0820182811067ffffffffffffffff8211176102c85760405260c0808352366020840137565b7fff00000000000000000000000000000000000000000000000000000000000000926110af602080936110a1600499989682815194859201610f86565b019182815194859201610f86565b01600081527f60000000000000000000000000000000000000000000000000000000000000006001820152600060028201526110f5825180936020600385019101610f86565b019160f81b1660038201520190565b91602293927fff000000000000000000000000000000000000000000000000000000000000009281527f01000000000000000000000000000000000000000000000000000000000000006020820152611167825180936020602185019101610f86565b019160f81b1660218201520190565b602294939181527fff00000000000000000000000000000000000000000000000000000000000000809360f81b166020820152611167825180936020602185019101610f86565b6111c5611039565b9060c060206000828286018381528360408801528360608801528560808801527f183227397098d014dc2822db40c0ac2ecbc0b548b438e5469e10460b6c3e7ea3968760a08201527f30644e72e131a029b85045b68181585d97816a916871ca8d3c208c16d87cfd47958691015260055afa9260005193156112af5750507f30644e72e131a029b85045b68181585d97816a916871ca8d3c208c16d87cfd468214611289578115158061127e575b610ec7575060000b90565b506001821415611273565b50507fffffffffffffffffffffffffffffffffffffffffffffffffffffffffffffffff90565b60649350604051927fc6daf7ab000000000000000000000000000000000000000000000000000000008452600484015260248301526044820152fd5b907f30644e72e131a029b85045b68181585d97816a916871ca8d3c208c16d87cfd478080808080808080808b8180808080808080808080808080808f8180828180808080808080808080809e8180808080858180808080808087819e8280808080808681808080808080809e818080808481808080808080808089819f828080808080808080808080808d819e8280808080808080888180808080809e8180808080808080808981808080809e81808080808080808080808b8180809e81808080808080808080808b8180809e818080808080808080808a818080809e8180808080808087818080808080809e8180808080808681808080808080809e8180808080808681808080808080809e8180808080808681808080808080809e8180808080808080808080808c81809e81808080808080808080808b8180809e8180808080808087818080808080809e81808080808080809781808080808581808080808080808080808b8181800909818c81818009090981808c8181800909818d818180090909098180808c8181800909818d818180090909818c818082818180090991818180090909090980098009800981808781818009099180090980098009800909800980098009800909800980098009800981808c8180828009918180828009918181800909090991800909800980098009800981808088800981808a8009818b8181800909090991800909800980098009098009800980098180808a800981808c8009818d8181800909090991800909800980098009800980090980098009800981808c8181800909918009098009800980098009800980099281808083818180090981848181800909099181808280099181808280099181818009090909099180090980098009800980098009800980098009800981808d818082800991818180090909918009098009800980098180898181800909918009098009800980099281808280099181808280099181818009090909918009098009800980098009800980098180808b8009818c8181800909099180090980098009800980098009800909800980098009800980098009818080808c8009818d818180090909818c81808281818009099181818009090909918009098009800980098009928180808381818009098184818180090909918180828009918180828009918181800909090909918009098009800981808d818082800991818180090909918009098009800980098009800980098009928181800909918009098009800980098009800980098009800992818082800991818180090909918009098009800981808d818180090991800909800980098009800980098009800992818080838009818481818009090991818082818180090991818180090909099180090980098009800981808d81808083800981848181800909099181808281818009099181818009090909918009098009800980098009818080898009818a8181800909099180090980098009928180828009918180828009918181800909090991800909800980098009800980098009800980098009818080808b8009818c81818009090981808c8181800909818d81818009090909918009098009800980099281808280099181818009090991800909800980098009800981808d81808281818009099181808281818009099181818009090909918009098009800980098009800980098180808088800981898181800909098180898181800909818a81818009090909918009098009800909800980098009800980098009928180828009918180828009918181800909090991800909800980098009800980098180808c8009818d8180828009918181800909090991800909800980098009800981808087800981888181800909099180090980098009098009800980098009800980099281808083818180090981848181800909099181808280099181808280099181818009090909099180090980098009800980098009818080808b8181800909818c81818009090981808c8181800909818d818082818180090991818180090909090991800909800980098009800980090980098009800980098009800909800980098009800992818180090991800909800980098009800980098009800980098180808c818082800991818180090909818d8180828181800909918181800909090991800909800980098180888181800909918009098009800992818180090991800909800980098009800980098009800981808d8180808381818009098184818180090909918180828181800909918180828181800909918181800909090909918009098009800980098180808a818180090981808c8181800909818d818180090909099180090980098009800992818080838181800909818481818009090991818082818180090991818082818180090991818180090909090991800909800980098180808c8009818d8181800909099180090980098009800980098180808781818009098180898181800909818a81818009090909918009098009917f30644e72e131a029b85045b68181585d97816a916871ca8d3c208c16d87cfd478380091490565b807f30644e72e131a029b85045b68181585d97816a916871ca8d3c208c16d87cfd47808080808080808881808080809e8180808080808080808981808080809e8180808080808080888180808080809e8180808080808080888180808080809e8181818080808080808781808080809e8180808080808087818080808080809e8180828180808080808080808080809e8180828180808080808080808981809e818080808080808080808080808d819e8280808080808080808080808080809e8082808080808080808080808080809e80828080808080808080808080808d819f828080808080808080808a818080809e8180808080808080808981808080809e8180808080808080808981808080809e8180808080808080808981808080809e8180808080808080808080808080809e80828080808080808080808080808d819f8280808080808080808981808080809e818080808080808080809981808080808581808080808080808080808b8181800909818c81818009090981808c8181800909818d818180090909098180808c8181800909818d818180090909818c818082818180090991818180090909090980098009800981808781818009099180090980098009800909800980098009800909800980098009800981808c8180828009918180828009918181800909090991800909800980098009800981808088800981808a8009818b8181800909090991800909800980098009098009800980098180808a800981808c8009818d8181800909090991800909800980098009800980090980098009800981808c8181800909918009098009800980098009800980099281808083818180090981848181800909099181808280099181808280099181818009090909099180090980098009800980098009800980098009800981808d818082800991818180090909918009098009800980098180898181800909918009098009800980099281808280099181808280099181818009090909918009098009800980098009800980098180808b8009818c8181800909099180090980098009800980098009800909800980098009800980098009818080808c8009818d818180090909818c81808281818009099181818009090909918009098009800980098009928180808381818009098184818180090909918180828009918180828009918181800909090909918009098009800981808d818082800991818180090909918009098009800980098009800980098009928181800909918009098009800980098009800980098009800992818082800991818180090909918009098009800981808d818180090991800909800980098009800980098009800992818080838009818481818009090991818082818180090991818180090909099180090980098009800981808d81808083800981848181800909099181808281818009099181818009090909918009098009800980098009818080898009818a8181800909099180090980098009928180828009918180828009918181800909090991800909800980098009800980098009800980098009818080808b8009818c81818009090981808c8181800909818d81818009090909918009098009800980099281808280099181818009090991800909800980098009800981808d81808281818009099181808281818009099181818009090909918009098009800980098009800980098180808088800981898181800909098180898181800909818a81818009090909918009098009800909800980098009800980098009928180828009918180828009918181800909090991800909800980098009800980098180808c8009818d8180828009918181800909090991800909800980098009800981808087800981888181800909099180090980098009098009800980098009800980099281808083818180090981848181800909099181808280099181808280099181818009090909099180090980098009800980098009818080808b8181800909818c81818009090981808c8181800909818d81808281818009099181818009090909099180090980098009800980098009098009800980098009800980090980098009800980099281818009099180090980098009800980098009800980098009818080808a8009818b81818009090981808b8181800909818c818180090909099180090980098009928181800909918009098009800981808d81818009099180090980098009800980098009800980099281808083818180090981848181800909099181808281818009099181808281818009099181818009090909099180090980098009800981808d8180828181800909918180828181800909918181800909090991800909800980098009818080808b8181800909818c81818009090981808c8181800909818d8180828181800909918181800909090909918009098009800981808087800981888181800909099180090980098009098009800980098009800992818082800991818180090909918009099056fea2646970667358221220e98cfb6d288c868c6a5309fec795adf95faaed69ce31650d2d15f168226a0e4d64736f6c63430008180033",
  "linkReferences": {},
  "deployedLinkReferences": {}
}