{
  "_format": "hh-sol-artifact-1",
  "contractName": "BN256G2",
  "sourceName": "contracts/lib/BN256G2.sol",
  "abi": [
    {
      "inputs": [],
      "name": "GetFieldModulus",
      "outputs": [
        {
          "internalType": "uint256",
          "name": "",
          "type": "uint256"
        }
      ],
      "stateMutability": "pure",
      "type": "function"
    },
    {
      "inputs": [
        {
          "internalType": "uint256",
          "name": "pt1xx",
          "type": "uint256"
        },
        {
          "internalType": "uint256",
          "name": "pt1xy",
          "type": "uint256"
        },
        {
          "internalType": "uint256",
          "name": "pt1yx",
          "type": "uint256"
        },
        {
          "internalType": "uint256",
          "name": "pt1yy",
          "type": "uint256"
        },
        {
          "internalType": "uint256",
          "name": "pt1zx",
          "type": "uint256"
        },
        {
          "internalType": "uint256",
          "name": "pt1zy",
          "type": "uint256"
        },
        {
          "internalType": "uint256",
          "name": "pt2xx",
          "type": "uint256"
        },
        {
          "internalType": "uint256",
          "name": "pt2xy",
          "type": "uint256"
        },
        {
          "internalType": "uint256",
          "name": "pt2yx",
          "type": "uint256"
        },
        {
          "internalType": "uint256",
          "name": "pt2yy",
          "type": "uint256"
        },
        {
          "internalType": "uint256",
          "name": "pt2zx",
          "type": "uint256"
        },
        {
          "internalType": "uint256",
          "name": "pt2zy",
          "type": "uint256"
        }
      ],
      "name": "_ECTwistAddJacobian",
      "outputs": [
        {
          "internalType": "uint256[6]",
          "name": "pt3",
          "type": "uint256[6]"
        }
      ],
      "stateMutability": "pure",
      "type": "function"
    },
    {
      "inputs": [
        {
          "internalType": "uint256",
          "name": "pt1xx",
          "type": "uint256"
        },
        {
          "internalType": "uint256",
          "name": "pt1xy",
          "type": "uint256"
        },
        {
          "internalType": "uint256",
          "name": "pt1yx",
          "type": "uint256"
        },
        {
          "internalType": "uint256",
          "name": "pt1yy",
          "type": "uint256"
        },
        {
          "internalType": "uint256",
          "name": "pt1zx",
          "type": "uint256"
        },
        {
          "internalType": "uint256",
          "name": "pt1zy",
          "type": "uint256"
        }
      ],
      "name": "_ECTwistDoubleJacobian",
      "outputs": [
        {
          "internalType": "uint256",
          "name": "pt2xx",
          "type": "uint256"
        },
        {
          "internalType": "uint256",
          "name": "pt2xy",
          "type": "uint256"
        },
        {
          "internalType": "uint256",
          "name": "pt2yx",
          "type": "uint256"
        },
        {
          "internalType": "uint256",
          "name": "pt2yy",
          "type": "uint256"
        },
        {
          "internalType": "uint256",
          "name": "pt2zx",
          "type": "uint256"
        },
        {
          "internalType": "uint256",
          "name": "pt2zy",
          "type": "uint256"
        }
      ],
      "stateMutability": "pure",
      "type": "function"
    },
    {
      "inputs": [
        {
          "internalType": "uint256",
          "name": "d",
          "type": "uint256"
        },
        {
          "internalType": "uint256",
          "name": "pt1xx",
          "type": "uint256"
        },
        {
          "internalType": "uint256",
          "name": "pt1xy",
          "type": "uint256"
        },
        {
          "internalType": "uint256",
          "name": "pt1yx",
          "type": "uint256"
        },
        {
          "internalType": "uint256",
          "name": "pt1yy",
          "type": "uint256"
        },
        {
          "internalType": "uint256",
          "name": "pt1zx",
          "type": "uint256"
        },
        {
          "internalType": "uint256",
          "name": "pt1zy",
          "type": "uint256"
        }
      ],
      "name": "_ECTwistMulJacobian",
      "outputs": [
        {
          "internalType": "uint256[6]",
          "name": "pt2",
          "type": "uint256[6]"
        }
      ],
      "stateMutability": "pure",
      "type": "function"
    },
    {
      "inputs": [
        {
          "internalType": "uint256",
          "name": "xx",
          "type": "uint256"
        },
        {
          "internalType": "uint256",
          "name": "xy",
          "type": "uint256"
        },
        {
          "internalType": "uint256",
          "name": "yx",
          "type": "uint256"
        },
        {
          "internalType": "uint256",
          "name": "yy",
          "type": "uint256"
        }
      ],
      "name": "isOnCurve",
      "outputs": [
        {
          "internalType": "bool",
          "name": "",
          "type": "bool"
        }
      ],
      "stateMutability": "pure",
      "type": "function"
    }
  ],
  "bytecode": "0x6080806040523461001a5761318b9081610020823930815050f35b600080fdfe610180604052600436101561001357600080fd5b6000803560e01c80634a863fe01461030357806355a3e90f146102af5780635a3c8d36146101ec5780637c16f7c0146100c35763f2664d9a1461005557600080fd5b60c07ffffffffffffffffffffffffffffffffffffffffffffffffffffffffffffffffc3601126100c05760c061009b60a43560843560643560443560243560043561177f565b93604093919351958652602086015260408501526060840152608083015260a0820152f35b80fd5b5060807ffffffffffffffffffffffffffffffffffffffffffffffffffffffffffffffffc3601126100c0576024357f30644e72e131a029b85045b68181585d97816a916871ca8d3c208c16d87cfd4780606435816044358180600435818981808980098188800990610134916130f6565b93818380098282800990610147916130f6565b9482808084870981878609089e8f098383880990610164916130f6565b61016d916130f6565b9c09920908938183820992090890610184916130f6565b927f054fb1321278f57b36922d1d65a0ed99e1cca4ac0e95daea09b8a53ab3dbc46290081590602092826101bf575b50506040519015158152f35b7f2fcd3ac2a640a154eb23960892a85a68f031ca0c8344b23a577dcf1052b9e775919250081582806101b3565b5060e07ffffffffffffffffffffffffffffffffffffffffffffffffffffffffffffffffc3601126100c057506044356004356024358160c43560a435608435606435610236610398565b965b61024e576040518061024a898261036a565b0390f35b600196959697888616610276575b61026795969761177f565b9397949590941c939184610238565b6102a785858585858d8d6102679d9e51906020810151604082015160608301519160a06080850151940151946103ec565b96955061025c565b50807ffffffffffffffffffffffffffffffffffffffffffffffffffffffffffffffffc3601126100c05760206040517f30644e72e131a029b85045b68181585d97816a916871ca8d3c208c16d87cfd478152f35b506101807ffffffffffffffffffffffffffffffffffffffffffffffffffffffffffffffffc3601126100c05761024a6103626101643561014435610124356101043560e43560c43560a4356084356064356044356024356004356103ec565b604051918291825b60c0810192916000915b6006831061038157505050565b600190825181526020809101920192019190610374565b6040519060c0820182811067ffffffffffffffff8211176103bd5760405260c0368337565b7f4e487b7100000000000000000000000000000000000000000000000000000000600052604160045260246000fd5b92919a9699909394959998979860a05260c052610407610398565b99841580611777575b1561043f5750505050505060a085015260c05160808501526060840152604083015260a0516020830152815290565b60c09b99949695989b51158061176f575b611746576104858c7f30644e72e131a029b85045b68181585d97816a916871ca8d3c208c16d87cfd4789818d8d0992096130f6565b936104d87f30644e72e131a029b85045b68181585d97816a916871ca8d3c208c16d87cfd478885097f30644e72e131a029b85045b68181585d97816a916871ca8d3c208c16d87cfd4760c05185096130f6565b8c60607f30644e72e131a029b85045b68181585d97816a916871ca8d3c208c16d87cfd478060c0518809818c88090891015260408d01526105617f30644e72e131a029b85045b68181585d97816a916871ca8d3c208c16d87cfd478b60a051097f30644e72e131a029b85045b68181585d97816a916871ca8d3c208c16d87cfd478a89096130f6565b6080528b6105b77f30644e72e131a029b85045b68181585d97816a916871ca8d3c208c16d87cfd478984097f30644e72e131a029b85045b68181585d97816a916871ca8d3c208c16d87cfd4760c05188096130f6565b8060807f30644e72e131a029b85045b68181585d97816a916871ca8d3c208c16d87cfd478060c0518709818d8b0908938460a08201520152608051149081611711575b5061165b575050505096839186979887839b7f30644e72e131a029b85045b68181585d97816a916871ca8d3c208c16d87cfd4787830960c0517f30644e72e131a029b85045b68181585d97816a916871ca8d3c208c16d87cfd4790880990610661916130f6565b98604086015193606087015194610677916130f6565b987f30644e72e131a029b85045b68181585d97816a916871ca8d3c208c16d87cfd479109917f30644e72e131a029b85045b68181585d97816a916871ca8d3c208c16d87cfd479109907f30644e72e131a029b85045b68181585d97816a916871ca8d3c208c16d87cfd479108906106ed916130f6565b93608083015160a08401519060805190610706916130f6565b998a938660a051907f30644e72e131a029b85045b68181585d97816a916871ca8d3c208c16d87cfd479109917f30644e72e131a029b85045b68181585d97816a916871ca8d3c208c16d87cfd479109907f30644e72e131a029b85045b68181585d97816a916871ca8d3c208c16d87cfd47910890610783916130f6565b937f30644e72e131a029b85045b68181585d97816a916871ca8d3c208c16d87cfd478580097f30644e72e131a029b85045b68181585d97816a916871ca8d3c208c16d87cfd47848009906107d6916130f6565b976080850151998860a0870151948c8c877f30644e72e131a029b85045b68181585d97816a916871ca8d3c208c16d87cfd478a8d097f30644e72e131a029b85045b68181585d97816a916871ca8d3c208c16d87cfd478d8c09907f30644e72e131a029b85045b68181585d97816a916871ca8d3c208c16d87cfd479108907f30644e72e131a029b85045b68181585d97816a916871ca8d3c208c16d87cfd479109917f30644e72e131a029b85045b68181585d97816a916871ca8d3c208c16d87cfd479109906108a5916130f6565b948c8a7f30644e72e131a029b85045b68181585d97816a916871ca8d3c208c16d87cfd478a82097f30644e72e131a029b85045b68181585d97816a916871ca8d3c208c16d87cfd47828c09907f30644e72e131a029b85045b68181585d97816a916871ca8d3c208c16d87cfd479108907f30644e72e131a029b85045b68181585d97816a916871ca8d3c208c16d87cfd4791097f30644e72e131a029b85045b68181585d97816a916871ca8d3c208c16d87cfd478a830990610966916130f6565b99868c818d8d60c0517f30644e72e131a029b85045b68181585d97816a916871ca8d3c208c16d87cfd47908c097f30644e72e131a029b85045b68181585d97816a916871ca8d3c208c16d87cfd478a8a09907f30644e72e131a029b85045b68181585d97816a916871ca8d3c208c16d87cfd479108907f30644e72e131a029b85045b68181585d97816a916871ca8d3c208c16d87cfd478186097f30644e72e131a029b85045b68181585d97816a916871ca8d3c208c16d87cfd47868309907f30644e72e131a029b85045b68181585d97816a916871ca8d3c208c16d87cfd479108907f30644e72e131a029b85045b68181585d97816a916871ca8d3c208c16d87cfd4791097f30644e72e131a029b85045b68181585d97816a916871ca8d3c208c16d87cfd47858909907f30644e72e131a029b85045b68181585d97816a916871ca8d3c208c16d87cfd479108907f30644e72e131a029b85045b68181585d97816a916871ca8d3c208c16d87cfd479109917f30644e72e131a029b85045b68181585d97816a916871ca8d3c208c16d87cfd47910990610b06916130f6565b938c7f30644e72e131a029b85045b68181585d97816a916871ca8d3c208c16d87cfd478184097f30644e72e131a029b85045b68181585d97816a916871ca8d3c208c16d87cfd47848309907f30644e72e131a029b85045b68181585d97816a916871ca8d3c208c16d87cfd479108907f30644e72e131a029b85045b68181585d97816a916871ca8d3c208c16d87cfd479109917f30644e72e131a029b85045b68181585d97816a916871ca8d3c208c16d87cfd479109907f30644e72e131a029b85045b68181585d97816a916871ca8d3c208c16d87cfd479108907f30644e72e131a029b85045b68181585d97816a916871ca8d3c208c16d87cfd47910960c0517f30644e72e131a029b85045b68181585d97816a916871ca8d3c208c16d87cfd479088097f30644e72e131a029b85045b68181585d97816a916871ca8d3c208c16d87cfd47868609907f30644e72e131a029b85045b68181585d97816a916871ca8d3c208c16d87cfd4791087f30644e72e131a029b85045b68181585d97816a916871ca8d3c208c16d87cfd47908d09907f30644e72e131a029b85045b68181585d97816a916871ca8d3c208c16d87cfd47910860a0820152608001528c8a8c7f30644e72e131a029b85045b68181585d97816a916871ca8d3c208c16d87cfd478180097f30644e72e131a029b85045b68181585d97816a916871ca8d3c208c16d87cfd4787800990610d19916130f6565b957f30644e72e131a029b85045b68181585d97816a916871ca8d3c208c16d87cfd47818309917f30644e72e131a029b85045b68181585d97816a916871ca8d3c208c16d87cfd479109907f30644e72e131a029b85045b68181585d97816a916871ca8d3c208c16d87cfd479108918b60c0517f30644e72e131a029b85045b68181585d97816a916871ca8d3c208c16d87cfd479089097f30644e72e131a029b85045b68181585d97816a916871ca8d3c208c16d87cfd47878709907f30644e72e131a029b85045b68181585d97816a916871ca8d3c208c16d87cfd4791087f30644e72e131a029b85045b68181585d97816a916871ca8d3c208c16d87cfd479085097f30644e72e131a029b85045b68181585d97816a916871ca8d3c208c16d87cfd478a890990610e49916130f6565b90610e53916130f6565b9a7f30644e72e131a029b85045b68181585d97816a916871ca8d3c208c16d87cfd478184097f30644e72e131a029b85045b68181585d97816a916871ca8d3c208c16d87cfd47848309907f30644e72e131a029b85045b68181585d97816a916871ca8d3c208c16d87cfd479108907f30644e72e131a029b85045b68181585d97816a916871ca8d3c208c16d87cfd479109917f30644e72e131a029b85045b68181585d97816a916871ca8d3c208c16d87cfd479109907f30644e72e131a029b85045b68181585d97816a916871ca8d3c208c16d87cfd479108957f30644e72e131a029b85045b68181585d97816a916871ca8d3c208c16d87cfd4791099360c0517f30644e72e131a029b85045b68181585d97816a916871ca8d3c208c16d87cfd479109917f30644e72e131a029b85045b68181585d97816a916871ca8d3c208c16d87cfd479109907f30644e72e131a029b85045b68181585d97816a916871ca8d3c208c16d87cfd4791087f30644e72e131a029b85045b68181585d97816a916871ca8d3c208c16d87cfd479109907f30644e72e131a029b85045b68181585d97816a916871ca8d3c208c16d87cfd47910890611010916130f6565b927f30644e72e131a029b85045b68181585d97816a916871ca8d3c208c16d87cfd476002830961103f916130f6565b9289868c7f30644e72e131a029b85045b68181585d97816a916871ca8d3c208c16d87cfd47818309917f30644e72e131a029b85045b68181585d97816a916871ca8d3c208c16d87cfd479109907f30644e72e131a029b85045b68181585d97816a916871ca8d3c208c16d87cfd479108907f30644e72e131a029b85045b68181585d97816a916871ca8d3c208c16d87cfd4791097f30644e72e131a029b85045b68181585d97816a916871ca8d3c208c16d87cfd47848b09907f30644e72e131a029b85045b68181585d97816a916871ca8d3c208c16d87cfd47910860027f30644e72e131a029b85045b68181585d97816a916871ca8d3c208c16d87cfd479109611149916130f6565b927f30644e72e131a029b85045b68181585d97816a916871ca8d3c208c16d87cfd478487097f30644e72e131a029b85045b68181585d97816a916871ca8d3c208c16d87cfd47828d099061119c916130f6565b8d858d7f30644e72e131a029b85045b68181585d97816a916871ca8d3c208c16d87cfd47858b09917f30644e72e131a029b85045b68181585d97816a916871ca8d3c208c16d87cfd479109907f30644e72e131a029b85045b68181585d97816a916871ca8d3c208c16d87cfd47910890602001528d5261121b916130f6565b977f30644e72e131a029b85045b68181585d97816a916871ca8d3c208c16d87cfd478a86097f30644e72e131a029b85045b68181585d97816a916871ca8d3c208c16d87cfd47868c09907f30644e72e131a029b85045b68181585d97816a916871ca8d3c208c16d87cfd479108907f30644e72e131a029b85045b68181585d97816a916871ca8d3c208c16d87cfd479109907f30644e72e131a029b85045b68181585d97816a916871ca8d3c208c16d87cfd47908809907f30644e72e131a029b85045b68181585d97816a916871ca8d3c208c16d87cfd479108906112ff916130f6565b947f30644e72e131a029b85045b68181585d97816a916871ca8d3c208c16d87cfd478685097f30644e72e131a029b85045b68181585d97816a916871ca8d3c208c16d87cfd4788870990611352916130f6565b9260408b01519160608c015194858b7f30644e72e131a029b85045b68181585d97816a916871ca8d3c208c16d87cfd478186097f30644e72e131a029b85045b68181585d97816a916871ca8d3c208c16d87cfd47868309907f30644e72e131a029b85045b68181585d97816a916871ca8d3c208c16d87cfd479108907f30644e72e131a029b85045b68181585d97816a916871ca8d3c208c16d87cfd4791097f30644e72e131a029b85045b68181585d97816a916871ca8d3c208c16d87cfd47858509907f30644e72e131a029b85045b68181585d97816a916871ca8d3c208c16d87cfd479108907f30644e72e131a029b85045b68181585d97816a916871ca8d3c208c16d87cfd4791097f30644e72e131a029b85045b68181585d97816a916871ca8d3c208c16d87cfd478587099061148b916130f6565b611494916130f6565b997f30644e72e131a029b85045b68181585d97816a916871ca8d3c208c16d87cfd478184097f30644e72e131a029b85045b68181585d97816a916871ca8d3c208c16d87cfd47848309907f30644e72e131a029b85045b68181585d97816a916871ca8d3c208c16d87cfd479108907f30644e72e131a029b85045b68181585d97816a916871ca8d3c208c16d87cfd479109917f30644e72e131a029b85045b68181585d97816a916871ca8d3c208c16d87cfd479109907f30644e72e131a029b85045b68181585d97816a916871ca8d3c208c16d87cfd479108907f30644e72e131a029b85045b68181585d97816a916871ca8d3c208c16d87cfd479109917f30644e72e131a029b85045b68181585d97816a916871ca8d3c208c16d87cfd479109907f30644e72e131a029b85045b68181585d97816a916871ca8d3c208c16d87cfd479108937f30644e72e131a029b85045b68181585d97816a916871ca8d3c208c16d87cfd479109917f30644e72e131a029b85045b68181585d97816a916871ca8d3c208c16d87cfd479109907f30644e72e131a029b85045b68181585d97816a916871ca8d3c208c16d87cfd4791089061164f916130f6565b60608401526040830152565b94509450949590979987878b9460408601511494856116d5575b50505050506116ae57505050505050600060a0820152600060808201526000606082015260016040820152600060208201526001815290565b6116b79561177f565b60a08701526080860152606085015260408401526020830152815290565b6060015194507f30644e72e131a029b85045b68181585d97816a916871ca8d3c208c16d87cfd479384929183910992090814388087878b611675565b90507f30644e72e131a029b85045b68181585d97816a916871ca8d3c208c16d87cfd47808a60a05109818d8a090814386105fa565b965094935096985094905060a08701526080860152606085015260408401526020830152815290565b508515610450565b508515610410565b92909495916101405261010052837f30644e72e131a029b85045b68181585d97816a916871ca8d3c208c16d87cfd4760038209907f30644e72e131a029b85045b68181585d97816a916871ca8d3c208c16d87cfd479109827f30644e72e131a029b85045b68181585d97816a916871ca8d3c208c16d87cfd4760038209907f30644e72e131a029b85045b68181585d97816a916871ca8d3c208c16d87cfd4791099061182a916130f6565b8561010051907f30644e72e131a029b85045b68181585d97816a916871ca8d3c208c16d87cfd4791098461014051907f30644e72e131a029b85045b68181585d97816a916871ca8d3c208c16d87cfd47910990611886916130f6565b60e052610100517f30644e72e131a029b85045b68181585d97816a916871ca8d3c208c16d87cfd47908609610140517f30644e72e131a029b85045b68181585d97816a916871ca8d3c208c16d87cfd47908509906118e3916130f6565b948461010051907f30644e72e131a029b85045b68181585d97816a916871ca8d3c208c16d87cfd4791098761014051907f30644e72e131a029b85045b68181585d97816a916871ca8d3c208c16d87cfd479109907f30644e72e131a029b85045b68181585d97816a916871ca8d3c208c16d87cfd479108610140517f30644e72e131a029b85045b68181585d97816a916871ca8d3c208c16d87cfd47908309610100517f30644e72e131a029b85045b68181585d97816a916871ca8d3c208c16d87cfd47908709907f30644e72e131a029b85045b68181585d97816a916871ca8d3c208c16d87cfd479108907f30644e72e131a029b85045b68181585d97816a916871ca8d3c208c16d87cfd47910960e0517f30644e72e131a029b85045b68181585d97816a916871ca8d3c208c16d87cfd4790880990611a23916130f6565b95847f30644e72e131a029b85045b68181585d97816a916871ca8d3c208c16d87cfd4760038409907f30644e72e131a029b85045b68181585d97816a916871ca8d3c208c16d87cfd479109827f30644e72e131a029b85045b68181585d97816a916871ca8d3c208c16d87cfd4760038809907f30644e72e131a029b85045b68181585d97816a916871ca8d3c208c16d87cfd479109907f30644e72e131a029b85045b68181585d97816a916871ca8d3c208c16d87cfd479108857f30644e72e131a029b85045b68181585d97816a916871ca8d3c208c16d87cfd4760038509907f30644e72e131a029b85045b68181585d97816a916871ca8d3c208c16d87cfd479109837f30644e72e131a029b85045b68181585d97816a916871ca8d3c208c16d87cfd4760038909907f30644e72e131a029b85045b68181585d97816a916871ca8d3c208c16d87cfd479109907f30644e72e131a029b85045b68181585d97816a916871ca8d3c208c16d87cfd479108907f30644e72e131a029b85045b68181585d97816a916871ca8d3c208c16d87cfd4791097f30644e72e131a029b85045b68181585d97816a916871ca8d3c208c16d87cfd4784800990611be6916130f6565b7f30644e72e131a029b85045b68181585d97816a916871ca8d3c208c16d87cfd4760088909611c14916130f6565b809760e051610140517f30644e72e131a029b85045b68181585d97816a916871ca8d3c208c16d87cfd47908609610100517f30644e72e131a029b85045b68181585d97816a916871ca8d3c208c16d87cfd47908a09907f30644e72e131a029b85045b68181585d97816a916871ca8d3c208c16d87cfd479108907f30644e72e131a029b85045b68181585d97816a916871ca8d3c208c16d87cfd4791098861010051907f30644e72e131a029b85045b68181585d97816a916871ca8d3c208c16d87cfd4791098b61014051907f30644e72e131a029b85045b68181585d97816a916871ca8d3c208c16d87cfd479109907f30644e72e131a029b85045b68181585d97816a916871ca8d3c208c16d87cfd4791087f30644e72e131a029b85045b68181585d97816a916871ca8d3c208c16d87cfd47908509907f30644e72e131a029b85045b68181585d97816a916871ca8d3c208c16d87cfd47910860087f30644e72e131a029b85045b68181585d97816a916871ca8d3c208c16d87cfd47910985887f30644e72e131a029b85045b68181585d97816a916871ca8d3c208c16d87cfd4760038809907f30644e72e131a029b85045b68181585d97816a916871ca8d3c208c16d87cfd479109867f30644e72e131a029b85045b68181585d97816a916871ca8d3c208c16d87cfd4760038c09907f30644e72e131a029b85045b68181585d97816a916871ca8d3c208c16d87cfd479109907f30644e72e131a029b85045b68181585d97816a916871ca8d3c208c16d87cfd479108907f30644e72e131a029b85045b68181585d97816a916871ca8d3c208c16d87cfd479109887f30644e72e131a029b85045b68181585d97816a916871ca8d3c208c16d87cfd4760038809907f30644e72e131a029b85045b68181585d97816a916871ca8d3c208c16d87cfd479109867f30644e72e131a029b85045b68181585d97816a916871ca8d3c208c16d87cfd4760038c09907f30644e72e131a029b85045b68181585d97816a916871ca8d3c208c16d87cfd479109907f30644e72e131a029b85045b68181585d97816a916871ca8d3c208c16d87cfd4791087f30644e72e131a029b85045b68181585d97816a916871ca8d3c208c16d87cfd47908809907f30644e72e131a029b85045b68181585d97816a916871ca8d3c208c16d87cfd47910890611f7b916130f6565b610160528761010051907f30644e72e131a029b85045b68181585d97816a916871ca8d3c208c16d87cfd4791098a61014051907f30644e72e131a029b85045b68181585d97816a916871ca8d3c208c16d87cfd479109907f30644e72e131a029b85045b68181585d97816a916871ca8d3c208c16d87cfd4791088861010051907f30644e72e131a029b85045b68181585d97816a916871ca8d3c208c16d87cfd4791098b61014051907f30644e72e131a029b85045b68181585d97816a916871ca8d3c208c16d87cfd479109907f30644e72e131a029b85045b68181585d97816a916871ca8d3c208c16d87cfd479108907f30644e72e131a029b85045b68181585d97816a916871ca8d3c208c16d87cfd47910960e0517f30644e72e131a029b85045b68181585d97816a916871ca8d3c208c16d87cfd47908009906120c0916130f6565b6101205260047f30644e72e131a029b85045b68181585d97816a916871ca8d3c208c16d87cfd479109906120f3916130f6565b90610160519060e051610140517f30644e72e131a029b85045b68181585d97816a916871ca8d3c208c16d87cfd47908609610100517f30644e72e131a029b85045b68181585d97816a916871ca8d3c208c16d87cfd47908a09907f30644e72e131a029b85045b68181585d97816a916871ca8d3c208c16d87cfd479108907f30644e72e131a029b85045b68181585d97816a916871ca8d3c208c16d87cfd479109908861010051907f30644e72e131a029b85045b68181585d97816a916871ca8d3c208c16d87cfd4791098b61014051907f30644e72e131a029b85045b68181585d97816a916871ca8d3c208c16d87cfd479109907f30644e72e131a029b85045b68181585d97816a916871ca8d3c208c16d87cfd4791087f30644e72e131a029b85045b68181585d97816a916871ca8d3c208c16d87cfd479109907f30644e72e131a029b85045b68181585d97816a916871ca8d3c208c16d87cfd47910860047f30644e72e131a029b85045b68181585d97816a916871ca8d3c208c16d87cfd47910990612281916130f6565b94807f30644e72e131a029b85045b68181585d97816a916871ca8d3c208c16d87cfd4760038509907f30644e72e131a029b85045b68181585d97816a916871ca8d3c208c16d87cfd479109837f30644e72e131a029b85045b68181585d97816a916871ca8d3c208c16d87cfd4760038409907f30644e72e131a029b85045b68181585d97816a916871ca8d3c208c16d87cfd479109907f30644e72e131a029b85045b68181585d97816a916871ca8d3c208c16d87cfd4791087f30644e72e131a029b85045b68181585d97816a916871ca8d3c208c16d87cfd479087097f30644e72e131a029b85045b68181585d97816a916871ca8d3c208c16d87cfd478584099061238c916130f6565b956101405160087f30644e72e131a029b85045b68181585d97816a916871ca8d3c208c16d87cfd479109966101005160087f30644e72e131a029b85045b68181585d97816a916871ca8d3c208c16d87cfd479109610100517f30644e72e131a029b85045b68181585d97816a916871ca8d3c208c16d87cfd47908209610140517f30644e72e131a029b85045b68181585d97816a916871ca8d3c208c16d87cfd47908b099061243a916130f6565b9160e0518d8c61010051907f30644e72e131a029b85045b68181585d97816a916871ca8d3c208c16d87cfd4791099061014051907f30644e72e131a029b85045b68181585d97816a916871ca8d3c208c16d87cfd479109907f30644e72e131a029b85045b68181585d97816a916871ca8d3c208c16d87cfd479108907f30644e72e131a029b85045b68181585d97816a916871ca8d3c208c16d87cfd4791098d8c61010051907f30644e72e131a029b85045b68181585d97816a916871ca8d3c208c16d87cfd4791099061014051907f30644e72e131a029b85045b68181585d97816a916871ca8d3c208c16d87cfd479109907f30644e72e131a029b85045b68181585d97816a916871ca8d3c208c16d87cfd47910860e051907f30644e72e131a029b85045b68181585d97816a916871ca8d3c208c16d87cfd479109907f30644e72e131a029b85045b68181585d97816a916871ca8d3c208c16d87cfd479108610140517f30644e72e131a029b85045b68181585d97816a916871ca8d3c208c16d87cfd47908409610100517f30644e72e131a029b85045b68181585d97816a916871ca8d3c208c16d87cfd47908d09907f30644e72e131a029b85045b68181585d97816a916871ca8d3c208c16d87cfd479108907f30644e72e131a029b85045b68181585d97816a916871ca8d3c208c16d87cfd479109610120517f30644e72e131a029b85045b68181585d97816a916871ca8d3c208c16d87cfd4790850990612665916130f6565b61266e916130f6565b986101205191610140517f30644e72e131a029b85045b68181585d97816a916871ca8d3c208c16d87cfd47910990610100517f30644e72e131a029b85045b68181585d97816a916871ca8d3c208c16d87cfd479109907f30644e72e131a029b85045b68181585d97816a916871ca8d3c208c16d87cfd479108907f30644e72e131a029b85045b68181585d97816a916871ca8d3c208c16d87cfd4791099060e0518a61010051907f30644e72e131a029b85045b68181585d97816a916871ca8d3c208c16d87cfd4791098d61014051907f30644e72e131a029b85045b68181585d97816a916871ca8d3c208c16d87cfd479109907f30644e72e131a029b85045b68181585d97816a916871ca8d3c208c16d87cfd479108907f30644e72e131a029b85045b68181585d97816a916871ca8d3c208c16d87cfd4791098a61010051907f30644e72e131a029b85045b68181585d97816a916871ca8d3c208c16d87cfd4791098d61014051907f30644e72e131a029b85045b68181585d97816a916871ca8d3c208c16d87cfd479109907f30644e72e131a029b85045b68181585d97816a916871ca8d3c208c16d87cfd47910860e051907f30644e72e131a029b85045b68181585d97816a916871ca8d3c208c16d87cfd479109907f30644e72e131a029b85045b68181585d97816a916871ca8d3c208c16d87cfd4791087f30644e72e131a029b85045b68181585d97816a916871ca8d3c208c16d87cfd479109907f30644e72e131a029b85045b68181585d97816a916871ca8d3c208c16d87cfd479108947f30644e72e131a029b85045b68181585d97816a916871ca8d3c208c16d87cfd47910992817f30644e72e131a029b85045b68181585d97816a916871ca8d3c208c16d87cfd4760038309907f30644e72e131a029b85045b68181585d97816a916871ca8d3c208c16d87cfd4791099160037f30644e72e131a029b85045b68181585d97816a916871ca8d3c208c16d87cfd479109907f30644e72e131a029b85045b68181585d97816a916871ca8d3c208c16d87cfd479109907f30644e72e131a029b85045b68181585d97816a916871ca8d3c208c16d87cfd4791087f30644e72e131a029b85045b68181585d97816a916871ca8d3c208c16d87cfd479109907f30644e72e131a029b85045b68181585d97816a916871ca8d3c208c16d87cfd479108906129df916130f6565b91928061010051907f30644e72e131a029b85045b68181585d97816a916871ca8d3c208c16d87cfd4791098661014051907f30644e72e131a029b85045b68181585d97816a916871ca8d3c208c16d87cfd479109907f30644e72e131a029b85045b68181585d97816a916871ca8d3c208c16d87cfd4791086101605160027f30644e72e131a029b85045b68181585d97816a916871ca8d3c208c16d87cfd479109907f30644e72e131a029b85045b68181585d97816a916871ca8d3c208c16d87cfd47910960e0517f30644e72e131a029b85045b68181585d97816a916871ca8d3c208c16d87cfd4760028809907f30644e72e131a029b85045b68181585d97816a916871ca8d3c208c16d87cfd47910990612afa916130f6565b9460e0516101605160027f30644e72e131a029b85045b68181585d97816a916871ca8d3c208c16d87cfd479109907f30644e72e131a029b85045b68181585d97816a916871ca8d3c208c16d87cfd479109908261010051907f30644e72e131a029b85045b68181585d97816a916871ca8d3c208c16d87cfd4791098861014051907f30644e72e131a029b85045b68181585d97816a916871ca8d3c208c16d87cfd479109907f30644e72e131a029b85045b68181585d97816a916871ca8d3c208c16d87cfd4791089060027f30644e72e131a029b85045b68181585d97816a916871ca8d3c208c16d87cfd479109907f30644e72e131a029b85045b68181585d97816a916871ca8d3c208c16d87cfd479109907f30644e72e131a029b85045b68181585d97816a916871ca8d3c208c16d87cfd479108949560e0518261010051907f30644e72e131a029b85045b68181585d97816a916871ca8d3c208c16d87cfd4791098261014051907f30644e72e131a029b85045b68181585d97816a916871ca8d3c208c16d87cfd479109907f30644e72e131a029b85045b68181585d97816a916871ca8d3c208c16d87cfd479108907f30644e72e131a029b85045b68181585d97816a916871ca8d3c208c16d87cfd4791098261010051907f30644e72e131a029b85045b68181585d97816a916871ca8d3c208c16d87cfd4791098261014051907f30644e72e131a029b85045b68181585d97816a916871ca8d3c208c16d87cfd479109907f30644e72e131a029b85045b68181585d97816a916871ca8d3c208c16d87cfd47910860e051907f30644e72e131a029b85045b68181585d97816a916871ca8d3c208c16d87cfd479109907f30644e72e131a029b85045b68181585d97816a916871ca8d3c208c16d87cfd4791088261010051907f30644e72e131a029b85045b68181585d97816a916871ca8d3c208c16d87cfd4791098261014051907f30644e72e131a029b85045b68181585d97816a916871ca8d3c208c16d87cfd479109907f30644e72e131a029b85045b68181585d97816a916871ca8d3c208c16d87cfd479108907f30644e72e131a029b85045b68181585d97816a916871ca8d3c208c16d87cfd4791096101205160e051907f30644e72e131a029b85045b68181585d97816a916871ca8d3c208c16d87cfd47910990612e5f916130f6565b60087f30644e72e131a029b85045b68181585d97816a916871ca8d3c208c16d87cfd47910991610120518161010051907f30644e72e131a029b85045b68181585d97816a916871ca8d3c208c16d87cfd4791098361014051907f30644e72e131a029b85045b68181585d97816a916871ca8d3c208c16d87cfd479109907f30644e72e131a029b85045b68181585d97816a916871ca8d3c208c16d87cfd479108907f30644e72e131a029b85045b68181585d97816a916871ca8d3c208c16d87cfd4791099160e0518261010051907f30644e72e131a029b85045b68181585d97816a916871ca8d3c208c16d87cfd4791098261014051907f30644e72e131a029b85045b68181585d97816a916871ca8d3c208c16d87cfd479109907f30644e72e131a029b85045b68181585d97816a916871ca8d3c208c16d87cfd479108907f30644e72e131a029b85045b68181585d97816a916871ca8d3c208c16d87cfd4791099161010051907f30644e72e131a029b85045b68181585d97816a916871ca8d3c208c16d87cfd4791099061014051907f30644e72e131a029b85045b68181585d97816a916871ca8d3c208c16d87cfd479109907f30644e72e131a029b85045b68181585d97816a916871ca8d3c208c16d87cfd47910860e051907f30644e72e131a029b85045b68181585d97816a916871ca8d3c208c16d87cfd479109907f30644e72e131a029b85045b68181585d97816a916871ca8d3c208c16d87cfd47910860e051907f30644e72e131a029b85045b68181585d97816a916871ca8d3c208c16d87cfd479109907f30644e72e131a029b85045b68181585d97816a916871ca8d3c208c16d87cfd47910860087f30644e72e131a029b85045b68181585d97816a916871ca8d3c208c16d87cfd4791099091565b7f30644e72e131a029b85045b68181585d97816a916871ca8d3c208c16d87cfd4791820390828211613126570890565b7f4e487b7100000000000000000000000000000000000000000000000000000000600052601160045260246000fdfea2646970667358221220c663df28af2134d5c73728730b50173fedaf9abea4902baf77b6260517a7d86e64736f6c63430008180033",
  "linkReferences": {},
  "deployedLinkReferences": {}
}