{
  "_format": "hh-sol-artifact-1",
  "contractName": "AccessControlContract",
  "sourceName": "contracts/main/AccessControlContract.sol",
  "abi": [
    {
      "inputs": [
        {
          "internalType": "uint256[4]",
          "name": "input",
          "type": "uint256[4]"
        }
      ],
      "name": "BNAddFailed",
      "type": "error"
    },
    {
      "inputs": [
        {
          "internalType": "bytes",
          "name": "dst",
          "type": "bytes"
        }
      ],
      "name": "InvalidDSTLength",
      "type": "error"
    },
    {
      "inputs": [
        {
          "internalType": "uint256",
          "name": "x",
          "type": "uint256"
        }
      ],
      "name": "InvalidFieldElement",
      "type": "error"
    },
    {
      "inputs": [
        {
          "internalType": "uint256",
          "name": "noSqrt",
          "type": "uint256"
        }
      ],
      "name": "MapToPointFailed",
      "type": "error"
    },
    {
      "inputs": [
        {
          "internalType": "uint256",
          "name": "base",
          "type": "uint256"
        },
        {
          "internalType": "uint256",
          "name": "exponent",
          "type": "uint256"
        },
        {
          "internalType": "uint256",
          "name": "modulus",
          "type": "uint256"
        }
      ],
      "name": "ModExpFailed",
      "type": "error"
    },
    {
      "anonymous": false,
      "inputs": [
        {
          "indexed": false,
          "internalType": "bytes",
          "name": "calculatedPayload",
          "type": "bytes"
        }
      ],
      "name": "DebugPayload",
      "type": "event"
    },
    {
      "anonymous": false,
      "inputs": [
        {
          "indexed": false,
          "internalType": "string",
          "name": "agentDID",
          "type": "string"
        },
        {
          "indexed": false,
          "internalType": "string",
          "name": "actionIdentifier",
          "type": "string"
        },
        {
          "indexed": false,
          "internalType": "string",
          "name": "resourceIdentifier",
          "type": "string"
        },
        {
          "indexed": false,
          "internalType": "uint256",
          "name": "expiry",
          "type": "uint256"
        }
      ],
      "name": "TokenIssued",
      "type": "event"
    },
    {
      "inputs": [
        {
          "internalType": "bytes32",
          "name": "",
          "type": "bytes32"
        }
      ],
      "name": "_policies",
      "outputs": [
        {
          "internalType": "uint8",
          "name": "requiredSigs",
          "type": "uint8"
        },
        {
          "internalType": "uint256",
          "name": "nonce",
          "type": "uint256"
        },
        {
          "internalType": "bool",
          "name": "exists",
          "type": "bool"
        }
      ],
      "stateMutability": "view",
      "type": "function"
    },
    {
      "inputs": [
        {
          "internalType": "string",
          "name": "agentDID",
          "type": "string"
        },
        {
          "internalType": "string",
          "name": "resourceIdentifier",
          "type": "string"
        },
        {
          "internalType": "string",
          "name": "actionIdentifier",
          "type": "string"
        }
      ],
      "name": "evaluate",
      "outputs": [
        {
          "components": [
            {
              "internalType": "string",
              "name": "agentDID",
              "type": "string"
            },
            {
              "internalType": "string",
              "name": "actionIdentifier",
              "type": "string"
            },
            {
              "internalType": "string",
              "name": "resourceIdentifier",
              "type": "string"
            },
            {
              "internalType": "uint256",
              "name": "expiry",
              "type": "uint256"
            }
          ],
          "internalType": "struct IACC.AccessToken",
          "name": "token",
          "type": "tuple"
        }
      ],
      "stateMutability": "nonpayable",
      "type": "function"
    },
    {
      "inputs": [
        {
          "internalType": "string",
          "name": "resourceIdentifier",
          "type": "string"
        },
        {
          "internalType": "string",
          "name": "actionIdentifier",
          "type": "string"
        }
      ],
      "name": "getPolicy",
      "outputs": [
        {
          "components": [
            {
              "internalType": "enum IACC.PolicyType",
              "name": "policyType",
              "type": "uint8"
            },
            {
              "internalType": "bytes",
              "name": "policyParameters",
              "type": "bytes"
            }
          ],
          "internalType": "struct IACC.Policy[]",
          "name": "",
          "type": "tuple[]"
        }
      ],
      "stateMutability": "view",
      "type": "function"
    },
    {
      "inputs": [
        {
          "components": [
            {
              "internalType": "string",
              "name": "agentDID",
              "type": "string"
            },
            {
              "internalType": "string",
              "name": "actionIdentifier",
              "type": "string"
            },
            {
              "internalType": "string",
              "name": "resourceIdentifier",
              "type": "string"
            },
            {
              "internalType": "uint256",
              "name": "expiry",
              "type": "uint256"
            }
          ],
          "internalType": "struct IACC.AccessToken",
          "name": "token",
          "type": "tuple"
        }
      ],
      "name": "getTokenHash",
      "outputs": [
        {
          "internalType": "bytes32",
          "name": "",
          "type": "bytes32"
        }
      ],
      "stateMutability": "pure",
      "type": "function"
    },
    {
      "inputs": [
        {
          "components": [
            {
              "internalType": "string",
              "name": "resourceIdentifier",
              "type": "string"
            },
            {
              "internalType": "string",
              "name": "actionIdentifier",
              "type": "string"
            },
            {
              "internalType": "string",
              "name": "policyTypeStr",
              "type": "string"
            },
            {
              "components": [
                {
                  "internalType": "string",
                  "name": "key",
                  "type": "string"
                },
                {
                  "internalType": "string",
                  "name": "value",
                  "type": "string"
                }
              ],
              "internalType": "struct IACC.KV[]",
              "name": "policyParameters",
              "type": "tuple[]"
            },
            {
              "internalType": "uint8",
              "name": "requiredSigs",
              "type": "uint8"
            },
            {
              "internalType": "uint256[2]",
              "name": "aggSig",
              "type": "uint256[2]"
            },
            {
              "internalType": "uint8",
              "name": "pksMask",
              "type": "uint8"
            }
          ],
          "internalType": "struct IACC.RegisterPolicyParams",
          "name": "params",
          "type": "tuple"
        }
      ],
      "name": "registerPolicy",
      "outputs": [
        {
          "internalType": "bool",
          "name": "",
          "type": "bool"
        }
      ],
      "stateMutability": "nonpayable",
      "type": "function"
    },
    {
      "inputs": [
        {
          "components": [
            {
              "internalType": "string",
              "name": "resourceIdentifier",
              "type": "string"
            },
            {
              "internalType": "string",
              "name": "actionIdentifier",
              "type": "string"
            },
            {
              "internalType": "string",
              "name": "policyTypeStr",
              "type": "string"
            },
            {
              "components": [
                {
                  "internalType": "string",
                  "name": "key",
                  "type": "string"
                },
                {
                  "internalType": "string",
                  "name": "value",
                  "type": "string"
                }
              ],
              "internalType": "struct IACC.KV[]",
              "name": "policyParameters",
              "type": "tuple[]"
            },
            {
              "internalType": "uint256[2]",
              "name": "aggSig",
              "type": "uint256[2]"
            },
            {
              "internalType": "uint8",
              "name": "pksMask",
              "type": "uint8"
            }
          ],
          "internalType": "struct IACC.RemovePolicyParams",
          "name": "params",
          "type": "tuple"
        }
      ],
      "name": "removePolicy",
      "outputs": [
        {
          "internalType": "bool",
          "name": "",
          "type": "bool"
        }
      ],
      "stateMutability": "nonpayable",
      "type": "function"
    },
    {
      "inputs": [],
      "name": "systemThreatLevel",
      "outputs": [
        {
          "internalType": "string",
          "name": "",
          "type": "string"
        }
      ],
      "stateMutability": "view",
      "type": "function"
    },
    {
      "inputs": [
        {
          "internalType": "bytes32",
          "name": "tokenHash",
          "type": "bytes32"
        }
      ],
      "name": "verifyTokenHash",
      "outputs": [
        {
          "internalType": "bool",
          "name": "",
          "type": "bool"
        }
      ],
      "stateMutability": "view",
      "type": "function"
    }
  ],
  "bytecode": "0x6080346200043a5760a08101906001600160401b03821181831017620004245760409182526200002e6200043f565b907f0febc527fc610e05784552f398809fed7b36fb242e8d780f82968000b861154d82526020917f2d9b0820eaadca6c70bf7c0696eb6895c544a8ed7281129e93fcb6917c676727838201527f27575aec04b577018dfebc1b9f25e97cefbbc3c8c2d3aeb1f8d45ed464e70450848201526060907f2452213c3c8b58668d5268980fb7fe1d912a74cfaca609a30bdab68896ea57b4828201528252620000d36200043f565b7f2455d2a03728b500c4cc0ad271911e4bc8dd42633ac5bd7438af0a2a80a3f12c81527f2db4731fcbe3dda6e39fc20728f18e8631bc55419f7ea88d0392d259ef48045b848201527f2e9c1e51795148332cecab28e17c895123ba22a5ba56c1389af86ecce718c514858201527f0f1d27edf7bdc1bf49fa69878aed52a52431263840bf1780b6c1edb8cb91fa3f8282015283830152620001736200043f565b7f15aa22779ac75bcf9f2136febade4e3b0007c31c9f6f1cfc03bdbea89386b24881527f0a22035c14940c675e9522932e4258941312afb004169ae6894d3478edc307f3848201527f16d89a57ad3871d717a8e73e0b74fe6deb64c9942090441a258827c1e873618b858201527f077d884f73738abc1ac46af75e3e7d234cacc09df571bdd04de53becd04da9f58282015284830152620002136200043f565b7f0b67e6f405e955a705552cc20c5843788dc1181a9f7b8feed46eb9fbfc79153681527f2dbd0a425af318a1c89601f956003df338c766dfa98c14175f19da7dcc775c8c848201527f2a1188f241747a55cae36b5bca25b031d0a839b1dac8308259c33edb65eb6e94858201527f170c2f98625e5d1a5222e2b99e25e433b9c43bc158278440ac1c0dabc19bd80882820152818301527f1258bb75e0970e7fdb7f9e16afe3d876ee996ce9f026f736f002f133ab0d8b44620002d46200043f565b917f1694aac85acd836afa535ba41366e1897a03a2948ab1514049f8e67efd585f9c83527f2dcb07e629ce8de88cbac1ee7640f3bcd074db30cb1eff4fa2275ee623d3300b858401527f1d8bb91d1944398523f23eb77f4512cd2bcd85cc378ff81b8f0f32a342fed51a8684015282015260808201526000906000905b60058210620003eb57505050601654600191600182811c92168015620003e0575b81831014620003ca57601f8211620003a1575b6006626c6f7760e81b01601655835161445c9081620004608239f35b601f906016600052600020910160051c8101905b818110156200038557600081558201620003b5565b634e487b7160e01b600052602260045260246000fd5b91607f169162000372565b83815160005b600481106200040f5750506004906001920193019101909162000351565b815186820155869290910190600101620003f1565b634e487b7160e01b600052604160045260246000fd5b600080fd5b60405190608082016001600160401b03811183821017620004245760405256fe6080604052600436101561001257600080fd5b6000803560e01c90816301eb0e591461008a575080632e06aac61461008557806367f76ad2146100805780636fec6a9a1461007b5780638309435a14610076578063aa10d77e146100715763df1a4f431461006c57600080fd5b610afc565b61090d565b61058a565b610339565b6102d7565b6101cc565b346100f3577ffffffffffffffffffffffffffffffffffffffffffffffffffffffffffffffffc906020823601126100f3576004359167ffffffffffffffff83116100f6576101009083360301126100f35760206100e9836004016112a6565b6040519015158152f35b80fd5b5080fd5b9181601f840112156101285782359167ffffffffffffffff8311610128576020838186019501011161012857565b600080fd5b6003111561013757565b7f4e487b7100000000000000000000000000000000000000000000000000000000600052602160045260246000fd5b60005b8381106101795750506000910152565b8181015183820152602001610169565b907fffffffffffffffffffffffffffffffffffffffffffffffffffffffffffffffe0601f6020936101c581518092818752878088019101610166565b0116010190565b34610128576040807ffffffffffffffffffffffffffffffffffffffffffffffffffffffffffffffffc3601126101285767ffffffffffffffff6004358181116101285761021d9036906004016100fa565b90602435928311610128576102396102419336906004016100fa565b92909161159a565b815190602080830181845282518091528484019180868360051b8701019401926000965b8388106102725786860387f35b909192939483806102c6837fffffffffffffffffffffffffffffffffffffffffffffffffffffffffffffffc08b6001960301875285838b5180516102b58161012d565b845201519181858201520190610189565b970193019701969093929193610265565b346101285760207ffffffffffffffffffffffffffffffffffffffffffffffffffffffffffffffffc3601126101285760043560005260146020526020604060002054801515908161032e575b506040519015158152f35b905042111538610323565b34610128577ffffffffffffffffffffffffffffffffffffffffffffffffffffffffffffffffc602081360112610128576004359067ffffffffffffffff82116101285760e082600401918336030112610128576103968180610bdd565b929060248201936103a78585610bdd565b916103b193611881565b916103c6836000526015602052604060002090565b9360038501546103d69060ff1690565b6103df9061162b565b6103ec6064840183610c2e565b90604051809160208201936104019185610d11565b037fffffffffffffffffffffffffffffffffffffffffffffffffffffffffffffffe08101825261043190826108cc565b519020926044810193806104458686610bdd565b61044e916118db565b906104599189611ed6565b946104648580610bdd565b9590946104719082610bdd565b9261047c9192610bdd565b91909260c4860161048c90610e05565b96610495610a2f565b9861049f8d611690565b8a5236906104ac92610a79565b602089015236906104bc92610a79565b604087015236906104cc92610a79565b606085015260808401526104e4903690608401611207565b60a083015260ff1660c08201526104fa90611fe6565b61050392612332565b60405160018152602090f35b0390f35b6020815260806060610581610533855184602087015260a0860190610189565b61056d6020870151917fffffffffffffffffffffffffffffffffffffffffffffffffffffffffffffffe09283888303016040890152610189565b906040870151908683030184870152610189565b93015191015290565b34610128576060807ffffffffffffffffffffffffffffffffffffffffffffffffffffffffffffffffc3601126101285767ffffffffffffffff90600435828111610128576105dc9036906004016100fa565b602435848111610128576105f49036906004016100fa565b9290946044359081116101285761050f957f31f2a9a1648ad524dab76bf973a43a9ef82147d8a007802be67f77b17e167474946106386106e39336906004016100fa565b60008960409593955161064a81610857565b818152816020820152816040820152015261067161066c828686868c8c6125b3565b6116d0565b61067a42611764565b610682610a3e565b9961068e368a8a610a79565b8b5261069b368488610a79565b60208c01526106ab368686610a79565b60408c01528a019081526106be8a6117d7565b6106d48251916000526014602052604060002090565b55519360405197889788611794565b0390a160405191829182610513565b7f4e487b7100000000000000000000000000000000000000000000000000000000600052600060045260246000fd5b90600182811c9216801561076a575b602083101461073b57565b7f4e487b7100000000000000000000000000000000000000000000000000000000600052602260045260246000fd5b91607f1691610730565b80546000939261078382610721565b918282526020936001916001811690816000146107eb57506001146107aa575b5050505050565b90939495506000929192528360002092846000945b8386106107d7575050505001019038808080806107a3565b8054858701830152940193859082016107bf565b7fffffffffffffffffffffffffffffffffffffffffffffffffffffffffffffff00168685015250505090151560051b0101915038808080806107a3565b7f4e487b7100000000000000000000000000000000000000000000000000000000600052604160045260246000fd5b6080810190811067ffffffffffffffff82111761087357604052565b610828565b6040810190811067ffffffffffffffff82111761087357604052565b60e0810190811067ffffffffffffffff82111761087357604052565b60c0810190811067ffffffffffffffff82111761087357604052565b90601f7fffffffffffffffffffffffffffffffffffffffffffffffffffffffffffffffe0910116810190811067ffffffffffffffff82111761087357604052565b34610128576000807ffffffffffffffffffffffffffffffffffffffffffffffffffffffffffffffffc3601126100f3576040519080826016549161095083610721565b92838352602094600191866001821691826000146109ee575050600114610994575b5050610980925003836108cc565b61050f604051928284938452830190610189565b90859250601682527fd833147d7dc355ba459fc788f669e58cfaf9dc25ddcd0702e87d69c7b51242895b8583106109d657505061098093508201013880610972565b805483890185015287945086939092019181016109be565b915093506109809592507fffffffffffffffffffffffffffffffffffffffffffffffffffffffffffffff0091501682840152151560051b8201013880610972565b60405190610a3c82610894565b565b60405190610a3c82610857565b60405190610a3c82610878565b60405190610180820182811067ffffffffffffffff82111761087357604052565b92919267ffffffffffffffff82116108735760405191610ac160207fffffffffffffffffffffffffffffffffffffffffffffffffffffffffffffffe0601f84011601846108cc565b829481845281830111610128578281602093846000960137010152565b9080601f8301121561012857816020610af993359101610a79565b90565b34610128577ffffffffffffffffffffffffffffffffffffffffffffffffffffffffffffffffc6020813601126101285760043567ffffffffffffffff9182821161012857608090823603011261012857604051610b5881610857565b816004013583811161012857610b749060043691850101610ade565b8152602482013583811161012857610b929060043691850101610ade565b60208201526044820135928311610128576064610bcd92610bbc61050f9560043691840101610ade565b6040840152013560608201526117d7565b6040519081529081906020820190565b9035907fffffffffffffffffffffffffffffffffffffffffffffffffffffffffffffffe181360301821215610128570180359067ffffffffffffffff82116101285760200191813603831361012857565b9035907fffffffffffffffffffffffffffffffffffffffffffffffffffffffffffffffe181360301821215610128570180359067ffffffffffffffff821161012857602001918160051b3603831361012857565b90357fffffffffffffffffffffffffffffffffffffffffffffffffffffffffffffffe18236030181121561012857016020813591019167ffffffffffffffff821161012857813603831361012857565b601f82602094937fffffffffffffffffffffffffffffffffffffffffffffffffffffffffffffffe0938186528686013760008582860101520116010190565b6020928084830185845252604093604083019260408360051b8201019585600080935b868510610d475750505050505050505090565b9091929394959697987fffffffffffffffffffffffffffffffffffffffffffffffffffffffffffffffc082820301895289357fffffffffffffffffffffffffffffffffffffffffffffffffffffffffffffffc185360301811215610df55787610de46001938783940190610dd7610dcd610dc18480610c82565b8d85528d850191610cd2565b9285810190610c82565b9185818503910152610cd2565b9b0199019796950193929190610d34565b8380fd5b610e028261012d565b52565b3560ff811681036101285790565b15610e1a57565b60646040517f08c379a000000000000000000000000000000000000000000000000000000000815260206004820152601a60248201527f4143433a20696e76616c696420736967207468726573686f6c640000000000006044820152fd5b7f4e487b7100000000000000000000000000000000000000000000000000000000600052603260045260246000fd5b8054821015610ec35760005260206000209060011b0190600090565b610e78565b90610ed28161012d565b60ff7fffffffffffffffffffffffffffffffffffffffffffffffffffffffffffffff008354169116179055565b818110610f0a575050565b60008155600101610eff565b9190601f8111610f2557505050565b610a3c926000526020600020906020601f840160051c83019310610f51575b601f0160051c0190610eff565b9091508190610f44565b919082546801000000000000000081101561087357610f8290600194600182018155610ea7565b6110d757600190610f9d8351610f978161012d565b82610ec8565b01906020809101519384519167ffffffffffffffff831161087357610fcc83610fc68654610721565b86610f16565b602091601f841160011461102d575050819061101e939495600092611022575b50507fffffffffffffffffffffffffffffffffffffffffffffffffffffffffffffffff8260011b9260031b1c19161790565b9055565b015190503880610fec565b957fffffffffffffffffffffffffffffffffffffffffffffffffffffffffffffffe084939293169661106486600052602060002090565b936000915b8983106110c05750505083600195969710611089575b505050811b019055565b01517fffffffffffffffffffffffffffffffffffffffffffffffffffffffffffffffff60f88460031b161c1916905538808061107f565b838501518655948501949381019391810191611069565b6106f2565b9382879695829460409b9996948237019160008352823701916000835282370191825260208201520190565b6040519061111582610878565b600382527f41434300000000000000000000000000000000000000000000000000000000006020830152565b6040519061114e82610857565b6080368337565b6040519061116282610878565b6040368337565b604051906020820182811067ffffffffffffffff821117610873576040526020368337565b6040519061119b826108b0565b60c0368337565b156111a957565b60646040517f08c379a000000000000000000000000000000000000000000000000000000000815260206004820152601760248201527f4143433a206e6f7420656e6f756768207369676e6572730000000000000000006044820152fd5b91906040519261121684610878565b83906040810192831161012857905b82821061123157505050565b8135815260209182019101611225565b1561124857565b60646040517f08c379a000000000000000000000000000000000000000000000000000000000815260206004820152601a60248201527f4143433a206167672d73696720766572696679206661696c65640000000000006044820152fd5b6112ce6112de6112b68380610bdd565b6020850193916112c68587610bdd565b929091611881565b6000526015602052604060002090565b604083016112f56112ef8286610bdd565b906118db565b926113196113066060870187610c2e565b6040516020810193909283929085610d11565b039361134b7fffffffffffffffffffffffffffffffffffffffffffffffffffffffffffffffe0958681018452836108cc565b61135d611356610a4b565b9788610df9565b81602088015260038601611379611375825460ff1690565b1590565b61145557506113f36113b96113e661144b97611445976113da8d8c6114509f9a6114369a6114409a60026113c16113b08780610bdd565b9c909988610bdd565b939097610bdd565b949093519020940154946040519a8b9860208a016110dc565b039081018352826108cc565b6113ee611108565b6119ff565b926113fc611141565b5061141161140c60e08301610e05565b611cd3565b60ff61142d61142760018c989598015460ff1690565b60ff1690565b911610156111a2565b60a0369101611207565b611db4565b50611241565b610f5b565b600190565b935050505061144b91506114b86114876080611450970161148260ff61147a83610e05565b161515610e13565b610e05565b600185019060ff167fffffffffffffffffffffffffffffffffffffffffffffffffffffffffffffff00825416179055565b60017fffffffffffffffffffffffffffffffffffffffffffffffffffffffffffffff00825416179055565b90610a3c6114f79260405193848092610774565b03836108cc565b90815467ffffffffffffffff8111610873576020926040936040519461152a60208560051b01876108cc565b83865260208601926000526020600020906000935b85851061154e57505050505050565b600284600192845161155f81610878565b60ff87541661156d8161012d565b815285516115888161158181898c01610774565b03826108cc565b8382015281520193019401939161153f565b906115a6939291611881565b6000526015602052604060002060ff600382015416611622576040517f08c379a000000000000000000000000000000000000000000000000000000000815260206004820152601560248201527f4143433a20706f6c696379206e6f7420666f756e6400000000000000000000006044820152606490fd5b0390fd5b610af9906114fe565b1561163257565b60646040517f08c379a000000000000000000000000000000000000000000000000000000000815260206004820152601960248201527f4143433a20706f6c6963792d736574206e6f7420666f756e64000000000000006044820152fd5b9060405161169d81610857565b606060ff600383956116ae816114fe565b8552826001820154166020860152600281015460408601520154161515910152565b156116d757565b60646040517f08c379a000000000000000000000000000000000000000000000000000000000815260206004820152601160248201527f4143433a20556e617574686f72697a65640000000000000000000000000000006044820152fd5b7f4e487b7100000000000000000000000000000000000000000000000000000000600052601160045260246000fd5b90610e10820180921161177357565b611735565b906001820180921161177357565b600101908160011161177357565b97969591926117d2946117b66117c4936060989660808d5260808d0191610cd2565b918a830360208c0152610cd2565b918783036040890152610cd2565b930152565b80519061187b60436020808401516060604086015195015160405195836118618161180c8a9788019b8c815193849201610166565b8601947f7c000000000000000000000000000000000000000000000000000000000000009586848201526118498251809386602185019101610166565b01918560218401528351938491602285019101610166565b0191602283015260238201520360238101845201826108cc565b51902090565b929161187b91836021926040519583879460208601998a378401917f7c00000000000000000000000000000000000000000000000000000000000000602084015285830137016000838201520360018101845201826108cc565b6118e6913691610a79565b602081519101207fb3e71936029ea100264457a898dcb589dd7ef1f9c03768f6d110e3d43558029d81146119cb577f89b51e83cb3fc3ff6274369bee8b175aeaa38ae40d40277bc6c12974f383a6fd81146119c5577f0f7993c1cc9e18041afdbf383610eddf76760e765912de5665a4361729fb207d146119c0576040517f08c379a000000000000000000000000000000000000000000000000000000000815260206004820152601860248201527f4143433a20756e6b6e6f776e20706f6c696379207479706500000000000000006044820152606490fd5b600290565b50600190565b50600090565b6080810192916000915b600483106119e857505050565b6001908251815260208091019201920191906119db565b90611a08611155565b506040808051611a1781610878565b36903782519260ff8411611c6a5760ff611a2f612bda565b94169382519081611a4887856020988985019586612c29565b0391611a7a7fffffffffffffffffffffffffffffffffffffffffffffffffffffffffffffffe0938481018352826108cc565b51902091835185810190611aa081611a948a868987612cbb565b038581018352826108cc565b51902095611aac612bf5565b936001926001945b60038610611bf557505050505050611b5b81856060611b6294015277ffffffffffffffffffffffffffffffffffffffffffffffff80601883015116907f30644e72e131a029b85045b68181585d97816a916871ca8d3c208c16d87cfd478092826048838260308901511681780100000000000000000000000000000000000000000000000080960908960151169289611b4b610a4b565b878152019a16920908865261285f565b935161285f565b91611b6b611141565b9284518452818501518285015280518385015201516060830152611bb7818460808560067ffffffffffffffffffffffffffffffffffffffffffffffffffffffffffffff8305a01fa1590565b611bc057505090565b61161e9250519182917f128e3f08000000000000000000000000000000000000000000000000000000008352600483016119d1565b909192938383879b8b7fffffffffffffffffffffffffffffffffffffffffffffffffffffffffffffffff8a611c538e611c478d8a9f611427611c3691611786565b9251988993898986019c188c612d2d565b038981018752866108cc565b0160051b8b01015251902099019493929190611ab4565b61161e91519182917f26e4f9ba00000000000000000000000000000000000000000000000000000000835260048301612bc9565b60ff1660ff81146117735760010190565b6005811015610ec35760021b90600090565b60ff60019116019060ff821161177357565b611cdb611141565b6000805b60ff8082166005811015611daa576001901b851616611d07575b611d0290611c9e565b611cdf565b90611da2611d0291845160208601805190611d9360408901938885519460608c01958651611d3484611caf565b505491611d5a611d50611d4687611caf565b5060010190600090565b90549060031b1c90565b93611d8d611d50611d83611d7d611d50611d738b611caf565b5060020190600090565b98611caf565b5060030190600090565b96612a93565b90929591945252528552611cc1565b919050611cf9565b5050509291509190565b604060209283610180969581611dc8610a58565b95805187520151828601527f198e9393920d483a7260bfb731fb5d25f1aa493335a9e71297e485b7aef312c2848601527f1800deef121f1e76426a00665e5c4479674322d4f75edadd46debd5cd992f6ed60608601527f275dc4a288d1afb3cbb1ac09187524c7db36395df7be3b99e673b13a075a65ec60808601527f1d9befcd05a5323e6da4d435f3b617cdb3af83285c2df711ef39c01571827f9d60a0860152805160c0860152015160e084015283810151610100840152805161012084015260608101516101408401520151610160820152611ea5611169565b93849160087ffffffffffffffffffffffffffffffffffffffffffffffffffffffffffffff8305a01fa915115159190565b9160005b8354811015611f4c57611eed8185610ea7565b50828460ff835416611efe8261012d565b611f078161012d565b149182611f24575b5050611f1d57600101611eda565b9250505090565b6001919250611f3d906115816040518094819301610774565b60208151910120148238611f0f565b6040517f08c379a000000000000000000000000000000000000000000000000000000000815260206004820152601560248201527f4143433a20706f6c696379206e6f7420666f756e6400000000000000000000006044820152606490fd5b60208093611fcb82611fd994611fcb60409b999782815194859201610166565b019182815194859201610166565b0191825260208201520190565b611445610a3c9161208560a061205260208401516113e66040860151916120266060880151608089015160408a5101519160405196879560208701611fab565b037fffffffffffffffffffffffffffffffffffffffffffffffffffffffffffffffe081018352826108cc565b9261205b611141565b5061206d61140c60c083015160ff1690565b60ff61142d611427602086989598510160ff90511690565b0151611db4565b907f30644e72e131a029b85045b68181585d97816a916871ca8d3c208c16d87cfd4791820391821161177357565b9190918281146121fd576120ce8354610721565b67ffffffffffffffff8111610873576120f1816120eb8454610721565b84610f16565b600093601f821160011461214b5761101e92939482916000926121405750507fffffffffffffffffffffffffffffffffffffffffffffffffffffffffffffffff8260011b9260031b1c19161790565b015490503880610fec565b61217d7fffffffffffffffffffffffffffffffffffffffffffffffffffffffffffffffe0831691600052602060002090565b9461218d84600052602060002090565b91815b8181106121e5575095836001959697106121ae57505050811b019055565b01547fffffffffffffffffffffffffffffffffffffffffffffffffffffffffffffffff60f88460031b161c1916905538808061107f565b87830154845560019384019390920191602001612190565b509050565b906110d75760016000918281550161221a8154610721565b8061222457505050565b82601f821160011461223557505055565b9091808252612253601f60208420940160051c840160018501610eff565b5555565b8054906000918282558061227a575b508082600160039301558260028201550155565b60017f7fffffffffffffffffffffffffffffffffffffffffffffffffffffffffffffff821682036117735782845260208085209260011b8301925b8381106122c457505050612266565b808660029255868482016122d88154610721565b806122e7575b505050016122b5565b86601f80831160011461230157505050555b8638806122de565b93839052868b2061232d9461231d930160051c81019101610eff565b6000908082528160208120915555565b6122f9565b908154907fffffffffffffffffffffffffffffffffffffffffffffffffffffffffffffffff91828101908111611773578082036123f0575b505081549081156123c157600291019161238d6123878483610ea7565b90612202565b8281550161239b8154611778565b9055156123a55750565b6123bc610a3c916000526015602052604060002090565b612257565b7f4e487b7100000000000000000000000000000000000000000000000000000000600052603160045260246000fd5b6123fd6124059185610ea7565b509184610ea7565b6110d75780821461236a576001808361242560ff61242d96541685610ec8565b0191016120ba565b388061236a565b90816020910312610128575160038110156101285790565b90816020910312610128575180151581036101285790565b91906040835260006016549061247982610721565b91826040870152606060019160018116908160001461250a57506001146124af575b505060209150936124ab8361012d565b0152565b601660009081529392507fd833147d7dc355ba459fc788f669e58cfaf9dc25ddcd0702e87d69c7b51242895b8385106124f557505050506060602091850101388061249b565b805485890183015260209094019382016124db565b90506060935060209492507fffffffffffffffffffffffffffffffffffffffffffffffffffffffffffffff0091501682870152151560051b850101388061249b565b6040513d6000823e3d90fd5b519063ffffffff8216820361012857565b90816080910312610128576125ab60606040519261258684610857565b80518452602081015160208501526125a060408201612558565b604085015201612558565b606082015290565b9490936125c3936112ce93611881565b916125d5611375600385015460ff1690565b6128575760005b835481101561284e576125ef8185610ea7565b50805460ff166125fe8161012d565b806126ff5750600161261091016114e3565b61268b8151612629602093848080948301019101612569565b604051809381927f28f0ed18000000000000000000000000000000000000000000000000000000008352600483019190916060608082019380518352602081015160208401528160408201519163ffffffff8093166040860152015116910152565b038173__$02ad9ba44d5f8b108eb8cb9d26cfd8bba9$__5af49182156126fa576000926126cd575b5050156126c4576001905b016125dc565b50505050600090565b6126ec9250803d106126f3575b6126e481836108cc565b81019061244c565b38806126b3565b503d6126da565b61254c565b6127088161012d565b60019080820361273457505050612720368484610a79565b60208151910120156126c4576001906126be565b8061274060029261012d565b036127ef5761274f91016114e3565b61279b8151612768602093848080948301019101612434565b604051809381927f7e2157cb00000000000000000000000000000000000000000000000000000000835260048301612464565b038173__$ed72d0048cc008b4b5e9604803f3e23f0f$__5af49182156126fa576000926127d2575b5050156126c4576001906126be565b6127e89250803d106126f3576126e481836108cc565b38806127c3565b6040517f08c379a000000000000000000000000000000000000000000000000000000000815260206004820152601860248201527f4143433a20756e6b6e6f776e20706f6c696379207479706500000000000000006044820152606490fd5b50505050600190565b505050600190565b90612868611155565b917f30644e72e131a029b85045b68181585d97816a916871ca8d3c208c16d87cfd4780821015612a2b57806004818480090990600191816128ac818386089261208c565b840890828080808078016789af3a83522eb353c98fc6b36d713d5d8d1cc5dffffffa818b816128dd818b8d09613971565b9a8b920909099581806128ef8961208c565b98817f183227397098d014dc2822db40c0ac2ecbc0b548b438e5469e10460b6c3e7ea39a8b0899089680090980097f10216f7ba065e00de81ac1e7808072c9dd2b2385cd7b438469602eb24829a9bd098508908360038185818180090908938561295886612d74565b60000b036129d157505050855261296e81612ea2565b9060208701521561299e57505b6020840191825191808316911603612991575050565b61299a9061208c565b9052565b6040517f396ec7710000000000000000000000000000000000000000000000000000000081526004810191909152602490fd5b9193509150806003818481818009090892846129ec85612d74565b60000b03612a125750508552612a0181612ea2565b9060208701521561299e575061297b565b81935060039250808852818180090908612a0181612ea2565b6040517fd53e941500000000000000000000000000000000000000000000000000000000815260048101839052602490fd5b15612a6457565b7f4e487b7100000000000000000000000000000000000000000000000000000000600052600160045260246000fd5b979497969596801580612bc1575b80612bb9575b80612bb1575b15612b075750505050801580612aff575b80612af7575b80612aef575b15612ad6575b93929190565b612aea612ae584868885613604565b612a5d565b612ad0565b508215612aca565b508315612ac4565b508415612abe565b849895989796971580612ba9575b80612ba1575b80612b99575b612b815791612b7997959391612b56979593612b42612ae585858585613604565b612b51612ae589898989613604565b6136b0565b8051906020810151604082015160608301519160a0608085015194015194613899565b929391929091565b935096935094509250612ad0612ae584868885613604565b508715612b21565b508615612b1b565b508515612b15565b508315612aad565b508215612aa7565b508115612aa1565b906020610af9928181520190610189565b60405190612be7826108b0565b6088825260a0366020840137565b60405190612c0282610857565b6060808352366020840137565b60405190612c1c82610894565b60c0808352366020840137565b7fff0000000000000000000000000000000000000000000000000000000000000092612c6660208093611fcb600499989682815194859201610166565b01600081527f6000000000000000000000000000000000000000000000000000000000000000600182015260006002820152612cac825180936020600385019101610166565b019160f81b1660038201520190565b91602293927fff000000000000000000000000000000000000000000000000000000000000009281527f01000000000000000000000000000000000000000000000000000000000000006020820152612d1e825180936020602185019101610166565b019160f81b1660218201520190565b602294939181527fff00000000000000000000000000000000000000000000000000000000000000809360f81b166020820152612d1e825180936020602185019101610166565b612d7c612c0f565b9060c060206000828286018381528360408801528360608801528560808801527f183227397098d014dc2822db40c0ac2ecbc0b548b438e5469e10460b6c3e7ea3968760a08201527f30644e72e131a029b85045b68181585d97816a916871ca8d3c208c16d87cfd47958691015260055afa926000519315612e665750507f30644e72e131a029b85045b68181585d97816a916871ca8d3c208c16d87cfd468214612e405781151580612e35575b61299e575060000b90565b506001821415612e2a565b50507fffffffffffffffffffffffffffffffffffffffffffffffffffffffffffffffff90565b60649350604051927fc6daf7ab000000000000000000000000000000000000000000000000000000008452600484015260248301526044820152fd5b907f30644e72e131a029b85045b68181585d97816a916871ca8d3c208c16d87cfd478080808080808080808b8180808080808080808080808080808f8180828180808080808080808080809e8180808080858180808080808087819e8280808080808681808080808080809e818080808481808080808080808089819f828080808080808080808080808d819e8280808080808080888180808080809e8180808080808080808981808080809e81808080808080808080808b8180809e81808080808080808080808b8180809e818080808080808080808a818080809e8180808080808087818080808080809e8180808080808681808080808080809e8180808080808681808080808080809e8180808080808681808080808080809e8180808080808080808080808c81809e81808080808080808080808b8180809e8180808080808087818080808080809e81808080808080809781808080808581808080808080808080808b8181800909818c81818009090981808c8181800909818d818180090909098180808c8181800909818d818180090909818c818082818180090991818180090909090980098009800981808781818009099180090980098009800909800980098009800909800980098009800981808c8180828009918180828009918181800909090991800909800980098009800981808088800981808a8009818b8181800909090991800909800980098009098009800980098180808a800981808c8009818d8181800909090991800909800980098009800980090980098009800981808c8181800909918009098009800980098009800980099281808083818180090981848181800909099181808280099181808280099181818009090909099180090980098009800980098009800980098009800981808d818082800991818180090909918009098009800980098180898181800909918009098009800980099281808280099181808280099181818009090909918009098009800980098009800980098180808b8009818c8181800909099180090980098009800980098009800909800980098009800980098009818080808c8009818d818180090909818c81808281818009099181818009090909918009098009800980098009928180808381818009098184818180090909918180828009918180828009918181800909090909918009098009800981808d818082800991818180090909918009098009800980098009800980098009928181800909918009098009800980098009800980098009800992818082800991818180090909918009098009800981808d818180090991800909800980098009800980098009800992818080838009818481818009090991818082818180090991818180090909099180090980098009800981808d81808083800981848181800909099181808281818009099181818009090909918009098009800980098009818080898009818a8181800909099180090980098009928180828009918180828009918181800909090991800909800980098009800980098009800980098009818080808b8009818c81818009090981808c8181800909818d81818009090909918009098009800980099281808280099181818009090991800909800980098009800981808d81808281818009099181808281818009099181818009090909918009098009800980098009800980098180808088800981898181800909098180898181800909818a81818009090909918009098009800909800980098009800980098009928180828009918180828009918181800909090991800909800980098009800980098180808c8009818d8180828009918181800909090991800909800980098009800981808087800981888181800909099180090980098009098009800980098009800980099281808083818180090981848181800909099181808280099181808280099181818009090909099180090980098009800980098009818080808b8181800909818c81818009090981808c8181800909818d818082818180090991818180090909090991800909800980098009800980090980098009800980098009800909800980098009800992818180090991800909800980098009800980098009800980098180808c818082800991818180090909818d8180828181800909918181800909090991800909800980098180888181800909918009098009800992818180090991800909800980098009800980098009800981808d8180808381818009098184818180090909918180828181800909918180828181800909918181800909090909918009098009800980098180808a818180090981808c8181800909818d818180090909099180090980098009800992818080838181800909818481818009090991818082818180090991818082818180090991818180090909090991800909800980098180808c8009818d8181800909099180090980098009800980098180808781818009098180898181800909818a81818009090909918009098009917f30644e72e131a029b85045b68181585d97816a916871ca8d3c208c16d87cfd478380091490565b61364c6136377f054fb1321278f57b36922d1d65a0ed99e1cca4ac0e95daea09b8a53ab3dbc462956136549581816140f2565b939092613646828281816140f2565b906140f2565b929091614138565b91907f30644e72e131a029b85045b68181585d97816a916871ca8d3c208c16d87cfd479182910815918261368757505090565b7f2fcd3ac2a640a154eb23960892a85a68f031ca0c8344b23a577dcf1052b9e775919250081590565b9497969795919293956136cc6136c461118e565b998a946140aa565b9790966136f26136dc88886140aa565b94909360608801958652604088019485526140aa565b9790966136ff86846140aa565b608060a08a9993990199828b5201978089528a14908161388f575b506138155750505050505050506040860192835194606088019586519161374093614138565b608088019283519460a08a019586519161375993614138565b613765818381816140f2565b838388959395518a516137799185896140f2565b936137859391976140f2565b9890976137928a8a6140aa565b909252528b87896137a5888a81816140f2565b6137ae916140aa565b6137b89391614138565b6137c284886143f5565b916137cc93614138565b8181966137d993966140f2565b9091602001528c526137ea93614138565b916137f4936140f2565b9190928451865191613805936140f2565b9161380f93614138565b90925252565b9397509397509397869b9a9b9991959951149081613884575b50613865575050505050505050600060a0820152600060808201526000606082015260016040820152600060208201526001815290565b61386e9361417a565b9092969397919498525252526020830152815290565b90508651143861382e565b90508a143861371a565b95939195949092947f30644e72e131a029b85045b68181585d97816a916871ca8d3c208c16d87cfd479260405160208152602080820152602060408201528480838009818680090860608201527f30644e72e131a029b85045b68181585d97816a916871ca8d3c208c16d87cfd4560808201528460a082015260208160c08160057ffffffffffffffffffffffffffffffffffffffffffffffffffffffffffffff8305a01fa905190156101285784818193099309830392831161177357828261396d95613965936140f2565b9590966140f2565b9091565b807f30644e72e131a029b85045b68181585d97816a916871ca8d3c208c16d87cfd47808080808080808881808080809e8180808080808080808981808080809e8180808080808080888180808080809e8180808080808080888180808080809e8181818080808080808781808080809e8180808080808087818080808080809e8180828180808080808080808080809e8180828180808080808080808981809e818080808080808080808080808d819e8280808080808080808080808080809e8082808080808080808080808080809e80828080808080808080808080808d819f828080808080808080808a818080809e8180808080808080808981808080809e8180808080808080808981808080809e8180808080808080808981808080809e8180808080808080808080808080809e80828080808080808080808080808d819f8280808080808080808981808080809e818080808080808080809981808080808581808080808080808080808b8181800909818c81818009090981808c8181800909818d818180090909098180808c8181800909818d818180090909818c818082818180090991818180090909090980098009800981808781818009099180090980098009800909800980098009800909800980098009800981808c8180828009918180828009918181800909090991800909800980098009800981808088800981808a8009818b8181800909090991800909800980098009098009800980098180808a800981808c8009818d8181800909090991800909800980098009800980090980098009800981808c8181800909918009098009800980098009800980099281808083818180090981848181800909099181808280099181808280099181818009090909099180090980098009800980098009800980098009800981808d818082800991818180090909918009098009800980098180898181800909918009098009800980099281808280099181808280099181818009090909918009098009800980098009800980098180808b8009818c8181800909099180090980098009800980098009800909800980098009800980098009818080808c8009818d818180090909818c81808281818009099181818009090909918009098009800980098009928180808381818009098184818180090909918180828009918180828009918181800909090909918009098009800981808d818082800991818180090909918009098009800980098009800980098009928181800909918009098009800980098009800980098009800992818082800991818180090909918009098009800981808d818180090991800909800980098009800980098009800992818080838009818481818009090991818082818180090991818180090909099180090980098009800981808d81808083800981848181800909099181808281818009099181818009090909918009098009800980098009818080898009818a8181800909099180090980098009928180828009918180828009918181800909090991800909800980098009800980098009800980098009818080808b8009818c81818009090981808c8181800909818d81818009090909918009098009800980099281808280099181818009090991800909800980098009800981808d81808281818009099181808281818009099181818009090909918009098009800980098009800980098180808088800981898181800909098180898181800909818a81818009090909918009098009800909800980098009800980098009928180828009918180828009918181800909090991800909800980098009800980098180808c8009818d8180828009918181800909090991800909800980098009800981808087800981888181800909099180090980098009098009800980098009800980099281808083818180090981848181800909099181808280099181808280099181818009090909099180090980098009800980098009818080808b8181800909818c81818009090981808c8181800909818d81808281818009099181818009090909099180090980098009800980098009098009800980098009800980090980098009800980099281818009099180090980098009800980098009800980098009818080808a8009818b81818009090981808b8181800909818c818180090909099180090980098009928181800909918009098009800981808d81818009099180090980098009800980098009800980099281808083818180090981848181800909099181808281818009099181808281818009099181818009090909099180090980098009800981808d8180828181800909918180828181800909918181800909090991800909800980098009818080808b8181800909818c81818009090981808c8181800909818d81808281818009099181818009090909099180090980098009818080878009818881818009090991800909800980090980098009800980098009928180828009918181800909099180090990565b9190917f30644e72e131a029b85045b68181585d97816a916871ca8d3c208c16d87cfd4790816000850982038281116117735760008360018180948183880908970992090890565b909392917f30644e72e131a029b85045b68181585d97816a916871ca8d3c208c16d87cfd4792838187098403848111611773578285809492818094880908970992090890565b939290937f30644e72e131a029b85045b68181585d97816a916871ca8d3c208c16d87cfd47928303918383116117735783039183831161177357839108930890565b92938291857f30644e72e131a029b85045b68181585d97816a916871ca8d3c208c16d87cfd476003830982877f30644e72e131a029b85045b68181585d97816a916871ca8d3c208c16d87cfd4760038209926141d5936140f2565b90966141e183876140aa565b6141f1819b8399849884966140f2565b6141fb93916140f2565b93909761420a848b81816140f2565b7f30644e72e131a029b85045b68181585d97816a916871ca8d3c208c16d87cfd4760088809907f30644e72e131a029b85045b68181585d97816a916871ca8d3c208c16d87cfd4760088d099061425f93614138565b99819b8b979296614272878b81816140f2565b99819f7f30644e72e131a029b85045b68181585d97816a916871ca8d3c208c16d87cfd4760048d979498099260047f30644e72e131a029b85045b68181585d97816a916871ca8d3c208c16d87cfd479109926142cd93614138565b6142d793916140f2565b9390947f30644e72e131a029b85045b68181585d97816a916871ca8d3c208c16d87cfd4760088209917f30644e72e131a029b85045b68181585d97816a916871ca8d3c208c16d87cfd47600882099261432f936140f2565b61433993916140f2565b9161434393614138565b96909760027f30644e72e131a029b85045b68181585d97816a916871ca8d3c208c16d87cfd4791099260027f30644e72e131a029b85045b68181585d97816a916871ca8d3c208c16d87cfd4791099261439b936140f2565b9690976143a7936140f2565b60087f30644e72e131a029b85045b68181585d97816a916871ca8d3c208c16d87cfd4791099060087f30644e72e131a029b85045b68181585d97816a916871ca8d3c208c16d87cfd47910991565b600280919392937f30644e72e131a029b85045b68181585d97816a916871ca8d3c208c16d87cfd479283910993099056fea2646970667358221220a07a01c038d83e63c8c71f61471e7d83b98143522f68b078152f5df06b2234a264736f6c63430008180033",
  "linkReferences": {
    "contracts/lib/EnvironmentalPolicyLogic.sol": {
      "EnvironmentalPolicyLogic": [
        {
          "length": 20,
          "start": 11263
        }
      ]
    },
    "contracts/lib/TemporalPolicyLogic.sol": {
      "TemporalPolicyLogic": [
        {
          "length": 20,
          "start": 10991
        }
      ]
    }
  },
  "deployedLinkReferences": {
    "contracts/lib/EnvironmentalPolicyLogic.sol": {
      "EnvironmentalPolicyLogic": [
        {
          "length": 20,
          "start": 10143
        }
      ]
    },
    "contracts/lib/TemporalPolicyLogic.sol": {
      "TemporalPolicyLogic": [
        {
          "length": 20,
          "start": 9871
        }
      ]
    }
  }
}