{
  "_format": "hh-sol-artifact-1",
  "contractName": "AccessControlContract",
  "sourceName": "contracts/main/AccessControlContract.sol",
  "abi": [
    {
      "inputs": [
        {
          "internalType": "uint256[4]",
          "name": "input",
          "type": "uint256[4]"
        }
      ],
      "name": "BNAddFailed",
      "type": "error"
    },
    {
      "inputs": [
        {
          "internalType": "bytes",
          "name": "dst",
          "type": "bytes"
        }
      ],
      "name": "InvalidDSTLength",
      "type": "error"
    },
    {
      "inputs": [
        {
          "internalType": "uint256",
          "name": "x",
          "type": "uint256"
        }
      ],
      "name": "InvalidFieldElement",
      "type": "error"
    },
    {
      "inputs": [
        {
          "internalType": "uint256",
          "name": "noSqrt",
          "type": "uint256"
        }
      ],
      "name": "MapToPointFailed",
      "type": "error"
    },
    {
      "inputs": [
        {
          "internalType": "uint256",
          "name": "base",
          "type": "uint256"
        },
        {
          "internalType": "uint256",
          "name": "exponent",
          "type": "uint256"
        },
        {
          "internalType": "uint256",
          "name": "modulus",
          "type": "uint256"
        }
      ],
      "name": "ModExpFailed",
      "type": "error"
    },
    {
      "anonymous": false,
      "inputs": [
        {
          "indexed": false,
          "internalType": "string",
          "name": "agentDID",
          "type": "string"
        },
        {
          "indexed": false,
          "internalType": "string",
          "name": "actionIdentifier",
          "type": "string"
        },
        {
          "indexed": false,
          "internalType": "string",
          "name": "resourceIdentifier",
          "type": "string"
        },
        {
          "indexed": false,
          "internalType": "uint256",
          "name": "expiry",
          "type": "uint256"
        }
      ],
      "name": "TokenIssued",
      "type": "event"
    },
    {
      "inputs": [
        {
          "internalType": "string",
          "name": "agentDID",
          "type": "string"
        },
        {
          "internalType": "string",
          "name": "resourceIdentifier",
          "type": "string"
        },
        {
          "internalType": "string",
          "name": "actionIdentifier",
          "type": "string"
        }
      ],
      "name": "evaluate",
      "outputs": [
        {
          "components": [
            {
              "internalType": "string",
              "name": "agentDID",
              "type": "string"
            },
            {
              "internalType": "string",
              "name": "actionIdentifier",
              "type": "string"
            },
            {
              "internalType": "string",
              "name": "resourceIdentifier",
              "type": "string"
            },
            {
              "internalType": "uint256",
              "name": "expiry",
              "type": "uint256"
            }
          ],
          "internalType": "struct IACC.AccessToken",
          "name": "token",
          "type": "tuple"
        }
      ],
      "stateMutability": "nonpayable",
      "type": "function"
    },
    {
      "inputs": [
        {
          "internalType": "string",
          "name": "resourceIdentifier",
          "type": "string"
        },
        {
          "internalType": "string",
          "name": "actionIdentifier",
          "type": "string"
        }
      ],
      "name": "getPolicy",
      "outputs": [
        {
          "components": [
            {
              "internalType": "enum IACC.PolicyType",
              "name": "policyType",
              "type": "uint8"
            },
            {
              "internalType": "bytes",
              "name": "policyParameters",
              "type": "bytes"
            }
          ],
          "internalType": "struct IACC.Policy[]",
          "name": "",
          "type": "tuple[]"
        }
      ],
      "stateMutability": "view",
      "type": "function"
    },
    {
      "inputs": [
        {
          "components": [
            {
              "internalType": "string",
              "name": "agentDID",
              "type": "string"
            },
            {
              "internalType": "string",
              "name": "actionIdentifier",
              "type": "string"
            },
            {
              "internalType": "string",
              "name": "resourceIdentifier",
              "type": "string"
            },
            {
              "internalType": "uint256",
              "name": "expiry",
              "type": "uint256"
            }
          ],
          "internalType": "struct IACC.AccessToken",
          "name": "token",
          "type": "tuple"
        }
      ],
      "name": "getTokenHash",
      "outputs": [
        {
          "internalType": "bytes32",
          "name": "",
          "type": "bytes32"
        }
      ],
      "stateMutability": "pure",
      "type": "function"
    },
    {
      "inputs": [
        {
          "components": [
            {
              "internalType": "string",
              "name": "resourceIdentifier",
              "type": "string"
            },
            {
              "internalType": "string",
              "name": "actionIdentifier",
              "type": "string"
            },
            {
              "internalType": "string",
              "name": "policyTypeStr",
              "type": "string"
            },
            {
              "components": [
                {
                  "internalType": "string",
                  "name": "key",
                  "type": "string"
                },
                {
                  "internalType": "string",
                  "name": "value",
                  "type": "string"
                }
              ],
              "internalType": "struct IACC.KV[]",
              "name": "policyParameters",
              "type": "tuple[]"
            },
            {
              "internalType": "uint8",
              "name": "requiredSigs",
              "type": "uint8"
            },
            {
              "internalType": "uint256[2]",
              "name": "aggSig",
              "type": "uint256[2]"
            },
            {
              "internalType": "uint8",
              "name": "pksMask",
              "type": "uint8"
            }
          ],
          "internalType": "struct IACC.RegisterPolicyParams",
          "name": "params",
          "type": "tuple"
        }
      ],
      "name": "registerPolicy",
      "outputs": [
        {
          "internalType": "bool",
          "name": "",
          "type": "bool"
        }
      ],
      "stateMutability": "nonpayable",
      "type": "function"
    },
    {
      "inputs": [
        {
          "components": [
            {
              "internalType": "string",
              "name": "resourceIdentifier",
              "type": "string"
            },
            {
              "internalType": "string",
              "name": "actionIdentifier",
              "type": "string"
            },
            {
              "internalType": "string",
              "name": "policyTypeStr",
              "type": "string"
            },
            {
              "components": [
                {
                  "internalType": "string",
                  "name": "key",
                  "type": "string"
                },
                {
                  "internalType": "string",
                  "name": "value",
                  "type": "string"
                }
              ],
              "internalType": "struct IACC.KV[]",
              "name": "policyParameters",
              "type": "tuple[]"
            },
            {
              "internalType": "uint256[2]",
              "name": "aggSig",
              "type": "uint256[2]"
            },
            {
              "internalType": "uint8",
              "name": "pksMask",
              "type": "uint8"
            }
          ],
          "internalType": "struct IACC.RemovePolicyParams",
          "name": "params",
          "type": "tuple"
        }
      ],
      "name": "removePolicy",
      "outputs": [
        {
          "internalType": "bool",
          "name": "",
          "type": "bool"
        }
      ],
      "stateMutability": "nonpayable",
      "type": "function"
    },
    {
      "inputs": [],
      "name": "systemThreatLevel",
      "outputs": [
        {
          "internalType": "string",
          "name": "",
          "type": "string"
        }
      ],
      "stateMutability": "view",
      "type": "function"
    },
    {
      "inputs": [
        {
          "internalType": "bytes32",
          "name": "",
          "type": "bytes32"
        }
      ],
      "name": "validTokenHashes",
      "outputs": [
        {
          "internalType": "uint256",
          "name": "",
          "type": "uint256"
        }
      ],
      "stateMutability": "view",
      "type": "function"
    },
    {
      "inputs": [
        {
          "internalType": "bytes32",
          "name": "tokenHash",
          "type": "bytes32"
        }
      ],
      "name": "verifyTokenHash",
      "outputs": [
        {
          "internalType": "bool",
          "name": "",
          "type": "bool"
        }
      ],
      "stateMutability": "view",
      "type": "function"
    }
  ],
  "bytecode": "0x6080346200043a5760a08101906001600160401b03821181831017620004245760409182526200002e6200043f565b907f0febc527fc610e05784552f398809fed7b36fb242e8d780f82968000b861154d82526020917f2d9b0820eaadca6c70bf7c0696eb6895c544a8ed7281129e93fcb6917c676727838201527f27575aec04b577018dfebc1b9f25e97cefbbc3c8c2d3aeb1f8d45ed464e70450848201526060907f2452213c3c8b58668d5268980fb7fe1d912a74cfaca609a30bdab68896ea57b4828201528252620000d36200043f565b7f2455d2a03728b500c4cc0ad271911e4bc8dd42633ac5bd7438af0a2a80a3f12c81527f2db4731fcbe3dda6e39fc20728f18e8631bc55419f7ea88d0392d259ef48045b848201527f2e9c1e51795148332cecab28e17c895123ba22a5ba56c1389af86ecce718c514858201527f0f1d27edf7bdc1bf49fa69878aed52a52431263840bf1780b6c1edb8cb91fa3f8282015283830152620001736200043f565b7f15aa22779ac75bcf9f2136febade4e3b0007c31c9f6f1cfc03bdbea89386b24881527f0a22035c14940c675e9522932e4258941312afb004169ae6894d3478edc307f3848201527f16d89a57ad3871d717a8e73e0b74fe6deb64c9942090441a258827c1e873618b858201527f077d884f73738abc1ac46af75e3e7d234cacc09df571bdd04de53becd04da9f58282015284830152620002136200043f565b7f0b67e6f405e955a705552cc20c5843788dc1181a9f7b8feed46eb9fbfc79153681527f2dbd0a425af318a1c89601f956003df338c766dfa98c14175f19da7dcc775c8c848201527f2a1188f241747a55cae36b5bca25b031d0a839b1dac8308259c33edb65eb6e94858201527f170c2f98625e5d1a5222e2b99e25e433b9c43bc158278440ac1c0dabc19bd80882820152818301527f1258bb75e0970e7fdb7f9e16afe3d876ee996ce9f026f736f002f133ab0d8b44620002d46200043f565b917f1694aac85acd836afa535ba41366e1897a03a2948ab1514049f8e67efd585f9c83527f2dcb07e629ce8de88cbac1ee7640f3bcd074db30cb1eff4fa2275ee623d3300b858401527f1d8bb91d1944398523f23eb77f4512cd2bcd85cc378ff81b8f0f32a342fed51a8684015282015260808201526000906000905b60058210620003eb57505050601654600191600182811c92168015620003e0575b81831014620003ca57601f8211620003a1575b6006626c6f7760e81b01601655835161449e9081620004608239f35b601f906016600052600020910160051c8101905b818110156200038557600081558201620003b5565b634e487b7160e01b600052602260045260246000fd5b91607f169162000372565b83815160005b600481106200040f5750506004906001920193019101909162000351565b815186820155869290910190600101620003f1565b634e487b7160e01b600052604160045260246000fd5b600080fd5b60405190608082016001600160401b03811183821017620004245760405256fe6080604052600436101561001257600080fd5b6000803560e01c90816301eb0e591461009a575080632e06aac61461009557806367f76ad2146100905780636fec6a9a1461008b5780638309435a14610086578063a25a38ed14610081578063aa10d77e1461007c5763df1a4f431461007757600080fd5b610b3e565b61094f565b61070e565b6105a6565b610355565b610317565b6101dc565b34610103577ffffffffffffffffffffffffffffffffffffffffffffffffffffffffffffffffc90602082360112610103576004359167ffffffffffffffff8311610106576101009083360301126101035760206100f9836004016112e8565b6040519015158152f35b80fd5b5080fd5b9181601f840112156101385782359167ffffffffffffffff8311610138576020838186019501011161013857565b600080fd5b6003111561014757565b7f4e487b7100000000000000000000000000000000000000000000000000000000600052602160045260246000fd5b60005b8381106101895750506000910152565b8181015183820152602001610179565b907fffffffffffffffffffffffffffffffffffffffffffffffffffffffffffffffe0601f6020936101d581518092818752878088019101610176565b0116010190565b34610138576040807ffffffffffffffffffffffffffffffffffffffffffffffffffffffffffffffffc3601126101385767ffffffffffffffff6004358181116101385761022d90369060040161010a565b906024359283116101385761024961025193369060040161010a565b9290916115dc565b815190602080830181845282518091528484019180868360051b8701019401926000965b8388106102825786860387f35b909192939483806102d6837fffffffffffffffffffffffffffffffffffffffffffffffffffffffffffffffc08b6001960301875285838b5180516102c58161013d565b845201519181858201520190610199565b970193019701969093929193610275565b7ffffffffffffffffffffffffffffffffffffffffffffffffffffffffffffffffc60209101126101385760043590565b3461013857610325366102e7565b60005260146020526020604060002054801515908161034a575b506040519015158152f35b90504211153861033f565b34610138577ffffffffffffffffffffffffffffffffffffffffffffffffffffffffffffffffc602081360112610138576004359067ffffffffffffffff82116101385760e082600401918336030112610138576103b28180610c1f565b929060248201936103c38585610c1f565b916103cd936118c3565b916103e2836000526015602052604060002090565b9360038501546103f29060ff1690565b6103fb9061166d565b6104086064840183610c70565b906040518091602082019361041d9185610d53565b037fffffffffffffffffffffffffffffffffffffffffffffffffffffffffffffffe08101825261044d908261090e565b519020926044810193806104618686610c1f565b61046a9161191d565b906104759189611f18565b946104808580610c1f565b95909461048d9082610c1f565b926104989192610c1f565b91909260c486016104a890610e47565b966104b1610a71565b986104bb8d6116d2565b8a5236906104c892610abb565b602089015236906104d892610abb565b604087015236906104e892610abb565b60608501526080840152610500903690608401611249565b60a083015260ff1660c082015261051690612028565b61051f92612374565b60405160018152602090f35b0390f35b602081526080606061059d61054f855184602087015260a0860190610199565b6105896020870151917fffffffffffffffffffffffffffffffffffffffffffffffffffffffffffffffe09283888303016040890152610199565b906040870151908683030184870152610199565b93015191015290565b34610138576060807ffffffffffffffffffffffffffffffffffffffffffffffffffffffffffffffffc3601126101385767ffffffffffffffff90600435828111610138576105f890369060040161010a565b6024358481116101385761061090369060040161010a565b9290946044359081116101385761052b957f31f2a9a1648ad524dab76bf973a43a9ef82147d8a007802be67f77b17e167474946106546106ff93369060040161010a565b60008960409593955161066681610899565b818152816020820152816040820152015261068d610688828686868c8c6125f5565b611712565b610696426117a6565b61069e610a80565b996106aa368a8a610abb565b8b526106b7368488610abb565b60208c01526106c7368686610abb565b60408c01528a019081526106da8a611819565b6106f08251916000526014602052604060002090565b555193604051978897886117d6565b0390a16040519182918261052f565b346101385761071c366102e7565b60005260146020526020604060002054604051908152f35b7f4e487b7100000000000000000000000000000000000000000000000000000000600052600060045260246000fd5b90600182811c921680156107ac575b602083101461077d57565b7f4e487b7100000000000000000000000000000000000000000000000000000000600052602260045260246000fd5b91607f1691610772565b8054600093926107c582610763565b9182825260209360019160018116908160001461082d57506001146107ec575b5050505050565b90939495506000929192528360002092846000945b838610610819575050505001019038808080806107e5565b805485870183015294019385908201610801565b7fffffffffffffffffffffffffffffffffffffffffffffffffffffffffffffff00168685015250505090151560051b0101915038808080806107e5565b7f4e487b7100000000000000000000000000000000000000000000000000000000600052604160045260246000fd5b6080810190811067ffffffffffffffff8211176108b557604052565b61086a565b6040810190811067ffffffffffffffff8211176108b557604052565b60e0810190811067ffffffffffffffff8211176108b557604052565b60c0810190811067ffffffffffffffff8211176108b557604052565b90601f7fffffffffffffffffffffffffffffffffffffffffffffffffffffffffffffffe0910116810190811067ffffffffffffffff8211176108b557604052565b34610138576000807ffffffffffffffffffffffffffffffffffffffffffffffffffffffffffffffffc360112610103576040519080826016549161099283610763565b9283835260209460019186600182169182600014610a305750506001146109d6575b50506109c29250038361090e565b61052b604051928284938452830190610199565b90859250601682527fd833147d7dc355ba459fc788f669e58cfaf9dc25ddcd0702e87d69c7b51242895b858310610a185750506109c2935082010138806109b4565b80548389018501528794508693909201918101610a00565b915093506109c29592507fffffffffffffffffffffffffffffffffffffffffffffffffffffffffffffff0091501682840152151560051b82010138806109b4565b60405190610a7e826108d6565b565b60405190610a7e82610899565b60405190610a7e826108ba565b60405190610180820182811067ffffffffffffffff8211176108b557604052565b92919267ffffffffffffffff82116108b55760405191610b0360207fffffffffffffffffffffffffffffffffffffffffffffffffffffffffffffffe0601f840116018461090e565b829481845281830111610138578281602093846000960137010152565b9080601f8301121561013857816020610b3b93359101610abb565b90565b34610138577ffffffffffffffffffffffffffffffffffffffffffffffffffffffffffffffffc6020813601126101385760043567ffffffffffffffff9182821161013857608090823603011261013857604051610b9a81610899565b816004013583811161013857610bb69060043691850101610b20565b8152602482013583811161013857610bd49060043691850101610b20565b60208201526044820135928311610138576064610c0f92610bfe61052b9560043691840101610b20565b604084015201356060820152611819565b6040519081529081906020820190565b9035907fffffffffffffffffffffffffffffffffffffffffffffffffffffffffffffffe181360301821215610138570180359067ffffffffffffffff82116101385760200191813603831361013857565b9035907fffffffffffffffffffffffffffffffffffffffffffffffffffffffffffffffe181360301821215610138570180359067ffffffffffffffff821161013857602001918160051b3603831361013857565b90357fffffffffffffffffffffffffffffffffffffffffffffffffffffffffffffffe18236030181121561013857016020813591019167ffffffffffffffff821161013857813603831361013857565b601f82602094937fffffffffffffffffffffffffffffffffffffffffffffffffffffffffffffffe0938186528686013760008582860101520116010190565b6020928084830185845252604093604083019260408360051b8201019585600080935b868510610d895750505050505050505090565b9091929394959697987fffffffffffffffffffffffffffffffffffffffffffffffffffffffffffffffc082820301895289357fffffffffffffffffffffffffffffffffffffffffffffffffffffffffffffffc185360301811215610e375787610e266001938783940190610e19610e0f610e038480610cc4565b8d85528d850191610d14565b9285810190610cc4565b9185818503910152610d14565b9b0199019796950193929190610d76565b8380fd5b610e448261013d565b52565b3560ff811681036101385790565b15610e5c57565b60646040517f08c379a000000000000000000000000000000000000000000000000000000000815260206004820152601a60248201527f4143433a20696e76616c696420736967207468726573686f6c640000000000006044820152fd5b7f4e487b7100000000000000000000000000000000000000000000000000000000600052603260045260246000fd5b8054821015610f055760005260206000209060011b0190600090565b610eba565b90610f148161013d565b60ff7fffffffffffffffffffffffffffffffffffffffffffffffffffffffffffffff008354169116179055565b818110610f4c575050565b60008155600101610f41565b9190601f8111610f6757505050565b610a7e926000526020600020906020601f840160051c83019310610f93575b601f0160051c0190610f41565b9091508190610f86565b91908254680100000000000000008110156108b557610fc490600194600182018155610ee9565b61111957600190610fdf8351610fd98161013d565b82610f0a565b01906020809101519384519167ffffffffffffffff83116108b55761100e836110088654610763565b86610f58565b602091601f841160011461106f5750508190611060939495600092611064575b50507fffffffffffffffffffffffffffffffffffffffffffffffffffffffffffffffff8260011b9260031b1c19161790565b9055565b01519050388061102e565b957fffffffffffffffffffffffffffffffffffffffffffffffffffffffffffffffe08493929316966110a686600052602060002090565b936000915b89831061110257505050836001959697106110cb575b505050811b019055565b01517fffffffffffffffffffffffffffffffffffffffffffffffffffffffffffffffff60f88460031b161c191690553880806110c1565b8385015186559485019493810193918101916110ab565b610734565b9382879695829460409b9996948237019160008352823701916000835282370191825260208201520190565b60405190611157826108ba565b600382527f41434300000000000000000000000000000000000000000000000000000000006020830152565b6040519061119082610899565b6080368337565b604051906111a4826108ba565b6040368337565b604051906020820182811067ffffffffffffffff8211176108b5576040526020368337565b604051906111dd826108f2565b60c0368337565b156111eb57565b60646040517f08c379a000000000000000000000000000000000000000000000000000000000815260206004820152601760248201527f4143433a206e6f7420656e6f756768207369676e6572730000000000000000006044820152fd5b919060405192611258846108ba565b83906040810192831161013857905b82821061127357505050565b8135815260209182019101611267565b1561128a57565b60646040517f08c379a000000000000000000000000000000000000000000000000000000000815260206004820152601a60248201527f4143433a206167672d73696720766572696679206661696c65640000000000006044820152fd5b6113106113206112f88380610c1f565b6020850193916113088587610c1f565b9290916118c3565b6000526015602052604060002090565b604083016113376113318286610c1f565b9061191d565b9261135b6113486060870187610c70565b6040516020810193909283929085610d53565b039361138d7fffffffffffffffffffffffffffffffffffffffffffffffffffffffffffffffe09586810184528361090e565b61139f611398610a8d565b9788610e3b565b816020880152600386016113bb6113b7825460ff1690565b1590565b61149757506114356113fb61142861148d976114879761141c8d8c6114929f9a6114789a6114829a60026114036113f28780610c1f565b9c909988610c1f565b939097610c1f565b949093519020940154946040519a8b9860208a0161111e565b0390810183528261090e565b61143061114a565b611a41565b9261143e611183565b5061145361144e60e08301610e47565b611d15565b60ff61146f61146960018c989598015460ff1690565b60ff1690565b911610156111e4565b60a0369101611249565b611df6565b50611283565b610f9d565b600190565b935050505061148d91506114fa6114c9608061149297016114c460ff6114bc83610e47565b161515610e55565b610e47565b600185019060ff167fffffffffffffffffffffffffffffffffffffffffffffffffffffffffffffff00825416179055565b60017fffffffffffffffffffffffffffffffffffffffffffffffffffffffffffffff00825416179055565b90610a7e61153992604051938480926107b6565b038361090e565b90815467ffffffffffffffff81116108b5576020926040936040519461156c60208560051b018761090e565b83865260208601926000526020600020906000935b85851061159057505050505050565b60028460019284516115a1816108ba565b60ff8754166115af8161013d565b815285516115ca816115c381898c016107b6565b038261090e565b83820152815201930194019391611581565b906115e89392916118c3565b6000526015602052604060002060ff600382015416611664576040517f08c379a000000000000000000000000000000000000000000000000000000000815260206004820152601560248201527f4143433a20706f6c696379206e6f7420666f756e6400000000000000000000006044820152606490fd5b0390fd5b610b3b90611540565b1561167457565b60646040517f08c379a000000000000000000000000000000000000000000000000000000000815260206004820152601960248201527f4143433a20706f6c6963792d736574206e6f7420666f756e64000000000000006044820152fd5b906040516116df81610899565b606060ff600383956116f081611540565b8552826001820154166020860152600281015460408601520154161515910152565b1561171957565b60646040517f08c379a000000000000000000000000000000000000000000000000000000000815260206004820152601160248201527f4143433a20556e617574686f72697a65640000000000000000000000000000006044820152fd5b7f4e487b7100000000000000000000000000000000000000000000000000000000600052601160045260246000fd5b90610e1082018092116117b557565b611777565b90600182018092116117b557565b60010190816001116117b557565b9796959192611814946117f8611806936060989660808d5260808d0191610d14565b918a830360208c0152610d14565b918783036040890152610d14565b930152565b8051906118bd60436020808401516060604086015195015160405195836118a38161184e8a9788019b8c815193849201610176565b8601947f7c0000000000000000000000000000000000000000000000000000000000000095868482015261188b8251809386602185019101610176565b01918560218401528351938491602285019101610176565b01916022830152602382015203602381018452018261090e565b51902090565b92916118bd91836021926040519583879460208601998a378401917f7c000000000000000000000000000000000000000000000000000000000000006020840152858301370160008382015203600181018452018261090e565b611928913691610abb565b602081519101207fb3e71936029ea100264457a898dcb589dd7ef1f9c03768f6d110e3d43558029d8114611a0d577f89b51e83cb3fc3ff6274369bee8b175aeaa38ae40d40277bc6c12974f383a6fd8114611a07577f0f7993c1cc9e18041afdbf383610eddf76760e765912de5665a4361729fb207d14611a02576040517f08c379a000000000000000000000000000000000000000000000000000000000815260206004820152601860248201527f4143433a20756e6b6e6f776e20706f6c696379207479706500000000000000006044820152606490fd5b600290565b50600190565b50600090565b6080810192916000915b60048310611a2a57505050565b600190825181526020809101920192019190611a1d565b90611a4a611197565b506040808051611a59816108ba565b36903782519260ff8411611cac5760ff611a71612c1c565b94169382519081611a8a87856020988985019586612c6b565b0391611abc7fffffffffffffffffffffffffffffffffffffffffffffffffffffffffffffffe09384810183528261090e565b51902091835185810190611ae281611ad68a868987612cfd565b0385810183528261090e565b51902095611aee612c37565b936001926001945b60038610611c3757505050505050611b9d81856060611ba494015277ffffffffffffffffffffffffffffffffffffffffffffffff80601883015116907f30644e72e131a029b85045b68181585d97816a916871ca8d3c208c16d87cfd478092826048838260308901511681780100000000000000000000000000000000000000000000000080960908960151169289611b8d610a8d565b878152019a1692090886526128a1565b93516128a1565b91611bad611183565b9284518452818501518285015280518385015201516060830152611bf9818460808560067ffffffffffffffffffffffffffffffffffffffffffffffffffffffffffffff8305a01fa1590565b611c0257505090565b6116609250519182917f128e3f0800000000000000000000000000000000000000000000000000000000835260048301611a13565b909192938383879b8b7fffffffffffffffffffffffffffffffffffffffffffffffffffffffffffffffff8a611c958e611c898d8a9f611469611c78916117c8565b9251988993898986019c188c612d6f565b0389810187528661090e565b0160051b8b01015251902099019493929190611af6565b61166091519182917f26e4f9ba00000000000000000000000000000000000000000000000000000000835260048301612c0b565b60ff1660ff81146117b55760010190565b6005811015610f055760021b90600090565b60ff60019116019060ff82116117b557565b611d1d611183565b6000805b60ff8082166005811015611dec576001901b851616611d49575b611d4490611ce0565b611d21565b90611de4611d4491845160208601805190611dd560408901938885519460608c01958651611d7684611cf1565b505491611d9c611d92611d8887611cf1565b5060010190600090565b90549060031b1c90565b93611dcf611d92611dc5611dbf611d92611db58b611cf1565b5060020190600090565b98611cf1565b5060030190600090565b96612ad5565b90929591945252528552611d03565b919050611d3b565b5050509291509190565b604060209283610180969581611e0a610a9a565b95805187520151828601527f198e9393920d483a7260bfb731fb5d25f1aa493335a9e71297e485b7aef312c2848601527f1800deef121f1e76426a00665e5c4479674322d4f75edadd46debd5cd992f6ed60608601527f275dc4a288d1afb3cbb1ac09187524c7db36395df7be3b99e673b13a075a65ec60808601527f1d9befcd05a5323e6da4d435f3b617cdb3af83285c2df711ef39c01571827f9d60a0860152805160c0860152015160e084015283810151610100840152805161012084015260608101516101408401520151610160820152611ee76111ab565b93849160087ffffffffffffffffffffffffffffffffffffffffffffffffffffffffffffff8305a01fa915115159190565b9160005b8354811015611f8e57611f2f8185610ee9565b50828460ff835416611f408261013d565b611f498161013d565b149182611f66575b5050611f5f57600101611f1c565b9250505090565b6001919250611f7f906115c360405180948193016107b6565b60208151910120148238611f51565b6040517f08c379a000000000000000000000000000000000000000000000000000000000815260206004820152601560248201527f4143433a20706f6c696379206e6f7420666f756e6400000000000000000000006044820152606490fd5b6020809361200d8261201b9461200d60409b999782815194859201610176565b019182815194859201610176565b0191825260208201520190565b611487610a7e916120c760a061209460208401516114286040860151916120686060880151608089015160408a5101519160405196879560208701611fed565b037fffffffffffffffffffffffffffffffffffffffffffffffffffffffffffffffe0810183528261090e565b9261209d611183565b506120af61144e60c083015160ff1690565b60ff61146f611469602086989598510160ff90511690565b0151611df6565b907f30644e72e131a029b85045b68181585d97816a916871ca8d3c208c16d87cfd479182039182116117b557565b91909182811461223f576121108354610763565b67ffffffffffffffff81116108b5576121338161212d8454610763565b84610f58565b600093601f821160011461218d5761106092939482916000926121825750507fffffffffffffffffffffffffffffffffffffffffffffffffffffffffffffffff8260011b9260031b1c19161790565b01549050388061102e565b6121bf7fffffffffffffffffffffffffffffffffffffffffffffffffffffffffffffffe0831691600052602060002090565b946121cf84600052602060002090565b91815b818110612227575095836001959697106121f057505050811b019055565b01547fffffffffffffffffffffffffffffffffffffffffffffffffffffffffffffffff60f88460031b161c191690553880806110c1565b878301548455600193840193909201916020016121d2565b509050565b906111195760016000918281550161225c8154610763565b8061226657505050565b82601f821160011461227757505055565b9091808252612295601f60208420940160051c840160018501610f41565b5555565b805490600091828255806122bc575b508082600160039301558260028201550155565b60017f7fffffffffffffffffffffffffffffffffffffffffffffffffffffffffffffff821682036117b55782845260208085209260011b8301925b838110612306575050506122a8565b8086600292558684820161231a8154610763565b80612329575b505050016122f7565b86601f80831160011461234357505050555b863880612320565b93839052868b2061236f9461235f930160051c81019101610f41565b6000908082528160208120915555565b61233b565b908154907fffffffffffffffffffffffffffffffffffffffffffffffffffffffffffffffff918281019081116117b557808203612432575b505081549081156124035760029101916123cf6123c98483610ee9565b90612244565b828155016123dd81546117ba565b9055156123e75750565b6123fe610a7e916000526015602052604060002090565b612299565b7f4e487b7100000000000000000000000000000000000000000000000000000000600052603160045260246000fd5b61243f6124479185610ee9565b509184610ee9565b611119578082146123ac576001808361246760ff61246f96541685610f0a565b0191016120fc565b38806123ac565b90816020910312610138575160038110156101385790565b90816020910312610138575180151581036101385790565b9190604083526000601654906124bb82610763565b91826040870152606060019160018116908160001461254c57506001146124f1575b505060209150936124ed8361013d565b0152565b601660009081529392507fd833147d7dc355ba459fc788f669e58cfaf9dc25ddcd0702e87d69c7b51242895b8385106125375750505050606060209185010138806124dd565b8054858901830152602090940193820161251d565b90506060935060209492507fffffffffffffffffffffffffffffffffffffffffffffffffffffffffffffff0091501682870152151560051b85010138806124dd565b6040513d6000823e3d90fd5b519063ffffffff8216820361013857565b90816080910312610138576125ed6060604051926125c884610899565b80518452602081015160208501526125e26040820161259a565b60408501520161259a565b606082015290565b94909361260593611310936118c3565b916126176113b7600385015460ff1690565b6128995760005b8354811015612890576126318185610ee9565b50805460ff166126408161013d565b80612741575060016126529101611525565b6126cd815161266b6020938480809483010191016125ab565b604051809381927f28f0ed18000000000000000000000000000000000000000000000000000000008352600483019190916060608082019380518352602081015160208401528160408201519163ffffffff8093166040860152015116910152565b038173__$02ad9ba44d5f8b108eb8cb9d26cfd8bba9$__5af491821561273c5760009261270f575b505015612706576001905b0161261e565b50505050600090565b61272e9250803d10612735575b612726818361090e565b81019061248e565b38806126f5565b503d61271c565b61258e565b61274a8161013d565b60019080820361277657505050612762368484610abb565b602081519101201561270657600190612700565b8061278260029261013d565b03612831576127919101611525565b6127dd81516127aa602093848080948301019101612476565b604051809381927f7e2157cb000000000000000000000000000000000000000000000000000000008352600483016124a6565b038173__$ed72d0048cc008b4b5e9604803f3e23f0f$__5af491821561273c57600092612814575b50501561270657600190612700565b61282a9250803d1061273557612726818361090e565b3880612805565b6040517f08c379a000000000000000000000000000000000000000000000000000000000815260206004820152601860248201527f4143433a20756e6b6e6f776e20706f6c696379207479706500000000000000006044820152606490fd5b50505050600190565b505050600190565b906128aa611197565b917f30644e72e131a029b85045b68181585d97816a916871ca8d3c208c16d87cfd4780821015612a6d57806004818480090990600191816128ee81838608926120ce565b840890828080808078016789af3a83522eb353c98fc6b36d713d5d8d1cc5dffffffa818b8161291f818b8d096139b3565b9a8b92090909958180612931896120ce565b98817f183227397098d014dc2822db40c0ac2ecbc0b548b438e5469e10460b6c3e7ea39a8b0899089680090980097f10216f7ba065e00de81ac1e7808072c9dd2b2385cd7b438469602eb24829a9bd098508908360038185818180090908938561299a86612db6565b60000b03612a135750505085526129b081612ee4565b906020870152156129e057505b60208401918251918083169116036129d3575050565b6129dc906120ce565b9052565b6040517f396ec7710000000000000000000000000000000000000000000000000000000081526004810191909152602490fd5b919350915080600381848181800909089284612a2e85612db6565b60000b03612a545750508552612a4381612ee4565b906020870152156129e057506129bd565b81935060039250808852818180090908612a4381612ee4565b6040517fd53e941500000000000000000000000000000000000000000000000000000000815260048101839052602490fd5b15612aa657565b7f4e487b7100000000000000000000000000000000000000000000000000000000600052600160045260246000fd5b979497969596801580612c03575b80612bfb575b80612bf3575b15612b495750505050801580612b41575b80612b39575b80612b31575b15612b18575b93929190565b612b2c612b2784868885613646565b612a9f565b612b12565b508215612b0c565b508315612b06565b508415612b00565b849895989796971580612beb575b80612be3575b80612bdb575b612bc35791612bbb97959391612b98979593612b84612b2785858585613646565b612b93612b2789898989613646565b6136f2565b8051906020810151604082015160608301519160a06080850151940151946138db565b929391929091565b935096935094509250612b12612b2784868885613646565b508715612b63565b508615612b5d565b508515612b57565b508315612aef565b508215612ae9565b508115612ae3565b906020610b3b928181520190610199565b60405190612c29826108f2565b6088825260a0366020840137565b60405190612c4482610899565b6060808352366020840137565b60405190612c5e826108d6565b60c0808352366020840137565b7fff0000000000000000000000000000000000000000000000000000000000000092612ca86020809361200d600499989682815194859201610176565b01600081527f6000000000000000000000000000000000000000000000000000000000000000600182015260006002820152612cee825180936020600385019101610176565b019160f81b1660038201520190565b91602293927fff000000000000000000000000000000000000000000000000000000000000009281527f01000000000000000000000000000000000000000000000000000000000000006020820152612d60825180936020602185019101610176565b019160f81b1660218201520190565b602294939181527fff00000000000000000000000000000000000000000000000000000000000000809360f81b166020820152612d60825180936020602185019101610176565b612dbe612c51565b9060c060206000828286018381528360408801528360608801528560808801527f183227397098d014dc2822db40c0ac2ecbc0b548b438e5469e10460b6c3e7ea3968760a08201527f30644e72e131a029b85045b68181585d97816a916871ca8d3c208c16d87cfd47958691015260055afa926000519315612ea85750507f30644e72e131a029b85045b68181585d97816a916871ca8d3c208c16d87cfd468214612e825781151580612e77575b6129e0575060000b90565b506001821415612e6c565b50507fffffffffffffffffffffffffffffffffffffffffffffffffffffffffffffffff90565b60649350604051927fc6daf7ab000000000000000000000000000000000000000000000000000000008452600484015260248301526044820152fd5b907f30644e72e131a029b85045b68181585d97816a916871ca8d3c208c16d87cfd478080808080808080808b8180808080808080808080808080808f8180828180808080808080808080809e8180808080858180808080808087819e8280808080808681808080808080809e818080808481808080808080808089819f828080808080808080808080808d819e8280808080808080888180808080809e8180808080808080808981808080809e81808080808080808080808b8180809e81808080808080808080808b8180809e818080808080808080808a818080809e8180808080808087818080808080809e8180808080808681808080808080809e8180808080808681808080808080809e8180808080808681808080808080809e8180808080808080808080808c81809e81808080808080808080808b8180809e8180808080808087818080808080809e81808080808080809781808080808581808080808080808080808b8181800909818c81818009090981808c8181800909818d818180090909098180808c8181800909818d818180090909818c818082818180090991818180090909090980098009800981808781818009099180090980098009800909800980098009800909800980098009800981808c8180828009918180828009918181800909090991800909800980098009800981808088800981808a8009818b8181800909090991800909800980098009098009800980098180808a800981808c8009818d8181800909090991800909800980098009800980090980098009800981808c8181800909918009098009800980098009800980099281808083818180090981848181800909099181808280099181808280099181818009090909099180090980098009800980098009800980098009800981808d818082800991818180090909918009098009800980098180898181800909918009098009800980099281808280099181808280099181818009090909918009098009800980098009800980098180808b8009818c8181800909099180090980098009800980098009800909800980098009800980098009818080808c8009818d818180090909818c81808281818009099181818009090909918009098009800980098009928180808381818009098184818180090909918180828009918180828009918181800909090909918009098009800981808d818082800991818180090909918009098009800980098009800980098009928181800909918009098009800980098009800980098009800992818082800991818180090909918009098009800981808d818180090991800909800980098009800980098009800992818080838009818481818009090991818082818180090991818180090909099180090980098009800981808d81808083800981848181800909099181808281818009099181818009090909918009098009800980098009818080898009818a8181800909099180090980098009928180828009918180828009918181800909090991800909800980098009800980098009800980098009818080808b8009818c81818009090981808c8181800909818d81818009090909918009098009800980099281808280099181818009090991800909800980098009800981808d81808281818009099181808281818009099181818009090909918009098009800980098009800980098180808088800981898181800909098180898181800909818a81818009090909918009098009800909800980098009800980098009928180828009918180828009918181800909090991800909800980098009800980098180808c8009818d8180828009918181800909090991800909800980098009800981808087800981888181800909099180090980098009098009800980098009800980099281808083818180090981848181800909099181808280099181808280099181818009090909099180090980098009800980098009818080808b8181800909818c81818009090981808c8181800909818d818082818180090991818180090909090991800909800980098009800980090980098009800980098009800909800980098009800992818180090991800909800980098009800980098009800980098180808c818082800991818180090909818d8180828181800909918181800909090991800909800980098180888181800909918009098009800992818180090991800909800980098009800980098009800981808d8180808381818009098184818180090909918180828181800909918180828181800909918181800909090909918009098009800980098180808a818180090981808c8181800909818d818180090909099180090980098009800992818080838181800909818481818009090991818082818180090991818082818180090991818180090909090991800909800980098180808c8009818d8181800909099180090980098009800980098180808781818009098180898181800909818a81818009090909918009098009917f30644e72e131a029b85045b68181585d97816a916871ca8d3c208c16d87cfd478380091490565b61368e6136797f054fb1321278f57b36922d1d65a0ed99e1cca4ac0e95daea09b8a53ab3dbc46295613696958181614134565b93909261368882828181614134565b90614134565b92909161417a565b91907f30644e72e131a029b85045b68181585d97816a916871ca8d3c208c16d87cfd47918291081591826136c957505090565b7f2fcd3ac2a640a154eb23960892a85a68f031ca0c8344b23a577dcf1052b9e775919250081590565b94979697959192939561370e6137066111d0565b998a946140ec565b97909661373461371e88886140ec565b94909360608801958652604088019485526140ec565b97909661374186846140ec565b608060a08a9993990199828b5201978089528a1490816138d1575b50613857575050505050505050604086019283519460608801958651916137829361417a565b608088019283519460a08a019586519161379b9361417a565b6137a781838181614134565b838388959395518a516137bb918589614134565b936137c7939197614134565b9890976137d48a8a6140ec565b909252528b87896137e7888a8181614134565b6137f0916140ec565b6137fa939161417a565b6138048488614437565b9161380e9361417a565b81819661381b9396614134565b9091602001528c5261382c9361417a565b9161383693614134565b919092845186519161384793614134565b916138519361417a565b90925252565b9397509397509397869b9a9b99919599511490816138c6575b506138a7575050505050505050600060a0820152600060808201526000606082015260016040820152600060208201526001815290565b6138b0936141bc565b9092969397919498525252526020830152815290565b905086511438613870565b90508a143861375c565b95939195949092947f30644e72e131a029b85045b68181585d97816a916871ca8d3c208c16d87cfd479260405160208152602080820152602060408201528480838009818680090860608201527f30644e72e131a029b85045b68181585d97816a916871ca8d3c208c16d87cfd4560808201528460a082015260208160c08160057ffffffffffffffffffffffffffffffffffffffffffffffffffffffffffffff8305a01fa90519015610138578481819309930983039283116117b55782826139af956139a793614134565b959096614134565b9091565b807f30644e72e131a029b85045b68181585d97816a916871ca8d3c208c16d87cfd47808080808080808881808080809e8180808080808080808981808080809e8180808080808080888180808080809e8180808080808080888180808080809e8181818080808080808781808080809e8180808080808087818080808080809e8180828180808080808080808080809e8180828180808080808080808981809e818080808080808080808080808d819e8280808080808080808080808080809e8082808080808080808080808080809e80828080808080808080808080808d819f828080808080808080808a818080809e8180808080808080808981808080809e8180808080808080808981808080809e8180808080808080808981808080809e8180808080808080808080808080809e80828080808080808080808080808d819f8280808080808080808981808080809e818080808080808080809981808080808581808080808080808080808b8181800909818c81818009090981808c8181800909818d818180090909098180808c8181800909818d818180090909818c818082818180090991818180090909090980098009800981808781818009099180090980098009800909800980098009800909800980098009800981808c8180828009918180828009918181800909090991800909800980098009800981808088800981808a8009818b8181800909090991800909800980098009098009800980098180808a800981808c8009818d8181800909090991800909800980098009800980090980098009800981808c8181800909918009098009800980098009800980099281808083818180090981848181800909099181808280099181808280099181818009090909099180090980098009800980098009800980098009800981808d818082800991818180090909918009098009800980098180898181800909918009098009800980099281808280099181808280099181818009090909918009098009800980098009800980098180808b8009818c8181800909099180090980098009800980098009800909800980098009800980098009818080808c8009818d818180090909818c81808281818009099181818009090909918009098009800980098009928180808381818009098184818180090909918180828009918180828009918181800909090909918009098009800981808d818082800991818180090909918009098009800980098009800980098009928181800909918009098009800980098009800980098009800992818082800991818180090909918009098009800981808d818180090991800909800980098009800980098009800992818080838009818481818009090991818082818180090991818180090909099180090980098009800981808d81808083800981848181800909099181808281818009099181818009090909918009098009800980098009818080898009818a8181800909099180090980098009928180828009918180828009918181800909090991800909800980098009800980098009800980098009818080808b8009818c81818009090981808c8181800909818d81818009090909918009098009800980099281808280099181818009090991800909800980098009800981808d81808281818009099181808281818009099181818009090909918009098009800980098009800980098180808088800981898181800909098180898181800909818a81818009090909918009098009800909800980098009800980098009928180828009918180828009918181800909090991800909800980098009800980098180808c8009818d8180828009918181800909090991800909800980098009800981808087800981888181800909099180090980098009098009800980098009800980099281808083818180090981848181800909099181808280099181808280099181818009090909099180090980098009800980098009818080808b8181800909818c81818009090981808c8181800909818d81808281818009099181818009090909099180090980098009800980098009098009800980098009800980090980098009800980099281818009099180090980098009800980098009800980098009818080808a8009818b81818009090981808b8181800909818c818180090909099180090980098009928181800909918009098009800981808d81818009099180090980098009800980098009800980099281808083818180090981848181800909099181808281818009099181808281818009099181818009090909099180090980098009800981808d8180828181800909918180828181800909918181800909090991800909800980098009818080808b8181800909818c81818009090981808c8181800909818d81808281818009099181818009090909099180090980098009818080878009818881818009090991800909800980090980098009800980098009928180828009918181800909099180090990565b9190917f30644e72e131a029b85045b68181585d97816a916871ca8d3c208c16d87cfd4790816000850982038281116117b55760008360018180948183880908970992090890565b909392917f30644e72e131a029b85045b68181585d97816a916871ca8d3c208c16d87cfd47928381870984038481116117b5578285809492818094880908970992090890565b939290937f30644e72e131a029b85045b68181585d97816a916871ca8d3c208c16d87cfd47928303918383116117b5578303918383116117b557839108930890565b92938291857f30644e72e131a029b85045b68181585d97816a916871ca8d3c208c16d87cfd476003830982877f30644e72e131a029b85045b68181585d97816a916871ca8d3c208c16d87cfd47600382099261421793614134565b909661422383876140ec565b614233819b839984988496614134565b61423d9391614134565b93909761424c848b8181614134565b7f30644e72e131a029b85045b68181585d97816a916871ca8d3c208c16d87cfd4760088809907f30644e72e131a029b85045b68181585d97816a916871ca8d3c208c16d87cfd4760088d09906142a19361417a565b99819b8b9792966142b4878b8181614134565b99819f7f30644e72e131a029b85045b68181585d97816a916871ca8d3c208c16d87cfd4760048d979498099260047f30644e72e131a029b85045b68181585d97816a916871ca8d3c208c16d87cfd4791099261430f9361417a565b6143199391614134565b9390947f30644e72e131a029b85045b68181585d97816a916871ca8d3c208c16d87cfd4760088209917f30644e72e131a029b85045b68181585d97816a916871ca8d3c208c16d87cfd47600882099261437193614134565b61437b9391614134565b916143859361417a565b96909760027f30644e72e131a029b85045b68181585d97816a916871ca8d3c208c16d87cfd4791099260027f30644e72e131a029b85045b68181585d97816a916871ca8d3c208c16d87cfd479109926143dd93614134565b9690976143e993614134565b60087f30644e72e131a029b85045b68181585d97816a916871ca8d3c208c16d87cfd4791099060087f30644e72e131a029b85045b68181585d97816a916871ca8d3c208c16d87cfd47910991565b600280919392937f30644e72e131a029b85045b68181585d97816a916871ca8d3c208c16d87cfd479283910993099056fea26469706673582212206c8e902c585ac611099a3538b5f79cb44fb5f0f7ac9f7fe8c155024a1936544f64736f6c63430008180033",
  "linkReferences": {
    "contracts/lib/EnvironmentalPolicyLogic.sol": {
      "EnvironmentalPolicyLogic": [
        {
          "length": 20,
          "start": 11329
        }
      ]
    },
    "contracts/lib/TemporalPolicyLogic.sol": {
      "TemporalPolicyLogic": [
        {
          "length": 20,
          "start": 11057
        }
      ]
    }
  },
  "deployedLinkReferences": {
    "contracts/lib/EnvironmentalPolicyLogic.sol": {
      "EnvironmentalPolicyLogic": [
        {
          "length": 20,
          "start": 10209
        }
      ]
    },
    "contracts/lib/TemporalPolicyLogic.sol": {
      "TemporalPolicyLogic": [
        {
          "length": 20,
          "start": 9937
        }
      ]
    }
  }
}