{
  "_format": "hh-sol-artifact-1",
  "contractName": "AccessControlContract",
  "sourceName": "contracts/main/AccessControlContract.sol",
  "abi": [
    {
      "inputs": [
        {
          "internalType": "uint256[4]",
          "name": "input",
          "type": "uint256[4]"
        }
      ],
      "name": "BNAddFailed",
      "type": "error"
    },
    {
      "inputs": [
        {
          "internalType": "bytes",
          "name": "dst",
          "type": "bytes"
        }
      ],
      "name": "InvalidDSTLength",
      "type": "error"
    },
    {
      "inputs": [
        {
          "internalType": "uint256",
          "name": "x",
          "type": "uint256"
        }
      ],
      "name": "InvalidFieldElement",
      "type": "error"
    },
    {
      "inputs": [
        {
          "internalType": "uint256",
          "name": "noSqrt",
          "type": "uint256"
        }
      ],
      "name": "MapToPointFailed",
      "type": "error"
    },
    {
      "inputs": [
        {
          "internalType": "uint256",
          "name": "base",
          "type": "uint256"
        },
        {
          "internalType": "uint256",
          "name": "exponent",
          "type": "uint256"
        },
        {
          "internalType": "uint256",
          "name": "modulus",
          "type": "uint256"
        }
      ],
      "name": "ModExpFailed",
      "type": "error"
    },
    {
      "anonymous": false,
      "inputs": [
        {
          "indexed": false,
          "internalType": "string",
          "name": "agentDID",
          "type": "string"
        },
        {
          "indexed": false,
          "internalType": "string",
          "name": "actionIdentifier",
          "type": "string"
        },
        {
          "indexed": false,
          "internalType": "string",
          "name": "resourceIdentifier",
          "type": "string"
        },
        {
          "indexed": false,
          "internalType": "uint256",
          "name": "expiry",
          "type": "uint256"
        }
      ],
      "name": "TokenIssued",
      "type": "event"
    },
    {
      "inputs": [
        {
          "internalType": "bytes32",
          "name": "",
          "type": "bytes32"
        }
      ],
      "name": "_policies",
      "outputs": [
        {
          "internalType": "uint8",
          "name": "requiredSigs",
          "type": "uint8"
        },
        {
          "internalType": "uint256",
          "name": "nonce",
          "type": "uint256"
        },
        {
          "internalType": "bool",
          "name": "exists",
          "type": "bool"
        }
      ],
      "stateMutability": "view",
      "type": "function"
    },
    {
      "inputs": [
        {
          "internalType": "string",
          "name": "agentDID",
          "type": "string"
        },
        {
          "internalType": "string",
          "name": "resourceIdentifier",
          "type": "string"
        },
        {
          "internalType": "string",
          "name": "actionIdentifier",
          "type": "string"
        }
      ],
      "name": "evaluate",
      "outputs": [
        {
          "components": [
            {
              "internalType": "string",
              "name": "agentDID",
              "type": "string"
            },
            {
              "internalType": "string",
              "name": "actionIdentifier",
              "type": "string"
            },
            {
              "internalType": "string",
              "name": "resourceIdentifier",
              "type": "string"
            },
            {
              "internalType": "uint256",
              "name": "expiry",
              "type": "uint256"
            }
          ],
          "internalType": "struct IACC.AccessToken",
          "name": "token",
          "type": "tuple"
        }
      ],
      "stateMutability": "nonpayable",
      "type": "function"
    },
    {
      "inputs": [
        {
          "internalType": "string",
          "name": "resourceIdentifier",
          "type": "string"
        },
        {
          "internalType": "string",
          "name": "actionIdentifier",
          "type": "string"
        }
      ],
      "name": "getPolicy",
      "outputs": [
        {
          "components": [
            {
              "internalType": "enum IACC.PolicyType",
              "name": "policyType",
              "type": "uint8"
            },
            {
              "internalType": "bytes",
              "name": "policyParameters",
              "type": "bytes"
            }
          ],
          "internalType": "struct IACC.Policy[]",
          "name": "",
          "type": "tuple[]"
        }
      ],
      "stateMutability": "view",
      "type": "function"
    },
    {
      "inputs": [
        {
          "components": [
            {
              "internalType": "string",
              "name": "agentDID",
              "type": "string"
            },
            {
              "internalType": "string",
              "name": "actionIdentifier",
              "type": "string"
            },
            {
              "internalType": "string",
              "name": "resourceIdentifier",
              "type": "string"
            },
            {
              "internalType": "uint256",
              "name": "expiry",
              "type": "uint256"
            }
          ],
          "internalType": "struct IACC.AccessToken",
          "name": "token",
          "type": "tuple"
        }
      ],
      "name": "getTokenHash",
      "outputs": [
        {
          "internalType": "bytes32",
          "name": "",
          "type": "bytes32"
        }
      ],
      "stateMutability": "pure",
      "type": "function"
    },
    {
      "inputs": [
        {
          "components": [
            {
              "internalType": "string",
              "name": "resourceIdentifier",
              "type": "string"
            },
            {
              "internalType": "string",
              "name": "actionIdentifier",
              "type": "string"
            },
            {
              "internalType": "string",
              "name": "policyTypeStr",
              "type": "string"
            },
            {
              "components": [
                {
                  "internalType": "string",
                  "name": "key",
                  "type": "string"
                },
                {
                  "internalType": "string",
                  "name": "value",
                  "type": "string"
                }
              ],
              "internalType": "struct IACC.KV[]",
              "name": "policyParameters",
              "type": "tuple[]"
            },
            {
              "internalType": "uint8",
              "name": "requiredSigs",
              "type": "uint8"
            },
            {
              "internalType": "uint256[2]",
              "name": "aggSig",
              "type": "uint256[2]"
            },
            {
              "internalType": "uint8",
              "name": "pksMask",
              "type": "uint8"
            }
          ],
          "internalType": "struct IACC.RegisterPolicyParams",
          "name": "params",
          "type": "tuple"
        }
      ],
      "name": "registerPolicy",
      "outputs": [
        {
          "internalType": "bool",
          "name": "",
          "type": "bool"
        }
      ],
      "stateMutability": "nonpayable",
      "type": "function"
    },
    {
      "inputs": [
        {
          "components": [
            {
              "internalType": "string",
              "name": "resourceIdentifier",
              "type": "string"
            },
            {
              "internalType": "string",
              "name": "actionIdentifier",
              "type": "string"
            },
            {
              "internalType": "string",
              "name": "policyTypeStr",
              "type": "string"
            },
            {
              "components": [
                {
                  "internalType": "string",
                  "name": "key",
                  "type": "string"
                },
                {
                  "internalType": "string",
                  "name": "value",
                  "type": "string"
                }
              ],
              "internalType": "struct IACC.KV[]",
              "name": "policyParameters",
              "type": "tuple[]"
            },
            {
              "internalType": "uint256[2]",
              "name": "aggSig",
              "type": "uint256[2]"
            },
            {
              "internalType": "uint8",
              "name": "pksMask",
              "type": "uint8"
            }
          ],
          "internalType": "struct IACC.RemovePolicyParams",
          "name": "params",
          "type": "tuple"
        }
      ],
      "name": "removePolicy",
      "outputs": [
        {
          "internalType": "bool",
          "name": "",
          "type": "bool"
        }
      ],
      "stateMutability": "nonpayable",
      "type": "function"
    },
    {
      "inputs": [],
      "name": "systemThreatLevel",
      "outputs": [
        {
          "internalType": "string",
          "name": "",
          "type": "string"
        }
      ],
      "stateMutability": "view",
      "type": "function"
    },
    {
      "inputs": [
        {
          "internalType": "bytes32",
          "name": "",
          "type": "bytes32"
        }
      ],
      "name": "validTokenHashes",
      "outputs": [
        {
          "internalType": "uint256",
          "name": "",
          "type": "uint256"
        }
      ],
      "stateMutability": "view",
      "type": "function"
    },
    {
      "inputs": [
        {
          "internalType": "bytes32",
          "name": "tokenHash",
          "type": "bytes32"
        }
      ],
      "name": "verifyTokenHash",
      "outputs": [
        {
          "internalType": "bool",
          "name": "",
          "type": "bool"
        }
      ],
      "stateMutability": "view",
      "type": "function"
    }
  ],
  "bytecode": "0x6080346200043a5760a08101906001600160401b03821181831017620004245760409182526200002e6200043f565b907f0febc527fc610e05784552f398809fed7b36fb242e8d780f82968000b861154d82526020917f2d9b0820eaadca6c70bf7c0696eb6895c544a8ed7281129e93fcb6917c676727838201527f27575aec04b577018dfebc1b9f25e97cefbbc3c8c2d3aeb1f8d45ed464e70450848201526060907f2452213c3c8b58668d5268980fb7fe1d912a74cfaca609a30bdab68896ea57b4828201528252620000d36200043f565b7f2455d2a03728b500c4cc0ad271911e4bc8dd42633ac5bd7438af0a2a80a3f12c81527f2db4731fcbe3dda6e39fc20728f18e8631bc55419f7ea88d0392d259ef48045b848201527f2e9c1e51795148332cecab28e17c895123ba22a5ba56c1389af86ecce718c514858201527f0f1d27edf7bdc1bf49fa69878aed52a52431263840bf1780b6c1edb8cb91fa3f8282015283830152620001736200043f565b7f15aa22779ac75bcf9f2136febade4e3b0007c31c9f6f1cfc03bdbea89386b24881527f0a22035c14940c675e9522932e4258941312afb004169ae6894d3478edc307f3848201527f16d89a57ad3871d717a8e73e0b74fe6deb64c9942090441a258827c1e873618b858201527f077d884f73738abc1ac46af75e3e7d234cacc09df571bdd04de53becd04da9f58282015284830152620002136200043f565b7f0b67e6f405e955a705552cc20c5843788dc1181a9f7b8feed46eb9fbfc79153681527f2dbd0a425af318a1c89601f956003df338c766dfa98c14175f19da7dcc775c8c848201527f2a1188f241747a55cae36b5bca25b031d0a839b1dac8308259c33edb65eb6e94858201527f170c2f98625e5d1a5222e2b99e25e433b9c43bc158278440ac1c0dabc19bd80882820152818301527f1258bb75e0970e7fdb7f9e16afe3d876ee996ce9f026f736f002f133ab0d8b44620002d46200043f565b917f1694aac85acd836afa535ba41366e1897a03a2948ab1514049f8e67efd585f9c83527f2dcb07e629ce8de88cbac1ee7640f3bcd074db30cb1eff4fa2275ee623d3300b858401527f1d8bb91d1944398523f23eb77f4512cd2bcd85cc378ff81b8f0f32a342fed51a8684015282015260808201526000906000905b60058210620003eb57505050601654600191600182811c92168015620003e0575b81831014620003ca57601f8211620003a1575b6006626c6f7760e81b0160165583516142239081620004608239f35b601f906016600052600020910160051c8101905b818110156200038557600081558201620003b5565b634e487b7160e01b600052602260045260246000fd5b91607f169162000372565b83815160005b600481106200040f5750506004906001920193019101909162000351565b815186820155869290910190600101620003f1565b634e487b7160e01b600052604160045260246000fd5b600080fd5b60405190608082016001600160401b03811183821017620004245760405256fe6080604052600436101561001257600080fd5b6000803560e01c90816301eb0e59146100aa575080632e06aac6146100a557806367f76ad2146100a05780636fec6a9a1461009b5780638309435a14610096578063a25a38ed14610091578063aa10d77e1461008c578063df1a4f43146100875763e7114e911461008257600080fd5b610c73565b610b92565b6109a3565b610762565b6105fc565b6103ab565b61036d565b6101ec565b34610113577ffffffffffffffffffffffffffffffffffffffffffffffffffffffffffffffffc90602082360112610113576004359167ffffffffffffffff83116101165761010090833603011261011357602061010983600401611385565b6040519015158152f35b80fd5b5080fd5b9181601f840112156101485782359167ffffffffffffffff8311610148576020838186019501011161014857565b600080fd5b6003111561015757565b7f4e487b7100000000000000000000000000000000000000000000000000000000600052602160045260246000fd5b60005b8381106101995750506000910152565b8181015183820152602001610189565b907fffffffffffffffffffffffffffffffffffffffffffffffffffffffffffffffe0601f6020936101e581518092818752878088019101610186565b0116010190565b34610148576040807ffffffffffffffffffffffffffffffffffffffffffffffffffffffffffffffffc3601126101485767ffffffffffffffff90600480358381116101485761023f90369060040161011a565b602494916024359283116101485761026161026993969596369060040161011a565b929091611677565b90835193849360208086019181875285518093528387019382818560051b8a01019701956000906000935b8685106102a1578a8a038bf35b91939597997fffffffffffffffffffffffffffffffffffffffffffffffffffffffffffffffc0908a929496989a03018952895180516003811015610312576102fc83888b8095819560019852015191818582015201906101a9565b9b01990195019290918a99989795969492610294565b83866021877f4e487b7100000000000000000000000000000000000000000000000000000000835252fd5b7ffffffffffffffffffffffffffffffffffffffffffffffffffffffffffffffffc60209101126101485760043590565b346101485761037b3661033d565b6000526014602052602060406000205480151590816103a0575b506040519015158152f35b905042111538610395565b34610148577ffffffffffffffffffffffffffffffffffffffffffffffffffffffffffffffffc602081360112610148576004359067ffffffffffffffff82116101485760e082600401918336030112610148576104088180610cbb565b929060248201936104198585610cbb565b916104239361195e565b91610438836000526015602052604060002090565b9360038501546104489060ff1690565b61045190611708565b61045e6064840183610d0c565b90604051809160208201936104739185610def565b037fffffffffffffffffffffffffffffffffffffffffffffffffffffffffffffffe0810182526104a39082610962565b519020926044810193806104b78686610cbb565b6104c0916119b8565b906104cb9189611fb3565b946104d68580610cbb565b9590946104e39082610cbb565b926104ee9192610cbb565b91909260c486016104fe90610ee3565b96610507610ac5565b986105118d61176d565b8a52369061051e92610b0f565b6020890152369061052e92610b0f565b6040870152369061053e92610b0f565b606085015260808401526105569036906084016112e6565b60a083015260ff1660c082015261056c906120ea565b61057592612436565b60405160018152602090f35b0390f35b60208152608060606105f36105a5855184602087015260a08601906101a9565b6105df6020870151917fffffffffffffffffffffffffffffffffffffffffffffffffffffffffffffffe092838883030160408901526101a9565b9060408701519086830301848701526101a9565b93015191015290565b34610148576060807ffffffffffffffffffffffffffffffffffffffffffffffffffffffffffffffffc3601126101485767ffffffffffffffff906004358281116101485761064e90369060040161011a565b6024358481116101485761066690369060040161011a565b92909460443590811161014857610581957f31f2a9a1648ad524dab76bf973a43a9ef82147d8a007802be67f77b17e167474946106aa61075393369060040161011a565b6000896040959395516106bc816108ed565b81815281602082015281604082015201526106e16106dc82868686612538565b6117ad565b6106ea42611841565b6106f2610ad4565b996106fe368a8a610b0f565b8b5261070b368488610b0f565b60208c015261071b368686610b0f565b60408c01528a0190815261072e8a6118b4565b6107448251916000526014602052604060002090565b55519360405197889788611871565b0390a160405191829182610585565b34610148576107703661033d565b60005260146020526020604060002054604051908152f35b7f4e487b7100000000000000000000000000000000000000000000000000000000600052600060045260246000fd5b90600182811c92168015610800575b60208310146107d157565b7f4e487b7100000000000000000000000000000000000000000000000000000000600052602260045260246000fd5b91607f16916107c6565b805460009392610819826107b7565b918282526020936001916001811690816000146108815750600114610840575b5050505050565b90939495506000929192528360002092846000945b83861061086d57505050500101903880808080610839565b805485870183015294019385908201610855565b7fffffffffffffffffffffffffffffffffffffffffffffffffffffffffffffff00168685015250505090151560051b010191503880808080610839565b7f4e487b7100000000000000000000000000000000000000000000000000000000600052604160045260246000fd5b6080810190811067ffffffffffffffff82111761090957604052565b6108be565b6040810190811067ffffffffffffffff82111761090957604052565b60e0810190811067ffffffffffffffff82111761090957604052565b60c0810190811067ffffffffffffffff82111761090957604052565b90601f7fffffffffffffffffffffffffffffffffffffffffffffffffffffffffffffffe0910116810190811067ffffffffffffffff82111761090957604052565b34610148576000807ffffffffffffffffffffffffffffffffffffffffffffffffffffffffffffffffc36011261011357604051908082601654916109e6836107b7565b9283835260209460019186600182169182600014610a84575050600114610a2a575b5050610a1692500383610962565b6105816040519282849384528301906101a9565b90859250601682527fd833147d7dc355ba459fc788f669e58cfaf9dc25ddcd0702e87d69c7b51242895b858310610a6c575050610a1693508201013880610a08565b80548389018501528794508693909201918101610a54565b91509350610a169592507fffffffffffffffffffffffffffffffffffffffffffffffffffffffffffffff0091501682840152151560051b8201013880610a08565b60405190610ad28261092a565b565b60405190610ad2826108ed565b60405190610ad28261090e565b60405190610180820182811067ffffffffffffffff82111761090957604052565b92919267ffffffffffffffff82116109095760405191610b5760207fffffffffffffffffffffffffffffffffffffffffffffffffffffffffffffffe0601f8401160184610962565b829481845281830111610148578281602093846000960137010152565b9080601f8301121561014857816020610b8f93359101610b0f565b90565b34610148577ffffffffffffffffffffffffffffffffffffffffffffffffffffffffffffffffc6020813601126101485760043567ffffffffffffffff9182821161014857608090823603011261014857604051610bee816108ed565b816004013583811161014857610c0a9060043691850101610b74565b8152602482013583811161014857610c289060043691850101610b74565b60208201526044820135928311610148576064610c6392610c526105819560043691840101610b74565b6040840152013560608201526118b4565b6040519081529081906020820190565b3461014857610c813661033d565b60005260156020526060604060002060ff6001820154169060ff600360028301549201541690604051928352602083015215156040820152f35b9035907fffffffffffffffffffffffffffffffffffffffffffffffffffffffffffffffe181360301821215610148570180359067ffffffffffffffff82116101485760200191813603831361014857565b9035907fffffffffffffffffffffffffffffffffffffffffffffffffffffffffffffffe181360301821215610148570180359067ffffffffffffffff821161014857602001918160051b3603831361014857565b90357fffffffffffffffffffffffffffffffffffffffffffffffffffffffffffffffe18236030181121561014857016020813591019167ffffffffffffffff821161014857813603831361014857565b601f82602094937fffffffffffffffffffffffffffffffffffffffffffffffffffffffffffffffe0938186528686013760008582860101520116010190565b6020928084830185845252604093604083019260408360051b8201019585600080935b868510610e255750505050505050505090565b9091929394959697987fffffffffffffffffffffffffffffffffffffffffffffffffffffffffffffffc082820301895289357fffffffffffffffffffffffffffffffffffffffffffffffffffffffffffffffc185360301811215610ed35787610ec26001938783940190610eb5610eab610e9f8480610d60565b8d85528d850191610db0565b9285810190610d60565b9185818503910152610db0565b9b0199019796950193929190610e12565b8380fd5b60038210156101575752565b3560ff811681036101485790565b15610ef857565b60646040517f08c379a000000000000000000000000000000000000000000000000000000000815260206004820152601a60248201527f4143433a20696e76616c696420736967207468726573686f6c640000000000006044820152fd5b7f4e487b7100000000000000000000000000000000000000000000000000000000600052603260045260246000fd5b8054821015610fa15760005260206000209060011b0190600090565b610f56565b9060038110156101575760ff7fffffffffffffffffffffffffffffffffffffffffffffffffffffffffffffff008354169116179055565b818110610fe8575050565b60008155600101610fdd565b9190601f811161100357505050565b610ad2926000526020600020906020601f840160051c8301931061102f575b601f0160051c0190610fdd565b9091508190611022565b91908254680100000000000000008110156109095761106090600194600182018155610f85565b6111b65781519060038210156101575761107c60019282610fa6565b01906020809101519384519167ffffffffffffffff8311610909576110ab836110a586546107b7565b86610ff4565b602091601f841160011461110c57505081906110fd939495600092611101575b50507fffffffffffffffffffffffffffffffffffffffffffffffffffffffffffffffff8260011b9260031b1c19161790565b9055565b0151905038806110cb565b957fffffffffffffffffffffffffffffffffffffffffffffffffffffffffffffffe084939293169661114386600052602060002090565b936000915b89831061119f5750505083600195969710611168575b505050811b019055565b01517fffffffffffffffffffffffffffffffffffffffffffffffffffffffffffffffff60f88460031b161c1916905538808061115e565b838501518655948501949381019391810191611148565b610788565b9382879695829460409b9996948237019160008352823701916000835282370191825260208201520190565b604051906111f48261090e565b600382527f41434300000000000000000000000000000000000000000000000000000000006020830152565b6040519061122d826108ed565b6080368337565b604051906112418261090e565b6040368337565b604051906020820182811067ffffffffffffffff821117610909576040526020368337565b6040519061127a82610946565b60c0368337565b1561128857565b60646040517f08c379a000000000000000000000000000000000000000000000000000000000815260206004820152601760248201527f4143433a206e6f7420656e6f756768207369676e6572730000000000000000006044820152fd5b9190604051926112f58461090e565b83906040810192831161014857905b82821061131057505050565b8135815260209182019101611304565b1561132757565b60646040517f08c379a000000000000000000000000000000000000000000000000000000000815260206004820152601a60248201527f4143433a206167672d73696720766572696679206661696c65640000000000006044820152fd5b6113ad6113bd6113958380610cbb565b6020850193916113a58587610cbb565b92909161195e565b6000526015602052604060002090565b604083016113d46113ce8286610cbb565b906119b8565b926113f86113e56060870187610d0c565b6040516020810193909283929085610def565b039361142a7fffffffffffffffffffffffffffffffffffffffffffffffffffffffffffffffe095868101845283610962565b61143c611435610ae1565b9788610ed7565b81602088015260038601611458611454825460ff1690565b1590565b61153457506114d26114986114c561152a97611524976114b98d8c61152f9f9a6115159a61151f9a60026114a061148f8780610cbb565b9c909988610cbb565b939097610cbb565b949093519020940154946040519a8b9860208a016111bb565b03908101835282610962565b6114cd6111e7565b611adc565b926114db611220565b506114f06114eb60e08301610ee3565b611db0565b60ff61150c61150660018c989598015460ff1690565b60ff1690565b91161015611281565b60a03691016112e6565b611e91565b50611320565b611039565b600190565b935050505061152a9150611597611566608061152f970161156160ff61155983610ee3565b161515610ef1565b610ee3565b600185019060ff167fffffffffffffffffffffffffffffffffffffffffffffffffffffffffffffff00825416179055565b60017fffffffffffffffffffffffffffffffffffffffffffffffffffffffffffffff00825416179055565b90610ad26115d6926040519384809261080a565b0383610962565b90815467ffffffffffffffff8111610909576020926040936040519461160960208560051b0187610962565b83865260208601926000526020600020906000935b85851061162d57505050505050565b600284600192845161163e8161090e565b61164c60ff88541682610ed7565b85516116658161165e81898c0161080a565b0382610962565b8382015281520193019401939161161e565b9061168393929161195e565b6000526015602052604060002060ff6003820154166116ff576040517f08c379a000000000000000000000000000000000000000000000000000000000815260206004820152601560248201527f4143433a20706f6c696379206e6f7420666f756e6400000000000000000000006044820152606490fd5b0390fd5b610b8f906115dd565b1561170f57565b60646040517f08c379a000000000000000000000000000000000000000000000000000000000815260206004820152601960248201527f4143433a20706f6c6963792d736574206e6f7420666f756e64000000000000006044820152fd5b9060405161177a816108ed565b606060ff6003839561178b816115dd565b8552826001820154166020860152600281015460408601520154161515910152565b156117b457565b60646040517f08c379a000000000000000000000000000000000000000000000000000000000815260206004820152601160248201527f4143433a20556e617574686f72697a65640000000000000000000000000000006044820152fd5b7f4e487b7100000000000000000000000000000000000000000000000000000000600052601160045260246000fd5b90610e10820180921161185057565b611812565b906001820180921161185057565b600101908160011161185057565b97969591926118af946118936118a1936060989660808d5260808d0191610db0565b918a830360208c0152610db0565b918783036040890152610db0565b930152565b805190611958604360208084015160606040860151950151604051958361193e816118e98a9788019b8c815193849201610186565b8601947f7c000000000000000000000000000000000000000000000000000000000000009586848201526119268251809386602185019101610186565b01918560218401528351938491602285019101610186565b019160228301526023820152036023810184520182610962565b51902090565b929161195891836021926040519583879460208601998a378401917f7c0000000000000000000000000000000000000000000000000000000000000060208401528583013701600083820152036001810184520182610962565b6119c3913691610b0f565b602081519101207fb3e71936029ea100264457a898dcb589dd7ef1f9c03768f6d110e3d43558029d8114611aa8577f89b51e83cb3fc3ff6274369bee8b175aeaa38ae40d40277bc6c12974f383a6fd8114611aa2577f0f7993c1cc9e18041afdbf383610eddf76760e765912de5665a4361729fb207d14611a9d576040517f08c379a000000000000000000000000000000000000000000000000000000000815260206004820152601860248201527f4143433a20756e6b6e6f776e20706f6c696379207479706500000000000000006044820152606490fd5b600290565b50600190565b50600090565b6080810192916000915b60048310611ac557505050565b600190825181526020809101920192019190611ab8565b90611ae5611234565b506040808051611af48161090e565b36903782519260ff8411611d475760ff611b0c6129a1565b94169382519081611b25878560209889850195866129f0565b0391611b577fffffffffffffffffffffffffffffffffffffffffffffffffffffffffffffffe093848101835282610962565b51902091835185810190611b7d81611b718a868987612a82565b03858101835282610962565b51902095611b896129bc565b936001926001945b60038610611cd257505050505050611c3881856060611c3f94015277ffffffffffffffffffffffffffffffffffffffffffffffff80601883015116907f30644e72e131a029b85045b68181585d97816a916871ca8d3c208c16d87cfd478092826048838260308901511681780100000000000000000000000000000000000000000000000080960908960151169289611c28610ae1565b878152019a169209088652612626565b9351612626565b91611c48611220565b9284518452818501518285015280518385015201516060830152611c94818460808560067ffffffffffffffffffffffffffffffffffffffffffffffffffffffffffffff8305a01fa1590565b611c9d57505090565b6116fb9250519182917f128e3f0800000000000000000000000000000000000000000000000000000000835260048301611aae565b909192938383879b8b7fffffffffffffffffffffffffffffffffffffffffffffffffffffffffffffffff8a611d308e611d248d8a9f611506611d1391611863565b9251988993898986019c188c612af4565b03898101875286610962565b0160051b8b01015251902099019493929190611b91565b6116fb91519182917f26e4f9ba00000000000000000000000000000000000000000000000000000000835260048301612990565b60ff1660ff81146118505760010190565b6005811015610fa15760021b90600090565b60ff60019116019060ff821161185057565b611db8611220565b6000805b60ff8082166005811015611e87576001901b851616611de4575b611ddf90611d7b565b611dbc565b90611e7f611ddf91845160208601805190611e7060408901938885519460608c01958651611e1184611d8c565b505491611e37611e2d611e2387611d8c565b5060010190600090565b90549060031b1c90565b93611e6a611e2d611e60611e5a611e2d611e508b611d8c565b5060020190600090565b98611d8c565b5060030190600090565b9661285a565b90929591945252528552611d9e565b919050611dd6565b5050509291509190565b604060209283610180969581611ea5610aee565b95805187520151828601527f198e9393920d483a7260bfb731fb5d25f1aa493335a9e71297e485b7aef312c2848601527f1800deef121f1e76426a00665e5c4479674322d4f75edadd46debd5cd992f6ed60608601527f275dc4a288d1afb3cbb1ac09187524c7db36395df7be3b99e673b13a075a65ec60808601527f1d9befcd05a5323e6da4d435f3b617cdb3af83285c2df711ef39c01571827f9d60a0860152805160c0860152015160e084015283810151610100840152805161012084015260608101516101408401520151610160820152611f82611248565b93849160087ffffffffffffffffffffffffffffffffffffffffffffffffffffffffffffff8305a01fa915115159190565b9160009160005b845481101561205057611fcd8186610f85565b5060ff8154166003841015612023578381611fe8879361014d565b149182612006575b5050611ffe57600101611fba565b935050505090565b6120149192506001016115c2565b60208151910120148338611ff0565b6024867f4e487b710000000000000000000000000000000000000000000000000000000081526021600452fd5b6040517f08c379a000000000000000000000000000000000000000000000000000000000815260206004820152601560248201527f4143433a20706f6c696379206e6f7420666f756e6400000000000000000000006044820152606490fd5b602080936120cf826120dd946120cf60409b999782815194859201610186565b019182815194859201610186565b0191825260208201520190565b611524610ad29161218960a061215660208401516114c560408601519161212a6060880151608089015160408a51015191604051968795602087016120af565b037fffffffffffffffffffffffffffffffffffffffffffffffffffffffffffffffe08101835282610962565b9261215f611220565b506121716114eb60c083015160ff1690565b60ff61150c611506602086989598510160ff90511690565b0151611e91565b907f30644e72e131a029b85045b68181585d97816a916871ca8d3c208c16d87cfd4791820391821161185057565b919091828114612301576121d283546107b7565b67ffffffffffffffff8111610909576121f5816121ef84546107b7565b84610ff4565b600093601f821160011461224f576110fd92939482916000926122445750507fffffffffffffffffffffffffffffffffffffffffffffffffffffffffffffffff8260011b9260031b1c19161790565b0154905038806110cb565b6122817fffffffffffffffffffffffffffffffffffffffffffffffffffffffffffffffe0831691600052602060002090565b9461229184600052602060002090565b91815b8181106122e9575095836001959697106122b257505050811b019055565b01547fffffffffffffffffffffffffffffffffffffffffffffffffffffffffffffffff60f88460031b161c1916905538808061115e565b87830154845560019384019390920191602001612294565b509050565b906111b65760016000918281550161231e81546107b7565b8061232857505050565b82601f821160011461233957505055565b9091808252612357601f60208420940160051c840160018501610fdd565b5555565b8054906000918282558061237e575b508082600160039301558260028201550155565b60017f7fffffffffffffffffffffffffffffffffffffffffffffffffffffffffffffff821682036118505782845260208085209260011b8301925b8381106123c85750505061236a565b808660029255868482016123dc81546107b7565b806123eb575b505050016123b9565b86601f80831160011461240557505050555b8638806123e2565b93839052868b2061243194612421930160051c81019101610fdd565b6000908082528160208120915555565b6123fd565b908154907fffffffffffffffffffffffffffffffffffffffffffffffffffffffffffffffff91828101908111611850578082036124f4575b505081549081156124c557600291019161249161248b8483610f85565b90612306565b8281550161249f8154611855565b9055156124a95750565b6124c0610ad2916000526015602052604060002090565b61235b565b7f4e487b7100000000000000000000000000000000000000000000000000000000600052603160045260246000fd5b6125016125099185610f85565b509184610f85565b6111b65780821461246e576001808361252960ff61253196541685610fa6565b0191016121be565b388061246e565b9161254793916113ad9361195e565b612558611454600383015460ff1690565b611aa25780549060005b82811061257157505050600190565b61258661257e8284610f85565b505460ff1690565b61258f8161014d565b8061259e575b50600101612562565b6125a78161014d565b600181031561259557806125bc60029261014d565b036125c75738612595565b6040517f08c379a000000000000000000000000000000000000000000000000000000000815260206004820152601860248201527f4143433a20756e6b6e6f776e20706f6c696379207479706500000000000000006044820152606490fd5b9061262f611234565b917f30644e72e131a029b85045b68181585d97816a916871ca8d3c208c16d87cfd47808210156127f257806004818480090990600191816126738183860892612190565b840890828080808078016789af3a83522eb353c98fc6b36d713d5d8d1cc5dffffffa818b816126a4818b8d09613738565b9a8b920909099581806126b689612190565b98817f183227397098d014dc2822db40c0ac2ecbc0b548b438e5469e10460b6c3e7ea39a8b0899089680090980097f10216f7ba065e00de81ac1e7808072c9dd2b2385cd7b438469602eb24829a9bd098508908360038185818180090908938561271f86612b3b565b60000b0361279857505050855261273581612c69565b9060208701521561276557505b6020840191825191808316911603612758575050565b61276190612190565b9052565b6040517f396ec7710000000000000000000000000000000000000000000000000000000081526004810191909152602490fd5b9193509150806003818481818009090892846127b385612b3b565b60000b036127d957505085526127c881612c69565b906020870152156127655750612742565b819350600392508088528181800909086127c881612c69565b6040517fd53e941500000000000000000000000000000000000000000000000000000000815260048101839052602490fd5b1561282b57565b7f4e487b7100000000000000000000000000000000000000000000000000000000600052600160045260246000fd5b979497969596801580612988575b80612980575b80612978575b156128ce57505050508015806128c6575b806128be575b806128b6575b1561289d575b93929190565b6128b16128ac848688856133cb565b612824565b612897565b508215612891565b50831561288b565b508415612885565b849895989796971580612970575b80612968575b80612960575b61294857916129409795939161291d9795936129096128ac858585856133cb565b6129186128ac898989896133cb565b613477565b8051906020810151604082015160608301519160a0608085015194015194613660565b929391929091565b9350969350945092506128976128ac848688856133cb565b5087156128e8565b5086156128e2565b5085156128dc565b508315612874565b50821561286e565b508115612868565b906020610b8f9281815201906101a9565b604051906129ae82610946565b6088825260a0366020840137565b604051906129c9826108ed565b6060808352366020840137565b604051906129e38261092a565b60c0808352366020840137565b7fff0000000000000000000000000000000000000000000000000000000000000092612a2d602080936120cf600499989682815194859201610186565b01600081527f6000000000000000000000000000000000000000000000000000000000000000600182015260006002820152612a73825180936020600385019101610186565b019160f81b1660038201520190565b91602293927fff000000000000000000000000000000000000000000000000000000000000009281527f01000000000000000000000000000000000000000000000000000000000000006020820152612ae5825180936020602185019101610186565b019160f81b1660218201520190565b602294939181527fff00000000000000000000000000000000000000000000000000000000000000809360f81b166020820152612ae5825180936020602185019101610186565b612b436129d6565b9060c060206000828286018381528360408801528360608801528560808801527f183227397098d014dc2822db40c0ac2ecbc0b548b438e5469e10460b6c3e7ea3968760a08201527f30644e72e131a029b85045b68181585d97816a916871ca8d3c208c16d87cfd47958691015260055afa926000519315612c2d5750507f30644e72e131a029b85045b68181585d97816a916871ca8d3c208c16d87cfd468214612c075781151580612bfc575b612765575060000b90565b506001821415612bf1565b50507fffffffffffffffffffffffffffffffffffffffffffffffffffffffffffffffff90565b60649350604051927fc6daf7ab000000000000000000000000000000000000000000000000000000008452600484015260248301526044820152fd5b907f30644e72e131a029b85045b68181585d97816a916871ca8d3c208c16d87cfd478080808080808080808b8180808080808080808080808080808f8180828180808080808080808080809e8180808080858180808080808087819e8280808080808681808080808080809e818080808481808080808080808089819f828080808080808080808080808d819e8280808080808080888180808080809e8180808080808080808981808080809e81808080808080808080808b8180809e81808080808080808080808b8180809e818080808080808080808a818080809e8180808080808087818080808080809e8180808080808681808080808080809e8180808080808681808080808080809e8180808080808681808080808080809e8180808080808080808080808c81809e81808080808080808080808b8180809e8180808080808087818080808080809e81808080808080809781808080808581808080808080808080808b8181800909818c81818009090981808c8181800909818d818180090909098180808c8181800909818d818180090909818c818082818180090991818180090909090980098009800981808781818009099180090980098009800909800980098009800909800980098009800981808c8180828009918180828009918181800909090991800909800980098009800981808088800981808a8009818b8181800909090991800909800980098009098009800980098180808a800981808c8009818d8181800909090991800909800980098009800980090980098009800981808c8181800909918009098009800980098009800980099281808083818180090981848181800909099181808280099181808280099181818009090909099180090980098009800980098009800980098009800981808d818082800991818180090909918009098009800980098180898181800909918009098009800980099281808280099181808280099181818009090909918009098009800980098009800980098180808b8009818c8181800909099180090980098009800980098009800909800980098009800980098009818080808c8009818d818180090909818c81808281818009099181818009090909918009098009800980098009928180808381818009098184818180090909918180828009918180828009918181800909090909918009098009800981808d818082800991818180090909918009098009800980098009800980098009928181800909918009098009800980098009800980098009800992818082800991818180090909918009098009800981808d818180090991800909800980098009800980098009800992818080838009818481818009090991818082818180090991818180090909099180090980098009800981808d81808083800981848181800909099181808281818009099181818009090909918009098009800980098009818080898009818a8181800909099180090980098009928180828009918180828009918181800909090991800909800980098009800980098009800980098009818080808b8009818c81818009090981808c8181800909818d81818009090909918009098009800980099281808280099181818009090991800909800980098009800981808d81808281818009099181808281818009099181818009090909918009098009800980098009800980098180808088800981898181800909098180898181800909818a81818009090909918009098009800909800980098009800980098009928180828009918180828009918181800909090991800909800980098009800980098180808c8009818d8180828009918181800909090991800909800980098009800981808087800981888181800909099180090980098009098009800980098009800980099281808083818180090981848181800909099181808280099181808280099181818009090909099180090980098009800980098009818080808b8181800909818c81818009090981808c8181800909818d818082818180090991818180090909090991800909800980098009800980090980098009800980098009800909800980098009800992818180090991800909800980098009800980098009800980098180808c818082800991818180090909818d8180828181800909918181800909090991800909800980098180888181800909918009098009800992818180090991800909800980098009800980098009800981808d8180808381818009098184818180090909918180828181800909918180828181800909918181800909090909918009098009800980098180808a818180090981808c8181800909818d818180090909099180090980098009800992818080838181800909818481818009090991818082818180090991818082818180090991818180090909090991800909800980098180808c8009818d8181800909099180090980098009800980098180808781818009098180898181800909818a81818009090909918009098009917f30644e72e131a029b85045b68181585d97816a916871ca8d3c208c16d87cfd478380091490565b6134136133fe7f054fb1321278f57b36922d1d65a0ed99e1cca4ac0e95daea09b8a53ab3dbc4629561341b958181613eb9565b93909261340d82828181613eb9565b90613eb9565b929091613eff565b91907f30644e72e131a029b85045b68181585d97816a916871ca8d3c208c16d87cfd479182910815918261344e57505090565b7f2fcd3ac2a640a154eb23960892a85a68f031ca0c8344b23a577dcf1052b9e775919250081590565b94979697959192939561349361348b61126d565b998a94613e71565b9790966134b96134a38888613e71565b9490936060880195865260408801948552613e71565b9790966134c68684613e71565b608060a08a9993990199828b5201978089528a149081613656575b506135dc5750505050505050506040860192835194606088019586519161350793613eff565b608088019283519460a08a019586519161352093613eff565b61352c81838181613eb9565b838388959395518a51613540918589613eb9565b9361354c939197613eb9565b9890976135598a8a613e71565b909252528b878961356c888a8181613eb9565b61357591613e71565b61357f9391613eff565b61358984886141bc565b9161359393613eff565b8181966135a09396613eb9565b9091602001528c526135b193613eff565b916135bb93613eb9565b91909284518651916135cc93613eb9565b916135d693613eff565b90925252565b9397509397509397869b9a9b999195995114908161364b575b5061362c575050505050505050600060a0820152600060808201526000606082015260016040820152600060208201526001815290565b61363593613f41565b9092969397919498525252526020830152815290565b9050865114386135f5565b90508a14386134e1565b95939195949092947f30644e72e131a029b85045b68181585d97816a916871ca8d3c208c16d87cfd479260405160208152602080820152602060408201528480838009818680090860608201527f30644e72e131a029b85045b68181585d97816a916871ca8d3c208c16d87cfd4560808201528460a082015260208160c08160057ffffffffffffffffffffffffffffffffffffffffffffffffffffffffffffff8305a01fa90519015610148578481819309930983039283116118505782826137349561372c93613eb9565b959096613eb9565b9091565b807f30644e72e131a029b85045b68181585d97816a916871ca8d3c208c16d87cfd47808080808080808881808080809e8180808080808080808981808080809e8180808080808080888180808080809e8180808080808080888180808080809e8181818080808080808781808080809e8180808080808087818080808080809e8180828180808080808080808080809e8180828180808080808080808981809e818080808080808080808080808d819e8280808080808080808080808080809e8082808080808080808080808080809e80828080808080808080808080808d819f828080808080808080808a818080809e8180808080808080808981808080809e8180808080808080808981808080809e8180808080808080808981808080809e8180808080808080808080808080809e80828080808080808080808080808d819f8280808080808080808981808080809e818080808080808080809981808080808581808080808080808080808b8181800909818c81818009090981808c8181800909818d818180090909098180808c8181800909818d818180090909818c818082818180090991818180090909090980098009800981808781818009099180090980098009800909800980098009800909800980098009800981808c8180828009918180828009918181800909090991800909800980098009800981808088800981808a8009818b8181800909090991800909800980098009098009800980098180808a800981808c8009818d8181800909090991800909800980098009800980090980098009800981808c8181800909918009098009800980098009800980099281808083818180090981848181800909099181808280099181808280099181818009090909099180090980098009800980098009800980098009800981808d818082800991818180090909918009098009800980098180898181800909918009098009800980099281808280099181808280099181818009090909918009098009800980098009800980098180808b8009818c8181800909099180090980098009800980098009800909800980098009800980098009818080808c8009818d818180090909818c81808281818009099181818009090909918009098009800980098009928180808381818009098184818180090909918180828009918180828009918181800909090909918009098009800981808d818082800991818180090909918009098009800980098009800980098009928181800909918009098009800980098009800980098009800992818082800991818180090909918009098009800981808d818180090991800909800980098009800980098009800992818080838009818481818009090991818082818180090991818180090909099180090980098009800981808d81808083800981848181800909099181808281818009099181818009090909918009098009800980098009818080898009818a8181800909099180090980098009928180828009918180828009918181800909090991800909800980098009800980098009800980098009818080808b8009818c81818009090981808c8181800909818d81818009090909918009098009800980099281808280099181818009090991800909800980098009800981808d81808281818009099181808281818009099181818009090909918009098009800980098009800980098180808088800981898181800909098180898181800909818a81818009090909918009098009800909800980098009800980098009928180828009918180828009918181800909090991800909800980098009800980098180808c8009818d8180828009918181800909090991800909800980098009800981808087800981888181800909099180090980098009098009800980098009800980099281808083818180090981848181800909099181808280099181808280099181818009090909099180090980098009800980098009818080808b8181800909818c81818009090981808c8181800909818d81808281818009099181818009090909099180090980098009800980098009098009800980098009800980090980098009800980099281818009099180090980098009800980098009800980098009818080808a8009818b81818009090981808b8181800909818c818180090909099180090980098009928181800909918009098009800981808d81818009099180090980098009800980098009800980099281808083818180090981848181800909099181808281818009099181808281818009099181818009090909099180090980098009800981808d8180828181800909918180828181800909918181800909090991800909800980098009818080808b8181800909818c81818009090981808c8181800909818d81808281818009099181818009090909099180090980098009818080878009818881818009090991800909800980090980098009800980098009928180828009918181800909099180090990565b9190917f30644e72e131a029b85045b68181585d97816a916871ca8d3c208c16d87cfd4790816000850982038281116118505760008360018180948183880908970992090890565b909392917f30644e72e131a029b85045b68181585d97816a916871ca8d3c208c16d87cfd4792838187098403848111611850578285809492818094880908970992090890565b939290937f30644e72e131a029b85045b68181585d97816a916871ca8d3c208c16d87cfd47928303918383116118505783039183831161185057839108930890565b92938291857f30644e72e131a029b85045b68181585d97816a916871ca8d3c208c16d87cfd476003830982877f30644e72e131a029b85045b68181585d97816a916871ca8d3c208c16d87cfd476003820992613f9c93613eb9565b9096613fa88387613e71565b613fb8819b839984988496613eb9565b613fc29391613eb9565b939097613fd1848b8181613eb9565b7f30644e72e131a029b85045b68181585d97816a916871ca8d3c208c16d87cfd4760088809907f30644e72e131a029b85045b68181585d97816a916871ca8d3c208c16d87cfd4760088d099061402693613eff565b99819b8b979296614039878b8181613eb9565b99819f7f30644e72e131a029b85045b68181585d97816a916871ca8d3c208c16d87cfd4760048d979498099260047f30644e72e131a029b85045b68181585d97816a916871ca8d3c208c16d87cfd4791099261409493613eff565b61409e9391613eb9565b9390947f30644e72e131a029b85045b68181585d97816a916871ca8d3c208c16d87cfd4760088209917f30644e72e131a029b85045b68181585d97816a916871ca8d3c208c16d87cfd4760088209926140f693613eb9565b6141009391613eb9565b9161410a93613eff565b96909760027f30644e72e131a029b85045b68181585d97816a916871ca8d3c208c16d87cfd4791099260027f30644e72e131a029b85045b68181585d97816a916871ca8d3c208c16d87cfd4791099261416293613eb9565b96909761416e93613eb9565b60087f30644e72e131a029b85045b68181585d97816a916871ca8d3c208c16d87cfd4791099060087f30644e72e131a029b85045b68181585d97816a916871ca8d3c208c16d87cfd47910991565b600280919392937f30644e72e131a029b85045b68181585d97816a916871ca8d3c208c16d87cfd479283910993099056fea264697066735822122024a08a7cf6f5195fcd7bfdf427aa37deda81b49df9ff2d3de0b809ed10ec831464736f6c63430008180033",
  "linkReferences": {},
  "deployedLinkReferences": {}
}