{
  "_format": "hh-sol-artifact-1",
  "contractName": "AccessControlContract",
  "sourceName": "contracts/main/AccessControlContract.sol",
  "abi": [
    {
      "inputs": [
        {
          "internalType": "uint256[4]",
          "name": "input",
          "type": "uint256[4]"
        }
      ],
      "name": "BNAddFailed",
      "type": "error"
    },
    {
      "inputs": [
        {
          "internalType": "bytes",
          "name": "dst",
          "type": "bytes"
        }
      ],
      "name": "InvalidDSTLength",
      "type": "error"
    },
    {
      "inputs": [
        {
          "internalType": "uint256",
          "name": "x",
          "type": "uint256"
        }
      ],
      "name": "InvalidFieldElement",
      "type": "error"
    },
    {
      "inputs": [
        {
          "internalType": "uint256",
          "name": "noSqrt",
          "type": "uint256"
        }
      ],
      "name": "MapToPointFailed",
      "type": "error"
    },
    {
      "inputs": [
        {
          "internalType": "uint256",
          "name": "base",
          "type": "uint256"
        },
        {
          "internalType": "uint256",
          "name": "exponent",
          "type": "uint256"
        },
        {
          "internalType": "uint256",
          "name": "modulus",
          "type": "uint256"
        }
      ],
      "name": "ModExpFailed",
      "type": "error"
    },
    {
      "inputs": [
        {
          "internalType": "string",
          "name": "agentDID",
          "type": "string"
        },
        {
          "internalType": "string",
          "name": "resourceIdentifier",
          "type": "string"
        },
        {
          "internalType": "string",
          "name": "actionIdentifier",
          "type": "string"
        }
      ],
      "name": "evaluateAccess",
      "outputs": [
        {
          "internalType": "bool",
          "name": "",
          "type": "bool"
        }
      ],
      "stateMutability": "view",
      "type": "function"
    },
    {
      "inputs": [
        {
          "internalType": "string",
          "name": "resourceIdentifier",
          "type": "string"
        },
        {
          "internalType": "string",
          "name": "actionIdentifier",
          "type": "string"
        }
      ],
      "name": "getPolicy",
      "outputs": [
        {
          "components": [
            {
              "internalType": "enum IACC.PolicyType",
              "name": "policyType",
              "type": "uint8"
            },
            {
              "internalType": "bytes",
              "name": "policyParameters",
              "type": "bytes"
            }
          ],
          "internalType": "struct IACC.Policy[]",
          "name": "",
          "type": "tuple[]"
        }
      ],
      "stateMutability": "view",
      "type": "function"
    },
    {
      "inputs": [
        {
          "components": [
            {
              "internalType": "string",
              "name": "resourceIdentifier",
              "type": "string"
            },
            {
              "internalType": "string",
              "name": "actionIdentifier",
              "type": "string"
            },
            {
              "internalType": "string",
              "name": "policyTypeStr",
              "type": "string"
            },
            {
              "components": [
                {
                  "internalType": "string",
                  "name": "key",
                  "type": "string"
                },
                {
                  "internalType": "string",
                  "name": "value",
                  "type": "string"
                }
              ],
              "internalType": "struct IACC.KV[]",
              "name": "policyParameters",
              "type": "tuple[]"
            },
            {
              "internalType": "address[]",
              "name": "controllers",
              "type": "address[]"
            },
            {
              "internalType": "uint256[4][]",
              "name": "blsPubKeys",
              "type": "uint256[4][]"
            },
            {
              "internalType": "uint8",
              "name": "requiredSigs",
              "type": "uint8"
            },
            {
              "internalType": "uint256[2]",
              "name": "aggSig",
              "type": "uint256[2]"
            },
            {
              "internalType": "uint256",
              "name": "controllerMask",
              "type": "uint256"
            }
          ],
          "internalType": "struct IACC.RegisterPolicyParams",
          "name": "params",
          "type": "tuple"
        }
      ],
      "name": "registerPolicy",
      "outputs": [
        {
          "internalType": "bool",
          "name": "",
          "type": "bool"
        }
      ],
      "stateMutability": "nonpayable",
      "type": "function"
    },
    {
      "inputs": [
        {
          "components": [
            {
              "internalType": "string",
              "name": "resourceIdentifier",
              "type": "string"
            },
            {
              "internalType": "string",
              "name": "actionIdentifier",
              "type": "string"
            },
            {
              "internalType": "string",
              "name": "policyTypeStr",
              "type": "string"
            },
            {
              "components": [
                {
                  "internalType": "string",
                  "name": "key",
                  "type": "string"
                },
                {
                  "internalType": "string",
                  "name": "value",
                  "type": "string"
                }
              ],
              "internalType": "struct IACC.KV[]",
              "name": "policyParameters",
              "type": "tuple[]"
            },
            {
              "internalType": "uint256[2]",
              "name": "aggSig",
              "type": "uint256[2]"
            },
            {
              "internalType": "uint256",
              "name": "controllerMask",
              "type": "uint256"
            }
          ],
          "internalType": "struct IACC.RemovePolicyParams",
          "name": "params",
          "type": "tuple"
        }
      ],
      "name": "removePolicy",
      "outputs": [
        {
          "internalType": "bool",
          "name": "",
          "type": "bool"
        }
      ],
      "stateMutability": "nonpayable",
      "type": "function"
    },
    {
      "inputs": [],
      "name": "systemThreatLevel",
      "outputs": [
        {
          "internalType": "string",
          "name": "",
          "type": "string"
        }
      ],
      "stateMutability": "view",
      "type": "function"
    }
  ],
  "bytecode": "0x60806040526040518060400160405280600381526020017f6c6f7700000000000000000000000000000000000000000000000000000000008152506001908161004891906102ab565b5034801561005557600080fd5b5061037d565b600081519050919050565b7f4e487b7100000000000000000000000000000000000000000000000000000000600052604160045260246000fd5b7f4e487b7100000000000000000000000000000000000000000000000000000000600052602260045260246000fd5b600060028204905060018216806100dc57607f821691505b6020821081036100ef576100ee610095565b5b50919050565b60008190508160005260206000209050919050565b60006020601f8301049050919050565b600082821b905092915050565b6000600883026101577fffffffffffffffffffffffffffffffffffffffffffffffffffffffffffffffff8261011a565b610161868361011a565b95508019841693508086168417925050509392505050565b6000819050919050565b6000819050919050565b60006101a86101a361019e84610179565b610183565b610179565b9050919050565b6000819050919050565b6101c28361018d565b6101d66101ce826101af565b848454610127565b825550505050565b600090565b6101eb6101de565b6101f68184846101b9565b505050565b5b8181101561021a5761020f6000826101e3565b6001810190506101fc565b5050565b601f82111561025f57610230816100f5565b6102398461010a565b81016020851015610248578190505b61025c6102548561010a565b8301826101fb565b50505b505050565b600082821c905092915050565b600061028260001984600802610264565b1980831691505092915050565b600061029b8383610271565b9150826002028217905092915050565b6102b48261005b565b67ffffffffffffffff8111156102cd576102cc610066565b5b6102d782546100c4565b6102e282828561021e565b600060209050601f8311600181146103155760008415610303578287015190505b61030d858261028f565b865550610375565b601f198416610323866100f5565b60005b8281101561034b57848901518255600182019150602085019450602081019050610326565b868310156103685784890151610364601f891682610271565b8355505b6001600288020188555050505b505050505050565b6158ea8061038c6000396000f3fe608060405234801561001057600080fd5b50600436106100575760003560e01c80632e06aac61461005c5780638f43cb061461008c578063a38ccea0146100bc578063aa10d77e146100ec578063fd9891871461010a575b600080fd5b61007660048036038101906100719190613cf3565b61013a565b6040516100839190613f7a565b60405180910390f35b6100a660048036038101906100a19190613f9c565b6102f7565b6040516100b3919061406b565b60405180910390f35b6100d660048036038101906100d191906140ab565b610738565b6040516100e3919061406b565b60405180910390f35b6100f4610d6a565b6040516101019190614149565b60405180910390f35b610124600480360381019061011f919061418a565b610df8565b604051610131919061406b565b60405180910390f35b6060600061014a86868686611317565b905060008082815260200190815260200160002060050160009054906101000a900460ff16156102b457600080828152602001908152602001600020600001805480602002602001604051908101604052809291908181526020016000905b828210156102a857838290600052602060002090600202016040518060400160405290816000820160009054906101000a900460ff1660028111156101f1576101f0613da0565b5b600281111561020357610202613da0565b5b815260200160018201805461021790614202565b80601f016020809104026020016040519081016040528092919081815260200182805461024390614202565b80156102905780601f1061026557610100808354040283529160200191610290565b820191906000526020600020905b81548152906001019060200180831161027357829003601f168201915b505050505081525050815260200190600101906101a9565b505050509150506102ef565b6040517f08c379a00000000000000000000000000000000000000000000000000000000081526004016102e69061427f565b60405180910390fd5b949350505050565b60008061030686868686611317565b9050600080600083815260200190815260200160002090508060050160009054906101000a900460ff1661033f5760019250505061072e565b60005b81600001805490508110156107265760008260000182815481106103695761036861429f565b5b906000526020600020906002020190506000600281111561038d5761038c613da0565b5b8160000160009054906101000a900460ff1660028111156103b1576103b0613da0565b5b036104f15760008160010180546103c790614202565b80601f01602080910402602001604051908101604052809291908181526020018280546103f390614202565b80156104405780601f1061041557610100808354040283529160200191610440565b820191906000526020600020905b81548152906001019060200180831161042357829003601f168201915b50505050508060200190518101906104589190614438565b9050600073__$02ad9ba44d5f8b108eb8cb9d26cfd8bba9$__6328f0ed18836040518263ffffffff1660e01b815260040161049391906144d8565b602060405180830381865af41580156104b0573d6000803e3d6000fd5b505050506040513d601f19601f820116820180604052508101906104d4919061451f565b9050806104ea576000965050505050505061072e565b5050610718565b6001600281111561050557610504613da0565b5b8160000160009054906101000a900460ff16600281111561052957610528613da0565b5b03610561576000801b8b8b60405161054292919061458b565b60405180910390200361055c57600094505050505061072e565b610717565b60028081111561057457610573613da0565b5b8160000160009054906101000a900460ff16600281111561059857610597613da0565b5b036106db5760008160010180546105ae90614202565b80601f01602080910402602001604051908101604052809291908181526020018280546105da90614202565b80156106275780601f106105fc57610100808354040283529160200191610627565b820191906000526020600020905b81548152906001019060200180831161060a57829003601f168201915b505050505080602001905181019061063f91906145c9565b9050600073__$ed72d0048cc008b4b5e9604803f3e23f0f$__637e2157cb6001846040518363ffffffff1660e01b815260040161067d9291906146e8565b602060405180830381865af415801561069a573d6000803e3d6000fd5b505050506040513d601f19601f820116820180604052508101906106be919061451f565b9050806106d4576000965050505050505061072e565b5050610716565b6040517f08c379a000000000000000000000000000000000000000000000000000000000815260040161070d90614764565b60405180910390fd5b5b5b508080600101915050610342565b506001925050505b9695505050505050565b60008061076383806000019061074e9190614793565b85806020019061075e9190614793565b611317565b90506000806000838152602001908152602001600020905060006107958580604001906107909190614793565b611350565b905060008580606001906107a991906147f6565b6040516020016107ba929190614a39565b6040516020818303038152906040529050600060405180604001604052808460028111156107eb576107ea613da0565b5b81526020018381525090508360050160009054906101000a900460ff16610a6257600087806080019061081e9190614a5d565b905011610860576040517f08c379a000000000000000000000000000000000000000000000000000000000815260040161085790614b0c565b60405180910390fd5b868060a001906108709190614b2c565b90508780608001906108829190614a5d565b9050146108c4576040517f08c379a00000000000000000000000000000000000000000000000000000000081526004016108bb90614bdb565b60405180910390fd5b60008760c00160208101906108d99190614c34565b60ff1611801561090f57508680608001906108f49190614a5d565b90508760c00160208101906109099190614c34565b60ff1611155b61094e576040517f08c379a000000000000000000000000000000000000000000000000000000000815260040161094590614cad565b60405180910390fd5b86806080019061095e9190614a5d565b85600101919061096f929190613996565b50868060a001906109809190614b2c565b856002019190610991929190613a36565b508660c00160208101906109a59190614c34565b8460030160006101000a81548160ff021916908360ff16021790555060018460050160006101000a81548160ff0219169083151502179055508360000181908060018154018082558091505060019003906000526020600020906002020160009091909190915060008201518160000160006101000a81548160ff02191690836002811115610a3757610a36613da0565b5b02179055506020820151816001019081610a519190614e79565b505050600195505050505050610d65565b60006040518060400160405280600381526020017f414343000000000000000000000000000000000000000000000000000000000081525080519060200120888060000190610ab19190614793565b8a8060200190610ac19190614793565b8c8060400190610ad19190614793565b89805190602001208c60040154604051602001610af699989796959493929190614fc7565b60405160208183030381529060405290506000610b486040518060400160405280600381526020017f414343000000000000000000000000000000000000000000000000000000000081525083611441565b9050610b52613a93565b6000805b8860010180549050811015610bfe57600180828e6101200135901c1603610bf157610be0838a6002018381548110610b9157610b9061429f565b5b9060005260206000209060040201600480602002604051908101604052809291908260048015610bd6576020028201915b815481526020019060010190808311610bc2575b50505050506115e3565b92508180610bed90615060565b9250505b8080600101915050610b56565b508760030160009054906101000a900460ff1660ff16811015610c56576040517f08c379a0000000000000000000000000000000000000000000000000000000008152600401610c4d906150f4565b60405180910390fd5b6000610c9d8c60e0016002806020026040519081016040528092919082600260200280828437600081840152601f19601f82011690508083019250505050505084866116ae565b50905080610ce0576040517f08c379a0000000000000000000000000000000000000000000000000000000008152600401610cd790615160565b60405180910390fd5b8860000186908060018154018082558091505060019003906000526020600020906002020160009091909190915060008201518160000160006101000a81548160ff02191690836002811115610d3957610d38613da0565b5b02179055506020820151816001019081610d539190614e79565b50505060019a50505050505050505050505b919050565b60018054610d7790614202565b80601f0160208091040260200160405190810160405280929190818152602001828054610da390614202565b8015610df05780601f10610dc557610100808354040283529160200191610df0565b820191906000526020600020905b815481529060010190602001808311610dd357829003601f168201915b505050505081565b600080610e23838060000190610e0e9190614793565b858060200190610e1e9190614793565b611317565b9050600080600083815260200190815260200160002090508060050160009054906101000a900460ff16610e8c576040517f08c379a0000000000000000000000000000000000000000000000000000000008152600401610e83906151cc565b60405180910390fd5b6000848060600190610e9e91906147f6565b604051602001610eaf929190614a39565b6040516020818303038152906040528051906020012090506000610ee1868060400190610edc9190614793565b611350565b90506000610ef0848385611889565b905060006040518060e00160405280866040518060c001604052908160008201805480602002602001604051908101604052809291908181526020016000905b8282101561102f57838290600052602060002090600202016040518060400160405290816000820160009054906101000a900460ff166002811115610f7857610f77613da0565b5b6002811115610f8a57610f89613da0565b5b8152602001600182018054610f9e90614202565b80601f0160208091040260200160405190810160405280929190818152602001828054610fca90614202565b80156110175780601f10610fec57610100808354040283529160200191611017565b820191906000526020600020905b815481529060010190602001808311610ffa57829003601f168201915b50505050508152505081526020019060010190610f30565b505050508152602001600182018054806020026020016040519081016040528092919081815260200182805480156110bc57602002820191906000526020600020905b8160009054906101000a900473ffffffffffffffffffffffffffffffffffffffff1673ffffffffffffffffffffffffffffffffffffffff1681526020019060010190808311611072575b5050505050815260200160028201805480602002602001604051908101604052809291908181526020016000905b8282101561114d5783829060005260206000209060040201600480602002604051908101604052809291908260048015611139576020028201915b815481526020019060010190808311611125575b5050505050815260200190600101906110ea565b5050505081526020016003820160009054906101000a900460ff1660ff1660ff168152602001600482015481526020016005820160009054906101000a900460ff16151515158152505081526020018980600001906111ac9190614793565b8080601f016020809104026020016040519081016040528093929190818152602001838380828437600081840152601f19601f8201169050808301925050505050505081526020018980602001906112049190614793565b8080601f016020809104026020016040519081016040528093929190818152602001838380828437600081840152601f19601f82011690508083019250505050505050815260200189806040019061125c9190614793565b8080601f016020809104026020016040519081016040528093929190818152602001838380828437600081840152601f19601f820116905080830192505050505050508152602001858152602001896080016002806020026040519081016040528092919082600260200280828437600081840152601f19601f82011690508083019250505050505081526020018960c0013581525090506112fd81611983565b611308858388611b6b565b60019650505050505050919050565b6000848484846040516020016113309493929190615238565b604051602081830303815290604052805190602001209050949350505050565b600080838360405161136392919061458b565b604051809103902090507fb3e71936029ea100264457a898dcb589dd7ef1f9c03768f6d110e3d43558029d810361139e57600091505061143b565b7f89b51e83cb3fc3ff6274369bee8b175aeaa38ae40d40277bc6c12974f383a6fd81036113cf57600191505061143b565b7f0f7993c1cc9e18041afdbf383610eddf76760e765912de5665a4361729fb207d810361140057600291505061143b565b6040517f08c379a000000000000000000000000000000000000000000000000000000000815260040161143290614764565b60405180910390fd5b92915050565b611449613ab5565b60006114558484611d20565b9050600061147a826000600281106114705761146f61429f565b5b6020020151611eb1565b9050600061149f836001600281106114955761149461429f565b5b6020020151611eb1565b90506114a9613a93565b826000600281106114bd576114bc61429f565b5b6020020151816000600481106114d6576114d561429f565b5b602002018181525050826001600281106114f3576114f261429f565b5b60200201518160016004811061150c5761150b61429f565b5b602002018181525050816000600281106115295761152861429f565b5b6020020151816002600481106115425761154161429f565b5b6020020181815250508160016002811061155f5761155e61429f565b5b6020020151816003600481106115785761157761429f565b5b602002018181525050600060408460808460066107d05a03fa9050806115d557816040517f128e3f080000000000000000000000000000000000000000000000000000000081526004016115cc9190615316565b60405180910390fd5b839550505050505092915050565b6115eb613a93565b60006040518451815260208501516020820152604085015160408201526060850151606082015283516080820152602084015160a0820152604084015160c0820152606084015160e082015260808161010083600c5afa91508051835260208101516020840152604081015160408401526060810151606084015250806116a7576040517f08c379a000000000000000000000000000000000000000000000000000000000815260040161169e9061537d565b60405180910390fd5b5092915050565b6000806000604051806101800160405280876000600281106116d3576116d261429f565b5b60200201518152602001876001600281106116f1576116f061429f565b5b602002015181526020017f198e9393920d483a7260bfb731fb5d25f1aa493335a9e71297e485b7aef312c281526020017f1800deef121f1e76426a00665e5c4479674322d4f75edadd46debd5cd992f6ed81526020017f275dc4a288d1afb3cbb1ac09187524c7db36395df7be3b99e673b13a075a65ec81526020017f1d9befcd05a5323e6da4d435f3b617cdb3af83285c2df711ef39c01571827f9d8152602001856000600281106117a7576117a661429f565b5b60200201518152602001856001600281106117c5576117c461429f565b5b60200201518152602001866001600481106117e3576117e261429f565b5b60200201518152602001866000600481106118015761180061429f565b5b602002015181526020018660036004811061181f5761181e61429f565b5b602002015181526020018660026004811061183d5761183c61429f565b5b6020020151815250905061184f613ad7565b6020816101808460086107d05a03fa92506000816000600181106118765761187561429f565b5b6020020151141593505050935093915050565b600080600090505b84600001805490508110156119405760008560000182815481106118b8576118b761429f565b5b906000526020600020906002020190508460028111156118db576118da613da0565b5b8160000160009054906101000a900460ff1660028111156118ff576118fe613da0565b5b148015611923575083816001016040516119199190615420565b6040518091039020145b1561193257819250505061197c565b508080600101915050611891565b506040517f08c379a00000000000000000000000000000000000000000000000000000000081526004016119739061427f565b60405180910390fd5b9392505050565b60006040518060400160405280600381526020017f41434300000000000000000000000000000000000000000000000000000000008152508051906020012082602001518360400151846060015185608001518660000151608001516040516020016119f496959493929190615468565b60405160208183030381529060405290506000611a466040518060400160405280600381526020017f414343000000000000000000000000000000000000000000000000000000000081525083611441565b9050611a50613a93565b6000805b85600001516020015151811015611ac057600180828860c00151901c1603611ab357611aa2838760000151604001518381518110611a9557611a9461429f565b5b60200260200101516115e3565b92508180611aaf90615060565b9250505b8080600101915050611a54565b5084600001516060015160ff16811015611b0f576040517f08c379a0000000000000000000000000000000000000000000000000000000008152600401611b06906150f4565b60405180910390fd5b6000611b208660a0015184866116ae565b50905080611b63576040517f08c379a0000000000000000000000000000000000000000000000000000000008152600401611b5a90615160565b60405180910390fd5b505050505050565b600060018460000180549050611b8191906154cc565b9050808314611c2857836000018181548110611ba057611b9f61429f565b5b9060005260206000209060020201846000018481548110611bc457611bc361429f565b5b90600052602060002090600202016000820160009054906101000a900460ff168160000160006101000a81548160ff02191690836002811115611c0a57611c09613da0565b5b021790555060018201816001019081611c239190615516565b509050505b83600001805480611c3c57611c3b6155fe565b5b6001900381819060005260206000209060020201600080820160006101000a81549060ff0219169055600182016000611c759190613af9565b505090556001846004016000828254611c8e919061562d565b925050819055506000846000018054905003611d1a5760008083815260200190815260200160002060008082016000611cc79190613b39565b600182016000611cd79190613b5d565b600282016000611ce79190613b7e565b6003820160006101000a81549060ff021916905560048201600090556005820160006101000a81549060ff021916905550505b50505050565b611d28613ab5565b6000611d3484846125ac565b90506000806000806018850177ffffffffffffffffffffffffffffffffffffffffffffffff815116935060308601905077ffffffffffffffffffffffffffffffffffffffffffffffff81511694507f30644e72e131a029b85045b68181585d97816a916871ca8d3c208c16d87cfd47857f30644e72e131a029b85045b68181585d97816a916871ca8d3c208c16d87cfd477801000000000000000000000000000000000000000000000000870908925060488601905077ffffffffffffffffffffffffffffffffffffffffffffffff815116935060608601905077ffffffffffffffffffffffffffffffffffffffffffffffff81511694507f30644e72e131a029b85045b68181585d97816a916871ca8d3c208c16d87cfd47857f30644e72e131a029b85045b68181585d97816a916871ca8d3c208c16d87cfd4778010000000000000000000000000000000000000000000000008709089150506040518060400160405280838152602001828152509550505050505092915050565b611eb9613ab5565b7f30644e72e131a029b85045b68181585d97816a916871ca8d3c208c16d87cfd478210611f1d57816040517fd53e9415000000000000000000000000000000000000000000000000000000008152600401611f149190615670565b60405180910390fd5b60007f30644e72e131a029b85045b68181585d97816a916871ca8d3c208c16d87cfd4780611f4e57611f4d61568b565b5b60047f30644e72e131a029b85045b68181585d97816a916871ca8d3c208c16d87cfd4780611f7f57611f7e61568b565b5b85860909905060007f30644e72e131a029b85045b68181585d97816a916871ca8d3c208c16d87cfd4780611fb657611fb561568b565b5b8260010890507f30644e72e131a029b85045b68181585d97816a916871ca8d3c208c16d87cfd4780611feb57611fea61568b565b5b827f30644e72e131a029b85045b68181585d97816a916871ca8d3c208c16d87cfd4761201791906154cc565b600108915060006120587f30644e72e131a029b85045b68181585d97816a916871ca8d3c208c16d87cfd47806120505761204f61568b565b5b8385096127ae565b905060007f30644e72e131a029b85045b68181585d97816a916871ca8d3c208c16d87cfd478061208b5761208a61568b565b5b78016789af3a83522eb353c98fc6b36d713d5d8d1cc5dffffffa7f30644e72e131a029b85045b68181585d97816a916871ca8d3c208c16d87cfd47806120d4576120d361568b565b5b847f30644e72e131a029b85045b68181585d97816a916871ca8d3c208c16d87cfd47806121045761210361568b565b5b888b090909905060007f30644e72e131a029b85045b68181585d97816a916871ca8d3c208c16d87cfd478061213c5761213b61568b565b5b827f30644e72e131a029b85045b68181585d97816a916871ca8d3c208c16d87cfd4761216891906154cc565b7f183227397098d014dc2822db40c0ac2ecbc0b548b438e5469e10460b6c3e7ea308905060007f30644e72e131a029b85045b68181585d97816a916871ca8d3c208c16d87cfd47806121bd576121bc61568b565b5b837f183227397098d014dc2822db40c0ac2ecbc0b548b438e5469e10460b6c3e7ea308905060007f30644e72e131a029b85045b68181585d97816a916871ca8d3c208c16d87cfd47806122135761221261568b565b5b868709905060007f30644e72e131a029b85045b68181585d97816a916871ca8d3c208c16d87cfd47806122495761224861568b565b5b868309905060007f30644e72e131a029b85045b68181585d97816a916871ca8d3c208c16d87cfd478061227f5761227e61568b565b5b7f30644e72e131a029b85045b68181585d97816a916871ca8d3c208c16d87cfd47806122ae576122ad61568b565b5b7f30644e72e131a029b85045b68181585d97816a916871ca8d3c208c16d87cfd47806122dd576122dc61568b565b5b8485097f10216f7ba065e00de81ac1e7808072c9dd2b2385cd7b438469602eb24829a9bd096001089050600080600161231d612318896127c0565b61285e565b60000b036123bf57868c60006002811061233a5761233961429f565b5b60200201818152505061234c876127c0565b905061235781612926565b8d60016002811061236b5761236a61429f565b5b60200201819450828152505050816123ba57806040517f396ec7710000000000000000000000000000000000000000000000000000000081526004016123b19190615670565b60405180910390fd5b61250b565b60016123d26123cd886127c0565b61285e565b60000b0361247457858c6000600281106123ef576123ee61429f565b5b602002018181525050612401866127c0565b905061240c81612926565b8d6001600281106124205761241f61429f565b5b602002018194508281525050508161246f57806040517f396ec7710000000000000000000000000000000000000000000000000000000081526004016124669190615670565b60405180910390fd5b61250a565b828c6000600281106124895761248861429f565b5b60200201818152505061249b836127c0565b90506124a681612926565b8d6001600281106124ba576124b961429f565b5b602002018194508281525050508161250957806040517f396ec7710000000000000000000000000000000000000000000000000000000081526004016125009190615670565b60405180910390fd5b5b5b61252c8c6001600281106125225761252161429f565b5b602002015161296f565b6125358e61296f565b1461259c578b60016002811061254e5761254d61429f565b5b60200201517f30644e72e131a029b85045b68181585d97816a916871ca8d3c208c16d87cfd4761257e91906154cc565b8c6001600281106125925761259161429f565b5b6020020181815250505b5050505050505050505050919050565b606060008351905060ff8111156125fa57836040517f26e4f9ba0000000000000000000000000000000000000000000000000000000081526004016125f19190615704565b60405180910390fd5b6000608867ffffffffffffffff811115612617576126166142d3565b5b6040519080825280601f01601f1916602001820160405280156126495781602001600182028036833780820191505090505b509050600081856000606060008a8860405160200161266e979695949392919061578d565b6040516020818303038152906040529050600081805190602001209050600081600189876040516020016126a59493929190615802565b60405160208183030381529060405290506000818051906020012090506000606067ffffffffffffffff8111156126df576126de6142d3565b5b6040519080825280601f01601f1916602001820160405280156127115781602001600182028036833780820191505090505b5090506000600390506000600190505b8181101561278957838618816001612739919061562d565b8d8b60405160200161274e9493929190615802565b604051602081830303815290604052945082602001600182036020028101905084815250848051906020012093508080600101915050612721565b5081602001600182036020028101905083815250819850505050505050505092915050565b60006127b982612985565b9050919050565b60007f30644e72e131a029b85045b68181585d97816a916871ca8d3c208c16d87cfd47806127f1576127f061568b565b5b60037f30644e72e131a029b85045b68181585d97816a916871ca8d3c208c16d87cfd47806128225761282161568b565b5b847f30644e72e131a029b85045b68181585d97816a916871ca8d3c208c16d87cfd47806128525761285161568b565b5b86870909089050919050565b60008061286a836130df565b905060017f30644e72e131a029b85045b68181585d97816a916871ca8d3c208c16d87cfd4761289991906154cc565b81036128c8577fffffffffffffffffffffffffffffffffffffffffffffffffffffffffffffffff915050612921565b600081141580156128da575060018114155b1561291c57826040517f396ec7710000000000000000000000000000000000000000000000000000000081526004016129139190615670565b60405180910390fd5b809150505b919050565b6000806129328361324e565b9150827f30644e72e131a029b85045b68181585d97816a916871ca8d3c208c16d87cfd47806129645761296361568b565b5b838409149050915091565b600060028261297e919061584c565b9050919050565b60007f30644e72e131a029b85045b68181585d97816a916871ca8d3c208c16d87cfd478083840991508083830981838209828283098385830984848309858484098684850997508684840987858409945087898a09985087898a09985087898a09985087898a09985087898a09985087878a09985087898a09985087898a09985087898a099850878a8a09985087898a09985087898a09985087898a09985087898a099850878a8a09985087898a09985087898a09985087898a09985087898a09985087898a09985087848a09985087898a09985087898a09985087898a09985087898a09985087898a09985087848a09985087898a09985087898a09985087898a099850878a8a09985087898a09985087898a09985087898a09985087898a09985087848a09985087898a09985087898a09985087898a09985087898a09985087898a099850878a8a09985087898a09985087898a09985087898a09985087898a09985087878a09985087898a09985087898a09985087898a09985087898a09985087898a09985087898a09985087898a09985087818a09985087898a09985087898a09985087898a09985087898a09985087898a09985087898a09985087898a09985087898a09985087898a09985087898a09985087868a09985087898a09985087898a09985087898a09985087898a09985087878a09985087898a09985087898a09985087898a09985087898a09985087848a09985087898a09985087898a09985087898a09985087898a09985087898a09985087898a09985087898a09985087868a09985087898a09985087898a09985087898a09985087898a09985087898a09985087898a099850878a8a09985087898a09985087898a09985087898a09985087898a09985087898a09985087898a09985087898a09985087828a09985087898a09985087898a09985087898a09985087898a09985087898a09985087818a09985087898a09985087898a09985087898a09985087868a09985087898a09985087898a09985087898a09985087898a09985087898a09985087898a09985087898a09985087898a09985087878a09985087898a09985087898a09985087898a09985087898a09985087898a09985087898a09985087898a09985087898a09985087898a09985087868a09985087898a09985087898a09985087898a09985087878a09985087898a09985087898a09985087898a09985087898a09985087898a09985087898a09985087898a09985087898a09985087828a09985087898a09985087898a09985087898a09985087898a09985087828a09985087898a09985087898a09985087898a09985087898a09985087898a09985087868a09985087898a09985087898a09985087898a09985087848a09985087898a09985087898a09985087898a09985087898a09985087898a09985087898a09985087898a09985087898a09985087898a09985087898a09985087828a09985087898a09985087898a09985087898a09985087898a09985087868a09985087898a09985087898a09985087898a09985087898a09985087898a09985087838a09985087898a09985087898a09985087898a09985087898a09985087898a09985087898a09985087898a09985087828a09985087898a09985087898a099850878a8a09985087898a09985087898a09985087898a09985087898a09985087898a09985087898a09985087898a09985087848a09985087898a09985087898a09985087898a09985087898a09985087898a09985087898a09985087848a09985087898a09985087898a09985087898a09985087898a09985087898a09985087868a09985087898a09985087898a099850878a8a09985087898a09985087898a09985087898a09985087898a09985087898a09985087898a09985087898a09985087818a09985087898a09985087898a09985087898a09985087898a09985087898a09985087898a09985087858a09985087898a09985087898a09985087898a09985087898a09985087898a099850878a8a09985087898a09985087898a09985087898a09985087898a09985087898a09985087898a099850878a8a09985087898a09985087898a09985087898a09985087898a09985087898a09985087878a09985087898a09985087898a09985087898a09985087898a09985087898a09985087898a09985087898a09985087898a09985087898a09985087828a09985087898a09985087898a09985087898a09985087878a09985087898a09985087898a09985087898a09985087878a09985087898a09985087898a09985087898a09985087898a09985087898a09985087898a09985087898a09985087898a09985087858a09985087898a09985087898a09985087898a09985087898a09985087838a09985087898a09985087898a09985087898a09985087898a09985087858a09985087898a09985087898a09985087898a09985087868a09985087898a09985087898a099850878a8a09985087898a09985087898a09985087898a09985087898a09985087898a09985087898a09985087868a0998505050505050505050919050565b60008060c067ffffffffffffffff8111156130fd576130fc6142d3565b5b6040519080825280601f01601f19166020018201604052801561312f5781602001600182028036833780820191505090505b5090506000602082016020815260208101905060208152602081019050602081526020810190508481526020810190507f183227397098d014dc2822db40c0ac2ecbc0b548b438e5469e10460b6c3e7ea381526020810190507f30644e72e131a029b85045b68181585d97816a916871ca8d3c208c16d87cfd4781526020600060c06020860160055afa91506000519350508061324757837f183227397098d014dc2822db40c0ac2ecbc0b548b438e5469e10460b6c3e7ea37f30644e72e131a029b85045b68181585d97816a916871ca8d3c208c16d87cfd476040517fc6daf7ab00000000000000000000000000000000000000000000000000000000815260040161323e9392919061587d565b60405180910390fd5b5050919050565b60007f30644e72e131a029b85045b68181585d97816a916871ca8d3c208c16d87cfd478083840991508083830981838209828283098385830984848309858484098684850997508684840987858409945087898a09985087898a09985087898a09985087898a09985087898a09985087878a09985087898a09985087898a09985087898a099850878a8a09985087898a09985087898a09985087898a09985087898a099850878a8a09985087898a09985087898a09985087898a09985087898a09985087898a09985087848a09985087898a09985087898a09985087898a09985087898a09985087898a09985087848a09985087898a09985087898a09985087898a099850878a8a09985087898a09985087898a09985087898a09985087898a09985087848a09985087898a09985087898a09985087898a09985087898a09985087898a099850878a8a09985087898a09985087898a09985087898a09985087898a09985087878a09985087898a09985087898a09985087898a09985087898a09985087898a09985087898a09985087898a09985087818a09985087898a09985087898a09985087898a09985087898a09985087898a09985087898a09985087898a09985087898a09985087898a09985087898a09985087868a09985087898a09985087898a09985087898a09985087898a09985087878a09985087898a09985087898a09985087898a09985087898a09985087848a09985087898a09985087898a09985087898a09985087898a09985087898a09985087898a09985087898a09985087868a09985087898a09985087898a09985087898a09985087898a09985087898a09985087898a099850878a8a09985087898a09985087898a09985087898a09985087898a09985087898a09985087898a09985087898a09985087828a09985087898a09985087898a09985087898a09985087898a09985087898a09985087818a09985087898a09985087898a09985087898a09985087868a09985087898a09985087898a09985087898a09985087898a09985087898a09985087898a09985087898a09985087898a09985087878a09985087898a09985087898a09985087898a09985087898a09985087898a09985087898a09985087898a09985087898a09985087898a09985087868a09985087898a09985087898a09985087898a09985087878a09985087898a09985087898a09985087898a09985087898a09985087898a09985087898a09985087898a09985087898a09985087828a09985087898a09985087898a09985087898a09985087898a09985087828a09985087898a09985087898a09985087898a09985087898a09985087898a09985087868a09985087898a09985087898a09985087898a09985087848a09985087898a09985087898a09985087898a09985087898a09985087898a09985087898a09985087898a09985087898a09985087898a09985087898a09985087828a09985087898a09985087898a09985087898a09985087898a09985087868a09985087898a09985087898a09985087898a09985087898a09985087898a09985087838a09985087898a09985087898a09985087898a09985087898a09985087898a09985087898a09985087898a09985087828a09985087898a09985087898a099850878a8a09985087898a09985087898a09985087898a09985087898a09985087898a09985087898a09985087898a09985087848a09985087898a09985087898a09985087898a09985087898a09985087898a09985087898a09985087848a09985087898a09985087898a09985087898a09985087898a09985087898a09985087868a09985087898a09985087898a099850878a8a09985087898a09985087898a09985087898a09985087898a09985087898a09985087898a09985087898a09985087818a09985087898a09985087898a09985087898a09985087898a09985087898a09985087898a09985087858a09985087898a09985087898a09985087898a09985087898a09985087898a099850878a8a09985087898a09985087898a09985087898a09985087898a09985087898a09985087898a099850878a8a09985087898a09985087898a09985087898a09985087898a09985087898a09985087878a09985087898a09985087898a09985087898a09985087898a09985087898a09985087898a09985087898a09985087898a09985087898a09985087828a09985087898a09985087898a09985087898a09985087878a09985087898a09985087898a09985087898a09985087878a09985087898a09985087898a09985087898a09985087898a09985087898a09985087898a09985087898a09985087898a09985087858a09985087898a09985087898a09985087898a09985087898a09985087838a09985087898a09985087898a09985087898a09985087898a09985087858a09985087898a09985087898a09985087898a09985087868a09985087898a09985087898a09985087898a09985087898a09985087898a09985087838a09985087898a0998505050505050505050919050565b828054828255906000526020600020908101928215613a25579160200282015b82811115613a2457823573ffffffffffffffffffffffffffffffffffffffff168260006101000a81548173ffffffffffffffffffffffffffffffffffffffff021916908373ffffffffffffffffffffffffffffffffffffffff160217905550916020019190600101906139b6565b5b509050613a329190613ba2565b5090565b828054828255906000526020600020906004028101928215613a82579160800282015b82811115613a81578282906004613a71929190613bbf565b5091608001919060040190613a59565b5b509050613a8f9190613bff565b5090565b6040518060800160405280600490602082028036833780820191505090505090565b6040518060400160405280600290602082028036833780820191505090505090565b6040518060200160405280600190602082028036833780820191505090505090565b508054613b0590614202565b6000825580601f10613b175750613b36565b601f016020900490600052602060002090810190613b359190613ba2565b5b50565b5080546000825560020290600052602060002090810190613b5a9190613c23565b50565b5080546000825590600052602060002090810190613b7b9190613ba2565b50565b5080546000825560040290600052602060002090810190613b9f9190613bff565b50565b5b80821115613bbb576000816000905550600101613ba3565b5090565b8260048101928215613bee579160200282015b82811115613bed578235825591602001919060010190613bd2565b5b509050613bfb9190613ba2565b5090565b5b80821115613c1f5760008181613c169190613c5e565b50600401613c00565b5090565b5b80821115613c5a57600080820160006101000a81549060ff0219169055600182016000613c519190613af9565b50600201613c24565b5090565b5060008155600101600081556001016000815560010160009055565b6000604051905090565b600080fd5b600080fd5b600080fd5b600080fd5b600080fd5b60008083601f840112613cb357613cb2613c8e565b5b8235905067ffffffffffffffff811115613cd057613ccf613c93565b5b602083019150836001820283011115613cec57613ceb613c98565b5b9250929050565b60008060008060408587031215613d0d57613d0c613c84565b5b600085013567ffffffffffffffff811115613d2b57613d2a613c89565b5b613d3787828801613c9d565b9450945050602085013567ffffffffffffffff811115613d5a57613d59613c89565b5b613d6687828801613c9d565b925092505092959194509250565b600081519050919050565b600082825260208201905092915050565b6000819050602082019050919050565b7f4e487b7100000000000000000000000000000000000000000000000000000000600052602160045260246000fd5b60038110613de057613ddf613da0565b5b50565b6000819050613df182613dcf565b919050565b6000613e0182613de3565b9050919050565b613e1181613df6565b82525050565b600081519050919050565b600082825260208201905092915050565b60005b83811015613e51578082015181840152602081019050613e36565b60008484015250505050565b6000601f19601f8301169050919050565b6000613e7982613e17565b613e838185613e22565b9350613e93818560208601613e33565b613e9c81613e5d565b840191505092915050565b6000604083016000830151613ebf6000860182613e08565b5060208301518482036020860152613ed78282613e6e565b9150508091505092915050565b6000613ef08383613ea7565b905092915050565b6000602082019050919050565b6000613f1082613d74565b613f1a8185613d7f565b935083602082028501613f2c85613d90565b8060005b85811015613f685784840389528151613f498582613ee4565b9450613f5483613ef8565b925060208a01995050600181019050613f30565b50829750879550505050505092915050565b60006020820190508181036000830152613f948184613f05565b905092915050565b60008060008060008060608789031215613fb957613fb8613c84565b5b600087013567ffffffffffffffff811115613fd757613fd6613c89565b5b613fe389828a01613c9d565b9650965050602087013567ffffffffffffffff81111561400657614005613c89565b5b61401289828a01613c9d565b9450945050604087013567ffffffffffffffff81111561403557614034613c89565b5b61404189828a01613c9d565b92509250509295509295509295565b60008115159050919050565b61406581614050565b82525050565b6000602082019050614080600083018461405c565b92915050565b600080fd5b600061014082840312156140a2576140a1614086565b5b81905092915050565b6000602082840312156140c1576140c0613c84565b5b600082013567ffffffffffffffff8111156140df576140de613c89565b5b6140eb8482850161408b565b91505092915050565b600081519050919050565b600082825260208201905092915050565b600061411b826140f4565b61412581856140ff565b9350614135818560208601613e33565b61413e81613e5d565b840191505092915050565b600060208201905081810360008301526141638184614110565b905092915050565b600060e0828403121561418157614180614086565b5b81905092915050565b6000602082840312156141a05761419f613c84565b5b600082013567ffffffffffffffff8111156141be576141bd613c89565b5b6141ca8482850161416b565b91505092915050565b7f4e487b7100000000000000000000000000000000000000000000000000000000600052602260045260246000fd5b6000600282049050600182168061421a57607f821691505b60208210810361422d5761422c6141d3565b5b50919050565b7f4143433a20706f6c696379206e6f7420666f756e640000000000000000000000600082015250565b60006142696015836140ff565b915061427482614233565b602082019050919050565b600060208201905081810360008301526142988161425c565b9050919050565b7f4e487b7100000000000000000000000000000000000000000000000000000000600052603260045260246000fd5b600080fd5b7f4e487b7100000000000000000000000000000000000000000000000000000000600052604160045260246000fd5b61430b82613e5d565b810181811067ffffffffffffffff8211171561432a576143296142d3565b5b80604052505050565b600061433d613c7a565b90506143498282614302565b919050565b6000819050919050565b6143618161434e565b811461436c57600080fd5b50565b60008151905061437e81614358565b92915050565b600063ffffffff82169050919050565b61439d81614384565b81146143a857600080fd5b50565b6000815190506143ba81614394565b92915050565b6000608082840312156143d6576143d56142ce565b5b6143e06080614333565b905060006143f08482850161436f565b60008301525060206144048482850161436f565b6020830152506040614418848285016143ab565b604083015250606061442c848285016143ab565b60608301525092915050565b60006080828403121561444e5761444d613c84565b5b600061445c848285016143c0565b91505092915050565b61446e8161434e565b82525050565b61447d81614384565b82525050565b6080820160008201516144996000850182614465565b5060208201516144ac6020850182614465565b5060408201516144bf6040850182614474565b5060608201516144d26060850182614474565b50505050565b60006080820190506144ed6000830184614483565b92915050565b6144fc81614050565b811461450757600080fd5b50565b600081519050614519816144f3565b92915050565b60006020828403121561453557614534613c84565b5b60006145438482850161450a565b91505092915050565b600081905092915050565b82818337600083830152505050565b6000614572838561454c565b935061457f838584614557565b82840190509392505050565b6000614598828486614566565b91508190509392505050565b600381106145b157600080fd5b50565b6000815190506145c3816145a4565b92915050565b6000602082840312156145df576145de613c84565b5b60006145ed848285016145b4565b91505092915050565b600082825260208201905092915050565b60008190508160005260206000209050919050565b6000815461462981614202565b61463381866145f6565b9450600182166000811461464e576001811461466457614697565b60ff198316865281151560200286019350614697565b61466d85614607565b60005b8381101561468f57815481890152600182019150602081019050614670565b808801955050505b50505092915050565b600381106146b1576146b0613da0565b5b50565b60008190506146c2826146a0565b919050565b60006146d2826146b4565b9050919050565b6146e2816146c7565b82525050565b60006040820190508181036000830152614702818561461c565b905061471160208301846146d9565b9392505050565b7f4143433a20756e6b6e6f776e20706f6c69637920747970650000000000000000600082015250565b600061474e6018836140ff565b915061475982614718565b602082019050919050565b6000602082019050818103600083015261477d81614741565b9050919050565b600080fd5b600080fd5b600080fd5b600080833560016020038436030381126147b0576147af614784565b5b80840192508235915067ffffffffffffffff8211156147d2576147d1614789565b5b6020830192506001820236038313156147ee576147ed61478e565b5b509250929050565b6000808335600160200384360303811261481357614812614784565b5b80840192508235915067ffffffffffffffff82111561483557614834614789565b5b6020830192506020820236038313156148515761485061478e565b5b509250929050565b600082825260208201905092915050565b6000819050919050565b600080fd5b600080fd5b600080fd5b600080833560016020038436030381126148a05761489f61487e565b5b83810192508235915060208301925067ffffffffffffffff8211156148c8576148c7614874565b5b6001820236038313156148de576148dd614879565b5b509250929050565b600082825260208201905092915050565b600061490383856148e6565b9350614910838584614557565b61491983613e5d565b840190509392505050565b6000604083016149376000840184614883565b858303600087015261494a8382846148f7565b9250505061495b6020840184614883565b858303602087015261496e8382846148f7565b925050508091505092915050565b60006149888383614924565b905092915050565b6000823560016040038336030381126149ac576149ab61487e565b5b82810191505092915050565b6000602082019050919050565b60006149d18385614859565b9350836020840285016149e38461486a565b8060005b87811015614a275784840389526149fe8284614990565b614a08858261497c565b9450614a13836149b8565b925060208a019950506001810190506149e7565b50829750879450505050509392505050565b60006020820190508181036000830152614a548184866149c5565b90509392505050565b60008083356001602003843603038112614a7a57614a79614784565b5b80840192508235915067ffffffffffffffff821115614a9c57614a9b614789565b5b602083019250602082023603831315614ab857614ab761478e565b5b509250929050565b7f4143433a20656d70747920636f6e74726f6c6c65727300000000000000000000600082015250565b6000614af66016836140ff565b9150614b0182614ac0565b602082019050919050565b60006020820190508181036000830152614b2581614ae9565b9050919050565b60008083356001602003843603038112614b4957614b48614784565b5b80840192508235915067ffffffffffffffff821115614b6b57614b6a614789565b5b602083019250608082023603831315614b8757614b8661478e565b5b509250929050565b7f4143433a206374726c2f7075626b6579206c656e677468206d69736d61746368600082015250565b6000614bc56020836140ff565b9150614bd082614b8f565b602082019050919050565b60006020820190508181036000830152614bf481614bb8565b9050919050565b600060ff82169050919050565b614c1181614bfb565b8114614c1c57600080fd5b50565b600081359050614c2e81614c08565b92915050565b600060208284031215614c4a57614c49613c84565b5b6000614c5884828501614c1f565b91505092915050565b7f4143433a20696e76616c696420736967207468726573686f6c64000000000000600082015250565b6000614c97601a836140ff565b9150614ca282614c61565b602082019050919050565b60006020820190508181036000830152614cc681614c8a565b9050919050565b60008190508160005260206000209050919050565b60006020601f8301049050919050565b600082821b905092915050565b600060088302614d2f7fffffffffffffffffffffffffffffffffffffffffffffffffffffffffffffffff82614cf2565b614d398683614cf2565b95508019841693508086168417925050509392505050565b6000819050919050565b6000614d76614d71614d6c8461434e565b614d51565b61434e565b9050919050565b6000819050919050565b614d9083614d5b565b614da4614d9c82614d7d565b848454614cff565b825550505050565b600090565b614db9614dac565b614dc4818484614d87565b505050565b5b81811015614de857614ddd600082614db1565b600181019050614dca565b5050565b601f821115614e2d57614dfe81614ccd565b614e0784614ce2565b81016020851015614e16578190505b614e2a614e2285614ce2565b830182614dc9565b50505b505050565b600082821c905092915050565b6000614e5060001984600802614e32565b1980831691505092915050565b6000614e698383614e3f565b9150826002028217905092915050565b614e8282613e17565b67ffffffffffffffff811115614e9b57614e9a6142d3565b5b614ea58254614202565b614eb0828285614dec565b600060209050601f831160018114614ee35760008415614ed1578287015190505b614edb8582614e5d565b865550614f43565b601f198416614ef186614ccd565b60005b82811015614f1957848901518255600182019150602085019450602081019050614ef4565b86831015614f365784890151614f32601f891682614e3f565b8355505b6001600288020188555050505b505050505050565b6000819050919050565b6000819050919050565b614f70614f6b82614f4b565b614f55565b82525050565b600081905092915050565b6000614f8d8385614f76565b9350614f9a838584614557565b82840190509392505050565b6000819050919050565b614fc1614fbc8261434e565b614fa6565b82525050565b6000614fd3828c614f5f565b602082019150614fe4828a8c614f81565b9150614ff182888a614f81565b9150614ffe828688614f81565b915061500a8285614f5f565b60208201915061501a8284614fb0565b6020820191508190509a9950505050505050505050565b7f4e487b7100000000000000000000000000000000000000000000000000000000600052601160045260246000fd5b600061506b8261434e565b91507fffffffffffffffffffffffffffffffffffffffffffffffffffffffffffffffff820361509d5761509c615031565b5b600182019050919050565b7f4143433a206e6f7420656e6f756768207369676e657273000000000000000000600082015250565b60006150de6017836140ff565b91506150e9826150a8565b602082019050919050565b6000602082019050818103600083015261510d816150d1565b9050919050565b7f4143433a206167672d73696720766572696679206661696c6564000000000000600082015250565b600061514a601a836140ff565b915061515582615114565b602082019050919050565b600060208201905081810360008301526151798161513d565b9050919050565b7f4143433a20706f6c6963792d736574206e6f7420666f756e6400000000000000600082015250565b60006151b66019836140ff565b91506151c182615180565b602082019050919050565b600060208201905081810360008301526151e5816151a9565b9050919050565b7f7c00000000000000000000000000000000000000000000000000000000000000600082015250565b6000615222600183614f76565b915061522d826151ec565b600182019050919050565b6000615245828688614f81565b915061525082615215565b915061525d828486614f81565b915081905095945050505050565b600060049050919050565b600081905092915050565b6000819050919050565b6152948161434e565b82525050565b60006152a6838361528b565b60208301905092915050565b6000602082019050919050565b6152c88161526b565b6152d28184615276565b92506152dd82615281565b8060005b8381101561530e5781516152f5878261529a565b9650615300836152b2565b9250506001810190506152e1565b505050505050565b600060808201905061532b60008301846152bf565b92915050565b7f424c533a20473220616464206661696c65640000000000000000000000000000600082015250565b60006153676012836140ff565b915061537282615331565b602082019050919050565b600060208201905081810360008301526153968161535a565b9050919050565b600081546153aa81614202565b6153b4818661454c565b945060018216600081146153cf57600181146153e457615417565b60ff1983168652811515820286019350615417565b6153ed85614ccd565b60005b8381101561540f578154818901526001820191506020810190506153f0565b838801955050505b50505092915050565b600061542c828461539d565b915081905092915050565b6000615442826140f4565b61544c8185614f76565b935061545c818560208601613e33565b80840191505092915050565b60006154748289614f5f565b6020820191506154848288615437565b91506154908287615437565b915061549c8286615437565b91506154a88285614f5f565b6020820191506154b88284614fb0565b602082019150819050979650505050505050565b60006154d78261434e565b91506154e28361434e565b92508282039050818111156154fa576154f9615031565b5b92915050565b60008154905061550f81614202565b9050919050565b8181036155245750506155fc565b61552d82615500565b67ffffffffffffffff811115615546576155456142d3565b5b6155508254614202565b61555b828285614dec565b6000601f83116001811461558a5760008415615578578287015490505b6155828582614e5d565b8655506155f5565b601f19841661559887614ccd565b96506155a386614ccd565b60005b828110156155cb578489015482556001820191506001850194506020810190506155a6565b868310156155e857848901546155e4601f891682614e3f565b8355505b6001600288020188555050505b5050505050505b565b7f4e487b7100000000000000000000000000000000000000000000000000000000600052603160045260246000fd5b60006156388261434e565b91506156438361434e565b925082820190508082111561565b5761565a615031565b5b92915050565b61566a8161434e565b82525050565b60006020820190506156856000830184615661565b92915050565b7f4e487b7100000000000000000000000000000000000000000000000000000000600052601260045260246000fd5b600082825260208201905092915050565b60006156d682613e17565b6156e081856156ba565b93506156f0818560208601613e33565b6156f981613e5d565b840191505092915050565b6000602082019050818103600083015261571e81846156cb565b905092915050565b600061573182613e17565b61573b818561454c565b935061574b818560208601613e33565b80840191505092915050565b60008160f81b9050919050565b600061576f82615757565b9050919050565b61578761578282614bfb565b615764565b82525050565b6000615799828a615726565b91506157a58289615726565b91506157b18288615776565b6001820191506157c18287615776565b6001820191506157d18286615776565b6001820191506157e18285615726565b91506157ed8284615776565b60018201915081905098975050505050505050565b600061580e8287614f5f565b60208201915061581e8286615776565b60018201915061582e8285615726565b915061583a8284615776565b60018201915081905095945050505050565b60006158578261434e565b91506158628361434e565b9250826158725761587161568b565b5b828206905092915050565b60006060820190506158926000830186615661565b61589f6020830185615661565b6158ac6040830184615661565b94935050505056fea264697066735822122090d91abd6a0826289725a2f740ee05af72441650010ce4a6543174392f78c2d964736f6c634300081c0033",
  "linkReferences": {
    "contracts/lib/EnvironmentalPolicyLogic.sol": {
      "EnvironmentalPolicyLogic": [
        {
          "length": 20,
          "start": 2513
        }
      ]
    },
    "contracts/lib/TemporalPolicyLogic.sol": {
      "TemporalPolicyLogic": [
        {
          "length": 20,
          "start": 2026
        }
      ]
    }
  },
  "deployedLinkReferences": {
    "contracts/lib/EnvironmentalPolicyLogic.sol": {
      "EnvironmentalPolicyLogic": [
        {
          "length": 20,
          "start": 1605
        }
      ]
    },
    "contracts/lib/TemporalPolicyLogic.sol": {
      "TemporalPolicyLogic": [
        {
          "length": 20,
          "start": 1118
        }
      ]
    }
  }
}